{
  "_format": "hh-sol-artifact-1",
  "contractName": "NFTMarketplace",
  "sourceName": "contracts/NFTMarketplace.sol",
  "abi": [
    {
      "inputs": [
        {
          "internalType": "address",
          "name": "nftContractAddress",
          "type": "address"
        },
        {
          "internalType": "address[]",
          "name": "payees",
          "type": "address[]"
        },
        {
          "internalType": "uint256[]",
          "name": "shares",
          "type": "uint256[]"
        },
        {
          "internalType": "uint256",
          "name": "royalties",
          "type": "uint256"
        }
      ],
      "stateMutability": "nonpayable",
      "type": "constructor"
    },
    {
      "anonymous": false,
      "inputs": [
        {
          "indexed": true,
          "internalType": "contract IERC20",
          "name": "token",
          "type": "address"
        },
        {
          "indexed": false,
          "internalType": "address",
          "name": "to",
          "type": "address"
        },
        {
          "indexed": false,
          "internalType": "uint256",
          "name": "amount",
          "type": "uint256"
        }
      ],
      "name": "ERC20PaymentReleased",
      "type": "event"
    },
    {
      "anonymous": false,
      "inputs": [
        {
          "indexed": false,
          "internalType": "uint256",
          "name": "requestId",
          "type": "uint256"
        },
        {
          "indexed": false,
          "internalType": "uint256",
          "name": "tokenId",
          "type": "uint256"
        }
      ],
      "name": "MintRequestApproved",
      "type": "event"
    },
    {
      "anonymous": false,
      "inputs": [
        {
          "indexed": true,
          "internalType": "uint256",
          "name": "tokenId",
          "type": "uint256"
        }
      ],
      "name": "NFTBought",
      "type": "event"
    },
    {
      "anonymous": false,
      "inputs": [
        {
          "indexed": true,
          "internalType": "uint256",
          "name": "tokenId",
          "type": "uint256"
        }
      ],
      "name": "NFTDelisted",
      "type": "event"
    },
    {
      "anonymous": false,
      "inputs": [
        {
          "indexed": true,
          "internalType": "uint256",
          "name": "tokenId",
          "type": "uint256"
        }
      ],
      "name": "NFTListed",
      "type": "event"
    },
    {
      "anonymous": false,
      "inputs": [
        {
          "indexed": true,
          "internalType": "address",
          "name": "previousOwner",
          "type": "address"
        },
        {
          "indexed": true,
          "internalType": "address",
          "name": "newOwner",
          "type": "address"
        }
      ],
      "name": "OwnershipTransferred",
      "type": "event"
    },
    {
      "anonymous": false,
      "inputs": [
        {
          "indexed": false,
          "internalType": "address",
          "name": "account",
          "type": "address"
        },
        {
          "indexed": false,
          "internalType": "uint256",
          "name": "shares",
          "type": "uint256"
        }
      ],
      "name": "PayeeAdded",
      "type": "event"
    },
    {
      "anonymous": false,
      "inputs": [
        {
          "indexed": false,
          "internalType": "address",
          "name": "from",
          "type": "address"
        },
        {
          "indexed": false,
          "internalType": "uint256",
          "name": "amount",
          "type": "uint256"
        }
      ],
      "name": "PaymentReceived",
      "type": "event"
    },
    {
      "anonymous": false,
      "inputs": [
        {
          "indexed": false,
          "internalType": "address",
          "name": "to",
          "type": "address"
        },
        {
          "indexed": false,
          "internalType": "uint256",
          "name": "amount",
          "type": "uint256"
        }
      ],
      "name": "PaymentReleased",
      "type": "event"
    },
    {
      "anonymous": false,
      "inputs": [
        {
          "indexed": true,
          "internalType": "uint256",
          "name": "requestId",
          "type": "uint256"
        },
        {
          "indexed": false,
          "internalType": "address",
          "name": "buyer",
          "type": "address"
        },
        {
          "indexed": false,
          "internalType": "string",
          "name": "tokenURI",
          "type": "string"
        },
        {
          "indexed": false,
          "internalType": "uint256",
          "name": "price",
          "type": "uint256"
        }
      ],
      "name": "TokenMintRequest",
      "type": "event"
    },
    {
      "inputs": [],
      "name": "MAX_PRICE",
      "outputs": [
        {
          "internalType": "uint256",
          "name": "",
          "type": "uint256"
        }
      ],
      "stateMutability": "view",
      "type": "function"
    },
    {
      "inputs": [],
      "name": "MIN_PRICE",
      "outputs": [
        {
          "internalType": "uint256",
          "name": "",
          "type": "uint256"
        }
      ],
      "stateMutability": "view",
      "type": "function"
    },
    {
      "inputs": [
        {
          "internalType": "uint256",
          "name": "requestId",
          "type": "uint256"
        }
      ],
      "name": "approveMintRequest",
      "outputs": [],
      "stateMutability": "nonpayable",
      "type": "function"
    },
    {
      "inputs": [
        {
          "internalType": "uint256",
          "name": "tokenId",
          "type": "uint256"
        },
        {
          "internalType": "uint256",
          "name": "collectionId",
          "type": "uint256"
        },
        {
          "internalType": "string",
          "name": "tokenURI",
          "type": "string"
        }
      ],
      "name": "buyNFT",
      "outputs": [],
      "stateMutability": "payable",
      "type": "function"
    },
    {
      "inputs": [
        {
          "internalType": "uint256",
          "name": "tokenId",
          "type": "uint256"
        }
      ],
      "name": "delistNFT",
      "outputs": [],
      "stateMutability": "nonpayable",
      "type": "function"
    },
    {
      "inputs": [
        {
          "internalType": "uint256",
          "name": "requestId",
          "type": "uint256"
        }
      ],
      "name": "getMintRequestDetails",
      "outputs": [
        {
          "internalType": "uint256",
          "name": "collectionId",
          "type": "uint256"
        },
        {
          "internalType": "string",
          "name": "tokenURI",
          "type": "string"
        },
        {
          "internalType": "uint256",
          "name": "price",
          "type": "uint256"
        },
        {
          "internalType": "address",
          "name": "buyer",
          "type": "address"
        },
        {
          "internalType": "bool",
          "name": "approved",
          "type": "bool"
        }
      ],
      "stateMutability": "view",
      "type": "function"
    },
    {
      "inputs": [
        {
          "internalType": "uint256",
          "name": "tokenId",
          "type": "uint256"
        }
      ],
      "name": "isTokenListed",
      "outputs": [
        {
          "internalType": "bool",
          "name": "",
          "type": "bool"
        }
      ],
      "stateMutability": "view",
      "type": "function"
    },
    {
      "inputs": [
        {
          "internalType": "uint256",
          "name": "tokenId",
          "type": "uint256"
        },
        {
          "internalType": "uint256",
          "name": "newPrice",
          "type": "uint256"
        }
      ],
      "name": "listNFT",
      "outputs": [],
      "stateMutability": "nonpayable",
      "type": "function"
    },
    {
      "inputs": [],
      "name": "mintRequestIdTracker",
      "outputs": [
        {
          "internalType": "uint256",
          "name": "",
          "type": "uint256"
        }
      ],
      "stateMutability": "view",
      "type": "function"
    },
    {
      "inputs": [
        {
          "internalType": "uint256",
          "name": "",
          "type": "uint256"
        }
      ],
      "name": "mintRequests",
      "outputs": [
        {
          "internalType": "uint256",
          "name": "collectionId",
          "type": "uint256"
        },
        {
          "internalType": "string",
          "name": "tokenURI",
          "type": "string"
        },
        {
          "internalType": "uint256",
          "name": "price",
          "type": "uint256"
        },
        {
          "internalType": "address",
          "name": "buyer",
          "type": "address"
        },
        {
          "internalType": "bool",
          "name": "approved",
          "type": "bool"
        }
      ],
      "stateMutability": "view",
      "type": "function"
    },
    {
      "inputs": [],
      "name": "owner",
      "outputs": [
        {
          "internalType": "address",
          "name": "",
          "type": "address"
        }
      ],
      "stateMutability": "view",
      "type": "function"
    },
    {
      "inputs": [
        {
          "internalType": "uint256",
          "name": "index",
          "type": "uint256"
        }
      ],
      "name": "payee",
      "outputs": [
        {
          "internalType": "address",
          "name": "",
          "type": "address"
        }
      ],
      "stateMutability": "view",
      "type": "function"
    },
    {
      "inputs": [
        {
          "internalType": "address",
          "name": "account",
          "type": "address"
        }
      ],
      "name": "releasable",
      "outputs": [
        {
          "internalType": "uint256",
          "name": "",
          "type": "uint256"
        }
      ],
      "stateMutability": "view",
      "type": "function"
    },
    {
      "inputs": [
        {
          "internalType": "contract IERC20",
          "name": "token",
          "type": "address"
        },
        {
          "internalType": "address",
          "name": "account",
          "type": "address"
        }
      ],
      "name": "releasable",
      "outputs": [
        {
          "internalType": "uint256",
          "name": "",
          "type": "uint256"
        }
      ],
      "stateMutability": "view",
      "type": "function"
    },
    {
      "inputs": [
        {
          "internalType": "address payable",
          "name": "account",
          "type": "address"
        }
      ],
      "name": "release",
      "outputs": [],
      "stateMutability": "nonpayable",
      "type": "function"
    },
    {
      "inputs": [
        {
          "internalType": "contract IERC20",
          "name": "token",
          "type": "address"
        },
        {
          "internalType": "address",
          "name": "account",
          "type": "address"
        }
      ],
      "name": "release",
      "outputs": [],
      "stateMutability": "nonpayable",
      "type": "function"
    },
    {
      "inputs": [
        {
          "internalType": "contract IERC20",
          "name": "token",
          "type": "address"
        },
        {
          "internalType": "address",
          "name": "account",
          "type": "address"
        }
      ],
      "name": "released",
      "outputs": [
        {
          "internalType": "uint256",
          "name": "",
          "type": "uint256"
        }
      ],
      "stateMutability": "view",
      "type": "function"
    },
    {
      "inputs": [
        {
          "internalType": "address",
          "name": "account",
          "type": "address"
        }
      ],
      "name": "released",
      "outputs": [
        {
          "internalType": "uint256",
          "name": "",
          "type": "uint256"
        }
      ],
      "stateMutability": "view",
      "type": "function"
    },
    {
      "inputs": [],
      "name": "renounceOwnership",
      "outputs": [],
      "stateMutability": "nonpayable",
      "type": "function"
    },
    {
      "inputs": [
        {
          "internalType": "address",
          "name": "account",
          "type": "address"
        }
      ],
      "name": "shares",
      "outputs": [
        {
          "internalType": "uint256",
          "name": "",
          "type": "uint256"
        }
      ],
      "stateMutability": "view",
      "type": "function"
    },
    {
      "inputs": [
        {
          "internalType": "contract IERC20",
          "name": "token",
          "type": "address"
        }
      ],
      "name": "totalReleased",
      "outputs": [
        {
          "internalType": "uint256",
          "name": "",
          "type": "uint256"
        }
      ],
      "stateMutability": "view",
      "type": "function"
    },
    {
      "inputs": [],
      "name": "totalReleased",
      "outputs": [
        {
          "internalType": "uint256",
          "name": "",
          "type": "uint256"
        }
      ],
      "stateMutability": "view",
      "type": "function"
    },
    {
      "inputs": [],
      "name": "totalShares",
      "outputs": [
        {
          "internalType": "uint256",
          "name": "",
          "type": "uint256"
        }
      ],
      "stateMutability": "view",
      "type": "function"
    },
    {
      "inputs": [
        {
          "internalType": "address",
          "name": "newOwner",
          "type": "address"
        }
      ],
      "name": "transferOwnership",
      "outputs": [],
      "stateMutability": "nonpayable",
      "type": "function"
    },
    {
      "stateMutability": "payable",
      "type": "receive"
    }
  ],
  "bytecode": "0x60806040526001600d553480156200001657600080fd5b50604051620053cb380380620053cb83398181016040528101906200003c919062000705565b82826200005e620000526200028d60201b60201c565b6200029560201b60201c565b600180819055508051825114620000ac576040517f08c379a0000000000000000000000000000000000000000000000000000000008152600401620000a39062000925565b60405180910390fd5b6000825111620000f3576040517f08c379a0000000000000000000000000000000000000000000000000000000008152600401620000ea90620009ad565b60405180910390fd5b60005b8251811015620001aa57620001948382815181106200013e577f4e487b7100000000000000000000000000000000000000000000000000000000600052603260045260246000fd5b602002602001015183838151811062000180577f4e487b7100000000000000000000000000000000000000000000000000000000600052603260045260246000fd5b60200260200101516200035960201b60201c565b8080620001a19062000b5a565b915050620000f6565b5050506000835111620001f4576040517f08c379a0000000000000000000000000000000000000000000000000000000008152600401620001eb9062000969565b60405180910390fd5b81518351146200023b576040517f08c379a0000000000000000000000000000000000000000000000000000000008152600401620002329062000947565b60405180910390fd5b83600960006101000a81548173ffffffffffffffffffffffffffffffffffffffff021916908373ffffffffffffffffffffffffffffffffffffffff16021790555080600a819055505050505062000e02565b600033905090565b60008060009054906101000a900473ffffffffffffffffffffffffffffffffffffffff169050816000806101000a81548173ffffffffffffffffffffffffffffffffffffffff021916908373ffffffffffffffffffffffffffffffffffffffff1602179055508173ffffffffffffffffffffffffffffffffffffffff168173ffffffffffffffffffffffffffffffffffffffff167f8be0079c531659141344cd1fd0a4f28419497f9722a3daafe3b4186f6b6457e060405160405180910390a35050565b600073ffffffffffffffffffffffffffffffffffffffff168273ffffffffffffffffffffffffffffffffffffffff161415620003cc576040517f08c379a0000000000000000000000000000000000000000000000000000000008152600401620003c39062000903565b60405180910390fd5b6000811162000412576040517f08c379a00000000000000000000000000000000000000000000000000000000081526004016200040990620009cf565b60405180910390fd5b6000600460008473ffffffffffffffffffffffffffffffffffffffff1673ffffffffffffffffffffffffffffffffffffffff168152602001908152602001600020541462000497576040517f08c379a00000000000000000000000000000000000000000000000000000000081526004016200048e906200098b565b60405180910390fd5b6006829080600181540180825580915050600190039060005260206000200160009091909190916101000a81548173ffffffffffffffffffffffffffffffffffffffff021916908373ffffffffffffffffffffffffffffffffffffffff16021790555080600460008473ffffffffffffffffffffffffffffffffffffffff1673ffffffffffffffffffffffffffffffffffffffff16815260200190815260200160002081905550806002546200054e919062000a89565b6002819055507f40c340f65e17194d14ddddb073d3c9f888e3cb52b5aae0c6c7706b4fbc905fac828260405162000587929190620008d6565b60405180910390a15050565b6000620005aa620005a48462000a1a565b620009f1565b90508083825260208201905082856020860282011115620005ca57600080fd5b60005b85811015620005fe5781620005e388826200067d565b845260208401935060208301925050600181019050620005cd565b5050509392505050565b60006200061f620006198462000a49565b620009f1565b905080838252602082019050828560208602820111156200063f57600080fd5b60005b85811015620006735781620006588882620006ee565b84526020840193506020830192505060018101905062000642565b5050509392505050565b6000815190506200068e8162000dce565b92915050565b600082601f830112620006a657600080fd5b8151620006b884826020860162000593565b91505092915050565b600082601f830112620006d357600080fd5b8151620006e584826020860162000608565b91505092915050565b600081519050620006ff8162000de8565b92915050565b600080600080608085870312156200071c57600080fd5b60006200072c878288016200067d565b945050602085015167ffffffffffffffff8111156200074a57600080fd5b620007588782880162000694565b935050604085015167ffffffffffffffff8111156200077657600080fd5b6200078487828801620006c1565b92505060606200079787828801620006ee565b91505092959194509250565b620007ae8162000ae6565b82525050565b6000620007c3602c8362000a78565b9150620007d08262000c17565b604082019050919050565b6000620007ea60328362000a78565b9150620007f78262000c66565b604082019050919050565b60006200081160238362000a78565b91506200081e8262000cb5565b604082019050919050565b600062000838601e8362000a78565b9150620008458262000d04565b602082019050919050565b60006200085f602b8362000a78565b91506200086c8262000d2d565b604082019050919050565b600062000886601a8362000a78565b9150620008938262000d7c565b602082019050919050565b6000620008ad601d8362000a78565b9150620008ba8262000da5565b602082019050919050565b620008d08162000b1a565b82525050565b6000604082019050620008ed6000830185620007a3565b620008fc6020830184620008c5565b9392505050565b600060208201905081810360008301526200091e81620007b4565b9050919050565b600060208201905081810360008301526200094081620007db565b9050919050565b60006020820190508181036000830152620009628162000802565b9050919050565b60006020820190508181036000830152620009848162000829565b9050919050565b60006020820190508181036000830152620009a68162000850565b9050919050565b60006020820190508181036000830152620009c88162000877565b9050919050565b60006020820190508181036000830152620009ea816200089e565b9050919050565b6000620009fd62000a10565b905062000a0b828262000b24565b919050565b6000604051905090565b600067ffffffffffffffff82111562000a385762000a3762000bd7565b5b602082029050602081019050919050565b600067ffffffffffffffff82111562000a675762000a6662000bd7565b5b602082029050602081019050919050565b600082825260208201905092915050565b600062000a968262000b1a565b915062000aa38362000b1a565b9250827fffffffffffffffffffffffffffffffffffffffffffffffffffffffffffffffff0382111562000adb5762000ada62000ba8565b5b828201905092915050565b600062000af38262000afa565b9050919050565b600073ffffffffffffffffffffffffffffffffffffffff82169050919050565b6000819050919050565b62000b2f8262000c06565b810181811067ffffffffffffffff8211171562000b515762000b5062000bd7565b5b80604052505050565b600062000b678262000b1a565b91507fffffffffffffffffffffffffffffffffffffffffffffffffffffffffffffffff82141562000b9d5762000b9c62000ba8565b5b600182019050919050565b7f4e487b7100000000000000000000000000000000000000000000000000000000600052601160045260246000fd5b7f4e487b7100000000000000000000000000000000000000000000000000000000600052604160045260246000fd5b6000601f19601f8301169050919050565b7f5061796d656e7453706c69747465723a206163636f756e74206973207468652060008201527f7a65726f20616464726573730000000000000000000000000000000000000000602082015250565b7f5061796d656e7453706c69747465723a2070617965657320616e64207368617260008201527f6573206c656e677468206d69736d617463680000000000000000000000000000602082015250565b7f50617965657320616e6420736861726573206c656e677468206d757374206d6160008201527f7463680000000000000000000000000000000000000000000000000000000000602082015250565b7f4174206c65617374206f6e652070617965652069732072657175697265640000600082015250565b7f5061796d656e7453706c69747465723a206163636f756e7420616c726561647960008201527f2068617320736861726573000000000000000000000000000000000000000000602082015250565b7f5061796d656e7453706c69747465723a206e6f20706179656573000000000000600082015250565b7f5061796d656e7453706c69747465723a20736861726573206172652030000000600082015250565b62000dd98162000ae6565b811462000de557600080fd5b50565b62000df38162000b1a565b811462000dff57600080fd5b50565b6145b98062000e126000396000f3fe60806040526004361061014f5760003560e01c80638da5cb5b116100b6578063c45ac0501161006f578063c45ac050146104fc578063cb917b9c14610539578063ce7c2ac214610562578063d79779b21461059f578063e33b7de3146105dc578063f2fde38b1461060757610196565b80638da5cb5b146103c657806394383f14146103f15780639852595c1461041a5780639b83cddc14610457578063a3f8eace14610494578063ad9f20a6146104d157610196565b8063424e657511610108578063424e6575146102b457806348b75044146102f55780636e7f76781461031e578063715018a614610347578063787954eb1461035e5780638b83209b1461038957610196565b806301c11d961461019b57806307cb2994146101c6578063094a6aa41461020757806319165587146102235780633a98ef391461024c578063406072a91461027757610196565b36610196577f6ef95f06320e7a25a04a175ca677b7052bdd97131872c2192525a629f51be77061017d610630565b3460405161018c9291906134c6565b60405180910390a1005b600080fd5b3480156101a757600080fd5b506101b0610638565b6040516101bd919061390c565b60405180910390f35b3480156101d257600080fd5b506101ed60048036038101906101e89190612d3d565b610646565b6040516101fe959493929190613927565b60405180910390f35b610221600480360381019061021c9190612dcb565b61079c565b005b34801561022f57600080fd5b5061024a60048036038101906102459190612c86565b611015565b005b34801561025857600080fd5b50610261611195565b60405161026e919061390c565b60405180910390f35b34801561028357600080fd5b5061029e60048036038101906102999190612d01565b61119f565b6040516102ab919061390c565b60405180910390f35b3480156102c057600080fd5b506102db60048036038101906102d69190612d3d565b611226565b6040516102ec959493929190613927565b60405180910390f35b34801561030157600080fd5b5061031c60048036038101906103179190612d01565b611311565b005b34801561032a57600080fd5b5061034560048036038101906103409190612d3d565b611525565b005b34801561035357600080fd5b5061035c611a02565b005b34801561036a57600080fd5b50610373611a16565b604051610380919061390c565b60405180910390f35b34801561039557600080fd5b506103b060048036038101906103ab9190612d3d565b611a1c565b6040516103bd91906133e4565b60405180910390f35b3480156103d257600080fd5b506103db611a8a565b6040516103e891906133e4565b60405180910390f35b3480156103fd57600080fd5b5061041860048036038101906104139190612d8f565b611ab3565b005b34801561042657600080fd5b50610441600480360381019061043c9190612c34565b611f8b565b60405161044e919061390c565b60405180910390f35b34801561046357600080fd5b5061047e60048036038101906104799190612d3d565b611fd4565b60405161048b91906134ef565b60405180910390f35b3480156104a057600080fd5b506104bb60048036038101906104b69190612c34565b611ffe565b6040516104c8919061390c565b60405180910390f35b3480156104dd57600080fd5b506104e6612031565b6040516104f3919061390c565b60405180910390f35b34801561050857600080fd5b50610523600480360381019061051e9190612d01565b61203c565b604051610530919061390c565b60405180910390f35b34801561054557600080fd5b50610560600480360381019061055b9190612d3d565b6120fa565b005b34801561056e57600080fd5b5061058960048036038101906105849190612c34565b61231b565b604051610596919061390c565b60405180910390f35b3480156105ab57600080fd5b506105c660048036038101906105c19190612cd8565b612364565b6040516105d3919061390c565b60405180910390f35b3480156105e857600080fd5b506105f16123ad565b6040516105fe919061390c565b60405180910390f35b34801561061357600080fd5b5061062e60048036038101906106299190612c34565b6123b7565b005b600033905090565b69021e19e0c9bab240000081565b600060606000806000600d5486108015610661575060018610155b6106a0576040517f08c379a0000000000000000000000000000000000000000000000000000000008152600401610697906138ec565b60405180910390fd5b6000600c6000888152602001908152602001600020905080600001548160010182600201548360030160009054906101000a900473ffffffffffffffffffffffffffffffffffffffff168460030160149054906101000a900460ff1683805461070890613c8c565b80601f016020809104026020016040519081016040528092919081815260200182805461073490613c8c565b80156107815780601f1061075657610100808354040283529160200191610781565b820191906000526020600020905b81548152906001019060200180831161076457829003601f168201915b50505050509350955095509550955095505091939590929450565b6107a461243b565b60008060008514610c3d57600b600086815260200190815260200160002060009054906101000a900460ff1661080f576040517f08c379a00000000000000000000000000000000000000000000000000000000081526004016108069061374c565b60405180910390fd5b600960009054906101000a900473ffffffffffffffffffffffffffffffffffffffff1673ffffffffffffffffffffffffffffffffffffffff1663e7572230866040518263ffffffff1660e01b815260040161086a919061390c565b60206040518083038186803b15801561088257600080fd5b505afa158015610896573d6000803e3d6000fd5b505050506040513d601f19601f820116820180604052508101906108ba9190612d66565b9150600960009054906101000a900473ffffffffffffffffffffffffffffffffffffffff1673ffffffffffffffffffffffffffffffffffffffff16636352211e866040518263ffffffff1660e01b8152600401610917919061390c565b60206040518083038186803b15801561092f57600080fd5b505afa158015610943573d6000803e3d6000fd5b505050506040513d601f19601f820116820180604052508101906109679190612c5d565b90503373ffffffffffffffffffffffffffffffffffffffff168173ffffffffffffffffffffffffffffffffffffffff1614156109d8576040517f08c379a00000000000000000000000000000000000000000000000000000000081526004016109cf9061368c565b60405180910390fd5b813414610a1a576040517f08c379a0000000000000000000000000000000000000000000000000000000008152600401610a11906136ec565b60405180910390fd5b6000610a446064610a36600a548661248b90919063ffffffff16565b6124a190919063ffffffff16565b9050808311610a88576040517f08c379a0000000000000000000000000000000000000000000000000000000008152600401610a7f906136cc565b60405180910390fd5b6000610a9d82856124b790919063ffffffff16565b90506000600b600089815260200190815260200160002060006101000a81548160ff02191690831515021790555060008373ffffffffffffffffffffffffffffffffffffffff1682604051610af1906133cf565b60006040518083038185875af1925050503d8060008114610b2e576040519150601f19603f3d011682016040523d82523d6000602084013e610b33565b606091505b5050905080610b77576040517f08c379a0000000000000000000000000000000000000000000000000000000008152600401610b6e906137cc565b60405180910390fd5b600960009054906101000a900473ffffffffffffffffffffffffffffffffffffffff1673ffffffffffffffffffffffffffffffffffffffff166323b872dd85338b6040518463ffffffff1660e01b8152600401610bd693929190613451565b600060405180830381600087803b158015610bf057600080fd5b505af1158015610c04573d6000803e3d6000fd5b50505050877ff1a4f188d8f608af032a64d403473119856aae541d836c6a78e2187e809c330760405160405180910390a2505050611006565b662386f26fc10000341015610c87576040517f08c379a0000000000000000000000000000000000000000000000000000000008152600401610c7e9061352c565b60405180910390fd5b69021e19e0c9bab2400000341115610cd4576040517f08c379a0000000000000000000000000000000000000000000000000000000008152600401610ccb9061366c565b60405180910390fd5b6000835111610d18576040517f08c379a0000000000000000000000000000000000000000000000000000000008152600401610d0f9061378c565b60405180910390fd5b6001841415610d5c576040517f08c379a0000000000000000000000000000000000000000000000000000000008152600401610d53906137ec565b60405180910390fd5b6000841415610da0576040517f08c379a0000000000000000000000000000000000000000000000000000000008152600401610d979061382c565b60405180910390fd5b6000600960009054906101000a900473ffffffffffffffffffffffffffffffffffffffff1673ffffffffffffffffffffffffffffffffffffffff1663394120c0866040518263ffffffff1660e01b8152600401610dfd919061390c565b60206040518083038186803b158015610e1557600080fd5b505afa158015610e29573d6000803e3d6000fd5b505050506040513d601f19601f82011682018060405250810190610e4d9190612c5d565b90503373ffffffffffffffffffffffffffffffffffffffff168173ffffffffffffffffffffffffffffffffffffffff161415610ebe576040517f08c379a0000000000000000000000000000000000000000000000000000000008152600401610eb59061386c565b60405180910390fd5b6040518060a001604052808681526020018581526020013481526020013373ffffffffffffffffffffffffffffffffffffffff16815260200160001515815250600c6000600d548152602001908152602001600020600082015181600001556020820151816001019080519060200190610f39929190612a96565b506040820151816002015560608201518160030160006101000a81548173ffffffffffffffffffffffffffffffffffffffff021916908373ffffffffffffffffffffffffffffffffffffffff16021790555060808201518160030160146101000a81548160ff021916908315150217905550905050600d547f0514ef6e9a15654bb97b2d44afaa80921232b56180326dd4966e01ecd230d233338634604051610fe493929190613488565b60405180910390a2600d6000815480929190610fff90613cef565b9190505550505b50506110106124cd565b505050565b6000600460008373ffffffffffffffffffffffffffffffffffffffff1673ffffffffffffffffffffffffffffffffffffffff1681526020019081526020016000205411611097576040517f08c379a000000000000000000000000000000000000000000000000000000000815260040161108e906135cc565b60405180910390fd5b60006110a282611ffe565b905060008114156110e8576040517f08c379a00000000000000000000000000000000000000000000000000000000081526004016110df9061364c565b60405180910390fd5b80600360008282546110fa9190613a93565b9250508190555080600560008473ffffffffffffffffffffffffffffffffffffffff1673ffffffffffffffffffffffffffffffffffffffff1681526020019081526020016000206000828254019250508190555061115882826124d6565b7fdf20fd1e76bc69d672e4814fafb2c449bba3a5369d8359adf9e05e6fde87b05682826040516111899291906133ff565b60405180910390a15050565b6000600254905090565b6000600860008473ffffffffffffffffffffffffffffffffffffffff1673ffffffffffffffffffffffffffffffffffffffff16815260200190815260200160002060008373ffffffffffffffffffffffffffffffffffffffff1673ffffffffffffffffffffffffffffffffffffffff16815260200190815260200160002054905092915050565b600c60205280600052604060002060009150905080600001549080600101805461124f90613c8c565b80601f016020809104026020016040519081016040528092919081815260200182805461127b90613c8c565b80156112c85780601f1061129d576101008083540402835291602001916112c8565b820191906000526020600020905b8154815290600101906020018083116112ab57829003601f168201915b5050505050908060020154908060030160009054906101000a900473ffffffffffffffffffffffffffffffffffffffff16908060030160149054906101000a900460ff16905085565b6000600460008373ffffffffffffffffffffffffffffffffffffffff1673ffffffffffffffffffffffffffffffffffffffff1681526020019081526020016000205411611393576040517f08c379a000000000000000000000000000000000000000000000000000000000815260040161138a906135cc565b60405180910390fd5b600061139f838361203c565b905060008114156113e5576040517f08c379a00000000000000000000000000000000000000000000000000000000081526004016113dc9061364c565b60405180910390fd5b80600760008573ffffffffffffffffffffffffffffffffffffffff1673ffffffffffffffffffffffffffffffffffffffff16815260200190815260200160002060008282546114349190613a93565b9250508190555080600860008573ffffffffffffffffffffffffffffffffffffffff1673ffffffffffffffffffffffffffffffffffffffff16815260200190815260200160002060008473ffffffffffffffffffffffffffffffffffffffff1673ffffffffffffffffffffffffffffffffffffffff168152602001908152602001600020600082825401925050819055506114d08383836125ca565b8273ffffffffffffffffffffffffffffffffffffffff167f3be5b7a71e84ed12875d241991c70855ac5817d847039e17a9d895c1ceb0f18a83836040516115189291906134c6565b60405180910390a2505050565b61152d61243b565b6000600c60008381526020019081526020016000209050600073ffffffffffffffffffffffffffffffffffffffff168160030160009054906101000a900473ffffffffffffffffffffffffffffffffffffffff1673ffffffffffffffffffffffffffffffffffffffff1614156115d8576040517f08c379a00000000000000000000000000000000000000000000000000000000081526004016115cf906138ac565b60405180910390fd5b8060030160149054906101000a900460ff161561162a576040517f08c379a0000000000000000000000000000000000000000000000000000000008152600401611621906135ac565b60405180910390fd5b6000600960009054906101000a900473ffffffffffffffffffffffffffffffffffffffff1673ffffffffffffffffffffffffffffffffffffffff1663394120c083600001546040518263ffffffff1660e01b815260040161168b919061390c565b60206040518083038186803b1580156116a357600080fd5b505afa1580156116b7573d6000803e3d6000fd5b505050506040513d601f19601f820116820180604052508101906116db9190612c5d565b90503373ffffffffffffffffffffffffffffffffffffffff168173ffffffffffffffffffffffffffffffffffffffff161461174b576040517f08c379a00000000000000000000000000000000000000000000000000000000081526004016117429061370c565b60405180910390fd5b6000611779606461176b600a54866002015461248b90919063ffffffff16565b6124a190919063ffffffff16565b9050808360020154116117c1576040517f08c379a00000000000000000000000000000000000000000000000000000000081526004016117b8906136cc565b60405180910390fd5b60006117da8285600201546124b790919063ffffffff16565b905060008373ffffffffffffffffffffffffffffffffffffffff1682604051611802906133cf565b60006040518083038185875af1925050503d806000811461183f576040519150601f19603f3d011682016040523d82523d6000602084013e611844565b606091505b5050905080611888576040517f08c379a000000000000000000000000000000000000000000000000000000000815260040161187f9061372c565b60405180910390fd5b6000600960009054906101000a900473ffffffffffffffffffffffffffffffffffffffff1673ffffffffffffffffffffffffffffffffffffffff1663b41a6e3487600001548860010189600201548a60030160009054906101000a900473ffffffffffffffffffffffffffffffffffffffff166040518563ffffffff1660e01b815260040161191a9493929190613981565b602060405180830381600087803b15801561193457600080fd5b505af1158015611948573d6000803e3d6000fd5b505050506040513d601f19601f8201168201806040525081019061196c9190612d66565b905060018660030160146101000a81548160ff0219169083151502179055507febe8a5caf534027cd489966391b45060b1030eb8db4cd6e20429d7bc1cdf959587826040516119bc9291906139cd565b60405180910390a1807ff1a4f188d8f608af032a64d403473119856aae541d836c6a78e2187e809c330760405160405180910390a25050505050506119ff6124cd565b50565b611a0a612650565b611a1460006126ce565b565b600d5481565b600060068281548110611a58577f4e487b7100000000000000000000000000000000000000000000000000000000600052603260045260246000fd5b9060005260206000200160009054906101000a900473ffffffffffffffffffffffffffffffffffffffff169050919050565b60008060009054906101000a900473ffffffffffffffffffffffffffffffffffffffff16905090565b611abb61243b565b662386f26fc10000811015611b05576040517f08c379a0000000000000000000000000000000000000000000000000000000008152600401611afc9061352c565b60405180910390fd5b69021e19e0c9bab2400000811115611b52576040517f08c379a0000000000000000000000000000000000000000000000000000000008152600401611b499061366c565b60405180910390fd5b600b600083815260200190815260200160002060009054906101000a900460ff1615611bb3576040517f08c379a0000000000000000000000000000000000000000000000000000000008152600401611baa906136ac565b60405180910390fd5b3373ffffffffffffffffffffffffffffffffffffffff16600960009054906101000a900473ffffffffffffffffffffffffffffffffffffffff1673ffffffffffffffffffffffffffffffffffffffff16636352211e846040518263ffffffff1660e01b8152600401611c25919061390c565b60206040518083038186803b158015611c3d57600080fd5b505afa158015611c51573d6000803e3d6000fd5b505050506040513d601f19601f82011682018060405250810190611c759190612c5d565b73ffffffffffffffffffffffffffffffffffffffff1614611ccb576040517f08c379a0000000000000000000000000000000000000000000000000000000008152600401611cc2906138cc565b60405180910390fd5b600960009054906101000a900473ffffffffffffffffffffffffffffffffffffffff1673ffffffffffffffffffffffffffffffffffffffff1663e985e9c533306040518363ffffffff1660e01b8152600401611d28929190613428565b60206040518083038186803b158015611d4057600080fd5b505afa158015611d54573d6000803e3d6000fd5b505050506040513d601f19601f82011682018060405250810190611d789190612caf565b80611e5857503073ffffffffffffffffffffffffffffffffffffffff16600960009054906101000a900473ffffffffffffffffffffffffffffffffffffffff1673ffffffffffffffffffffffffffffffffffffffff1663081812fc846040518263ffffffff1660e01b8152600401611df0919061390c565b60206040518083038186803b158015611e0857600080fd5b505afa158015611e1c573d6000803e3d6000fd5b505050506040513d601f19601f82011682018060405250810190611e409190612c5d565b73ffffffffffffffffffffffffffffffffffffffff16145b611e97576040517f08c379a0000000000000000000000000000000000000000000000000000000008152600401611e8e906137ac565b60405180910390fd5b600960009054906101000a900473ffffffffffffffffffffffffffffffffffffffff1673ffffffffffffffffffffffffffffffffffffffff1663f7d9757783836040518363ffffffff1660e01b8152600401611ef49291906139cd565b600060405180830381600087803b158015611f0e57600080fd5b505af1158015611f22573d6000803e3d6000fd5b505050506001600b600084815260200190815260200160002060006101000a81548160ff021916908315150217905550817fdb1fd9bae40110b73b6592270632b19e60d204d52ee5cd72c60d076e6bdd342f60405160405180910390a2611f876124cd565b5050565b6000600560008373ffffffffffffffffffffffffffffffffffffffff1673ffffffffffffffffffffffffffffffffffffffff168152602001908152602001600020549050919050565b6000600b600083815260200190815260200160002060009054906101000a900460ff169050919050565b6000806120096123ad565b476120149190613a93565b9050612029838261202486611f8b565b612792565b915050919050565b662386f26fc1000081565b60008061204884612364565b8473ffffffffffffffffffffffffffffffffffffffff166370a08231306040518263ffffffff1660e01b815260040161208191906133e4565b60206040518083038186803b15801561209957600080fd5b505afa1580156120ad573d6000803e3d6000fd5b505050506040513d601f19601f820116820180604052508101906120d19190612d66565b6120db9190613a93565b90506120f183826120ec878761119f565b612792565b91505092915050565b61210261243b565b600960009054906101000a900473ffffffffffffffffffffffffffffffffffffffff1673ffffffffffffffffffffffffffffffffffffffff16636352211e826040518263ffffffff1660e01b815260040161215d919061390c565b60206040518083038186803b15801561217557600080fd5b505afa158015612189573d6000803e3d6000fd5b505050506040513d601f19601f820116820180604052508101906121ad9190612c5d565b73ffffffffffffffffffffffffffffffffffffffff163373ffffffffffffffffffffffffffffffffffffffff16148061221857506121e9611a8a565b73ffffffffffffffffffffffffffffffffffffffff163373ffffffffffffffffffffffffffffffffffffffff16145b612257576040517f08c379a000000000000000000000000000000000000000000000000000000000815260040161224e9061358c565b60405180910390fd5b600b600082815260200190815260200160002060009054906101000a900460ff166122b7576040517f08c379a00000000000000000000000000000000000000000000000000000000081526004016122ae9061356c565b60405180910390fd5b6000600b600083815260200190815260200160002060006101000a81548160ff021916908315150217905550807fc0c55a6edead4433d18cb1e287a0a20a2fa003a6f483bc9823d2e504d70d1c6760405160405180910390a26123186124cd565b50565b6000600460008373ffffffffffffffffffffffffffffffffffffffff1673ffffffffffffffffffffffffffffffffffffffff168152602001908152602001600020549050919050565b6000600760008373ffffffffffffffffffffffffffffffffffffffff1673ffffffffffffffffffffffffffffffffffffffff168152602001908152602001600020549050919050565b6000600354905090565b6123bf612650565b600073ffffffffffffffffffffffffffffffffffffffff168173ffffffffffffffffffffffffffffffffffffffff16141561242f576040517f08c379a00000000000000000000000000000000000000000000000000000000081526004016124269061354c565b60405180910390fd5b612438816126ce565b50565b60026001541415612481576040517f08c379a00000000000000000000000000000000000000000000000000000000081526004016124789061388c565b60405180910390fd5b6002600181905550565b600081836124999190613b1a565b905092915050565b600081836124af9190613ae9565b905092915050565b600081836124c59190613b74565b905092915050565b60018081905550565b80471015612519576040517f08c379a00000000000000000000000000000000000000000000000000000000081526004016125109061360c565b60405180910390fd5b60008273ffffffffffffffffffffffffffffffffffffffff168260405161253f906133cf565b60006040518083038185875af1925050503d806000811461257c576040519150601f19603f3d011682016040523d82523d6000602084013e612581565b606091505b50509050806125c5576040517f08c379a00000000000000000000000000000000000000000000000000000000081526004016125bc906135ec565b60405180910390fd5b505050565b61264b8363a9059cbb60e01b84846040516024016125e99291906134c6565b604051602081830303815290604052907bffffffffffffffffffffffffffffffffffffffffffffffffffffffff19166020820180517bffffffffffffffffffffffffffffffffffffffffffffffffffffffff8381831617835250505050612800565b505050565b612658610630565b73ffffffffffffffffffffffffffffffffffffffff16612676611a8a565b73ffffffffffffffffffffffffffffffffffffffff16146126cc576040517f08c379a00000000000000000000000000000000000000000000000000000000081526004016126c39061376c565b60405180910390fd5b565b60008060009054906101000a900473ffffffffffffffffffffffffffffffffffffffff169050816000806101000a81548173ffffffffffffffffffffffffffffffffffffffff021916908373ffffffffffffffffffffffffffffffffffffffff1602179055508173ffffffffffffffffffffffffffffffffffffffff168173ffffffffffffffffffffffffffffffffffffffff167f8be0079c531659141344cd1fd0a4f28419497f9722a3daafe3b4186f6b6457e060405160405180910390a35050565b600081600254600460008773ffffffffffffffffffffffffffffffffffffffff1673ffffffffffffffffffffffffffffffffffffffff16815260200190815260200160002054856127e39190613b1a565b6127ed9190613ae9565b6127f79190613b74565b90509392505050565b6000612862826040518060400160405280602081526020017f5361666545524332303a206c6f772d6c6576656c2063616c6c206661696c65648152508573ffffffffffffffffffffffffffffffffffffffff166128c89092919063ffffffff16565b90506000815114806128845750808060200190518101906128839190612caf565b5b6128c3576040517f08c379a00000000000000000000000000000000000000000000000000000000081526004016128ba9061384c565b60405180910390fd5b505050565b60606128d784846000856128e0565b90509392505050565b606082471015612925576040517f08c379a000000000000000000000000000000000000000000000000000000000815260040161291c9061362c565b60405180910390fd5b6000808673ffffffffffffffffffffffffffffffffffffffff16858760405161294e91906133b8565b60006040518083038185875af1925050503d806000811461298b576040519150601f19603f3d011682016040523d82523d6000602084013e612990565b606091505b50915091506129a1878383876129ad565b92505050949350505050565b60608315612a1057600083511415612a08576129c885612a23565b612a07576040517f08c379a00000000000000000000000000000000000000000000000000000000081526004016129fe9061380c565b60405180910390fd5b5b829050612a1b565b612a1a8383612a46565b5b949350505050565b6000808273ffffffffffffffffffffffffffffffffffffffff163b119050919050565b600082511115612a595781518083602001fd5b806040517f08c379a0000000000000000000000000000000000000000000000000000000008152600401612a8d919061350a565b60405180910390fd5b828054612aa290613c8c565b90600052602060002090601f016020900481019282612ac45760008555612b0b565b82601f10612add57805160ff1916838001178555612b0b565b82800160010185558215612b0b579182015b82811115612b0a578251825591602001919060010190612aef565b5b509050612b189190612b1c565b5090565b5b80821115612b35576000816000905550600101612b1d565b5090565b6000612b4c612b4784613a1b565b6139f6565b905082815260208101848484011115612b6457600080fd5b612b6f848285613c4a565b509392505050565b600081359050612b8681614510565b92915050565b600081519050612b9b81614510565b92915050565b600081359050612bb081614527565b92915050565b600081519050612bc58161453e565b92915050565b600081359050612bda81614555565b92915050565b600082601f830112612bf157600080fd5b8135612c01848260208601612b39565b91505092915050565b600081359050612c198161456c565b92915050565b600081519050612c2e8161456c565b92915050565b600060208284031215612c4657600080fd5b6000612c5484828501612b77565b91505092915050565b600060208284031215612c6f57600080fd5b6000612c7d84828501612b8c565b91505092915050565b600060208284031215612c9857600080fd5b6000612ca684828501612ba1565b91505092915050565b600060208284031215612cc157600080fd5b6000612ccf84828501612bb6565b91505092915050565b600060208284031215612cea57600080fd5b6000612cf884828501612bcb565b91505092915050565b60008060408385031215612d1457600080fd5b6000612d2285828601612bcb565b9250506020612d3385828601612b77565b9150509250929050565b600060208284031215612d4f57600080fd5b6000612d5d84828501612c0a565b91505092915050565b600060208284031215612d7857600080fd5b6000612d8684828501612c1f565b91505092915050565b60008060408385031215612da257600080fd5b6000612db085828601612c0a565b9250506020612dc185828601612c0a565b9150509250929050565b600080600060608486031215612de057600080fd5b6000612dee86828701612c0a565b9350506020612dff86828701612c0a565b925050604084013567ffffffffffffffff811115612e1c57600080fd5b612e2886828701612be0565b9150509250925092565b612e3b81613c14565b82525050565b612e4a81613ba8565b82525050565b612e5981613bcc565b82525050565b6000612e6a82613a61565b612e748185613a77565b9350612e84818560208601613c59565b80840191505092915050565b6000612e9b82613a6c565b612ea58185613a82565b9350612eb5818560208601613c59565b612ebe81613df4565b840191505092915050565b60008154612ed681613c8c565b612ee08186613a82565b94506001821660008114612efb5760018114612f0d57612f40565b60ff1983168652602086019350612f40565b612f1685613a4c565b60005b83811015612f3857815481890152600182019150602081019050612f19565b808801955050505b50505092915050565b6000612f56602083613a82565b9150612f6182613e05565b602082019050919050565b6000612f79602683613a82565b9150612f8482613e2e565b604082019050919050565b6000612f9c600e83613a82565b9150612fa782613e7d565b602082019050919050565b6000612fbf602983613a82565b9150612fca82613ea6565b604082019050919050565b6000612fe2601d83613a82565b9150612fed82613ef5565b602082019050919050565b6000613005602683613a82565b915061301082613f1e565b604082019050919050565b6000613028603a83613a82565b915061303382613f6d565b604082019050919050565b600061304b601d83613a82565b915061305682613fbc565b602082019050919050565b600061306e602683613a82565b915061307982613fe5565b604082019050919050565b6000613091602b83613a82565b915061309c82614034565b604082019050919050565b60006130b4601f83613a82565b91506130bf82614083565b602082019050919050565b60006130d7601e83613a82565b91506130e2826140ac565b602082019050919050565b60006130fa601283613a82565b9150613105826140d5565b602082019050919050565b600061311d602b83613a82565b9150613128826140fe565b604082019050919050565b6000613140602783613a82565b915061314b8261414d565b604082019050919050565b6000613163603683613a82565b915061316e8261419c565b604082019050919050565b6000613186602483613a82565b9150613191826141eb565b604082019050919050565b60006131a9601783613a82565b91506131b48261423a565b602082019050919050565b60006131cc602083613a82565b91506131d782614263565b602082019050919050565b60006131ef602183613a82565b91506131fa8261428c565b604082019050919050565b6000613212602a83613a82565b915061321d826142db565b604082019050919050565b6000613235601d83613a82565b91506132408261432a565b602082019050919050565b6000613258600083613a77565b915061326382614353565b600082019050919050565b600061327b600083613a82565b915061328682614353565b600082019050919050565b600061329e601d83613a82565b91506132a982614356565b602082019050919050565b60006132c1602583613a82565b91506132cc8261437f565b604082019050919050565b60006132e4602a83613a82565b91506132ef826143ce565b604082019050919050565b6000613307604083613a82565b91506133128261441d565b604082019050919050565b600061332a601f83613a82565b91506133358261446c565b602082019050919050565b600061334d601b83613a82565b915061335882614495565b602082019050919050565b6000613370601883613a82565b915061337b826144be565b602082019050919050565b6000613393601283613a82565b915061339e826144e7565b602082019050919050565b6133b281613c0a565b82525050565b60006133c48284612e5f565b915081905092915050565b60006133da8261324b565b9150819050919050565b60006020820190506133f96000830184612e41565b92915050565b60006040820190506134146000830185612e32565b61342160208301846133a9565b9392505050565b600060408201905061343d6000830185612e41565b61344a6020830184612e41565b9392505050565b60006060820190506134666000830186612e41565b6134736020830185612e41565b61348060408301846133a9565b949350505050565b600060608201905061349d6000830186612e41565b81810360208301526134af8185612e90565b90506134be60408301846133a9565b949350505050565b60006040820190506134db6000830185612e41565b6134e860208301846133a9565b9392505050565b60006020820190506135046000830184612e50565b92915050565b600060208201905081810360008301526135248184612e90565b905092915050565b6000602082019050818103600083015261354581612f49565b9050919050565b6000602082019050818103600083015261356581612f6c565b9050919050565b6000602082019050818103600083015261358581612f8f565b9050919050565b600060208201905081810360008301526135a581612fb2565b9050919050565b600060208201905081810360008301526135c581612fd5565b9050919050565b600060208201905081810360008301526135e581612ff8565b9050919050565b600060208201905081810360008301526136058161301b565b9050919050565b600060208201905081810360008301526136258161303e565b9050919050565b6000602082019050818103600083015261364581613061565b9050919050565b6000602082019050818103600083015261366581613084565b9050919050565b60006020820190508181036000830152613685816130a7565b9050919050565b600060208201905081810360008301526136a5816130ca565b9050919050565b600060208201905081810360008301526136c5816130ed565b9050919050565b600060208201905081810360008301526136e581613110565b9050919050565b6000602082019050818103600083015261370581613133565b9050919050565b6000602082019050818103600083015261372581613156565b9050919050565b6000602082019050818103600083015261374581613179565b9050919050565b600060208201905081810360008301526137658161319c565b9050919050565b60006020820190508181036000830152613785816131bf565b9050919050565b600060208201905081810360008301526137a5816131e2565b9050919050565b600060208201905081810360008301526137c581613205565b9050919050565b600060208201905081810360008301526137e581613228565b9050919050565b600060208201905081810360008301526138058161326e565b9050919050565b6000602082019050818103600083015261382581613291565b9050919050565b60006020820190508181036000830152613845816132b4565b9050919050565b60006020820190508181036000830152613865816132d7565b9050919050565b60006020820190508181036000830152613885816132fa565b9050919050565b600060208201905081810360008301526138a58161331d565b9050919050565b600060208201905081810360008301526138c581613340565b9050919050565b600060208201905081810360008301526138e581613363565b9050919050565b6000602082019050818103600083015261390581613386565b9050919050565b600060208201905061392160008301846133a9565b92915050565b600060a08201905061393c60008301886133a9565b818103602083015261394e8187612e90565b905061395d60408301866133a9565b61396a6060830185612e41565b6139776080830184612e50565b9695505050505050565b600060808201905061399660008301876133a9565b81810360208301526139a88186612ec9565b90506139b760408301856133a9565b6139c46060830184612e41565b95945050505050565b60006040820190506139e260008301856133a9565b6139ef60208301846133a9565b9392505050565b6000613a00613a11565b9050613a0c8282613cbe565b919050565b6000604051905090565b600067ffffffffffffffff821115613a3657613a35613dc5565b5b613a3f82613df4565b9050602081019050919050565b60008190508160005260206000209050919050565b600081519050919050565b600081519050919050565b600081905092915050565b600082825260208201905092915050565b6000613a9e82613c0a565b9150613aa983613c0a565b9250827fffffffffffffffffffffffffffffffffffffffffffffffffffffffffffffffff03821115613ade57613add613d38565b5b828201905092915050565b6000613af482613c0a565b9150613aff83613c0a565b925082613b0f57613b0e613d67565b5b828204905092915050565b6000613b2582613c0a565b9150613b3083613c0a565b9250817fffffffffffffffffffffffffffffffffffffffffffffffffffffffffffffffff0483118215151615613b6957613b68613d38565b5b828202905092915050565b6000613b7f82613c0a565b9150613b8a83613c0a565b925082821015613b9d57613b9c613d38565b5b828203905092915050565b6000613bb382613bea565b9050919050565b6000613bc582613bea565b9050919050565b60008115159050919050565b6000613be382613ba8565b9050919050565b600073ffffffffffffffffffffffffffffffffffffffff82169050919050565b6000819050919050565b6000613c1f82613c26565b9050919050565b6000613c3182613c38565b9050919050565b6000613c4382613bea565b9050919050565b82818337600083830152505050565b60005b83811015613c77578082015181840152602081019050613c5c565b83811115613c86576000848401525b50505050565b60006002820490506001821680613ca457607f821691505b60208210811415613cb857613cb7613d96565b5b50919050565b613cc782613df4565b810181811067ffffffffffffffff82111715613ce657613ce5613dc5565b5b80604052505050565b6000613cfa82613c0a565b91507fffffffffffffffffffffffffffffffffffffffffffffffffffffffffffffffff821415613d2d57613d2c613d38565b5b600182019050919050565b7f4e487b7100000000000000000000000000000000000000000000000000000000600052601160045260246000fd5b7f4e487b7100000000000000000000000000000000000000000000000000000000600052601260045260246000fd5b7f4e487b7100000000000000000000000000000000000000000000000000000000600052602260045260246000fd5b7f4e487b7100000000000000000000000000000000000000000000000000000000600052604160045260246000fd5b6000601f19601f8301169050919050565b7f5072696365206d757374206265206174206c65617374204d494e5f5052494345600082015250565b7f4f776e61626c653a206e6577206f776e657220697320746865207a65726f206160008201527f6464726573730000000000000000000000000000000000000000000000000000602082015250565b7f4e4654206e6f74206c6973746564000000000000000000000000000000000000600082015250565b7f43616c6c6572206973206e6f74206f776e6572206f66204e4654206f72206d6160008201527f726b6574706c6163650000000000000000000000000000000000000000000000602082015250565b7f4d696e74207265717565737420616c726561647920617070726f766564000000600082015250565b7f5061796d656e7453706c69747465723a206163636f756e7420686173206e6f2060008201527f7368617265730000000000000000000000000000000000000000000000000000602082015250565b7f416464726573733a20756e61626c6520746f2073656e642076616c75652c207260008201527f6563697069656e74206d61792068617665207265766572746564000000000000602082015250565b7f416464726573733a20696e73756666696369656e742062616c616e6365000000600082015250565b7f416464726573733a20696e73756666696369656e742062616c616e636520666f60008201527f722063616c6c0000000000000000000000000000000000000000000000000000602082015250565b7f5061796d656e7453706c69747465723a206163636f756e74206973206e6f742060008201527f647565207061796d656e74000000000000000000000000000000000000000000602082015250565b7f5072696365206d757374206e6f7420657863656564204d41585f505249434500600082015250565b7f4f776e65722063616e6e6f7420627579207468656972206f776e204e46540000600082015250565b7f4e465420616c7265616479206c69737465640000000000000000000000000000600082015250565b7f50726963652073686f756c6420626520686967686572207468616e20746f746160008201527f6c20726f79616c74696573000000000000000000000000000000000000000000602082015250565b7f53656e742076616c756520646f6573206e6f74206d6174636820746865204e4660008201527f5420707269636500000000000000000000000000000000000000000000000000602082015250565b7f4f6e6c792074686520636f6c6c656374696f6e206f776e65722063616e20617060008201527f70726f766520746865206d696e74207265717565737400000000000000000000602082015250565b7f5472616e7366657220746f20436f6c6c656374696f6e206f776e65722066616960008201527f6c65642e00000000000000000000000000000000000000000000000000000000602082015250565b7f4e4654206e6f74206c697374656420666f722073616c65000000000000000000600082015250565b7f4f776e61626c653a2063616c6c6572206973206e6f7420746865206f776e6572600082015250565b7f546f6b656e2055524920697320726571756972656420666f72206d696e74696e60008201527f6700000000000000000000000000000000000000000000000000000000000000602082015250565b7f4d75737420617070726f7665206d61726b6574706c61636520746f206d616e6160008201527f676520746865204e465400000000000000000000000000000000000000000000602082015250565b7f5472616e7366657220746f204e4654206f776e6572206661696c65642e000000600082015250565b50565b7f416464726573733a2063616c6c20746f206e6f6e2d636f6e7472616374000000600082015250565b7f436f6c6c656374696f6e20494420697320726571756972656420666f72206d6960008201527f6e74696e67000000000000000000000000000000000000000000000000000000602082015250565b7f5361666545524332303a204552433230206f7065726174696f6e20646964206e60008201527f6f74207375636365656400000000000000000000000000000000000000000000602082015250565b7f436f6c6c656374696f6e206f776e65722073686f756c64206e6f74207265717560008201527f657374204e46547320696e207468656972206f776e20636f6c6c656374696f6e602082015250565b7f5265656e7472616e637947756172643a207265656e7472616e742063616c6c00600082015250565b7f4d696e74207265717565737420646f6573206e6f742065786973740000000000600082015250565b7f4d757374206265206f776e6572206f6620746865204e46540000000000000000600082015250565b7f496e76616c696420726571756573742049440000000000000000000000000000600082015250565b61451981613ba8565b811461452457600080fd5b50565b61453081613bba565b811461453b57600080fd5b50565b61454781613bcc565b811461455257600080fd5b50565b61455e81613bd8565b811461456957600080fd5b50565b61457581613c0a565b811461458057600080fd5b5056fea264697066735822122099313f4e71ca859d07aedbcee10114b2716cf9a74b460d88780d03079023345864736f6c63430008010033",
  "linkReferences": {},
  "deployedLinkReferences": {}
}