{
  "_format": "hh-sol-artifact-1",
  "contractName": "NFTMarketplace",
  "sourceName": "contracts/NFTMarketplace.sol",
  "abi": [
    {
      "inputs": [
        {
          "internalType": "address",
          "name": "nftContractAddress",
          "type": "address"
        },
        {
          "internalType": "address[]",
          "name": "payees",
          "type": "address[]"
        },
        {
          "internalType": "uint256[]",
          "name": "shares",
          "type": "uint256[]"
        },
        {
          "internalType": "uint256",
          "name": "royalties",
          "type": "uint256"
        }
      ],
      "stateMutability": "nonpayable",
      "type": "constructor"
    },
    {
      "anonymous": false,
      "inputs": [
        {
          "indexed": true,
          "internalType": "contract IERC20",
          "name": "token",
          "type": "address"
        },
        {
          "indexed": false,
          "internalType": "address",
          "name": "to",
          "type": "address"
        },
        {
          "indexed": false,
          "internalType": "uint256",
          "name": "amount",
          "type": "uint256"
        }
      ],
      "name": "ERC20PaymentReleased",
      "type": "event"
    },
    {
      "anonymous": false,
      "inputs": [
        {
          "indexed": false,
          "internalType": "uint256",
          "name": "requestId",
          "type": "uint256"
        },
        {
          "indexed": false,
          "internalType": "uint256",
          "name": "tokenId",
          "type": "uint256"
        }
      ],
      "name": "MintRequestApproved",
      "type": "event"
    },
    {
      "anonymous": false,
      "inputs": [
        {
          "indexed": true,
          "internalType": "uint256",
          "name": "tokenId",
          "type": "uint256"
        }
      ],
      "name": "NFTBought",
      "type": "event"
    },
    {
      "anonymous": false,
      "inputs": [
        {
          "indexed": true,
          "internalType": "uint256",
          "name": "tokenId",
          "type": "uint256"
        }
      ],
      "name": "NFTDelisted",
      "type": "event"
    },
    {
      "anonymous": false,
      "inputs": [
        {
          "indexed": true,
          "internalType": "uint256",
          "name": "tokenId",
          "type": "uint256"
        }
      ],
      "name": "NFTListed",
      "type": "event"
    },
    {
      "anonymous": false,
      "inputs": [
        {
          "indexed": true,
          "internalType": "address",
          "name": "previousOwner",
          "type": "address"
        },
        {
          "indexed": true,
          "internalType": "address",
          "name": "newOwner",
          "type": "address"
        }
      ],
      "name": "OwnershipTransferred",
      "type": "event"
    },
    {
      "anonymous": false,
      "inputs": [
        {
          "indexed": false,
          "internalType": "address",
          "name": "account",
          "type": "address"
        },
        {
          "indexed": false,
          "internalType": "uint256",
          "name": "shares",
          "type": "uint256"
        }
      ],
      "name": "PayeeAdded",
      "type": "event"
    },
    {
      "anonymous": false,
      "inputs": [
        {
          "indexed": false,
          "internalType": "address",
          "name": "from",
          "type": "address"
        },
        {
          "indexed": false,
          "internalType": "uint256",
          "name": "amount",
          "type": "uint256"
        }
      ],
      "name": "PaymentReceived",
      "type": "event"
    },
    {
      "anonymous": false,
      "inputs": [
        {
          "indexed": false,
          "internalType": "address",
          "name": "to",
          "type": "address"
        },
        {
          "indexed": false,
          "internalType": "uint256",
          "name": "amount",
          "type": "uint256"
        }
      ],
      "name": "PaymentReleased",
      "type": "event"
    },
    {
      "anonymous": false,
      "inputs": [
        {
          "indexed": true,
          "internalType": "uint256",
          "name": "requestId",
          "type": "uint256"
        },
        {
          "indexed": false,
          "internalType": "address",
          "name": "buyer",
          "type": "address"
        },
        {
          "indexed": false,
          "internalType": "string",
          "name": "tokenURI",
          "type": "string"
        },
        {
          "indexed": false,
          "internalType": "uint256",
          "name": "price",
          "type": "uint256"
        }
      ],
      "name": "TokenMintRequest",
      "type": "event"
    },
    {
      "inputs": [],
      "name": "MAX_PRICE",
      "outputs": [
        {
          "internalType": "uint256",
          "name": "",
          "type": "uint256"
        }
      ],
      "stateMutability": "view",
      "type": "function"
    },
    {
      "inputs": [],
      "name": "MIN_PRICE",
      "outputs": [
        {
          "internalType": "uint256",
          "name": "",
          "type": "uint256"
        }
      ],
      "stateMutability": "view",
      "type": "function"
    },
    {
      "inputs": [
        {
          "internalType": "uint256",
          "name": "requestId",
          "type": "uint256"
        }
      ],
      "name": "approveMintRequest",
      "outputs": [],
      "stateMutability": "nonpayable",
      "type": "function"
    },
    {
      "inputs": [
        {
          "internalType": "uint256",
          "name": "tokenId",
          "type": "uint256"
        },
        {
          "internalType": "uint256",
          "name": "collectionId",
          "type": "uint256"
        },
        {
          "internalType": "string",
          "name": "tokenURI",
          "type": "string"
        }
      ],
      "name": "buyNFT",
      "outputs": [],
      "stateMutability": "payable",
      "type": "function"
    },
    {
      "inputs": [
        {
          "internalType": "uint256",
          "name": "tokenId",
          "type": "uint256"
        }
      ],
      "name": "delistNFT",
      "outputs": [],
      "stateMutability": "nonpayable",
      "type": "function"
    },
    {
      "inputs": [
        {
          "internalType": "uint256",
          "name": "collectionId",
          "type": "uint256"
        },
        {
          "internalType": "uint256",
          "name": "startIndex",
          "type": "uint256"
        },
        {
          "internalType": "uint256",
          "name": "pageSize",
          "type": "uint256"
        }
      ],
      "name": "getListedTokensInCollection",
      "outputs": [
        {
          "internalType": "uint256[]",
          "name": "",
          "type": "uint256[]"
        }
      ],
      "stateMutability": "view",
      "type": "function"
    },
    {
      "inputs": [
        {
          "internalType": "uint256",
          "name": "requestId",
          "type": "uint256"
        }
      ],
      "name": "getMintRequestDetails",
      "outputs": [
        {
          "internalType": "uint256",
          "name": "collectionId",
          "type": "uint256"
        },
        {
          "internalType": "string",
          "name": "tokenURI",
          "type": "string"
        },
        {
          "internalType": "uint256",
          "name": "price",
          "type": "uint256"
        },
        {
          "internalType": "address",
          "name": "buyer",
          "type": "address"
        },
        {
          "internalType": "bool",
          "name": "approved",
          "type": "bool"
        }
      ],
      "stateMutability": "view",
      "type": "function"
    },
    {
      "inputs": [
        {
          "internalType": "uint256",
          "name": "tokenId",
          "type": "uint256"
        }
      ],
      "name": "isTokenListed",
      "outputs": [
        {
          "internalType": "bool",
          "name": "",
          "type": "bool"
        }
      ],
      "stateMutability": "view",
      "type": "function"
    },
    {
      "inputs": [
        {
          "internalType": "uint256",
          "name": "tokenId",
          "type": "uint256"
        },
        {
          "internalType": "uint256",
          "name": "newPrice",
          "type": "uint256"
        }
      ],
      "name": "listNFT",
      "outputs": [],
      "stateMutability": "nonpayable",
      "type": "function"
    },
    {
      "inputs": [],
      "name": "mintRequestIdTracker",
      "outputs": [
        {
          "internalType": "uint256",
          "name": "",
          "type": "uint256"
        }
      ],
      "stateMutability": "view",
      "type": "function"
    },
    {
      "inputs": [
        {
          "internalType": "uint256",
          "name": "",
          "type": "uint256"
        }
      ],
      "name": "mintRequests",
      "outputs": [
        {
          "internalType": "uint256",
          "name": "collectionId",
          "type": "uint256"
        },
        {
          "internalType": "string",
          "name": "tokenURI",
          "type": "string"
        },
        {
          "internalType": "uint256",
          "name": "price",
          "type": "uint256"
        },
        {
          "internalType": "address",
          "name": "buyer",
          "type": "address"
        },
        {
          "internalType": "bool",
          "name": "approved",
          "type": "bool"
        }
      ],
      "stateMutability": "view",
      "type": "function"
    },
    {
      "inputs": [],
      "name": "owner",
      "outputs": [
        {
          "internalType": "address",
          "name": "",
          "type": "address"
        }
      ],
      "stateMutability": "view",
      "type": "function"
    },
    {
      "inputs": [
        {
          "internalType": "uint256",
          "name": "index",
          "type": "uint256"
        }
      ],
      "name": "payee",
      "outputs": [
        {
          "internalType": "address",
          "name": "",
          "type": "address"
        }
      ],
      "stateMutability": "view",
      "type": "function"
    },
    {
      "inputs": [
        {
          "internalType": "address",
          "name": "account",
          "type": "address"
        }
      ],
      "name": "releasable",
      "outputs": [
        {
          "internalType": "uint256",
          "name": "",
          "type": "uint256"
        }
      ],
      "stateMutability": "view",
      "type": "function"
    },
    {
      "inputs": [
        {
          "internalType": "contract IERC20",
          "name": "token",
          "type": "address"
        },
        {
          "internalType": "address",
          "name": "account",
          "type": "address"
        }
      ],
      "name": "releasable",
      "outputs": [
        {
          "internalType": "uint256",
          "name": "",
          "type": "uint256"
        }
      ],
      "stateMutability": "view",
      "type": "function"
    },
    {
      "inputs": [
        {
          "internalType": "address payable",
          "name": "account",
          "type": "address"
        }
      ],
      "name": "release",
      "outputs": [],
      "stateMutability": "nonpayable",
      "type": "function"
    },
    {
      "inputs": [
        {
          "internalType": "contract IERC20",
          "name": "token",
          "type": "address"
        },
        {
          "internalType": "address",
          "name": "account",
          "type": "address"
        }
      ],
      "name": "release",
      "outputs": [],
      "stateMutability": "nonpayable",
      "type": "function"
    },
    {
      "inputs": [
        {
          "internalType": "contract IERC20",
          "name": "token",
          "type": "address"
        },
        {
          "internalType": "address",
          "name": "account",
          "type": "address"
        }
      ],
      "name": "released",
      "outputs": [
        {
          "internalType": "uint256",
          "name": "",
          "type": "uint256"
        }
      ],
      "stateMutability": "view",
      "type": "function"
    },
    {
      "inputs": [
        {
          "internalType": "address",
          "name": "account",
          "type": "address"
        }
      ],
      "name": "released",
      "outputs": [
        {
          "internalType": "uint256",
          "name": "",
          "type": "uint256"
        }
      ],
      "stateMutability": "view",
      "type": "function"
    },
    {
      "inputs": [],
      "name": "renounceOwnership",
      "outputs": [],
      "stateMutability": "nonpayable",
      "type": "function"
    },
    {
      "inputs": [
        {
          "internalType": "address",
          "name": "account",
          "type": "address"
        }
      ],
      "name": "shares",
      "outputs": [
        {
          "internalType": "uint256",
          "name": "",
          "type": "uint256"
        }
      ],
      "stateMutability": "view",
      "type": "function"
    },
    {
      "inputs": [
        {
          "internalType": "contract IERC20",
          "name": "token",
          "type": "address"
        }
      ],
      "name": "totalReleased",
      "outputs": [
        {
          "internalType": "uint256",
          "name": "",
          "type": "uint256"
        }
      ],
      "stateMutability": "view",
      "type": "function"
    },
    {
      "inputs": [],
      "name": "totalReleased",
      "outputs": [
        {
          "internalType": "uint256",
          "name": "",
          "type": "uint256"
        }
      ],
      "stateMutability": "view",
      "type": "function"
    },
    {
      "inputs": [],
      "name": "totalShares",
      "outputs": [
        {
          "internalType": "uint256",
          "name": "",
          "type": "uint256"
        }
      ],
      "stateMutability": "view",
      "type": "function"
    },
    {
      "inputs": [
        {
          "internalType": "address",
          "name": "newOwner",
          "type": "address"
        }
      ],
      "name": "transferOwnership",
      "outputs": [],
      "stateMutability": "nonpayable",
      "type": "function"
    },
    {
      "stateMutability": "payable",
      "type": "receive"
    }
  ],
  "bytecode": "0x60806040526001600d553480156200001657600080fd5b506040516200598b3803806200598b83398181016040528101906200003c919062000705565b82826200005e620000526200028d60201b60201c565b6200029560201b60201c565b600180819055508051825114620000ac576040517f08c379a0000000000000000000000000000000000000000000000000000000008152600401620000a39062000925565b60405180910390fd5b6000825111620000f3576040517f08c379a0000000000000000000000000000000000000000000000000000000008152600401620000ea90620009ad565b60405180910390fd5b60005b8251811015620001aa57620001948382815181106200013e577f4e487b7100000000000000000000000000000000000000000000000000000000600052603260045260246000fd5b602002602001015183838151811062000180577f4e487b7100000000000000000000000000000000000000000000000000000000600052603260045260246000fd5b60200260200101516200035960201b60201c565b8080620001a19062000b5a565b915050620000f6565b5050506000835111620001f4576040517f08c379a0000000000000000000000000000000000000000000000000000000008152600401620001eb9062000969565b60405180910390fd5b81518351146200023b576040517f08c379a0000000000000000000000000000000000000000000000000000000008152600401620002329062000947565b60405180910390fd5b83600960006101000a81548173ffffffffffffffffffffffffffffffffffffffff021916908373ffffffffffffffffffffffffffffffffffffffff16021790555080600a819055505050505062000e02565b600033905090565b60008060009054906101000a900473ffffffffffffffffffffffffffffffffffffffff169050816000806101000a81548173ffffffffffffffffffffffffffffffffffffffff021916908373ffffffffffffffffffffffffffffffffffffffff1602179055508173ffffffffffffffffffffffffffffffffffffffff168173ffffffffffffffffffffffffffffffffffffffff167f8be0079c531659141344cd1fd0a4f28419497f9722a3daafe3b4186f6b6457e060405160405180910390a35050565b600073ffffffffffffffffffffffffffffffffffffffff168273ffffffffffffffffffffffffffffffffffffffff161415620003cc576040517f08c379a0000000000000000000000000000000000000000000000000000000008152600401620003c39062000903565b60405180910390fd5b6000811162000412576040517f08c379a00000000000000000000000000000000000000000000000000000000081526004016200040990620009cf565b60405180910390fd5b6000600460008473ffffffffffffffffffffffffffffffffffffffff1673ffffffffffffffffffffffffffffffffffffffff168152602001908152602001600020541462000497576040517f08c379a00000000000000000000000000000000000000000000000000000000081526004016200048e906200098b565b60405180910390fd5b6006829080600181540180825580915050600190039060005260206000200160009091909190916101000a81548173ffffffffffffffffffffffffffffffffffffffff021916908373ffffffffffffffffffffffffffffffffffffffff16021790555080600460008473ffffffffffffffffffffffffffffffffffffffff1673ffffffffffffffffffffffffffffffffffffffff16815260200190815260200160002081905550806002546200054e919062000a89565b6002819055507f40c340f65e17194d14ddddb073d3c9f888e3cb52b5aae0c6c7706b4fbc905fac828260405162000587929190620008d6565b60405180910390a15050565b6000620005aa620005a48462000a1a565b620009f1565b90508083825260208201905082856020860282011115620005ca57600080fd5b60005b85811015620005fe5781620005e388826200067d565b845260208401935060208301925050600181019050620005cd565b5050509392505050565b60006200061f620006198462000a49565b620009f1565b905080838252602082019050828560208602820111156200063f57600080fd5b60005b85811015620006735781620006588882620006ee565b84526020840193506020830192505060018101905062000642565b5050509392505050565b6000815190506200068e8162000dce565b92915050565b600082601f830112620006a657600080fd5b8151620006b884826020860162000593565b91505092915050565b600082601f830112620006d357600080fd5b8151620006e584826020860162000608565b91505092915050565b600081519050620006ff8162000de8565b92915050565b600080600080608085870312156200071c57600080fd5b60006200072c878288016200067d565b945050602085015167ffffffffffffffff8111156200074a57600080fd5b620007588782880162000694565b935050604085015167ffffffffffffffff8111156200077657600080fd5b6200078487828801620006c1565b92505060606200079787828801620006ee565b91505092959194509250565b620007ae8162000ae6565b82525050565b6000620007c3602c8362000a78565b9150620007d08262000c17565b604082019050919050565b6000620007ea60328362000a78565b9150620007f78262000c66565b604082019050919050565b60006200081160238362000a78565b91506200081e8262000cb5565b604082019050919050565b600062000838601e8362000a78565b9150620008458262000d04565b602082019050919050565b60006200085f602b8362000a78565b91506200086c8262000d2d565b604082019050919050565b600062000886601a8362000a78565b9150620008938262000d7c565b602082019050919050565b6000620008ad601d8362000a78565b9150620008ba8262000da5565b602082019050919050565b620008d08162000b1a565b82525050565b6000604082019050620008ed6000830185620007a3565b620008fc6020830184620008c5565b9392505050565b600060208201905081810360008301526200091e81620007b4565b9050919050565b600060208201905081810360008301526200094081620007db565b9050919050565b60006020820190508181036000830152620009628162000802565b9050919050565b60006020820190508181036000830152620009848162000829565b9050919050565b60006020820190508181036000830152620009a68162000850565b9050919050565b60006020820190508181036000830152620009c88162000877565b9050919050565b60006020820190508181036000830152620009ea816200089e565b9050919050565b6000620009fd62000a10565b905062000a0b828262000b24565b919050565b6000604051905090565b600067ffffffffffffffff82111562000a385762000a3762000bd7565b5b602082029050602081019050919050565b600067ffffffffffffffff82111562000a675762000a6662000bd7565b5b602082029050602081019050919050565b600082825260208201905092915050565b600062000a968262000b1a565b915062000aa38362000b1a565b9250827fffffffffffffffffffffffffffffffffffffffffffffffffffffffffffffffff0382111562000adb5762000ada62000ba8565b5b828201905092915050565b600062000af38262000afa565b9050919050565b600073ffffffffffffffffffffffffffffffffffffffff82169050919050565b6000819050919050565b62000b2f8262000c06565b810181811067ffffffffffffffff8211171562000b515762000b5062000bd7565b5b80604052505050565b600062000b678262000b1a565b91507fffffffffffffffffffffffffffffffffffffffffffffffffffffffffffffffff82141562000b9d5762000b9c62000ba8565b5b600182019050919050565b7f4e487b7100000000000000000000000000000000000000000000000000000000600052601160045260246000fd5b7f4e487b7100000000000000000000000000000000000000000000000000000000600052604160045260246000fd5b6000601f19601f8301169050919050565b7f5061796d656e7453706c69747465723a206163636f756e74206973207468652060008201527f7a65726f20616464726573730000000000000000000000000000000000000000602082015250565b7f5061796d656e7453706c69747465723a2070617965657320616e64207368617260008201527f6573206c656e677468206d69736d617463680000000000000000000000000000602082015250565b7f50617965657320616e6420736861726573206c656e677468206d757374206d6160008201527f7463680000000000000000000000000000000000000000000000000000000000602082015250565b7f4174206c65617374206f6e652070617965652069732072657175697265640000600082015250565b7f5061796d656e7453706c69747465723a206163636f756e7420616c726561647960008201527f2068617320736861726573000000000000000000000000000000000000000000602082015250565b7f5061796d656e7453706c69747465723a206e6f20706179656573000000000000600082015250565b7f5061796d656e7453706c69747465723a20736861726573206172652030000000600082015250565b62000dd98162000ae6565b811462000de557600080fd5b50565b62000df38162000b1a565b811462000dff57600080fd5b50565b614b798062000e126000396000f3fe60806040526004361061016a5760003560e01c80638b83209b116100d1578063ad9f20a61161008a578063ce7c2ac211610064578063ce7c2ac2146105ba578063d79779b2146105f7578063e33b7de314610634578063f2fde38b1461065f576101b1565b8063ad9f20a614610529578063c45ac05014610554578063cb917b9c14610591576101b1565b80638b83209b146103e15780638da5cb5b1461041e57806394383f14146104495780639852595c146104725780639b83cddc146104af578063a3f8eace146104ec576101b1565b8063424e657511610123578063424e6575146102cf57806348b75044146103105780635f85ad68146103395780636e7f767814610376578063715018a61461039f578063787954eb146103b6576101b1565b806301c11d96146101b657806307cb2994146101e1578063094a6aa414610222578063191655871461023e5780633a98ef3914610267578063406072a914610292576101b1565b366101b1577f6ef95f06320e7a25a04a175ca677b7052bdd97131872c2192525a629f51be770610198610688565b346040516101a79291906139a2565b60405180910390a1005b600080fd5b3480156101c257600080fd5b506101cb610690565b6040516101d89190613e0a565b60405180910390f35b3480156101ed57600080fd5b5061020860048036038101906102039190613145565b61069e565b604051610219959493929190613e25565b60405180910390f35b61023c600480360381019061023791906131d3565b6107f4565b005b34801561024a57600080fd5b506102656004803603810190610260919061304d565b61106d565b005b34801561027357600080fd5b5061027c6111ed565b6040516102899190613e0a565b60405180910390f35b34801561029e57600080fd5b506102b960048036038101906102b49190613109565b6111f7565b6040516102c69190613e0a565b60405180910390f35b3480156102db57600080fd5b506102f660048036038101906102f19190613145565b61127e565b604051610307959493929190613e25565b60405180910390f35b34801561031c57600080fd5b5061033760048036038101906103329190613109565b611369565b005b34801561034557600080fd5b50610360600480360381019061035b919061323a565b61157d565b60405161036d91906139cb565b60405180910390f35b34801561038257600080fd5b5061039d60048036038101906103989190613145565b611856565b005b3480156103ab57600080fd5b506103b4611d33565b005b3480156103c257600080fd5b506103cb611d47565b6040516103d89190613e0a565b60405180910390f35b3480156103ed57600080fd5b5061040860048036038101906104039190613145565b611d4d565b60405161041591906138c0565b60405180910390f35b34801561042a57600080fd5b50610433611dbb565b60405161044091906138c0565b60405180910390f35b34801561045557600080fd5b50610470600480360381019061046b9190613197565b611de4565b005b34801561047e57600080fd5b5061049960048036038101906104949190612ffb565b6122bc565b6040516104a69190613e0a565b60405180910390f35b3480156104bb57600080fd5b506104d660048036038101906104d19190613145565b612305565b6040516104e391906139ed565b60405180910390f35b3480156104f857600080fd5b50610513600480360381019061050e9190612ffb565b61232f565b6040516105209190613e0a565b60405180910390f35b34801561053557600080fd5b5061053e612362565b60405161054b9190613e0a565b60405180910390f35b34801561056057600080fd5b5061057b60048036038101906105769190613109565b61236d565b6040516105889190613e0a565b60405180910390f35b34801561059d57600080fd5b506105b860048036038101906105b39190613145565b61242b565b005b3480156105c657600080fd5b506105e160048036038101906105dc9190612ffb565b61264c565b6040516105ee9190613e0a565b60405180910390f35b34801561060357600080fd5b5061061e600480360381019061061991906130e0565b612695565b60405161062b9190613e0a565b60405180910390f35b34801561064057600080fd5b506106496126de565b6040516106569190613e0a565b60405180910390f35b34801561066b57600080fd5b5061068660048036038101906106819190612ffb565b6126e8565b005b600033905090565b69021e19e0c9bab240000081565b600060606000806000600d54861080156106b9575060018610155b6106f8576040517f08c379a00000000000000000000000000000000000000000000000000000000081526004016106ef90613a2a565b60405180910390fd5b6000600c6000888152602001908152602001600020905080600001548160010182600201548360030160009054906101000a900473ffffffffffffffffffffffffffffffffffffffff168460030160149054906101000a900460ff1683805461076090614226565b80601f016020809104026020016040519081016040528092919081815260200182805461078c90614226565b80156107d95780601f106107ae576101008083540402835291602001916107d9565b820191906000526020600020905b8154815290600101906020018083116107bc57829003601f168201915b50505050509350955095509550955095505091939590929450565b6107fc61276c565b60008060008514610c9557600b600086815260200190815260200160002060009054906101000a900460ff16610867576040517f08c379a000000000000000000000000000000000000000000000000000000000815260040161085e90613c6a565b60405180910390fd5b600960009054906101000a900473ffffffffffffffffffffffffffffffffffffffff1673ffffffffffffffffffffffffffffffffffffffff1663e7572230866040518263ffffffff1660e01b81526004016108c29190613e0a565b60206040518083038186803b1580156108da57600080fd5b505afa1580156108ee573d6000803e3d6000fd5b505050506040513d601f19601f82011682018060405250810190610912919061316e565b9150600960009054906101000a900473ffffffffffffffffffffffffffffffffffffffff1673ffffffffffffffffffffffffffffffffffffffff16636352211e866040518263ffffffff1660e01b815260040161096f9190613e0a565b60206040518083038186803b15801561098757600080fd5b505afa15801561099b573d6000803e3d6000fd5b505050506040513d601f19601f820116820180604052508101906109bf9190613024565b90503373ffffffffffffffffffffffffffffffffffffffff168173ffffffffffffffffffffffffffffffffffffffff161415610a30576040517f08c379a0000000000000000000000000000000000000000000000000000000008152600401610a2790613baa565b60405180910390fd5b813414610a72576040517f08c379a0000000000000000000000000000000000000000000000000000000008152600401610a6990613c0a565b60405180910390fd5b6000610a9c6064610a8e600a54866127bc90919063ffffffff16565b6127d290919063ffffffff16565b9050808311610ae0576040517f08c379a0000000000000000000000000000000000000000000000000000000008152600401610ad790613bea565b60405180910390fd5b6000610af582856127e890919063ffffffff16565b90506000600b600089815260200190815260200160002060006101000a81548160ff02191690831515021790555060008373ffffffffffffffffffffffffffffffffffffffff1682604051610b49906138ab565b60006040518083038185875af1925050503d8060008114610b86576040519150601f19603f3d011682016040523d82523d6000602084013e610b8b565b606091505b5050905080610bcf576040517f08c379a0000000000000000000000000000000000000000000000000000000008152600401610bc690613cea565b60405180910390fd5b600960009054906101000a900473ffffffffffffffffffffffffffffffffffffffff1673ffffffffffffffffffffffffffffffffffffffff166323b872dd85338b6040518463ffffffff1660e01b8152600401610c2e9392919061392d565b600060405180830381600087803b158015610c4857600080fd5b505af1158015610c5c573d6000803e3d6000fd5b50505050877ff1a4f188d8f608af032a64d403473119856aae541d836c6a78e2187e809c330760405160405180910390a250505061105e565b662386f26fc10000341015610cdf576040517f08c379a0000000000000000000000000000000000000000000000000000000008152600401610cd690613a4a565b60405180910390fd5b69021e19e0c9bab2400000341115610d2c576040517f08c379a0000000000000000000000000000000000000000000000000000000008152600401610d2390613b8a565b60405180910390fd5b6000835111610d70576040517f08c379a0000000000000000000000000000000000000000000000000000000008152600401610d6790613caa565b60405180910390fd5b6001841415610db4576040517f08c379a0000000000000000000000000000000000000000000000000000000008152600401610dab90613d0a565b60405180910390fd5b6000841415610df8576040517f08c379a0000000000000000000000000000000000000000000000000000000008152600401610def90613d4a565b60405180910390fd5b6000600960009054906101000a900473ffffffffffffffffffffffffffffffffffffffff1673ffffffffffffffffffffffffffffffffffffffff1663394120c0866040518263ffffffff1660e01b8152600401610e559190613e0a565b60206040518083038186803b158015610e6d57600080fd5b505afa158015610e81573d6000803e3d6000fd5b505050506040513d601f19601f82011682018060405250810190610ea59190613024565b90503373ffffffffffffffffffffffffffffffffffffffff168173ffffffffffffffffffffffffffffffffffffffff161415610f16576040517f08c379a0000000000000000000000000000000000000000000000000000000008152600401610f0d90613d8a565b60405180910390fd5b6040518060a001604052808681526020018581526020013481526020013373ffffffffffffffffffffffffffffffffffffffff16815260200160001515815250600c6000600d548152602001908152602001600020600082015181600001556020820151816001019080519060200190610f91929190612dc7565b506040820151816002015560608201518160030160006101000a81548173ffffffffffffffffffffffffffffffffffffffff021916908373ffffffffffffffffffffffffffffffffffffffff16021790555060808201518160030160146101000a81548160ff021916908315150217905550905050600d547f0514ef6e9a15654bb97b2d44afaa80921232b56180326dd4966e01ecd230d23333863460405161103c93929190613964565b60405180910390a2600d600081548092919061105790614289565b9190505550505b50506110686127fe565b505050565b6000600460008373ffffffffffffffffffffffffffffffffffffffff1673ffffffffffffffffffffffffffffffffffffffff16815260200190815260200160002054116110ef576040517f08c379a00000000000000000000000000000000000000000000000000000000081526004016110e690613aea565b60405180910390fd5b60006110fa8261232f565b90506000811415611140576040517f08c379a000000000000000000000000000000000000000000000000000000000815260040161113790613b6a565b60405180910390fd5b8060036000828254611152919061402d565b9250508190555080600560008473ffffffffffffffffffffffffffffffffffffffff1673ffffffffffffffffffffffffffffffffffffffff168152602001908152602001600020600082825401925050819055506111b08282612807565b7fdf20fd1e76bc69d672e4814fafb2c449bba3a5369d8359adf9e05e6fde87b05682826040516111e19291906138db565b60405180910390a15050565b6000600254905090565b6000600860008473ffffffffffffffffffffffffffffffffffffffff1673ffffffffffffffffffffffffffffffffffffffff16815260200190815260200160002060008373ffffffffffffffffffffffffffffffffffffffff1673ffffffffffffffffffffffffffffffffffffffff16815260200190815260200160002054905092915050565b600c6020528060005260406000206000915090508060000154908060010180546112a790614226565b80601f01602080910402602001604051908101604052809291908181526020018280546112d390614226565b80156113205780601f106112f557610100808354040283529160200191611320565b820191906000526020600020905b81548152906001019060200180831161130357829003601f168201915b5050505050908060020154908060030160009054906101000a900473ffffffffffffffffffffffffffffffffffffffff16908060030160149054906101000a900460ff16905085565b6000600460008373ffffffffffffffffffffffffffffffffffffffff1673ffffffffffffffffffffffffffffffffffffffff16815260200190815260200160002054116113eb576040517f08c379a00000000000000000000000000000000000000000000000000000000081526004016113e290613aea565b60405180910390fd5b60006113f7838361236d565b9050600081141561143d576040517f08c379a000000000000000000000000000000000000000000000000000000000815260040161143490613b6a565b60405180910390fd5b80600760008573ffffffffffffffffffffffffffffffffffffffff1673ffffffffffffffffffffffffffffffffffffffff168152602001908152602001600020600082825461148c919061402d565b9250508190555080600860008573ffffffffffffffffffffffffffffffffffffffff1673ffffffffffffffffffffffffffffffffffffffff16815260200190815260200160002060008473ffffffffffffffffffffffffffffffffffffffff1673ffffffffffffffffffffffffffffffffffffffff168152602001908152602001600020600082825401925050819055506115288383836128fb565b8273ffffffffffffffffffffffffffffffffffffffff167f3be5b7a71e84ed12875d241991c70855ac5817d847039e17a9d895c1ceb0f18a83836040516115709291906139a2565b60405180910390a2505050565b606080600080600960009054906101000a900473ffffffffffffffffffffffffffffffffffffffff1673ffffffffffffffffffffffffffffffffffffffff1663d08b28ea8888886040518463ffffffff1660e01b81526004016115e293929190613ef4565b60006040518083038186803b1580156115fa57600080fd5b505afa15801561160e573d6000803e3d6000fd5b505050506040513d6000823e3d601f19601f820116820180604052508101906116379190613076565b905060008151141561164e5782935050505061184f565b60005b815181101561172e576000828281518110611695577f4e487b7100000000000000000000000000000000000000000000000000000000600052603260045260246000fd5b60200260200101519050600b600082815260200190815260200160002060009054906101000a900460ff161561171a57808585815181106116ff577f4e487b7100000000000000000000000000000000000000000000000000000000600052603260045260246000fd5b602002602001018181525050838061171690614289565b9450505b50808061172690614289565b915050611651565b5060008267ffffffffffffffff811115611771577f4e487b7100000000000000000000000000000000000000000000000000000000600052604160045260246000fd5b60405190808252806020026020018201604052801561179f5781602001602082028036833780820191505090505b50905060005b83811015611846578481815181106117e6577f4e487b7100000000000000000000000000000000000000000000000000000000600052603260045260246000fd5b6020026020010151828281518110611827577f4e487b7100000000000000000000000000000000000000000000000000000000600052603260045260246000fd5b602002602001018181525050808061183e90614289565b9150506117a5565b50809450505050505b9392505050565b61185e61276c565b6000600c60008381526020019081526020016000209050600073ffffffffffffffffffffffffffffffffffffffff168160030160009054906101000a900473ffffffffffffffffffffffffffffffffffffffff1673ffffffffffffffffffffffffffffffffffffffff161415611909576040517f08c379a000000000000000000000000000000000000000000000000000000000815260040161190090613dca565b60405180910390fd5b8060030160149054906101000a900460ff161561195b576040517f08c379a000000000000000000000000000000000000000000000000000000000815260040161195290613aca565b60405180910390fd5b6000600960009054906101000a900473ffffffffffffffffffffffffffffffffffffffff1673ffffffffffffffffffffffffffffffffffffffff1663394120c083600001546040518263ffffffff1660e01b81526004016119bc9190613e0a565b60206040518083038186803b1580156119d457600080fd5b505afa1580156119e8573d6000803e3d6000fd5b505050506040513d601f19601f82011682018060405250810190611a0c9190613024565b90503373ffffffffffffffffffffffffffffffffffffffff168173ffffffffffffffffffffffffffffffffffffffff1614611a7c576040517f08c379a0000000000000000000000000000000000000000000000000000000008152600401611a7390613c2a565b60405180910390fd5b6000611aaa6064611a9c600a5486600201546127bc90919063ffffffff16565b6127d290919063ffffffff16565b905080836002015411611af2576040517f08c379a0000000000000000000000000000000000000000000000000000000008152600401611ae990613bea565b60405180910390fd5b6000611b0b8285600201546127e890919063ffffffff16565b905060008373ffffffffffffffffffffffffffffffffffffffff1682604051611b33906138ab565b60006040518083038185875af1925050503d8060008114611b70576040519150601f19603f3d011682016040523d82523d6000602084013e611b75565b606091505b5050905080611bb9576040517f08c379a0000000000000000000000000000000000000000000000000000000008152600401611bb090613c4a565b60405180910390fd5b6000600960009054906101000a900473ffffffffffffffffffffffffffffffffffffffff1673ffffffffffffffffffffffffffffffffffffffff1663b41a6e3487600001548860010189600201548a60030160009054906101000a900473ffffffffffffffffffffffffffffffffffffffff166040518563ffffffff1660e01b8152600401611c4b9493929190613e7f565b602060405180830381600087803b158015611c6557600080fd5b505af1158015611c79573d6000803e3d6000fd5b505050506040513d601f19601f82011682018060405250810190611c9d919061316e565b905060018660030160146101000a81548160ff0219169083151502179055507febe8a5caf534027cd489966391b45060b1030eb8db4cd6e20429d7bc1cdf95958782604051611ced929190613ecb565b60405180910390a1807ff1a4f188d8f608af032a64d403473119856aae541d836c6a78e2187e809c330760405160405180910390a2505050505050611d306127fe565b50565b611d3b612981565b611d4560006129ff565b565b600d5481565b600060068281548110611d89577f4e487b7100000000000000000000000000000000000000000000000000000000600052603260045260246000fd5b9060005260206000200160009054906101000a900473ffffffffffffffffffffffffffffffffffffffff169050919050565b60008060009054906101000a900473ffffffffffffffffffffffffffffffffffffffff16905090565b611dec61276c565b662386f26fc10000811015611e36576040517f08c379a0000000000000000000000000000000000000000000000000000000008152600401611e2d90613a4a565b60405180910390fd5b69021e19e0c9bab2400000811115611e83576040517f08c379a0000000000000000000000000000000000000000000000000000000008152600401611e7a90613b8a565b60405180910390fd5b600b600083815260200190815260200160002060009054906101000a900460ff1615611ee4576040517f08c379a0000000000000000000000000000000000000000000000000000000008152600401611edb90613bca565b60405180910390fd5b3373ffffffffffffffffffffffffffffffffffffffff16600960009054906101000a900473ffffffffffffffffffffffffffffffffffffffff1673ffffffffffffffffffffffffffffffffffffffff16636352211e846040518263ffffffff1660e01b8152600401611f569190613e0a565b60206040518083038186803b158015611f6e57600080fd5b505afa158015611f82573d6000803e3d6000fd5b505050506040513d601f19601f82011682018060405250810190611fa69190613024565b73ffffffffffffffffffffffffffffffffffffffff1614611ffc576040517f08c379a0000000000000000000000000000000000000000000000000000000008152600401611ff390613dea565b60405180910390fd5b600960009054906101000a900473ffffffffffffffffffffffffffffffffffffffff1673ffffffffffffffffffffffffffffffffffffffff1663e985e9c533306040518363ffffffff1660e01b8152600401612059929190613904565b60206040518083038186803b15801561207157600080fd5b505afa158015612085573d6000803e3d6000fd5b505050506040513d601f19601f820116820180604052508101906120a991906130b7565b8061218957503073ffffffffffffffffffffffffffffffffffffffff16600960009054906101000a900473ffffffffffffffffffffffffffffffffffffffff1673ffffffffffffffffffffffffffffffffffffffff1663081812fc846040518263ffffffff1660e01b81526004016121219190613e0a565b60206040518083038186803b15801561213957600080fd5b505afa15801561214d573d6000803e3d6000fd5b505050506040513d601f19601f820116820180604052508101906121719190613024565b73ffffffffffffffffffffffffffffffffffffffff16145b6121c8576040517f08c379a00000000000000000000000000000000000000000000000000000000081526004016121bf90613cca565b60405180910390fd5b600960009054906101000a900473ffffffffffffffffffffffffffffffffffffffff1673ffffffffffffffffffffffffffffffffffffffff1663f7d9757783836040518363ffffffff1660e01b8152600401612225929190613ecb565b600060405180830381600087803b15801561223f57600080fd5b505af1158015612253573d6000803e3d6000fd5b505050506001600b600084815260200190815260200160002060006101000a81548160ff021916908315150217905550817fdb1fd9bae40110b73b6592270632b19e60d204d52ee5cd72c60d076e6bdd342f60405160405180910390a26122b86127fe565b5050565b6000600560008373ffffffffffffffffffffffffffffffffffffffff1673ffffffffffffffffffffffffffffffffffffffff168152602001908152602001600020549050919050565b6000600b600083815260200190815260200160002060009054906101000a900460ff169050919050565b60008061233a6126de565b47612345919061402d565b905061235a8382612355866122bc565b612ac3565b915050919050565b662386f26fc1000081565b60008061237984612695565b8473ffffffffffffffffffffffffffffffffffffffff166370a08231306040518263ffffffff1660e01b81526004016123b291906138c0565b60206040518083038186803b1580156123ca57600080fd5b505afa1580156123de573d6000803e3d6000fd5b505050506040513d601f19601f82011682018060405250810190612402919061316e565b61240c919061402d565b9050612422838261241d87876111f7565b612ac3565b91505092915050565b61243361276c565b600960009054906101000a900473ffffffffffffffffffffffffffffffffffffffff1673ffffffffffffffffffffffffffffffffffffffff16636352211e826040518263ffffffff1660e01b815260040161248e9190613e0a565b60206040518083038186803b1580156124a657600080fd5b505afa1580156124ba573d6000803e3d6000fd5b505050506040513d601f19601f820116820180604052508101906124de9190613024565b73ffffffffffffffffffffffffffffffffffffffff163373ffffffffffffffffffffffffffffffffffffffff161480612549575061251a611dbb565b73ffffffffffffffffffffffffffffffffffffffff163373ffffffffffffffffffffffffffffffffffffffff16145b612588576040517f08c379a000000000000000000000000000000000000000000000000000000000815260040161257f90613aaa565b60405180910390fd5b600b600082815260200190815260200160002060009054906101000a900460ff166125e8576040517f08c379a00000000000000000000000000000000000000000000000000000000081526004016125df90613a8a565b60405180910390fd5b6000600b600083815260200190815260200160002060006101000a81548160ff021916908315150217905550807fc0c55a6edead4433d18cb1e287a0a20a2fa003a6f483bc9823d2e504d70d1c6760405160405180910390a26126496127fe565b50565b6000600460008373ffffffffffffffffffffffffffffffffffffffff1673ffffffffffffffffffffffffffffffffffffffff168152602001908152602001600020549050919050565b6000600760008373ffffffffffffffffffffffffffffffffffffffff1673ffffffffffffffffffffffffffffffffffffffff168152602001908152602001600020549050919050565b6000600354905090565b6126f0612981565b600073ffffffffffffffffffffffffffffffffffffffff168173ffffffffffffffffffffffffffffffffffffffff161415612760576040517f08c379a000000000000000000000000000000000000000000000000000000000815260040161275790613a6a565b60405180910390fd5b612769816129ff565b50565b600260015414156127b2576040517f08c379a00000000000000000000000000000000000000000000000000000000081526004016127a990613daa565b60405180910390fd5b6002600181905550565b600081836127ca91906140b4565b905092915050565b600081836127e09190614083565b905092915050565b600081836127f6919061410e565b905092915050565b60018081905550565b8047101561284a576040517f08c379a000000000000000000000000000000000000000000000000000000000815260040161284190613b2a565b60405180910390fd5b60008273ffffffffffffffffffffffffffffffffffffffff1682604051612870906138ab565b60006040518083038185875af1925050503d80600081146128ad576040519150601f19603f3d011682016040523d82523d6000602084013e6128b2565b606091505b50509050806128f6576040517f08c379a00000000000000000000000000000000000000000000000000000000081526004016128ed90613b0a565b60405180910390fd5b505050565b61297c8363a9059cbb60e01b848460405160240161291a9291906139a2565b604051602081830303815290604052907bffffffffffffffffffffffffffffffffffffffffffffffffffffffff19166020820180517bffffffffffffffffffffffffffffffffffffffffffffffffffffffff8381831617835250505050612b31565b505050565b612989610688565b73ffffffffffffffffffffffffffffffffffffffff166129a7611dbb565b73ffffffffffffffffffffffffffffffffffffffff16146129fd576040517f08c379a00000000000000000000000000000000000000000000000000000000081526004016129f490613c8a565b60405180910390fd5b565b60008060009054906101000a900473ffffffffffffffffffffffffffffffffffffffff169050816000806101000a81548173ffffffffffffffffffffffffffffffffffffffff021916908373ffffffffffffffffffffffffffffffffffffffff1602179055508173ffffffffffffffffffffffffffffffffffffffff168173ffffffffffffffffffffffffffffffffffffffff167f8be0079c531659141344cd1fd0a4f28419497f9722a3daafe3b4186f6b6457e060405160405180910390a35050565b600081600254600460008773ffffffffffffffffffffffffffffffffffffffff1673ffffffffffffffffffffffffffffffffffffffff1681526020019081526020016000205485612b1491906140b4565b612b1e9190614083565b612b28919061410e565b90509392505050565b6000612b93826040518060400160405280602081526020017f5361666545524332303a206c6f772d6c6576656c2063616c6c206661696c65648152508573ffffffffffffffffffffffffffffffffffffffff16612bf99092919063ffffffff16565b9050600081511480612bb5575080806020019051810190612bb491906130b7565b5b612bf4576040517f08c379a0000000000000000000000000000000000000000000000000000000008152600401612beb90613d6a565b60405180910390fd5b505050565b6060612c088484600085612c11565b90509392505050565b606082471015612c56576040517f08c379a0000000000000000000000000000000000000000000000000000000008152600401612c4d90613b4a565b60405180910390fd5b6000808673ffffffffffffffffffffffffffffffffffffffff168587604051612c7f9190613894565b60006040518083038185875af1925050503d8060008114612cbc576040519150601f19603f3d011682016040523d82523d6000602084013e612cc1565b606091505b5091509150612cd287838387612cde565b92505050949350505050565b60608315612d4157600083511415612d3957612cf985612d54565b612d38576040517f08c379a0000000000000000000000000000000000000000000000000000000008152600401612d2f90613d2a565b60405180910390fd5b5b829050612d4c565b612d4b8383612d77565b5b949350505050565b6000808273ffffffffffffffffffffffffffffffffffffffff163b119050919050565b600082511115612d8a5781518083602001fd5b806040517f08c379a0000000000000000000000000000000000000000000000000000000008152600401612dbe9190613a08565b60405180910390fd5b828054612dd390614226565b90600052602060002090601f016020900481019282612df55760008555612e3c565b82601f10612e0e57805160ff1916838001178555612e3c565b82800160010185558215612e3c579182015b82811115612e3b578251825591602001919060010190612e20565b5b509050612e499190612e4d565b5090565b5b80821115612e66576000816000905550600101612e4e565b5090565b6000612e7d612e7884613f50565b613f2b565b90508083825260208201905082856020860282011115612e9c57600080fd5b60005b85811015612ecc5781612eb28882612fe6565b845260208401935060208301925050600181019050612e9f565b5050509392505050565b6000612ee9612ee484613f7c565b613f2b565b905082815260208101848484011115612f0157600080fd5b612f0c8482856141e4565b509392505050565b600081359050612f2381614ad0565b92915050565b600081519050612f3881614ad0565b92915050565b600081359050612f4d81614ae7565b92915050565b600082601f830112612f6457600080fd5b8151612f74848260208601612e6a565b91505092915050565b600081519050612f8c81614afe565b92915050565b600081359050612fa181614b15565b92915050565b600082601f830112612fb857600080fd5b8135612fc8848260208601612ed6565b91505092915050565b600081359050612fe081614b2c565b92915050565b600081519050612ff581614b2c565b92915050565b60006020828403121561300d57600080fd5b600061301b84828501612f14565b91505092915050565b60006020828403121561303657600080fd5b600061304484828501612f29565b91505092915050565b60006020828403121561305f57600080fd5b600061306d84828501612f3e565b91505092915050565b60006020828403121561308857600080fd5b600082015167ffffffffffffffff8111156130a257600080fd5b6130ae84828501612f53565b91505092915050565b6000602082840312156130c957600080fd5b60006130d784828501612f7d565b91505092915050565b6000602082840312156130f257600080fd5b600061310084828501612f92565b91505092915050565b6000806040838503121561311c57600080fd5b600061312a85828601612f92565b925050602061313b85828601612f14565b9150509250929050565b60006020828403121561315757600080fd5b600061316584828501612fd1565b91505092915050565b60006020828403121561318057600080fd5b600061318e84828501612fe6565b91505092915050565b600080604083850312156131aa57600080fd5b60006131b885828601612fd1565b92505060206131c985828601612fd1565b9150509250929050565b6000806000606084860312156131e857600080fd5b60006131f686828701612fd1565b935050602061320786828701612fd1565b925050604084013567ffffffffffffffff81111561322457600080fd5b61323086828701612fa7565b9150509250925092565b60008060006060848603121561324f57600080fd5b600061325d86828701612fd1565b935050602061326e86828701612fd1565b925050604061327f86828701612fd1565b9150509250925092565b60006132958383613876565b60208301905092915050565b6132aa816141ae565b82525050565b6132b981614142565b82525050565b60006132ca82613fd2565b6132d48185614000565b93506132df83613fad565b8060005b838110156133105781516132f78882613289565b975061330283613ff3565b9250506001810190506132e3565b5085935050505092915050565b61332681614166565b82525050565b600061333782613fdd565b6133418185614011565b93506133518185602086016141f3565b80840191505092915050565b600061336882613fe8565b613372818561401c565b93506133828185602086016141f3565b61338b8161438e565b840191505092915050565b600081546133a381614226565b6133ad818661401c565b945060018216600081146133c857600181146133da5761340d565b60ff198316865260208601935061340d565b6133e385613fbd565b60005b83811015613405578154818901526001820191506020810190506133e6565b808801955050505b50505092915050565b600061342360228361401c565b915061342e8261439f565b604082019050919050565b600061344660208361401c565b9150613451826143ee565b602082019050919050565b600061346960268361401c565b915061347482614417565b604082019050919050565b600061348c600e8361401c565b915061349782614466565b602082019050919050565b60006134af60298361401c565b91506134ba8261448f565b604082019050919050565b60006134d2601d8361401c565b91506134dd826144de565b602082019050919050565b60006134f560268361401c565b915061350082614507565b604082019050919050565b6000613518603a8361401c565b915061352382614556565b604082019050919050565b600061353b601d8361401c565b9150613546826145a5565b602082019050919050565b600061355e60268361401c565b9150613569826145ce565b604082019050919050565b6000613581602b8361401c565b915061358c8261461d565b604082019050919050565b60006135a4601f8361401c565b91506135af8261466c565b602082019050919050565b60006135c7601e8361401c565b91506135d282614695565b602082019050919050565b60006135ea60128361401c565b91506135f5826146be565b602082019050919050565b600061360d602b8361401c565b9150613618826146e7565b604082019050919050565b600061363060278361401c565b915061363b82614736565b604082019050919050565b600061365360368361401c565b915061365e82614785565b604082019050919050565b600061367660248361401c565b9150613681826147d4565b604082019050919050565b600061369960178361401c565b91506136a482614823565b602082019050919050565b60006136bc60208361401c565b91506136c78261484c565b602082019050919050565b60006136df60218361401c565b91506136ea82614875565b604082019050919050565b6000613702602a8361401c565b915061370d826148c4565b604082019050919050565b6000613725601d8361401c565b915061373082614913565b602082019050919050565b6000613748600083614011565b91506137538261493c565b600082019050919050565b600061376b60008361401c565b91506137768261493c565b600082019050919050565b600061378e601d8361401c565b91506137998261493f565b602082019050919050565b60006137b160258361401c565b91506137bc82614968565b604082019050919050565b60006137d4602a8361401c565b91506137df826149b7565b604082019050919050565b60006137f760408361401c565b915061380282614a06565b604082019050919050565b600061381a601f8361401c565b915061382582614a55565b602082019050919050565b600061383d601b8361401c565b915061384882614a7e565b602082019050919050565b600061386060188361401c565b915061386b82614aa7565b602082019050919050565b61387f816141a4565b82525050565b61388e816141a4565b82525050565b60006138a0828461332c565b915081905092915050565b60006138b68261373b565b9150819050919050565b60006020820190506138d560008301846132b0565b92915050565b60006040820190506138f060008301856132a1565b6138fd6020830184613885565b9392505050565b600060408201905061391960008301856132b0565b61392660208301846132b0565b9392505050565b600060608201905061394260008301866132b0565b61394f60208301856132b0565b61395c6040830184613885565b949350505050565b600060608201905061397960008301866132b0565b818103602083015261398b818561335d565b905061399a6040830184613885565b949350505050565b60006040820190506139b760008301856132b0565b6139c46020830184613885565b9392505050565b600060208201905081810360008301526139e581846132bf565b905092915050565b6000602082019050613a02600083018461331d565b92915050565b60006020820190508181036000830152613a22818461335d565b905092915050565b60006020820190508181036000830152613a4381613416565b9050919050565b60006020820190508181036000830152613a6381613439565b9050919050565b60006020820190508181036000830152613a838161345c565b9050919050565b60006020820190508181036000830152613aa38161347f565b9050919050565b60006020820190508181036000830152613ac3816134a2565b9050919050565b60006020820190508181036000830152613ae3816134c5565b9050919050565b60006020820190508181036000830152613b03816134e8565b9050919050565b60006020820190508181036000830152613b238161350b565b9050919050565b60006020820190508181036000830152613b438161352e565b9050919050565b60006020820190508181036000830152613b6381613551565b9050919050565b60006020820190508181036000830152613b8381613574565b9050919050565b60006020820190508181036000830152613ba381613597565b9050919050565b60006020820190508181036000830152613bc3816135ba565b9050919050565b60006020820190508181036000830152613be3816135dd565b9050919050565b60006020820190508181036000830152613c0381613600565b9050919050565b60006020820190508181036000830152613c2381613623565b9050919050565b60006020820190508181036000830152613c4381613646565b9050919050565b60006020820190508181036000830152613c6381613669565b9050919050565b60006020820190508181036000830152613c838161368c565b9050919050565b60006020820190508181036000830152613ca3816136af565b9050919050565b60006020820190508181036000830152613cc3816136d2565b9050919050565b60006020820190508181036000830152613ce3816136f5565b9050919050565b60006020820190508181036000830152613d0381613718565b9050919050565b60006020820190508181036000830152613d238161375e565b9050919050565b60006020820190508181036000830152613d4381613781565b9050919050565b60006020820190508181036000830152613d63816137a4565b9050919050565b60006020820190508181036000830152613d83816137c7565b9050919050565b60006020820190508181036000830152613da3816137ea565b9050919050565b60006020820190508181036000830152613dc38161380d565b9050919050565b60006020820190508181036000830152613de381613830565b9050919050565b60006020820190508181036000830152613e0381613853565b9050919050565b6000602082019050613e1f6000830184613885565b92915050565b600060a082019050613e3a6000830188613885565b8181036020830152613e4c818761335d565b9050613e5b6040830186613885565b613e6860608301856132b0565b613e75608083018461331d565b9695505050505050565b6000608082019050613e946000830187613885565b8181036020830152613ea68186613396565b9050613eb56040830185613885565b613ec260608301846132b0565b95945050505050565b6000604082019050613ee06000830185613885565b613eed6020830184613885565b9392505050565b6000606082019050613f096000830186613885565b613f166020830185613885565b613f236040830184613885565b949350505050565b6000613f35613f46565b9050613f418282614258565b919050565b6000604051905090565b600067ffffffffffffffff821115613f6b57613f6a61435f565b5b602082029050602081019050919050565b600067ffffffffffffffff821115613f9757613f9661435f565b5b613fa08261438e565b9050602081019050919050565b6000819050602082019050919050565b60008190508160005260206000209050919050565b600081519050919050565b600081519050919050565b600081519050919050565b6000602082019050919050565b600082825260208201905092915050565b600081905092915050565b600082825260208201905092915050565b6000614038826141a4565b9150614043836141a4565b9250827fffffffffffffffffffffffffffffffffffffffffffffffffffffffffffffffff03821115614078576140776142d2565b5b828201905092915050565b600061408e826141a4565b9150614099836141a4565b9250826140a9576140a8614301565b5b828204905092915050565b60006140bf826141a4565b91506140ca836141a4565b9250817fffffffffffffffffffffffffffffffffffffffffffffffffffffffffffffffff0483118215151615614103576141026142d2565b5b828202905092915050565b6000614119826141a4565b9150614124836141a4565b925082821015614137576141366142d2565b5b828203905092915050565b600061414d82614184565b9050919050565b600061415f82614184565b9050919050565b60008115159050919050565b600061417d82614142565b9050919050565b600073ffffffffffffffffffffffffffffffffffffffff82169050919050565b6000819050919050565b60006141b9826141c0565b9050919050565b60006141cb826141d2565b9050919050565b60006141dd82614184565b9050919050565b82818337600083830152505050565b60005b838110156142115780820151818401526020810190506141f6565b83811115614220576000848401525b50505050565b6000600282049050600182168061423e57607f821691505b6020821081141561425257614251614330565b5b50919050565b6142618261438e565b810181811067ffffffffffffffff821117156142805761427f61435f565b5b80604052505050565b6000614294826141a4565b91507fffffffffffffffffffffffffffffffffffffffffffffffffffffffffffffffff8214156142c7576142c66142d2565b5b600182019050919050565b7f4e487b7100000000000000000000000000000000000000000000000000000000600052601160045260246000fd5b7f4e487b7100000000000000000000000000000000000000000000000000000000600052601260045260246000fd5b7f4e487b7100000000000000000000000000000000000000000000000000000000600052602260045260246000fd5b7f4e487b7100000000000000000000000000000000000000000000000000000000600052604160045260246000fd5b6000601f19601f8301169050919050565b7f5468652070726f7669646564207265717565737420494420697320696e76616c60008201527f6964000000000000000000000000000000000000000000000000000000000000602082015250565b7f5072696365206d757374206265206174206c65617374204d494e5f5052494345600082015250565b7f4f776e61626c653a206e6577206f776e657220697320746865207a65726f206160008201527f6464726573730000000000000000000000000000000000000000000000000000602082015250565b7f4e4654206e6f74206c6973746564000000000000000000000000000000000000600082015250565b7f43616c6c6572206973206e6f74206f776e6572206f66204e4654206f72206d6160008201527f726b6574706c6163650000000000000000000000000000000000000000000000602082015250565b7f4d696e74207265717565737420616c726561647920617070726f766564000000600082015250565b7f5061796d656e7453706c69747465723a206163636f756e7420686173206e6f2060008201527f7368617265730000000000000000000000000000000000000000000000000000602082015250565b7f416464726573733a20756e61626c6520746f2073656e642076616c75652c207260008201527f6563697069656e74206d61792068617665207265766572746564000000000000602082015250565b7f416464726573733a20696e73756666696369656e742062616c616e6365000000600082015250565b7f416464726573733a20696e73756666696369656e742062616c616e636520666f60008201527f722063616c6c0000000000000000000000000000000000000000000000000000602082015250565b7f5061796d656e7453706c69747465723a206163636f756e74206973206e6f742060008201527f647565207061796d656e74000000000000000000000000000000000000000000602082015250565b7f5072696365206d757374206e6f7420657863656564204d41585f505249434500600082015250565b7f4f776e65722063616e6e6f7420627579207468656972206f776e204e46540000600082015250565b7f4e465420616c7265616479206c69737465640000000000000000000000000000600082015250565b7f50726963652073686f756c6420626520686967686572207468616e20746f746160008201527f6c20726f79616c74696573000000000000000000000000000000000000000000602082015250565b7f53656e742076616c756520646f6573206e6f74206d6174636820746865204e4660008201527f5420707269636500000000000000000000000000000000000000000000000000602082015250565b7f4f6e6c792074686520636f6c6c656374696f6e206f776e65722063616e20617060008201527f70726f766520746865206d696e74207265717565737400000000000000000000602082015250565b7f5472616e7366657220746f20436f6c6c656374696f6e206f776e65722066616960008201527f6c65642e00000000000000000000000000000000000000000000000000000000602082015250565b7f4e4654206e6f74206c697374656420666f722073616c65000000000000000000600082015250565b7f4f776e61626c653a2063616c6c6572206973206e6f7420746865206f776e6572600082015250565b7f546f6b656e2055524920697320726571756972656420666f72206d696e74696e60008201527f6700000000000000000000000000000000000000000000000000000000000000602082015250565b7f4d75737420617070726f7665206d61726b6574706c61636520746f206d616e6160008201527f676520746865204e465400000000000000000000000000000000000000000000602082015250565b7f5472616e7366657220746f204e4654206f776e6572206661696c65642e000000600082015250565b50565b7f416464726573733a2063616c6c20746f206e6f6e2d636f6e7472616374000000600082015250565b7f436f6c6c656374696f6e20494420697320726571756972656420666f72206d6960008201527f6e74696e67000000000000000000000000000000000000000000000000000000602082015250565b7f5361666545524332303a204552433230206f7065726174696f6e20646964206e60008201527f6f74207375636365656400000000000000000000000000000000000000000000602082015250565b7f436f6c6c656374696f6e206f776e65722073686f756c64206e6f74207265717560008201527f657374204e46547320696e207468656972206f776e20636f6c6c656374696f6e602082015250565b7f5265656e7472616e637947756172643a207265656e7472616e742063616c6c00600082015250565b7f4d696e74207265717565737420646f6573206e6f742065786973740000000000600082015250565b7f4d757374206265206f776e6572206f6620746865204e46540000000000000000600082015250565b614ad981614142565b8114614ae457600080fd5b50565b614af081614154565b8114614afb57600080fd5b50565b614b0781614166565b8114614b1257600080fd5b50565b614b1e81614172565b8114614b2957600080fd5b50565b614b35816141a4565b8114614b4057600080fd5b5056fea264697066735822122095691805e516deb92d0d4f1a1bba6dbf16808db1f04c2c3e0b27352f2d4c181364736f6c63430008010033",
  "linkReferences": {},
  "deployedLinkReferences": {}
}