{
  "_format": "hh-sol-artifact-1",
  "contractName": "ERC721Collections",
  "sourceName": "contracts/ERC721Collections.sol",
  "abi": [
    {
      "inputs": [
        {
          "internalType": "string",
          "name": "publicCollectionURI",
          "type": "string"
        }
      ],
      "stateMutability": "nonpayable",
      "type": "constructor"
    },
    {
      "anonymous": false,
      "inputs": [
        {
          "indexed": true,
          "internalType": "address",
          "name": "owner",
          "type": "address"
        },
        {
          "indexed": true,
          "internalType": "address",
          "name": "approved",
          "type": "address"
        },
        {
          "indexed": true,
          "internalType": "uint256",
          "name": "tokenId",
          "type": "uint256"
        }
      ],
      "name": "Approval",
      "type": "event"
    },
    {
      "anonymous": false,
      "inputs": [
        {
          "indexed": true,
          "internalType": "address",
          "name": "owner",
          "type": "address"
        },
        {
          "indexed": true,
          "internalType": "address",
          "name": "operator",
          "type": "address"
        },
        {
          "indexed": false,
          "internalType": "bool",
          "name": "approved",
          "type": "bool"
        }
      ],
      "name": "ApprovalForAll",
      "type": "event"
    },
    {
      "anonymous": false,
      "inputs": [
        {
          "indexed": false,
          "internalType": "uint256",
          "name": "_fromTokenId",
          "type": "uint256"
        },
        {
          "indexed": false,
          "internalType": "uint256",
          "name": "_toTokenId",
          "type": "uint256"
        }
      ],
      "name": "BatchMetadataUpdate",
      "type": "event"
    },
    {
      "anonymous": false,
      "inputs": [
        {
          "indexed": false,
          "internalType": "uint256",
          "name": "id",
          "type": "uint256"
        },
        {
          "indexed": false,
          "internalType": "string",
          "name": "uri",
          "type": "string"
        }
      ],
      "name": "CollectionCreated",
      "type": "event"
    },
    {
      "anonymous": false,
      "inputs": [
        {
          "indexed": false,
          "internalType": "uint256",
          "name": "_tokenId",
          "type": "uint256"
        }
      ],
      "name": "MetadataUpdate",
      "type": "event"
    },
    {
      "anonymous": false,
      "inputs": [
        {
          "indexed": true,
          "internalType": "address",
          "name": "previousOwner",
          "type": "address"
        },
        {
          "indexed": true,
          "internalType": "address",
          "name": "newOwner",
          "type": "address"
        }
      ],
      "name": "OwnershipTransferred",
      "type": "event"
    },
    {
      "anonymous": false,
      "inputs": [
        {
          "indexed": false,
          "internalType": "uint256",
          "name": "tokenId",
          "type": "uint256"
        },
        {
          "indexed": false,
          "internalType": "uint256",
          "name": "price",
          "type": "uint256"
        }
      ],
      "name": "PriceSet",
      "type": "event"
    },
    {
      "anonymous": false,
      "inputs": [
        {
          "indexed": false,
          "internalType": "uint256",
          "name": "tokenId",
          "type": "uint256"
        },
        {
          "indexed": false,
          "internalType": "uint256",
          "name": "collectionId",
          "type": "uint256"
        }
      ],
      "name": "TokenMinted",
      "type": "event"
    },
    {
      "anonymous": false,
      "inputs": [
        {
          "indexed": true,
          "internalType": "address",
          "name": "from",
          "type": "address"
        },
        {
          "indexed": true,
          "internalType": "address",
          "name": "to",
          "type": "address"
        },
        {
          "indexed": true,
          "internalType": "uint256",
          "name": "tokenId",
          "type": "uint256"
        }
      ],
      "name": "Transfer",
      "type": "event"
    },
    {
      "inputs": [],
      "name": "MAX_PRICE",
      "outputs": [
        {
          "internalType": "uint256",
          "name": "",
          "type": "uint256"
        }
      ],
      "stateMutability": "view",
      "type": "function"
    },
    {
      "inputs": [],
      "name": "MIN_PRICE",
      "outputs": [
        {
          "internalType": "uint256",
          "name": "",
          "type": "uint256"
        }
      ],
      "stateMutability": "view",
      "type": "function"
    },
    {
      "inputs": [
        {
          "internalType": "address",
          "name": "to",
          "type": "address"
        },
        {
          "internalType": "uint256",
          "name": "tokenId",
          "type": "uint256"
        }
      ],
      "name": "approve",
      "outputs": [],
      "stateMutability": "nonpayable",
      "type": "function"
    },
    {
      "inputs": [
        {
          "internalType": "address",
          "name": "owner",
          "type": "address"
        }
      ],
      "name": "balanceOf",
      "outputs": [
        {
          "internalType": "uint256",
          "name": "",
          "type": "uint256"
        }
      ],
      "stateMutability": "view",
      "type": "function"
    },
    {
      "inputs": [
        {
          "internalType": "address",
          "name": "",
          "type": "address"
        }
      ],
      "name": "collectionsCreated",
      "outputs": [
        {
          "internalType": "uint256",
          "name": "",
          "type": "uint256"
        }
      ],
      "stateMutability": "view",
      "type": "function"
    },
    {
      "inputs": [
        {
          "internalType": "string",
          "name": "uri",
          "type": "string"
        }
      ],
      "name": "createCollection",
      "outputs": [
        {
          "internalType": "uint256",
          "name": "",
          "type": "uint256"
        }
      ],
      "stateMutability": "nonpayable",
      "type": "function"
    },
    {
      "inputs": [
        {
          "internalType": "uint256",
          "name": "tokenId",
          "type": "uint256"
        }
      ],
      "name": "getApproved",
      "outputs": [
        {
          "internalType": "address",
          "name": "",
          "type": "address"
        }
      ],
      "stateMutability": "view",
      "type": "function"
    },
    {
      "inputs": [
        {
          "internalType": "uint256",
          "name": "id",
          "type": "uint256"
        }
      ],
      "name": "getCollection",
      "outputs": [
        {
          "components": [
            {
              "internalType": "string",
              "name": "uri",
              "type": "string"
            },
            {
              "internalType": "uint256",
              "name": "id",
              "type": "uint256"
            },
            {
              "internalType": "address",
              "name": "owner",
              "type": "address"
            }
          ],
          "internalType": "struct ERC721Collections.Collection",
          "name": "",
          "type": "tuple"
        }
      ],
      "stateMutability": "view",
      "type": "function"
    },
    {
      "inputs": [
        {
          "internalType": "uint256",
          "name": "tokenId",
          "type": "uint256"
        }
      ],
      "name": "getCollectionOfToken",
      "outputs": [
        {
          "components": [
            {
              "internalType": "string",
              "name": "uri",
              "type": "string"
            },
            {
              "internalType": "uint256",
              "name": "id",
              "type": "uint256"
            },
            {
              "internalType": "address",
              "name": "owner",
              "type": "address"
            }
          ],
          "internalType": "struct ERC721Collections.Collection",
          "name": "",
          "type": "tuple"
        }
      ],
      "stateMutability": "view",
      "type": "function"
    },
    {
      "inputs": [
        {
          "internalType": "uint256",
          "name": "collectionId",
          "type": "uint256"
        },
        {
          "internalType": "uint256",
          "name": "startIndex",
          "type": "uint256"
        },
        {
          "internalType": "uint256",
          "name": "pageSize",
          "type": "uint256"
        }
      ],
      "name": "getNFTsInCollection",
      "outputs": [
        {
          "internalType": "uint256[]",
          "name": "",
          "type": "uint256[]"
        }
      ],
      "stateMutability": "view",
      "type": "function"
    },
    {
      "inputs": [
        {
          "internalType": "uint256",
          "name": "tokenId",
          "type": "uint256"
        }
      ],
      "name": "getPrice",
      "outputs": [
        {
          "internalType": "uint256",
          "name": "",
          "type": "uint256"
        }
      ],
      "stateMutability": "view",
      "type": "function"
    },
    {
      "inputs": [
        {
          "internalType": "address",
          "name": "owner",
          "type": "address"
        },
        {
          "internalType": "address",
          "name": "operator",
          "type": "address"
        }
      ],
      "name": "isApprovedForAll",
      "outputs": [
        {
          "internalType": "bool",
          "name": "",
          "type": "bool"
        }
      ],
      "stateMutability": "view",
      "type": "function"
    },
    {
      "inputs": [
        {
          "internalType": "address",
          "name": "",
          "type": "address"
        }
      ],
      "name": "lastCollectionTimestamp",
      "outputs": [
        {
          "internalType": "uint256",
          "name": "",
          "type": "uint256"
        }
      ],
      "stateMutability": "view",
      "type": "function"
    },
    {
      "inputs": [
        {
          "internalType": "uint256",
          "name": "collectionId",
          "type": "uint256"
        },
        {
          "internalType": "string",
          "name": "tokenURI",
          "type": "string"
        },
        {
          "internalType": "uint256",
          "name": "price",
          "type": "uint256"
        }
      ],
      "name": "mint",
      "outputs": [
        {
          "internalType": "uint256",
          "name": "",
          "type": "uint256"
        }
      ],
      "stateMutability": "nonpayable",
      "type": "function"
    },
    {
      "inputs": [],
      "name": "name",
      "outputs": [
        {
          "internalType": "string",
          "name": "",
          "type": "string"
        }
      ],
      "stateMutability": "view",
      "type": "function"
    },
    {
      "inputs": [],
      "name": "owner",
      "outputs": [
        {
          "internalType": "address",
          "name": "",
          "type": "address"
        }
      ],
      "stateMutability": "view",
      "type": "function"
    },
    {
      "inputs": [
        {
          "internalType": "uint256",
          "name": "tokenId",
          "type": "uint256"
        }
      ],
      "name": "ownerOf",
      "outputs": [
        {
          "internalType": "address",
          "name": "",
          "type": "address"
        }
      ],
      "stateMutability": "view",
      "type": "function"
    },
    {
      "inputs": [],
      "name": "renounceOwnership",
      "outputs": [],
      "stateMutability": "nonpayable",
      "type": "function"
    },
    {
      "inputs": [
        {
          "internalType": "address",
          "name": "from",
          "type": "address"
        },
        {
          "internalType": "address",
          "name": "to",
          "type": "address"
        },
        {
          "internalType": "uint256",
          "name": "tokenId",
          "type": "uint256"
        }
      ],
      "name": "safeTransferFrom",
      "outputs": [],
      "stateMutability": "nonpayable",
      "type": "function"
    },
    {
      "inputs": [
        {
          "internalType": "address",
          "name": "from",
          "type": "address"
        },
        {
          "internalType": "address",
          "name": "to",
          "type": "address"
        },
        {
          "internalType": "uint256",
          "name": "tokenId",
          "type": "uint256"
        },
        {
          "internalType": "bytes",
          "name": "data",
          "type": "bytes"
        }
      ],
      "name": "safeTransferFrom",
      "outputs": [],
      "stateMutability": "nonpayable",
      "type": "function"
    },
    {
      "inputs": [
        {
          "internalType": "address",
          "name": "operator",
          "type": "address"
        },
        {
          "internalType": "bool",
          "name": "approved",
          "type": "bool"
        }
      ],
      "name": "setApprovalForAll",
      "outputs": [],
      "stateMutability": "nonpayable",
      "type": "function"
    },
    {
      "inputs": [
        {
          "internalType": "address payable",
          "name": "marketplaceAddress",
          "type": "address"
        }
      ],
      "name": "setMarketplace",
      "outputs": [],
      "stateMutability": "nonpayable",
      "type": "function"
    },
    {
      "inputs": [
        {
          "internalType": "uint256",
          "name": "tokenId",
          "type": "uint256"
        },
        {
          "internalType": "uint256",
          "name": "price",
          "type": "uint256"
        }
      ],
      "name": "setPrice",
      "outputs": [
        {
          "internalType": "uint256",
          "name": "",
          "type": "uint256"
        }
      ],
      "stateMutability": "nonpayable",
      "type": "function"
    },
    {
      "inputs": [
        {
          "internalType": "bytes4",
          "name": "interfaceId",
          "type": "bytes4"
        }
      ],
      "name": "supportsInterface",
      "outputs": [
        {
          "internalType": "bool",
          "name": "",
          "type": "bool"
        }
      ],
      "stateMutability": "view",
      "type": "function"
    },
    {
      "inputs": [],
      "name": "symbol",
      "outputs": [
        {
          "internalType": "string",
          "name": "",
          "type": "string"
        }
      ],
      "stateMutability": "view",
      "type": "function"
    },
    {
      "inputs": [
        {
          "internalType": "uint256",
          "name": "tokenId",
          "type": "uint256"
        }
      ],
      "name": "tokenURI",
      "outputs": [
        {
          "internalType": "string",
          "name": "",
          "type": "string"
        }
      ],
      "stateMutability": "view",
      "type": "function"
    },
    {
      "inputs": [
        {
          "internalType": "address",
          "name": "from",
          "type": "address"
        },
        {
          "internalType": "address",
          "name": "to",
          "type": "address"
        },
        {
          "internalType": "uint256",
          "name": "tokenId",
          "type": "uint256"
        }
      ],
      "name": "transferFrom",
      "outputs": [],
      "stateMutability": "nonpayable",
      "type": "function"
    },
    {
      "inputs": [
        {
          "internalType": "address",
          "name": "newOwner",
          "type": "address"
        }
      ],
      "name": "transferOwnership",
      "outputs": [],
      "stateMutability": "nonpayable",
      "type": "function"
    }
  ],
  "bytecode": "0x60806040523480156200001157600080fd5b506040516200527f3803806200527f833981810160405281019062000037919062000643565b6040518060400160405280601181526020017f455243373231436f6c6c656374696f6e730000000000000000000000000000008152506040518060400160405280600381526020017f53545200000000000000000000000000000000000000000000000000000000008152508160009080519060200190620000bb92919062000521565b508060019080519060200190620000d492919062000521565b505050620000f7620000eb6200011060201b60201c565b6200011860201b60201c565b6200010881620001de60201b60201c565b505062000a88565b600033905090565b6000600760009054906101000a900473ffffffffffffffffffffffffffffffffffffffff16905081600760006101000a81548173ffffffffffffffffffffffffffffffffffffffff021916908373ffffffffffffffffffffffffffffffffffffffff1602179055508173ffffffffffffffffffffffffffffffffffffffff168173ffffffffffffffffffffffffffffffffffffffff167f8be0079c531659141344cd1fd0a4f28419497f9722a3daafe3b4186f6b6457e060405160405180910390a35050565b60006103e7600f60003373ffffffffffffffffffffffffffffffffffffffff1673ffffffffffffffffffffffffffffffffffffffff168152602001908152602001600020541062000266576040517f08c379a00000000000000000000000000000000000000000000000000000000081526004016200025d906200074a565b60405180910390fd5b42603c601060003373ffffffffffffffffffffffffffffffffffffffff1673ffffffffffffffffffffffffffffffffffffffff16815260200190815260200160002054620002b591906200081b565b1115620002f9576040517f08c379a0000000000000000000000000000000000000000000000000000000008152600401620002f09062000728565b60405180910390fd5b620003106009620004fd60201b62001b321760201c565b60405180606001604052808381526020016200033860096200051360201b62001b481760201c565b81526020013373ffffffffffffffffffffffffffffffffffffffff16815250600b60006200037260096200051360201b62001b481760201c565b815260200190815260200160002060008201518160000190805190602001906200039e92919062000521565b506020820151816001015560408201518160020160006101000a81548173ffffffffffffffffffffffffffffffffffffffff021916908373ffffffffffffffffffffffffffffffffffffffff160217905550905050600f60003373ffffffffffffffffffffffffffffffffffffffff1673ffffffffffffffffffffffffffffffffffffffff1681526020019081526020016000206000815480929190620004459062000924565b919050555042601060003373ffffffffffffffffffffffffffffffffffffffff1673ffffffffffffffffffffffffffffffffffffffff168152602001908152602001600020819055507f62b7b5ba11bfc95430fab0460fdf99b9c8fbc2b3a6a48caf79c3ee1b591c0336620004c660096200051360201b62001b481760201c565b83604051620004d79291906200076c565b60405180910390a1620004f660096200051360201b62001b481760201c565b9050919050565b6001816000016000828254019250508190555050565b600081600001549050919050565b8280546200052f90620008b8565b90600052602060002090601f0160209004810192826200055357600085556200059f565b82601f106200056e57805160ff19168380011785556200059f565b828001600101855582156200059f579182015b828111156200059e57825182559160200191906001019062000581565b5b509050620005ae9190620005b2565b5090565b5b80821115620005cd576000816000905550600101620005b3565b5090565b6000620005e8620005e284620007c9565b620007a0565b9050828152602081018484840111156200060157600080fd5b6200060e84828562000882565b509392505050565b600082601f8301126200062857600080fd5b81516200063a848260208601620005d1565b91505092915050565b6000602082840312156200065657600080fd5b600082015167ffffffffffffffff8111156200067157600080fd5b6200067f8482850162000616565b91505092915050565b60006200069582620007ff565b620006a181856200080a565b9350620006b381856020860162000882565b620006be81620009ff565b840191505092915050565b6000620006d8602c836200080a565b9150620006e58262000a10565b604082019050919050565b6000620006ff6017836200080a565b91506200070c8262000a5f565b602082019050919050565b620007228162000878565b82525050565b600060208201905081810360008301526200074381620006c9565b9050919050565b600060208201905081810360008301526200076581620006f0565b9050919050565b600060408201905062000783600083018562000717565b818103602083015262000797818462000688565b90509392505050565b6000620007ac620007bf565b9050620007ba8282620008ee565b919050565b6000604051905090565b600067ffffffffffffffff821115620007e757620007e6620009d0565b5b620007f282620009ff565b9050602081019050919050565b600081519050919050565b600082825260208201905092915050565b6000620008288262000878565b9150620008358362000878565b9250827fffffffffffffffffffffffffffffffffffffffffffffffffffffffffffffffff038211156200086d576200086c62000972565b5b828201905092915050565b6000819050919050565b60005b83811015620008a257808201518184015260208101905062000885565b83811115620008b2576000848401525b50505050565b60006002820490506001821680620008d157607f821691505b60208210811415620008e857620008e7620009a1565b5b50919050565b620008f982620009ff565b810181811067ffffffffffffffff821117156200091b576200091a620009d0565b5b80604052505050565b6000620009318262000878565b91507fffffffffffffffffffffffffffffffffffffffffffffffffffffffffffffffff82141562000967576200096662000972565b5b600182019050919050565b7f4e487b7100000000000000000000000000000000000000000000000000000000600052601160045260246000fd5b7f4e487b7100000000000000000000000000000000000000000000000000000000600052602260045260246000fd5b7f4e487b7100000000000000000000000000000000000000000000000000000000600052604160045260246000fd5b6000601f19601f8301169050919050565b7f4d7573742077616974206265666f7265206372656174696e6720616e6f74686560008201527f7220636f6c6c656374696f6e0000000000000000000000000000000000000000602082015250565b7f4d617820636f6c6c656374696f6e732072656163686564000000000000000000600082015250565b6147e78062000a986000396000f3fe608060405234801561001057600080fd5b50600436106101c45760003560e01c80638da5cb5b116100f9578063c87b56dd11610097578063e757223011610071578063e757223014610551578063e985e9c514610581578063f2fde38b146105b1578063f7d97577146105cd576101c4565b8063c87b56dd146104c1578063d08b28ea146104f1578063da0277fd14610521576101c4565b8063acca6b31116100d3578063acca6b3114610427578063ad9f20a614610457578063b88d4fde14610475578063bd6fbad914610491576101c4565b80638da5cb5b146103cf57806395d89b41146103ed578063a22cb4651461040b576101c4565b806342842e0e1161016657806370a082311161014057806370a0823114610349578063715018a61461037957806373ad6c2d1461038357806382a17cdb1461039f576101c4565b806342842e0e146102cd5780635a1f3c28146102e95780636352211e14610319576101c4565b806306fdde03116101a257806306fdde0314610247578063081812fc14610265578063095ea7b31461029557806323b872dd146102b1576101c4565b806301c11d96146101c957806301ffc9a7146101e7578063059dfe1314610217575b600080fd5b6101d16105fd565b6040516101de9190613cdc565b60405180910390f35b61020160048036038101906101fc9190613167565b61060b565b60405161020e919061393d565b60405180910390f35b610231600480360381019061022c91906131b9565b61066c565b60405161023e9190613cdc565b60405180910390f35b61024f61093c565b60405161025c9190613958565b60405180910390f35b61027f600480360381019061027a91906131fa565b6109ce565b60405161028c91906138b4565b60405180910390f35b6102af60048036038101906102aa9190613102565b610a14565b005b6102cb60048036038101906102c69190612ffc565b610b2c565b005b6102e760048036038101906102e29190612ffc565b610b8c565b005b61030360048036038101906102fe91906131fa565b610bac565b6040516103109190613cba565b60405180910390f35b610333600480360381019061032e91906131fa565b610ccb565b60405161034091906138b4565b60405180910390f35b610363600480360381019061035e9190612f6e565b610d52565b6040516103709190613cdc565b60405180910390f35b610381610e0a565b005b61039d60048036038101906103989190612f97565b610e1e565b005b6103b960048036038101906103b49190612f6e565b610f6b565b6040516103c69190613cdc565b60405180910390f35b6103d7610f83565b6040516103e491906138b4565b60405180910390f35b6103f5610fad565b6040516104029190613958565b60405180910390f35b610425600480360381019061042091906130c6565b61103f565b005b610441600480360381019061043c9190613223565b611055565b60405161044e9190613cdc565b60405180910390f35b61045f6112d1565b60405161046c9190613cdc565b60405180910390f35b61048f600480360381019061048a919061304b565b6112dc565b005b6104ab60048036038101906104a69190612f6e565b61133e565b6040516104b89190613cdc565b60405180910390f35b6104db60048036038101906104d691906131fa565b611356565b6040516104e89190613958565b60405180910390f35b61050b600480360381019061050691906132c6565b611469565b604051610518919061391b565b60405180910390f35b61053b600480360381019061053691906131fa565b61162d565b6040516105489190613cba565b60405180910390f35b61056b600480360381019061056691906131fa565b6117bc565b6040516105789190613cdc565b60405180910390f35b61059b60048036038101906105969190612fc0565b6117d9565b6040516105a8919061393d565b60405180910390f35b6105cb60048036038101906105c69190612f6e565b61186d565b005b6105e760048036038101906105e2919061328a565b6118f1565b6040516105f49190613cdc565b60405180910390f35b69021e19e0c9bab240000081565b6000634906490660e01b7bffffffffffffffffffffffffffffffffffffffffffffffffffffffff1916827bffffffffffffffffffffffffffffffffffffffffffffffffffffffff19161480610665575061066482611b56565b5b9050919050565b60006103e7600f60003373ffffffffffffffffffffffffffffffffffffffff1673ffffffffffffffffffffffffffffffffffffffff16815260200190815260200160002054106106f1576040517f08c379a00000000000000000000000000000000000000000000000000000000081526004016106e890613b1a565b60405180910390fd5b42603c601060003373ffffffffffffffffffffffffffffffffffffffff1673ffffffffffffffffffffffffffffffffffffffff1681526020019081526020016000205461073e9190613e64565b111561077f576040517f08c379a0000000000000000000000000000000000000000000000000000000008152600401610776906139ba565b60405180910390fd5b6107896009611b32565b60405180606001604052808381526020016107a46009611b48565b81526020013373ffffffffffffffffffffffffffffffffffffffff16815250600b60006107d16009611b48565b815260200190815260200160002060008201518160000190805190602001906107fb929190612d31565b506020820151816001015560408201518160020160006101000a81548173ffffffffffffffffffffffffffffffffffffffff021916908373ffffffffffffffffffffffffffffffffffffffff160217905550905050600f60003373ffffffffffffffffffffffffffffffffffffffff1673ffffffffffffffffffffffffffffffffffffffff16815260200190815260200160002060008154809291906108a090614019565b919050555042601060003373ffffffffffffffffffffffffffffffffffffffff1673ffffffffffffffffffffffffffffffffffffffff168152602001908152602001600020819055507f62b7b5ba11bfc95430fab0460fdf99b9c8fbc2b3a6a48caf79c3ee1b591c03366109146009611b48565b83604051610923929190613cf7565b60405180910390a16109356009611b48565b9050919050565b60606000805461094b90613fb6565b80601f016020809104026020016040519081016040528092919081815260200182805461097790613fb6565b80156109c45780601f10610999576101008083540402835291602001916109c4565b820191906000526020600020905b8154815290600101906020018083116109a757829003601f168201915b5050505050905090565b60006109d982611c38565b6004600083815260200190815260200160002060009054906101000a900473ffffffffffffffffffffffffffffffffffffffff169050919050565b6000610a1f82610ccb565b90508073ffffffffffffffffffffffffffffffffffffffff168373ffffffffffffffffffffffffffffffffffffffff161415610a90576040517f08c379a0000000000000000000000000000000000000000000000000000000008152600401610a8790613c5a565b60405180910390fd5b8073ffffffffffffffffffffffffffffffffffffffff16610aaf611c83565b73ffffffffffffffffffffffffffffffffffffffff161480610ade5750610add81610ad8611c83565b6117d9565b5b610b1d576040517f08c379a0000000000000000000000000000000000000000000000000000000008152600401610b1490613c7a565b60405180910390fd5b610b278383611c8b565b505050565b610b3d610b37611c83565b82611d44565b610b7c576040517f08c379a0000000000000000000000000000000000000000000000000000000008152600401610b739061397a565b60405180910390fd5b610b87838383611dd9565b505050565b610ba7838383604051806020016040528060008152506112dc565b505050565b610bb4612db7565b600b6000838152602001908152602001600020604051806060016040529081600082018054610be290613fb6565b80601f0160208091040260200160405190810160405280929190818152602001828054610c0e90613fb6565b8015610c5b5780601f10610c3057610100808354040283529160200191610c5b565b820191906000526020600020905b815481529060010190602001808311610c3e57829003601f168201915b50505050508152602001600182015481526020016002820160009054906101000a900473ffffffffffffffffffffffffffffffffffffffff1673ffffffffffffffffffffffffffffffffffffffff1673ffffffffffffffffffffffffffffffffffffffff16815250509050919050565b600080610cd7836120d3565b9050600073ffffffffffffffffffffffffffffffffffffffff168173ffffffffffffffffffffffffffffffffffffffff161415610d49576040517f08c379a0000000000000000000000000000000000000000000000000000000008152600401610d4090613c3a565b60405180910390fd5b80915050919050565b60008073ffffffffffffffffffffffffffffffffffffffff168273ffffffffffffffffffffffffffffffffffffffff161415610dc3576040517f08c379a0000000000000000000000000000000000000000000000000000000008152600401610dba90613b5a565b60405180910390fd5b600360008373ffffffffffffffffffffffffffffffffffffffff1673ffffffffffffffffffffffffffffffffffffffff168152602001908152602001600020549050919050565b610e12612110565b610e1c600061218e565b565b610e26612110565b600073ffffffffffffffffffffffffffffffffffffffff16600a60009054906101000a900473ffffffffffffffffffffffffffffffffffffffff1673ffffffffffffffffffffffffffffffffffffffff1614610eb7576040517f08c379a0000000000000000000000000000000000000000000000000000000008152600401610eae90613c1a565b60405180910390fd5b600073ffffffffffffffffffffffffffffffffffffffff168173ffffffffffffffffffffffffffffffffffffffff161415610f27576040517f08c379a0000000000000000000000000000000000000000000000000000000008152600401610f1e9061399a565b60405180910390fd5b80600a60006101000a81548173ffffffffffffffffffffffffffffffffffffffff021916908373ffffffffffffffffffffffffffffffffffffffff16021790555050565b60106020528060005260406000206000915090505481565b6000600760009054906101000a900473ffffffffffffffffffffffffffffffffffffffff16905090565b606060018054610fbc90613fb6565b80601f0160208091040260200160405190810160405280929190818152602001828054610fe890613fb6565b80156110355780601f1061100a57610100808354040283529160200191611035565b820191906000526020600020905b81548152906001019060200180831161101857829003601f168201915b5050505050905090565b61105161104a611c83565b8383612254565b5050565b6000662386f26fc100008210156110a1576040517f08c379a0000000000000000000000000000000000000000000000000000000008152600401611098906139fa565b60405180910390fd5b69021e19e0c9bab24000008211156110ee576040517f08c379a00000000000000000000000000000000000000000000000000000000081526004016110e590613bba565b60405180910390fd5b6000600b6000868152602001908152602001600020600101541415611148576040517f08c379a000000000000000000000000000000000000000000000000000000000815260040161113f90613a7a565b60405180910390fd5b60018414806111b857503373ffffffffffffffffffffffffffffffffffffffff16600b600086815260200190815260200160002060020160009054906101000a900473ffffffffffffffffffffffffffffffffffffffff1673ffffffffffffffffffffffffffffffffffffffff16145b6111f7576040517f08c379a00000000000000000000000000000000000000000000000000000000081526004016111ee90613a9a565b60405180910390fd5b60006112036008611b48565b905061120f6008611b32565b61121933826123c1565b61122381856125df565b84600d600083815260200190815260200160002081905550600c600086815260200190815260200160002081908060018154018082558091505060019003906000526020600020016000909190919091505582600e6000838152602001908152602001600020819055507f5f7666687319b40936f33c188908d86aea154abd3f4127b4fa0a3f04f303c7da81866040516112be929190613d27565b60405180910390a1809150509392505050565b662386f26fc1000081565b6112ed6112e7611c83565b83611d44565b61132c576040517f08c379a00000000000000000000000000000000000000000000000000000000081526004016113239061397a565b60405180910390fd5b6113388484848461268a565b50505050565b600f6020528060005260406000206000915090505481565b606061136182611c38565b600060066000848152602001908152602001600020805461138190613fb6565b80601f01602080910402602001604051908101604052809291908181526020018280546113ad90613fb6565b80156113fa5780601f106113cf576101008083540402835291602001916113fa565b820191906000526020600020905b8154815290600101906020018083116113dd57829003601f168201915b50505050509050600061140b6126e6565b9050600081511415611421578192505050611464565b60008251111561145657808260405160200161143e929190613890565b60405160208183030381529060405292505050611464565b61145f846126fd565b925050505b919050565b60606000600c60008681526020019081526020016000209050808054905084106114c8576040517f08c379a00000000000000000000000000000000000000000000000000000000081526004016114bf90613b9a565b60405180910390fd5b600083856114d69190613e64565b905081805490508111156114ec57818054905090505b600085826114fa9190613eba565b67ffffffffffffffff811115611539577f4e487b7100000000000000000000000000000000000000000000000000000000600052604160045260246000fd5b6040519080825280602002602001820160405280156115675781602001602082028036833780820191505090505b50905060008690505b8281101561161f578381815481106115b1577f4e487b7100000000000000000000000000000000000000000000000000000000600052603260045260246000fd5b90600052602060002001548288836115c99190613eba565b81518110611600577f4e487b7100000000000000000000000000000000000000000000000000000000600052603260045260246000fd5b602002602001018181525050808061161790614019565b915050611570565b508093505050509392505050565b611635612db7565b6000600d600084815260200190815260200160002054141561168c576040517f08c379a000000000000000000000000000000000000000000000000000000000815260040161168390613afa565b60405180910390fd5b6000600d6000848152602001908152602001600020549050600b60008281526020019081526020016000206040518060600160405290816000820180546116d290613fb6565b80601f01602080910402602001604051908101604052809291908181526020018280546116fe90613fb6565b801561174b5780601f106117205761010080835404028352916020019161174b565b820191906000526020600020905b81548152906001019060200180831161172e57829003601f168201915b50505050508152602001600182015481526020016002820160009054906101000a900473ffffffffffffffffffffffffffffffffffffffff1673ffffffffffffffffffffffffffffffffffffffff1673ffffffffffffffffffffffffffffffffffffffff1681525050915050919050565b6000600e6000838152602001908152602001600020549050919050565b6000600560008473ffffffffffffffffffffffffffffffffffffffff1673ffffffffffffffffffffffffffffffffffffffff16815260200190815260200160002060008373ffffffffffffffffffffffffffffffffffffffff1673ffffffffffffffffffffffffffffffffffffffff16815260200190815260200160002060009054906101000a900460ff16905092915050565b611875612110565b600073ffffffffffffffffffffffffffffffffffffffff168173ffffffffffffffffffffffffffffffffffffffff1614156118e5576040517f08c379a00000000000000000000000000000000000000000000000000000000081526004016118dc90613a1a565b60405180910390fd5b6118ee8161218e565b50565b6000662386f26fc1000082101561193d576040517f08c379a0000000000000000000000000000000000000000000000000000000008152600401611934906139fa565b60405180910390fd5b69021e19e0c9bab240000082111561198a576040517f08c379a000000000000000000000000000000000000000000000000000000000815260040161198190613bba565b60405180910390fd5b61199b611995611c83565b84611d44565b6119da576040517f08c379a00000000000000000000000000000000000000000000000000000000081526004016119d190613c9a565b60405180910390fd5b600a60009054906101000a900473ffffffffffffffffffffffffffffffffffffffff1673ffffffffffffffffffffffffffffffffffffffff16639b83cddc846040518263ffffffff1660e01b8152600401611a359190613cdc565b60206040518083038186803b158015611a4d57600080fd5b505afa158015611a61573d6000803e3d6000fd5b505050506040513d601f19601f82011682018060405250810190611a85919061313e565b15611ac5576040517f08c379a0000000000000000000000000000000000000000000000000000000008152600401611abc90613b3a565b60405180910390fd5b81600e6000858152602001908152602001600020819055507fa0f1665b7b659537b52deec61ea64d134a3bccda74c7f4e79f2246e7a8187a8a8383604051611b0e929190613d27565b60405180910390a1600e600084815260200190815260200160002054905092915050565b6001816000016000828254019250508190555050565b600081600001549050919050565b60007f80ac58cd000000000000000000000000000000000000000000000000000000007bffffffffffffffffffffffffffffffffffffffffffffffffffffffff1916827bffffffffffffffffffffffffffffffffffffffffffffffffffffffff19161480611c2157507f5b5e139f000000000000000000000000000000000000000000000000000000007bffffffffffffffffffffffffffffffffffffffffffffffffffffffff1916827bffffffffffffffffffffffffffffffffffffffffffffffffffffffff1916145b80611c315750611c3082612765565b5b9050919050565b611c41816127cf565b611c80576040517f08c379a0000000000000000000000000000000000000000000000000000000008152600401611c7790613c3a565b60405180910390fd5b50565b600033905090565b816004600083815260200190815260200160002060006101000a81548173ffffffffffffffffffffffffffffffffffffffff021916908373ffffffffffffffffffffffffffffffffffffffff160217905550808273ffffffffffffffffffffffffffffffffffffffff16611cfe83610ccb565b73ffffffffffffffffffffffffffffffffffffffff167f8c5be1e5ebec7d5bd14f71427d1e84f3dd0314c0f7b2291e5b200ac8c7c3b92560405160405180910390a45050565b600080611d5083610ccb565b90508073ffffffffffffffffffffffffffffffffffffffff168473ffffffffffffffffffffffffffffffffffffffff161480611d925750611d9181856117d9565b5b80611dd057508373ffffffffffffffffffffffffffffffffffffffff16611db8846109ce565b73ffffffffffffffffffffffffffffffffffffffff16145b91505092915050565b8273ffffffffffffffffffffffffffffffffffffffff16611df982610ccb565b73ffffffffffffffffffffffffffffffffffffffff1614611e4f576040517f08c379a0000000000000000000000000000000000000000000000000000000008152600401611e4690613a3a565b60405180910390fd5b600073ffffffffffffffffffffffffffffffffffffffff168273ffffffffffffffffffffffffffffffffffffffff161415611ebf576040517f08c379a0000000000000000000000000000000000000000000000000000000008152600401611eb690613aba565b60405180910390fd5b611ecc8383836001612810565b8273ffffffffffffffffffffffffffffffffffffffff16611eec82610ccb565b73ffffffffffffffffffffffffffffffffffffffff1614611f42576040517f08c379a0000000000000000000000000000000000000000000000000000000008152600401611f3990613a3a565b60405180910390fd5b6004600082815260200190815260200160002060006101000a81549073ffffffffffffffffffffffffffffffffffffffff02191690556001600360008573ffffffffffffffffffffffffffffffffffffffff1673ffffffffffffffffffffffffffffffffffffffff168152602001908152602001600020600082825403925050819055506001600360008473ffffffffffffffffffffffffffffffffffffffff1673ffffffffffffffffffffffffffffffffffffffff16815260200190815260200160002060008282540192505081905550816002600083815260200190815260200160002060006101000a81548173ffffffffffffffffffffffffffffffffffffffff021916908373ffffffffffffffffffffffffffffffffffffffff160217905550808273ffffffffffffffffffffffffffffffffffffffff168473ffffffffffffffffffffffffffffffffffffffff167fddf252ad1be2c89b69c2b068fc378daa952ba7f163c4a11628f55a4df523b3ef60405160405180910390a46120ce8383836001612816565b505050565b60006002600083815260200190815260200160002060009054906101000a900473ffffffffffffffffffffffffffffffffffffffff169050919050565b612118611c83565b73ffffffffffffffffffffffffffffffffffffffff16612136610f83565b73ffffffffffffffffffffffffffffffffffffffff161461218c576040517f08c379a000000000000000000000000000000000000000000000000000000000815260040161218390613bfa565b60405180910390fd5b565b6000600760009054906101000a900473ffffffffffffffffffffffffffffffffffffffff16905081600760006101000a81548173ffffffffffffffffffffffffffffffffffffffff021916908373ffffffffffffffffffffffffffffffffffffffff1602179055508173ffffffffffffffffffffffffffffffffffffffff168173ffffffffffffffffffffffffffffffffffffffff167f8be0079c531659141344cd1fd0a4f28419497f9722a3daafe3b4186f6b6457e060405160405180910390a35050565b8173ffffffffffffffffffffffffffffffffffffffff168373ffffffffffffffffffffffffffffffffffffffff1614156122c3576040517f08c379a00000000000000000000000000000000000000000000000000000000081526004016122ba90613ada565b60405180910390fd5b80600560008573ffffffffffffffffffffffffffffffffffffffff1673ffffffffffffffffffffffffffffffffffffffff16815260200190815260200160002060008473ffffffffffffffffffffffffffffffffffffffff1673ffffffffffffffffffffffffffffffffffffffff16815260200190815260200160002060006101000a81548160ff0219169083151502179055508173ffffffffffffffffffffffffffffffffffffffff168373ffffffffffffffffffffffffffffffffffffffff167f17307eab39ab6107e8899845ad3d59bd9653f200f220920489ca2b5937696c31836040516123b4919061393d565b60405180910390a3505050565b600073ffffffffffffffffffffffffffffffffffffffff168273ffffffffffffffffffffffffffffffffffffffff161415612431576040517f08c379a000000000000000000000000000000000000000000000000000000000815260040161242890613bda565b60405180910390fd5b61243a816127cf565b1561247a576040517f08c379a000000000000000000000000000000000000000000000000000000000815260040161247190613a5a565b60405180910390fd5b612488600083836001612810565b612491816127cf565b156124d1576040517f08c379a00000000000000000000000000000000000000000000000000000000081526004016124c890613a5a565b60405180910390fd5b6001600360008473ffffffffffffffffffffffffffffffffffffffff1673ffffffffffffffffffffffffffffffffffffffff16815260200190815260200160002060008282540192505081905550816002600083815260200190815260200160002060006101000a81548173ffffffffffffffffffffffffffffffffffffffff021916908373ffffffffffffffffffffffffffffffffffffffff160217905550808273ffffffffffffffffffffffffffffffffffffffff16600073ffffffffffffffffffffffffffffffffffffffff167fddf252ad1be2c89b69c2b068fc378daa952ba7f163c4a11628f55a4df523b3ef60405160405180910390a46125db600083836001612816565b5050565b6125e8826127cf565b612627576040517f08c379a000000000000000000000000000000000000000000000000000000000815260040161261e90613b7a565b60405180910390fd5b8060066000848152602001908152602001600020908051906020019061264e929190612d31565b507ff8e1a15aba9398e019f0b49df1a4fde98ee17ae345cb5f6b5e2c27f5033e8ce78260405161267e9190613cdc565b60405180910390a15050565b612695848484611dd9565b6126a18484848461281c565b6126e0576040517f08c379a00000000000000000000000000000000000000000000000000000000081526004016126d7906139da565b60405180910390fd5b50505050565b606060405180602001604052806000815250905090565b606061270882611c38565b60006127126126e6565b90506000815111612732576040518060200160405280600081525061275d565b8061273c846129b3565b60405160200161274d929190613890565b6040516020818303038152906040525b915050919050565b60007f01ffc9a7000000000000000000000000000000000000000000000000000000007bffffffffffffffffffffffffffffffffffffffffffffffffffffffff1916827bffffffffffffffffffffffffffffffffffffffffffffffffffffffff1916149050919050565b60008073ffffffffffffffffffffffffffffffffffffffff166127f1836120d3565b73ffffffffffffffffffffffffffffffffffffffff1614159050919050565b50505050565b50505050565b600061283d8473ffffffffffffffffffffffffffffffffffffffff16612ad7565b156129a6578373ffffffffffffffffffffffffffffffffffffffff1663150b7a02612866611c83565b8786866040518563ffffffff1660e01b815260040161288894939291906138cf565b602060405180830381600087803b1580156128a257600080fd5b505af19250505080156128d357506040513d601f19601f820116820180604052508101906128d09190613190565b60015b612956573d8060008114612903576040519150601f19603f3d011682016040523d82523d6000602084013e612908565b606091505b5060008151141561294e576040517f08c379a0000000000000000000000000000000000000000000000000000000008152600401612945906139da565b60405180910390fd5b805181602001fd5b63150b7a0260e01b7bffffffffffffffffffffffffffffffffffffffffffffffffffffffff1916817bffffffffffffffffffffffffffffffffffffffffffffffffffffffff1916149150506129ab565b600190505b949350505050565b6060600060016129c284612afa565b01905060008167ffffffffffffffff811115612a07577f4e487b7100000000000000000000000000000000000000000000000000000000600052604160045260246000fd5b6040519080825280601f01601f191660200182016040528015612a395781602001600182028036833780820191505090505b509050600082602001820190505b600115612acc578080600190039150507f3031323334353637383961626364656600000000000000000000000000000000600a86061a8153600a8581612ab6577f4e487b7100000000000000000000000000000000000000000000000000000000600052601260045260246000fd5b0494506000851415612ac757612acc565b612a47565b819350505050919050565b6000808273ffffffffffffffffffffffffffffffffffffffff163b119050919050565b600080600090507a184f03e93ff9f4daa797ed6e38ed64bf6a1f0100000000000000008310612b7e577a184f03e93ff9f4daa797ed6e38ed64bf6a1f0100000000000000008381612b74577f4e487b7100000000000000000000000000000000000000000000000000000000600052601260045260246000fd5b0492506040810190505b6d04ee2d6d415b85acef81000000008310612be1576d04ee2d6d415b85acef81000000008381612bd7577f4e487b7100000000000000000000000000000000000000000000000000000000600052601260045260246000fd5b0492506020810190505b662386f26fc100008310612c3657662386f26fc100008381612c2c577f4e487b7100000000000000000000000000000000000000000000000000000000600052601260045260246000fd5b0492506010810190505b6305f5e1008310612c85576305f5e1008381612c7b577f4e487b7100000000000000000000000000000000000000000000000000000000600052601260045260246000fd5b0492506008810190505b6127108310612cd0576127108381612cc6577f4e487b7100000000000000000000000000000000000000000000000000000000600052601260045260246000fd5b0492506004810190505b60648310612d195760648381612d0f577f4e487b7100000000000000000000000000000000000000000000000000000000600052601260045260246000fd5b0492506002810190505b600a8310612d28576001810190505b80915050919050565b828054612d3d90613fb6565b90600052602060002090601f016020900481019282612d5f5760008555612da6565b82601f10612d7857805160ff1916838001178555612da6565b82800160010185558215612da6579182015b82811115612da5578251825591602001919060010190612d8a565b5b509050612db39190612dee565b5090565b60405180606001604052806060815260200160008152602001600073ffffffffffffffffffffffffffffffffffffffff1681525090565b5b80821115612e07576000816000905550600101612def565b5090565b6000612e1e612e1984613d75565b613d50565b905082815260208101848484011115612e3657600080fd5b612e41848285613f74565b509392505050565b6000612e5c612e5784613da6565b613d50565b905082815260208101848484011115612e7457600080fd5b612e7f848285613f74565b509392505050565b600081359050612e968161473e565b92915050565b600081359050612eab81614755565b92915050565b600081359050612ec08161476c565b92915050565b600081519050612ed58161476c565b92915050565b600081359050612eea81614783565b92915050565b600081519050612eff81614783565b92915050565b600082601f830112612f1657600080fd5b8135612f26848260208601612e0b565b91505092915050565b600082601f830112612f4057600080fd5b8135612f50848260208601612e49565b91505092915050565b600081359050612f688161479a565b92915050565b600060208284031215612f8057600080fd5b6000612f8e84828501612e87565b91505092915050565b600060208284031215612fa957600080fd5b6000612fb784828501612e9c565b91505092915050565b60008060408385031215612fd357600080fd5b6000612fe185828601612e87565b9250506020612ff285828601612e87565b9150509250929050565b60008060006060848603121561301157600080fd5b600061301f86828701612e87565b935050602061303086828701612e87565b925050604061304186828701612f59565b9150509250925092565b6000806000806080858703121561306157600080fd5b600061306f87828801612e87565b945050602061308087828801612e87565b935050604061309187828801612f59565b925050606085013567ffffffffffffffff8111156130ae57600080fd5b6130ba87828801612f05565b91505092959194509250565b600080604083850312156130d957600080fd5b60006130e785828601612e87565b92505060206130f885828601612eb1565b9150509250929050565b6000806040838503121561311557600080fd5b600061312385828601612e87565b925050602061313485828601612f59565b9150509250929050565b60006020828403121561315057600080fd5b600061315e84828501612ec6565b91505092915050565b60006020828403121561317957600080fd5b600061318784828501612edb565b91505092915050565b6000602082840312156131a257600080fd5b60006131b084828501612ef0565b91505092915050565b6000602082840312156131cb57600080fd5b600082013567ffffffffffffffff8111156131e557600080fd5b6131f184828501612f2f565b91505092915050565b60006020828403121561320c57600080fd5b600061321a84828501612f59565b91505092915050565b60008060006060848603121561323857600080fd5b600061324686828701612f59565b935050602084013567ffffffffffffffff81111561326357600080fd5b61326f86828701612f2f565b925050604061328086828701612f59565b9150509250925092565b6000806040838503121561329d57600080fd5b60006132ab85828601612f59565b92505060206132bc85828601612f59565b9150509250929050565b6000806000606084860312156132db57600080fd5b60006132e986828701612f59565b93505060206132fa86828701612f59565b925050604061330b86828701612f59565b9150509250925092565b60006133218383613872565b60208301905092915050565b61333681613eee565b82525050565b61334581613eee565b82525050565b600061335682613de7565b6133608185613e15565b935061336b83613dd7565b8060005b8381101561339c5781516133838882613315565b975061338e83613e08565b92505060018101905061336f565b5085935050505092915050565b6133b281613f12565b82525050565b60006133c382613df2565b6133cd8185613e26565b93506133dd818560208601613f83565b6133e6816140ef565b840191505092915050565b60006133fc82613dfd565b6134068185613e37565b9350613416818560208601613f83565b61341f816140ef565b840191505092915050565b600061343582613dfd565b61343f8185613e48565b935061344f818560208601613f83565b613458816140ef565b840191505092915050565b600061346e82613dfd565b6134788185613e59565b9350613488818560208601613f83565b80840191505092915050565b60006134a1602d83613e48565b91506134ac82614100565b604082019050919050565b60006134c4600f83613e48565b91506134cf8261414f565b602082019050919050565b60006134e7602c83613e48565b91506134f282614178565b604082019050919050565b600061350a603283613e48565b9150613515826141c7565b604082019050919050565b600061352d602083613e48565b915061353882614216565b602082019050919050565b6000613550602683613e48565b915061355b8261423f565b604082019050919050565b6000613573602583613e48565b915061357e8261428e565b604082019050919050565b6000613596601c83613e48565b91506135a1826142dd565b602082019050919050565b60006135b9601983613e48565b91506135c482614306565b602082019050919050565b60006135dc601f83613e48565b91506135e78261432f565b602082019050919050565b60006135ff602483613e48565b915061360a82614358565b604082019050919050565b6000613622601983613e48565b915061362d826143a7565b602082019050919050565b6000613645602783613e48565b9150613650826143d0565b604082019050919050565b6000613668601783613e48565b91506136738261441f565b602082019050919050565b600061368b602283613e48565b915061369682614448565b604082019050919050565b60006136ae602983613e48565b91506136b982614497565b604082019050919050565b60006136d1602e83613e48565b91506136dc826144e6565b604082019050919050565b60006136f4601383613e48565b91506136ff82614535565b602082019050919050565b6000613717601f83613e48565b91506137228261455e565b602082019050919050565b600061373a602083613e48565b915061374582614587565b602082019050919050565b600061375d602083613e48565b9150613768826145b0565b602082019050919050565b6000613780602883613e48565b915061378b826145d9565b604082019050919050565b60006137a3601883613e48565b91506137ae82614628565b602082019050919050565b60006137c6602183613e48565b91506137d182614651565b604082019050919050565b60006137e9603d83613e48565b91506137f4826146a0565b604082019050919050565b600061380c603183613e48565b9150613817826146ef565b604082019050919050565b6000606083016000830151848203600086015261383f82826133f1565b91505060208301516138546020860182613872565b506040830151613867604086018261332d565b508091505092915050565b61387b81613f6a565b82525050565b61388a81613f6a565b82525050565b600061389c8285613463565b91506138a88284613463565b91508190509392505050565b60006020820190506138c9600083018461333c565b92915050565b60006080820190506138e4600083018761333c565b6138f1602083018661333c565b6138fe6040830185613881565b818103606083015261391081846133b8565b905095945050505050565b60006020820190508181036000830152613935818461334b565b905092915050565b600060208201905061395260008301846133a9565b92915050565b60006020820190508181036000830152613972818461342a565b905092915050565b6000602082019050818103600083015261399381613494565b9050919050565b600060208201905081810360008301526139b3816134b7565b9050919050565b600060208201905081810360008301526139d3816134da565b9050919050565b600060208201905081810360008301526139f3816134fd565b9050919050565b60006020820190508181036000830152613a1381613520565b9050919050565b60006020820190508181036000830152613a3381613543565b9050919050565b60006020820190508181036000830152613a5381613566565b9050919050565b60006020820190508181036000830152613a7381613589565b9050919050565b60006020820190508181036000830152613a93816135ac565b9050919050565b60006020820190508181036000830152613ab3816135cf565b9050919050565b60006020820190508181036000830152613ad3816135f2565b9050919050565b60006020820190508181036000830152613af381613615565b9050919050565b60006020820190508181036000830152613b1381613638565b9050919050565b60006020820190508181036000830152613b338161365b565b9050919050565b60006020820190508181036000830152613b538161367e565b9050919050565b60006020820190508181036000830152613b73816136a1565b9050919050565b60006020820190508181036000830152613b93816136c4565b9050919050565b60006020820190508181036000830152613bb3816136e7565b9050919050565b60006020820190508181036000830152613bd38161370a565b9050919050565b60006020820190508181036000830152613bf38161372d565b9050919050565b60006020820190508181036000830152613c1381613750565b9050919050565b60006020820190508181036000830152613c3381613773565b9050919050565b60006020820190508181036000830152613c5381613796565b9050919050565b60006020820190508181036000830152613c73816137b9565b9050919050565b60006020820190508181036000830152613c93816137dc565b9050919050565b60006020820190508181036000830152613cb3816137ff565b9050919050565b60006020820190508181036000830152613cd48184613822565b905092915050565b6000602082019050613cf16000830184613881565b92915050565b6000604082019050613d0c6000830185613881565b8181036020830152613d1e818461342a565b90509392505050565b6000604082019050613d3c6000830185613881565b613d496020830184613881565b9392505050565b6000613d5a613d6b565b9050613d668282613fe8565b919050565b6000604051905090565b600067ffffffffffffffff821115613d9057613d8f6140c0565b5b613d99826140ef565b9050602081019050919050565b600067ffffffffffffffff821115613dc157613dc06140c0565b5b613dca826140ef565b9050602081019050919050565b6000819050602082019050919050565b600081519050919050565b600081519050919050565b600081519050919050565b6000602082019050919050565b600082825260208201905092915050565b600082825260208201905092915050565b600082825260208201905092915050565b600082825260208201905092915050565b600081905092915050565b6000613e6f82613f6a565b9150613e7a83613f6a565b9250827fffffffffffffffffffffffffffffffffffffffffffffffffffffffffffffffff03821115613eaf57613eae614062565b5b828201905092915050565b6000613ec582613f6a565b9150613ed083613f6a565b925082821015613ee357613ee2614062565b5b828203905092915050565b6000613ef982613f4a565b9050919050565b6000613f0b82613f4a565b9050919050565b60008115159050919050565b60007fffffffff0000000000000000000000000000000000000000000000000000000082169050919050565b600073ffffffffffffffffffffffffffffffffffffffff82169050919050565b6000819050919050565b82818337600083830152505050565b60005b83811015613fa1578082015181840152602081019050613f86565b83811115613fb0576000848401525b50505050565b60006002820490506001821680613fce57607f821691505b60208210811415613fe257613fe1614091565b5b50919050565b613ff1826140ef565b810181811067ffffffffffffffff821117156140105761400f6140c0565b5b80604052505050565b600061402482613f6a565b91507fffffffffffffffffffffffffffffffffffffffffffffffffffffffffffffffff82141561405757614056614062565b5b600182019050919050565b7f4e487b7100000000000000000000000000000000000000000000000000000000600052601160045260246000fd5b7f4e487b7100000000000000000000000000000000000000000000000000000000600052602260045260246000fd5b7f4e487b7100000000000000000000000000000000000000000000000000000000600052604160045260246000fd5b6000601f19601f8301169050919050565b7f4552433732313a2063616c6c6572206973206e6f7420746f6b656e206f776e6560008201527f72206f7220617070726f76656400000000000000000000000000000000000000602082015250565b7f496e76616c696420616464726573730000000000000000000000000000000000600082015250565b7f4d7573742077616974206265666f7265206372656174696e6720616e6f74686560008201527f7220636f6c6c656374696f6e0000000000000000000000000000000000000000602082015250565b7f4552433732313a207472616e7366657220746f206e6f6e20455243373231526560008201527f63656976657220696d706c656d656e7465720000000000000000000000000000602082015250565b7f5072696365206d757374206265206174206c65617374204d494e5f5052494345600082015250565b7f4f776e61626c653a206e6577206f776e657220697320746865207a65726f206160008201527f6464726573730000000000000000000000000000000000000000000000000000602082015250565b7f4552433732313a207472616e736665722066726f6d20696e636f72726563742060008201527f6f776e6572000000000000000000000000000000000000000000000000000000602082015250565b7f4552433732313a20746f6b656e20616c7265616479206d696e74656400000000600082015250565b7f436f6c6c656374696f6e20646f6573206e6f7420657869737400000000000000600082015250565b7f4e6f7420746865206f776e6572206f662074686520636f6c6c656374696f6e00600082015250565b7f4552433732313a207472616e7366657220746f20746865207a65726f2061646460008201527f7265737300000000000000000000000000000000000000000000000000000000602082015250565b7f4552433732313a20617070726f766520746f2063616c6c657200000000000000600082015250565b7f546f6b656e20646f6573206e6f742062656c6f6e6720746f20616e7920636f6c60008201527f6c656374696f6e00000000000000000000000000000000000000000000000000602082015250565b7f4d617820636f6c6c656374696f6e732072656163686564000000000000000000600082015250565b7f546f6b656e2069732063757272656e746c79206c697374656420666f7220736160008201527f6c65000000000000000000000000000000000000000000000000000000000000602082015250565b7f4552433732313a2061646472657373207a65726f206973206e6f74206120766160008201527f6c6964206f776e65720000000000000000000000000000000000000000000000602082015250565b7f45524337323155524953746f726167653a2055524920736574206f66206e6f6e60008201527f6578697374656e7420746f6b656e000000000000000000000000000000000000602082015250565b7f496e76616c696420737461727420696e64657800000000000000000000000000600082015250565b7f5072696365206d757374206e6f7420657863656564204d41585f505249434500600082015250565b7f4552433732313a206d696e7420746f20746865207a65726f2061646472657373600082015250565b7f4f776e61626c653a2063616c6c6572206973206e6f7420746865206f776e6572600082015250565b7f4d61726b6574706c61636520616464726573732068617320616c72656164792060008201527f6265656e20736574000000000000000000000000000000000000000000000000602082015250565b7f4552433732313a20696e76616c696420746f6b656e2049440000000000000000600082015250565b7f4552433732313a20617070726f76616c20746f2063757272656e74206f776e6560008201527f7200000000000000000000000000000000000000000000000000000000000000602082015250565b7f4552433732313a20617070726f76652063616c6c6572206973206e6f7420746f60008201527f6b656e206f776e6572206f7220617070726f76656420666f7220616c6c000000602082015250565b7f4552433732313a207472616e736665722063616c6c6572206973206e6f74206f60008201527f776e6572206e6f7220617070726f766564000000000000000000000000000000602082015250565b61474781613eee565b811461475257600080fd5b50565b61475e81613f00565b811461476957600080fd5b50565b61477581613f12565b811461478057600080fd5b50565b61478c81613f1e565b811461479757600080fd5b50565b6147a381613f6a565b81146147ae57600080fd5b5056fea2646970667358221220805fc33aa222dd78c863cecf737157591025cf924ca93bf520a2f17f444a4ce764736f6c63430008010033",
  "linkReferences": {},
  "deployedLinkReferences": {}
}