{
  "_format": "hh-sol-artifact-1",
  "contractName": "ERC721Collections",
  "sourceName": "contracts/ERC721Collections.sol",
  "abi": [
    {
      "inputs": [
        {
          "internalType": "string",
          "name": "publicCollectionURI",
          "type": "string"
        }
      ],
      "stateMutability": "nonpayable",
      "type": "constructor"
    },
    {
      "anonymous": false,
      "inputs": [
        {
          "indexed": true,
          "internalType": "address",
          "name": "owner",
          "type": "address"
        },
        {
          "indexed": true,
          "internalType": "address",
          "name": "approved",
          "type": "address"
        },
        {
          "indexed": true,
          "internalType": "uint256",
          "name": "tokenId",
          "type": "uint256"
        }
      ],
      "name": "Approval",
      "type": "event"
    },
    {
      "anonymous": false,
      "inputs": [
        {
          "indexed": true,
          "internalType": "address",
          "name": "owner",
          "type": "address"
        },
        {
          "indexed": true,
          "internalType": "address",
          "name": "operator",
          "type": "address"
        },
        {
          "indexed": false,
          "internalType": "bool",
          "name": "approved",
          "type": "bool"
        }
      ],
      "name": "ApprovalForAll",
      "type": "event"
    },
    {
      "anonymous": false,
      "inputs": [
        {
          "indexed": false,
          "internalType": "uint256",
          "name": "_fromTokenId",
          "type": "uint256"
        },
        {
          "indexed": false,
          "internalType": "uint256",
          "name": "_toTokenId",
          "type": "uint256"
        }
      ],
      "name": "BatchMetadataUpdate",
      "type": "event"
    },
    {
      "anonymous": false,
      "inputs": [
        {
          "indexed": false,
          "internalType": "uint256",
          "name": "id",
          "type": "uint256"
        },
        {
          "indexed": false,
          "internalType": "string",
          "name": "uri",
          "type": "string"
        }
      ],
      "name": "CollectionCreated",
      "type": "event"
    },
    {
      "anonymous": false,
      "inputs": [
        {
          "indexed": false,
          "internalType": "uint256",
          "name": "_tokenId",
          "type": "uint256"
        }
      ],
      "name": "MetadataUpdate",
      "type": "event"
    },
    {
      "anonymous": false,
      "inputs": [
        {
          "indexed": true,
          "internalType": "address",
          "name": "previousOwner",
          "type": "address"
        },
        {
          "indexed": true,
          "internalType": "address",
          "name": "newOwner",
          "type": "address"
        }
      ],
      "name": "OwnershipTransferred",
      "type": "event"
    },
    {
      "anonymous": false,
      "inputs": [
        {
          "indexed": false,
          "internalType": "uint256",
          "name": "tokenId",
          "type": "uint256"
        },
        {
          "indexed": false,
          "internalType": "uint256",
          "name": "price",
          "type": "uint256"
        }
      ],
      "name": "PriceSet",
      "type": "event"
    },
    {
      "anonymous": false,
      "inputs": [
        {
          "indexed": false,
          "internalType": "uint256",
          "name": "tokenId",
          "type": "uint256"
        },
        {
          "indexed": false,
          "internalType": "uint256",
          "name": "collectionId",
          "type": "uint256"
        }
      ],
      "name": "TokenMinted",
      "type": "event"
    },
    {
      "anonymous": false,
      "inputs": [
        {
          "indexed": true,
          "internalType": "address",
          "name": "from",
          "type": "address"
        },
        {
          "indexed": true,
          "internalType": "address",
          "name": "to",
          "type": "address"
        },
        {
          "indexed": true,
          "internalType": "uint256",
          "name": "tokenId",
          "type": "uint256"
        }
      ],
      "name": "Transfer",
      "type": "event"
    },
    {
      "inputs": [],
      "name": "MAX_PRICE",
      "outputs": [
        {
          "internalType": "uint256",
          "name": "",
          "type": "uint256"
        }
      ],
      "stateMutability": "view",
      "type": "function"
    },
    {
      "inputs": [],
      "name": "MIN_PRICE",
      "outputs": [
        {
          "internalType": "uint256",
          "name": "",
          "type": "uint256"
        }
      ],
      "stateMutability": "view",
      "type": "function"
    },
    {
      "inputs": [
        {
          "internalType": "address",
          "name": "to",
          "type": "address"
        },
        {
          "internalType": "uint256",
          "name": "tokenId",
          "type": "uint256"
        }
      ],
      "name": "approve",
      "outputs": [],
      "stateMutability": "nonpayable",
      "type": "function"
    },
    {
      "inputs": [
        {
          "internalType": "address",
          "name": "owner",
          "type": "address"
        }
      ],
      "name": "balanceOf",
      "outputs": [
        {
          "internalType": "uint256",
          "name": "",
          "type": "uint256"
        }
      ],
      "stateMutability": "view",
      "type": "function"
    },
    {
      "inputs": [
        {
          "internalType": "address",
          "name": "",
          "type": "address"
        }
      ],
      "name": "collectionsCreated",
      "outputs": [
        {
          "internalType": "uint256",
          "name": "",
          "type": "uint256"
        }
      ],
      "stateMutability": "view",
      "type": "function"
    },
    {
      "inputs": [
        {
          "internalType": "string",
          "name": "uri",
          "type": "string"
        }
      ],
      "name": "createCollection",
      "outputs": [
        {
          "internalType": "uint256",
          "name": "",
          "type": "uint256"
        }
      ],
      "stateMutability": "nonpayable",
      "type": "function"
    },
    {
      "inputs": [
        {
          "internalType": "uint256",
          "name": "tokenId",
          "type": "uint256"
        }
      ],
      "name": "getApproved",
      "outputs": [
        {
          "internalType": "address",
          "name": "",
          "type": "address"
        }
      ],
      "stateMutability": "view",
      "type": "function"
    },
    {
      "inputs": [
        {
          "internalType": "uint256",
          "name": "id",
          "type": "uint256"
        }
      ],
      "name": "getCollection",
      "outputs": [
        {
          "components": [
            {
              "internalType": "string",
              "name": "uri",
              "type": "string"
            },
            {
              "internalType": "uint256",
              "name": "id",
              "type": "uint256"
            },
            {
              "internalType": "address",
              "name": "owner",
              "type": "address"
            }
          ],
          "internalType": "struct ERC721Collections.Collection",
          "name": "",
          "type": "tuple"
        }
      ],
      "stateMutability": "view",
      "type": "function"
    },
    {
      "inputs": [
        {
          "internalType": "uint256",
          "name": "tokenId",
          "type": "uint256"
        }
      ],
      "name": "getCollectionOfToken",
      "outputs": [
        {
          "components": [
            {
              "internalType": "string",
              "name": "uri",
              "type": "string"
            },
            {
              "internalType": "uint256",
              "name": "id",
              "type": "uint256"
            },
            {
              "internalType": "address",
              "name": "owner",
              "type": "address"
            }
          ],
          "internalType": "struct ERC721Collections.Collection",
          "name": "",
          "type": "tuple"
        }
      ],
      "stateMutability": "view",
      "type": "function"
    },
    {
      "inputs": [
        {
          "internalType": "uint256",
          "name": "collectionId",
          "type": "uint256"
        },
        {
          "internalType": "uint256",
          "name": "startIndex",
          "type": "uint256"
        },
        {
          "internalType": "uint256",
          "name": "pageSize",
          "type": "uint256"
        }
      ],
      "name": "getNFTsInCollection",
      "outputs": [
        {
          "internalType": "uint256[]",
          "name": "",
          "type": "uint256[]"
        }
      ],
      "stateMutability": "view",
      "type": "function"
    },
    {
      "inputs": [
        {
          "internalType": "uint256",
          "name": "tokenId",
          "type": "uint256"
        }
      ],
      "name": "getPrice",
      "outputs": [
        {
          "internalType": "uint256",
          "name": "",
          "type": "uint256"
        }
      ],
      "stateMutability": "view",
      "type": "function"
    },
    {
      "inputs": [
        {
          "internalType": "address",
          "name": "owner",
          "type": "address"
        },
        {
          "internalType": "address",
          "name": "operator",
          "type": "address"
        }
      ],
      "name": "isApprovedForAll",
      "outputs": [
        {
          "internalType": "bool",
          "name": "",
          "type": "bool"
        }
      ],
      "stateMutability": "view",
      "type": "function"
    },
    {
      "inputs": [
        {
          "internalType": "address",
          "name": "",
          "type": "address"
        }
      ],
      "name": "lastCollectionTimestamp",
      "outputs": [
        {
          "internalType": "uint256",
          "name": "",
          "type": "uint256"
        }
      ],
      "stateMutability": "view",
      "type": "function"
    },
    {
      "inputs": [
        {
          "internalType": "uint256",
          "name": "collectionId",
          "type": "uint256"
        },
        {
          "internalType": "string",
          "name": "tokenURI",
          "type": "string"
        },
        {
          "internalType": "uint256",
          "name": "price",
          "type": "uint256"
        },
        {
          "internalType": "address",
          "name": "to",
          "type": "address"
        }
      ],
      "name": "lazyMint",
      "outputs": [
        {
          "internalType": "uint256",
          "name": "",
          "type": "uint256"
        }
      ],
      "stateMutability": "nonpayable",
      "type": "function"
    },
    {
      "inputs": [
        {
          "internalType": "uint256",
          "name": "collectionId",
          "type": "uint256"
        },
        {
          "internalType": "string",
          "name": "tokenURI",
          "type": "string"
        },
        {
          "internalType": "uint256",
          "name": "price",
          "type": "uint256"
        }
      ],
      "name": "mint",
      "outputs": [
        {
          "internalType": "uint256",
          "name": "",
          "type": "uint256"
        }
      ],
      "stateMutability": "nonpayable",
      "type": "function"
    },
    {
      "inputs": [],
      "name": "name",
      "outputs": [
        {
          "internalType": "string",
          "name": "",
          "type": "string"
        }
      ],
      "stateMutability": "view",
      "type": "function"
    },
    {
      "inputs": [],
      "name": "owner",
      "outputs": [
        {
          "internalType": "address",
          "name": "",
          "type": "address"
        }
      ],
      "stateMutability": "view",
      "type": "function"
    },
    {
      "inputs": [
        {
          "internalType": "uint256",
          "name": "tokenId",
          "type": "uint256"
        }
      ],
      "name": "ownerOf",
      "outputs": [
        {
          "internalType": "address",
          "name": "",
          "type": "address"
        }
      ],
      "stateMutability": "view",
      "type": "function"
    },
    {
      "inputs": [],
      "name": "renounceOwnership",
      "outputs": [],
      "stateMutability": "nonpayable",
      "type": "function"
    },
    {
      "inputs": [
        {
          "internalType": "address",
          "name": "from",
          "type": "address"
        },
        {
          "internalType": "address",
          "name": "to",
          "type": "address"
        },
        {
          "internalType": "uint256",
          "name": "tokenId",
          "type": "uint256"
        }
      ],
      "name": "safeTransferFrom",
      "outputs": [],
      "stateMutability": "nonpayable",
      "type": "function"
    },
    {
      "inputs": [
        {
          "internalType": "address",
          "name": "from",
          "type": "address"
        },
        {
          "internalType": "address",
          "name": "to",
          "type": "address"
        },
        {
          "internalType": "uint256",
          "name": "tokenId",
          "type": "uint256"
        },
        {
          "internalType": "bytes",
          "name": "data",
          "type": "bytes"
        }
      ],
      "name": "safeTransferFrom",
      "outputs": [],
      "stateMutability": "nonpayable",
      "type": "function"
    },
    {
      "inputs": [
        {
          "internalType": "address",
          "name": "operator",
          "type": "address"
        },
        {
          "internalType": "bool",
          "name": "approved",
          "type": "bool"
        }
      ],
      "name": "setApprovalForAll",
      "outputs": [],
      "stateMutability": "nonpayable",
      "type": "function"
    },
    {
      "inputs": [
        {
          "internalType": "address payable",
          "name": "marketplaceAddress",
          "type": "address"
        }
      ],
      "name": "setMarketplace",
      "outputs": [],
      "stateMutability": "nonpayable",
      "type": "function"
    },
    {
      "inputs": [
        {
          "internalType": "uint256",
          "name": "tokenId",
          "type": "uint256"
        },
        {
          "internalType": "uint256",
          "name": "price",
          "type": "uint256"
        }
      ],
      "name": "setPrice",
      "outputs": [
        {
          "internalType": "uint256",
          "name": "",
          "type": "uint256"
        }
      ],
      "stateMutability": "nonpayable",
      "type": "function"
    },
    {
      "inputs": [
        {
          "internalType": "bytes4",
          "name": "interfaceId",
          "type": "bytes4"
        }
      ],
      "name": "supportsInterface",
      "outputs": [
        {
          "internalType": "bool",
          "name": "",
          "type": "bool"
        }
      ],
      "stateMutability": "view",
      "type": "function"
    },
    {
      "inputs": [],
      "name": "symbol",
      "outputs": [
        {
          "internalType": "string",
          "name": "",
          "type": "string"
        }
      ],
      "stateMutability": "view",
      "type": "function"
    },
    {
      "inputs": [
        {
          "internalType": "uint256",
          "name": "tokenId",
          "type": "uint256"
        }
      ],
      "name": "tokenURI",
      "outputs": [
        {
          "internalType": "string",
          "name": "",
          "type": "string"
        }
      ],
      "stateMutability": "view",
      "type": "function"
    },
    {
      "inputs": [
        {
          "internalType": "address",
          "name": "from",
          "type": "address"
        },
        {
          "internalType": "address",
          "name": "to",
          "type": "address"
        },
        {
          "internalType": "uint256",
          "name": "tokenId",
          "type": "uint256"
        }
      ],
      "name": "transferFrom",
      "outputs": [],
      "stateMutability": "nonpayable",
      "type": "function"
    },
    {
      "inputs": [
        {
          "internalType": "address",
          "name": "newOwner",
          "type": "address"
        }
      ],
      "name": "transferOwnership",
      "outputs": [],
      "stateMutability": "nonpayable",
      "type": "function"
    }
  ],
  "bytecode": "0x60806040523480156200001157600080fd5b50604051620056c0380380620056c0833981810160405281019062000037919062000643565b6040518060400160405280601181526020017f455243373231436f6c6c656374696f6e730000000000000000000000000000008152506040518060400160405280600381526020017f53545200000000000000000000000000000000000000000000000000000000008152508160009080519060200190620000bb92919062000521565b508060019080519060200190620000d492919062000521565b505050620000f7620000eb6200011060201b60201c565b6200011860201b60201c565b6200010881620001de60201b60201c565b505062000a88565b600033905090565b6000600760009054906101000a900473ffffffffffffffffffffffffffffffffffffffff16905081600760006101000a81548173ffffffffffffffffffffffffffffffffffffffff021916908373ffffffffffffffffffffffffffffffffffffffff1602179055508173ffffffffffffffffffffffffffffffffffffffff168173ffffffffffffffffffffffffffffffffffffffff167f8be0079c531659141344cd1fd0a4f28419497f9722a3daafe3b4186f6b6457e060405160405180910390a35050565b60006103e7600f60003373ffffffffffffffffffffffffffffffffffffffff1673ffffffffffffffffffffffffffffffffffffffff168152602001908152602001600020541062000266576040517f08c379a00000000000000000000000000000000000000000000000000000000081526004016200025d906200074a565b60405180910390fd5b42603c601060003373ffffffffffffffffffffffffffffffffffffffff1673ffffffffffffffffffffffffffffffffffffffff16815260200190815260200160002054620002b591906200081b565b1115620002f9576040517f08c379a0000000000000000000000000000000000000000000000000000000008152600401620002f09062000728565b60405180910390fd5b620003106009620004fd60201b62001e201760201c565b60405180606001604052808381526020016200033860096200051360201b62001e361760201c565b81526020013373ffffffffffffffffffffffffffffffffffffffff16815250600b60006200037260096200051360201b62001e361760201c565b815260200190815260200160002060008201518160000190805190602001906200039e92919062000521565b506020820151816001015560408201518160020160006101000a81548173ffffffffffffffffffffffffffffffffffffffff021916908373ffffffffffffffffffffffffffffffffffffffff160217905550905050600f60003373ffffffffffffffffffffffffffffffffffffffff1673ffffffffffffffffffffffffffffffffffffffff1681526020019081526020016000206000815480929190620004459062000924565b919050555042601060003373ffffffffffffffffffffffffffffffffffffffff1673ffffffffffffffffffffffffffffffffffffffff168152602001908152602001600020819055507f62b7b5ba11bfc95430fab0460fdf99b9c8fbc2b3a6a48caf79c3ee1b591c0336620004c660096200051360201b62001e361760201c565b83604051620004d79291906200076c565b60405180910390a1620004f660096200051360201b62001e361760201c565b9050919050565b6001816000016000828254019250508190555050565b600081600001549050919050565b8280546200052f90620008b8565b90600052602060002090601f0160209004810192826200055357600085556200059f565b82601f106200056e57805160ff19168380011785556200059f565b828001600101855582156200059f579182015b828111156200059e57825182559160200191906001019062000581565b5b509050620005ae9190620005b2565b5090565b5b80821115620005cd576000816000905550600101620005b3565b5090565b6000620005e8620005e284620007c9565b620007a0565b9050828152602081018484840111156200060157600080fd5b6200060e84828562000882565b509392505050565b600082601f8301126200062857600080fd5b81516200063a848260208601620005d1565b91505092915050565b6000602082840312156200065657600080fd5b600082015167ffffffffffffffff8111156200067157600080fd5b6200067f8482850162000616565b91505092915050565b60006200069582620007ff565b620006a181856200080a565b9350620006b381856020860162000882565b620006be81620009ff565b840191505092915050565b6000620006d8602c836200080a565b9150620006e58262000a10565b604082019050919050565b6000620006ff6017836200080a565b91506200070c8262000a5f565b602082019050919050565b620007228162000878565b82525050565b600060208201905081810360008301526200074381620006c9565b9050919050565b600060208201905081810360008301526200076581620006f0565b9050919050565b600060408201905062000783600083018562000717565b818103602083015262000797818462000688565b90509392505050565b6000620007ac620007bf565b9050620007ba8282620008ee565b919050565b6000604051905090565b600067ffffffffffffffff821115620007e757620007e6620009d0565b5b620007f282620009ff565b9050602081019050919050565b600081519050919050565b600082825260208201905092915050565b6000620008288262000878565b9150620008358362000878565b9250827fffffffffffffffffffffffffffffffffffffffffffffffffffffffffffffffff038211156200086d576200086c62000972565b5b828201905092915050565b6000819050919050565b60005b83811015620008a257808201518184015260208101905062000885565b83811115620008b2576000848401525b50505050565b60006002820490506001821680620008d157607f821691505b60208210811415620008e857620008e7620009a1565b5b50919050565b620008f982620009ff565b810181811067ffffffffffffffff821117156200091b576200091a620009d0565b5b80604052505050565b6000620009318262000878565b91507fffffffffffffffffffffffffffffffffffffffffffffffffffffffffffffffff82141562000967576200096662000972565b5b600182019050919050565b7f4e487b7100000000000000000000000000000000000000000000000000000000600052601160045260246000fd5b7f4e487b7100000000000000000000000000000000000000000000000000000000600052602260045260246000fd5b7f4e487b7100000000000000000000000000000000000000000000000000000000600052604160045260246000fd5b6000601f19601f8301169050919050565b7f4d7573742077616974206265666f7265206372656174696e6720616e6f74686560008201527f7220636f6c6c656374696f6e0000000000000000000000000000000000000000602082015250565b7f4d617820636f6c6c656374696f6e732072656163686564000000000000000000600082015250565b614c288062000a986000396000f3fe608060405234801561001057600080fd5b50600436106101cf5760003560e01c80638da5cb5b11610104578063bd6fbad9116100a2578063e757223011610071578063e75722301461058c578063e985e9c5146105bc578063f2fde38b146105ec578063f7d9757714610608576101cf565b8063bd6fbad9146104cc578063c87b56dd146104fc578063d08b28ea1461052c578063da0277fd1461055c576101cf565b8063acca6b31116100de578063acca6b3114610432578063ad9f20a614610462578063b41a6e3414610480578063b88d4fde146104b0576101cf565b80638da5cb5b146103da57806395d89b41146103f8578063a22cb46514610416576101cf565b806342842e0e1161017157806370a082311161014b57806370a0823114610354578063715018a61461038457806373ad6c2d1461038e57806382a17cdb146103aa576101cf565b806342842e0e146102d85780635a1f3c28146102f45780636352211e14610324576101cf565b806306fdde03116101ad57806306fdde0314610252578063081812fc14610270578063095ea7b3146102a057806323b872dd146102bc576101cf565b806301c11d96146101d457806301ffc9a7146101f2578063059dfe1314610222575b600080fd5b6101dc610638565b6040516101e991906140cb565b60405180910390f35b61020c60048036038101906102079190613455565b610646565b6040516102199190613cec565b60405180910390f35b61023c600480360381019061023791906134a7565b6106a7565b60405161024991906140cb565b60405180910390f35b61025a610977565b6040516102679190613d07565b60405180910390f35b61028a600480360381019061028591906134e8565b610a09565b6040516102979190613c63565b60405180910390f35b6102ba60048036038101906102b591906133f0565b610a4f565b005b6102d660048036038101906102d191906132ea565b610b67565b005b6102f260048036038101906102ed91906132ea565b610bc7565b005b61030e600480360381019061030991906134e8565b610be7565b60405161031b91906140a9565b60405180910390f35b61033e600480360381019061033991906134e8565b610d06565b60405161034b9190613c63565b60405180910390f35b61036e6004803603810190610369919061325c565b610d8d565b60405161037b91906140cb565b60405180910390f35b61038c610e45565b005b6103a860048036038101906103a39190613285565b610e59565b005b6103c460048036038101906103bf919061325c565b610fa6565b6040516103d191906140cb565b60405180910390f35b6103e2610fbe565b6040516103ef9190613c63565b60405180910390f35b610400610fe8565b60405161040d9190613d07565b60405180910390f35b610430600480360381019061042b91906133b4565b61107a565b005b61044c60048036038101906104479190613511565b611090565b60405161045991906140cb565b60405180910390f35b61046a61130c565b60405161047791906140cb565b60405180910390f35b61049a60048036038101906104959190613578565b611317565b6040516104a791906140cb565b60405180910390f35b6104ca60048036038101906104c59190613339565b611575565b005b6104e660048036038101906104e1919061325c565b6115d7565b6040516104f391906140cb565b60405180910390f35b610516600480360381019061051191906134e8565b6115ef565b6040516105239190613d07565b60405180910390f35b6105466004803603810190610541919061362f565b611702565b6040516105539190613cca565b60405180910390f35b610576600480360381019061057191906134e8565b61191b565b60405161058391906140a9565b60405180910390f35b6105a660048036038101906105a191906134e8565b611aaa565b6040516105b391906140cb565b60405180910390f35b6105d660048036038101906105d191906132ae565b611ac7565b6040516105e39190613cec565b60405180910390f35b6106066004803603810190610601919061325c565b611b5b565b005b610622600480360381019061061d91906135f3565b611bdf565b60405161062f91906140cb565b60405180910390f35b69021e19e0c9bab240000081565b6000634906490660e01b7bffffffffffffffffffffffffffffffffffffffffffffffffffffffff1916827bffffffffffffffffffffffffffffffffffffffffffffffffffffffff191614806106a0575061069f82611e44565b5b9050919050565b60006103e7600f60003373ffffffffffffffffffffffffffffffffffffffff1673ffffffffffffffffffffffffffffffffffffffff168152602001908152602001600020541061072c576040517f08c379a000000000000000000000000000000000000000000000000000000000815260040161072390613ee9565b60405180910390fd5b42603c601060003373ffffffffffffffffffffffffffffffffffffffff1673ffffffffffffffffffffffffffffffffffffffff168152602001908152602001600020546107799190614253565b11156107ba576040517f08c379a00000000000000000000000000000000000000000000000000000000081526004016107b190613d69565b60405180910390fd5b6107c46009611e20565b60405180606001604052808381526020016107df6009611e36565b81526020013373ffffffffffffffffffffffffffffffffffffffff16815250600b600061080c6009611e36565b8152602001908152602001600020600082015181600001908051906020019061083692919061301f565b506020820151816001015560408201518160020160006101000a81548173ffffffffffffffffffffffffffffffffffffffff021916908373ffffffffffffffffffffffffffffffffffffffff160217905550905050600f60003373ffffffffffffffffffffffffffffffffffffffff1673ffffffffffffffffffffffffffffffffffffffff16815260200190815260200160002060008154809291906108db90614408565b919050555042601060003373ffffffffffffffffffffffffffffffffffffffff1673ffffffffffffffffffffffffffffffffffffffff168152602001908152602001600020819055507f62b7b5ba11bfc95430fab0460fdf99b9c8fbc2b3a6a48caf79c3ee1b591c033661094f6009611e36565b8360405161095e9291906140e6565b60405180910390a16109706009611e36565b9050919050565b606060008054610986906143a5565b80601f01602080910402602001604051908101604052809291908181526020018280546109b2906143a5565b80156109ff5780601f106109d4576101008083540402835291602001916109ff565b820191906000526020600020905b8154815290600101906020018083116109e257829003601f168201915b5050505050905090565b6000610a1482611f26565b6004600083815260200190815260200160002060009054906101000a900473ffffffffffffffffffffffffffffffffffffffff169050919050565b6000610a5a82610d06565b90508073ffffffffffffffffffffffffffffffffffffffff168373ffffffffffffffffffffffffffffffffffffffff161415610acb576040517f08c379a0000000000000000000000000000000000000000000000000000000008152600401610ac290614029565b60405180910390fd5b8073ffffffffffffffffffffffffffffffffffffffff16610aea611f71565b73ffffffffffffffffffffffffffffffffffffffff161480610b195750610b1881610b13611f71565b611ac7565b5b610b58576040517f08c379a0000000000000000000000000000000000000000000000000000000008152600401610b4f90614049565b60405180910390fd5b610b628383611f79565b505050565b610b78610b72611f71565b82612032565b610bb7576040517f08c379a0000000000000000000000000000000000000000000000000000000008152600401610bae90613d29565b60405180910390fd5b610bc28383836120c7565b505050565b610be283838360405180602001604052806000815250611575565b505050565b610bef6130a5565b600b6000838152602001908152602001600020604051806060016040529081600082018054610c1d906143a5565b80601f0160208091040260200160405190810160405280929190818152602001828054610c49906143a5565b8015610c965780601f10610c6b57610100808354040283529160200191610c96565b820191906000526020600020905b815481529060010190602001808311610c7957829003601f168201915b50505050508152602001600182015481526020016002820160009054906101000a900473ffffffffffffffffffffffffffffffffffffffff1673ffffffffffffffffffffffffffffffffffffffff1673ffffffffffffffffffffffffffffffffffffffff16815250509050919050565b600080610d12836123c1565b9050600073ffffffffffffffffffffffffffffffffffffffff168173ffffffffffffffffffffffffffffffffffffffff161415610d84576040517f08c379a0000000000000000000000000000000000000000000000000000000008152600401610d7b90614009565b60405180910390fd5b80915050919050565b60008073ffffffffffffffffffffffffffffffffffffffff168273ffffffffffffffffffffffffffffffffffffffff161415610dfe576040517f08c379a0000000000000000000000000000000000000000000000000000000008152600401610df590613f29565b60405180910390fd5b600360008373ffffffffffffffffffffffffffffffffffffffff1673ffffffffffffffffffffffffffffffffffffffff168152602001908152602001600020549050919050565b610e4d6123fe565b610e57600061247c565b565b610e616123fe565b600073ffffffffffffffffffffffffffffffffffffffff16600a60009054906101000a900473ffffffffffffffffffffffffffffffffffffffff1673ffffffffffffffffffffffffffffffffffffffff1614610ef2576040517f08c379a0000000000000000000000000000000000000000000000000000000008152600401610ee990613fe9565b60405180910390fd5b600073ffffffffffffffffffffffffffffffffffffffff168173ffffffffffffffffffffffffffffffffffffffff161415610f62576040517f08c379a0000000000000000000000000000000000000000000000000000000008152600401610f5990613d49565b60405180910390fd5b80600a60006101000a81548173ffffffffffffffffffffffffffffffffffffffff021916908373ffffffffffffffffffffffffffffffffffffffff16021790555050565b60106020528060005260406000206000915090505481565b6000600760009054906101000a900473ffffffffffffffffffffffffffffffffffffffff16905090565b606060018054610ff7906143a5565b80601f0160208091040260200160405190810160405280929190818152602001828054611023906143a5565b80156110705780601f1061104557610100808354040283529160200191611070565b820191906000526020600020905b81548152906001019060200180831161105357829003601f168201915b5050505050905090565b61108c611085611f71565b8383612542565b5050565b6000662386f26fc100008210156110dc576040517f08c379a00000000000000000000000000000000000000000000000000000000081526004016110d390613da9565b60405180910390fd5b69021e19e0c9bab2400000821115611129576040517f08c379a000000000000000000000000000000000000000000000000000000000815260040161112090613f89565b60405180910390fd5b6000600b6000868152602001908152602001600020600101541415611183576040517f08c379a000000000000000000000000000000000000000000000000000000000815260040161117a90613e29565b60405180910390fd5b60018414806111f357503373ffffffffffffffffffffffffffffffffffffffff16600b600086815260200190815260200160002060020160009054906101000a900473ffffffffffffffffffffffffffffffffffffffff1673ffffffffffffffffffffffffffffffffffffffff16145b611232576040517f08c379a000000000000000000000000000000000000000000000000000000000815260040161122990613e49565b60405180910390fd5b600061123e6008611e36565b905061124a6008611e20565b61125433826126af565b61125e81856128cd565b84600d600083815260200190815260200160002081905550600c600086815260200190815260200160002081908060018154018082558091505060019003906000526020600020016000909190919091505582600e6000838152602001908152602001600020819055507f5f7666687319b40936f33c188908d86aea154abd3f4127b4fa0a3f04f303c7da81866040516112f9929190614116565b60405180910390a1809150509392505050565b662386f26fc1000081565b6000600a60009054906101000a900473ffffffffffffffffffffffffffffffffffffffff1673ffffffffffffffffffffffffffffffffffffffff163373ffffffffffffffffffffffffffffffffffffffff16146113a9576040517f08c379a00000000000000000000000000000000000000000000000000000000081526004016113a090613e69565b60405180910390fd5b662386f26fc100008310156113f3576040517f08c379a00000000000000000000000000000000000000000000000000000000081526004016113ea90613da9565b60405180910390fd5b69021e19e0c9bab2400000831115611440576040517f08c379a000000000000000000000000000000000000000000000000000000000815260040161143790613f89565b60405180910390fd5b6000600b600087815260200190815260200160002060010154141561149a576040517f08c379a000000000000000000000000000000000000000000000000000000000815260040161149190613e29565b60405180910390fd5b60006114a66008611e36565b90506114b26008611e20565b6114bc83826126af565b6114c681866128cd565b85600d600083815260200190815260200160002081905550600c600087815260200190815260200160002081908060018154018082558091505060019003906000526020600020016000909190919091505583600e6000838152602001908152602001600020819055507f5f7666687319b40936f33c188908d86aea154abd3f4127b4fa0a3f04f303c7da8187604051611561929190614116565b60405180910390a180915050949350505050565b611586611580611f71565b83612032565b6115c5576040517f08c379a00000000000000000000000000000000000000000000000000000000081526004016115bc90613d29565b60405180910390fd5b6115d184848484612978565b50505050565b600f6020528060005260406000206000915090505481565b60606115fa82611f26565b600060066000848152602001908152602001600020805461161a906143a5565b80601f0160208091040260200160405190810160405280929190818152602001828054611646906143a5565b80156116935780601f1061166857610100808354040283529160200191611693565b820191906000526020600020905b81548152906001019060200180831161167657829003601f168201915b5050505050905060006116a46129d4565b90506000815114156116ba5781925050506116fd565b6000825111156116ef5780826040516020016116d7929190613c3f565b604051602081830303815290604052925050506116fd565b6116f8846129eb565b925050505b919050565b60606000600c600086815260200190815260200160002090506000818054905011611762576040517f08c379a000000000000000000000000000000000000000000000000000000000815260040161175990614089565b60405180910390fd5b808054905084106117a8576040517f08c379a000000000000000000000000000000000000000000000000000000000815260040161179f90613f69565b60405180910390fd5b60648311156117b657606492505b600083856117c49190614253565b905081805490508111156117da57818054905090505b600085826117e891906142a9565b67ffffffffffffffff811115611827577f4e487b7100000000000000000000000000000000000000000000000000000000600052604160045260246000fd5b6040519080825280602002602001820160405280156118555781602001602082028036833780820191505090505b50905060008690505b8281101561190d5783818154811061189f577f4e487b7100000000000000000000000000000000000000000000000000000000600052603260045260246000fd5b90600052602060002001548288836118b791906142a9565b815181106118ee577f4e487b7100000000000000000000000000000000000000000000000000000000600052603260045260246000fd5b602002602001018181525050808061190590614408565b91505061185e565b508093505050509392505050565b6119236130a5565b6000600d600084815260200190815260200160002054141561197a576040517f08c379a000000000000000000000000000000000000000000000000000000000815260040161197190613ec9565b60405180910390fd5b6000600d6000848152602001908152602001600020549050600b60008281526020019081526020016000206040518060600160405290816000820180546119c0906143a5565b80601f01602080910402602001604051908101604052809291908181526020018280546119ec906143a5565b8015611a395780601f10611a0e57610100808354040283529160200191611a39565b820191906000526020600020905b815481529060010190602001808311611a1c57829003601f168201915b50505050508152602001600182015481526020016002820160009054906101000a900473ffffffffffffffffffffffffffffffffffffffff1673ffffffffffffffffffffffffffffffffffffffff1673ffffffffffffffffffffffffffffffffffffffff1681525050915050919050565b6000600e6000838152602001908152602001600020549050919050565b6000600560008473ffffffffffffffffffffffffffffffffffffffff1673ffffffffffffffffffffffffffffffffffffffff16815260200190815260200160002060008373ffffffffffffffffffffffffffffffffffffffff1673ffffffffffffffffffffffffffffffffffffffff16815260200190815260200160002060009054906101000a900460ff16905092915050565b611b636123fe565b600073ffffffffffffffffffffffffffffffffffffffff168173ffffffffffffffffffffffffffffffffffffffff161415611bd3576040517f08c379a0000000000000000000000000000000000000000000000000000000008152600401611bca90613dc9565b60405180910390fd5b611bdc8161247c565b50565b6000662386f26fc10000821015611c2b576040517f08c379a0000000000000000000000000000000000000000000000000000000008152600401611c2290613da9565b60405180910390fd5b69021e19e0c9bab2400000821115611c78576040517f08c379a0000000000000000000000000000000000000000000000000000000008152600401611c6f90613f89565b60405180910390fd5b611c89611c83611f71565b84612032565b611cc8576040517f08c379a0000000000000000000000000000000000000000000000000000000008152600401611cbf90614069565b60405180910390fd5b600a60009054906101000a900473ffffffffffffffffffffffffffffffffffffffff1673ffffffffffffffffffffffffffffffffffffffff16639b83cddc846040518263ffffffff1660e01b8152600401611d2391906140cb565b60206040518083038186803b158015611d3b57600080fd5b505afa158015611d4f573d6000803e3d6000fd5b505050506040513d601f19601f82011682018060405250810190611d73919061342c565b15611db3576040517f08c379a0000000000000000000000000000000000000000000000000000000008152600401611daa90613f09565b60405180910390fd5b81600e6000858152602001908152602001600020819055507fa0f1665b7b659537b52deec61ea64d134a3bccda74c7f4e79f2246e7a8187a8a8383604051611dfc929190614116565b60405180910390a1600e600084815260200190815260200160002054905092915050565b6001816000016000828254019250508190555050565b600081600001549050919050565b60007f80ac58cd000000000000000000000000000000000000000000000000000000007bffffffffffffffffffffffffffffffffffffffffffffffffffffffff1916827bffffffffffffffffffffffffffffffffffffffffffffffffffffffff19161480611f0f57507f5b5e139f000000000000000000000000000000000000000000000000000000007bffffffffffffffffffffffffffffffffffffffffffffffffffffffff1916827bffffffffffffffffffffffffffffffffffffffffffffffffffffffff1916145b80611f1f5750611f1e82612a53565b5b9050919050565b611f2f81612abd565b611f6e576040517f08c379a0000000000000000000000000000000000000000000000000000000008152600401611f6590614009565b60405180910390fd5b50565b600033905090565b816004600083815260200190815260200160002060006101000a81548173ffffffffffffffffffffffffffffffffffffffff021916908373ffffffffffffffffffffffffffffffffffffffff160217905550808273ffffffffffffffffffffffffffffffffffffffff16611fec83610d06565b73ffffffffffffffffffffffffffffffffffffffff167f8c5be1e5ebec7d5bd14f71427d1e84f3dd0314c0f7b2291e5b200ac8c7c3b92560405160405180910390a45050565b60008061203e83610d06565b90508073ffffffffffffffffffffffffffffffffffffffff168473ffffffffffffffffffffffffffffffffffffffff161480612080575061207f8185611ac7565b5b806120be57508373ffffffffffffffffffffffffffffffffffffffff166120a684610a09565b73ffffffffffffffffffffffffffffffffffffffff16145b91505092915050565b8273ffffffffffffffffffffffffffffffffffffffff166120e782610d06565b73ffffffffffffffffffffffffffffffffffffffff161461213d576040517f08c379a000000000000000000000000000000000000000000000000000000000815260040161213490613de9565b60405180910390fd5b600073ffffffffffffffffffffffffffffffffffffffff168273ffffffffffffffffffffffffffffffffffffffff1614156121ad576040517f08c379a00000000000000000000000000000000000000000000000000000000081526004016121a490613e89565b60405180910390fd5b6121ba8383836001612afe565b8273ffffffffffffffffffffffffffffffffffffffff166121da82610d06565b73ffffffffffffffffffffffffffffffffffffffff1614612230576040517f08c379a000000000000000000000000000000000000000000000000000000000815260040161222790613de9565b60405180910390fd5b6004600082815260200190815260200160002060006101000a81549073ffffffffffffffffffffffffffffffffffffffff02191690556001600360008573ffffffffffffffffffffffffffffffffffffffff1673ffffffffffffffffffffffffffffffffffffffff168152602001908152602001600020600082825403925050819055506001600360008473ffffffffffffffffffffffffffffffffffffffff1673ffffffffffffffffffffffffffffffffffffffff16815260200190815260200160002060008282540192505081905550816002600083815260200190815260200160002060006101000a81548173ffffffffffffffffffffffffffffffffffffffff021916908373ffffffffffffffffffffffffffffffffffffffff160217905550808273ffffffffffffffffffffffffffffffffffffffff168473ffffffffffffffffffffffffffffffffffffffff167fddf252ad1be2c89b69c2b068fc378daa952ba7f163c4a11628f55a4df523b3ef60405160405180910390a46123bc8383836001612b04565b505050565b60006002600083815260200190815260200160002060009054906101000a900473ffffffffffffffffffffffffffffffffffffffff169050919050565b612406611f71565b73ffffffffffffffffffffffffffffffffffffffff16612424610fbe565b73ffffffffffffffffffffffffffffffffffffffff161461247a576040517f08c379a000000000000000000000000000000000000000000000000000000000815260040161247190613fc9565b60405180910390fd5b565b6000600760009054906101000a900473ffffffffffffffffffffffffffffffffffffffff16905081600760006101000a81548173ffffffffffffffffffffffffffffffffffffffff021916908373ffffffffffffffffffffffffffffffffffffffff1602179055508173ffffffffffffffffffffffffffffffffffffffff168173ffffffffffffffffffffffffffffffffffffffff167f8be0079c531659141344cd1fd0a4f28419497f9722a3daafe3b4186f6b6457e060405160405180910390a35050565b8173ffffffffffffffffffffffffffffffffffffffff168373ffffffffffffffffffffffffffffffffffffffff1614156125b1576040517f08c379a00000000000000000000000000000000000000000000000000000000081526004016125a890613ea9565b60405180910390fd5b80600560008573ffffffffffffffffffffffffffffffffffffffff1673ffffffffffffffffffffffffffffffffffffffff16815260200190815260200160002060008473ffffffffffffffffffffffffffffffffffffffff1673ffffffffffffffffffffffffffffffffffffffff16815260200190815260200160002060006101000a81548160ff0219169083151502179055508173ffffffffffffffffffffffffffffffffffffffff168373ffffffffffffffffffffffffffffffffffffffff167f17307eab39ab6107e8899845ad3d59bd9653f200f220920489ca2b5937696c31836040516126a29190613cec565b60405180910390a3505050565b600073ffffffffffffffffffffffffffffffffffffffff168273ffffffffffffffffffffffffffffffffffffffff16141561271f576040517f08c379a000000000000000000000000000000000000000000000000000000000815260040161271690613fa9565b60405180910390fd5b61272881612abd565b15612768576040517f08c379a000000000000000000000000000000000000000000000000000000000815260040161275f90613e09565b60405180910390fd5b612776600083836001612afe565b61277f81612abd565b156127bf576040517f08c379a00000000000000000000000000000000000000000000000000000000081526004016127b690613e09565b60405180910390fd5b6001600360008473ffffffffffffffffffffffffffffffffffffffff1673ffffffffffffffffffffffffffffffffffffffff16815260200190815260200160002060008282540192505081905550816002600083815260200190815260200160002060006101000a81548173ffffffffffffffffffffffffffffffffffffffff021916908373ffffffffffffffffffffffffffffffffffffffff160217905550808273ffffffffffffffffffffffffffffffffffffffff16600073ffffffffffffffffffffffffffffffffffffffff167fddf252ad1be2c89b69c2b068fc378daa952ba7f163c4a11628f55a4df523b3ef60405160405180910390a46128c9600083836001612b04565b5050565b6128d682612abd565b612915576040517f08c379a000000000000000000000000000000000000000000000000000000000815260040161290c90613f49565b60405180910390fd5b8060066000848152602001908152602001600020908051906020019061293c92919061301f565b507ff8e1a15aba9398e019f0b49df1a4fde98ee17ae345cb5f6b5e2c27f5033e8ce78260405161296c91906140cb565b60405180910390a15050565b6129838484846120c7565b61298f84848484612b0a565b6129ce576040517f08c379a00000000000000000000000000000000000000000000000000000000081526004016129c590613d89565b60405180910390fd5b50505050565b606060405180602001604052806000815250905090565b60606129f682611f26565b6000612a006129d4565b90506000815111612a205760405180602001604052806000815250612a4b565b80612a2a84612ca1565b604051602001612a3b929190613c3f565b6040516020818303038152906040525b915050919050565b60007f01ffc9a7000000000000000000000000000000000000000000000000000000007bffffffffffffffffffffffffffffffffffffffffffffffffffffffff1916827bffffffffffffffffffffffffffffffffffffffffffffffffffffffff1916149050919050565b60008073ffffffffffffffffffffffffffffffffffffffff16612adf836123c1565b73ffffffffffffffffffffffffffffffffffffffff1614159050919050565b50505050565b50505050565b6000612b2b8473ffffffffffffffffffffffffffffffffffffffff16612dc5565b15612c94578373ffffffffffffffffffffffffffffffffffffffff1663150b7a02612b54611f71565b8786866040518563ffffffff1660e01b8152600401612b769493929190613c7e565b602060405180830381600087803b158015612b9057600080fd5b505af1925050508015612bc157506040513d601f19601f82011682018060405250810190612bbe919061347e565b60015b612c44573d8060008114612bf1576040519150601f19603f3d011682016040523d82523d6000602084013e612bf6565b606091505b50600081511415612c3c576040517f08c379a0000000000000000000000000000000000000000000000000000000008152600401612c3390613d89565b60405180910390fd5b805181602001fd5b63150b7a0260e01b7bffffffffffffffffffffffffffffffffffffffffffffffffffffffff1916817bffffffffffffffffffffffffffffffffffffffffffffffffffffffff191614915050612c99565b600190505b949350505050565b606060006001612cb084612de8565b01905060008167ffffffffffffffff811115612cf5577f4e487b7100000000000000000000000000000000000000000000000000000000600052604160045260246000fd5b6040519080825280601f01601f191660200182016040528015612d275781602001600182028036833780820191505090505b509050600082602001820190505b600115612dba578080600190039150507f3031323334353637383961626364656600000000000000000000000000000000600a86061a8153600a8581612da4577f4e487b7100000000000000000000000000000000000000000000000000000000600052601260045260246000fd5b0494506000851415612db557612dba565b612d35565b819350505050919050565b6000808273ffffffffffffffffffffffffffffffffffffffff163b119050919050565b600080600090507a184f03e93ff9f4daa797ed6e38ed64bf6a1f0100000000000000008310612e6c577a184f03e93ff9f4daa797ed6e38ed64bf6a1f0100000000000000008381612e62577f4e487b7100000000000000000000000000000000000000000000000000000000600052601260045260246000fd5b0492506040810190505b6d04ee2d6d415b85acef81000000008310612ecf576d04ee2d6d415b85acef81000000008381612ec5577f4e487b7100000000000000000000000000000000000000000000000000000000600052601260045260246000fd5b0492506020810190505b662386f26fc100008310612f2457662386f26fc100008381612f1a577f4e487b7100000000000000000000000000000000000000000000000000000000600052601260045260246000fd5b0492506010810190505b6305f5e1008310612f73576305f5e1008381612f69577f4e487b7100000000000000000000000000000000000000000000000000000000600052601260045260246000fd5b0492506008810190505b6127108310612fbe576127108381612fb4577f4e487b7100000000000000000000000000000000000000000000000000000000600052601260045260246000fd5b0492506004810190505b606483106130075760648381612ffd577f4e487b7100000000000000000000000000000000000000000000000000000000600052601260045260246000fd5b0492506002810190505b600a8310613016576001810190505b80915050919050565b82805461302b906143a5565b90600052602060002090601f01602090048101928261304d5760008555613094565b82601f1061306657805160ff1916838001178555613094565b82800160010185558215613094579182015b82811115613093578251825591602001919060010190613078565b5b5090506130a191906130dc565b5090565b60405180606001604052806060815260200160008152602001600073ffffffffffffffffffffffffffffffffffffffff1681525090565b5b808211156130f55760008160009055506001016130dd565b5090565b600061310c61310784614164565b61413f565b90508281526020810184848401111561312457600080fd5b61312f848285614363565b509392505050565b600061314a61314584614195565b61413f565b90508281526020810184848401111561316257600080fd5b61316d848285614363565b509392505050565b60008135905061318481614b7f565b92915050565b60008135905061319981614b96565b92915050565b6000813590506131ae81614bad565b92915050565b6000815190506131c381614bad565b92915050565b6000813590506131d881614bc4565b92915050565b6000815190506131ed81614bc4565b92915050565b600082601f83011261320457600080fd5b81356132148482602086016130f9565b91505092915050565b600082601f83011261322e57600080fd5b813561323e848260208601613137565b91505092915050565b60008135905061325681614bdb565b92915050565b60006020828403121561326e57600080fd5b600061327c84828501613175565b91505092915050565b60006020828403121561329757600080fd5b60006132a58482850161318a565b91505092915050565b600080604083850312156132c157600080fd5b60006132cf85828601613175565b92505060206132e085828601613175565b9150509250929050565b6000806000606084860312156132ff57600080fd5b600061330d86828701613175565b935050602061331e86828701613175565b925050604061332f86828701613247565b9150509250925092565b6000806000806080858703121561334f57600080fd5b600061335d87828801613175565b945050602061336e87828801613175565b935050604061337f87828801613247565b925050606085013567ffffffffffffffff81111561339c57600080fd5b6133a8878288016131f3565b91505092959194509250565b600080604083850312156133c757600080fd5b60006133d585828601613175565b92505060206133e68582860161319f565b9150509250929050565b6000806040838503121561340357600080fd5b600061341185828601613175565b925050602061342285828601613247565b9150509250929050565b60006020828403121561343e57600080fd5b600061344c848285016131b4565b91505092915050565b60006020828403121561346757600080fd5b6000613475848285016131c9565b91505092915050565b60006020828403121561349057600080fd5b600061349e848285016131de565b91505092915050565b6000602082840312156134b957600080fd5b600082013567ffffffffffffffff8111156134d357600080fd5b6134df8482850161321d565b91505092915050565b6000602082840312156134fa57600080fd5b600061350884828501613247565b91505092915050565b60008060006060848603121561352657600080fd5b600061353486828701613247565b935050602084013567ffffffffffffffff81111561355157600080fd5b61355d8682870161321d565b925050604061356e86828701613247565b9150509250925092565b6000806000806080858703121561358e57600080fd5b600061359c87828801613247565b945050602085013567ffffffffffffffff8111156135b957600080fd5b6135c58782880161321d565b93505060406135d687828801613247565b92505060606135e787828801613175565b91505092959194509250565b6000806040838503121561360657600080fd5b600061361485828601613247565b925050602061362585828601613247565b9150509250929050565b60008060006060848603121561364457600080fd5b600061365286828701613247565b935050602061366386828701613247565b925050604061367486828701613247565b9150509250925092565b600061368a8383613c21565b60208301905092915050565b61369f816142dd565b82525050565b6136ae816142dd565b82525050565b60006136bf826141d6565b6136c98185614204565b93506136d4836141c6565b8060005b838110156137055781516136ec888261367e565b97506136f7836141f7565b9250506001810190506136d8565b5085935050505092915050565b61371b81614301565b82525050565b600061372c826141e1565b6137368185614215565b9350613746818560208601614372565b61374f816144de565b840191505092915050565b6000613765826141ec565b61376f8185614226565b935061377f818560208601614372565b613788816144de565b840191505092915050565b600061379e826141ec565b6137a88185614237565b93506137b8818560208601614372565b6137c1816144de565b840191505092915050565b60006137d7826141ec565b6137e18185614248565b93506137f1818560208601614372565b80840191505092915050565b600061380a602d83614237565b9150613815826144ef565b604082019050919050565b600061382d600f83614237565b91506138388261453e565b602082019050919050565b6000613850602c83614237565b915061385b82614567565b604082019050919050565b6000613873603283614237565b915061387e826145b6565b604082019050919050565b6000613896602083614237565b91506138a182614605565b602082019050919050565b60006138b9602683614237565b91506138c48261462e565b604082019050919050565b60006138dc602583614237565b91506138e78261467d565b604082019050919050565b60006138ff601c83614237565b915061390a826146cc565b602082019050919050565b6000613922601983614237565b915061392d826146f5565b602082019050919050565b6000613945601f83614237565b91506139508261471e565b602082019050919050565b6000613968601d83614237565b915061397382614747565b602082019050919050565b600061398b602483614237565b915061399682614770565b604082019050919050565b60006139ae601983614237565b91506139b9826147bf565b602082019050919050565b60006139d1602783614237565b91506139dc826147e8565b604082019050919050565b60006139f4601783614237565b91506139ff82614837565b602082019050919050565b6000613a17602283614237565b9150613a2282614860565b604082019050919050565b6000613a3a602983614237565b9150613a45826148af565b604082019050919050565b6000613a5d602e83614237565b9150613a68826148fe565b604082019050919050565b6000613a80601383614237565b9150613a8b8261494d565b602082019050919050565b6000613aa3601f83614237565b9150613aae82614976565b602082019050919050565b6000613ac6602083614237565b9150613ad18261499f565b602082019050919050565b6000613ae9602083614237565b9150613af4826149c8565b602082019050919050565b6000613b0c602883614237565b9150613b17826149f1565b604082019050919050565b6000613b2f601883614237565b9150613b3a82614a40565b602082019050919050565b6000613b52602183614237565b9150613b5d82614a69565b604082019050919050565b6000613b75603d83614237565b9150613b8082614ab8565b604082019050919050565b6000613b98603183614237565b9150613ba382614b07565b604082019050919050565b6000613bbb600e83614237565b9150613bc682614b56565b602082019050919050565b60006060830160008301518482036000860152613bee828261375a565b9150506020830151613c036020860182613c21565b506040830151613c166040860182613696565b508091505092915050565b613c2a81614359565b82525050565b613c3981614359565b82525050565b6000613c4b82856137cc565b9150613c5782846137cc565b91508190509392505050565b6000602082019050613c7860008301846136a5565b92915050565b6000608082019050613c9360008301876136a5565b613ca060208301866136a5565b613cad6040830185613c30565b8181036060830152613cbf8184613721565b905095945050505050565b60006020820190508181036000830152613ce481846136b4565b905092915050565b6000602082019050613d016000830184613712565b92915050565b60006020820190508181036000830152613d218184613793565b905092915050565b60006020820190508181036000830152613d42816137fd565b9050919050565b60006020820190508181036000830152613d6281613820565b9050919050565b60006020820190508181036000830152613d8281613843565b9050919050565b60006020820190508181036000830152613da281613866565b9050919050565b60006020820190508181036000830152613dc281613889565b9050919050565b60006020820190508181036000830152613de2816138ac565b9050919050565b60006020820190508181036000830152613e02816138cf565b9050919050565b60006020820190508181036000830152613e22816138f2565b9050919050565b60006020820190508181036000830152613e4281613915565b9050919050565b60006020820190508181036000830152613e6281613938565b9050919050565b60006020820190508181036000830152613e828161395b565b9050919050565b60006020820190508181036000830152613ea28161397e565b9050919050565b60006020820190508181036000830152613ec2816139a1565b9050919050565b60006020820190508181036000830152613ee2816139c4565b9050919050565b60006020820190508181036000830152613f02816139e7565b9050919050565b60006020820190508181036000830152613f2281613a0a565b9050919050565b60006020820190508181036000830152613f4281613a2d565b9050919050565b60006020820190508181036000830152613f6281613a50565b9050919050565b60006020820190508181036000830152613f8281613a73565b9050919050565b60006020820190508181036000830152613fa281613a96565b9050919050565b60006020820190508181036000830152613fc281613ab9565b9050919050565b60006020820190508181036000830152613fe281613adc565b9050919050565b6000602082019050818103600083015261400281613aff565b9050919050565b6000602082019050818103600083015261402281613b22565b9050919050565b6000602082019050818103600083015261404281613b45565b9050919050565b6000602082019050818103600083015261406281613b68565b9050919050565b6000602082019050818103600083015261408281613b8b565b9050919050565b600060208201905081810360008301526140a281613bae565b9050919050565b600060208201905081810360008301526140c38184613bd1565b905092915050565b60006020820190506140e06000830184613c30565b92915050565b60006040820190506140fb6000830185613c30565b818103602083015261410d8184613793565b90509392505050565b600060408201905061412b6000830185613c30565b6141386020830184613c30565b9392505050565b600061414961415a565b905061415582826143d7565b919050565b6000604051905090565b600067ffffffffffffffff82111561417f5761417e6144af565b5b614188826144de565b9050602081019050919050565b600067ffffffffffffffff8211156141b0576141af6144af565b5b6141b9826144de565b9050602081019050919050565b6000819050602082019050919050565b600081519050919050565b600081519050919050565b600081519050919050565b6000602082019050919050565b600082825260208201905092915050565b600082825260208201905092915050565b600082825260208201905092915050565b600082825260208201905092915050565b600081905092915050565b600061425e82614359565b915061426983614359565b9250827fffffffffffffffffffffffffffffffffffffffffffffffffffffffffffffffff0382111561429e5761429d614451565b5b828201905092915050565b60006142b482614359565b91506142bf83614359565b9250828210156142d2576142d1614451565b5b828203905092915050565b60006142e882614339565b9050919050565b60006142fa82614339565b9050919050565b60008115159050919050565b60007fffffffff0000000000000000000000000000000000000000000000000000000082169050919050565b600073ffffffffffffffffffffffffffffffffffffffff82169050919050565b6000819050919050565b82818337600083830152505050565b60005b83811015614390578082015181840152602081019050614375565b8381111561439f576000848401525b50505050565b600060028204905060018216806143bd57607f821691505b602082108114156143d1576143d0614480565b5b50919050565b6143e0826144de565b810181811067ffffffffffffffff821117156143ff576143fe6144af565b5b80604052505050565b600061441382614359565b91507fffffffffffffffffffffffffffffffffffffffffffffffffffffffffffffffff82141561444657614445614451565b5b600182019050919050565b7f4e487b7100000000000000000000000000000000000000000000000000000000600052601160045260246000fd5b7f4e487b7100000000000000000000000000000000000000000000000000000000600052602260045260246000fd5b7f4e487b7100000000000000000000000000000000000000000000000000000000600052604160045260246000fd5b6000601f19601f8301169050919050565b7f4552433732313a2063616c6c6572206973206e6f7420746f6b656e206f776e6560008201527f72206f7220617070726f76656400000000000000000000000000000000000000602082015250565b7f496e76616c696420616464726573730000000000000000000000000000000000600082015250565b7f4d7573742077616974206265666f7265206372656174696e6720616e6f74686560008201527f7220636f6c6c656374696f6e0000000000000000000000000000000000000000602082015250565b7f4552433732313a207472616e7366657220746f206e6f6e20455243373231526560008201527f63656976657220696d706c656d656e7465720000000000000000000000000000602082015250565b7f5072696365206d757374206265206174206c65617374204d494e5f5052494345600082015250565b7f4f776e61626c653a206e6577206f776e657220697320746865207a65726f206160008201527f6464726573730000000000000000000000000000000000000000000000000000602082015250565b7f4552433732313a207472616e736665722066726f6d20696e636f72726563742060008201527f6f776e6572000000000000000000000000000000000000000000000000000000602082015250565b7f4552433732313a20746f6b656e20616c7265616479206d696e74656400000000600082015250565b7f436f6c6c656374696f6e20646f6573206e6f7420657869737400000000000000600082015250565b7f4e6f7420746865206f776e6572206f662074686520636f6c6c656374696f6e00600082015250565b7f43616c6c6572206973206e6f7420746865206d61726b6574706c616365000000600082015250565b7f4552433732313a207472616e7366657220746f20746865207a65726f2061646460008201527f7265737300000000000000000000000000000000000000000000000000000000602082015250565b7f4552433732313a20617070726f766520746f2063616c6c657200000000000000600082015250565b7f546f6b656e20646f6573206e6f742062656c6f6e6720746f20616e7920636f6c60008201527f6c656374696f6e00000000000000000000000000000000000000000000000000602082015250565b7f4d617820636f6c6c656374696f6e732072656163686564000000000000000000600082015250565b7f546f6b656e2069732063757272656e746c79206c697374656420666f7220736160008201527f6c65000000000000000000000000000000000000000000000000000000000000602082015250565b7f4552433732313a2061646472657373207a65726f206973206e6f74206120766160008201527f6c6964206f776e65720000000000000000000000000000000000000000000000602082015250565b7f45524337323155524953746f726167653a2055524920736574206f66206e6f6e60008201527f6578697374656e7420746f6b656e000000000000000000000000000000000000602082015250565b7f496e76616c696420737461727420696e64657800000000000000000000000000600082015250565b7f5072696365206d757374206e6f7420657863656564204d41585f505249434500600082015250565b7f4552433732313a206d696e7420746f20746865207a65726f2061646472657373600082015250565b7f4f776e61626c653a2063616c6c6572206973206e6f7420746865206f776e6572600082015250565b7f4d61726b6574706c61636520616464726573732068617320616c72656164792060008201527f6265656e20736574000000000000000000000000000000000000000000000000602082015250565b7f4552433732313a20696e76616c696420746f6b656e2049440000000000000000600082015250565b7f4552433732313a20617070726f76616c20746f2063757272656e74206f776e6560008201527f7200000000000000000000000000000000000000000000000000000000000000602082015250565b7f4552433732313a20617070726f76652063616c6c6572206973206e6f7420746f60008201527f6b656e206f776e6572206f7220617070726f76656420666f7220616c6c000000602082015250565b7f4552433732313a207472616e736665722063616c6c6572206973206e6f74206f60008201527f776e6572206e6f7220617070726f766564000000000000000000000000000000602082015250565b7f417272617920697320656d707479000000000000000000000000000000000000600082015250565b614b88816142dd565b8114614b9357600080fd5b50565b614b9f816142ef565b8114614baa57600080fd5b50565b614bb681614301565b8114614bc157600080fd5b50565b614bcd8161430d565b8114614bd857600080fd5b50565b614be481614359565b8114614bef57600080fd5b5056fea2646970667358221220d9dfbd3add5a53427bce5a416c4e6d38257caf35017eb14220bd9808772e261264736f6c63430008010033",
  "linkReferences": {},
  "deployedLinkReferences": {}
}