{
  "_format": "hh-sol-artifact-1",
  "contractName": "NFTMarketplace",
  "sourceName": "contracts/NFTMarketplace.sol",
  "abi": [
    {
      "inputs": [
        {
          "internalType": "address",
          "name": "nftContractAddress",
          "type": "address"
        },
        {
          "internalType": "address[]",
          "name": "payees",
          "type": "address[]"
        },
        {
          "internalType": "uint256[]",
          "name": "shares",
          "type": "uint256[]"
        },
        {
          "internalType": "uint256",
          "name": "royalties",
          "type": "uint256"
        }
      ],
      "stateMutability": "nonpayable",
      "type": "constructor"
    },
    {
      "anonymous": false,
      "inputs": [
        {
          "indexed": true,
          "internalType": "contract IERC20",
          "name": "token",
          "type": "address"
        },
        {
          "indexed": false,
          "internalType": "address",
          "name": "to",
          "type": "address"
        },
        {
          "indexed": false,
          "internalType": "uint256",
          "name": "amount",
          "type": "uint256"
        }
      ],
      "name": "ERC20PaymentReleased",
      "type": "event"
    },
    {
      "anonymous": false,
      "inputs": [
        {
          "indexed": true,
          "internalType": "uint256",
          "name": "tokenId",
          "type": "uint256"
        }
      ],
      "name": "NFTBought",
      "type": "event"
    },
    {
      "anonymous": false,
      "inputs": [
        {
          "indexed": true,
          "internalType": "uint256",
          "name": "tokenId",
          "type": "uint256"
        }
      ],
      "name": "NFTDelisted",
      "type": "event"
    },
    {
      "anonymous": false,
      "inputs": [
        {
          "indexed": true,
          "internalType": "uint256",
          "name": "tokenId",
          "type": "uint256"
        }
      ],
      "name": "NFTListed",
      "type": "event"
    },
    {
      "anonymous": false,
      "inputs": [
        {
          "indexed": true,
          "internalType": "address",
          "name": "previousOwner",
          "type": "address"
        },
        {
          "indexed": true,
          "internalType": "address",
          "name": "newOwner",
          "type": "address"
        }
      ],
      "name": "OwnershipTransferred",
      "type": "event"
    },
    {
      "anonymous": false,
      "inputs": [
        {
          "indexed": false,
          "internalType": "address",
          "name": "account",
          "type": "address"
        },
        {
          "indexed": false,
          "internalType": "uint256",
          "name": "shares",
          "type": "uint256"
        }
      ],
      "name": "PayeeAdded",
      "type": "event"
    },
    {
      "anonymous": false,
      "inputs": [
        {
          "indexed": false,
          "internalType": "address",
          "name": "from",
          "type": "address"
        },
        {
          "indexed": false,
          "internalType": "uint256",
          "name": "amount",
          "type": "uint256"
        }
      ],
      "name": "PaymentReceived",
      "type": "event"
    },
    {
      "anonymous": false,
      "inputs": [
        {
          "indexed": false,
          "internalType": "address",
          "name": "to",
          "type": "address"
        },
        {
          "indexed": false,
          "internalType": "uint256",
          "name": "amount",
          "type": "uint256"
        }
      ],
      "name": "PaymentReleased",
      "type": "event"
    },
    {
      "inputs": [],
      "name": "MAX_PRICE",
      "outputs": [
        {
          "internalType": "uint256",
          "name": "",
          "type": "uint256"
        }
      ],
      "stateMutability": "view",
      "type": "function"
    },
    {
      "inputs": [],
      "name": "MIN_PRICE",
      "outputs": [
        {
          "internalType": "uint256",
          "name": "",
          "type": "uint256"
        }
      ],
      "stateMutability": "view",
      "type": "function"
    },
    {
      "inputs": [
        {
          "internalType": "uint256",
          "name": "tokenId",
          "type": "uint256"
        }
      ],
      "name": "buyNFT",
      "outputs": [],
      "stateMutability": "payable",
      "type": "function"
    },
    {
      "inputs": [
        {
          "internalType": "uint256",
          "name": "tokenId",
          "type": "uint256"
        }
      ],
      "name": "delistNFT",
      "outputs": [],
      "stateMutability": "nonpayable",
      "type": "function"
    },
    {
      "inputs": [
        {
          "internalType": "uint256",
          "name": "tokenId",
          "type": "uint256"
        }
      ],
      "name": "isTokenListed",
      "outputs": [
        {
          "internalType": "bool",
          "name": "",
          "type": "bool"
        }
      ],
      "stateMutability": "view",
      "type": "function"
    },
    {
      "inputs": [
        {
          "internalType": "uint256",
          "name": "tokenId",
          "type": "uint256"
        },
        {
          "internalType": "uint256",
          "name": "newPrice",
          "type": "uint256"
        }
      ],
      "name": "listNFT",
      "outputs": [],
      "stateMutability": "nonpayable",
      "type": "function"
    },
    {
      "inputs": [],
      "name": "owner",
      "outputs": [
        {
          "internalType": "address",
          "name": "",
          "type": "address"
        }
      ],
      "stateMutability": "view",
      "type": "function"
    },
    {
      "inputs": [
        {
          "internalType": "uint256",
          "name": "index",
          "type": "uint256"
        }
      ],
      "name": "payee",
      "outputs": [
        {
          "internalType": "address",
          "name": "",
          "type": "address"
        }
      ],
      "stateMutability": "view",
      "type": "function"
    },
    {
      "inputs": [
        {
          "internalType": "address",
          "name": "account",
          "type": "address"
        }
      ],
      "name": "releasable",
      "outputs": [
        {
          "internalType": "uint256",
          "name": "",
          "type": "uint256"
        }
      ],
      "stateMutability": "view",
      "type": "function"
    },
    {
      "inputs": [
        {
          "internalType": "contract IERC20",
          "name": "token",
          "type": "address"
        },
        {
          "internalType": "address",
          "name": "account",
          "type": "address"
        }
      ],
      "name": "releasable",
      "outputs": [
        {
          "internalType": "uint256",
          "name": "",
          "type": "uint256"
        }
      ],
      "stateMutability": "view",
      "type": "function"
    },
    {
      "inputs": [
        {
          "internalType": "address payable",
          "name": "account",
          "type": "address"
        }
      ],
      "name": "release",
      "outputs": [],
      "stateMutability": "nonpayable",
      "type": "function"
    },
    {
      "inputs": [
        {
          "internalType": "contract IERC20",
          "name": "token",
          "type": "address"
        },
        {
          "internalType": "address",
          "name": "account",
          "type": "address"
        }
      ],
      "name": "release",
      "outputs": [],
      "stateMutability": "nonpayable",
      "type": "function"
    },
    {
      "inputs": [
        {
          "internalType": "contract IERC20",
          "name": "token",
          "type": "address"
        },
        {
          "internalType": "address",
          "name": "account",
          "type": "address"
        }
      ],
      "name": "released",
      "outputs": [
        {
          "internalType": "uint256",
          "name": "",
          "type": "uint256"
        }
      ],
      "stateMutability": "view",
      "type": "function"
    },
    {
      "inputs": [
        {
          "internalType": "address",
          "name": "account",
          "type": "address"
        }
      ],
      "name": "released",
      "outputs": [
        {
          "internalType": "uint256",
          "name": "",
          "type": "uint256"
        }
      ],
      "stateMutability": "view",
      "type": "function"
    },
    {
      "inputs": [],
      "name": "renounceOwnership",
      "outputs": [],
      "stateMutability": "nonpayable",
      "type": "function"
    },
    {
      "inputs": [
        {
          "internalType": "address",
          "name": "account",
          "type": "address"
        }
      ],
      "name": "shares",
      "outputs": [
        {
          "internalType": "uint256",
          "name": "",
          "type": "uint256"
        }
      ],
      "stateMutability": "view",
      "type": "function"
    },
    {
      "inputs": [
        {
          "internalType": "contract IERC20",
          "name": "token",
          "type": "address"
        }
      ],
      "name": "totalReleased",
      "outputs": [
        {
          "internalType": "uint256",
          "name": "",
          "type": "uint256"
        }
      ],
      "stateMutability": "view",
      "type": "function"
    },
    {
      "inputs": [],
      "name": "totalReleased",
      "outputs": [
        {
          "internalType": "uint256",
          "name": "",
          "type": "uint256"
        }
      ],
      "stateMutability": "view",
      "type": "function"
    },
    {
      "inputs": [],
      "name": "totalShares",
      "outputs": [
        {
          "internalType": "uint256",
          "name": "",
          "type": "uint256"
        }
      ],
      "stateMutability": "view",
      "type": "function"
    },
    {
      "inputs": [
        {
          "internalType": "address",
          "name": "newOwner",
          "type": "address"
        }
      ],
      "name": "transferOwnership",
      "outputs": [],
      "stateMutability": "nonpayable",
      "type": "function"
    },
    {
      "stateMutability": "payable",
      "type": "receive"
    }
  ],
  "bytecode": "0x60806040523480156200001157600080fd5b5060405162003d5138038062003d51833981810160405281019062000037919062000700565b8282620000596200004d6200028860201b60201c565b6200029060201b60201c565b600180819055508051825114620000a7576040517f08c379a00000000000000000000000000000000000000000000000000000000081526004016200009e9062000920565b60405180910390fd5b6000825111620000ee576040517f08c379a0000000000000000000000000000000000000000000000000000000008152600401620000e590620009a8565b60405180910390fd5b60005b8251811015620001a5576200018f83828151811062000139577f4e487b7100000000000000000000000000000000000000000000000000000000600052603260045260246000fd5b60200260200101518383815181106200017b577f4e487b7100000000000000000000000000000000000000000000000000000000600052603260045260246000fd5b60200260200101516200035460201b60201c565b80806200019c9062000b55565b915050620000f1565b5050506000835111620001ef576040517f08c379a0000000000000000000000000000000000000000000000000000000008152600401620001e69062000964565b60405180910390fd5b815183511462000236576040517f08c379a00000000000000000000000000000000000000000000000000000000081526004016200022d9062000942565b60405180910390fd5b83600960006101000a81548173ffffffffffffffffffffffffffffffffffffffff021916908373ffffffffffffffffffffffffffffffffffffffff16021790555080600a819055505050505062000dfd565b600033905090565b60008060009054906101000a900473ffffffffffffffffffffffffffffffffffffffff169050816000806101000a81548173ffffffffffffffffffffffffffffffffffffffff021916908373ffffffffffffffffffffffffffffffffffffffff1602179055508173ffffffffffffffffffffffffffffffffffffffff168173ffffffffffffffffffffffffffffffffffffffff167f8be0079c531659141344cd1fd0a4f28419497f9722a3daafe3b4186f6b6457e060405160405180910390a35050565b600073ffffffffffffffffffffffffffffffffffffffff168273ffffffffffffffffffffffffffffffffffffffff161415620003c7576040517f08c379a0000000000000000000000000000000000000000000000000000000008152600401620003be90620008fe565b60405180910390fd5b600081116200040d576040517f08c379a00000000000000000000000000000000000000000000000000000000081526004016200040490620009ca565b60405180910390fd5b6000600460008473ffffffffffffffffffffffffffffffffffffffff1673ffffffffffffffffffffffffffffffffffffffff168152602001908152602001600020541462000492576040517f08c379a0000000000000000000000000000000000000000000000000000000008152600401620004899062000986565b60405180910390fd5b6006829080600181540180825580915050600190039060005260206000200160009091909190916101000a81548173ffffffffffffffffffffffffffffffffffffffff021916908373ffffffffffffffffffffffffffffffffffffffff16021790555080600460008473ffffffffffffffffffffffffffffffffffffffff1673ffffffffffffffffffffffffffffffffffffffff168152602001908152602001600020819055508060025462000549919062000a84565b6002819055507f40c340f65e17194d14ddddb073d3c9f888e3cb52b5aae0c6c7706b4fbc905fac828260405162000582929190620008d1565b60405180910390a15050565b6000620005a56200059f8462000a15565b620009ec565b90508083825260208201905082856020860282011115620005c557600080fd5b60005b85811015620005f95781620005de888262000678565b845260208401935060208301925050600181019050620005c8565b5050509392505050565b60006200061a620006148462000a44565b620009ec565b905080838252602082019050828560208602820111156200063a57600080fd5b60005b858110156200066e5781620006538882620006e9565b8452602084019350602083019250506001810190506200063d565b5050509392505050565b600081519050620006898162000dc9565b92915050565b600082601f830112620006a157600080fd5b8151620006b38482602086016200058e565b91505092915050565b600082601f830112620006ce57600080fd5b8151620006e084826020860162000603565b91505092915050565b600081519050620006fa8162000de3565b92915050565b600080600080608085870312156200071757600080fd5b6000620007278782880162000678565b945050602085015167ffffffffffffffff8111156200074557600080fd5b62000753878288016200068f565b935050604085015167ffffffffffffffff8111156200077157600080fd5b6200077f87828801620006bc565b92505060606200079287828801620006e9565b91505092959194509250565b620007a98162000ae1565b82525050565b6000620007be602c8362000a73565b9150620007cb8262000c12565b604082019050919050565b6000620007e560328362000a73565b9150620007f28262000c61565b604082019050919050565b60006200080c60238362000a73565b9150620008198262000cb0565b604082019050919050565b600062000833601e8362000a73565b9150620008408262000cff565b602082019050919050565b60006200085a602b8362000a73565b9150620008678262000d28565b604082019050919050565b600062000881601a8362000a73565b91506200088e8262000d77565b602082019050919050565b6000620008a8601d8362000a73565b9150620008b58262000da0565b602082019050919050565b620008cb8162000b15565b82525050565b6000604082019050620008e860008301856200079e565b620008f76020830184620008c0565b9392505050565b600060208201905081810360008301526200091981620007af565b9050919050565b600060208201905081810360008301526200093b81620007d6565b9050919050565b600060208201905081810360008301526200095d81620007fd565b9050919050565b600060208201905081810360008301526200097f8162000824565b9050919050565b60006020820190508181036000830152620009a1816200084b565b9050919050565b60006020820190508181036000830152620009c38162000872565b9050919050565b60006020820190508181036000830152620009e58162000899565b9050919050565b6000620009f862000a0b565b905062000a06828262000b1f565b919050565b6000604051905090565b600067ffffffffffffffff82111562000a335762000a3262000bd2565b5b602082029050602081019050919050565b600067ffffffffffffffff82111562000a625762000a6162000bd2565b5b602082029050602081019050919050565b600082825260208201905092915050565b600062000a918262000b15565b915062000a9e8362000b15565b9250827fffffffffffffffffffffffffffffffffffffffffffffffffffffffffffffffff0382111562000ad65762000ad562000ba3565b5b828201905092915050565b600062000aee8262000af5565b9050919050565b600073ffffffffffffffffffffffffffffffffffffffff82169050919050565b6000819050919050565b62000b2a8262000c01565b810181811067ffffffffffffffff8211171562000b4c5762000b4b62000bd2565b5b80604052505050565b600062000b628262000b15565b91507fffffffffffffffffffffffffffffffffffffffffffffffffffffffffffffffff82141562000b985762000b9762000ba3565b5b600182019050919050565b7f4e487b7100000000000000000000000000000000000000000000000000000000600052601160045260246000fd5b7f4e487b7100000000000000000000000000000000000000000000000000000000600052604160045260246000fd5b6000601f19601f8301169050919050565b7f5061796d656e7453706c69747465723a206163636f756e74206973207468652060008201527f7a65726f20616464726573730000000000000000000000000000000000000000602082015250565b7f5061796d656e7453706c69747465723a2070617965657320616e64207368617260008201527f6573206c656e677468206d69736d617463680000000000000000000000000000602082015250565b7f50617965657320616e6420736861726573206c656e677468206d757374206d6160008201527f7463680000000000000000000000000000000000000000000000000000000000602082015250565b7f4174206c65617374206f6e652070617965652069732072657175697265640000600082015250565b7f5061796d656e7453706c69747465723a206163636f756e7420616c726561647960008201527f2068617320736861726573000000000000000000000000000000000000000000602082015250565b7f5061796d656e7453706c69747465723a206e6f20706179656573000000000000600082015250565b7f5061796d656e7453706c69747465723a20736861726573206172652030000000600082015250565b62000dd48162000ae1565b811462000de057600080fd5b50565b62000dee8162000b15565b811462000dfa57600080fd5b50565b612f448062000e0d6000396000f3fe6080604052600436106101235760003560e01c80639852595c116100a0578063cb917b9c11610064578063cb917b9c14610437578063ce7c2ac214610460578063d79779b21461049d578063e33b7de3146104da578063f2fde38b146105055761016a565b80639852595c146103185780639b83cddc14610355578063a3f8eace14610392578063ad9f20a6146103cf578063c45ac050146103fa5761016a565b806351ed8288116100e757806351ed828814610254578063715018a6146102705780638b83209b146102875780638da5cb5b146102c457806394383f14146102ef5761016a565b806301c11d961461016f578063191655871461019a5780633a98ef39146101c3578063406072a9146101ee57806348b750441461022b5761016a565b3661016a577f6ef95f06320e7a25a04a175ca677b7052bdd97131872c2192525a629f51be77061015161052e565b34604051610160929190612433565b60405180910390a1005b600080fd5b34801561017b57600080fd5b50610184610536565b6040516101919190612719565b60405180910390f35b3480156101a657600080fd5b506101c160048036038101906101bc9190611e99565b610544565b005b3480156101cf57600080fd5b506101d86106c4565b6040516101e59190612719565b60405180910390f35b3480156101fa57600080fd5b5061021560048036038101906102109190611f14565b6106ce565b6040516102229190612719565b60405180910390f35b34801561023757600080fd5b50610252600480360381019061024d9190611f14565b610755565b005b61026e60048036038101906102699190611f50565b610969565b005b34801561027c57600080fd5b50610285610d68565b005b34801561029357600080fd5b506102ae60048036038101906102a99190611f50565b610d7c565b6040516102bb919061238f565b60405180910390f35b3480156102d057600080fd5b506102d9610dea565b6040516102e6919061238f565b60405180910390f35b3480156102fb57600080fd5b5061031660048036038101906103119190611fa2565b610e13565b005b34801561032457600080fd5b5061033f600480360381019061033a9190611e47565b6112eb565b60405161034c9190612719565b60405180910390f35b34801561036157600080fd5b5061037c60048036038101906103779190611f50565b611334565b604051610389919061245c565b60405180910390f35b34801561039e57600080fd5b506103b960048036038101906103b49190611e47565b61135e565b6040516103c69190612719565b60405180910390f35b3480156103db57600080fd5b506103e4611391565b6040516103f19190612719565b60405180910390f35b34801561040657600080fd5b50610421600480360381019061041c9190611f14565b61139c565b60405161042e9190612719565b60405180910390f35b34801561044357600080fd5b5061045e60048036038101906104599190611f50565b61145a565b005b34801561046c57600080fd5b5061048760048036038101906104829190611e47565b61167b565b6040516104949190612719565b60405180910390f35b3480156104a957600080fd5b506104c460048036038101906104bf9190611eeb565b6116c4565b6040516104d19190612719565b60405180910390f35b3480156104e657600080fd5b506104ef61170d565b6040516104fc9190612719565b60405180910390f35b34801561051157600080fd5b5061052c60048036038101906105279190611e47565b611717565b005b600033905090565b69021e19e0c9bab240000081565b6000600460008373ffffffffffffffffffffffffffffffffffffffff1673ffffffffffffffffffffffffffffffffffffffff16815260200190815260200160002054116105c6576040517f08c379a00000000000000000000000000000000000000000000000000000000081526004016105bd90612519565b60405180910390fd5b60006105d18261135e565b90506000811415610617576040517f08c379a000000000000000000000000000000000000000000000000000000000815260040161060e90612599565b60405180910390fd5b8060036000828254610629919061278f565b9250508190555080600560008473ffffffffffffffffffffffffffffffffffffffff1673ffffffffffffffffffffffffffffffffffffffff16815260200190815260200160002060008282540192505081905550610687828261179b565b7fdf20fd1e76bc69d672e4814fafb2c449bba3a5369d8359adf9e05e6fde87b05682826040516106b89291906123aa565b60405180910390a15050565b6000600254905090565b6000600860008473ffffffffffffffffffffffffffffffffffffffff1673ffffffffffffffffffffffffffffffffffffffff16815260200190815260200160002060008373ffffffffffffffffffffffffffffffffffffffff1673ffffffffffffffffffffffffffffffffffffffff16815260200190815260200160002054905092915050565b6000600460008373ffffffffffffffffffffffffffffffffffffffff1673ffffffffffffffffffffffffffffffffffffffff16815260200190815260200160002054116107d7576040517f08c379a00000000000000000000000000000000000000000000000000000000081526004016107ce90612519565b60405180910390fd5b60006107e3838361139c565b90506000811415610829576040517f08c379a000000000000000000000000000000000000000000000000000000000815260040161082090612599565b60405180910390fd5b80600760008573ffffffffffffffffffffffffffffffffffffffff1673ffffffffffffffffffffffffffffffffffffffff1681526020019081526020016000206000828254610878919061278f565b9250508190555080600860008573ffffffffffffffffffffffffffffffffffffffff1673ffffffffffffffffffffffffffffffffffffffff16815260200190815260200160002060008473ffffffffffffffffffffffffffffffffffffffff1673ffffffffffffffffffffffffffffffffffffffff1681526020019081526020016000206000828254019250508190555061091483838361188f565b8273ffffffffffffffffffffffffffffffffffffffff167f3be5b7a71e84ed12875d241991c70855ac5817d847039e17a9d895c1ceb0f18a838360405161095c929190612433565b60405180910390a2505050565b610971611915565b600b600082815260200190815260200160002060009054906101000a900460ff166109d1576040517f08c379a00000000000000000000000000000000000000000000000000000000081526004016109c890612639565b60405180910390fd5b6000600960009054906101000a900473ffffffffffffffffffffffffffffffffffffffff1673ffffffffffffffffffffffffffffffffffffffff1663e7572230836040518263ffffffff1660e01b8152600401610a2e9190612719565b60206040518083038186803b158015610a4657600080fd5b505afa158015610a5a573d6000803e3d6000fd5b505050506040513d601f19601f82011682018060405250810190610a7e9190611f79565b9050803414610ac2576040517f08c379a0000000000000000000000000000000000000000000000000000000008152600401610ab990612619565b60405180910390fd5b60006064600a5483610ad49190612816565b610ade91906127e5565b9050808211610b22576040517f08c379a0000000000000000000000000000000000000000000000000000000008152600401610b19906125f9565b60405180910390fd5b60008183610b309190612870565b90506000600960009054906101000a900473ffffffffffffffffffffffffffffffffffffffff1673ffffffffffffffffffffffffffffffffffffffff16636352211e866040518263ffffffff1660e01b8152600401610b8f9190612719565b60206040518083038186803b158015610ba757600080fd5b505afa158015610bbb573d6000803e3d6000fd5b505050506040513d601f19601f82011682018060405250810190610bdf9190611e70565b90506000600b600087815260200190815260200160002060006101000a81548160ff0219169083151502179055508073ffffffffffffffffffffffffffffffffffffffff166108fc839081150290604051600060405180830381858888f19350505050158015610c53573d6000803e3d6000fd5b503073ffffffffffffffffffffffffffffffffffffffff166108fc849081150290604051600060405180830381858888f19350505050158015610c9a573d6000803e3d6000fd5b50600960009054906101000a900473ffffffffffffffffffffffffffffffffffffffff1673ffffffffffffffffffffffffffffffffffffffff166323b872dd8233886040518463ffffffff1660e01b8152600401610cfa939291906123fc565b600060405180830381600087803b158015610d1457600080fd5b505af1158015610d28573d6000803e3d6000fd5b50505050847ff1a4f188d8f608af032a64d403473119856aae541d836c6a78e2187e809c330760405160405180910390a250505050610d65611965565b50565b610d7061196e565b610d7a60006119ec565b565b600060068281548110610db8577f4e487b7100000000000000000000000000000000000000000000000000000000600052603260045260246000fd5b9060005260206000200160009054906101000a900473ffffffffffffffffffffffffffffffffffffffff169050919050565b60008060009054906101000a900473ffffffffffffffffffffffffffffffffffffffff16905090565b610e1b611915565b662386f26fc10000811015610e65576040517f08c379a0000000000000000000000000000000000000000000000000000000008152600401610e5c90612499565b60405180910390fd5b69021e19e0c9bab2400000811115610eb2576040517f08c379a0000000000000000000000000000000000000000000000000000000008152600401610ea9906125b9565b60405180910390fd5b600b600083815260200190815260200160002060009054906101000a900460ff1615610f13576040517f08c379a0000000000000000000000000000000000000000000000000000000008152600401610f0a906125d9565b60405180910390fd5b3373ffffffffffffffffffffffffffffffffffffffff16600960009054906101000a900473ffffffffffffffffffffffffffffffffffffffff1673ffffffffffffffffffffffffffffffffffffffff16636352211e846040518263ffffffff1660e01b8152600401610f859190612719565b60206040518083038186803b158015610f9d57600080fd5b505afa158015610fb1573d6000803e3d6000fd5b505050506040513d601f19601f82011682018060405250810190610fd59190611e70565b73ffffffffffffffffffffffffffffffffffffffff161461102b576040517f08c379a0000000000000000000000000000000000000000000000000000000008152600401611022906126f9565b60405180910390fd5b600960009054906101000a900473ffffffffffffffffffffffffffffffffffffffff1673ffffffffffffffffffffffffffffffffffffffff1663e985e9c533306040518363ffffffff1660e01b81526004016110889291906123d3565b60206040518083038186803b1580156110a057600080fd5b505afa1580156110b4573d6000803e3d6000fd5b505050506040513d601f19601f820116820180604052508101906110d89190611ec2565b806111b857503073ffffffffffffffffffffffffffffffffffffffff16600960009054906101000a900473ffffffffffffffffffffffffffffffffffffffff1673ffffffffffffffffffffffffffffffffffffffff1663081812fc846040518263ffffffff1660e01b81526004016111509190612719565b60206040518083038186803b15801561116857600080fd5b505afa15801561117c573d6000803e3d6000fd5b505050506040513d601f19601f820116820180604052508101906111a09190611e70565b73ffffffffffffffffffffffffffffffffffffffff16145b6111f7576040517f08c379a00000000000000000000000000000000000000000000000000000000081526004016111ee90612679565b60405180910390fd5b600960009054906101000a900473ffffffffffffffffffffffffffffffffffffffff1673ffffffffffffffffffffffffffffffffffffffff1663f7d9757783836040518363ffffffff1660e01b8152600401611254929190612734565b600060405180830381600087803b15801561126e57600080fd5b505af1158015611282573d6000803e3d6000fd5b505050506001600b600084815260200190815260200160002060006101000a81548160ff021916908315150217905550817fdb1fd9bae40110b73b6592270632b19e60d204d52ee5cd72c60d076e6bdd342f60405160405180910390a26112e7611965565b5050565b6000600560008373ffffffffffffffffffffffffffffffffffffffff1673ffffffffffffffffffffffffffffffffffffffff168152602001908152602001600020549050919050565b6000600b600083815260200190815260200160002060009054906101000a900460ff169050919050565b60008061136961170d565b47611374919061278f565b90506113898382611384866112eb565b611ab0565b915050919050565b662386f26fc1000081565b6000806113a8846116c4565b8473ffffffffffffffffffffffffffffffffffffffff166370a08231306040518263ffffffff1660e01b81526004016113e1919061238f565b60206040518083038186803b1580156113f957600080fd5b505afa15801561140d573d6000803e3d6000fd5b505050506040513d601f19601f820116820180604052508101906114319190611f79565b61143b919061278f565b9050611451838261144c87876106ce565b611ab0565b91505092915050565b611462611915565b600960009054906101000a900473ffffffffffffffffffffffffffffffffffffffff1673ffffffffffffffffffffffffffffffffffffffff16636352211e826040518263ffffffff1660e01b81526004016114bd9190612719565b60206040518083038186803b1580156114d557600080fd5b505afa1580156114e9573d6000803e3d6000fd5b505050506040513d601f19601f8201168201806040525081019061150d9190611e70565b73ffffffffffffffffffffffffffffffffffffffff163373ffffffffffffffffffffffffffffffffffffffff1614806115785750611549610dea565b73ffffffffffffffffffffffffffffffffffffffff163373ffffffffffffffffffffffffffffffffffffffff16145b6115b7576040517f08c379a00000000000000000000000000000000000000000000000000000000081526004016115ae906124f9565b60405180910390fd5b600b600082815260200190815260200160002060009054906101000a900460ff16611617576040517f08c379a000000000000000000000000000000000000000000000000000000000815260040161160e906124d9565b60405180910390fd5b6000600b600083815260200190815260200160002060006101000a81548160ff021916908315150217905550807fc0c55a6edead4433d18cb1e287a0a20a2fa003a6f483bc9823d2e504d70d1c6760405160405180910390a2611678611965565b50565b6000600460008373ffffffffffffffffffffffffffffffffffffffff1673ffffffffffffffffffffffffffffffffffffffff168152602001908152602001600020549050919050565b6000600760008373ffffffffffffffffffffffffffffffffffffffff1673ffffffffffffffffffffffffffffffffffffffff168152602001908152602001600020549050919050565b6000600354905090565b61171f61196e565b600073ffffffffffffffffffffffffffffffffffffffff168173ffffffffffffffffffffffffffffffffffffffff16141561178f576040517f08c379a0000000000000000000000000000000000000000000000000000000008152600401611786906124b9565b60405180910390fd5b611798816119ec565b50565b804710156117de576040517f08c379a00000000000000000000000000000000000000000000000000000000081526004016117d590612559565b60405180910390fd5b60008273ffffffffffffffffffffffffffffffffffffffff16826040516118049061237a565b60006040518083038185875af1925050503d8060008114611841576040519150601f19603f3d011682016040523d82523d6000602084013e611846565b606091505b505090508061188a576040517f08c379a000000000000000000000000000000000000000000000000000000000815260040161188190612539565b60405180910390fd5b505050565b6119108363a9059cbb60e01b84846040516024016118ae929190612433565b604051602081830303815290604052907bffffffffffffffffffffffffffffffffffffffffffffffffffffffff19166020820180517bffffffffffffffffffffffffffffffffffffffffffffffffffffffff8381831617835250505050611b1e565b505050565b6002600154141561195b576040517f08c379a0000000000000000000000000000000000000000000000000000000008152600401611952906126d9565b60405180910390fd5b6002600181905550565b60018081905550565b61197661052e565b73ffffffffffffffffffffffffffffffffffffffff16611994610dea565b73ffffffffffffffffffffffffffffffffffffffff16146119ea576040517f08c379a00000000000000000000000000000000000000000000000000000000081526004016119e190612659565b60405180910390fd5b565b60008060009054906101000a900473ffffffffffffffffffffffffffffffffffffffff169050816000806101000a81548173ffffffffffffffffffffffffffffffffffffffff021916908373ffffffffffffffffffffffffffffffffffffffff1602179055508173ffffffffffffffffffffffffffffffffffffffff168173ffffffffffffffffffffffffffffffffffffffff167f8be0079c531659141344cd1fd0a4f28419497f9722a3daafe3b4186f6b6457e060405160405180910390a35050565b600081600254600460008773ffffffffffffffffffffffffffffffffffffffff1673ffffffffffffffffffffffffffffffffffffffff1681526020019081526020016000205485611b019190612816565b611b0b91906127e5565b611b159190612870565b90509392505050565b6000611b80826040518060400160405280602081526020017f5361666545524332303a206c6f772d6c6576656c2063616c6c206661696c65648152508573ffffffffffffffffffffffffffffffffffffffff16611be69092919063ffffffff16565b9050600081511480611ba2575080806020019051810190611ba19190611ec2565b5b611be1576040517f08c379a0000000000000000000000000000000000000000000000000000000008152600401611bd8906126b9565b60405180910390fd5b505050565b6060611bf58484600085611bfe565b90509392505050565b606082471015611c43576040517f08c379a0000000000000000000000000000000000000000000000000000000008152600401611c3a90612579565b60405180910390fd5b6000808673ffffffffffffffffffffffffffffffffffffffff168587604051611c6c9190612363565b60006040518083038185875af1925050503d8060008114611ca9576040519150601f19603f3d011682016040523d82523d6000602084013e611cae565b606091505b5091509150611cbf87838387611ccb565b92505050949350505050565b60608315611d2e57600083511415611d2657611ce685611d41565b611d25576040517f08c379a0000000000000000000000000000000000000000000000000000000008152600401611d1c90612699565b60405180910390fd5b5b829050611d39565b611d388383611d64565b5b949350505050565b6000808273ffffffffffffffffffffffffffffffffffffffff163b119050919050565b600082511115611d775781518083602001fd5b806040517f08c379a0000000000000000000000000000000000000000000000000000000008152600401611dab9190612477565b60405180910390fd5b600081359050611dc381612e9b565b92915050565b600081519050611dd881612e9b565b92915050565b600081359050611ded81612eb2565b92915050565b600081519050611e0281612ec9565b92915050565b600081359050611e1781612ee0565b92915050565b600081359050611e2c81612ef7565b92915050565b600081519050611e4181612ef7565b92915050565b600060208284031215611e5957600080fd5b6000611e6784828501611db4565b91505092915050565b600060208284031215611e8257600080fd5b6000611e9084828501611dc9565b91505092915050565b600060208284031215611eab57600080fd5b6000611eb984828501611dde565b91505092915050565b600060208284031215611ed457600080fd5b6000611ee284828501611df3565b91505092915050565b600060208284031215611efd57600080fd5b6000611f0b84828501611e08565b91505092915050565b60008060408385031215611f2757600080fd5b6000611f3585828601611e08565b9250506020611f4685828601611db4565b9150509250929050565b600060208284031215611f6257600080fd5b6000611f7084828501611e1d565b91505092915050565b600060208284031215611f8b57600080fd5b6000611f9984828501611e32565b91505092915050565b60008060408385031215611fb557600080fd5b6000611fc385828601611e1d565b9250506020611fd485828601611e1d565b9150509250929050565b611fe781612910565b82525050565b611ff6816128a4565b82525050565b612005816128c8565b82525050565b60006120168261275d565b6120208185612773565b9350612030818560208601612946565b80840191505092915050565b600061204782612768565b612051818561277e565b9350612061818560208601612946565b61206a816129d7565b840191505092915050565b600061208260208361277e565b915061208d826129e8565b602082019050919050565b60006120a560268361277e565b91506120b082612a11565b604082019050919050565b60006120c8600e8361277e565b91506120d382612a60565b602082019050919050565b60006120eb60298361277e565b91506120f682612a89565b604082019050919050565b600061210e60268361277e565b915061211982612ad8565b604082019050919050565b6000612131603a8361277e565b915061213c82612b27565b604082019050919050565b6000612154601d8361277e565b915061215f82612b76565b602082019050919050565b600061217760268361277e565b915061218282612b9f565b604082019050919050565b600061219a602b8361277e565b91506121a582612bee565b604082019050919050565b60006121bd601f8361277e565b91506121c882612c3d565b602082019050919050565b60006121e060128361277e565b91506121eb82612c66565b602082019050919050565b6000612203602b8361277e565b915061220e82612c8f565b604082019050919050565b600061222660278361277e565b915061223182612cde565b604082019050919050565b600061224960178361277e565b915061225482612d2d565b602082019050919050565b600061226c60208361277e565b915061227782612d56565b602082019050919050565b600061228f602a8361277e565b915061229a82612d7f565b604082019050919050565b60006122b2600083612773565b91506122bd82612dce565b600082019050919050565b60006122d5601d8361277e565b91506122e082612dd1565b602082019050919050565b60006122f8602a8361277e565b915061230382612dfa565b604082019050919050565b600061231b601f8361277e565b915061232682612e49565b602082019050919050565b600061233e60188361277e565b915061234982612e72565b602082019050919050565b61235d81612906565b82525050565b600061236f828461200b565b915081905092915050565b6000612385826122a5565b9150819050919050565b60006020820190506123a46000830184611fed565b92915050565b60006040820190506123bf6000830185611fde565b6123cc6020830184612354565b9392505050565b60006040820190506123e86000830185611fed565b6123f56020830184611fed565b9392505050565b60006060820190506124116000830186611fed565b61241e6020830185611fed565b61242b6040830184612354565b949350505050565b60006040820190506124486000830185611fed565b6124556020830184612354565b9392505050565b60006020820190506124716000830184611ffc565b92915050565b60006020820190508181036000830152612491818461203c565b905092915050565b600060208201905081810360008301526124b281612075565b9050919050565b600060208201905081810360008301526124d281612098565b9050919050565b600060208201905081810360008301526124f2816120bb565b9050919050565b60006020820190508181036000830152612512816120de565b9050919050565b6000602082019050818103600083015261253281612101565b9050919050565b6000602082019050818103600083015261255281612124565b9050919050565b6000602082019050818103600083015261257281612147565b9050919050565b600060208201905081810360008301526125928161216a565b9050919050565b600060208201905081810360008301526125b28161218d565b9050919050565b600060208201905081810360008301526125d2816121b0565b9050919050565b600060208201905081810360008301526125f2816121d3565b9050919050565b60006020820190508181036000830152612612816121f6565b9050919050565b6000602082019050818103600083015261263281612219565b9050919050565b600060208201905081810360008301526126528161223c565b9050919050565b600060208201905081810360008301526126728161225f565b9050919050565b6000602082019050818103600083015261269281612282565b9050919050565b600060208201905081810360008301526126b2816122c8565b9050919050565b600060208201905081810360008301526126d2816122eb565b9050919050565b600060208201905081810360008301526126f28161230e565b9050919050565b6000602082019050818103600083015261271281612331565b9050919050565b600060208201905061272e6000830184612354565b92915050565b60006040820190506127496000830185612354565b6127566020830184612354565b9392505050565b600081519050919050565b600081519050919050565b600081905092915050565b600082825260208201905092915050565b600061279a82612906565b91506127a583612906565b9250827fffffffffffffffffffffffffffffffffffffffffffffffffffffffffffffffff038211156127da576127d9612979565b5b828201905092915050565b60006127f082612906565b91506127fb83612906565b92508261280b5761280a6129a8565b5b828204905092915050565b600061282182612906565b915061282c83612906565b9250817fffffffffffffffffffffffffffffffffffffffffffffffffffffffffffffffff048311821515161561286557612864612979565b5b828202905092915050565b600061287b82612906565b915061288683612906565b92508282101561289957612898612979565b5b828203905092915050565b60006128af826128e6565b9050919050565b60006128c1826128e6565b9050919050565b60008115159050919050565b60006128df826128a4565b9050919050565b600073ffffffffffffffffffffffffffffffffffffffff82169050919050565b6000819050919050565b600061291b82612922565b9050919050565b600061292d82612934565b9050919050565b600061293f826128e6565b9050919050565b60005b83811015612964578082015181840152602081019050612949565b83811115612973576000848401525b50505050565b7f4e487b7100000000000000000000000000000000000000000000000000000000600052601160045260246000fd5b7f4e487b7100000000000000000000000000000000000000000000000000000000600052601260045260246000fd5b6000601f19601f8301169050919050565b7f5072696365206d757374206265206174206c65617374204d494e5f5052494345600082015250565b7f4f776e61626c653a206e6577206f776e657220697320746865207a65726f206160008201527f6464726573730000000000000000000000000000000000000000000000000000602082015250565b7f4e4654206e6f74206c6973746564000000000000000000000000000000000000600082015250565b7f43616c6c6572206973206e6f74206f776e6572206f66204e4654206f72206d6160008201527f726b6574706c6163650000000000000000000000000000000000000000000000602082015250565b7f5061796d656e7453706c69747465723a206163636f756e7420686173206e6f2060008201527f7368617265730000000000000000000000000000000000000000000000000000602082015250565b7f416464726573733a20756e61626c6520746f2073656e642076616c75652c207260008201527f6563697069656e74206d61792068617665207265766572746564000000000000602082015250565b7f416464726573733a20696e73756666696369656e742062616c616e6365000000600082015250565b7f416464726573733a20696e73756666696369656e742062616c616e636520666f60008201527f722063616c6c0000000000000000000000000000000000000000000000000000602082015250565b7f5061796d656e7453706c69747465723a206163636f756e74206973206e6f742060008201527f647565207061796d656e74000000000000000000000000000000000000000000602082015250565b7f5072696365206d757374206e6f7420657863656564204d41585f505249434500600082015250565b7f4e465420616c7265616479206c69737465640000000000000000000000000000600082015250565b7f50726963652073686f756c6420626520686967686572207468616e20746f746160008201527f6c20726f79616c74696573000000000000000000000000000000000000000000602082015250565b7f53656e742076616c756520646f6573206e6f74206d6174636820746865204e4660008201527f5420707269636500000000000000000000000000000000000000000000000000602082015250565b7f4e4654206e6f74206c697374656420666f722073616c65000000000000000000600082015250565b7f4f776e61626c653a2063616c6c6572206973206e6f7420746865206f776e6572600082015250565b7f4d75737420617070726f7665206d61726b6574706c61636520746f206d616e6160008201527f676520746865204e465400000000000000000000000000000000000000000000602082015250565b50565b7f416464726573733a2063616c6c20746f206e6f6e2d636f6e7472616374000000600082015250565b7f5361666545524332303a204552433230206f7065726174696f6e20646964206e60008201527f6f74207375636365656400000000000000000000000000000000000000000000602082015250565b7f5265656e7472616e637947756172643a207265656e7472616e742063616c6c00600082015250565b7f4d757374206265206f776e6572206f6620746865204e46540000000000000000600082015250565b612ea4816128a4565b8114612eaf57600080fd5b50565b612ebb816128b6565b8114612ec657600080fd5b50565b612ed2816128c8565b8114612edd57600080fd5b50565b612ee9816128d4565b8114612ef457600080fd5b50565b612f0081612906565b8114612f0b57600080fd5b5056fea264697066735822122067503742209542cf6db83a7b3c48e01a140f64ece144e1e363ab0db2eb11eb7f64736f6c63430008010033",
  "linkReferences": {},
  "deployedLinkReferences": {}
}