{
  "_format": "hh-sol-artifact-1",
  "contractName": "ERC721Collections",
  "sourceName": "contracts/ERC721Collections.sol",
  "abi": [
    {
      "inputs": [
        {
          "internalType": "string",
          "name": "publicCollectionURI",
          "type": "string"
        }
      ],
      "stateMutability": "nonpayable",
      "type": "constructor"
    },
    {
      "anonymous": false,
      "inputs": [
        {
          "indexed": true,
          "internalType": "address",
          "name": "owner",
          "type": "address"
        },
        {
          "indexed": true,
          "internalType": "address",
          "name": "approved",
          "type": "address"
        },
        {
          "indexed": true,
          "internalType": "uint256",
          "name": "tokenId",
          "type": "uint256"
        }
      ],
      "name": "Approval",
      "type": "event"
    },
    {
      "anonymous": false,
      "inputs": [
        {
          "indexed": true,
          "internalType": "address",
          "name": "owner",
          "type": "address"
        },
        {
          "indexed": true,
          "internalType": "address",
          "name": "operator",
          "type": "address"
        },
        {
          "indexed": false,
          "internalType": "bool",
          "name": "approved",
          "type": "bool"
        }
      ],
      "name": "ApprovalForAll",
      "type": "event"
    },
    {
      "anonymous": false,
      "inputs": [
        {
          "indexed": false,
          "internalType": "uint256",
          "name": "_fromTokenId",
          "type": "uint256"
        },
        {
          "indexed": false,
          "internalType": "uint256",
          "name": "_toTokenId",
          "type": "uint256"
        }
      ],
      "name": "BatchMetadataUpdate",
      "type": "event"
    },
    {
      "anonymous": false,
      "inputs": [
        {
          "indexed": false,
          "internalType": "uint256",
          "name": "id",
          "type": "uint256"
        },
        {
          "indexed": false,
          "internalType": "string",
          "name": "uri",
          "type": "string"
        }
      ],
      "name": "CollectionCreated",
      "type": "event"
    },
    {
      "anonymous": false,
      "inputs": [
        {
          "indexed": false,
          "internalType": "uint256",
          "name": "_tokenId",
          "type": "uint256"
        }
      ],
      "name": "MetadataUpdate",
      "type": "event"
    },
    {
      "anonymous": false,
      "inputs": [
        {
          "indexed": false,
          "internalType": "uint256",
          "name": "collectionId",
          "type": "uint256"
        },
        {
          "indexed": false,
          "internalType": "uint256",
          "name": "newMintPrice",
          "type": "uint256"
        }
      ],
      "name": "MintPriceChanged",
      "type": "event"
    },
    {
      "anonymous": false,
      "inputs": [
        {
          "indexed": true,
          "internalType": "address",
          "name": "previousOwner",
          "type": "address"
        },
        {
          "indexed": true,
          "internalType": "address",
          "name": "newOwner",
          "type": "address"
        }
      ],
      "name": "OwnershipTransferred",
      "type": "event"
    },
    {
      "anonymous": false,
      "inputs": [
        {
          "indexed": false,
          "internalType": "uint256",
          "name": "tokenId",
          "type": "uint256"
        },
        {
          "indexed": false,
          "internalType": "uint256",
          "name": "price",
          "type": "uint256"
        }
      ],
      "name": "PriceSet",
      "type": "event"
    },
    {
      "anonymous": false,
      "inputs": [
        {
          "indexed": false,
          "internalType": "uint256",
          "name": "tokenId",
          "type": "uint256"
        },
        {
          "indexed": false,
          "internalType": "uint256",
          "name": "collectionId",
          "type": "uint256"
        }
      ],
      "name": "TokenMinted",
      "type": "event"
    },
    {
      "anonymous": false,
      "inputs": [
        {
          "indexed": true,
          "internalType": "address",
          "name": "from",
          "type": "address"
        },
        {
          "indexed": true,
          "internalType": "address",
          "name": "to",
          "type": "address"
        },
        {
          "indexed": true,
          "internalType": "uint256",
          "name": "tokenId",
          "type": "uint256"
        }
      ],
      "name": "Transfer",
      "type": "event"
    },
    {
      "inputs": [],
      "name": "MIN_PRICE",
      "outputs": [
        {
          "internalType": "uint256",
          "name": "",
          "type": "uint256"
        }
      ],
      "stateMutability": "view",
      "type": "function"
    },
    {
      "inputs": [
        {
          "internalType": "address",
          "name": "to",
          "type": "address"
        },
        {
          "internalType": "uint256",
          "name": "tokenId",
          "type": "uint256"
        }
      ],
      "name": "approve",
      "outputs": [],
      "stateMutability": "nonpayable",
      "type": "function"
    },
    {
      "inputs": [
        {
          "internalType": "address",
          "name": "owner",
          "type": "address"
        }
      ],
      "name": "balanceOf",
      "outputs": [
        {
          "internalType": "uint256",
          "name": "",
          "type": "uint256"
        }
      ],
      "stateMutability": "view",
      "type": "function"
    },
    {
      "inputs": [
        {
          "internalType": "uint256",
          "name": "collectionId",
          "type": "uint256"
        },
        {
          "internalType": "uint256",
          "name": "newMintPrice",
          "type": "uint256"
        }
      ],
      "name": "changeMintPrice",
      "outputs": [],
      "stateMutability": "nonpayable",
      "type": "function"
    },
    {
      "inputs": [
        {
          "internalType": "address",
          "name": "",
          "type": "address"
        }
      ],
      "name": "collectionsCreated",
      "outputs": [
        {
          "internalType": "uint256",
          "name": "",
          "type": "uint256"
        }
      ],
      "stateMutability": "view",
      "type": "function"
    },
    {
      "inputs": [
        {
          "internalType": "string",
          "name": "uri",
          "type": "string"
        },
        {
          "internalType": "uint256",
          "name": "mintDate",
          "type": "uint256"
        },
        {
          "internalType": "uint256",
          "name": "mintPrice",
          "type": "uint256"
        },
        {
          "internalType": "uint256",
          "name": "royaltyPercent",
          "type": "uint256"
        }
      ],
      "name": "createCollection",
      "outputs": [
        {
          "internalType": "uint256",
          "name": "",
          "type": "uint256"
        }
      ],
      "stateMutability": "nonpayable",
      "type": "function"
    },
    {
      "inputs": [
        {
          "internalType": "uint256",
          "name": "offset",
          "type": "uint256"
        },
        {
          "internalType": "uint256",
          "name": "limit",
          "type": "uint256"
        }
      ],
      "name": "getAllCollections",
      "outputs": [
        {
          "components": [
            {
              "internalType": "string",
              "name": "uri",
              "type": "string"
            },
            {
              "internalType": "uint256",
              "name": "id",
              "type": "uint256"
            },
            {
              "internalType": "address",
              "name": "owner",
              "type": "address"
            },
            {
              "internalType": "uint256",
              "name": "mintDate",
              "type": "uint256"
            },
            {
              "internalType": "uint256",
              "name": "mintPrice",
              "type": "uint256"
            },
            {
              "internalType": "uint256",
              "name": "royaltyPercent",
              "type": "uint256"
            }
          ],
          "internalType": "struct ERC721Collections.Collection[]",
          "name": "",
          "type": "tuple[]"
        }
      ],
      "stateMutability": "view",
      "type": "function"
    },
    {
      "inputs": [
        {
          "internalType": "uint256",
          "name": "tokenId",
          "type": "uint256"
        }
      ],
      "name": "getApproved",
      "outputs": [
        {
          "internalType": "address",
          "name": "",
          "type": "address"
        }
      ],
      "stateMutability": "view",
      "type": "function"
    },
    {
      "inputs": [
        {
          "internalType": "uint256",
          "name": "id",
          "type": "uint256"
        }
      ],
      "name": "getCollection",
      "outputs": [
        {
          "components": [
            {
              "internalType": "string",
              "name": "uri",
              "type": "string"
            },
            {
              "internalType": "uint256",
              "name": "id",
              "type": "uint256"
            },
            {
              "internalType": "address",
              "name": "owner",
              "type": "address"
            },
            {
              "internalType": "uint256",
              "name": "mintDate",
              "type": "uint256"
            },
            {
              "internalType": "uint256",
              "name": "mintPrice",
              "type": "uint256"
            },
            {
              "internalType": "uint256",
              "name": "royaltyPercent",
              "type": "uint256"
            }
          ],
          "internalType": "struct ERC721Collections.Collection",
          "name": "",
          "type": "tuple"
        }
      ],
      "stateMutability": "view",
      "type": "function"
    },
    {
      "inputs": [
        {
          "internalType": "uint256",
          "name": "tokenId",
          "type": "uint256"
        }
      ],
      "name": "getCollectionOfToken",
      "outputs": [
        {
          "components": [
            {
              "internalType": "string",
              "name": "uri",
              "type": "string"
            },
            {
              "internalType": "uint256",
              "name": "id",
              "type": "uint256"
            },
            {
              "internalType": "address",
              "name": "owner",
              "type": "address"
            },
            {
              "internalType": "uint256",
              "name": "mintDate",
              "type": "uint256"
            },
            {
              "internalType": "uint256",
              "name": "mintPrice",
              "type": "uint256"
            },
            {
              "internalType": "uint256",
              "name": "royaltyPercent",
              "type": "uint256"
            }
          ],
          "internalType": "struct ERC721Collections.Collection",
          "name": "",
          "type": "tuple"
        }
      ],
      "stateMutability": "view",
      "type": "function"
    },
    {
      "inputs": [
        {
          "internalType": "uint256",
          "name": "collectionId",
          "type": "uint256"
        }
      ],
      "name": "getCollectionOwner",
      "outputs": [
        {
          "internalType": "address",
          "name": "",
          "type": "address"
        }
      ],
      "stateMutability": "view",
      "type": "function"
    },
    {
      "inputs": [
        {
          "internalType": "uint256",
          "name": "collectionId",
          "type": "uint256"
        },
        {
          "internalType": "uint256",
          "name": "startIndex",
          "type": "uint256"
        },
        {
          "internalType": "uint256",
          "name": "pageSize",
          "type": "uint256"
        }
      ],
      "name": "getNFTsInCollection",
      "outputs": [
        {
          "internalType": "uint256[]",
          "name": "",
          "type": "uint256[]"
        }
      ],
      "stateMutability": "view",
      "type": "function"
    },
    {
      "inputs": [
        {
          "internalType": "address",
          "name": "owner",
          "type": "address"
        },
        {
          "internalType": "address",
          "name": "operator",
          "type": "address"
        }
      ],
      "name": "isApprovedForAll",
      "outputs": [
        {
          "internalType": "bool",
          "name": "",
          "type": "bool"
        }
      ],
      "stateMutability": "view",
      "type": "function"
    },
    {
      "inputs": [
        {
          "internalType": "address",
          "name": "",
          "type": "address"
        }
      ],
      "name": "lastCollectionTimestamp",
      "outputs": [
        {
          "internalType": "uint256",
          "name": "",
          "type": "uint256"
        }
      ],
      "stateMutability": "view",
      "type": "function"
    },
    {
      "inputs": [
        {
          "internalType": "uint256",
          "name": "collectionId",
          "type": "uint256"
        },
        {
          "internalType": "string",
          "name": "tokenURI",
          "type": "string"
        },
        {
          "internalType": "uint256",
          "name": "price",
          "type": "uint256"
        },
        {
          "internalType": "bool",
          "name": "isMintToMarketplace",
          "type": "bool"
        }
      ],
      "name": "mint",
      "outputs": [
        {
          "internalType": "uint256",
          "name": "",
          "type": "uint256"
        }
      ],
      "stateMutability": "nonpayable",
      "type": "function"
    },
    {
      "inputs": [
        {
          "internalType": "uint256",
          "name": "collectionId",
          "type": "uint256"
        },
        {
          "internalType": "address",
          "name": "to",
          "type": "address"
        },
        {
          "internalType": "string",
          "name": "tokenURI",
          "type": "string"
        },
        {
          "internalType": "uint256",
          "name": "price",
          "type": "uint256"
        }
      ],
      "name": "mintToCollection",
      "outputs": [
        {
          "internalType": "uint256",
          "name": "tokenId",
          "type": "uint256"
        },
        {
          "internalType": "address",
          "name": "collectionOwner",
          "type": "address"
        }
      ],
      "stateMutability": "payable",
      "type": "function"
    },
    {
      "inputs": [],
      "name": "name",
      "outputs": [
        {
          "internalType": "string",
          "name": "",
          "type": "string"
        }
      ],
      "stateMutability": "view",
      "type": "function"
    },
    {
      "inputs": [],
      "name": "owner",
      "outputs": [
        {
          "internalType": "address",
          "name": "",
          "type": "address"
        }
      ],
      "stateMutability": "view",
      "type": "function"
    },
    {
      "inputs": [
        {
          "internalType": "uint256",
          "name": "tokenId",
          "type": "uint256"
        }
      ],
      "name": "ownerOf",
      "outputs": [
        {
          "internalType": "address",
          "name": "",
          "type": "address"
        }
      ],
      "stateMutability": "view",
      "type": "function"
    },
    {
      "inputs": [],
      "name": "renounceOwnership",
      "outputs": [],
      "stateMutability": "nonpayable",
      "type": "function"
    },
    {
      "inputs": [
        {
          "internalType": "uint256",
          "name": "tokenId",
          "type": "uint256"
        },
        {
          "internalType": "uint256",
          "name": "salePrice",
          "type": "uint256"
        }
      ],
      "name": "royaltyInfo",
      "outputs": [
        {
          "internalType": "address",
          "name": "receiver",
          "type": "address"
        },
        {
          "internalType": "uint256",
          "name": "royaltyAmount",
          "type": "uint256"
        }
      ],
      "stateMutability": "view",
      "type": "function"
    },
    {
      "inputs": [
        {
          "internalType": "address",
          "name": "from",
          "type": "address"
        },
        {
          "internalType": "address",
          "name": "to",
          "type": "address"
        },
        {
          "internalType": "uint256",
          "name": "tokenId",
          "type": "uint256"
        }
      ],
      "name": "safeTransferFrom",
      "outputs": [],
      "stateMutability": "nonpayable",
      "type": "function"
    },
    {
      "inputs": [
        {
          "internalType": "address",
          "name": "from",
          "type": "address"
        },
        {
          "internalType": "address",
          "name": "to",
          "type": "address"
        },
        {
          "internalType": "uint256",
          "name": "tokenId",
          "type": "uint256"
        },
        {
          "internalType": "bytes",
          "name": "data",
          "type": "bytes"
        }
      ],
      "name": "safeTransferFrom",
      "outputs": [],
      "stateMutability": "nonpayable",
      "type": "function"
    },
    {
      "inputs": [
        {
          "internalType": "address",
          "name": "operator",
          "type": "address"
        },
        {
          "internalType": "bool",
          "name": "approved",
          "type": "bool"
        }
      ],
      "name": "setApprovalForAll",
      "outputs": [],
      "stateMutability": "nonpayable",
      "type": "function"
    },
    {
      "inputs": [
        {
          "internalType": "address payable",
          "name": "marketplaceAddress",
          "type": "address"
        }
      ],
      "name": "setMarketplace",
      "outputs": [],
      "stateMutability": "nonpayable",
      "type": "function"
    },
    {
      "inputs": [
        {
          "internalType": "bytes4",
          "name": "interfaceId",
          "type": "bytes4"
        }
      ],
      "name": "supportsInterface",
      "outputs": [
        {
          "internalType": "bool",
          "name": "",
          "type": "bool"
        }
      ],
      "stateMutability": "view",
      "type": "function"
    },
    {
      "inputs": [],
      "name": "symbol",
      "outputs": [
        {
          "internalType": "string",
          "name": "",
          "type": "string"
        }
      ],
      "stateMutability": "view",
      "type": "function"
    },
    {
      "inputs": [
        {
          "internalType": "uint256",
          "name": "tokenId",
          "type": "uint256"
        }
      ],
      "name": "tokenURI",
      "outputs": [
        {
          "internalType": "string",
          "name": "",
          "type": "string"
        }
      ],
      "stateMutability": "view",
      "type": "function"
    },
    {
      "inputs": [
        {
          "internalType": "address",
          "name": "from",
          "type": "address"
        },
        {
          "internalType": "address",
          "name": "to",
          "type": "address"
        },
        {
          "internalType": "uint256",
          "name": "tokenId",
          "type": "uint256"
        }
      ],
      "name": "transferFrom",
      "outputs": [],
      "stateMutability": "nonpayable",
      "type": "function"
    },
    {
      "inputs": [
        {
          "internalType": "address",
          "name": "newOwner",
          "type": "address"
        }
      ],
      "name": "transferOwnership",
      "outputs": [],
      "stateMutability": "nonpayable",
      "type": "function"
    }
  ],
  "bytecode": "0x60806040523480156200001157600080fd5b5060405162006401380380620064018339818101604052810190620000379190620006d8565b6040518060400160405280601181526020017f455243373231436f6c6c656374696f6e730000000000000000000000000000008152506040518060400160405280600381526020017f53545200000000000000000000000000000000000000000000000000000000008152508160009080519060200190620000bb929190620005b6565b508060019080519060200190620000d4929190620005b6565b505050620000f7620000eb6200012b60201b60201c565b6200013360201b60201c565b6200010c8142600080620001f960201b60201c565b506200012460086200059260201b620025e71760201c565b5062000bb5565b600033905090565b6000600760009054906101000a900473ffffffffffffffffffffffffffffffffffffffff16905081600760006101000a81548173ffffffffffffffffffffffffffffffffffffffff021916908373ffffffffffffffffffffffffffffffffffffffff1602179055508173ffffffffffffffffffffffffffffffffffffffff168173ffffffffffffffffffffffffffffffffffffffff167f8be0079c531659141344cd1fd0a4f28419497f9722a3daafe3b4186f6b6457e060405160405180910390a35050565b60006103e7600e60003373ffffffffffffffffffffffffffffffffffffffff1673ffffffffffffffffffffffffffffffffffffffff168152602001908152602001600020541062000281576040517f08c379a0000000000000000000000000000000000000000000000000000000008152600401620002789062000806565b60405180910390fd5b42603c600f60003373ffffffffffffffffffffffffffffffffffffffff1673ffffffffffffffffffffffffffffffffffffffff16815260200190815260200160002054620002d09190620008f9565b111562000314576040517f08c379a00000000000000000000000000000000000000000000000000000000081526004016200030b90620007e4565b60405180910390fd5b600a8211156200035b576040517f08c379a0000000000000000000000000000000000000000000000000000000008152600401620003529062000828565b60405180910390fd5b6200037260096200059260201b620025e71760201c565b6040518060c001604052808681526020016200039a6009620005a860201b620025fd1760201c565b81526020013373ffffffffffffffffffffffffffffffffffffffff16815260200185815260200184815260200183815250600b6000620003e66009620005a860201b620025fd1760201c565b8152602001908152602001600020600082015181600001908051906020019062000412929190620005b6565b506020820151816001015560408201518160020160006101000a81548173ffffffffffffffffffffffffffffffffffffffff021916908373ffffffffffffffffffffffffffffffffffffffff160217905550606082015181600301556080820151816004015560a08201518160050155905050600e60003373ffffffffffffffffffffffffffffffffffffffff1673ffffffffffffffffffffffffffffffffffffffff1681526020019081526020016000206000815480929190620004d79062000a02565b919050555042600f60003373ffffffffffffffffffffffffffffffffffffffff1673ffffffffffffffffffffffffffffffffffffffff168152602001908152602001600020819055507f62b7b5ba11bfc95430fab0460fdf99b9c8fbc2b3a6a48caf79c3ee1b591c0336620005586009620005a860201b620025fd1760201c565b86604051620005699291906200084a565b60405180910390a1620005886009620005a860201b620025fd1760201c565b9050949350505050565b6001816000016000828254019250508190555050565b600081600001549050919050565b828054620005c49062000996565b90600052602060002090601f016020900481019282620005e8576000855562000634565b82601f106200060357805160ff191683800117855562000634565b8280016001018555821562000634579182015b828111156200063357825182559160200191906001019062000616565b5b50905062000643919062000647565b5090565b5b808211156200066257600081600090555060010162000648565b5090565b60006200067d6200067784620008a7565b6200087e565b9050828152602081018484840111156200069657600080fd5b620006a384828562000960565b509392505050565b600082601f830112620006bd57600080fd5b8151620006cf84826020860162000666565b91505092915050565b600060208284031215620006eb57600080fd5b600082015167ffffffffffffffff8111156200070657600080fd5b6200071484828501620006ab565b91505092915050565b60006200072a82620008dd565b620007368185620008e8565b93506200074881856020860162000960565b620007538162000add565b840191505092915050565b60006200076d602c83620008e8565b91506200077a8262000aee565b604082019050919050565b600062000794601783620008e8565b9150620007a18262000b3d565b602082019050919050565b6000620007bb602b83620008e8565b9150620007c88262000b66565b604082019050919050565b620007de8162000956565b82525050565b60006020820190508181036000830152620007ff816200075e565b9050919050565b60006020820190508181036000830152620008218162000785565b9050919050565b600060208201905081810360008301526200084381620007ac565b9050919050565b6000604082019050620008616000830185620007d3565b81810360208301526200087581846200071d565b90509392505050565b60006200088a6200089d565b9050620008988282620009cc565b919050565b6000604051905090565b600067ffffffffffffffff821115620008c557620008c462000aae565b5b620008d08262000add565b9050602081019050919050565b600081519050919050565b600082825260208201905092915050565b6000620009068262000956565b9150620009138362000956565b9250827fffffffffffffffffffffffffffffffffffffffffffffffffffffffffffffffff038211156200094b576200094a62000a50565b5b828201905092915050565b6000819050919050565b60005b838110156200098057808201518184015260208101905062000963565b8381111562000990576000848401525b50505050565b60006002820490506001821680620009af57607f821691505b60208210811415620009c657620009c562000a7f565b5b50919050565b620009d78262000add565b810181811067ffffffffffffffff82111715620009f957620009f862000aae565b5b80604052505050565b600062000a0f8262000956565b91507fffffffffffffffffffffffffffffffffffffffffffffffffffffffffffffffff82141562000a455762000a4462000a50565b5b600182019050919050565b7f4e487b7100000000000000000000000000000000000000000000000000000000600052601160045260246000fd5b7f4e487b7100000000000000000000000000000000000000000000000000000000600052602260045260246000fd5b7f4e487b7100000000000000000000000000000000000000000000000000000000600052604160045260246000fd5b6000601f19601f8301169050919050565b7f4d7573742077616974206265666f7265206372656174696e6720616e6f74686560008201527f7220636f6c6c656374696f6e0000000000000000000000000000000000000000602082015250565b7f4d617820636f6c6c656374696f6e732072656163686564000000000000000000600082015250565b7f526f79616c746965732070657263656e746167652073686f756c64206265206c60008201527f657373207468616e203130000000000000000000000000000000000000000000602082015250565b61583c8062000bc56000396000f3fe6080604052600436106101cd5760003560e01c8063715018a6116100f7578063ad9f20a611610095578063d08b28ea11610064578063d08b28ea146106ff578063da0277fd1461073c578063e985e9c514610779578063f2fde38b146107b6576101cd565b8063ad9f20a614610631578063b88d4fde1461065c578063bd6fbad914610685578063c87b56dd146106c2576101cd565b806382a17cdb116100d157806382a17cdb146105755780638da5cb5b146105b257806395d89b41146105dd578063a22cb46514610608576101cd565b8063715018a6146104f857806373ad6c2d1461050f578063822f3e5d14610538576101cd565b8063394120c01161016f5780636313a3e81161013e5780636313a3e8146104245780636352211e1461045557806370342d0c1461049257806370a08231146104bb576101cd565b8063394120c01461034457806342842e0e1461038157806344ce938e146103aa5780635a1f3c28146103e7576101cd565b8063095ea7b3116101ab578063095ea7b314610277578063118970ee146102a057806323b872dd146102dd5780632a55205a14610306576101cd565b806301ffc9a7146101d257806306fdde031461020f578063081812fc1461023a575b600080fd5b3480156101de57600080fd5b506101f960048036038101906101f49190613c54565b6107df565b60405161020691906146f2565b60405180910390f35b34801561021b57600080fd5b50610224610859565b604051610231919061470d565b60405180910390f35b34801561024657600080fd5b50610261600480360381019061025c9190613d21565b6108eb565b60405161026e919061461e565b60405180910390f35b34801561028357600080fd5b5061029e60048036038101906102999190613c18565b610931565b005b3480156102ac57600080fd5b506102c760048036038101906102c29190613dc5565b610a49565b6040516102d49190614af1565b60405180910390f35b3480156102e957600080fd5b5061030460048036038101906102ff9190613b12565b610d85565b005b34801561031257600080fd5b5061032d60048036038101906103289190613e40565b610de5565b60405161033b929190614685565b60405180910390f35b34801561035057600080fd5b5061036b60048036038101906103669190613d21565b610e28565b604051610378919061461e565b60405180910390f35b34801561038d57600080fd5b506103a860048036038101906103a39190613b12565b610e68565b005b3480156103b657600080fd5b506103d160048036038101906103cc9190613ca6565b610e88565b6040516103de9190614af1565b60405180910390f35b3480156103f357600080fd5b5061040e60048036038101906104099190613d21565b6111cf565b60405161041b9190614acf565b60405180910390f35b61043e60048036038101906104399190613d4a565b61130c565b60405161044c929190614b0c565b60405180910390f35b34801561046157600080fd5b5061047c60048036038101906104779190613d21565b61162e565b604051610489919061461e565b60405180910390f35b34801561049e57600080fd5b506104b960048036038101906104b49190613e40565b6116b5565b005b3480156104c757600080fd5b506104e260048036038101906104dd9190613a84565b611855565b6040516104ef9190614af1565b60405180910390f35b34801561050457600080fd5b5061050d61190d565b005b34801561051b57600080fd5b5061053660048036038101906105319190613aad565b611921565b005b34801561054457600080fd5b5061055f600480360381019061055a9190613e40565b611a6e565b60405161056c91906146ae565b60405180910390f35b34801561058157600080fd5b5061059c60048036038101906105979190613a84565b611e3f565b6040516105a99190614af1565b60405180910390f35b3480156105be57600080fd5b506105c7611e57565b6040516105d4919061461e565b60405180910390f35b3480156105e957600080fd5b506105f2611e81565b6040516105ff919061470d565b60405180910390f35b34801561061457600080fd5b5061062f600480360381019061062a9190613bdc565b611f13565b005b34801561063d57600080fd5b50610646611f29565b6040516106539190614af1565b60405180910390f35b34801561066857600080fd5b50610683600480360381019061067e9190613b61565b611f34565b005b34801561069157600080fd5b506106ac60048036038101906106a79190613a84565b611f96565b6040516106b99190614af1565b60405180910390f35b3480156106ce57600080fd5b506106e960048036038101906106e49190613d21565b611fae565b6040516106f6919061470d565b60405180910390f35b34801561070b57600080fd5b5061072660048036038101906107219190613e7c565b6120c1565b60405161073391906146d0565b60405180910390f35b34801561074857600080fd5b50610763600480360381019061075e9190613d21565b612322565b6040516107709190614acf565b60405180910390f35b34801561078557600080fd5b506107a0600480360381019061079b9190613ad6565b6124cf565b6040516107ad91906146f2565b60405180910390f35b3480156107c257600080fd5b506107dd60048036038101906107d89190613a84565b612563565b005b60007f2a55205a000000000000000000000000000000000000000000000000000000007bffffffffffffffffffffffffffffffffffffffffffffffffffffffff1916827bffffffffffffffffffffffffffffffffffffffffffffffffffffffff1916148061085257506108518261260b565b5b9050919050565b60606000805461086890614eef565b80601f016020809104026020016040519081016040528092919081815260200182805461089490614eef565b80156108e15780601f106108b6576101008083540402835291602001916108e1565b820191906000526020600020905b8154815290600101906020018083116108c457829003601f168201915b5050505050905090565b60006108f68261266c565b6004600083815260200190815260200160002060009054906101000a900473ffffffffffffffffffffffffffffffffffffffff169050919050565b600061093c8261162e565b90508073ffffffffffffffffffffffffffffffffffffffff168373ffffffffffffffffffffffffffffffffffffffff1614156109ad576040517f08c379a00000000000000000000000000000000000000000000000000000000081526004016109a490614a2f565b60405180910390fd5b8073ffffffffffffffffffffffffffffffffffffffff166109cc6126b7565b73ffffffffffffffffffffffffffffffffffffffff1614806109fb57506109fa816109f56126b7565b6124cf565b5b610a3a576040517f08c379a0000000000000000000000000000000000000000000000000000000008152600401610a3190614a4f565b60405180910390fd5b610a4483836126bf565b505050565b600080600b6000878152602001908152602001600020600101541415610aa4576040517f08c379a0000000000000000000000000000000000000000000000000000000008152600401610a9b9061486f565b60405180910390fd5b8115610af557662386f26fc10000831015610af4576040517f08c379a0000000000000000000000000000000000000000000000000000000008152600401610aeb906147ef565b60405180910390fd5b5b6001851480610b6557503373ffffffffffffffffffffffffffffffffffffffff16600b600087815260200190815260200160002060020160009054906101000a900473ffffffffffffffffffffffffffffffffffffffff1673ffffffffffffffffffffffffffffffffffffffff16145b610ba4576040517f08c379a0000000000000000000000000000000000000000000000000000000008152600401610b9b9061488f565b60405180910390fd5b600b600086815260200190815260200160002060030154421015610bfd576040517f08c379a0000000000000000000000000000000000000000000000000000000008152600401610bf490614a6f565b60405180910390fd5b610c2a600a60009054906101000a900473ffffffffffffffffffffffffffffffffffffffff166001611f13565b6000610c3660086125fd565b9050610c4260086125e7565b610c4c3382612778565b610c568186612996565b85600d600083815260200190815260200160002081905550600c60008781526020019081526020016000208190806001815401808255809150506001900390600052602060002001600090919091909150558215610d4057600a60009054906101000a900473ffffffffffffffffffffffffffffffffffffffff1673ffffffffffffffffffffffffffffffffffffffff166302998cf38286306040518463ffffffff1660e01b8152600401610d0d93929190614b8e565b600060405180830381600087803b158015610d2757600080fd5b505af1158015610d3b573d6000803e3d6000fd5b505050505b7f5f7666687319b40936f33c188908d86aea154abd3f4127b4fa0a3f04f303c7da8187604051610d71929190614b65565b60405180910390a180915050949350505050565b610d96610d906126b7565b82612a41565b610dd5576040517f08c379a0000000000000000000000000000000000000000000000000000000008152600401610dcc9061474f565b60405180910390fd5b610de0838383612ad6565b505050565b6000806000610df385612322565b9050600060648260a0015186610e099190614d99565b610e139190614d68565b90508160400151819350935050509250929050565b6000600b600083815260200190815260200160002060020160009054906101000a900473ffffffffffffffffffffffffffffffffffffffff169050919050565b610e8383838360405180602001604052806000815250611f34565b505050565b60006103e7600e60003373ffffffffffffffffffffffffffffffffffffffff1673ffffffffffffffffffffffffffffffffffffffff1681526020019081526020016000205410610f0d576040517f08c379a0000000000000000000000000000000000000000000000000000000008152600401610f049061492f565b60405180910390fd5b42603c600f60003373ffffffffffffffffffffffffffffffffffffffff1673ffffffffffffffffffffffffffffffffffffffff16815260200190815260200160002054610f5a9190614d12565b1115610f9b576040517f08c379a0000000000000000000000000000000000000000000000000000000008152600401610f929061478f565b60405180910390fd5b600a821115610fdf576040517f08c379a0000000000000000000000000000000000000000000000000000000008152600401610fd690614aaf565b60405180910390fd5b610fe960096125e7565b6040518060c0016040528086815260200161100460096125fd565b81526020013373ffffffffffffffffffffffffffffffffffffffff16815260200185815260200184815260200183815250600b600061104360096125fd565b8152602001908152602001600020600082015181600001908051906020019061106d929190613847565b506020820151816001015560408201518160020160006101000a81548173ffffffffffffffffffffffffffffffffffffffff021916908373ffffffffffffffffffffffffffffffffffffffff160217905550606082015181600301556080820151816004015560a08201518160050155905050600e60003373ffffffffffffffffffffffffffffffffffffffff1673ffffffffffffffffffffffffffffffffffffffff168152602001908152602001600020600081548092919061113090614f52565b919050555042600f60003373ffffffffffffffffffffffffffffffffffffffff1673ffffffffffffffffffffffffffffffffffffffff168152602001908152602001600020819055507f62b7b5ba11bfc95430fab0460fdf99b9c8fbc2b3a6a48caf79c3ee1b591c03366111a460096125fd565b866040516111b3929190614b35565b60405180910390a16111c560096125fd565b9050949350505050565b6111d76138cd565b600b60008381526020019081526020016000206040518060c001604052908160008201805461120590614eef565b80601f016020809104026020016040519081016040528092919081815260200182805461123190614eef565b801561127e5780601f106112535761010080835404028352916020019161127e565b820191906000526020600020905b81548152906001019060200180831161126157829003601f168201915b50505050508152602001600182015481526020016002820160009054906101000a900473ffffffffffffffffffffffffffffffffffffffff1673ffffffffffffffffffffffffffffffffffffffff1673ffffffffffffffffffffffffffffffffffffffff16815260200160038201548152602001600482015481526020016005820154815250509050919050565b600080600a60009054906101000a900473ffffffffffffffffffffffffffffffffffffffff1673ffffffffffffffffffffffffffffffffffffffff163373ffffffffffffffffffffffffffffffffffffffff161461139f576040517f08c379a000000000000000000000000000000000000000000000000000000000815260040161139690614a8f565b60405180910390fd5b6000600b60008881526020019081526020016000206001015414156113f9576040517f08c379a00000000000000000000000000000000000000000000000000000000081526004016113f09061486f565b60405180910390fd5b6001600b6000888152602001908152602001600020600101541415611453576040517f08c379a000000000000000000000000000000000000000000000000000000000815260040161144a9061472f565b60405180910390fd5b600b6000878152602001908152602001600020600301544210156114ac576040517f08c379a00000000000000000000000000000000000000000000000000000000081526004016114a390614a6f565b60405180910390fd5b600b6000878152602001908152602001600020600401548314611504576040517f08c379a00000000000000000000000000000000000000000000000000000000081526004016114fb906147cf565b60405180910390fd5b611531600a60009054906101000a900473ffffffffffffffffffffffffffffffffffffffff166001611f13565b600061153d60086125fd565b905061154960086125e7565b6115538682612778565b61155d8186612996565b86600d600083815260200190815260200160002081905550600c60008881526020019081526020016000208190806001815401808255809150506001900390600052602060002001600090919091909150557f5f7666687319b40936f33c188908d86aea154abd3f4127b4fa0a3f04f303c7da81886040516115e0929190614b65565b60405180910390a180600b600089815260200190815260200160002060020160009054906101000a900473ffffffffffffffffffffffffffffffffffffffff16925092505094509492505050565b60008061163a83612dd0565b9050600073ffffffffffffffffffffffffffffffffffffffff168173ffffffffffffffffffffffffffffffffffffffff1614156116ac576040517f08c379a00000000000000000000000000000000000000000000000000000000081526004016116a390614a0f565b60405180910390fd5b80915050919050565b6000600b600084815260200190815260200160002060010154141561170f576040517f08c379a00000000000000000000000000000000000000000000000000000000081526004016117069061486f565b60405180910390fd5b600b600083815260200190815260200160002060020160009054906101000a900473ffffffffffffffffffffffffffffffffffffffff1673ffffffffffffffffffffffffffffffffffffffff163373ffffffffffffffffffffffffffffffffffffffff16146117b3576040517f08c379a00000000000000000000000000000000000000000000000000000000081526004016117aa9061488f565b60405180910390fd5b662386f26fc100008110156117fd576040517f08c379a00000000000000000000000000000000000000000000000000000000081526004016117f4906148af565b60405180910390fd5b80600b6000848152602001908152602001600020600401819055507f2063f24eb8e50478aa99484fcf0f591be5a95d83129c7388c3da4bd776655e7a8282604051611849929190614b65565b60405180910390a15050565b60008073ffffffffffffffffffffffffffffffffffffffff168273ffffffffffffffffffffffffffffffffffffffff1614156118c6576040517f08c379a00000000000000000000000000000000000000000000000000000000081526004016118bd9061494f565b60405180910390fd5b600360008373ffffffffffffffffffffffffffffffffffffffff1673ffffffffffffffffffffffffffffffffffffffff168152602001908152602001600020549050919050565b611915612e0d565b61191f6000612e8b565b565b611929612e0d565b600073ffffffffffffffffffffffffffffffffffffffff16600a60009054906101000a900473ffffffffffffffffffffffffffffffffffffffff1673ffffffffffffffffffffffffffffffffffffffff16146119ba576040517f08c379a00000000000000000000000000000000000000000000000000000000081526004016119b1906149ef565b60405180910390fd5b600073ffffffffffffffffffffffffffffffffffffffff168173ffffffffffffffffffffffffffffffffffffffff161415611a2a576040517f08c379a0000000000000000000000000000000000000000000000000000000008152600401611a219061476f565b60405180910390fd5b80600a60006101000a81548173ffffffffffffffffffffffffffffffffffffffff021916908373ffffffffffffffffffffffffffffffffffffffff16021790555050565b60606000600184611a7f9190614d12565b905060018110158015611a9b5750611a9760096125fd565b8111155b611ada576040517f08c379a0000000000000000000000000000000000000000000000000000000008152600401611ad1906149cf565b60405180910390fd5b6000808467ffffffffffffffff811115611b1d577f4e487b7100000000000000000000000000000000000000000000000000000000600052604160045260246000fd5b604051908082528060200260200182016040528015611b4b5781602001602082028036833780820191505090505b50905060005b85811015611be25760008185611b679190614d12565b9050611b7360096125fd565b8111611bce5780838581518110611bb3577f4e487b7100000000000000000000000000000000000000000000000000000000600052603260045260246000fd5b6020026020010181815250508380611bca90614f52565b9450505b508080611bda90614f52565b915050611b51565b5060008267ffffffffffffffff811115611c25577f4e487b7100000000000000000000000000000000000000000000000000000000600052604160045260246000fd5b604051908082528060200260200182016040528015611c5e57816020015b611c4b6138cd565b815260200190600190039081611c435790505b50905060005b83811015611e3157600b6000848381518110611ca9577f4e487b7100000000000000000000000000000000000000000000000000000000600052603260045260246000fd5b602002602001015181526020019081526020016000206040518060c0016040529081600082018054611cda90614eef565b80601f0160208091040260200160405190810160405280929190818152602001828054611d0690614eef565b8015611d535780601f10611d2857610100808354040283529160200191611d53565b820191906000526020600020905b815481529060010190602001808311611d3657829003601f168201915b50505050508152602001600182015481526020016002820160009054906101000a900473ffffffffffffffffffffffffffffffffffffffff1673ffffffffffffffffffffffffffffffffffffffff1673ffffffffffffffffffffffffffffffffffffffff1681526020016003820154815260200160048201548152602001600582015481525050828281518110611e13577f4e487b7100000000000000000000000000000000000000000000000000000000600052603260045260246000fd5b60200260200101819052508080611e2990614f52565b915050611c64565b508094505050505092915050565b600f6020528060005260406000206000915090505481565b6000600760009054906101000a900473ffffffffffffffffffffffffffffffffffffffff16905090565b606060018054611e9090614eef565b80601f0160208091040260200160405190810160405280929190818152602001828054611ebc90614eef565b8015611f095780601f10611ede57610100808354040283529160200191611f09565b820191906000526020600020905b815481529060010190602001808311611eec57829003601f168201915b5050505050905090565b611f25611f1e6126b7565b8383612f51565b5050565b662386f26fc1000081565b611f45611f3f6126b7565b83612a41565b611f84576040517f08c379a0000000000000000000000000000000000000000000000000000000008152600401611f7b9061474f565b60405180910390fd5b611f90848484846130be565b50505050565b600e6020528060005260406000206000915090505481565b6060611fb98261266c565b6000600660008481526020019081526020016000208054611fd990614eef565b80601f016020809104026020016040519081016040528092919081815260200182805461200590614eef565b80156120525780601f1061202757610100808354040283529160200191612052565b820191906000526020600020905b81548152906001019060200180831161203557829003601f168201915b50505050509050600061206361311a565b90506000815114156120795781925050506120bc565b6000825111156120ae5780826040516020016120969291906145fa565b604051602081830303815290604052925050506120bc565b6120b784613131565b925050505b919050565b60606000600c600086815260200190815260200160002080548060200260200160405190810160405280929190818152602001828054801561212257602002820191906000526020600020905b81548152602001906001019080831161210e575b5050505050905060008151148061213a575080518410155b156121b757600067ffffffffffffffff811115612180577f4e487b7100000000000000000000000000000000000000000000000000000000600052604160045260246000fd5b6040519080825280602002602001820160405280156121ae5781602001602082028036833780820191505090505b5091505061231b565b60648311156121c557606492505b600083856121d39190614d12565b905081518111156121e357815190505b600085826121f19190614df3565b67ffffffffffffffff811115612230577f4e487b7100000000000000000000000000000000000000000000000000000000600052604160045260246000fd5b60405190808252806020026020018201604052801561225e5781602001602082028036833780820191505090505b50905060008690505b82811015612313578381815181106122a8577f4e487b7100000000000000000000000000000000000000000000000000000000600052603260045260246000fd5b60200260200101518288836122bd9190614df3565b815181106122f4577f4e487b7100000000000000000000000000000000000000000000000000000000600052603260045260246000fd5b602002602001018181525050808061230b90614f52565b915050612267565b508093505050505b9392505050565b61232a6138cd565b6000600d6000848152602001908152602001600020541415612381576040517f08c379a00000000000000000000000000000000000000000000000000000000081526004016123789061490f565b60405180910390fd5b6000600d6000848152602001908152602001600020549050600b60008281526020019081526020016000206040518060c00160405290816000820180546123c790614eef565b80601f01602080910402602001604051908101604052809291908181526020018280546123f390614eef565b80156124405780601f1061241557610100808354040283529160200191612440565b820191906000526020600020905b81548152906001019060200180831161242357829003601f168201915b50505050508152602001600182015481526020016002820160009054906101000a900473ffffffffffffffffffffffffffffffffffffffff1673ffffffffffffffffffffffffffffffffffffffff1673ffffffffffffffffffffffffffffffffffffffff1681526020016003820154815260200160048201548152602001600582015481525050915050919050565b6000600560008473ffffffffffffffffffffffffffffffffffffffff1673ffffffffffffffffffffffffffffffffffffffff16815260200190815260200160002060008373ffffffffffffffffffffffffffffffffffffffff1673ffffffffffffffffffffffffffffffffffffffff16815260200190815260200160002060009054906101000a900460ff16905092915050565b61256b612e0d565b600073ffffffffffffffffffffffffffffffffffffffff168173ffffffffffffffffffffffffffffffffffffffff1614156125db576040517f08c379a00000000000000000000000000000000000000000000000000000000081526004016125d29061480f565b60405180910390fd5b6125e481612e8b565b50565b6001816000016000828254019250508190555050565b600081600001549050919050565b6000634906490660e01b7bffffffffffffffffffffffffffffffffffffffffffffffffffffffff1916827bffffffffffffffffffffffffffffffffffffffffffffffffffffffff19161480612665575061266482613199565b5b9050919050565b6126758161327b565b6126b4576040517f08c379a00000000000000000000000000000000000000000000000000000000081526004016126ab90614a0f565b60405180910390fd5b50565b600033905090565b816004600083815260200190815260200160002060006101000a81548173ffffffffffffffffffffffffffffffffffffffff021916908373ffffffffffffffffffffffffffffffffffffffff160217905550808273ffffffffffffffffffffffffffffffffffffffff166127328361162e565b73ffffffffffffffffffffffffffffffffffffffff167f8c5be1e5ebec7d5bd14f71427d1e84f3dd0314c0f7b2291e5b200ac8c7c3b92560405160405180910390a45050565b600073ffffffffffffffffffffffffffffffffffffffff168273ffffffffffffffffffffffffffffffffffffffff1614156127e8576040517f08c379a00000000000000000000000000000000000000000000000000000000081526004016127df9061498f565b60405180910390fd5b6127f18161327b565b15612831576040517f08c379a00000000000000000000000000000000000000000000000000000000081526004016128289061484f565b60405180910390fd5b61283f6000838360016132bc565b6128488161327b565b15612888576040517f08c379a000000000000000000000000000000000000000000000000000000000815260040161287f9061484f565b60405180910390fd5b6001600360008473ffffffffffffffffffffffffffffffffffffffff1673ffffffffffffffffffffffffffffffffffffffff16815260200190815260200160002060008282540192505081905550816002600083815260200190815260200160002060006101000a81548173ffffffffffffffffffffffffffffffffffffffff021916908373ffffffffffffffffffffffffffffffffffffffff160217905550808273ffffffffffffffffffffffffffffffffffffffff16600073ffffffffffffffffffffffffffffffffffffffff167fddf252ad1be2c89b69c2b068fc378daa952ba7f163c4a11628f55a4df523b3ef60405160405180910390a46129926000838360016132c2565b5050565b61299f8261327b565b6129de576040517f08c379a00000000000000000000000000000000000000000000000000000000081526004016129d59061496f565b60405180910390fd5b80600660008481526020019081526020016000209080519060200190612a05929190613847565b507ff8e1a15aba9398e019f0b49df1a4fde98ee17ae345cb5f6b5e2c27f5033e8ce782604051612a359190614af1565b60405180910390a15050565b600080612a4d8361162e565b90508073ffffffffffffffffffffffffffffffffffffffff168473ffffffffffffffffffffffffffffffffffffffff161480612a8f5750612a8e81856124cf565b5b80612acd57508373ffffffffffffffffffffffffffffffffffffffff16612ab5846108eb565b73ffffffffffffffffffffffffffffffffffffffff16145b91505092915050565b8273ffffffffffffffffffffffffffffffffffffffff16612af68261162e565b73ffffffffffffffffffffffffffffffffffffffff1614612b4c576040517f08c379a0000000000000000000000000000000000000000000000000000000008152600401612b439061482f565b60405180910390fd5b600073ffffffffffffffffffffffffffffffffffffffff168273ffffffffffffffffffffffffffffffffffffffff161415612bbc576040517f08c379a0000000000000000000000000000000000000000000000000000000008152600401612bb3906148cf565b60405180910390fd5b612bc983838360016132bc565b8273ffffffffffffffffffffffffffffffffffffffff16612be98261162e565b73ffffffffffffffffffffffffffffffffffffffff1614612c3f576040517f08c379a0000000000000000000000000000000000000000000000000000000008152600401612c369061482f565b60405180910390fd5b6004600082815260200190815260200160002060006101000a81549073ffffffffffffffffffffffffffffffffffffffff02191690556001600360008573ffffffffffffffffffffffffffffffffffffffff1673ffffffffffffffffffffffffffffffffffffffff168152602001908152602001600020600082825403925050819055506001600360008473ffffffffffffffffffffffffffffffffffffffff1673ffffffffffffffffffffffffffffffffffffffff16815260200190815260200160002060008282540192505081905550816002600083815260200190815260200160002060006101000a81548173ffffffffffffffffffffffffffffffffffffffff021916908373ffffffffffffffffffffffffffffffffffffffff160217905550808273ffffffffffffffffffffffffffffffffffffffff168473ffffffffffffffffffffffffffffffffffffffff167fddf252ad1be2c89b69c2b068fc378daa952ba7f163c4a11628f55a4df523b3ef60405160405180910390a4612dcb83838360016132c2565b505050565b60006002600083815260200190815260200160002060009054906101000a900473ffffffffffffffffffffffffffffffffffffffff169050919050565b612e156126b7565b73ffffffffffffffffffffffffffffffffffffffff16612e33611e57565b73ffffffffffffffffffffffffffffffffffffffff1614612e89576040517f08c379a0000000000000000000000000000000000000000000000000000000008152600401612e80906149af565b60405180910390fd5b565b6000600760009054906101000a900473ffffffffffffffffffffffffffffffffffffffff16905081600760006101000a81548173ffffffffffffffffffffffffffffffffffffffff021916908373ffffffffffffffffffffffffffffffffffffffff1602179055508173ffffffffffffffffffffffffffffffffffffffff168173ffffffffffffffffffffffffffffffffffffffff167f8be0079c531659141344cd1fd0a4f28419497f9722a3daafe3b4186f6b6457e060405160405180910390a35050565b8173ffffffffffffffffffffffffffffffffffffffff168373ffffffffffffffffffffffffffffffffffffffff161415612fc0576040517f08c379a0000000000000000000000000000000000000000000000000000000008152600401612fb7906148ef565b60405180910390fd5b80600560008573ffffffffffffffffffffffffffffffffffffffff1673ffffffffffffffffffffffffffffffffffffffff16815260200190815260200160002060008473ffffffffffffffffffffffffffffffffffffffff1673ffffffffffffffffffffffffffffffffffffffff16815260200190815260200160002060006101000a81548160ff0219169083151502179055508173ffffffffffffffffffffffffffffffffffffffff168373ffffffffffffffffffffffffffffffffffffffff167f17307eab39ab6107e8899845ad3d59bd9653f200f220920489ca2b5937696c31836040516130b191906146f2565b60405180910390a3505050565b6130c9848484612ad6565b6130d5848484846132c8565b613114576040517f08c379a000000000000000000000000000000000000000000000000000000000815260040161310b906147af565b60405180910390fd5b50505050565b606060405180602001604052806000815250905090565b606061313c8261266c565b600061314661311a565b905060008151116131665760405180602001604052806000815250613191565b806131708461345f565b6040516020016131819291906145fa565b6040516020818303038152906040525b915050919050565b60007f80ac58cd000000000000000000000000000000000000000000000000000000007bffffffffffffffffffffffffffffffffffffffffffffffffffffffff1916827bffffffffffffffffffffffffffffffffffffffffffffffffffffffff1916148061326457507f5b5e139f000000000000000000000000000000000000000000000000000000007bffffffffffffffffffffffffffffffffffffffffffffffffffffffff1916827bffffffffffffffffffffffffffffffffffffffffffffffffffffffff1916145b80613274575061327382613583565b5b9050919050565b60008073ffffffffffffffffffffffffffffffffffffffff1661329d83612dd0565b73ffffffffffffffffffffffffffffffffffffffff1614159050919050565b50505050565b50505050565b60006132e98473ffffffffffffffffffffffffffffffffffffffff166135ed565b15613452578373ffffffffffffffffffffffffffffffffffffffff1663150b7a026133126126b7565b8786866040518563ffffffff1660e01b81526004016133349493929190614639565b602060405180830381600087803b15801561334e57600080fd5b505af192505050801561337f57506040513d601f19601f8201168201806040525081019061337c9190613c7d565b60015b613402573d80600081146133af576040519150601f19603f3d011682016040523d82523d6000602084013e6133b4565b606091505b506000815114156133fa576040517f08c379a00000000000000000000000000000000000000000000000000000000081526004016133f1906147af565b60405180910390fd5b805181602001fd5b63150b7a0260e01b7bffffffffffffffffffffffffffffffffffffffffffffffffffffffff1916817bffffffffffffffffffffffffffffffffffffffffffffffffffffffff191614915050613457565b600190505b949350505050565b60606000600161346e84613610565b01905060008167ffffffffffffffff8111156134b3577f4e487b7100000000000000000000000000000000000000000000000000000000600052604160045260246000fd5b6040519080825280601f01601f1916602001820160405280156134e55781602001600182028036833780820191505090505b509050600082602001820190505b600115613578578080600190039150507f3031323334353637383961626364656600000000000000000000000000000000600a86061a8153600a8581613562577f4e487b7100000000000000000000000000000000000000000000000000000000600052601260045260246000fd5b049450600085141561357357613578565b6134f3565b819350505050919050565b60007f01ffc9a7000000000000000000000000000000000000000000000000000000007bffffffffffffffffffffffffffffffffffffffffffffffffffffffff1916827bffffffffffffffffffffffffffffffffffffffffffffffffffffffff1916149050919050565b6000808273ffffffffffffffffffffffffffffffffffffffff163b119050919050565b600080600090507a184f03e93ff9f4daa797ed6e38ed64bf6a1f0100000000000000008310613694577a184f03e93ff9f4daa797ed6e38ed64bf6a1f010000000000000000838161368a577f4e487b7100000000000000000000000000000000000000000000000000000000600052601260045260246000fd5b0492506040810190505b6d04ee2d6d415b85acef810000000083106136f7576d04ee2d6d415b85acef810000000083816136ed577f4e487b7100000000000000000000000000000000000000000000000000000000600052601260045260246000fd5b0492506020810190505b662386f26fc10000831061374c57662386f26fc100008381613742577f4e487b7100000000000000000000000000000000000000000000000000000000600052601260045260246000fd5b0492506010810190505b6305f5e100831061379b576305f5e1008381613791577f4e487b7100000000000000000000000000000000000000000000000000000000600052601260045260246000fd5b0492506008810190505b61271083106137e65761271083816137dc577f4e487b7100000000000000000000000000000000000000000000000000000000600052601260045260246000fd5b0492506004810190505b6064831061382f5760648381613825577f4e487b7100000000000000000000000000000000000000000000000000000000600052601260045260246000fd5b0492506002810190505b600a831061383e576001810190505b80915050919050565b82805461385390614eef565b90600052602060002090601f01602090048101928261387557600085556138bc565b82601f1061388e57805160ff19168380011785556138bc565b828001600101855582156138bc579182015b828111156138bb5782518255916020019190600101906138a0565b5b5090506138c99190613919565b5090565b6040518060c001604052806060815260200160008152602001600073ffffffffffffffffffffffffffffffffffffffff1681526020016000815260200160008152602001600081525090565b5b8082111561393257600081600090555060010161391a565b5090565b600061394961394484614bea565b614bc5565b90508281526020810184848401111561396157600080fd5b61396c848285614ead565b509392505050565b600061398761398284614c1b565b614bc5565b90508281526020810184848401111561399f57600080fd5b6139aa848285614ead565b509392505050565b6000813590506139c181615793565b92915050565b6000813590506139d6816157aa565b92915050565b6000813590506139eb816157c1565b92915050565b600081359050613a00816157d8565b92915050565b600081519050613a15816157d8565b92915050565b600082601f830112613a2c57600080fd5b8135613a3c848260208601613936565b91505092915050565b600082601f830112613a5657600080fd5b8135613a66848260208601613974565b91505092915050565b600081359050613a7e816157ef565b92915050565b600060208284031215613a9657600080fd5b6000613aa4848285016139b2565b91505092915050565b600060208284031215613abf57600080fd5b6000613acd848285016139c7565b91505092915050565b60008060408385031215613ae957600080fd5b6000613af7858286016139b2565b9250506020613b08858286016139b2565b9150509250929050565b600080600060608486031215613b2757600080fd5b6000613b35868287016139b2565b9350506020613b46868287016139b2565b9250506040613b5786828701613a6f565b9150509250925092565b60008060008060808587031215613b7757600080fd5b6000613b85878288016139b2565b9450506020613b96878288016139b2565b9350506040613ba787828801613a6f565b925050606085013567ffffffffffffffff811115613bc457600080fd5b613bd087828801613a1b565b91505092959194509250565b60008060408385031215613bef57600080fd5b6000613bfd858286016139b2565b9250506020613c0e858286016139dc565b9150509250929050565b60008060408385031215613c2b57600080fd5b6000613c39858286016139b2565b9250506020613c4a85828601613a6f565b9150509250929050565b600060208284031215613c6657600080fd5b6000613c74848285016139f1565b91505092915050565b600060208284031215613c8f57600080fd5b6000613c9d84828501613a06565b91505092915050565b60008060008060808587031215613cbc57600080fd5b600085013567ffffffffffffffff811115613cd657600080fd5b613ce287828801613a45565b9450506020613cf387828801613a6f565b9350506040613d0487828801613a6f565b9250506060613d1587828801613a6f565b91505092959194509250565b600060208284031215613d3357600080fd5b6000613d4184828501613a6f565b91505092915050565b60008060008060808587031215613d6057600080fd5b6000613d6e87828801613a6f565b9450506020613d7f878288016139b2565b935050604085013567ffffffffffffffff811115613d9c57600080fd5b613da887828801613a45565b9250506060613db987828801613a6f565b91505092959194509250565b60008060008060808587031215613ddb57600080fd5b6000613de987828801613a6f565b945050602085013567ffffffffffffffff811115613e0657600080fd5b613e1287828801613a45565b9350506040613e2387828801613a6f565b9250506060613e34878288016139dc565b91505092959194509250565b60008060408385031215613e5357600080fd5b6000613e6185828601613a6f565b9250506020613e7285828601613a6f565b9150509250929050565b600080600060608486031215613e9157600080fd5b6000613e9f86828701613a6f565b9350506020613eb086828701613a6f565b9250506040613ec186828701613a6f565b9150509250925092565b6000613ed783836144ca565b905092915050565b6000613eeb83836145dc565b60208301905092915050565b613f0081614e27565b82525050565b613f0f81614e27565b82525050565b6000613f2082614c6c565b613f2a8185614cb2565b935083602082028501613f3c85614c4c565b8060005b85811015613f785784840389528151613f598582613ecb565b9450613f6483614c98565b925060208a01995050600181019050613f40565b50829750879550505050505092915050565b6000613f9582614c77565b613f9f8185614cc3565b9350613faa83614c5c565b8060005b83811015613fdb578151613fc28882613edf565b9750613fcd83614ca5565b925050600181019050613fae565b5085935050505092915050565b613ff181614e4b565b82525050565b600061400282614c82565b61400c8185614cd4565b935061401c818560208601614ebc565b61402581615057565b840191505092915050565b600061403b82614c8d565b6140458185614ce5565b9350614055818560208601614ebc565b61405e81615057565b840191505092915050565b600061407482614c8d565b61407e8185614cf6565b935061408e818560208601614ebc565b61409781615057565b840191505092915050565b60006140ad82614c8d565b6140b78185614d07565b93506140c7818560208601614ebc565b80840191505092915050565b60006140e0602183614cf6565b91506140eb82615068565b604082019050919050565b6000614103602d83614cf6565b915061410e826150b7565b604082019050919050565b6000614126600f83614cf6565b915061413182615106565b602082019050919050565b6000614149602c83614cf6565b91506141548261512f565b604082019050919050565b600061416c603283614cf6565b91506141778261517e565b604082019050919050565b600061418f602f83614cf6565b915061419a826151cd565b604082019050919050565b60006141b2602083614cf6565b91506141bd8261521c565b602082019050919050565b60006141d5602683614cf6565b91506141e082615245565b604082019050919050565b60006141f8602583614cf6565b915061420382615294565b604082019050919050565b600061421b601c83614cf6565b9150614226826152e3565b602082019050919050565b600061423e601983614cf6565b91506142498261530c565b602082019050919050565b6000614261601f83614cf6565b915061426c82615335565b602082019050919050565b6000614284602983614cf6565b915061428f8261535e565b604082019050919050565b60006142a7602483614cf6565b91506142b2826153ad565b604082019050919050565b60006142ca601983614cf6565b91506142d5826153fc565b602082019050919050565b60006142ed602783614cf6565b91506142f882615425565b604082019050919050565b6000614310601783614cf6565b915061431b82615474565b602082019050919050565b6000614333602983614cf6565b915061433e8261549d565b604082019050919050565b6000614356602e83614cf6565b9150614361826154ec565b604082019050919050565b6000614379602083614cf6565b91506143848261553b565b602082019050919050565b600061439c602083614cf6565b91506143a782615564565b602082019050919050565b60006143bf600e83614cf6565b91506143ca8261558d565b602082019050919050565b60006143e2602883614cf6565b91506143ed826155b6565b604082019050919050565b6000614405601883614cf6565b915061441082615605565b602082019050919050565b6000614428602183614cf6565b91506144338261562e565b604082019050919050565b600061444b603d83614cf6565b91506144568261567d565b604082019050919050565b600061446e602b83614cf6565b9150614479826156cc565b604082019050919050565b6000614491601983614cf6565b915061449c8261571b565b602082019050919050565b60006144b4602b83614cf6565b91506144bf82615744565b604082019050919050565b600060c08301600083015184820360008601526144e78282614030565b91505060208301516144fc60208601826145dc565b50604083015161450f6040860182613ef7565b50606083015161452260608601826145dc565b50608083015161453560808601826145dc565b5060a083015161454860a08601826145dc565b508091505092915050565b600060c08301600083015184820360008601526145708282614030565b915050602083015161458560208601826145dc565b5060408301516145986040860182613ef7565b5060608301516145ab60608601826145dc565b5060808301516145be60808601826145dc565b5060a08301516145d160a08601826145dc565b508091505092915050565b6145e581614ea3565b82525050565b6145f481614ea3565b82525050565b600061460682856140a2565b915061461282846140a2565b91508190509392505050565b60006020820190506146336000830184613f06565b92915050565b600060808201905061464e6000830187613f06565b61465b6020830186613f06565b61466860408301856145eb565b818103606083015261467a8184613ff7565b905095945050505050565b600060408201905061469a6000830185613f06565b6146a760208301846145eb565b9392505050565b600060208201905081810360008301526146c88184613f15565b905092915050565b600060208201905081810360008301526146ea8184613f8a565b905092915050565b60006020820190506147076000830184613fe8565b92915050565b600060208201905081810360008301526147278184614069565b905092915050565b60006020820190508181036000830152614748816140d3565b9050919050565b60006020820190508181036000830152614768816140f6565b9050919050565b6000602082019050818103600083015261478881614119565b9050919050565b600060208201905081810360008301526147a88161413c565b9050919050565b600060208201905081810360008301526147c88161415f565b9050919050565b600060208201905081810360008301526147e881614182565b9050919050565b60006020820190508181036000830152614808816141a5565b9050919050565b60006020820190508181036000830152614828816141c8565b9050919050565b60006020820190508181036000830152614848816141eb565b9050919050565b600060208201905081810360008301526148688161420e565b9050919050565b6000602082019050818103600083015261488881614231565b9050919050565b600060208201905081810360008301526148a881614254565b9050919050565b600060208201905081810360008301526148c881614277565b9050919050565b600060208201905081810360008301526148e88161429a565b9050919050565b60006020820190508181036000830152614908816142bd565b9050919050565b60006020820190508181036000830152614928816142e0565b9050919050565b6000602082019050818103600083015261494881614303565b9050919050565b6000602082019050818103600083015261496881614326565b9050919050565b6000602082019050818103600083015261498881614349565b9050919050565b600060208201905081810360008301526149a88161436c565b9050919050565b600060208201905081810360008301526149c88161438f565b9050919050565b600060208201905081810360008301526149e8816143b2565b9050919050565b60006020820190508181036000830152614a08816143d5565b9050919050565b60006020820190508181036000830152614a28816143f8565b9050919050565b60006020820190508181036000830152614a488161441b565b9050919050565b60006020820190508181036000830152614a688161443e565b9050919050565b60006020820190508181036000830152614a8881614461565b9050919050565b60006020820190508181036000830152614aa881614484565b9050919050565b60006020820190508181036000830152614ac8816144a7565b9050919050565b60006020820190508181036000830152614ae98184614553565b905092915050565b6000602082019050614b0660008301846145eb565b92915050565b6000604082019050614b2160008301856145eb565b614b2e6020830184613f06565b9392505050565b6000604082019050614b4a60008301856145eb565b8181036020830152614b5c8184614069565b90509392505050565b6000604082019050614b7a60008301856145eb565b614b8760208301846145eb565b9392505050565b6000606082019050614ba360008301866145eb565b614bb060208301856145eb565b614bbd6040830184613f06565b949350505050565b6000614bcf614be0565b9050614bdb8282614f21565b919050565b6000604051905090565b600067ffffffffffffffff821115614c0557614c04615028565b5b614c0e82615057565b9050602081019050919050565b600067ffffffffffffffff821115614c3657614c35615028565b5b614c3f82615057565b9050602081019050919050565b6000819050602082019050919050565b6000819050602082019050919050565b600081519050919050565b600081519050919050565b600081519050919050565b600081519050919050565b6000602082019050919050565b6000602082019050919050565b600082825260208201905092915050565b600082825260208201905092915050565b600082825260208201905092915050565b600082825260208201905092915050565b600082825260208201905092915050565b600081905092915050565b6000614d1d82614ea3565b9150614d2883614ea3565b9250827fffffffffffffffffffffffffffffffffffffffffffffffffffffffffffffffff03821115614d5d57614d5c614f9b565b5b828201905092915050565b6000614d7382614ea3565b9150614d7e83614ea3565b925082614d8e57614d8d614fca565b5b828204905092915050565b6000614da482614ea3565b9150614daf83614ea3565b9250817fffffffffffffffffffffffffffffffffffffffffffffffffffffffffffffffff0483118215151615614de857614de7614f9b565b5b828202905092915050565b6000614dfe82614ea3565b9150614e0983614ea3565b925082821015614e1c57614e1b614f9b565b5b828203905092915050565b6000614e3282614e83565b9050919050565b6000614e4482614e83565b9050919050565b60008115159050919050565b60007fffffffff0000000000000000000000000000000000000000000000000000000082169050919050565b600073ffffffffffffffffffffffffffffffffffffffff82169050919050565b6000819050919050565b82818337600083830152505050565b60005b83811015614eda578082015181840152602081019050614ebf565b83811115614ee9576000848401525b50505050565b60006002820490506001821680614f0757607f821691505b60208210811415614f1b57614f1a614ff9565b5b50919050565b614f2a82615057565b810181811067ffffffffffffffff82111715614f4957614f48615028565b5b80604052505050565b6000614f5d82614ea3565b91507fffffffffffffffffffffffffffffffffffffffffffffffffffffffffffffffff821415614f9057614f8f614f9b565b5b600182019050919050565b7f4e487b7100000000000000000000000000000000000000000000000000000000600052601160045260246000fd5b7f4e487b7100000000000000000000000000000000000000000000000000000000600052601260045260246000fd5b7f4e487b7100000000000000000000000000000000000000000000000000000000600052602260045260246000fd5b7f4e487b7100000000000000000000000000000000000000000000000000000000600052604160045260246000fd5b6000601f19601f8301169050919050565b7f43616e206e6f74206d696e7420746f207075626c696320436f6c6c656374696f60008201527f6e00000000000000000000000000000000000000000000000000000000000000602082015250565b7f4552433732313a2063616c6c6572206973206e6f7420746f6b656e206f776e6560008201527f72206f7220617070726f76656400000000000000000000000000000000000000602082015250565b7f496e76616c696420616464726573730000000000000000000000000000000000600082015250565b7f4d7573742077616974206265666f7265206372656174696e6720616e6f74686560008201527f7220636f6c6c656374696f6e0000000000000000000000000000000000000000602082015250565b7f4552433732313a207472616e7366657220746f206e6f6e20455243373231526560008201527f63656976657220696d706c656d656e7465720000000000000000000000000000602082015250565b7f50726963652073686f756c6420626520657175616c20746f20636f6c6c65637460008201527f696f6e73206d696e742070726963650000000000000000000000000000000000602082015250565b7f5072696365206d757374206265206174206c65617374204d494e5f5052494345600082015250565b7f4f776e61626c653a206e6577206f776e657220697320746865207a65726f206160008201527f6464726573730000000000000000000000000000000000000000000000000000602082015250565b7f4552433732313a207472616e736665722066726f6d20696e636f72726563742060008201527f6f776e6572000000000000000000000000000000000000000000000000000000602082015250565b7f4552433732313a20746f6b656e20616c7265616479206d696e74656400000000600082015250565b7f436f6c6c656374696f6e20646f6573206e6f7420657869737400000000000000600082015250565b7f4e6f7420746865206f776e6572206f662074686520636f6c6c656374696f6e00600082015250565b7f4e6577206d696e74207072696365206d757374206265206174206c656173742060008201527f4d494e5f50524943450000000000000000000000000000000000000000000000602082015250565b7f4552433732313a207472616e7366657220746f20746865207a65726f2061646460008201527f7265737300000000000000000000000000000000000000000000000000000000602082015250565b7f4552433732313a20617070726f766520746f2063616c6c657200000000000000600082015250565b7f546f6b656e20646f6573206e6f742062656c6f6e6720746f20616e7920636f6c60008201527f6c656374696f6e00000000000000000000000000000000000000000000000000602082015250565b7f4d617820636f6c6c656374696f6e732072656163686564000000000000000000600082015250565b7f4552433732313a2061646472657373207a65726f206973206e6f74206120766160008201527f6c6964206f776e65720000000000000000000000000000000000000000000000602082015250565b7f45524337323155524953746f726167653a2055524920736574206f66206e6f6e60008201527f6578697374656e7420746f6b656e000000000000000000000000000000000000602082015250565b7f4552433732313a206d696e7420746f20746865207a65726f2061646472657373600082015250565b7f4f776e61626c653a2063616c6c6572206973206e6f7420746865206f776e6572600082015250565b7f496e76616c6964206f6666736574000000000000000000000000000000000000600082015250565b7f4d61726b6574706c61636520616464726573732068617320616c72656164792060008201527f6265656e20736574000000000000000000000000000000000000000000000000602082015250565b7f4552433732313a20696e76616c696420746f6b656e2049440000000000000000600082015250565b7f4552433732313a20617070726f76616c20746f2063757272656e74206f776e6560008201527f7200000000000000000000000000000000000000000000000000000000000000602082015250565b7f4552433732313a20617070726f76652063616c6c6572206973206e6f7420746f60008201527f6b656e206f776e6572206f7220617070726f76656420666f7220616c6c000000602082015250565b7f436f6c6c656374696f6e206973206e6f742079657420617661696c61626c652060008201527f666f72206d696e74696e67000000000000000000000000000000000000000000602082015250565b7f4f6e6c79206d61726b6574706c6163652063616e2063616c6c00000000000000600082015250565b7f526f79616c746965732070657263656e746167652073686f756c64206265206c60008201527f657373207468616e203130000000000000000000000000000000000000000000602082015250565b61579c81614e27565b81146157a757600080fd5b50565b6157b381614e39565b81146157be57600080fd5b50565b6157ca81614e4b565b81146157d557600080fd5b50565b6157e181614e57565b81146157ec57600080fd5b50565b6157f881614ea3565b811461580357600080fd5b5056fea264697066735822122068dc902fb15e458975cb41127a456d149934a9f2cabb40a00f24401985e57acd64736f6c63430008010033",
  "linkReferences": {},
  "deployedLinkReferences": {}
}