{
  "_format": "hh-sol-artifact-1",
  "contractName": "ERC721Collections",
  "sourceName": "contracts/ERC721Collections.sol",
  "abi": [
    {
      "inputs": [
        {
          "internalType": "string",
          "name": "publicCollectionURI",
          "type": "string"
        }
      ],
      "stateMutability": "nonpayable",
      "type": "constructor"
    },
    {
      "anonymous": false,
      "inputs": [
        {
          "indexed": true,
          "internalType": "address",
          "name": "owner",
          "type": "address"
        },
        {
          "indexed": true,
          "internalType": "address",
          "name": "approved",
          "type": "address"
        },
        {
          "indexed": true,
          "internalType": "uint256",
          "name": "tokenId",
          "type": "uint256"
        }
      ],
      "name": "Approval",
      "type": "event"
    },
    {
      "anonymous": false,
      "inputs": [
        {
          "indexed": true,
          "internalType": "address",
          "name": "owner",
          "type": "address"
        },
        {
          "indexed": true,
          "internalType": "address",
          "name": "operator",
          "type": "address"
        },
        {
          "indexed": false,
          "internalType": "bool",
          "name": "approved",
          "type": "bool"
        }
      ],
      "name": "ApprovalForAll",
      "type": "event"
    },
    {
      "anonymous": false,
      "inputs": [
        {
          "indexed": false,
          "internalType": "uint256",
          "name": "_fromTokenId",
          "type": "uint256"
        },
        {
          "indexed": false,
          "internalType": "uint256",
          "name": "_toTokenId",
          "type": "uint256"
        }
      ],
      "name": "BatchMetadataUpdate",
      "type": "event"
    },
    {
      "anonymous": false,
      "inputs": [
        {
          "indexed": false,
          "internalType": "uint256",
          "name": "id",
          "type": "uint256"
        },
        {
          "indexed": false,
          "internalType": "string",
          "name": "uri",
          "type": "string"
        }
      ],
      "name": "CollectionCreated",
      "type": "event"
    },
    {
      "anonymous": false,
      "inputs": [
        {
          "indexed": false,
          "internalType": "uint256",
          "name": "_tokenId",
          "type": "uint256"
        }
      ],
      "name": "MetadataUpdate",
      "type": "event"
    },
    {
      "anonymous": false,
      "inputs": [
        {
          "indexed": false,
          "internalType": "uint256",
          "name": "collectionId",
          "type": "uint256"
        },
        {
          "indexed": false,
          "internalType": "uint256",
          "name": "newMintPrice",
          "type": "uint256"
        }
      ],
      "name": "MintPriceChanged",
      "type": "event"
    },
    {
      "anonymous": false,
      "inputs": [
        {
          "indexed": true,
          "internalType": "address",
          "name": "previousOwner",
          "type": "address"
        },
        {
          "indexed": true,
          "internalType": "address",
          "name": "newOwner",
          "type": "address"
        }
      ],
      "name": "OwnershipTransferred",
      "type": "event"
    },
    {
      "anonymous": false,
      "inputs": [
        {
          "indexed": false,
          "internalType": "uint256",
          "name": "tokenId",
          "type": "uint256"
        },
        {
          "indexed": false,
          "internalType": "uint256",
          "name": "price",
          "type": "uint256"
        }
      ],
      "name": "PriceSet",
      "type": "event"
    },
    {
      "anonymous": false,
      "inputs": [
        {
          "indexed": false,
          "internalType": "uint256",
          "name": "tokenId",
          "type": "uint256"
        },
        {
          "indexed": false,
          "internalType": "uint256",
          "name": "collectionId",
          "type": "uint256"
        }
      ],
      "name": "TokenMinted",
      "type": "event"
    },
    {
      "anonymous": false,
      "inputs": [
        {
          "indexed": true,
          "internalType": "address",
          "name": "from",
          "type": "address"
        },
        {
          "indexed": true,
          "internalType": "address",
          "name": "to",
          "type": "address"
        },
        {
          "indexed": true,
          "internalType": "uint256",
          "name": "tokenId",
          "type": "uint256"
        }
      ],
      "name": "Transfer",
      "type": "event"
    },
    {
      "inputs": [],
      "name": "MIN_PRICE",
      "outputs": [
        {
          "internalType": "uint256",
          "name": "",
          "type": "uint256"
        }
      ],
      "stateMutability": "view",
      "type": "function"
    },
    {
      "inputs": [
        {
          "internalType": "address",
          "name": "to",
          "type": "address"
        },
        {
          "internalType": "uint256",
          "name": "tokenId",
          "type": "uint256"
        }
      ],
      "name": "approve",
      "outputs": [],
      "stateMutability": "nonpayable",
      "type": "function"
    },
    {
      "inputs": [
        {
          "internalType": "address",
          "name": "owner",
          "type": "address"
        }
      ],
      "name": "balanceOf",
      "outputs": [
        {
          "internalType": "uint256",
          "name": "",
          "type": "uint256"
        }
      ],
      "stateMutability": "view",
      "type": "function"
    },
    {
      "inputs": [
        {
          "internalType": "uint256",
          "name": "collectionId",
          "type": "uint256"
        },
        {
          "internalType": "uint256",
          "name": "newMintPrice",
          "type": "uint256"
        }
      ],
      "name": "changeMintPrice",
      "outputs": [],
      "stateMutability": "nonpayable",
      "type": "function"
    },
    {
      "inputs": [
        {
          "internalType": "address",
          "name": "",
          "type": "address"
        }
      ],
      "name": "collectionsCreated",
      "outputs": [
        {
          "internalType": "uint256",
          "name": "",
          "type": "uint256"
        }
      ],
      "stateMutability": "view",
      "type": "function"
    },
    {
      "inputs": [
        {
          "internalType": "string",
          "name": "uri",
          "type": "string"
        },
        {
          "internalType": "uint256",
          "name": "mintDate",
          "type": "uint256"
        },
        {
          "internalType": "uint256",
          "name": "mintPrice",
          "type": "uint256"
        },
        {
          "internalType": "uint256",
          "name": "royaltyPercentage",
          "type": "uint256"
        }
      ],
      "name": "createCollection",
      "outputs": [
        {
          "internalType": "uint256",
          "name": "",
          "type": "uint256"
        }
      ],
      "stateMutability": "nonpayable",
      "type": "function"
    },
    {
      "inputs": [
        {
          "internalType": "uint256",
          "name": "tokenId",
          "type": "uint256"
        }
      ],
      "name": "getApproved",
      "outputs": [
        {
          "internalType": "address",
          "name": "",
          "type": "address"
        }
      ],
      "stateMutability": "view",
      "type": "function"
    },
    {
      "inputs": [
        {
          "internalType": "uint256",
          "name": "id",
          "type": "uint256"
        }
      ],
      "name": "getCollection",
      "outputs": [
        {
          "components": [
            {
              "internalType": "string",
              "name": "uri",
              "type": "string"
            },
            {
              "internalType": "uint256",
              "name": "id",
              "type": "uint256"
            },
            {
              "internalType": "address",
              "name": "owner",
              "type": "address"
            },
            {
              "internalType": "uint256",
              "name": "mintDate",
              "type": "uint256"
            },
            {
              "internalType": "uint256",
              "name": "mintPrice",
              "type": "uint256"
            },
            {
              "internalType": "uint256",
              "name": "royaltyPercentage",
              "type": "uint256"
            }
          ],
          "internalType": "struct ERC721Collections.Collection",
          "name": "",
          "type": "tuple"
        }
      ],
      "stateMutability": "view",
      "type": "function"
    },
    {
      "inputs": [
        {
          "internalType": "uint256",
          "name": "tokenId",
          "type": "uint256"
        }
      ],
      "name": "getCollectionOfToken",
      "outputs": [
        {
          "components": [
            {
              "internalType": "string",
              "name": "uri",
              "type": "string"
            },
            {
              "internalType": "uint256",
              "name": "id",
              "type": "uint256"
            },
            {
              "internalType": "address",
              "name": "owner",
              "type": "address"
            },
            {
              "internalType": "uint256",
              "name": "mintDate",
              "type": "uint256"
            },
            {
              "internalType": "uint256",
              "name": "mintPrice",
              "type": "uint256"
            },
            {
              "internalType": "uint256",
              "name": "royaltyPercentage",
              "type": "uint256"
            }
          ],
          "internalType": "struct ERC721Collections.Collection",
          "name": "",
          "type": "tuple"
        }
      ],
      "stateMutability": "view",
      "type": "function"
    },
    {
      "inputs": [
        {
          "internalType": "uint256",
          "name": "collectionId",
          "type": "uint256"
        }
      ],
      "name": "getCollectionOwner",
      "outputs": [
        {
          "internalType": "address",
          "name": "",
          "type": "address"
        }
      ],
      "stateMutability": "view",
      "type": "function"
    },
    {
      "inputs": [
        {
          "internalType": "uint256",
          "name": "collectionId",
          "type": "uint256"
        },
        {
          "internalType": "uint256",
          "name": "startIndex",
          "type": "uint256"
        },
        {
          "internalType": "uint256",
          "name": "pageSize",
          "type": "uint256"
        }
      ],
      "name": "getNFTsInCollection",
      "outputs": [
        {
          "internalType": "uint256[]",
          "name": "",
          "type": "uint256[]"
        }
      ],
      "stateMutability": "view",
      "type": "function"
    },
    {
      "inputs": [
        {
          "internalType": "address",
          "name": "owner",
          "type": "address"
        },
        {
          "internalType": "address",
          "name": "operator",
          "type": "address"
        }
      ],
      "name": "isApprovedForAll",
      "outputs": [
        {
          "internalType": "bool",
          "name": "",
          "type": "bool"
        }
      ],
      "stateMutability": "view",
      "type": "function"
    },
    {
      "inputs": [
        {
          "internalType": "address",
          "name": "",
          "type": "address"
        }
      ],
      "name": "lastCollectionTimestamp",
      "outputs": [
        {
          "internalType": "uint256",
          "name": "",
          "type": "uint256"
        }
      ],
      "stateMutability": "view",
      "type": "function"
    },
    {
      "inputs": [
        {
          "internalType": "uint256",
          "name": "collectionId",
          "type": "uint256"
        },
        {
          "internalType": "string",
          "name": "tokenURI",
          "type": "string"
        },
        {
          "internalType": "uint256",
          "name": "price",
          "type": "uint256"
        },
        {
          "internalType": "uint256",
          "name": "royaltyPercentage",
          "type": "uint256"
        },
        {
          "internalType": "bool",
          "name": "isMintToMarketplace",
          "type": "bool"
        }
      ],
      "name": "mint",
      "outputs": [
        {
          "internalType": "uint256",
          "name": "",
          "type": "uint256"
        }
      ],
      "stateMutability": "nonpayable",
      "type": "function"
    },
    {
      "inputs": [
        {
          "internalType": "uint256",
          "name": "collectionId",
          "type": "uint256"
        },
        {
          "internalType": "address",
          "name": "to",
          "type": "address"
        },
        {
          "internalType": "string",
          "name": "tokenURI",
          "type": "string"
        },
        {
          "internalType": "uint256",
          "name": "price",
          "type": "uint256"
        }
      ],
      "name": "mintToCollection",
      "outputs": [
        {
          "internalType": "uint256",
          "name": "tokenId",
          "type": "uint256"
        },
        {
          "internalType": "address",
          "name": "collectionOwner",
          "type": "address"
        }
      ],
      "stateMutability": "nonpayable",
      "type": "function"
    },
    {
      "inputs": [],
      "name": "name",
      "outputs": [
        {
          "internalType": "string",
          "name": "",
          "type": "string"
        }
      ],
      "stateMutability": "view",
      "type": "function"
    },
    {
      "inputs": [],
      "name": "owner",
      "outputs": [
        {
          "internalType": "address",
          "name": "",
          "type": "address"
        }
      ],
      "stateMutability": "view",
      "type": "function"
    },
    {
      "inputs": [
        {
          "internalType": "uint256",
          "name": "tokenId",
          "type": "uint256"
        }
      ],
      "name": "ownerOf",
      "outputs": [
        {
          "internalType": "address",
          "name": "",
          "type": "address"
        }
      ],
      "stateMutability": "view",
      "type": "function"
    },
    {
      "inputs": [],
      "name": "renounceOwnership",
      "outputs": [],
      "stateMutability": "nonpayable",
      "type": "function"
    },
    {
      "inputs": [
        {
          "internalType": "uint256",
          "name": "_tokenId",
          "type": "uint256"
        },
        {
          "internalType": "uint256",
          "name": "_salePrice",
          "type": "uint256"
        }
      ],
      "name": "royaltyInfo",
      "outputs": [
        {
          "internalType": "address",
          "name": "receiver",
          "type": "address"
        },
        {
          "internalType": "uint256",
          "name": "royaltyAmount",
          "type": "uint256"
        }
      ],
      "stateMutability": "view",
      "type": "function"
    },
    {
      "inputs": [
        {
          "internalType": "address",
          "name": "from",
          "type": "address"
        },
        {
          "internalType": "address",
          "name": "to",
          "type": "address"
        },
        {
          "internalType": "uint256",
          "name": "tokenId",
          "type": "uint256"
        }
      ],
      "name": "safeTransferFrom",
      "outputs": [],
      "stateMutability": "nonpayable",
      "type": "function"
    },
    {
      "inputs": [
        {
          "internalType": "address",
          "name": "from",
          "type": "address"
        },
        {
          "internalType": "address",
          "name": "to",
          "type": "address"
        },
        {
          "internalType": "uint256",
          "name": "tokenId",
          "type": "uint256"
        },
        {
          "internalType": "bytes",
          "name": "data",
          "type": "bytes"
        }
      ],
      "name": "safeTransferFrom",
      "outputs": [],
      "stateMutability": "nonpayable",
      "type": "function"
    },
    {
      "inputs": [
        {
          "internalType": "address",
          "name": "operator",
          "type": "address"
        },
        {
          "internalType": "bool",
          "name": "approved",
          "type": "bool"
        }
      ],
      "name": "setApprovalForAll",
      "outputs": [],
      "stateMutability": "nonpayable",
      "type": "function"
    },
    {
      "inputs": [
        {
          "internalType": "address payable",
          "name": "marketplaceAddress",
          "type": "address"
        }
      ],
      "name": "setMarketplace",
      "outputs": [],
      "stateMutability": "nonpayable",
      "type": "function"
    },
    {
      "inputs": [
        {
          "internalType": "bytes4",
          "name": "interfaceId",
          "type": "bytes4"
        }
      ],
      "name": "supportsInterface",
      "outputs": [
        {
          "internalType": "bool",
          "name": "",
          "type": "bool"
        }
      ],
      "stateMutability": "view",
      "type": "function"
    },
    {
      "inputs": [],
      "name": "symbol",
      "outputs": [
        {
          "internalType": "string",
          "name": "",
          "type": "string"
        }
      ],
      "stateMutability": "view",
      "type": "function"
    },
    {
      "inputs": [
        {
          "internalType": "uint256",
          "name": "tokenId",
          "type": "uint256"
        }
      ],
      "name": "tokenURI",
      "outputs": [
        {
          "internalType": "string",
          "name": "",
          "type": "string"
        }
      ],
      "stateMutability": "view",
      "type": "function"
    },
    {
      "inputs": [
        {
          "internalType": "address",
          "name": "from",
          "type": "address"
        },
        {
          "internalType": "address",
          "name": "to",
          "type": "address"
        },
        {
          "internalType": "uint256",
          "name": "tokenId",
          "type": "uint256"
        }
      ],
      "name": "transferFrom",
      "outputs": [],
      "stateMutability": "nonpayable",
      "type": "function"
    },
    {
      "inputs": [
        {
          "internalType": "address",
          "name": "newOwner",
          "type": "address"
        }
      ],
      "name": "transferOwnership",
      "outputs": [],
      "stateMutability": "nonpayable",
      "type": "function"
    }
  ],
  "bytecode": "0x60806040523480156200001157600080fd5b5060405162005cf338038062005cf38339818101604052810190620000379190620006d8565b6040518060400160405280601181526020017f455243373231436f6c6c656374696f6e730000000000000000000000000000008152506040518060400160405280600381526020017f53545200000000000000000000000000000000000000000000000000000000008152508160009080519060200190620000bb929190620005b6565b508060019080519060200190620000d4929190620005b6565b505050620000f7620000eb6200012b60201b60201c565b6200013360201b60201c565b6200010c8142600080620001f960201b60201c565b506200012460086200059260201b620021911760201c565b5062000bb5565b600033905090565b6000600760009054906101000a900473ffffffffffffffffffffffffffffffffffffffff16905081600760006101000a81548173ffffffffffffffffffffffffffffffffffffffff021916908373ffffffffffffffffffffffffffffffffffffffff1602179055508173ffffffffffffffffffffffffffffffffffffffff168173ffffffffffffffffffffffffffffffffffffffff167f8be0079c531659141344cd1fd0a4f28419497f9722a3daafe3b4186f6b6457e060405160405180910390a35050565b60006103e7601060003373ffffffffffffffffffffffffffffffffffffffff1673ffffffffffffffffffffffffffffffffffffffff168152602001908152602001600020541062000281576040517f08c379a0000000000000000000000000000000000000000000000000000000008152600401620002789062000828565b60405180910390fd5b42603c601160003373ffffffffffffffffffffffffffffffffffffffff1673ffffffffffffffffffffffffffffffffffffffff16815260200190815260200160002054620002d09190620008f9565b111562000314576040517f08c379a00000000000000000000000000000000000000000000000000000000081526004016200030b90620007e4565b60405180910390fd5b60648211156200035b576040517f08c379a0000000000000000000000000000000000000000000000000000000008152600401620003529062000806565b60405180910390fd5b6200037260096200059260201b620021911760201c565b6040518060c001604052808681526020016200039a6009620005a860201b620021a71760201c565b81526020013373ffffffffffffffffffffffffffffffffffffffff16815260200185815260200184815260200183815250600d6000620003e66009620005a860201b620021a71760201c565b8152602001908152602001600020600082015181600001908051906020019062000412929190620005b6565b506020820151816001015560408201518160020160006101000a81548173ffffffffffffffffffffffffffffffffffffffff021916908373ffffffffffffffffffffffffffffffffffffffff160217905550606082015181600301556080820151816004015560a08201518160050155905050601060003373ffffffffffffffffffffffffffffffffffffffff1673ffffffffffffffffffffffffffffffffffffffff1681526020019081526020016000206000815480929190620004d79062000a02565b919050555042601160003373ffffffffffffffffffffffffffffffffffffffff1673ffffffffffffffffffffffffffffffffffffffff168152602001908152602001600020819055507f62b7b5ba11bfc95430fab0460fdf99b9c8fbc2b3a6a48caf79c3ee1b591c0336620005586009620005a860201b620021a71760201c565b86604051620005699291906200084a565b60405180910390a1620005886009620005a860201b620021a71760201c565b9050949350505050565b6001816000016000828254019250508190555050565b600081600001549050919050565b828054620005c49062000996565b90600052602060002090601f016020900481019282620005e8576000855562000634565b82601f106200060357805160ff191683800117855562000634565b8280016001018555821562000634579182015b828111156200063357825182559160200191906001019062000616565b5b50905062000643919062000647565b5090565b5b808211156200066257600081600090555060010162000648565b5090565b60006200067d6200067784620008a7565b6200087e565b9050828152602081018484840111156200069657600080fd5b620006a384828562000960565b509392505050565b600082601f830112620006bd57600080fd5b8151620006cf84826020860162000666565b91505092915050565b600060208284031215620006eb57600080fd5b600082015167ffffffffffffffff8111156200070657600080fd5b6200071484828501620006ab565b91505092915050565b60006200072a82620008dd565b620007368185620008e8565b93506200074881856020860162000960565b620007538162000add565b840191505092915050565b60006200076d602c83620008e8565b91506200077a8262000aee565b604082019050919050565b600062000794602c83620008e8565b9150620007a18262000b3d565b604082019050919050565b6000620007bb601783620008e8565b9150620007c88262000b8c565b602082019050919050565b620007de8162000956565b82525050565b60006020820190508181036000830152620007ff816200075e565b9050919050565b60006020820190508181036000830152620008218162000785565b9050919050565b600060208201905081810360008301526200084381620007ac565b9050919050565b6000604082019050620008616000830185620007d3565b81810360208301526200087581846200071d565b90509392505050565b60006200088a6200089d565b9050620008988282620009cc565b919050565b6000604051905090565b600067ffffffffffffffff821115620008c557620008c462000aae565b5b620008d08262000add565b9050602081019050919050565b600081519050919050565b600082825260208201905092915050565b6000620009068262000956565b9150620009138362000956565b9250827fffffffffffffffffffffffffffffffffffffffffffffffffffffffffffffffff038211156200094b576200094a62000a50565b5b828201905092915050565b6000819050919050565b60005b838110156200098057808201518184015260208101905062000963565b8381111562000990576000848401525b50505050565b60006002820490506001821680620009af57607f821691505b60208210811415620009c657620009c562000a7f565b5b50919050565b620009d78262000add565b810181811067ffffffffffffffff82111715620009f957620009f862000aae565b5b80604052505050565b600062000a0f8262000956565b91507fffffffffffffffffffffffffffffffffffffffffffffffffffffffffffffffff82141562000a455762000a4462000a50565b5b600182019050919050565b7f4e487b7100000000000000000000000000000000000000000000000000000000600052601160045260246000fd5b7f4e487b7100000000000000000000000000000000000000000000000000000000600052602260045260246000fd5b7f4e487b7100000000000000000000000000000000000000000000000000000000600052604160045260246000fd5b6000601f19601f8301169050919050565b7f4d7573742077616974206265666f7265206372656174696e6720616e6f74686560008201527f7220636f6c6c656374696f6e0000000000000000000000000000000000000000602082015250565b7f526f79616c746965732070657263656e746167652073686f756c64206265206c60008201527f657373207468616e203130300000000000000000000000000000000000000000602082015250565b7f4d617820636f6c6c656374696f6e732072656163686564000000000000000000600082015250565b61512e8062000bc56000396000f3fe608060405234801561001057600080fd5b50600436106101cf5760003560e01c8063715018a611610104578063ad9f20a6116100a2578063d08b28ea11610071578063d08b28ea1461058c578063da0277fd146105bc578063e985e9c5146105ec578063f2fde38b1461061c576101cf565b8063ad9f20a6146104f2578063b88d4fde14610510578063bd6fbad91461052c578063c87b56dd1461055c576101cf565b806382abfbd6116100de57806382abfbd61461046a5780638da5cb5b1461049a57806395d89b41146104b8578063a22cb465146104d6576101cf565b8063715018a61461041457806373ad6c2d1461041e57806382a17cdb1461043a576101cf565b806342842e0e116101715780636313a3e81161014b5780636313a3e8146103675780636352211e1461039857806370342d0c146103c857806370a08231146103e4576101cf565b806342842e0e146102eb57806344ce938e146103075780635a1f3c2814610337576101cf565b8063095ea7b3116101ad578063095ea7b31461025257806323b872dd1461026e5780632a55205a1461028a578063394120c0146102bb576101cf565b806301ffc9a7146101d457806306fdde0314610204578063081812fc14610222575b600080fd5b6101ee60048036038101906101e9919061379d565b610638565b6040516101fb91906140d5565b60405180910390f35b61020c610699565b60405161021991906140f0565b60405180910390f35b61023c6004803603810190610237919061386a565b61072b565b6040516102499190614023565b60405180910390f35b61026c60048036038101906102679190613761565b610771565b005b6102886004803603810190610283919061365b565b610889565b005b6102a4600480360381019061029f919061399d565b6108e9565b6040516102b292919061408a565b60405180910390f35b6102d560048036038101906102d0919061386a565b610962565b6040516102e29190614023565b60405180910390f35b6103056004803603810190610300919061365b565b6109a2565b005b610321600480360381019061031c91906137ef565b6109c2565b60405161032e9190614494565b60405180910390f35b610351600480360381019061034c919061386a565b610d09565b60405161035e9190614472565b60405180910390f35b610381600480360381019061037c9190613893565b610e46565b60405161038f9291906144af565b60405180910390f35b6103b260048036038101906103ad919061386a565b6111c4565b6040516103bf9190614023565b60405180910390f35b6103e260048036038101906103dd919061399d565b61124b565b005b6103fe60048036038101906103f991906135cd565b6113eb565b60405161040b9190614494565b60405180910390f35b61041c6114a3565b005b610438600480360381019061043391906135f6565b6114b7565b005b610454600480360381019061044f91906135cd565b611604565b6040516104619190614494565b60405180910390f35b610484600480360381019061047f919061390e565b61161c565b6040516104919190614494565b60405180910390f35b6104a2611a01565b6040516104af9190614023565b60405180910390f35b6104c0611a2b565b6040516104cd91906140f0565b60405180910390f35b6104f060048036038101906104eb9190613725565b611abd565b005b6104fa611ad3565b6040516105079190614494565b60405180910390f35b61052a600480360381019061052591906136aa565b611ade565b005b610546600480360381019061054191906135cd565b611b40565b6040516105539190614494565b60405180910390f35b6105766004803603810190610571919061386a565b611b58565b60405161058391906140f0565b60405180910390f35b6105a660048036038101906105a191906139d9565b611c6b565b6040516105b391906140b3565b60405180910390f35b6105d660048036038101906105d1919061386a565b611ecc565b6040516105e39190614472565b60405180910390f35b6106066004803603810190610601919061361f565b612079565b60405161061391906140d5565b60405180910390f35b610636600480360381019061063191906135cd565b61210d565b005b6000634906490660e01b7bffffffffffffffffffffffffffffffffffffffffffffffffffffffff1916827bffffffffffffffffffffffffffffffffffffffffffffffffffffffff191614806106925750610691826121b5565b5b9050919050565b6060600080546106a890614859565b80601f01602080910402602001604051908101604052809291908181526020018280546106d490614859565b80156107215780601f106106f657610100808354040283529160200191610721565b820191906000526020600020905b81548152906001019060200180831161070457829003601f168201915b5050505050905090565b600061073682612297565b6004600083815260200190815260200160002060009054906101000a900473ffffffffffffffffffffffffffffffffffffffff169050919050565b600061077c826111c4565b90508073ffffffffffffffffffffffffffffffffffffffff168373ffffffffffffffffffffffffffffffffffffffff1614156107ed576040517f08c379a00000000000000000000000000000000000000000000000000000000081526004016107e4906143f2565b60405180910390fd5b8073ffffffffffffffffffffffffffffffffffffffff1661080c6122e2565b73ffffffffffffffffffffffffffffffffffffffff16148061083b575061083a816108356122e2565b612079565b5b61087a576040517f08c379a000000000000000000000000000000000000000000000000000000000815260040161087190614412565b60405180910390fd5b61088483836122ea565b505050565b61089a6108946122e2565b826123a3565b6108d9576040517f08c379a00000000000000000000000000000000000000000000000000000000081526004016108d090614112565b60405180910390fd5b6108e4838383612438565b505050565b6000806000600b60008681526020019081526020016000205490506000606482866109149190614703565b61091e91906146d2565b9050600a600087815260200190815260200160002060009054906101000a900473ffffffffffffffffffffffffffffffffffffffff16819350935050509250929050565b6000600d600083815260200190815260200160002060020160009054906101000a900473ffffffffffffffffffffffffffffffffffffffff169050919050565b6109bd83838360405180602001604052806000815250611ade565b505050565b60006103e7601060003373ffffffffffffffffffffffffffffffffffffffff1673ffffffffffffffffffffffffffffffffffffffff1681526020019081526020016000205410610a47576040517f08c379a0000000000000000000000000000000000000000000000000000000008152600401610a3e90614312565b60405180910390fd5b42603c601160003373ffffffffffffffffffffffffffffffffffffffff1673ffffffffffffffffffffffffffffffffffffffff16815260200190815260200160002054610a94919061467c565b1115610ad5576040517f08c379a0000000000000000000000000000000000000000000000000000000008152600401610acc90614152565b60405180910390fd5b6064821115610b19576040517f08c379a0000000000000000000000000000000000000000000000000000000008152600401610b1090614252565b60405180910390fd5b610b236009612191565b6040518060c00160405280868152602001610b3e60096121a7565b81526020013373ffffffffffffffffffffffffffffffffffffffff16815260200185815260200184815260200183815250600d6000610b7d60096121a7565b81526020019081526020016000206000820151816000019080519060200190610ba7929190613390565b506020820151816001015560408201518160020160006101000a81548173ffffffffffffffffffffffffffffffffffffffff021916908373ffffffffffffffffffffffffffffffffffffffff160217905550606082015181600301556080820151816004015560a08201518160050155905050601060003373ffffffffffffffffffffffffffffffffffffffff1673ffffffffffffffffffffffffffffffffffffffff1681526020019081526020016000206000815480929190610c6a906148bc565b919050555042601160003373ffffffffffffffffffffffffffffffffffffffff1673ffffffffffffffffffffffffffffffffffffffff168152602001908152602001600020819055507f62b7b5ba11bfc95430fab0460fdf99b9c8fbc2b3a6a48caf79c3ee1b591c0336610cde60096121a7565b86604051610ced9291906144d8565b60405180910390a1610cff60096121a7565b9050949350505050565b610d11613416565b600d60008381526020019081526020016000206040518060c0016040529081600082018054610d3f90614859565b80601f0160208091040260200160405190810160405280929190818152602001828054610d6b90614859565b8015610db85780601f10610d8d57610100808354040283529160200191610db8565b820191906000526020600020905b815481529060010190602001808311610d9b57829003601f168201915b50505050508152602001600182015481526020016002820160009054906101000a900473ffffffffffffffffffffffffffffffffffffffff1673ffffffffffffffffffffffffffffffffffffffff1673ffffffffffffffffffffffffffffffffffffffff16815260200160038201548152602001600482015481526020016005820154815250509050919050565b600080600c60009054906101000a900473ffffffffffffffffffffffffffffffffffffffff1673ffffffffffffffffffffffffffffffffffffffff163373ffffffffffffffffffffffffffffffffffffffff1614610ed9576040517f08c379a0000000000000000000000000000000000000000000000000000000008152600401610ed090614452565b60405180910390fd5b6000600d6000888152602001908152602001600020600101541415610f33576040517f08c379a0000000000000000000000000000000000000000000000000000000008152600401610f2a90614232565b60405180910390fd5b600d600087815260200190815260200160002060030154421015610f8c576040517f08c379a0000000000000000000000000000000000000000000000000000000008152600401610f8390614432565b60405180910390fd5b600d6000878152602001908152602001600020600401548314610fe4576040517f08c379a0000000000000000000000000000000000000000000000000000000008152600401610fdb90614192565b60405180910390fd5b611011600c60009054906101000a900473ffffffffffffffffffffffffffffffffffffffff166001611abd565b600061101d60086121a7565b90506110296008612191565b6110338682612732565b61103d8186612950565b86600f600083815260200190815260200160002081905550600e6000888152602001908152602001600020819080600181540180825580915050600190039060005260206000200160009091909190915055600d600088815260200190815260200160002060020160009054906101000a900473ffffffffffffffffffffffffffffffffffffffff16600a600083815260200190815260200160002060006101000a81548173ffffffffffffffffffffffffffffffffffffffff021916908373ffffffffffffffffffffffffffffffffffffffff160217905550600d600088815260200190815260200160002060050154600b6000838152602001908152602001600020819055507f5f7666687319b40936f33c188908d86aea154abd3f4127b4fa0a3f04f303c7da8188604051611176929190614508565b60405180910390a180600d600089815260200190815260200160002060020160009054906101000a900473ffffffffffffffffffffffffffffffffffffffff16925092505094509492505050565b6000806111d0836129fb565b9050600073ffffffffffffffffffffffffffffffffffffffff168173ffffffffffffffffffffffffffffffffffffffff161415611242576040517f08c379a0000000000000000000000000000000000000000000000000000000008152600401611239906143d2565b60405180910390fd5b80915050919050565b6000600d60008481526020019081526020016000206001015414156112a5576040517f08c379a000000000000000000000000000000000000000000000000000000000815260040161129c90614232565b60405180910390fd5b600d600083815260200190815260200160002060020160009054906101000a900473ffffffffffffffffffffffffffffffffffffffff1673ffffffffffffffffffffffffffffffffffffffff163373ffffffffffffffffffffffffffffffffffffffff1614611349576040517f08c379a000000000000000000000000000000000000000000000000000000000815260040161134090614272565b60405180910390fd5b662386f26fc10000811015611393576040517f08c379a000000000000000000000000000000000000000000000000000000000815260040161138a90614292565b60405180910390fd5b80600d6000848152602001908152602001600020600401819055507f2063f24eb8e50478aa99484fcf0f591be5a95d83129c7388c3da4bd776655e7a82826040516113df929190614508565b60405180910390a15050565b60008073ffffffffffffffffffffffffffffffffffffffff168273ffffffffffffffffffffffffffffffffffffffff16141561145c576040517f08c379a000000000000000000000000000000000000000000000000000000000815260040161145390614332565b60405180910390fd5b600360008373ffffffffffffffffffffffffffffffffffffffff1673ffffffffffffffffffffffffffffffffffffffff168152602001908152602001600020549050919050565b6114ab612a38565b6114b56000612ab6565b565b6114bf612a38565b600073ffffffffffffffffffffffffffffffffffffffff16600c60009054906101000a900473ffffffffffffffffffffffffffffffffffffffff1673ffffffffffffffffffffffffffffffffffffffff1614611550576040517f08c379a0000000000000000000000000000000000000000000000000000000008152600401611547906143b2565b60405180910390fd5b600073ffffffffffffffffffffffffffffffffffffffff168173ffffffffffffffffffffffffffffffffffffffff1614156115c0576040517f08c379a00000000000000000000000000000000000000000000000000000000081526004016115b790614132565b60405180910390fd5b80600c60006101000a81548173ffffffffffffffffffffffffffffffffffffffff021916908373ffffffffffffffffffffffffffffffffffffffff16021790555050565b60116020528060005260406000206000915090505481565b6000600d600087815260200190815260200160002060030154421015611677576040517f08c379a000000000000000000000000000000000000000000000000000000000815260040161166e90614432565b60405180910390fd5b662386f26fc100008410156116c1576040517f08c379a00000000000000000000000000000000000000000000000000000000081526004016116b8906141b2565b60405180910390fd5b6000600d600088815260200190815260200160002060010154141561171b576040517f08c379a000000000000000000000000000000000000000000000000000000000815260040161171290614232565b60405180910390fd5b606483111561175f576040517f08c379a000000000000000000000000000000000000000000000000000000000815260040161175690614252565b60405180910390fd5b60018614806117cf57503373ffffffffffffffffffffffffffffffffffffffff16600d600088815260200190815260200160002060020160009054906101000a900473ffffffffffffffffffffffffffffffffffffffff1673ffffffffffffffffffffffffffffffffffffffff16145b61180e576040517f08c379a000000000000000000000000000000000000000000000000000000000815260040161180590614272565b60405180910390fd5b61183b600c60009054906101000a900473ffffffffffffffffffffffffffffffffffffffff166001611abd565b600061184760086121a7565b90506118536008612191565b61185d3382612732565b6118678187612950565b86600f600083815260200190815260200160002081905550600e600088815260200190815260200160002081908060018154018082558091505060019003906000526020600020016000909190919091505533600a600083815260200190815260200160002060006101000a81548173ffffffffffffffffffffffffffffffffffffffff021916908373ffffffffffffffffffffffffffffffffffffffff16021790555083600b60008381526020019081526020016000208190555082156119bb57600c60009054906101000a900473ffffffffffffffffffffffffffffffffffffffff1673ffffffffffffffffffffffffffffffffffffffff166302998cf38287306040518463ffffffff1660e01b815260040161198893929190614531565b600060405180830381600087803b1580156119a257600080fd5b505af11580156119b6573d6000803e3d6000fd5b505050505b7f5f7666687319b40936f33c188908d86aea154abd3f4127b4fa0a3f04f303c7da81886040516119ec929190614508565b60405180910390a18091505095945050505050565b6000600760009054906101000a900473ffffffffffffffffffffffffffffffffffffffff16905090565b606060018054611a3a90614859565b80601f0160208091040260200160405190810160405280929190818152602001828054611a6690614859565b8015611ab35780601f10611a8857610100808354040283529160200191611ab3565b820191906000526020600020905b815481529060010190602001808311611a9657829003601f168201915b5050505050905090565b611acf611ac86122e2565b8383612b7c565b5050565b662386f26fc1000081565b611aef611ae96122e2565b836123a3565b611b2e576040517f08c379a0000000000000000000000000000000000000000000000000000000008152600401611b2590614112565b60405180910390fd5b611b3a84848484612ce9565b50505050565b60106020528060005260406000206000915090505481565b6060611b6382612297565b6000600660008481526020019081526020016000208054611b8390614859565b80601f0160208091040260200160405190810160405280929190818152602001828054611baf90614859565b8015611bfc5780601f10611bd157610100808354040283529160200191611bfc565b820191906000526020600020905b815481529060010190602001808311611bdf57829003601f168201915b505050505090506000611c0d612d45565b9050600081511415611c23578192505050611c66565b600082511115611c58578082604051602001611c40929190613fff565b60405160208183030381529060405292505050611c66565b611c6184612d5c565b925050505b919050565b60606000600e6000868152602001908152602001600020805480602002602001604051908101604052809291908181526020018280548015611ccc57602002820191906000526020600020905b815481526020019060010190808311611cb8575b50505050509050600081511480611ce4575080518410155b15611d6157600067ffffffffffffffff811115611d2a577f4e487b7100000000000000000000000000000000000000000000000000000000600052604160045260246000fd5b604051908082528060200260200182016040528015611d585781602001602082028036833780820191505090505b50915050611ec5565b6064831115611d6f57606492505b60008385611d7d919061467c565b90508151811115611d8d57815190505b60008582611d9b919061475d565b67ffffffffffffffff811115611dda577f4e487b7100000000000000000000000000000000000000000000000000000000600052604160045260246000fd5b604051908082528060200260200182016040528015611e085781602001602082028036833780820191505090505b50905060008690505b82811015611ebd57838181518110611e52577f4e487b7100000000000000000000000000000000000000000000000000000000600052603260045260246000fd5b6020026020010151828883611e67919061475d565b81518110611e9e577f4e487b7100000000000000000000000000000000000000000000000000000000600052603260045260246000fd5b6020026020010181815250508080611eb5906148bc565b915050611e11565b508093505050505b9392505050565b611ed4613416565b6000600f6000848152602001908152602001600020541415611f2b576040517f08c379a0000000000000000000000000000000000000000000000000000000008152600401611f22906142f2565b60405180910390fd5b6000600f6000848152602001908152602001600020549050600d60008281526020019081526020016000206040518060c0016040529081600082018054611f7190614859565b80601f0160208091040260200160405190810160405280929190818152602001828054611f9d90614859565b8015611fea5780601f10611fbf57610100808354040283529160200191611fea565b820191906000526020600020905b815481529060010190602001808311611fcd57829003601f168201915b50505050508152602001600182015481526020016002820160009054906101000a900473ffffffffffffffffffffffffffffffffffffffff1673ffffffffffffffffffffffffffffffffffffffff1673ffffffffffffffffffffffffffffffffffffffff1681526020016003820154815260200160048201548152602001600582015481525050915050919050565b6000600560008473ffffffffffffffffffffffffffffffffffffffff1673ffffffffffffffffffffffffffffffffffffffff16815260200190815260200160002060008373ffffffffffffffffffffffffffffffffffffffff1673ffffffffffffffffffffffffffffffffffffffff16815260200190815260200160002060009054906101000a900460ff16905092915050565b612115612a38565b600073ffffffffffffffffffffffffffffffffffffffff168173ffffffffffffffffffffffffffffffffffffffff161415612185576040517f08c379a000000000000000000000000000000000000000000000000000000000815260040161217c906141d2565b60405180910390fd5b61218e81612ab6565b50565b6001816000016000828254019250508190555050565b600081600001549050919050565b60007f80ac58cd000000000000000000000000000000000000000000000000000000007bffffffffffffffffffffffffffffffffffffffffffffffffffffffff1916827bffffffffffffffffffffffffffffffffffffffffffffffffffffffff1916148061228057507f5b5e139f000000000000000000000000000000000000000000000000000000007bffffffffffffffffffffffffffffffffffffffffffffffffffffffff1916827bffffffffffffffffffffffffffffffffffffffffffffffffffffffff1916145b80612290575061228f82612dc4565b5b9050919050565b6122a081612e2e565b6122df576040517f08c379a00000000000000000000000000000000000000000000000000000000081526004016122d6906143d2565b60405180910390fd5b50565b600033905090565b816004600083815260200190815260200160002060006101000a81548173ffffffffffffffffffffffffffffffffffffffff021916908373ffffffffffffffffffffffffffffffffffffffff160217905550808273ffffffffffffffffffffffffffffffffffffffff1661235d836111c4565b73ffffffffffffffffffffffffffffffffffffffff167f8c5be1e5ebec7d5bd14f71427d1e84f3dd0314c0f7b2291e5b200ac8c7c3b92560405160405180910390a45050565b6000806123af836111c4565b90508073ffffffffffffffffffffffffffffffffffffffff168473ffffffffffffffffffffffffffffffffffffffff1614806123f157506123f08185612079565b5b8061242f57508373ffffffffffffffffffffffffffffffffffffffff166124178461072b565b73ffffffffffffffffffffffffffffffffffffffff16145b91505092915050565b8273ffffffffffffffffffffffffffffffffffffffff16612458826111c4565b73ffffffffffffffffffffffffffffffffffffffff16146124ae576040517f08c379a00000000000000000000000000000000000000000000000000000000081526004016124a5906141f2565b60405180910390fd5b600073ffffffffffffffffffffffffffffffffffffffff168273ffffffffffffffffffffffffffffffffffffffff16141561251e576040517f08c379a0000000000000000000000000000000000000000000000000000000008152600401612515906142b2565b60405180910390fd5b61252b8383836001612e6f565b8273ffffffffffffffffffffffffffffffffffffffff1661254b826111c4565b73ffffffffffffffffffffffffffffffffffffffff16146125a1576040517f08c379a0000000000000000000000000000000000000000000000000000000008152600401612598906141f2565b60405180910390fd5b6004600082815260200190815260200160002060006101000a81549073ffffffffffffffffffffffffffffffffffffffff02191690556001600360008573ffffffffffffffffffffffffffffffffffffffff1673ffffffffffffffffffffffffffffffffffffffff168152602001908152602001600020600082825403925050819055506001600360008473ffffffffffffffffffffffffffffffffffffffff1673ffffffffffffffffffffffffffffffffffffffff16815260200190815260200160002060008282540192505081905550816002600083815260200190815260200160002060006101000a81548173ffffffffffffffffffffffffffffffffffffffff021916908373ffffffffffffffffffffffffffffffffffffffff160217905550808273ffffffffffffffffffffffffffffffffffffffff168473ffffffffffffffffffffffffffffffffffffffff167fddf252ad1be2c89b69c2b068fc378daa952ba7f163c4a11628f55a4df523b3ef60405160405180910390a461272d8383836001612e75565b505050565b600073ffffffffffffffffffffffffffffffffffffffff168273ffffffffffffffffffffffffffffffffffffffff1614156127a2576040517f08c379a000000000000000000000000000000000000000000000000000000000815260040161279990614372565b60405180910390fd5b6127ab81612e2e565b156127eb576040517f08c379a00000000000000000000000000000000000000000000000000000000081526004016127e290614212565b60405180910390fd5b6127f9600083836001612e6f565b61280281612e2e565b15612842576040517f08c379a000000000000000000000000000000000000000000000000000000000815260040161283990614212565b60405180910390fd5b6001600360008473ffffffffffffffffffffffffffffffffffffffff1673ffffffffffffffffffffffffffffffffffffffff16815260200190815260200160002060008282540192505081905550816002600083815260200190815260200160002060006101000a81548173ffffffffffffffffffffffffffffffffffffffff021916908373ffffffffffffffffffffffffffffffffffffffff160217905550808273ffffffffffffffffffffffffffffffffffffffff16600073ffffffffffffffffffffffffffffffffffffffff167fddf252ad1be2c89b69c2b068fc378daa952ba7f163c4a11628f55a4df523b3ef60405160405180910390a461294c600083836001612e75565b5050565b61295982612e2e565b612998576040517f08c379a000000000000000000000000000000000000000000000000000000000815260040161298f90614352565b60405180910390fd5b806006600084815260200190815260200160002090805190602001906129bf929190613390565b507ff8e1a15aba9398e019f0b49df1a4fde98ee17ae345cb5f6b5e2c27f5033e8ce7826040516129ef9190614494565b60405180910390a15050565b60006002600083815260200190815260200160002060009054906101000a900473ffffffffffffffffffffffffffffffffffffffff169050919050565b612a406122e2565b73ffffffffffffffffffffffffffffffffffffffff16612a5e611a01565b73ffffffffffffffffffffffffffffffffffffffff1614612ab4576040517f08c379a0000000000000000000000000000000000000000000000000000000008152600401612aab90614392565b60405180910390fd5b565b6000600760009054906101000a900473ffffffffffffffffffffffffffffffffffffffff16905081600760006101000a81548173ffffffffffffffffffffffffffffffffffffffff021916908373ffffffffffffffffffffffffffffffffffffffff1602179055508173ffffffffffffffffffffffffffffffffffffffff168173ffffffffffffffffffffffffffffffffffffffff167f8be0079c531659141344cd1fd0a4f28419497f9722a3daafe3b4186f6b6457e060405160405180910390a35050565b8173ffffffffffffffffffffffffffffffffffffffff168373ffffffffffffffffffffffffffffffffffffffff161415612beb576040517f08c379a0000000000000000000000000000000000000000000000000000000008152600401612be2906142d2565b60405180910390fd5b80600560008573ffffffffffffffffffffffffffffffffffffffff1673ffffffffffffffffffffffffffffffffffffffff16815260200190815260200160002060008473ffffffffffffffffffffffffffffffffffffffff1673ffffffffffffffffffffffffffffffffffffffff16815260200190815260200160002060006101000a81548160ff0219169083151502179055508173ffffffffffffffffffffffffffffffffffffffff168373ffffffffffffffffffffffffffffffffffffffff167f17307eab39ab6107e8899845ad3d59bd9653f200f220920489ca2b5937696c3183604051612cdc91906140d5565b60405180910390a3505050565b612cf4848484612438565b612d0084848484612e7b565b612d3f576040517f08c379a0000000000000000000000000000000000000000000000000000000008152600401612d3690614172565b60405180910390fd5b50505050565b606060405180602001604052806000815250905090565b6060612d6782612297565b6000612d71612d45565b90506000815111612d915760405180602001604052806000815250612dbc565b80612d9b84613012565b604051602001612dac929190613fff565b6040516020818303038152906040525b915050919050565b60007f01ffc9a7000000000000000000000000000000000000000000000000000000007bffffffffffffffffffffffffffffffffffffffffffffffffffffffff1916827bffffffffffffffffffffffffffffffffffffffffffffffffffffffff1916149050919050565b60008073ffffffffffffffffffffffffffffffffffffffff16612e50836129fb565b73ffffffffffffffffffffffffffffffffffffffff1614159050919050565b50505050565b50505050565b6000612e9c8473ffffffffffffffffffffffffffffffffffffffff16613136565b15613005578373ffffffffffffffffffffffffffffffffffffffff1663150b7a02612ec56122e2565b8786866040518563ffffffff1660e01b8152600401612ee7949392919061403e565b602060405180830381600087803b158015612f0157600080fd5b505af1925050508015612f3257506040513d601f19601f82011682018060405250810190612f2f91906137c6565b60015b612fb5573d8060008114612f62576040519150601f19603f3d011682016040523d82523d6000602084013e612f67565b606091505b50600081511415612fad576040517f08c379a0000000000000000000000000000000000000000000000000000000008152600401612fa490614172565b60405180910390fd5b805181602001fd5b63150b7a0260e01b7bffffffffffffffffffffffffffffffffffffffffffffffffffffffff1916817bffffffffffffffffffffffffffffffffffffffffffffffffffffffff19161491505061300a565b600190505b949350505050565b60606000600161302184613159565b01905060008167ffffffffffffffff811115613066577f4e487b7100000000000000000000000000000000000000000000000000000000600052604160045260246000fd5b6040519080825280601f01601f1916602001820160405280156130985781602001600182028036833780820191505090505b509050600082602001820190505b60011561312b578080600190039150507f3031323334353637383961626364656600000000000000000000000000000000600a86061a8153600a8581613115577f4e487b7100000000000000000000000000000000000000000000000000000000600052601260045260246000fd5b04945060008514156131265761312b565b6130a6565b819350505050919050565b6000808273ffffffffffffffffffffffffffffffffffffffff163b119050919050565b600080600090507a184f03e93ff9f4daa797ed6e38ed64bf6a1f01000000000000000083106131dd577a184f03e93ff9f4daa797ed6e38ed64bf6a1f01000000000000000083816131d3577f4e487b7100000000000000000000000000000000000000000000000000000000600052601260045260246000fd5b0492506040810190505b6d04ee2d6d415b85acef81000000008310613240576d04ee2d6d415b85acef81000000008381613236577f4e487b7100000000000000000000000000000000000000000000000000000000600052601260045260246000fd5b0492506020810190505b662386f26fc10000831061329557662386f26fc10000838161328b577f4e487b7100000000000000000000000000000000000000000000000000000000600052601260045260246000fd5b0492506010810190505b6305f5e10083106132e4576305f5e10083816132da577f4e487b7100000000000000000000000000000000000000000000000000000000600052601260045260246000fd5b0492506008810190505b612710831061332f576127108381613325577f4e487b7100000000000000000000000000000000000000000000000000000000600052601260045260246000fd5b0492506004810190505b60648310613378576064838161336e577f4e487b7100000000000000000000000000000000000000000000000000000000600052601260045260246000fd5b0492506002810190505b600a8310613387576001810190505b80915050919050565b82805461339c90614859565b90600052602060002090601f0160209004810192826133be5760008555613405565b82601f106133d757805160ff1916838001178555613405565b82800160010185558215613405579182015b828111156134045782518255916020019190600101906133e9565b5b5090506134129190613462565b5090565b6040518060c001604052806060815260200160008152602001600073ffffffffffffffffffffffffffffffffffffffff1681526020016000815260200160008152602001600081525090565b5b8082111561347b576000816000905550600101613463565b5090565b600061349261348d8461458d565b614568565b9050828152602081018484840111156134aa57600080fd5b6134b5848285614817565b509392505050565b60006134d06134cb846145be565b614568565b9050828152602081018484840111156134e857600080fd5b6134f3848285614817565b509392505050565b60008135905061350a81615085565b92915050565b60008135905061351f8161509c565b92915050565b600081359050613534816150b3565b92915050565b600081359050613549816150ca565b92915050565b60008151905061355e816150ca565b92915050565b600082601f83011261357557600080fd5b813561358584826020860161347f565b91505092915050565b600082601f83011261359f57600080fd5b81356135af8482602086016134bd565b91505092915050565b6000813590506135c7816150e1565b92915050565b6000602082840312156135df57600080fd5b60006135ed848285016134fb565b91505092915050565b60006020828403121561360857600080fd5b600061361684828501613510565b91505092915050565b6000806040838503121561363257600080fd5b6000613640858286016134fb565b9250506020613651858286016134fb565b9150509250929050565b60008060006060848603121561367057600080fd5b600061367e868287016134fb565b935050602061368f868287016134fb565b92505060406136a0868287016135b8565b9150509250925092565b600080600080608085870312156136c057600080fd5b60006136ce878288016134fb565b94505060206136df878288016134fb565b93505060406136f0878288016135b8565b925050606085013567ffffffffffffffff81111561370d57600080fd5b61371987828801613564565b91505092959194509250565b6000806040838503121561373857600080fd5b6000613746858286016134fb565b925050602061375785828601613525565b9150509250929050565b6000806040838503121561377457600080fd5b6000613782858286016134fb565b9250506020613793858286016135b8565b9150509250929050565b6000602082840312156137af57600080fd5b60006137bd8482850161353a565b91505092915050565b6000602082840312156137d857600080fd5b60006137e68482850161354f565b91505092915050565b6000806000806080858703121561380557600080fd5b600085013567ffffffffffffffff81111561381f57600080fd5b61382b8782880161358e565b945050602061383c878288016135b8565b935050604061384d878288016135b8565b925050606061385e878288016135b8565b91505092959194509250565b60006020828403121561387c57600080fd5b600061388a848285016135b8565b91505092915050565b600080600080608085870312156138a957600080fd5b60006138b7878288016135b8565b94505060206138c8878288016134fb565b935050604085013567ffffffffffffffff8111156138e557600080fd5b6138f18782880161358e565b9250506060613902878288016135b8565b91505092959194509250565b600080600080600060a0868803121561392657600080fd5b6000613934888289016135b8565b955050602086013567ffffffffffffffff81111561395157600080fd5b61395d8882890161358e565b945050604061396e888289016135b8565b935050606061397f888289016135b8565b925050608061399088828901613525565b9150509295509295909350565b600080604083850312156139b057600080fd5b60006139be858286016135b8565b92505060206139cf858286016135b8565b9150509250929050565b6000806000606084860312156139ee57600080fd5b60006139fc868287016135b8565b9350506020613a0d868287016135b8565b9250506040613a1e868287016135b8565b9150509250925092565b6000613a348383613fe1565b60208301905092915050565b613a4981614791565b82525050565b613a5881614791565b82525050565b6000613a69826145ff565b613a73818561462d565b9350613a7e836145ef565b8060005b83811015613aaf578151613a968882613a28565b9750613aa183614620565b925050600181019050613a82565b5085935050505092915050565b613ac5816147b5565b82525050565b6000613ad68261460a565b613ae0818561463e565b9350613af0818560208601614826565b613af9816149c1565b840191505092915050565b6000613b0f82614615565b613b19818561464f565b9350613b29818560208601614826565b613b32816149c1565b840191505092915050565b6000613b4882614615565b613b528185614660565b9350613b62818560208601614826565b613b6b816149c1565b840191505092915050565b6000613b8182614615565b613b8b8185614671565b9350613b9b818560208601614826565b80840191505092915050565b6000613bb4602d83614660565b9150613bbf826149d2565b604082019050919050565b6000613bd7600f83614660565b9150613be282614a21565b602082019050919050565b6000613bfa602c83614660565b9150613c0582614a4a565b604082019050919050565b6000613c1d603283614660565b9150613c2882614a99565b604082019050919050565b6000613c40602f83614660565b9150613c4b82614ae8565b604082019050919050565b6000613c63602083614660565b9150613c6e82614b37565b602082019050919050565b6000613c86602683614660565b9150613c9182614b60565b604082019050919050565b6000613ca9602583614660565b9150613cb482614baf565b604082019050919050565b6000613ccc601c83614660565b9150613cd782614bfe565b602082019050919050565b6000613cef601983614660565b9150613cfa82614c27565b602082019050919050565b6000613d12602c83614660565b9150613d1d82614c50565b604082019050919050565b6000613d35601f83614660565b9150613d4082614c9f565b602082019050919050565b6000613d58602983614660565b9150613d6382614cc8565b604082019050919050565b6000613d7b602483614660565b9150613d8682614d17565b604082019050919050565b6000613d9e601983614660565b9150613da982614d66565b602082019050919050565b6000613dc1602783614660565b9150613dcc82614d8f565b604082019050919050565b6000613de4601783614660565b9150613def82614dde565b602082019050919050565b6000613e07602983614660565b9150613e1282614e07565b604082019050919050565b6000613e2a602e83614660565b9150613e3582614e56565b604082019050919050565b6000613e4d602083614660565b9150613e5882614ea5565b602082019050919050565b6000613e70602083614660565b9150613e7b82614ece565b602082019050919050565b6000613e93602883614660565b9150613e9e82614ef7565b604082019050919050565b6000613eb6601883614660565b9150613ec182614f46565b602082019050919050565b6000613ed9602183614660565b9150613ee482614f6f565b604082019050919050565b6000613efc603d83614660565b9150613f0782614fbe565b604082019050919050565b6000613f1f602b83614660565b9150613f2a8261500d565b604082019050919050565b6000613f42601983614660565b9150613f4d8261505c565b602082019050919050565b600060c0830160008301518482036000860152613f758282613b04565b9150506020830151613f8a6020860182613fe1565b506040830151613f9d6040860182613a40565b506060830151613fb06060860182613fe1565b506080830151613fc36080860182613fe1565b5060a0830151613fd660a0860182613fe1565b508091505092915050565b613fea8161480d565b82525050565b613ff98161480d565b82525050565b600061400b8285613b76565b91506140178284613b76565b91508190509392505050565b60006020820190506140386000830184613a4f565b92915050565b60006080820190506140536000830187613a4f565b6140606020830186613a4f565b61406d6040830185613ff0565b818103606083015261407f8184613acb565b905095945050505050565b600060408201905061409f6000830185613a4f565b6140ac6020830184613ff0565b9392505050565b600060208201905081810360008301526140cd8184613a5e565b905092915050565b60006020820190506140ea6000830184613abc565b92915050565b6000602082019050818103600083015261410a8184613b3d565b905092915050565b6000602082019050818103600083015261412b81613ba7565b9050919050565b6000602082019050818103600083015261414b81613bca565b9050919050565b6000602082019050818103600083015261416b81613bed565b9050919050565b6000602082019050818103600083015261418b81613c10565b9050919050565b600060208201905081810360008301526141ab81613c33565b9050919050565b600060208201905081810360008301526141cb81613c56565b9050919050565b600060208201905081810360008301526141eb81613c79565b9050919050565b6000602082019050818103600083015261420b81613c9c565b9050919050565b6000602082019050818103600083015261422b81613cbf565b9050919050565b6000602082019050818103600083015261424b81613ce2565b9050919050565b6000602082019050818103600083015261426b81613d05565b9050919050565b6000602082019050818103600083015261428b81613d28565b9050919050565b600060208201905081810360008301526142ab81613d4b565b9050919050565b600060208201905081810360008301526142cb81613d6e565b9050919050565b600060208201905081810360008301526142eb81613d91565b9050919050565b6000602082019050818103600083015261430b81613db4565b9050919050565b6000602082019050818103600083015261432b81613dd7565b9050919050565b6000602082019050818103600083015261434b81613dfa565b9050919050565b6000602082019050818103600083015261436b81613e1d565b9050919050565b6000602082019050818103600083015261438b81613e40565b9050919050565b600060208201905081810360008301526143ab81613e63565b9050919050565b600060208201905081810360008301526143cb81613e86565b9050919050565b600060208201905081810360008301526143eb81613ea9565b9050919050565b6000602082019050818103600083015261440b81613ecc565b9050919050565b6000602082019050818103600083015261442b81613eef565b9050919050565b6000602082019050818103600083015261444b81613f12565b9050919050565b6000602082019050818103600083015261446b81613f35565b9050919050565b6000602082019050818103600083015261448c8184613f58565b905092915050565b60006020820190506144a96000830184613ff0565b92915050565b60006040820190506144c46000830185613ff0565b6144d16020830184613a4f565b9392505050565b60006040820190506144ed6000830185613ff0565b81810360208301526144ff8184613b3d565b90509392505050565b600060408201905061451d6000830185613ff0565b61452a6020830184613ff0565b9392505050565b60006060820190506145466000830186613ff0565b6145536020830185613ff0565b6145606040830184613a4f565b949350505050565b6000614572614583565b905061457e828261488b565b919050565b6000604051905090565b600067ffffffffffffffff8211156145a8576145a7614992565b5b6145b1826149c1565b9050602081019050919050565b600067ffffffffffffffff8211156145d9576145d8614992565b5b6145e2826149c1565b9050602081019050919050565b6000819050602082019050919050565b600081519050919050565b600081519050919050565b600081519050919050565b6000602082019050919050565b600082825260208201905092915050565b600082825260208201905092915050565b600082825260208201905092915050565b600082825260208201905092915050565b600081905092915050565b60006146878261480d565b91506146928361480d565b9250827fffffffffffffffffffffffffffffffffffffffffffffffffffffffffffffffff038211156146c7576146c6614905565b5b828201905092915050565b60006146dd8261480d565b91506146e88361480d565b9250826146f8576146f7614934565b5b828204905092915050565b600061470e8261480d565b91506147198361480d565b9250817fffffffffffffffffffffffffffffffffffffffffffffffffffffffffffffffff048311821515161561475257614751614905565b5b828202905092915050565b60006147688261480d565b91506147738361480d565b92508282101561478657614785614905565b5b828203905092915050565b600061479c826147ed565b9050919050565b60006147ae826147ed565b9050919050565b60008115159050919050565b60007fffffffff0000000000000000000000000000000000000000000000000000000082169050919050565b600073ffffffffffffffffffffffffffffffffffffffff82169050919050565b6000819050919050565b82818337600083830152505050565b60005b83811015614844578082015181840152602081019050614829565b83811115614853576000848401525b50505050565b6000600282049050600182168061487157607f821691505b6020821081141561488557614884614963565b5b50919050565b614894826149c1565b810181811067ffffffffffffffff821117156148b3576148b2614992565b5b80604052505050565b60006148c78261480d565b91507fffffffffffffffffffffffffffffffffffffffffffffffffffffffffffffffff8214156148fa576148f9614905565b5b600182019050919050565b7f4e487b7100000000000000000000000000000000000000000000000000000000600052601160045260246000fd5b7f4e487b7100000000000000000000000000000000000000000000000000000000600052601260045260246000fd5b7f4e487b7100000000000000000000000000000000000000000000000000000000600052602260045260246000fd5b7f4e487b7100000000000000000000000000000000000000000000000000000000600052604160045260246000fd5b6000601f19601f8301169050919050565b7f4552433732313a2063616c6c6572206973206e6f7420746f6b656e206f776e6560008201527f72206f7220617070726f76656400000000000000000000000000000000000000602082015250565b7f496e76616c696420616464726573730000000000000000000000000000000000600082015250565b7f4d7573742077616974206265666f7265206372656174696e6720616e6f74686560008201527f7220636f6c6c656374696f6e0000000000000000000000000000000000000000602082015250565b7f4552433732313a207472616e7366657220746f206e6f6e20455243373231526560008201527f63656976657220696d706c656d656e7465720000000000000000000000000000602082015250565b7f50726963652073686f756c6420626520657175616c20746f20636f6c6c65637460008201527f696f6e73206d696e742070726963650000000000000000000000000000000000602082015250565b7f5072696365206d757374206265206174206c65617374204d494e5f5052494345600082015250565b7f4f776e61626c653a206e6577206f776e657220697320746865207a65726f206160008201527f6464726573730000000000000000000000000000000000000000000000000000602082015250565b7f4552433732313a207472616e736665722066726f6d20696e636f72726563742060008201527f6f776e6572000000000000000000000000000000000000000000000000000000602082015250565b7f4552433732313a20746f6b656e20616c7265616479206d696e74656400000000600082015250565b7f436f6c6c656374696f6e20646f6573206e6f7420657869737400000000000000600082015250565b7f526f79616c746965732070657263656e746167652073686f756c64206265206c60008201527f657373207468616e203130300000000000000000000000000000000000000000602082015250565b7f4e6f7420746865206f776e6572206f662074686520636f6c6c656374696f6e00600082015250565b7f4e6577206d696e74207072696365206d757374206265206174206c656173742060008201527f4d494e5f50524943450000000000000000000000000000000000000000000000602082015250565b7f4552433732313a207472616e7366657220746f20746865207a65726f2061646460008201527f7265737300000000000000000000000000000000000000000000000000000000602082015250565b7f4552433732313a20617070726f766520746f2063616c6c657200000000000000600082015250565b7f546f6b656e20646f6573206e6f742062656c6f6e6720746f20616e7920636f6c60008201527f6c656374696f6e00000000000000000000000000000000000000000000000000602082015250565b7f4d617820636f6c6c656374696f6e732072656163686564000000000000000000600082015250565b7f4552433732313a2061646472657373207a65726f206973206e6f74206120766160008201527f6c6964206f776e65720000000000000000000000000000000000000000000000602082015250565b7f45524337323155524953746f726167653a2055524920736574206f66206e6f6e60008201527f6578697374656e7420746f6b656e000000000000000000000000000000000000602082015250565b7f4552433732313a206d696e7420746f20746865207a65726f2061646472657373600082015250565b7f4f776e61626c653a2063616c6c6572206973206e6f7420746865206f776e6572600082015250565b7f4d61726b6574706c61636520616464726573732068617320616c72656164792060008201527f6265656e20736574000000000000000000000000000000000000000000000000602082015250565b7f4552433732313a20696e76616c696420746f6b656e2049440000000000000000600082015250565b7f4552433732313a20617070726f76616c20746f2063757272656e74206f776e6560008201527f7200000000000000000000000000000000000000000000000000000000000000602082015250565b7f4552433732313a20617070726f76652063616c6c6572206973206e6f7420746f60008201527f6b656e206f776e6572206f7220617070726f76656420666f7220616c6c000000602082015250565b7f436f6c6c656374696f6e206973206e6f742079657420617661696c61626c652060008201527f666f72206d696e74696e67000000000000000000000000000000000000000000602082015250565b7f4f6e6c79206d61726b6574706c6163652063616e2063616c6c00000000000000600082015250565b61508e81614791565b811461509957600080fd5b50565b6150a5816147a3565b81146150b057600080fd5b50565b6150bc816147b5565b81146150c757600080fd5b50565b6150d3816147c1565b81146150de57600080fd5b50565b6150ea8161480d565b81146150f557600080fd5b5056fea26469706673582212207e7a6da494395f3bb09c3eea013ea23f3025282e960bfee0d7d3d80d0a84fd9a64736f6c63430008010033",
  "linkReferences": {},
  "deployedLinkReferences": {}
}