{
  "_format": "hh-sol-artifact-1",
  "contractName": "ERC721Collections",
  "sourceName": "contracts/ERC721Collections.sol",
  "abi": [
    {
      "inputs": [
        {
          "internalType": "string",
          "name": "publicCollectionURI",
          "type": "string"
        }
      ],
      "stateMutability": "nonpayable",
      "type": "constructor"
    },
    {
      "anonymous": false,
      "inputs": [
        {
          "indexed": true,
          "internalType": "address",
          "name": "owner",
          "type": "address"
        },
        {
          "indexed": true,
          "internalType": "address",
          "name": "approved",
          "type": "address"
        },
        {
          "indexed": true,
          "internalType": "uint256",
          "name": "tokenId",
          "type": "uint256"
        }
      ],
      "name": "Approval",
      "type": "event"
    },
    {
      "anonymous": false,
      "inputs": [
        {
          "indexed": true,
          "internalType": "address",
          "name": "owner",
          "type": "address"
        },
        {
          "indexed": true,
          "internalType": "address",
          "name": "operator",
          "type": "address"
        },
        {
          "indexed": false,
          "internalType": "bool",
          "name": "approved",
          "type": "bool"
        }
      ],
      "name": "ApprovalForAll",
      "type": "event"
    },
    {
      "anonymous": false,
      "inputs": [
        {
          "indexed": false,
          "internalType": "uint256",
          "name": "_fromTokenId",
          "type": "uint256"
        },
        {
          "indexed": false,
          "internalType": "uint256",
          "name": "_toTokenId",
          "type": "uint256"
        }
      ],
      "name": "BatchMetadataUpdate",
      "type": "event"
    },
    {
      "anonymous": false,
      "inputs": [
        {
          "indexed": false,
          "internalType": "uint256",
          "name": "id",
          "type": "uint256"
        },
        {
          "indexed": false,
          "internalType": "string",
          "name": "uri",
          "type": "string"
        }
      ],
      "name": "CollectionCreated",
      "type": "event"
    },
    {
      "anonymous": false,
      "inputs": [
        {
          "indexed": false,
          "internalType": "uint256",
          "name": "_tokenId",
          "type": "uint256"
        }
      ],
      "name": "MetadataUpdate",
      "type": "event"
    },
    {
      "anonymous": false,
      "inputs": [
        {
          "indexed": true,
          "internalType": "address",
          "name": "previousOwner",
          "type": "address"
        },
        {
          "indexed": true,
          "internalType": "address",
          "name": "newOwner",
          "type": "address"
        }
      ],
      "name": "OwnershipTransferred",
      "type": "event"
    },
    {
      "anonymous": false,
      "inputs": [
        {
          "indexed": false,
          "internalType": "uint256",
          "name": "tokenId",
          "type": "uint256"
        },
        {
          "indexed": false,
          "internalType": "uint256",
          "name": "price",
          "type": "uint256"
        }
      ],
      "name": "PriceSet",
      "type": "event"
    },
    {
      "anonymous": false,
      "inputs": [
        {
          "indexed": false,
          "internalType": "uint256",
          "name": "tokenId",
          "type": "uint256"
        },
        {
          "indexed": false,
          "internalType": "uint256",
          "name": "collectionId",
          "type": "uint256"
        }
      ],
      "name": "TokenMinted",
      "type": "event"
    },
    {
      "anonymous": false,
      "inputs": [
        {
          "indexed": true,
          "internalType": "address",
          "name": "from",
          "type": "address"
        },
        {
          "indexed": true,
          "internalType": "address",
          "name": "to",
          "type": "address"
        },
        {
          "indexed": true,
          "internalType": "uint256",
          "name": "tokenId",
          "type": "uint256"
        }
      ],
      "name": "Transfer",
      "type": "event"
    },
    {
      "inputs": [],
      "name": "MAX_PRICE",
      "outputs": [
        {
          "internalType": "uint256",
          "name": "",
          "type": "uint256"
        }
      ],
      "stateMutability": "view",
      "type": "function"
    },
    {
      "inputs": [],
      "name": "MIN_PRICE",
      "outputs": [
        {
          "internalType": "uint256",
          "name": "",
          "type": "uint256"
        }
      ],
      "stateMutability": "view",
      "type": "function"
    },
    {
      "inputs": [
        {
          "internalType": "address",
          "name": "to",
          "type": "address"
        },
        {
          "internalType": "uint256",
          "name": "tokenId",
          "type": "uint256"
        }
      ],
      "name": "approve",
      "outputs": [],
      "stateMutability": "nonpayable",
      "type": "function"
    },
    {
      "inputs": [
        {
          "internalType": "address",
          "name": "owner",
          "type": "address"
        }
      ],
      "name": "balanceOf",
      "outputs": [
        {
          "internalType": "uint256",
          "name": "",
          "type": "uint256"
        }
      ],
      "stateMutability": "view",
      "type": "function"
    },
    {
      "inputs": [
        {
          "internalType": "address",
          "name": "",
          "type": "address"
        }
      ],
      "name": "collectionsCreated",
      "outputs": [
        {
          "internalType": "uint256",
          "name": "",
          "type": "uint256"
        }
      ],
      "stateMutability": "view",
      "type": "function"
    },
    {
      "inputs": [
        {
          "internalType": "string",
          "name": "uri",
          "type": "string"
        }
      ],
      "name": "createCollection",
      "outputs": [
        {
          "internalType": "uint256",
          "name": "",
          "type": "uint256"
        }
      ],
      "stateMutability": "nonpayable",
      "type": "function"
    },
    {
      "inputs": [
        {
          "internalType": "uint256",
          "name": "tokenId",
          "type": "uint256"
        }
      ],
      "name": "getApproved",
      "outputs": [
        {
          "internalType": "address",
          "name": "",
          "type": "address"
        }
      ],
      "stateMutability": "view",
      "type": "function"
    },
    {
      "inputs": [
        {
          "internalType": "uint256",
          "name": "id",
          "type": "uint256"
        }
      ],
      "name": "getCollection",
      "outputs": [
        {
          "components": [
            {
              "internalType": "string",
              "name": "uri",
              "type": "string"
            },
            {
              "internalType": "uint256",
              "name": "id",
              "type": "uint256"
            },
            {
              "internalType": "address",
              "name": "owner",
              "type": "address"
            }
          ],
          "internalType": "struct ERC721Collections.Collection",
          "name": "",
          "type": "tuple"
        }
      ],
      "stateMutability": "view",
      "type": "function"
    },
    {
      "inputs": [
        {
          "internalType": "uint256",
          "name": "tokenId",
          "type": "uint256"
        }
      ],
      "name": "getCollectionOfToken",
      "outputs": [
        {
          "components": [
            {
              "internalType": "string",
              "name": "uri",
              "type": "string"
            },
            {
              "internalType": "uint256",
              "name": "id",
              "type": "uint256"
            },
            {
              "internalType": "address",
              "name": "owner",
              "type": "address"
            }
          ],
          "internalType": "struct ERC721Collections.Collection",
          "name": "",
          "type": "tuple"
        }
      ],
      "stateMutability": "view",
      "type": "function"
    },
    {
      "inputs": [
        {
          "internalType": "uint256",
          "name": "collectionId",
          "type": "uint256"
        }
      ],
      "name": "getCollectionOwner",
      "outputs": [
        {
          "internalType": "address",
          "name": "",
          "type": "address"
        }
      ],
      "stateMutability": "view",
      "type": "function"
    },
    {
      "inputs": [
        {
          "internalType": "uint256",
          "name": "collectionId",
          "type": "uint256"
        },
        {
          "internalType": "uint256",
          "name": "startIndex",
          "type": "uint256"
        },
        {
          "internalType": "uint256",
          "name": "pageSize",
          "type": "uint256"
        }
      ],
      "name": "getNFTsInCollection",
      "outputs": [
        {
          "internalType": "uint256[]",
          "name": "",
          "type": "uint256[]"
        }
      ],
      "stateMutability": "view",
      "type": "function"
    },
    {
      "inputs": [
        {
          "internalType": "uint256",
          "name": "tokenId",
          "type": "uint256"
        }
      ],
      "name": "getPrice",
      "outputs": [
        {
          "internalType": "uint256",
          "name": "",
          "type": "uint256"
        }
      ],
      "stateMutability": "view",
      "type": "function"
    },
    {
      "inputs": [
        {
          "internalType": "address",
          "name": "owner",
          "type": "address"
        },
        {
          "internalType": "address",
          "name": "operator",
          "type": "address"
        }
      ],
      "name": "isApprovedForAll",
      "outputs": [
        {
          "internalType": "bool",
          "name": "",
          "type": "bool"
        }
      ],
      "stateMutability": "view",
      "type": "function"
    },
    {
      "inputs": [
        {
          "internalType": "address",
          "name": "",
          "type": "address"
        }
      ],
      "name": "lastCollectionTimestamp",
      "outputs": [
        {
          "internalType": "uint256",
          "name": "",
          "type": "uint256"
        }
      ],
      "stateMutability": "view",
      "type": "function"
    },
    {
      "inputs": [
        {
          "internalType": "uint256",
          "name": "collectionId",
          "type": "uint256"
        },
        {
          "internalType": "string",
          "name": "tokenURI",
          "type": "string"
        },
        {
          "internalType": "uint256",
          "name": "price",
          "type": "uint256"
        },
        {
          "internalType": "address",
          "name": "to",
          "type": "address"
        }
      ],
      "name": "lazyMint",
      "outputs": [
        {
          "internalType": "uint256",
          "name": "",
          "type": "uint256"
        }
      ],
      "stateMutability": "nonpayable",
      "type": "function"
    },
    {
      "inputs": [
        {
          "internalType": "uint256",
          "name": "collectionId",
          "type": "uint256"
        },
        {
          "internalType": "string",
          "name": "tokenURI",
          "type": "string"
        },
        {
          "internalType": "uint256",
          "name": "price",
          "type": "uint256"
        }
      ],
      "name": "mint",
      "outputs": [
        {
          "internalType": "uint256",
          "name": "",
          "type": "uint256"
        }
      ],
      "stateMutability": "nonpayable",
      "type": "function"
    },
    {
      "inputs": [],
      "name": "name",
      "outputs": [
        {
          "internalType": "string",
          "name": "",
          "type": "string"
        }
      ],
      "stateMutability": "view",
      "type": "function"
    },
    {
      "inputs": [],
      "name": "owner",
      "outputs": [
        {
          "internalType": "address",
          "name": "",
          "type": "address"
        }
      ],
      "stateMutability": "view",
      "type": "function"
    },
    {
      "inputs": [
        {
          "internalType": "uint256",
          "name": "tokenId",
          "type": "uint256"
        }
      ],
      "name": "ownerOf",
      "outputs": [
        {
          "internalType": "address",
          "name": "",
          "type": "address"
        }
      ],
      "stateMutability": "view",
      "type": "function"
    },
    {
      "inputs": [],
      "name": "renounceOwnership",
      "outputs": [],
      "stateMutability": "nonpayable",
      "type": "function"
    },
    {
      "inputs": [
        {
          "internalType": "address",
          "name": "from",
          "type": "address"
        },
        {
          "internalType": "address",
          "name": "to",
          "type": "address"
        },
        {
          "internalType": "uint256",
          "name": "tokenId",
          "type": "uint256"
        }
      ],
      "name": "safeTransferFrom",
      "outputs": [],
      "stateMutability": "nonpayable",
      "type": "function"
    },
    {
      "inputs": [
        {
          "internalType": "address",
          "name": "from",
          "type": "address"
        },
        {
          "internalType": "address",
          "name": "to",
          "type": "address"
        },
        {
          "internalType": "uint256",
          "name": "tokenId",
          "type": "uint256"
        },
        {
          "internalType": "bytes",
          "name": "data",
          "type": "bytes"
        }
      ],
      "name": "safeTransferFrom",
      "outputs": [],
      "stateMutability": "nonpayable",
      "type": "function"
    },
    {
      "inputs": [
        {
          "internalType": "address",
          "name": "operator",
          "type": "address"
        },
        {
          "internalType": "bool",
          "name": "approved",
          "type": "bool"
        }
      ],
      "name": "setApprovalForAll",
      "outputs": [],
      "stateMutability": "nonpayable",
      "type": "function"
    },
    {
      "inputs": [
        {
          "internalType": "address payable",
          "name": "marketplaceAddress",
          "type": "address"
        }
      ],
      "name": "setMarketplace",
      "outputs": [],
      "stateMutability": "nonpayable",
      "type": "function"
    },
    {
      "inputs": [
        {
          "internalType": "uint256",
          "name": "tokenId",
          "type": "uint256"
        },
        {
          "internalType": "uint256",
          "name": "price",
          "type": "uint256"
        }
      ],
      "name": "setPrice",
      "outputs": [
        {
          "internalType": "uint256",
          "name": "",
          "type": "uint256"
        }
      ],
      "stateMutability": "nonpayable",
      "type": "function"
    },
    {
      "inputs": [
        {
          "internalType": "bytes4",
          "name": "interfaceId",
          "type": "bytes4"
        }
      ],
      "name": "supportsInterface",
      "outputs": [
        {
          "internalType": "bool",
          "name": "",
          "type": "bool"
        }
      ],
      "stateMutability": "view",
      "type": "function"
    },
    {
      "inputs": [],
      "name": "symbol",
      "outputs": [
        {
          "internalType": "string",
          "name": "",
          "type": "string"
        }
      ],
      "stateMutability": "view",
      "type": "function"
    },
    {
      "inputs": [
        {
          "internalType": "uint256",
          "name": "tokenId",
          "type": "uint256"
        }
      ],
      "name": "tokenURI",
      "outputs": [
        {
          "internalType": "string",
          "name": "",
          "type": "string"
        }
      ],
      "stateMutability": "view",
      "type": "function"
    },
    {
      "inputs": [
        {
          "internalType": "address",
          "name": "from",
          "type": "address"
        },
        {
          "internalType": "address",
          "name": "to",
          "type": "address"
        },
        {
          "internalType": "uint256",
          "name": "tokenId",
          "type": "uint256"
        }
      ],
      "name": "transferFrom",
      "outputs": [],
      "stateMutability": "nonpayable",
      "type": "function"
    },
    {
      "inputs": [
        {
          "internalType": "address",
          "name": "newOwner",
          "type": "address"
        }
      ],
      "name": "transferOwnership",
      "outputs": [],
      "stateMutability": "nonpayable",
      "type": "function"
    }
  ],
  "bytecode": "0x60806040523480156200001157600080fd5b506040516200573b3803806200573b833981810160405281019062000037919062000643565b6040518060400160405280601181526020017f455243373231436f6c6c656374696f6e730000000000000000000000000000008152506040518060400160405280600381526020017f53545200000000000000000000000000000000000000000000000000000000008152508160009080519060200190620000bb92919062000521565b508060019080519060200190620000d492919062000521565b505050620000f7620000eb6200011060201b60201c565b6200011860201b60201c565b6200010881620001de60201b60201c565b505062000a88565b600033905090565b6000600760009054906101000a900473ffffffffffffffffffffffffffffffffffffffff16905081600760006101000a81548173ffffffffffffffffffffffffffffffffffffffff021916908373ffffffffffffffffffffffffffffffffffffffff1602179055508173ffffffffffffffffffffffffffffffffffffffff168173ffffffffffffffffffffffffffffffffffffffff167f8be0079c531659141344cd1fd0a4f28419497f9722a3daafe3b4186f6b6457e060405160405180910390a35050565b60006103e7600f60003373ffffffffffffffffffffffffffffffffffffffff1673ffffffffffffffffffffffffffffffffffffffff168152602001908152602001600020541062000266576040517f08c379a00000000000000000000000000000000000000000000000000000000081526004016200025d906200074a565b60405180910390fd5b42603c601060003373ffffffffffffffffffffffffffffffffffffffff1673ffffffffffffffffffffffffffffffffffffffff16815260200190815260200160002054620002b591906200081b565b1115620002f9576040517f08c379a0000000000000000000000000000000000000000000000000000000008152600401620002f09062000728565b60405180910390fd5b620003106009620004fd60201b62001e9b1760201c565b60405180606001604052808381526020016200033860096200051360201b62001eb11760201c565b81526020013373ffffffffffffffffffffffffffffffffffffffff16815250600b60006200037260096200051360201b62001eb11760201c565b815260200190815260200160002060008201518160000190805190602001906200039e92919062000521565b506020820151816001015560408201518160020160006101000a81548173ffffffffffffffffffffffffffffffffffffffff021916908373ffffffffffffffffffffffffffffffffffffffff160217905550905050600f60003373ffffffffffffffffffffffffffffffffffffffff1673ffffffffffffffffffffffffffffffffffffffff1681526020019081526020016000206000815480929190620004459062000924565b919050555042601060003373ffffffffffffffffffffffffffffffffffffffff1673ffffffffffffffffffffffffffffffffffffffff168152602001908152602001600020819055507f62b7b5ba11bfc95430fab0460fdf99b9c8fbc2b3a6a48caf79c3ee1b591c0336620004c660096200051360201b62001eb11760201c565b83604051620004d79291906200076c565b60405180910390a1620004f660096200051360201b62001eb11760201c565b9050919050565b6001816000016000828254019250508190555050565b600081600001549050919050565b8280546200052f90620008b8565b90600052602060002090601f0160209004810192826200055357600085556200059f565b82601f106200056e57805160ff19168380011785556200059f565b828001600101855582156200059f579182015b828111156200059e57825182559160200191906001019062000581565b5b509050620005ae9190620005b2565b5090565b5b80821115620005cd576000816000905550600101620005b3565b5090565b6000620005e8620005e284620007c9565b620007a0565b9050828152602081018484840111156200060157600080fd5b6200060e84828562000882565b509392505050565b600082601f8301126200062857600080fd5b81516200063a848260208601620005d1565b91505092915050565b6000602082840312156200065657600080fd5b600082015167ffffffffffffffff8111156200067157600080fd5b6200067f8482850162000616565b91505092915050565b60006200069582620007ff565b620006a181856200080a565b9350620006b381856020860162000882565b620006be81620009ff565b840191505092915050565b6000620006d8602c836200080a565b9150620006e58262000a10565b604082019050919050565b6000620006ff6017836200080a565b91506200070c8262000a5f565b602082019050919050565b620007228162000878565b82525050565b600060208201905081810360008301526200074381620006c9565b9050919050565b600060208201905081810360008301526200076581620006f0565b9050919050565b600060408201905062000783600083018562000717565b818103602083015262000797818462000688565b90509392505050565b6000620007ac620007bf565b9050620007ba8282620008ee565b919050565b6000604051905090565b600067ffffffffffffffff821115620007e757620007e6620009d0565b5b620007f282620009ff565b9050602081019050919050565b600081519050919050565b600082825260208201905092915050565b6000620008288262000878565b9150620008358362000878565b9250827fffffffffffffffffffffffffffffffffffffffffffffffffffffffffffffffff038211156200086d576200086c62000972565b5b828201905092915050565b6000819050919050565b60005b83811015620008a257808201518184015260208101905062000885565b83811115620008b2576000848401525b50505050565b60006002820490506001821680620008d157607f821691505b60208210811415620008e857620008e7620009a1565b5b50919050565b620008f982620009ff565b810181811067ffffffffffffffff821117156200091b576200091a620009d0565b5b80604052505050565b6000620009318262000878565b91507fffffffffffffffffffffffffffffffffffffffffffffffffffffffffffffffff82141562000967576200096662000972565b5b600182019050919050565b7f4e487b7100000000000000000000000000000000000000000000000000000000600052601160045260246000fd5b7f4e487b7100000000000000000000000000000000000000000000000000000000600052602260045260246000fd5b7f4e487b7100000000000000000000000000000000000000000000000000000000600052604160045260246000fd5b6000601f19601f8301169050919050565b7f4d7573742077616974206265666f7265206372656174696e6720616e6f74686560008201527f7220636f6c6c656374696f6e0000000000000000000000000000000000000000602082015250565b7f4d617820636f6c6c656374696f6e732072656163686564000000000000000000600082015250565b614ca38062000a986000396000f3fe608060405234801561001057600080fd5b50600436106101da5760003560e01c80638da5cb5b11610104578063bd6fbad9116100a2578063e757223011610071578063e7572230146105c7578063e985e9c5146105f7578063f2fde38b14610627578063f7d9757714610643576101da565b8063bd6fbad914610507578063c87b56dd14610537578063d08b28ea14610567578063da0277fd14610597576101da565b8063acca6b31116100de578063acca6b311461046d578063ad9f20a61461049d578063b41a6e34146104bb578063b88d4fde146104eb576101da565b80638da5cb5b1461041557806395d89b4114610433578063a22cb46514610451576101da565b8063394120c01161017c57806370a082311161014b57806370a082311461038f578063715018a6146103bf57806373ad6c2d146103c957806382a17cdb146103e5576101da565b8063394120c0146102e357806342842e0e146103135780635a1f3c281461032f5780636352211e1461035f576101da565b806306fdde03116101b857806306fdde031461025d578063081812fc1461027b578063095ea7b3146102ab57806323b872dd146102c7576101da565b806301c11d96146101df57806301ffc9a7146101fd578063059dfe131461022d575b600080fd5b6101e7610673565b6040516101f49190614146565b60405180910390f35b610217600480360381019061021291906134d0565b610681565b6040516102249190613d67565b60405180910390f35b61024760048036038101906102429190613522565b6106e2565b6040516102549190614146565b60405180910390f35b6102656109b2565b6040516102729190613d82565b60405180910390f35b61029560048036038101906102909190613563565b610a44565b6040516102a29190613cde565b60405180910390f35b6102c560048036038101906102c0919061346b565b610a8a565b005b6102e160048036038101906102dc9190613365565b610ba2565b005b6102fd60048036038101906102f89190613563565b610c02565b60405161030a9190613cde565b60405180910390f35b61032d60048036038101906103289190613365565b610c42565b005b61034960048036038101906103449190613563565b610c62565b6040516103569190614124565b60405180910390f35b61037960048036038101906103749190613563565b610d81565b6040516103869190613cde565b60405180910390f35b6103a960048036038101906103a491906132d7565b610e08565b6040516103b69190614146565b60405180910390f35b6103c7610ec0565b005b6103e360048036038101906103de9190613300565b610ed4565b005b6103ff60048036038101906103fa91906132d7565b611021565b60405161040c9190614146565b60405180910390f35b61041d611039565b60405161042a9190613cde565b60405180910390f35b61043b611063565b6040516104489190613d82565b60405180910390f35b61046b6004803603810190610466919061342f565b6110f5565b005b6104876004803603810190610482919061358c565b61110b565b6040516104949190614146565b60405180910390f35b6104a5611387565b6040516104b29190614146565b60405180910390f35b6104d560048036038101906104d091906135f3565b611392565b6040516104e29190614146565b60405180910390f35b610505600480360381019061050091906133b4565b6115f0565b005b610521600480360381019061051c91906132d7565b611652565b60405161052e9190614146565b60405180910390f35b610551600480360381019061054c9190613563565b61166a565b60405161055e9190613d82565b60405180910390f35b610581600480360381019061057c91906136aa565b61177d565b60405161058e9190613d45565b60405180910390f35b6105b160048036038101906105ac9190613563565b611996565b6040516105be9190614124565b60405180910390f35b6105e160048036038101906105dc9190613563565b611b25565b6040516105ee9190614146565b60405180910390f35b610611600480360381019061060c9190613329565b611b42565b60405161061e9190613d67565b60405180910390f35b610641600480360381019061063c91906132d7565b611bd6565b005b61065d6004803603810190610658919061366e565b611c5a565b60405161066a9190614146565b60405180910390f35b69021e19e0c9bab240000081565b6000634906490660e01b7bffffffffffffffffffffffffffffffffffffffffffffffffffffffff1916827bffffffffffffffffffffffffffffffffffffffffffffffffffffffff191614806106db57506106da82611ebf565b5b9050919050565b60006103e7600f60003373ffffffffffffffffffffffffffffffffffffffff1673ffffffffffffffffffffffffffffffffffffffff1681526020019081526020016000205410610767576040517f08c379a000000000000000000000000000000000000000000000000000000000815260040161075e90613f64565b60405180910390fd5b42603c601060003373ffffffffffffffffffffffffffffffffffffffff1673ffffffffffffffffffffffffffffffffffffffff168152602001908152602001600020546107b491906142ce565b11156107f5576040517f08c379a00000000000000000000000000000000000000000000000000000000081526004016107ec90613de4565b60405180910390fd5b6107ff6009611e9b565b604051806060016040528083815260200161081a6009611eb1565b81526020013373ffffffffffffffffffffffffffffffffffffffff16815250600b60006108476009611eb1565b8152602001908152602001600020600082015181600001908051906020019061087192919061309a565b506020820151816001015560408201518160020160006101000a81548173ffffffffffffffffffffffffffffffffffffffff021916908373ffffffffffffffffffffffffffffffffffffffff160217905550905050600f60003373ffffffffffffffffffffffffffffffffffffffff1673ffffffffffffffffffffffffffffffffffffffff168152602001908152602001600020600081548092919061091690614483565b919050555042601060003373ffffffffffffffffffffffffffffffffffffffff1673ffffffffffffffffffffffffffffffffffffffff168152602001908152602001600020819055507f62b7b5ba11bfc95430fab0460fdf99b9c8fbc2b3a6a48caf79c3ee1b591c033661098a6009611eb1565b83604051610999929190614161565b60405180910390a16109ab6009611eb1565b9050919050565b6060600080546109c190614420565b80601f01602080910402602001604051908101604052809291908181526020018280546109ed90614420565b8015610a3a5780601f10610a0f57610100808354040283529160200191610a3a565b820191906000526020600020905b815481529060010190602001808311610a1d57829003601f168201915b5050505050905090565b6000610a4f82611fa1565b6004600083815260200190815260200160002060009054906101000a900473ffffffffffffffffffffffffffffffffffffffff169050919050565b6000610a9582610d81565b90508073ffffffffffffffffffffffffffffffffffffffff168373ffffffffffffffffffffffffffffffffffffffff161415610b06576040517f08c379a0000000000000000000000000000000000000000000000000000000008152600401610afd906140a4565b60405180910390fd5b8073ffffffffffffffffffffffffffffffffffffffff16610b25611fec565b73ffffffffffffffffffffffffffffffffffffffff161480610b545750610b5381610b4e611fec565b611b42565b5b610b93576040517f08c379a0000000000000000000000000000000000000000000000000000000008152600401610b8a906140c4565b60405180910390fd5b610b9d8383611ff4565b505050565b610bb3610bad611fec565b826120ad565b610bf2576040517f08c379a0000000000000000000000000000000000000000000000000000000008152600401610be990613da4565b60405180910390fd5b610bfd838383612142565b505050565b6000600b600083815260200190815260200160002060020160009054906101000a900473ffffffffffffffffffffffffffffffffffffffff169050919050565b610c5d838383604051806020016040528060008152506115f0565b505050565b610c6a613120565b600b6000838152602001908152602001600020604051806060016040529081600082018054610c9890614420565b80601f0160208091040260200160405190810160405280929190818152602001828054610cc490614420565b8015610d115780601f10610ce657610100808354040283529160200191610d11565b820191906000526020600020905b815481529060010190602001808311610cf457829003601f168201915b50505050508152602001600182015481526020016002820160009054906101000a900473ffffffffffffffffffffffffffffffffffffffff1673ffffffffffffffffffffffffffffffffffffffff1673ffffffffffffffffffffffffffffffffffffffff16815250509050919050565b600080610d8d8361243c565b9050600073ffffffffffffffffffffffffffffffffffffffff168173ffffffffffffffffffffffffffffffffffffffff161415610dff576040517f08c379a0000000000000000000000000000000000000000000000000000000008152600401610df690614084565b60405180910390fd5b80915050919050565b60008073ffffffffffffffffffffffffffffffffffffffff168273ffffffffffffffffffffffffffffffffffffffff161415610e79576040517f08c379a0000000000000000000000000000000000000000000000000000000008152600401610e7090613fa4565b60405180910390fd5b600360008373ffffffffffffffffffffffffffffffffffffffff1673ffffffffffffffffffffffffffffffffffffffff168152602001908152602001600020549050919050565b610ec8612479565b610ed260006124f7565b565b610edc612479565b600073ffffffffffffffffffffffffffffffffffffffff16600a60009054906101000a900473ffffffffffffffffffffffffffffffffffffffff1673ffffffffffffffffffffffffffffffffffffffff1614610f6d576040517f08c379a0000000000000000000000000000000000000000000000000000000008152600401610f6490614064565b60405180910390fd5b600073ffffffffffffffffffffffffffffffffffffffff168173ffffffffffffffffffffffffffffffffffffffff161415610fdd576040517f08c379a0000000000000000000000000000000000000000000000000000000008152600401610fd490613dc4565b60405180910390fd5b80600a60006101000a81548173ffffffffffffffffffffffffffffffffffffffff021916908373ffffffffffffffffffffffffffffffffffffffff16021790555050565b60106020528060005260406000206000915090505481565b6000600760009054906101000a900473ffffffffffffffffffffffffffffffffffffffff16905090565b60606001805461107290614420565b80601f016020809104026020016040519081016040528092919081815260200182805461109e90614420565b80156110eb5780601f106110c0576101008083540402835291602001916110eb565b820191906000526020600020905b8154815290600101906020018083116110ce57829003601f168201915b5050505050905090565b611107611100611fec565b83836125bd565b5050565b6000662386f26fc10000821015611157576040517f08c379a000000000000000000000000000000000000000000000000000000000815260040161114e90613e24565b60405180910390fd5b69021e19e0c9bab24000008211156111a4576040517f08c379a000000000000000000000000000000000000000000000000000000000815260040161119b90614004565b60405180910390fd5b6000600b60008681526020019081526020016000206001015414156111fe576040517f08c379a00000000000000000000000000000000000000000000000000000000081526004016111f590613ea4565b60405180910390fd5b600184148061126e57503373ffffffffffffffffffffffffffffffffffffffff16600b600086815260200190815260200160002060020160009054906101000a900473ffffffffffffffffffffffffffffffffffffffff1673ffffffffffffffffffffffffffffffffffffffff16145b6112ad576040517f08c379a00000000000000000000000000000000000000000000000000000000081526004016112a490613ec4565b60405180910390fd5b60006112b96008611eb1565b90506112c56008611e9b565b6112cf338261272a565b6112d98185612948565b84600d600083815260200190815260200160002081905550600c600086815260200190815260200160002081908060018154018082558091505060019003906000526020600020016000909190919091505582600e6000838152602001908152602001600020819055507f5f7666687319b40936f33c188908d86aea154abd3f4127b4fa0a3f04f303c7da8186604051611374929190614191565b60405180910390a1809150509392505050565b662386f26fc1000081565b6000600a60009054906101000a900473ffffffffffffffffffffffffffffffffffffffff1673ffffffffffffffffffffffffffffffffffffffff163373ffffffffffffffffffffffffffffffffffffffff1614611424576040517f08c379a000000000000000000000000000000000000000000000000000000000815260040161141b90613ee4565b60405180910390fd5b662386f26fc1000083101561146e576040517f08c379a000000000000000000000000000000000000000000000000000000000815260040161146590613e24565b60405180910390fd5b69021e19e0c9bab24000008311156114bb576040517f08c379a00000000000000000000000000000000000000000000000000000000081526004016114b290614004565b60405180910390fd5b6000600b6000878152602001908152602001600020600101541415611515576040517f08c379a000000000000000000000000000000000000000000000000000000000815260040161150c90613ea4565b60405180910390fd5b60006115216008611eb1565b905061152d6008611e9b565b611537838261272a565b6115418186612948565b85600d600083815260200190815260200160002081905550600c600087815260200190815260200160002081908060018154018082558091505060019003906000526020600020016000909190919091505583600e6000838152602001908152602001600020819055507f5f7666687319b40936f33c188908d86aea154abd3f4127b4fa0a3f04f303c7da81876040516115dc929190614191565b60405180910390a180915050949350505050565b6116016115fb611fec565b836120ad565b611640576040517f08c379a000000000000000000000000000000000000000000000000000000000815260040161163790613da4565b60405180910390fd5b61164c848484846129f3565b50505050565b600f6020528060005260406000206000915090505481565b606061167582611fa1565b600060066000848152602001908152602001600020805461169590614420565b80601f01602080910402602001604051908101604052809291908181526020018280546116c190614420565b801561170e5780601f106116e35761010080835404028352916020019161170e565b820191906000526020600020905b8154815290600101906020018083116116f157829003601f168201915b50505050509050600061171f612a4f565b9050600081511415611735578192505050611778565b60008251111561176a578082604051602001611752929190613cba565b60405160208183030381529060405292505050611778565b61177384612a66565b925050505b919050565b60606000600c6000868152602001908152602001600020905060008180549050116117dd576040517f08c379a00000000000000000000000000000000000000000000000000000000081526004016117d490614104565b60405180910390fd5b80805490508410611823576040517f08c379a000000000000000000000000000000000000000000000000000000000815260040161181a90613fe4565b60405180910390fd5b606483111561183157606492505b6000838561183f91906142ce565b9050818054905081111561185557818054905090505b600085826118639190614324565b67ffffffffffffffff8111156118a2577f4e487b7100000000000000000000000000000000000000000000000000000000600052604160045260246000fd5b6040519080825280602002602001820160405280156118d05781602001602082028036833780820191505090505b50905060008690505b828110156119885783818154811061191a577f4e487b7100000000000000000000000000000000000000000000000000000000600052603260045260246000fd5b90600052602060002001548288836119329190614324565b81518110611969577f4e487b7100000000000000000000000000000000000000000000000000000000600052603260045260246000fd5b602002602001018181525050808061198090614483565b9150506118d9565b508093505050509392505050565b61199e613120565b6000600d60008481526020019081526020016000205414156119f5576040517f08c379a00000000000000000000000000000000000000000000000000000000081526004016119ec90613f44565b60405180910390fd5b6000600d6000848152602001908152602001600020549050600b6000828152602001908152602001600020604051806060016040529081600082018054611a3b90614420565b80601f0160208091040260200160405190810160405280929190818152602001828054611a6790614420565b8015611ab45780601f10611a8957610100808354040283529160200191611ab4565b820191906000526020600020905b815481529060010190602001808311611a9757829003601f168201915b50505050508152602001600182015481526020016002820160009054906101000a900473ffffffffffffffffffffffffffffffffffffffff1673ffffffffffffffffffffffffffffffffffffffff1673ffffffffffffffffffffffffffffffffffffffff1681525050915050919050565b6000600e6000838152602001908152602001600020549050919050565b6000600560008473ffffffffffffffffffffffffffffffffffffffff1673ffffffffffffffffffffffffffffffffffffffff16815260200190815260200160002060008373ffffffffffffffffffffffffffffffffffffffff1673ffffffffffffffffffffffffffffffffffffffff16815260200190815260200160002060009054906101000a900460ff16905092915050565b611bde612479565b600073ffffffffffffffffffffffffffffffffffffffff168173ffffffffffffffffffffffffffffffffffffffff161415611c4e576040517f08c379a0000000000000000000000000000000000000000000000000000000008152600401611c4590613e44565b60405180910390fd5b611c57816124f7565b50565b6000662386f26fc10000821015611ca6576040517f08c379a0000000000000000000000000000000000000000000000000000000008152600401611c9d90613e24565b60405180910390fd5b69021e19e0c9bab2400000821115611cf3576040517f08c379a0000000000000000000000000000000000000000000000000000000008152600401611cea90614004565b60405180910390fd5b611d04611cfe611fec565b846120ad565b611d43576040517f08c379a0000000000000000000000000000000000000000000000000000000008152600401611d3a906140e4565b60405180910390fd5b600a60009054906101000a900473ffffffffffffffffffffffffffffffffffffffff1673ffffffffffffffffffffffffffffffffffffffff16639b83cddc846040518263ffffffff1660e01b8152600401611d9e9190614146565b60206040518083038186803b158015611db657600080fd5b505afa158015611dca573d6000803e3d6000fd5b505050506040513d601f19601f82011682018060405250810190611dee91906134a7565b15611e2e576040517f08c379a0000000000000000000000000000000000000000000000000000000008152600401611e2590613f84565b60405180910390fd5b81600e6000858152602001908152602001600020819055507fa0f1665b7b659537b52deec61ea64d134a3bccda74c7f4e79f2246e7a8187a8a8383604051611e77929190614191565b60405180910390a1600e600084815260200190815260200160002054905092915050565b6001816000016000828254019250508190555050565b600081600001549050919050565b60007f80ac58cd000000000000000000000000000000000000000000000000000000007bffffffffffffffffffffffffffffffffffffffffffffffffffffffff1916827bffffffffffffffffffffffffffffffffffffffffffffffffffffffff19161480611f8a57507f5b5e139f000000000000000000000000000000000000000000000000000000007bffffffffffffffffffffffffffffffffffffffffffffffffffffffff1916827bffffffffffffffffffffffffffffffffffffffffffffffffffffffff1916145b80611f9a5750611f9982612ace565b5b9050919050565b611faa81612b38565b611fe9576040517f08c379a0000000000000000000000000000000000000000000000000000000008152600401611fe090614084565b60405180910390fd5b50565b600033905090565b816004600083815260200190815260200160002060006101000a81548173ffffffffffffffffffffffffffffffffffffffff021916908373ffffffffffffffffffffffffffffffffffffffff160217905550808273ffffffffffffffffffffffffffffffffffffffff1661206783610d81565b73ffffffffffffffffffffffffffffffffffffffff167f8c5be1e5ebec7d5bd14f71427d1e84f3dd0314c0f7b2291e5b200ac8c7c3b92560405160405180910390a45050565b6000806120b983610d81565b90508073ffffffffffffffffffffffffffffffffffffffff168473ffffffffffffffffffffffffffffffffffffffff1614806120fb57506120fa8185611b42565b5b8061213957508373ffffffffffffffffffffffffffffffffffffffff1661212184610a44565b73ffffffffffffffffffffffffffffffffffffffff16145b91505092915050565b8273ffffffffffffffffffffffffffffffffffffffff1661216282610d81565b73ffffffffffffffffffffffffffffffffffffffff16146121b8576040517f08c379a00000000000000000000000000000000000000000000000000000000081526004016121af90613e64565b60405180910390fd5b600073ffffffffffffffffffffffffffffffffffffffff168273ffffffffffffffffffffffffffffffffffffffff161415612228576040517f08c379a000000000000000000000000000000000000000000000000000000000815260040161221f90613f04565b60405180910390fd5b6122358383836001612b79565b8273ffffffffffffffffffffffffffffffffffffffff1661225582610d81565b73ffffffffffffffffffffffffffffffffffffffff16146122ab576040517f08c379a00000000000000000000000000000000000000000000000000000000081526004016122a290613e64565b60405180910390fd5b6004600082815260200190815260200160002060006101000a81549073ffffffffffffffffffffffffffffffffffffffff02191690556001600360008573ffffffffffffffffffffffffffffffffffffffff1673ffffffffffffffffffffffffffffffffffffffff168152602001908152602001600020600082825403925050819055506001600360008473ffffffffffffffffffffffffffffffffffffffff1673ffffffffffffffffffffffffffffffffffffffff16815260200190815260200160002060008282540192505081905550816002600083815260200190815260200160002060006101000a81548173ffffffffffffffffffffffffffffffffffffffff021916908373ffffffffffffffffffffffffffffffffffffffff160217905550808273ffffffffffffffffffffffffffffffffffffffff168473ffffffffffffffffffffffffffffffffffffffff167fddf252ad1be2c89b69c2b068fc378daa952ba7f163c4a11628f55a4df523b3ef60405160405180910390a46124378383836001612b7f565b505050565b60006002600083815260200190815260200160002060009054906101000a900473ffffffffffffffffffffffffffffffffffffffff169050919050565b612481611fec565b73ffffffffffffffffffffffffffffffffffffffff1661249f611039565b73ffffffffffffffffffffffffffffffffffffffff16146124f5576040517f08c379a00000000000000000000000000000000000000000000000000000000081526004016124ec90614044565b60405180910390fd5b565b6000600760009054906101000a900473ffffffffffffffffffffffffffffffffffffffff16905081600760006101000a81548173ffffffffffffffffffffffffffffffffffffffff021916908373ffffffffffffffffffffffffffffffffffffffff1602179055508173ffffffffffffffffffffffffffffffffffffffff168173ffffffffffffffffffffffffffffffffffffffff167f8be0079c531659141344cd1fd0a4f28419497f9722a3daafe3b4186f6b6457e060405160405180910390a35050565b8173ffffffffffffffffffffffffffffffffffffffff168373ffffffffffffffffffffffffffffffffffffffff16141561262c576040517f08c379a000000000000000000000000000000000000000000000000000000000815260040161262390613f24565b60405180910390fd5b80600560008573ffffffffffffffffffffffffffffffffffffffff1673ffffffffffffffffffffffffffffffffffffffff16815260200190815260200160002060008473ffffffffffffffffffffffffffffffffffffffff1673ffffffffffffffffffffffffffffffffffffffff16815260200190815260200160002060006101000a81548160ff0219169083151502179055508173ffffffffffffffffffffffffffffffffffffffff168373ffffffffffffffffffffffffffffffffffffffff167f17307eab39ab6107e8899845ad3d59bd9653f200f220920489ca2b5937696c318360405161271d9190613d67565b60405180910390a3505050565b600073ffffffffffffffffffffffffffffffffffffffff168273ffffffffffffffffffffffffffffffffffffffff16141561279a576040517f08c379a000000000000000000000000000000000000000000000000000000000815260040161279190614024565b60405180910390fd5b6127a381612b38565b156127e3576040517f08c379a00000000000000000000000000000000000000000000000000000000081526004016127da90613e84565b60405180910390fd5b6127f1600083836001612b79565b6127fa81612b38565b1561283a576040517f08c379a000000000000000000000000000000000000000000000000000000000815260040161283190613e84565b60405180910390fd5b6001600360008473ffffffffffffffffffffffffffffffffffffffff1673ffffffffffffffffffffffffffffffffffffffff16815260200190815260200160002060008282540192505081905550816002600083815260200190815260200160002060006101000a81548173ffffffffffffffffffffffffffffffffffffffff021916908373ffffffffffffffffffffffffffffffffffffffff160217905550808273ffffffffffffffffffffffffffffffffffffffff16600073ffffffffffffffffffffffffffffffffffffffff167fddf252ad1be2c89b69c2b068fc378daa952ba7f163c4a11628f55a4df523b3ef60405160405180910390a4612944600083836001612b7f565b5050565b61295182612b38565b612990576040517f08c379a000000000000000000000000000000000000000000000000000000000815260040161298790613fc4565b60405180910390fd5b806006600084815260200190815260200160002090805190602001906129b792919061309a565b507ff8e1a15aba9398e019f0b49df1a4fde98ee17ae345cb5f6b5e2c27f5033e8ce7826040516129e79190614146565b60405180910390a15050565b6129fe848484612142565b612a0a84848484612b85565b612a49576040517f08c379a0000000000000000000000000000000000000000000000000000000008152600401612a4090613e04565b60405180910390fd5b50505050565b606060405180602001604052806000815250905090565b6060612a7182611fa1565b6000612a7b612a4f565b90506000815111612a9b5760405180602001604052806000815250612ac6565b80612aa584612d1c565b604051602001612ab6929190613cba565b6040516020818303038152906040525b915050919050565b60007f01ffc9a7000000000000000000000000000000000000000000000000000000007bffffffffffffffffffffffffffffffffffffffffffffffffffffffff1916827bffffffffffffffffffffffffffffffffffffffffffffffffffffffff1916149050919050565b60008073ffffffffffffffffffffffffffffffffffffffff16612b5a8361243c565b73ffffffffffffffffffffffffffffffffffffffff1614159050919050565b50505050565b50505050565b6000612ba68473ffffffffffffffffffffffffffffffffffffffff16612e40565b15612d0f578373ffffffffffffffffffffffffffffffffffffffff1663150b7a02612bcf611fec565b8786866040518563ffffffff1660e01b8152600401612bf19493929190613cf9565b602060405180830381600087803b158015612c0b57600080fd5b505af1925050508015612c3c57506040513d601f19601f82011682018060405250810190612c3991906134f9565b60015b612cbf573d8060008114612c6c576040519150601f19603f3d011682016040523d82523d6000602084013e612c71565b606091505b50600081511415612cb7576040517f08c379a0000000000000000000000000000000000000000000000000000000008152600401612cae90613e04565b60405180910390fd5b805181602001fd5b63150b7a0260e01b7bffffffffffffffffffffffffffffffffffffffffffffffffffffffff1916817bffffffffffffffffffffffffffffffffffffffffffffffffffffffff191614915050612d14565b600190505b949350505050565b606060006001612d2b84612e63565b01905060008167ffffffffffffffff811115612d70577f4e487b7100000000000000000000000000000000000000000000000000000000600052604160045260246000fd5b6040519080825280601f01601f191660200182016040528015612da25781602001600182028036833780820191505090505b509050600082602001820190505b600115612e35578080600190039150507f3031323334353637383961626364656600000000000000000000000000000000600a86061a8153600a8581612e1f577f4e487b7100000000000000000000000000000000000000000000000000000000600052601260045260246000fd5b0494506000851415612e3057612e35565b612db0565b819350505050919050565b6000808273ffffffffffffffffffffffffffffffffffffffff163b119050919050565b600080600090507a184f03e93ff9f4daa797ed6e38ed64bf6a1f0100000000000000008310612ee7577a184f03e93ff9f4daa797ed6e38ed64bf6a1f0100000000000000008381612edd577f4e487b7100000000000000000000000000000000000000000000000000000000600052601260045260246000fd5b0492506040810190505b6d04ee2d6d415b85acef81000000008310612f4a576d04ee2d6d415b85acef81000000008381612f40577f4e487b7100000000000000000000000000000000000000000000000000000000600052601260045260246000fd5b0492506020810190505b662386f26fc100008310612f9f57662386f26fc100008381612f95577f4e487b7100000000000000000000000000000000000000000000000000000000600052601260045260246000fd5b0492506010810190505b6305f5e1008310612fee576305f5e1008381612fe4577f4e487b7100000000000000000000000000000000000000000000000000000000600052601260045260246000fd5b0492506008810190505b612710831061303957612710838161302f577f4e487b7100000000000000000000000000000000000000000000000000000000600052601260045260246000fd5b0492506004810190505b606483106130825760648381613078577f4e487b7100000000000000000000000000000000000000000000000000000000600052601260045260246000fd5b0492506002810190505b600a8310613091576001810190505b80915050919050565b8280546130a690614420565b90600052602060002090601f0160209004810192826130c8576000855561310f565b82601f106130e157805160ff191683800117855561310f565b8280016001018555821561310f579182015b8281111561310e5782518255916020019190600101906130f3565b5b50905061311c9190613157565b5090565b60405180606001604052806060815260200160008152602001600073ffffffffffffffffffffffffffffffffffffffff1681525090565b5b80821115613170576000816000905550600101613158565b5090565b6000613187613182846141df565b6141ba565b90508281526020810184848401111561319f57600080fd5b6131aa8482856143de565b509392505050565b60006131c56131c084614210565b6141ba565b9050828152602081018484840111156131dd57600080fd5b6131e88482856143de565b509392505050565b6000813590506131ff81614bfa565b92915050565b60008135905061321481614c11565b92915050565b60008135905061322981614c28565b92915050565b60008151905061323e81614c28565b92915050565b60008135905061325381614c3f565b92915050565b60008151905061326881614c3f565b92915050565b600082601f83011261327f57600080fd5b813561328f848260208601613174565b91505092915050565b600082601f8301126132a957600080fd5b81356132b98482602086016131b2565b91505092915050565b6000813590506132d181614c56565b92915050565b6000602082840312156132e957600080fd5b60006132f7848285016131f0565b91505092915050565b60006020828403121561331257600080fd5b600061332084828501613205565b91505092915050565b6000806040838503121561333c57600080fd5b600061334a858286016131f0565b925050602061335b858286016131f0565b9150509250929050565b60008060006060848603121561337a57600080fd5b6000613388868287016131f0565b9350506020613399868287016131f0565b92505060406133aa868287016132c2565b9150509250925092565b600080600080608085870312156133ca57600080fd5b60006133d8878288016131f0565b94505060206133e9878288016131f0565b93505060406133fa878288016132c2565b925050606085013567ffffffffffffffff81111561341757600080fd5b6134238782880161326e565b91505092959194509250565b6000806040838503121561344257600080fd5b6000613450858286016131f0565b92505060206134618582860161321a565b9150509250929050565b6000806040838503121561347e57600080fd5b600061348c858286016131f0565b925050602061349d858286016132c2565b9150509250929050565b6000602082840312156134b957600080fd5b60006134c78482850161322f565b91505092915050565b6000602082840312156134e257600080fd5b60006134f084828501613244565b91505092915050565b60006020828403121561350b57600080fd5b600061351984828501613259565b91505092915050565b60006020828403121561353457600080fd5b600082013567ffffffffffffffff81111561354e57600080fd5b61355a84828501613298565b91505092915050565b60006020828403121561357557600080fd5b6000613583848285016132c2565b91505092915050565b6000806000606084860312156135a157600080fd5b60006135af868287016132c2565b935050602084013567ffffffffffffffff8111156135cc57600080fd5b6135d886828701613298565b92505060406135e9868287016132c2565b9150509250925092565b6000806000806080858703121561360957600080fd5b6000613617878288016132c2565b945050602085013567ffffffffffffffff81111561363457600080fd5b61364087828801613298565b9350506040613651878288016132c2565b9250506060613662878288016131f0565b91505092959194509250565b6000806040838503121561368157600080fd5b600061368f858286016132c2565b92505060206136a0858286016132c2565b9150509250929050565b6000806000606084860312156136bf57600080fd5b60006136cd868287016132c2565b93505060206136de868287016132c2565b92505060406136ef868287016132c2565b9150509250925092565b60006137058383613c9c565b60208301905092915050565b61371a81614358565b82525050565b61372981614358565b82525050565b600061373a82614251565b613744818561427f565b935061374f83614241565b8060005b8381101561378057815161376788826136f9565b975061377283614272565b925050600181019050613753565b5085935050505092915050565b6137968161437c565b82525050565b60006137a78261425c565b6137b18185614290565b93506137c18185602086016143ed565b6137ca81614559565b840191505092915050565b60006137e082614267565b6137ea81856142a1565b93506137fa8185602086016143ed565b61380381614559565b840191505092915050565b600061381982614267565b61382381856142b2565b93506138338185602086016143ed565b61383c81614559565b840191505092915050565b600061385282614267565b61385c81856142c3565b935061386c8185602086016143ed565b80840191505092915050565b6000613885602d836142b2565b91506138908261456a565b604082019050919050565b60006138a8600f836142b2565b91506138b3826145b9565b602082019050919050565b60006138cb602c836142b2565b91506138d6826145e2565b604082019050919050565b60006138ee6032836142b2565b91506138f982614631565b604082019050919050565b60006139116020836142b2565b915061391c82614680565b602082019050919050565b60006139346026836142b2565b915061393f826146a9565b604082019050919050565b60006139576025836142b2565b9150613962826146f8565b604082019050919050565b600061397a601c836142b2565b915061398582614747565b602082019050919050565b600061399d6019836142b2565b91506139a882614770565b602082019050919050565b60006139c0601f836142b2565b91506139cb82614799565b602082019050919050565b60006139e3601d836142b2565b91506139ee826147c2565b602082019050919050565b6000613a066024836142b2565b9150613a11826147eb565b604082019050919050565b6000613a296019836142b2565b9150613a348261483a565b602082019050919050565b6000613a4c6027836142b2565b9150613a5782614863565b604082019050919050565b6000613a6f6017836142b2565b9150613a7a826148b2565b602082019050919050565b6000613a926022836142b2565b9150613a9d826148db565b604082019050919050565b6000613ab56029836142b2565b9150613ac08261492a565b604082019050919050565b6000613ad8602e836142b2565b9150613ae382614979565b604082019050919050565b6000613afb6013836142b2565b9150613b06826149c8565b602082019050919050565b6000613b1e601f836142b2565b9150613b29826149f1565b602082019050919050565b6000613b416020836142b2565b9150613b4c82614a1a565b602082019050919050565b6000613b646020836142b2565b9150613b6f82614a43565b602082019050919050565b6000613b876028836142b2565b9150613b9282614a6c565b604082019050919050565b6000613baa6018836142b2565b9150613bb582614abb565b602082019050919050565b6000613bcd6021836142b2565b9150613bd882614ae4565b604082019050919050565b6000613bf0603d836142b2565b9150613bfb82614b33565b604082019050919050565b6000613c136031836142b2565b9150613c1e82614b82565b604082019050919050565b6000613c36600e836142b2565b9150613c4182614bd1565b602082019050919050565b60006060830160008301518482036000860152613c6982826137d5565b9150506020830151613c7e6020860182613c9c565b506040830151613c916040860182613711565b508091505092915050565b613ca5816143d4565b82525050565b613cb4816143d4565b82525050565b6000613cc68285613847565b9150613cd28284613847565b91508190509392505050565b6000602082019050613cf36000830184613720565b92915050565b6000608082019050613d0e6000830187613720565b613d1b6020830186613720565b613d286040830185613cab565b8181036060830152613d3a818461379c565b905095945050505050565b60006020820190508181036000830152613d5f818461372f565b905092915050565b6000602082019050613d7c600083018461378d565b92915050565b60006020820190508181036000830152613d9c818461380e565b905092915050565b60006020820190508181036000830152613dbd81613878565b9050919050565b60006020820190508181036000830152613ddd8161389b565b9050919050565b60006020820190508181036000830152613dfd816138be565b9050919050565b60006020820190508181036000830152613e1d816138e1565b9050919050565b60006020820190508181036000830152613e3d81613904565b9050919050565b60006020820190508181036000830152613e5d81613927565b9050919050565b60006020820190508181036000830152613e7d8161394a565b9050919050565b60006020820190508181036000830152613e9d8161396d565b9050919050565b60006020820190508181036000830152613ebd81613990565b9050919050565b60006020820190508181036000830152613edd816139b3565b9050919050565b60006020820190508181036000830152613efd816139d6565b9050919050565b60006020820190508181036000830152613f1d816139f9565b9050919050565b60006020820190508181036000830152613f3d81613a1c565b9050919050565b60006020820190508181036000830152613f5d81613a3f565b9050919050565b60006020820190508181036000830152613f7d81613a62565b9050919050565b60006020820190508181036000830152613f9d81613a85565b9050919050565b60006020820190508181036000830152613fbd81613aa8565b9050919050565b60006020820190508181036000830152613fdd81613acb565b9050919050565b60006020820190508181036000830152613ffd81613aee565b9050919050565b6000602082019050818103600083015261401d81613b11565b9050919050565b6000602082019050818103600083015261403d81613b34565b9050919050565b6000602082019050818103600083015261405d81613b57565b9050919050565b6000602082019050818103600083015261407d81613b7a565b9050919050565b6000602082019050818103600083015261409d81613b9d565b9050919050565b600060208201905081810360008301526140bd81613bc0565b9050919050565b600060208201905081810360008301526140dd81613be3565b9050919050565b600060208201905081810360008301526140fd81613c06565b9050919050565b6000602082019050818103600083015261411d81613c29565b9050919050565b6000602082019050818103600083015261413e8184613c4c565b905092915050565b600060208201905061415b6000830184613cab565b92915050565b60006040820190506141766000830185613cab565b8181036020830152614188818461380e565b90509392505050565b60006040820190506141a66000830185613cab565b6141b36020830184613cab565b9392505050565b60006141c46141d5565b90506141d08282614452565b919050565b6000604051905090565b600067ffffffffffffffff8211156141fa576141f961452a565b5b61420382614559565b9050602081019050919050565b600067ffffffffffffffff82111561422b5761422a61452a565b5b61423482614559565b9050602081019050919050565b6000819050602082019050919050565b600081519050919050565b600081519050919050565b600081519050919050565b6000602082019050919050565b600082825260208201905092915050565b600082825260208201905092915050565b600082825260208201905092915050565b600082825260208201905092915050565b600081905092915050565b60006142d9826143d4565b91506142e4836143d4565b9250827fffffffffffffffffffffffffffffffffffffffffffffffffffffffffffffffff03821115614319576143186144cc565b5b828201905092915050565b600061432f826143d4565b915061433a836143d4565b92508282101561434d5761434c6144cc565b5b828203905092915050565b6000614363826143b4565b9050919050565b6000614375826143b4565b9050919050565b60008115159050919050565b60007fffffffff0000000000000000000000000000000000000000000000000000000082169050919050565b600073ffffffffffffffffffffffffffffffffffffffff82169050919050565b6000819050919050565b82818337600083830152505050565b60005b8381101561440b5780820151818401526020810190506143f0565b8381111561441a576000848401525b50505050565b6000600282049050600182168061443857607f821691505b6020821081141561444c5761444b6144fb565b5b50919050565b61445b82614559565b810181811067ffffffffffffffff8211171561447a5761447961452a565b5b80604052505050565b600061448e826143d4565b91507fffffffffffffffffffffffffffffffffffffffffffffffffffffffffffffffff8214156144c1576144c06144cc565b5b600182019050919050565b7f4e487b7100000000000000000000000000000000000000000000000000000000600052601160045260246000fd5b7f4e487b7100000000000000000000000000000000000000000000000000000000600052602260045260246000fd5b7f4e487b7100000000000000000000000000000000000000000000000000000000600052604160045260246000fd5b6000601f19601f8301169050919050565b7f4552433732313a2063616c6c6572206973206e6f7420746f6b656e206f776e6560008201527f72206f7220617070726f76656400000000000000000000000000000000000000602082015250565b7f496e76616c696420616464726573730000000000000000000000000000000000600082015250565b7f4d7573742077616974206265666f7265206372656174696e6720616e6f74686560008201527f7220636f6c6c656374696f6e0000000000000000000000000000000000000000602082015250565b7f4552433732313a207472616e7366657220746f206e6f6e20455243373231526560008201527f63656976657220696d706c656d656e7465720000000000000000000000000000602082015250565b7f5072696365206d757374206265206174206c65617374204d494e5f5052494345600082015250565b7f4f776e61626c653a206e6577206f776e657220697320746865207a65726f206160008201527f6464726573730000000000000000000000000000000000000000000000000000602082015250565b7f4552433732313a207472616e736665722066726f6d20696e636f72726563742060008201527f6f776e6572000000000000000000000000000000000000000000000000000000602082015250565b7f4552433732313a20746f6b656e20616c7265616479206d696e74656400000000600082015250565b7f436f6c6c656374696f6e20646f6573206e6f7420657869737400000000000000600082015250565b7f4e6f7420746865206f776e6572206f662074686520636f6c6c656374696f6e00600082015250565b7f43616c6c6572206973206e6f7420746865206d61726b6574706c616365000000600082015250565b7f4552433732313a207472616e7366657220746f20746865207a65726f2061646460008201527f7265737300000000000000000000000000000000000000000000000000000000602082015250565b7f4552433732313a20617070726f766520746f2063616c6c657200000000000000600082015250565b7f546f6b656e20646f6573206e6f742062656c6f6e6720746f20616e7920636f6c60008201527f6c656374696f6e00000000000000000000000000000000000000000000000000602082015250565b7f4d617820636f6c6c656374696f6e732072656163686564000000000000000000600082015250565b7f546f6b656e2069732063757272656e746c79206c697374656420666f7220736160008201527f6c65000000000000000000000000000000000000000000000000000000000000602082015250565b7f4552433732313a2061646472657373207a65726f206973206e6f74206120766160008201527f6c6964206f776e65720000000000000000000000000000000000000000000000602082015250565b7f45524337323155524953746f726167653a2055524920736574206f66206e6f6e60008201527f6578697374656e7420746f6b656e000000000000000000000000000000000000602082015250565b7f496e76616c696420737461727420696e64657800000000000000000000000000600082015250565b7f5072696365206d757374206e6f7420657863656564204d41585f505249434500600082015250565b7f4552433732313a206d696e7420746f20746865207a65726f2061646472657373600082015250565b7f4f776e61626c653a2063616c6c6572206973206e6f7420746865206f776e6572600082015250565b7f4d61726b6574706c61636520616464726573732068617320616c72656164792060008201527f6265656e20736574000000000000000000000000000000000000000000000000602082015250565b7f4552433732313a20696e76616c696420746f6b656e2049440000000000000000600082015250565b7f4552433732313a20617070726f76616c20746f2063757272656e74206f776e6560008201527f7200000000000000000000000000000000000000000000000000000000000000602082015250565b7f4552433732313a20617070726f76652063616c6c6572206973206e6f7420746f60008201527f6b656e206f776e6572206f7220617070726f76656420666f7220616c6c000000602082015250565b7f4552433732313a207472616e736665722063616c6c6572206973206e6f74206f60008201527f776e6572206e6f7220617070726f766564000000000000000000000000000000602082015250565b7f417272617920697320656d707479000000000000000000000000000000000000600082015250565b614c0381614358565b8114614c0e57600080fd5b50565b614c1a8161436a565b8114614c2557600080fd5b50565b614c318161437c565b8114614c3c57600080fd5b50565b614c4881614388565b8114614c5357600080fd5b50565b614c5f816143d4565b8114614c6a57600080fd5b5056fea2646970667358221220a2134d1aad6ec47544baa08acac1942497eea19044ef83e2a01a0d6bba1490e864736f6c63430008010033",
  "linkReferences": {},
  "deployedLinkReferences": {}
}