{
  "_format": "hh-sol-artifact-1",
  "contractName": "ERC721Collections",
  "sourceName": "contracts/ERC721Collections.sol",
  "abi": [
    {
      "inputs": [
        {
          "internalType": "string",
          "name": "publicCollectionURI",
          "type": "string"
        }
      ],
      "stateMutability": "nonpayable",
      "type": "constructor"
    },
    {
      "anonymous": false,
      "inputs": [
        {
          "indexed": true,
          "internalType": "address",
          "name": "owner",
          "type": "address"
        },
        {
          "indexed": true,
          "internalType": "address",
          "name": "approved",
          "type": "address"
        },
        {
          "indexed": true,
          "internalType": "uint256",
          "name": "tokenId",
          "type": "uint256"
        }
      ],
      "name": "Approval",
      "type": "event"
    },
    {
      "anonymous": false,
      "inputs": [
        {
          "indexed": true,
          "internalType": "address",
          "name": "owner",
          "type": "address"
        },
        {
          "indexed": true,
          "internalType": "address",
          "name": "operator",
          "type": "address"
        },
        {
          "indexed": false,
          "internalType": "bool",
          "name": "approved",
          "type": "bool"
        }
      ],
      "name": "ApprovalForAll",
      "type": "event"
    },
    {
      "anonymous": false,
      "inputs": [
        {
          "indexed": false,
          "internalType": "uint256",
          "name": "_fromTokenId",
          "type": "uint256"
        },
        {
          "indexed": false,
          "internalType": "uint256",
          "name": "_toTokenId",
          "type": "uint256"
        }
      ],
      "name": "BatchMetadataUpdate",
      "type": "event"
    },
    {
      "anonymous": false,
      "inputs": [
        {
          "indexed": false,
          "internalType": "uint256",
          "name": "id",
          "type": "uint256"
        },
        {
          "indexed": false,
          "internalType": "string",
          "name": "uri",
          "type": "string"
        }
      ],
      "name": "CollectionCreated",
      "type": "event"
    },
    {
      "anonymous": false,
      "inputs": [
        {
          "indexed": false,
          "internalType": "uint256",
          "name": "_tokenId",
          "type": "uint256"
        }
      ],
      "name": "MetadataUpdate",
      "type": "event"
    },
    {
      "anonymous": false,
      "inputs": [
        {
          "indexed": true,
          "internalType": "address",
          "name": "previousOwner",
          "type": "address"
        },
        {
          "indexed": true,
          "internalType": "address",
          "name": "newOwner",
          "type": "address"
        }
      ],
      "name": "OwnershipTransferred",
      "type": "event"
    },
    {
      "anonymous": false,
      "inputs": [
        {
          "indexed": false,
          "internalType": "uint256",
          "name": "tokenId",
          "type": "uint256"
        },
        {
          "indexed": false,
          "internalType": "uint256",
          "name": "price",
          "type": "uint256"
        }
      ],
      "name": "PriceSet",
      "type": "event"
    },
    {
      "anonymous": false,
      "inputs": [
        {
          "indexed": false,
          "internalType": "uint256",
          "name": "tokenId",
          "type": "uint256"
        },
        {
          "indexed": false,
          "internalType": "uint256",
          "name": "collectionId",
          "type": "uint256"
        }
      ],
      "name": "TokenMinted",
      "type": "event"
    },
    {
      "anonymous": false,
      "inputs": [
        {
          "indexed": true,
          "internalType": "address",
          "name": "from",
          "type": "address"
        },
        {
          "indexed": true,
          "internalType": "address",
          "name": "to",
          "type": "address"
        },
        {
          "indexed": true,
          "internalType": "uint256",
          "name": "tokenId",
          "type": "uint256"
        }
      ],
      "name": "Transfer",
      "type": "event"
    },
    {
      "inputs": [],
      "name": "MAX_PRICE",
      "outputs": [
        {
          "internalType": "uint256",
          "name": "",
          "type": "uint256"
        }
      ],
      "stateMutability": "view",
      "type": "function"
    },
    {
      "inputs": [],
      "name": "MIN_PRICE",
      "outputs": [
        {
          "internalType": "uint256",
          "name": "",
          "type": "uint256"
        }
      ],
      "stateMutability": "view",
      "type": "function"
    },
    {
      "inputs": [
        {
          "internalType": "address",
          "name": "to",
          "type": "address"
        },
        {
          "internalType": "uint256",
          "name": "tokenId",
          "type": "uint256"
        }
      ],
      "name": "approve",
      "outputs": [],
      "stateMutability": "nonpayable",
      "type": "function"
    },
    {
      "inputs": [
        {
          "internalType": "address",
          "name": "owner",
          "type": "address"
        }
      ],
      "name": "balanceOf",
      "outputs": [
        {
          "internalType": "uint256",
          "name": "",
          "type": "uint256"
        }
      ],
      "stateMutability": "view",
      "type": "function"
    },
    {
      "inputs": [
        {
          "internalType": "address",
          "name": "",
          "type": "address"
        }
      ],
      "name": "collectionsCreated",
      "outputs": [
        {
          "internalType": "uint256",
          "name": "",
          "type": "uint256"
        }
      ],
      "stateMutability": "view",
      "type": "function"
    },
    {
      "inputs": [
        {
          "internalType": "string",
          "name": "uri",
          "type": "string"
        }
      ],
      "name": "createCollection",
      "outputs": [
        {
          "internalType": "uint256",
          "name": "",
          "type": "uint256"
        }
      ],
      "stateMutability": "nonpayable",
      "type": "function"
    },
    {
      "inputs": [
        {
          "internalType": "uint256",
          "name": "tokenId",
          "type": "uint256"
        }
      ],
      "name": "getApproved",
      "outputs": [
        {
          "internalType": "address",
          "name": "",
          "type": "address"
        }
      ],
      "stateMutability": "view",
      "type": "function"
    },
    {
      "inputs": [
        {
          "internalType": "uint256",
          "name": "id",
          "type": "uint256"
        }
      ],
      "name": "getCollection",
      "outputs": [
        {
          "components": [
            {
              "internalType": "string",
              "name": "uri",
              "type": "string"
            },
            {
              "internalType": "uint256",
              "name": "id",
              "type": "uint256"
            },
            {
              "internalType": "address",
              "name": "owner",
              "type": "address"
            }
          ],
          "internalType": "struct ERC721Collections.Collection",
          "name": "",
          "type": "tuple"
        }
      ],
      "stateMutability": "view",
      "type": "function"
    },
    {
      "inputs": [
        {
          "internalType": "uint256",
          "name": "tokenId",
          "type": "uint256"
        }
      ],
      "name": "getCollectionOfToken",
      "outputs": [
        {
          "components": [
            {
              "internalType": "string",
              "name": "uri",
              "type": "string"
            },
            {
              "internalType": "uint256",
              "name": "id",
              "type": "uint256"
            },
            {
              "internalType": "address",
              "name": "owner",
              "type": "address"
            }
          ],
          "internalType": "struct ERC721Collections.Collection",
          "name": "",
          "type": "tuple"
        }
      ],
      "stateMutability": "view",
      "type": "function"
    },
    {
      "inputs": [
        {
          "internalType": "uint256",
          "name": "collectionId",
          "type": "uint256"
        }
      ],
      "name": "getCollectionOwner",
      "outputs": [
        {
          "internalType": "address",
          "name": "",
          "type": "address"
        }
      ],
      "stateMutability": "view",
      "type": "function"
    },
    {
      "inputs": [
        {
          "internalType": "uint256",
          "name": "collectionId",
          "type": "uint256"
        },
        {
          "internalType": "uint256",
          "name": "startIndex",
          "type": "uint256"
        },
        {
          "internalType": "uint256",
          "name": "pageSize",
          "type": "uint256"
        }
      ],
      "name": "getNFTsInCollection",
      "outputs": [
        {
          "internalType": "uint256[]",
          "name": "",
          "type": "uint256[]"
        }
      ],
      "stateMutability": "view",
      "type": "function"
    },
    {
      "inputs": [
        {
          "internalType": "uint256",
          "name": "tokenId",
          "type": "uint256"
        }
      ],
      "name": "getPrice",
      "outputs": [
        {
          "internalType": "uint256",
          "name": "",
          "type": "uint256"
        }
      ],
      "stateMutability": "view",
      "type": "function"
    },
    {
      "inputs": [
        {
          "internalType": "address",
          "name": "owner",
          "type": "address"
        },
        {
          "internalType": "address",
          "name": "operator",
          "type": "address"
        }
      ],
      "name": "isApprovedForAll",
      "outputs": [
        {
          "internalType": "bool",
          "name": "",
          "type": "bool"
        }
      ],
      "stateMutability": "view",
      "type": "function"
    },
    {
      "inputs": [
        {
          "internalType": "address",
          "name": "",
          "type": "address"
        }
      ],
      "name": "lastCollectionTimestamp",
      "outputs": [
        {
          "internalType": "uint256",
          "name": "",
          "type": "uint256"
        }
      ],
      "stateMutability": "view",
      "type": "function"
    },
    {
      "inputs": [
        {
          "internalType": "uint256",
          "name": "collectionId",
          "type": "uint256"
        },
        {
          "internalType": "string",
          "name": "tokenURI",
          "type": "string"
        },
        {
          "internalType": "uint256",
          "name": "price",
          "type": "uint256"
        },
        {
          "internalType": "address",
          "name": "to",
          "type": "address"
        }
      ],
      "name": "lazyMint",
      "outputs": [
        {
          "internalType": "uint256",
          "name": "",
          "type": "uint256"
        }
      ],
      "stateMutability": "nonpayable",
      "type": "function"
    },
    {
      "inputs": [
        {
          "internalType": "uint256",
          "name": "collectionId",
          "type": "uint256"
        },
        {
          "internalType": "string",
          "name": "tokenURI",
          "type": "string"
        },
        {
          "internalType": "uint256",
          "name": "price",
          "type": "uint256"
        }
      ],
      "name": "mint",
      "outputs": [
        {
          "internalType": "uint256",
          "name": "",
          "type": "uint256"
        }
      ],
      "stateMutability": "nonpayable",
      "type": "function"
    },
    {
      "inputs": [],
      "name": "name",
      "outputs": [
        {
          "internalType": "string",
          "name": "",
          "type": "string"
        }
      ],
      "stateMutability": "view",
      "type": "function"
    },
    {
      "inputs": [],
      "name": "owner",
      "outputs": [
        {
          "internalType": "address",
          "name": "",
          "type": "address"
        }
      ],
      "stateMutability": "view",
      "type": "function"
    },
    {
      "inputs": [
        {
          "internalType": "uint256",
          "name": "tokenId",
          "type": "uint256"
        }
      ],
      "name": "ownerOf",
      "outputs": [
        {
          "internalType": "address",
          "name": "",
          "type": "address"
        }
      ],
      "stateMutability": "view",
      "type": "function"
    },
    {
      "inputs": [],
      "name": "renounceOwnership",
      "outputs": [],
      "stateMutability": "nonpayable",
      "type": "function"
    },
    {
      "inputs": [
        {
          "internalType": "address",
          "name": "from",
          "type": "address"
        },
        {
          "internalType": "address",
          "name": "to",
          "type": "address"
        },
        {
          "internalType": "uint256",
          "name": "tokenId",
          "type": "uint256"
        }
      ],
      "name": "safeTransferFrom",
      "outputs": [],
      "stateMutability": "nonpayable",
      "type": "function"
    },
    {
      "inputs": [
        {
          "internalType": "address",
          "name": "from",
          "type": "address"
        },
        {
          "internalType": "address",
          "name": "to",
          "type": "address"
        },
        {
          "internalType": "uint256",
          "name": "tokenId",
          "type": "uint256"
        },
        {
          "internalType": "bytes",
          "name": "data",
          "type": "bytes"
        }
      ],
      "name": "safeTransferFrom",
      "outputs": [],
      "stateMutability": "nonpayable",
      "type": "function"
    },
    {
      "inputs": [
        {
          "internalType": "address",
          "name": "operator",
          "type": "address"
        },
        {
          "internalType": "bool",
          "name": "approved",
          "type": "bool"
        }
      ],
      "name": "setApprovalForAll",
      "outputs": [],
      "stateMutability": "nonpayable",
      "type": "function"
    },
    {
      "inputs": [
        {
          "internalType": "address payable",
          "name": "marketplaceAddress",
          "type": "address"
        }
      ],
      "name": "setMarketplace",
      "outputs": [],
      "stateMutability": "nonpayable",
      "type": "function"
    },
    {
      "inputs": [
        {
          "internalType": "uint256",
          "name": "tokenId",
          "type": "uint256"
        },
        {
          "internalType": "uint256",
          "name": "price",
          "type": "uint256"
        }
      ],
      "name": "setPrice",
      "outputs": [
        {
          "internalType": "uint256",
          "name": "",
          "type": "uint256"
        }
      ],
      "stateMutability": "nonpayable",
      "type": "function"
    },
    {
      "inputs": [
        {
          "internalType": "bytes4",
          "name": "interfaceId",
          "type": "bytes4"
        }
      ],
      "name": "supportsInterface",
      "outputs": [
        {
          "internalType": "bool",
          "name": "",
          "type": "bool"
        }
      ],
      "stateMutability": "view",
      "type": "function"
    },
    {
      "inputs": [],
      "name": "symbol",
      "outputs": [
        {
          "internalType": "string",
          "name": "",
          "type": "string"
        }
      ],
      "stateMutability": "view",
      "type": "function"
    },
    {
      "inputs": [
        {
          "internalType": "uint256",
          "name": "tokenId",
          "type": "uint256"
        }
      ],
      "name": "tokenURI",
      "outputs": [
        {
          "internalType": "string",
          "name": "",
          "type": "string"
        }
      ],
      "stateMutability": "view",
      "type": "function"
    },
    {
      "inputs": [
        {
          "internalType": "address",
          "name": "from",
          "type": "address"
        },
        {
          "internalType": "address",
          "name": "to",
          "type": "address"
        },
        {
          "internalType": "uint256",
          "name": "tokenId",
          "type": "uint256"
        }
      ],
      "name": "transferFrom",
      "outputs": [],
      "stateMutability": "nonpayable",
      "type": "function"
    },
    {
      "inputs": [
        {
          "internalType": "address",
          "name": "newOwner",
          "type": "address"
        }
      ],
      "name": "transferOwnership",
      "outputs": [],
      "stateMutability": "nonpayable",
      "type": "function"
    }
  ],
  "bytecode": "0x60806040523480156200001157600080fd5b50604051620057df380380620057df833981810160405281019062000037919062000643565b6040518060400160405280601181526020017f455243373231436f6c6c656374696f6e730000000000000000000000000000008152506040518060400160405280600381526020017f53545200000000000000000000000000000000000000000000000000000000008152508160009080519060200190620000bb92919062000521565b508060019080519060200190620000d492919062000521565b505050620000f7620000eb6200011060201b60201c565b6200011860201b60201c565b6200010881620001de60201b60201c565b505062000a88565b600033905090565b6000600760009054906101000a900473ffffffffffffffffffffffffffffffffffffffff16905081600760006101000a81548173ffffffffffffffffffffffffffffffffffffffff021916908373ffffffffffffffffffffffffffffffffffffffff1602179055508173ffffffffffffffffffffffffffffffffffffffff168173ffffffffffffffffffffffffffffffffffffffff167f8be0079c531659141344cd1fd0a4f28419497f9722a3daafe3b4186f6b6457e060405160405180910390a35050565b60006103e7600f60003373ffffffffffffffffffffffffffffffffffffffff1673ffffffffffffffffffffffffffffffffffffffff168152602001908152602001600020541062000266576040517f08c379a00000000000000000000000000000000000000000000000000000000081526004016200025d906200074a565b60405180910390fd5b42603c601060003373ffffffffffffffffffffffffffffffffffffffff1673ffffffffffffffffffffffffffffffffffffffff16815260200190815260200160002054620002b591906200081b565b1115620002f9576040517f08c379a0000000000000000000000000000000000000000000000000000000008152600401620002f09062000728565b60405180910390fd5b620003106009620004fd60201b62001f3f1760201c565b60405180606001604052808381526020016200033860096200051360201b62001f551760201c565b81526020013373ffffffffffffffffffffffffffffffffffffffff16815250600b60006200037260096200051360201b62001f551760201c565b815260200190815260200160002060008201518160000190805190602001906200039e92919062000521565b506020820151816001015560408201518160020160006101000a81548173ffffffffffffffffffffffffffffffffffffffff021916908373ffffffffffffffffffffffffffffffffffffffff160217905550905050600f60003373ffffffffffffffffffffffffffffffffffffffff1673ffffffffffffffffffffffffffffffffffffffff1681526020019081526020016000206000815480929190620004459062000924565b919050555042601060003373ffffffffffffffffffffffffffffffffffffffff1673ffffffffffffffffffffffffffffffffffffffff168152602001908152602001600020819055507f62b7b5ba11bfc95430fab0460fdf99b9c8fbc2b3a6a48caf79c3ee1b591c0336620004c660096200051360201b62001f551760201c565b83604051620004d79291906200076c565b60405180910390a1620004f660096200051360201b62001f551760201c565b9050919050565b6001816000016000828254019250508190555050565b600081600001549050919050565b8280546200052f90620008b8565b90600052602060002090601f0160209004810192826200055357600085556200059f565b82601f106200056e57805160ff19168380011785556200059f565b828001600101855582156200059f579182015b828111156200059e57825182559160200191906001019062000581565b5b509050620005ae9190620005b2565b5090565b5b80821115620005cd576000816000905550600101620005b3565b5090565b6000620005e8620005e284620007c9565b620007a0565b9050828152602081018484840111156200060157600080fd5b6200060e84828562000882565b509392505050565b600082601f8301126200062857600080fd5b81516200063a848260208601620005d1565b91505092915050565b6000602082840312156200065657600080fd5b600082015167ffffffffffffffff8111156200067157600080fd5b6200067f8482850162000616565b91505092915050565b60006200069582620007ff565b620006a181856200080a565b9350620006b381856020860162000882565b620006be81620009ff565b840191505092915050565b6000620006d8602c836200080a565b9150620006e58262000a10565b604082019050919050565b6000620006ff6017836200080a565b91506200070c8262000a5f565b602082019050919050565b620007228162000878565b82525050565b600060208201905081810360008301526200074381620006c9565b9050919050565b600060208201905081810360008301526200076581620006f0565b9050919050565b600060408201905062000783600083018562000717565b818103602083015262000797818462000688565b90509392505050565b6000620007ac620007bf565b9050620007ba8282620008ee565b919050565b6000604051905090565b600067ffffffffffffffff821115620007e757620007e6620009d0565b5b620007f282620009ff565b9050602081019050919050565b600081519050919050565b600082825260208201905092915050565b6000620008288262000878565b9150620008358362000878565b9250827fffffffffffffffffffffffffffffffffffffffffffffffffffffffffffffffff038211156200086d576200086c62000972565b5b828201905092915050565b6000819050919050565b60005b83811015620008a257808201518184015260208101905062000885565b83811115620008b2576000848401525b50505050565b60006002820490506001821680620008d157607f821691505b60208210811415620008e857620008e7620009a1565b5b50919050565b620008f982620009ff565b810181811067ffffffffffffffff821117156200091b576200091a620009d0565b5b80604052505050565b6000620009318262000878565b91507fffffffffffffffffffffffffffffffffffffffffffffffffffffffffffffffff82141562000967576200096662000972565b5b600182019050919050565b7f4e487b7100000000000000000000000000000000000000000000000000000000600052601160045260246000fd5b7f4e487b7100000000000000000000000000000000000000000000000000000000600052602260045260246000fd5b7f4e487b7100000000000000000000000000000000000000000000000000000000600052604160045260246000fd5b6000601f19601f8301169050919050565b7f4d7573742077616974206265666f7265206372656174696e6720616e6f74686560008201527f7220636f6c6c656374696f6e0000000000000000000000000000000000000000602082015250565b7f4d617820636f6c6c656374696f6e732072656163686564000000000000000000600082015250565b614d478062000a986000396000f3fe608060405234801561001057600080fd5b50600436106101da5760003560e01c80638da5cb5b11610104578063bd6fbad9116100a2578063e757223011610071578063e7572230146105c7578063e985e9c5146105f7578063f2fde38b14610627578063f7d9757714610643576101da565b8063bd6fbad914610507578063c87b56dd14610537578063d08b28ea14610567578063da0277fd14610597576101da565b8063acca6b31116100de578063acca6b311461046d578063ad9f20a61461049d578063b41a6e34146104bb578063b88d4fde146104eb576101da565b80638da5cb5b1461041557806395d89b4114610433578063a22cb46514610451576101da565b8063394120c01161017c57806370a082311161014b57806370a082311461038f578063715018a6146103bf57806373ad6c2d146103c957806382a17cdb146103e5576101da565b8063394120c0146102e357806342842e0e146103135780635a1f3c281461032f5780636352211e1461035f576101da565b806306fdde03116101b857806306fdde031461025d578063081812fc1461027b578063095ea7b3146102ab57806323b872dd146102c7576101da565b806301c11d96146101df57806301ffc9a7146101fd578063059dfe131461022d575b600080fd5b6101e7610673565b6040516101f491906141ea565b60405180910390f35b61021760048036038101906102129190613574565b610681565b6040516102249190613e0b565b60405180910390f35b610247600480360381019061024291906135c6565b6106e2565b60405161025491906141ea565b60405180910390f35b6102656109b2565b6040516102729190613e26565b60405180910390f35b61029560048036038101906102909190613607565b610a44565b6040516102a29190613d82565b60405180910390f35b6102c560048036038101906102c0919061350f565b610a8a565b005b6102e160048036038101906102dc9190613409565b610ba2565b005b6102fd60048036038101906102f89190613607565b610c02565b60405161030a9190613d82565b60405180910390f35b61032d60048036038101906103289190613409565b610c42565b005b61034960048036038101906103449190613607565b610c62565b60405161035691906141c8565b60405180910390f35b61037960048036038101906103749190613607565b610d81565b6040516103869190613d82565b60405180910390f35b6103a960048036038101906103a4919061337b565b610e08565b6040516103b691906141ea565b60405180910390f35b6103c7610ec0565b005b6103e360048036038101906103de91906133a4565b610ed4565b005b6103ff60048036038101906103fa919061337b565b611021565b60405161040c91906141ea565b60405180910390f35b61041d611039565b60405161042a9190613d82565b60405180910390f35b61043b611063565b6040516104489190613e26565b60405180910390f35b61046b600480360381019061046691906134d3565b6110f5565b005b61048760048036038101906104829190613630565b61110b565b60405161049491906141ea565b60405180910390f35b6104a5611387565b6040516104b291906141ea565b60405180910390f35b6104d560048036038101906104d09190613697565b611392565b6040516104e291906141ea565b60405180910390f35b61050560048036038101906105009190613458565b611694565b005b610521600480360381019061051c919061337b565b6116f6565b60405161052e91906141ea565b60405180910390f35b610551600480360381019061054c9190613607565b61170e565b60405161055e9190613e26565b60405180910390f35b610581600480360381019061057c919061374e565b611821565b60405161058e9190613de9565b60405180910390f35b6105b160048036038101906105ac9190613607565b611a3a565b6040516105be91906141c8565b60405180910390f35b6105e160048036038101906105dc9190613607565b611bc9565b6040516105ee91906141ea565b60405180910390f35b610611600480360381019061060c91906133cd565b611be6565b60405161061e9190613e0b565b60405180910390f35b610641600480360381019061063c919061337b565b611c7a565b005b61065d60048036038101906106589190613712565b611cfe565b60405161066a91906141ea565b60405180910390f35b69021e19e0c9bab240000081565b6000634906490660e01b7bffffffffffffffffffffffffffffffffffffffffffffffffffffffff1916827bffffffffffffffffffffffffffffffffffffffffffffffffffffffff191614806106db57506106da82611f63565b5b9050919050565b60006103e7600f60003373ffffffffffffffffffffffffffffffffffffffff1673ffffffffffffffffffffffffffffffffffffffff1681526020019081526020016000205410610767576040517f08c379a000000000000000000000000000000000000000000000000000000000815260040161075e90614008565b60405180910390fd5b42603c601060003373ffffffffffffffffffffffffffffffffffffffff1673ffffffffffffffffffffffffffffffffffffffff168152602001908152602001600020546107b49190614372565b11156107f5576040517f08c379a00000000000000000000000000000000000000000000000000000000081526004016107ec90613e88565b60405180910390fd5b6107ff6009611f3f565b604051806060016040528083815260200161081a6009611f55565b81526020013373ffffffffffffffffffffffffffffffffffffffff16815250600b60006108476009611f55565b8152602001908152602001600020600082015181600001908051906020019061087192919061313e565b506020820151816001015560408201518160020160006101000a81548173ffffffffffffffffffffffffffffffffffffffff021916908373ffffffffffffffffffffffffffffffffffffffff160217905550905050600f60003373ffffffffffffffffffffffffffffffffffffffff1673ffffffffffffffffffffffffffffffffffffffff168152602001908152602001600020600081548092919061091690614527565b919050555042601060003373ffffffffffffffffffffffffffffffffffffffff1673ffffffffffffffffffffffffffffffffffffffff168152602001908152602001600020819055507f62b7b5ba11bfc95430fab0460fdf99b9c8fbc2b3a6a48caf79c3ee1b591c033661098a6009611f55565b83604051610999929190614205565b60405180910390a16109ab6009611f55565b9050919050565b6060600080546109c1906144c4565b80601f01602080910402602001604051908101604052809291908181526020018280546109ed906144c4565b8015610a3a5780601f10610a0f57610100808354040283529160200191610a3a565b820191906000526020600020905b815481529060010190602001808311610a1d57829003601f168201915b5050505050905090565b6000610a4f82612045565b6004600083815260200190815260200160002060009054906101000a900473ffffffffffffffffffffffffffffffffffffffff169050919050565b6000610a9582610d81565b90508073ffffffffffffffffffffffffffffffffffffffff168373ffffffffffffffffffffffffffffffffffffffff161415610b06576040517f08c379a0000000000000000000000000000000000000000000000000000000008152600401610afd90614148565b60405180910390fd5b8073ffffffffffffffffffffffffffffffffffffffff16610b25612090565b73ffffffffffffffffffffffffffffffffffffffff161480610b545750610b5381610b4e612090565b611be6565b5b610b93576040517f08c379a0000000000000000000000000000000000000000000000000000000008152600401610b8a90614168565b60405180910390fd5b610b9d8383612098565b505050565b610bb3610bad612090565b82612151565b610bf2576040517f08c379a0000000000000000000000000000000000000000000000000000000008152600401610be990613e48565b60405180910390fd5b610bfd8383836121e6565b505050565b6000600b600083815260200190815260200160002060020160009054906101000a900473ffffffffffffffffffffffffffffffffffffffff169050919050565b610c5d83838360405180602001604052806000815250611694565b505050565b610c6a6131c4565b600b6000838152602001908152602001600020604051806060016040529081600082018054610c98906144c4565b80601f0160208091040260200160405190810160405280929190818152602001828054610cc4906144c4565b8015610d115780601f10610ce657610100808354040283529160200191610d11565b820191906000526020600020905b815481529060010190602001808311610cf457829003601f168201915b50505050508152602001600182015481526020016002820160009054906101000a900473ffffffffffffffffffffffffffffffffffffffff1673ffffffffffffffffffffffffffffffffffffffff1673ffffffffffffffffffffffffffffffffffffffff16815250509050919050565b600080610d8d836124e0565b9050600073ffffffffffffffffffffffffffffffffffffffff168173ffffffffffffffffffffffffffffffffffffffff161415610dff576040517f08c379a0000000000000000000000000000000000000000000000000000000008152600401610df690614128565b60405180910390fd5b80915050919050565b60008073ffffffffffffffffffffffffffffffffffffffff168273ffffffffffffffffffffffffffffffffffffffff161415610e79576040517f08c379a0000000000000000000000000000000000000000000000000000000008152600401610e7090614048565b60405180910390fd5b600360008373ffffffffffffffffffffffffffffffffffffffff1673ffffffffffffffffffffffffffffffffffffffff168152602001908152602001600020549050919050565b610ec861251d565b610ed2600061259b565b565b610edc61251d565b600073ffffffffffffffffffffffffffffffffffffffff16600a60009054906101000a900473ffffffffffffffffffffffffffffffffffffffff1673ffffffffffffffffffffffffffffffffffffffff1614610f6d576040517f08c379a0000000000000000000000000000000000000000000000000000000008152600401610f6490614108565b60405180910390fd5b600073ffffffffffffffffffffffffffffffffffffffff168173ffffffffffffffffffffffffffffffffffffffff161415610fdd576040517f08c379a0000000000000000000000000000000000000000000000000000000008152600401610fd490613e68565b60405180910390fd5b80600a60006101000a81548173ffffffffffffffffffffffffffffffffffffffff021916908373ffffffffffffffffffffffffffffffffffffffff16021790555050565b60106020528060005260406000206000915090505481565b6000600760009054906101000a900473ffffffffffffffffffffffffffffffffffffffff16905090565b606060018054611072906144c4565b80601f016020809104026020016040519081016040528092919081815260200182805461109e906144c4565b80156110eb5780601f106110c0576101008083540402835291602001916110eb565b820191906000526020600020905b8154815290600101906020018083116110ce57829003601f168201915b5050505050905090565b611107611100612090565b8383612661565b5050565b6000662386f26fc10000821015611157576040517f08c379a000000000000000000000000000000000000000000000000000000000815260040161114e90613ec8565b60405180910390fd5b69021e19e0c9bab24000008211156111a4576040517f08c379a000000000000000000000000000000000000000000000000000000000815260040161119b906140a8565b60405180910390fd5b6000600b60008681526020019081526020016000206001015414156111fe576040517f08c379a00000000000000000000000000000000000000000000000000000000081526004016111f590613f48565b60405180910390fd5b600184148061126e57503373ffffffffffffffffffffffffffffffffffffffff16600b600086815260200190815260200160002060020160009054906101000a900473ffffffffffffffffffffffffffffffffffffffff1673ffffffffffffffffffffffffffffffffffffffff16145b6112ad576040517f08c379a00000000000000000000000000000000000000000000000000000000081526004016112a490613f68565b60405180910390fd5b60006112b96008611f55565b90506112c56008611f3f565b6112cf33826127ce565b6112d981856129ec565b84600d600083815260200190815260200160002081905550600c600086815260200190815260200160002081908060018154018082558091505060019003906000526020600020016000909190919091505582600e6000838152602001908152602001600020819055507f5f7666687319b40936f33c188908d86aea154abd3f4127b4fa0a3f04f303c7da8186604051611374929190614235565b60405180910390a1809150509392505050565b662386f26fc1000081565b6000600a60009054906101000a900473ffffffffffffffffffffffffffffffffffffffff1673ffffffffffffffffffffffffffffffffffffffff163373ffffffffffffffffffffffffffffffffffffffff1614611424576040517f08c379a000000000000000000000000000000000000000000000000000000000815260040161141b90613f88565b60405180910390fd5b662386f26fc1000083101561146e576040517f08c379a000000000000000000000000000000000000000000000000000000000815260040161146590613ec8565b60405180910390fd5b69021e19e0c9bab24000008311156114bb576040517f08c379a00000000000000000000000000000000000000000000000000000000081526004016114b2906140a8565b60405180910390fd5b6000600b6000878152602001908152602001600020600101541415611515576040517f08c379a000000000000000000000000000000000000000000000000000000000815260040161150c90613f48565b60405180910390fd5b3373ffffffffffffffffffffffffffffffffffffffff16600b600087815260200190815260200160002060020160009054906101000a900473ffffffffffffffffffffffffffffffffffffffff1673ffffffffffffffffffffffffffffffffffffffff16146115b9576040517f08c379a00000000000000000000000000000000000000000000000000000000081526004016115b090613f68565b60405180910390fd5b60006115c56008611f55565b90506115d16008611f3f565b6115db83826127ce565b6115e581866129ec565b85600d600083815260200190815260200160002081905550600c600087815260200190815260200160002081908060018154018082558091505060019003906000526020600020016000909190919091505583600e6000838152602001908152602001600020819055507f5f7666687319b40936f33c188908d86aea154abd3f4127b4fa0a3f04f303c7da8187604051611680929190614235565b60405180910390a180915050949350505050565b6116a561169f612090565b83612151565b6116e4576040517f08c379a00000000000000000000000000000000000000000000000000000000081526004016116db90613e48565b60405180910390fd5b6116f084848484612a97565b50505050565b600f6020528060005260406000206000915090505481565b606061171982612045565b6000600660008481526020019081526020016000208054611739906144c4565b80601f0160208091040260200160405190810160405280929190818152602001828054611765906144c4565b80156117b25780601f10611787576101008083540402835291602001916117b2565b820191906000526020600020905b81548152906001019060200180831161179557829003601f168201915b5050505050905060006117c3612af3565b90506000815114156117d957819250505061181c565b60008251111561180e5780826040516020016117f6929190613d5e565b6040516020818303038152906040529250505061181c565b61181784612b0a565b925050505b919050565b60606000600c600086815260200190815260200160002090506000818054905011611881576040517f08c379a0000000000000000000000000000000000000000000000000000000008152600401611878906141a8565b60405180910390fd5b808054905084106118c7576040517f08c379a00000000000000000000000000000000000000000000000000000000081526004016118be90614088565b60405180910390fd5b60648311156118d557606492505b600083856118e39190614372565b905081805490508111156118f957818054905090505b6000858261190791906143c8565b67ffffffffffffffff811115611946577f4e487b7100000000000000000000000000000000000000000000000000000000600052604160045260246000fd5b6040519080825280602002602001820160405280156119745781602001602082028036833780820191505090505b50905060008690505b82811015611a2c578381815481106119be577f4e487b7100000000000000000000000000000000000000000000000000000000600052603260045260246000fd5b90600052602060002001548288836119d691906143c8565b81518110611a0d577f4e487b7100000000000000000000000000000000000000000000000000000000600052603260045260246000fd5b6020026020010181815250508080611a2490614527565b91505061197d565b508093505050509392505050565b611a426131c4565b6000600d6000848152602001908152602001600020541415611a99576040517f08c379a0000000000000000000000000000000000000000000000000000000008152600401611a9090613fe8565b60405180910390fd5b6000600d6000848152602001908152602001600020549050600b6000828152602001908152602001600020604051806060016040529081600082018054611adf906144c4565b80601f0160208091040260200160405190810160405280929190818152602001828054611b0b906144c4565b8015611b585780601f10611b2d57610100808354040283529160200191611b58565b820191906000526020600020905b815481529060010190602001808311611b3b57829003601f168201915b50505050508152602001600182015481526020016002820160009054906101000a900473ffffffffffffffffffffffffffffffffffffffff1673ffffffffffffffffffffffffffffffffffffffff1673ffffffffffffffffffffffffffffffffffffffff1681525050915050919050565b6000600e6000838152602001908152602001600020549050919050565b6000600560008473ffffffffffffffffffffffffffffffffffffffff1673ffffffffffffffffffffffffffffffffffffffff16815260200190815260200160002060008373ffffffffffffffffffffffffffffffffffffffff1673ffffffffffffffffffffffffffffffffffffffff16815260200190815260200160002060009054906101000a900460ff16905092915050565b611c8261251d565b600073ffffffffffffffffffffffffffffffffffffffff168173ffffffffffffffffffffffffffffffffffffffff161415611cf2576040517f08c379a0000000000000000000000000000000000000000000000000000000008152600401611ce990613ee8565b60405180910390fd5b611cfb8161259b565b50565b6000662386f26fc10000821015611d4a576040517f08c379a0000000000000000000000000000000000000000000000000000000008152600401611d4190613ec8565b60405180910390fd5b69021e19e0c9bab2400000821115611d97576040517f08c379a0000000000000000000000000000000000000000000000000000000008152600401611d8e906140a8565b60405180910390fd5b611da8611da2612090565b84612151565b611de7576040517f08c379a0000000000000000000000000000000000000000000000000000000008152600401611dde90614188565b60405180910390fd5b600a60009054906101000a900473ffffffffffffffffffffffffffffffffffffffff1673ffffffffffffffffffffffffffffffffffffffff16639b83cddc846040518263ffffffff1660e01b8152600401611e4291906141ea565b60206040518083038186803b158015611e5a57600080fd5b505afa158015611e6e573d6000803e3d6000fd5b505050506040513d601f19601f82011682018060405250810190611e92919061354b565b15611ed2576040517f08c379a0000000000000000000000000000000000000000000000000000000008152600401611ec990614028565b60405180910390fd5b81600e6000858152602001908152602001600020819055507fa0f1665b7b659537b52deec61ea64d134a3bccda74c7f4e79f2246e7a8187a8a8383604051611f1b929190614235565b60405180910390a1600e600084815260200190815260200160002054905092915050565b6001816000016000828254019250508190555050565b600081600001549050919050565b60007f80ac58cd000000000000000000000000000000000000000000000000000000007bffffffffffffffffffffffffffffffffffffffffffffffffffffffff1916827bffffffffffffffffffffffffffffffffffffffffffffffffffffffff1916148061202e57507f5b5e139f000000000000000000000000000000000000000000000000000000007bffffffffffffffffffffffffffffffffffffffffffffffffffffffff1916827bffffffffffffffffffffffffffffffffffffffffffffffffffffffff1916145b8061203e575061203d82612b72565b5b9050919050565b61204e81612bdc565b61208d576040517f08c379a000000000000000000000000000000000000000000000000000000000815260040161208490614128565b60405180910390fd5b50565b600033905090565b816004600083815260200190815260200160002060006101000a81548173ffffffffffffffffffffffffffffffffffffffff021916908373ffffffffffffffffffffffffffffffffffffffff160217905550808273ffffffffffffffffffffffffffffffffffffffff1661210b83610d81565b73ffffffffffffffffffffffffffffffffffffffff167f8c5be1e5ebec7d5bd14f71427d1e84f3dd0314c0f7b2291e5b200ac8c7c3b92560405160405180910390a45050565b60008061215d83610d81565b90508073ffffffffffffffffffffffffffffffffffffffff168473ffffffffffffffffffffffffffffffffffffffff16148061219f575061219e8185611be6565b5b806121dd57508373ffffffffffffffffffffffffffffffffffffffff166121c584610a44565b73ffffffffffffffffffffffffffffffffffffffff16145b91505092915050565b8273ffffffffffffffffffffffffffffffffffffffff1661220682610d81565b73ffffffffffffffffffffffffffffffffffffffff161461225c576040517f08c379a000000000000000000000000000000000000000000000000000000000815260040161225390613f08565b60405180910390fd5b600073ffffffffffffffffffffffffffffffffffffffff168273ffffffffffffffffffffffffffffffffffffffff1614156122cc576040517f08c379a00000000000000000000000000000000000000000000000000000000081526004016122c390613fa8565b60405180910390fd5b6122d98383836001612c1d565b8273ffffffffffffffffffffffffffffffffffffffff166122f982610d81565b73ffffffffffffffffffffffffffffffffffffffff161461234f576040517f08c379a000000000000000000000000000000000000000000000000000000000815260040161234690613f08565b60405180910390fd5b6004600082815260200190815260200160002060006101000a81549073ffffffffffffffffffffffffffffffffffffffff02191690556001600360008573ffffffffffffffffffffffffffffffffffffffff1673ffffffffffffffffffffffffffffffffffffffff168152602001908152602001600020600082825403925050819055506001600360008473ffffffffffffffffffffffffffffffffffffffff1673ffffffffffffffffffffffffffffffffffffffff16815260200190815260200160002060008282540192505081905550816002600083815260200190815260200160002060006101000a81548173ffffffffffffffffffffffffffffffffffffffff021916908373ffffffffffffffffffffffffffffffffffffffff160217905550808273ffffffffffffffffffffffffffffffffffffffff168473ffffffffffffffffffffffffffffffffffffffff167fddf252ad1be2c89b69c2b068fc378daa952ba7f163c4a11628f55a4df523b3ef60405160405180910390a46124db8383836001612c23565b505050565b60006002600083815260200190815260200160002060009054906101000a900473ffffffffffffffffffffffffffffffffffffffff169050919050565b612525612090565b73ffffffffffffffffffffffffffffffffffffffff16612543611039565b73ffffffffffffffffffffffffffffffffffffffff1614612599576040517f08c379a0000000000000000000000000000000000000000000000000000000008152600401612590906140e8565b60405180910390fd5b565b6000600760009054906101000a900473ffffffffffffffffffffffffffffffffffffffff16905081600760006101000a81548173ffffffffffffffffffffffffffffffffffffffff021916908373ffffffffffffffffffffffffffffffffffffffff1602179055508173ffffffffffffffffffffffffffffffffffffffff168173ffffffffffffffffffffffffffffffffffffffff167f8be0079c531659141344cd1fd0a4f28419497f9722a3daafe3b4186f6b6457e060405160405180910390a35050565b8173ffffffffffffffffffffffffffffffffffffffff168373ffffffffffffffffffffffffffffffffffffffff1614156126d0576040517f08c379a00000000000000000000000000000000000000000000000000000000081526004016126c790613fc8565b60405180910390fd5b80600560008573ffffffffffffffffffffffffffffffffffffffff1673ffffffffffffffffffffffffffffffffffffffff16815260200190815260200160002060008473ffffffffffffffffffffffffffffffffffffffff1673ffffffffffffffffffffffffffffffffffffffff16815260200190815260200160002060006101000a81548160ff0219169083151502179055508173ffffffffffffffffffffffffffffffffffffffff168373ffffffffffffffffffffffffffffffffffffffff167f17307eab39ab6107e8899845ad3d59bd9653f200f220920489ca2b5937696c31836040516127c19190613e0b565b60405180910390a3505050565b600073ffffffffffffffffffffffffffffffffffffffff168273ffffffffffffffffffffffffffffffffffffffff16141561283e576040517f08c379a0000000000000000000000000000000000000000000000000000000008152600401612835906140c8565b60405180910390fd5b61284781612bdc565b15612887576040517f08c379a000000000000000000000000000000000000000000000000000000000815260040161287e90613f28565b60405180910390fd5b612895600083836001612c1d565b61289e81612bdc565b156128de576040517f08c379a00000000000000000000000000000000000000000000000000000000081526004016128d590613f28565b60405180910390fd5b6001600360008473ffffffffffffffffffffffffffffffffffffffff1673ffffffffffffffffffffffffffffffffffffffff16815260200190815260200160002060008282540192505081905550816002600083815260200190815260200160002060006101000a81548173ffffffffffffffffffffffffffffffffffffffff021916908373ffffffffffffffffffffffffffffffffffffffff160217905550808273ffffffffffffffffffffffffffffffffffffffff16600073ffffffffffffffffffffffffffffffffffffffff167fddf252ad1be2c89b69c2b068fc378daa952ba7f163c4a11628f55a4df523b3ef60405160405180910390a46129e8600083836001612c23565b5050565b6129f582612bdc565b612a34576040517f08c379a0000000000000000000000000000000000000000000000000000000008152600401612a2b90614068565b60405180910390fd5b80600660008481526020019081526020016000209080519060200190612a5b92919061313e565b507ff8e1a15aba9398e019f0b49df1a4fde98ee17ae345cb5f6b5e2c27f5033e8ce782604051612a8b91906141ea565b60405180910390a15050565b612aa28484846121e6565b612aae84848484612c29565b612aed576040517f08c379a0000000000000000000000000000000000000000000000000000000008152600401612ae490613ea8565b60405180910390fd5b50505050565b606060405180602001604052806000815250905090565b6060612b1582612045565b6000612b1f612af3565b90506000815111612b3f5760405180602001604052806000815250612b6a565b80612b4984612dc0565b604051602001612b5a929190613d5e565b6040516020818303038152906040525b915050919050565b60007f01ffc9a7000000000000000000000000000000000000000000000000000000007bffffffffffffffffffffffffffffffffffffffffffffffffffffffff1916827bffffffffffffffffffffffffffffffffffffffffffffffffffffffff1916149050919050565b60008073ffffffffffffffffffffffffffffffffffffffff16612bfe836124e0565b73ffffffffffffffffffffffffffffffffffffffff1614159050919050565b50505050565b50505050565b6000612c4a8473ffffffffffffffffffffffffffffffffffffffff16612ee4565b15612db3578373ffffffffffffffffffffffffffffffffffffffff1663150b7a02612c73612090565b8786866040518563ffffffff1660e01b8152600401612c959493929190613d9d565b602060405180830381600087803b158015612caf57600080fd5b505af1925050508015612ce057506040513d601f19601f82011682018060405250810190612cdd919061359d565b60015b612d63573d8060008114612d10576040519150601f19603f3d011682016040523d82523d6000602084013e612d15565b606091505b50600081511415612d5b576040517f08c379a0000000000000000000000000000000000000000000000000000000008152600401612d5290613ea8565b60405180910390fd5b805181602001fd5b63150b7a0260e01b7bffffffffffffffffffffffffffffffffffffffffffffffffffffffff1916817bffffffffffffffffffffffffffffffffffffffffffffffffffffffff191614915050612db8565b600190505b949350505050565b606060006001612dcf84612f07565b01905060008167ffffffffffffffff811115612e14577f4e487b7100000000000000000000000000000000000000000000000000000000600052604160045260246000fd5b6040519080825280601f01601f191660200182016040528015612e465781602001600182028036833780820191505090505b509050600082602001820190505b600115612ed9578080600190039150507f3031323334353637383961626364656600000000000000000000000000000000600a86061a8153600a8581612ec3577f4e487b7100000000000000000000000000000000000000000000000000000000600052601260045260246000fd5b0494506000851415612ed457612ed9565b612e54565b819350505050919050565b6000808273ffffffffffffffffffffffffffffffffffffffff163b119050919050565b600080600090507a184f03e93ff9f4daa797ed6e38ed64bf6a1f0100000000000000008310612f8b577a184f03e93ff9f4daa797ed6e38ed64bf6a1f0100000000000000008381612f81577f4e487b7100000000000000000000000000000000000000000000000000000000600052601260045260246000fd5b0492506040810190505b6d04ee2d6d415b85acef81000000008310612fee576d04ee2d6d415b85acef81000000008381612fe4577f4e487b7100000000000000000000000000000000000000000000000000000000600052601260045260246000fd5b0492506020810190505b662386f26fc10000831061304357662386f26fc100008381613039577f4e487b7100000000000000000000000000000000000000000000000000000000600052601260045260246000fd5b0492506010810190505b6305f5e1008310613092576305f5e1008381613088577f4e487b7100000000000000000000000000000000000000000000000000000000600052601260045260246000fd5b0492506008810190505b61271083106130dd5761271083816130d3577f4e487b7100000000000000000000000000000000000000000000000000000000600052601260045260246000fd5b0492506004810190505b60648310613126576064838161311c577f4e487b7100000000000000000000000000000000000000000000000000000000600052601260045260246000fd5b0492506002810190505b600a8310613135576001810190505b80915050919050565b82805461314a906144c4565b90600052602060002090601f01602090048101928261316c57600085556131b3565b82601f1061318557805160ff19168380011785556131b3565b828001600101855582156131b3579182015b828111156131b2578251825591602001919060010190613197565b5b5090506131c091906131fb565b5090565b60405180606001604052806060815260200160008152602001600073ffffffffffffffffffffffffffffffffffffffff1681525090565b5b808211156132145760008160009055506001016131fc565b5090565b600061322b61322684614283565b61425e565b90508281526020810184848401111561324357600080fd5b61324e848285614482565b509392505050565b6000613269613264846142b4565b61425e565b90508281526020810184848401111561328157600080fd5b61328c848285614482565b509392505050565b6000813590506132a381614c9e565b92915050565b6000813590506132b881614cb5565b92915050565b6000813590506132cd81614ccc565b92915050565b6000815190506132e281614ccc565b92915050565b6000813590506132f781614ce3565b92915050565b60008151905061330c81614ce3565b92915050565b600082601f83011261332357600080fd5b8135613333848260208601613218565b91505092915050565b600082601f83011261334d57600080fd5b813561335d848260208601613256565b91505092915050565b60008135905061337581614cfa565b92915050565b60006020828403121561338d57600080fd5b600061339b84828501613294565b91505092915050565b6000602082840312156133b657600080fd5b60006133c4848285016132a9565b91505092915050565b600080604083850312156133e057600080fd5b60006133ee85828601613294565b92505060206133ff85828601613294565b9150509250929050565b60008060006060848603121561341e57600080fd5b600061342c86828701613294565b935050602061343d86828701613294565b925050604061344e86828701613366565b9150509250925092565b6000806000806080858703121561346e57600080fd5b600061347c87828801613294565b945050602061348d87828801613294565b935050604061349e87828801613366565b925050606085013567ffffffffffffffff8111156134bb57600080fd5b6134c787828801613312565b91505092959194509250565b600080604083850312156134e657600080fd5b60006134f485828601613294565b9250506020613505858286016132be565b9150509250929050565b6000806040838503121561352257600080fd5b600061353085828601613294565b925050602061354185828601613366565b9150509250929050565b60006020828403121561355d57600080fd5b600061356b848285016132d3565b91505092915050565b60006020828403121561358657600080fd5b6000613594848285016132e8565b91505092915050565b6000602082840312156135af57600080fd5b60006135bd848285016132fd565b91505092915050565b6000602082840312156135d857600080fd5b600082013567ffffffffffffffff8111156135f257600080fd5b6135fe8482850161333c565b91505092915050565b60006020828403121561361957600080fd5b600061362784828501613366565b91505092915050565b60008060006060848603121561364557600080fd5b600061365386828701613366565b935050602084013567ffffffffffffffff81111561367057600080fd5b61367c8682870161333c565b925050604061368d86828701613366565b9150509250925092565b600080600080608085870312156136ad57600080fd5b60006136bb87828801613366565b945050602085013567ffffffffffffffff8111156136d857600080fd5b6136e48782880161333c565b93505060406136f587828801613366565b925050606061370687828801613294565b91505092959194509250565b6000806040838503121561372557600080fd5b600061373385828601613366565b925050602061374485828601613366565b9150509250929050565b60008060006060848603121561376357600080fd5b600061377186828701613366565b935050602061378286828701613366565b925050604061379386828701613366565b9150509250925092565b60006137a98383613d40565b60208301905092915050565b6137be816143fc565b82525050565b6137cd816143fc565b82525050565b60006137de826142f5565b6137e88185614323565b93506137f3836142e5565b8060005b8381101561382457815161380b888261379d565b975061381683614316565b9250506001810190506137f7565b5085935050505092915050565b61383a81614420565b82525050565b600061384b82614300565b6138558185614334565b9350613865818560208601614491565b61386e816145fd565b840191505092915050565b60006138848261430b565b61388e8185614345565b935061389e818560208601614491565b6138a7816145fd565b840191505092915050565b60006138bd8261430b565b6138c78185614356565b93506138d7818560208601614491565b6138e0816145fd565b840191505092915050565b60006138f68261430b565b6139008185614367565b9350613910818560208601614491565b80840191505092915050565b6000613929602d83614356565b91506139348261460e565b604082019050919050565b600061394c600f83614356565b91506139578261465d565b602082019050919050565b600061396f602c83614356565b915061397a82614686565b604082019050919050565b6000613992603283614356565b915061399d826146d5565b604082019050919050565b60006139b5602083614356565b91506139c082614724565b602082019050919050565b60006139d8602683614356565b91506139e38261474d565b604082019050919050565b60006139fb602583614356565b9150613a068261479c565b604082019050919050565b6000613a1e601c83614356565b9150613a29826147eb565b602082019050919050565b6000613a41601983614356565b9150613a4c82614814565b602082019050919050565b6000613a64601f83614356565b9150613a6f8261483d565b602082019050919050565b6000613a87601d83614356565b9150613a9282614866565b602082019050919050565b6000613aaa602483614356565b9150613ab58261488f565b604082019050919050565b6000613acd601983614356565b9150613ad8826148de565b602082019050919050565b6000613af0602783614356565b9150613afb82614907565b604082019050919050565b6000613b13601783614356565b9150613b1e82614956565b602082019050919050565b6000613b36602283614356565b9150613b418261497f565b604082019050919050565b6000613b59602983614356565b9150613b64826149ce565b604082019050919050565b6000613b7c602e83614356565b9150613b8782614a1d565b604082019050919050565b6000613b9f601383614356565b9150613baa82614a6c565b602082019050919050565b6000613bc2601f83614356565b9150613bcd82614a95565b602082019050919050565b6000613be5602083614356565b9150613bf082614abe565b602082019050919050565b6000613c08602083614356565b9150613c1382614ae7565b602082019050919050565b6000613c2b602883614356565b9150613c3682614b10565b604082019050919050565b6000613c4e601883614356565b9150613c5982614b5f565b602082019050919050565b6000613c71602183614356565b9150613c7c82614b88565b604082019050919050565b6000613c94603d83614356565b9150613c9f82614bd7565b604082019050919050565b6000613cb7603183614356565b9150613cc282614c26565b604082019050919050565b6000613cda600e83614356565b9150613ce582614c75565b602082019050919050565b60006060830160008301518482036000860152613d0d8282613879565b9150506020830151613d226020860182613d40565b506040830151613d3560408601826137b5565b508091505092915050565b613d4981614478565b82525050565b613d5881614478565b82525050565b6000613d6a82856138eb565b9150613d7682846138eb565b91508190509392505050565b6000602082019050613d9760008301846137c4565b92915050565b6000608082019050613db260008301876137c4565b613dbf60208301866137c4565b613dcc6040830185613d4f565b8181036060830152613dde8184613840565b905095945050505050565b60006020820190508181036000830152613e0381846137d3565b905092915050565b6000602082019050613e206000830184613831565b92915050565b60006020820190508181036000830152613e4081846138b2565b905092915050565b60006020820190508181036000830152613e618161391c565b9050919050565b60006020820190508181036000830152613e818161393f565b9050919050565b60006020820190508181036000830152613ea181613962565b9050919050565b60006020820190508181036000830152613ec181613985565b9050919050565b60006020820190508181036000830152613ee1816139a8565b9050919050565b60006020820190508181036000830152613f01816139cb565b9050919050565b60006020820190508181036000830152613f21816139ee565b9050919050565b60006020820190508181036000830152613f4181613a11565b9050919050565b60006020820190508181036000830152613f6181613a34565b9050919050565b60006020820190508181036000830152613f8181613a57565b9050919050565b60006020820190508181036000830152613fa181613a7a565b9050919050565b60006020820190508181036000830152613fc181613a9d565b9050919050565b60006020820190508181036000830152613fe181613ac0565b9050919050565b6000602082019050818103600083015261400181613ae3565b9050919050565b6000602082019050818103600083015261402181613b06565b9050919050565b6000602082019050818103600083015261404181613b29565b9050919050565b6000602082019050818103600083015261406181613b4c565b9050919050565b6000602082019050818103600083015261408181613b6f565b9050919050565b600060208201905081810360008301526140a181613b92565b9050919050565b600060208201905081810360008301526140c181613bb5565b9050919050565b600060208201905081810360008301526140e181613bd8565b9050919050565b6000602082019050818103600083015261410181613bfb565b9050919050565b6000602082019050818103600083015261412181613c1e565b9050919050565b6000602082019050818103600083015261414181613c41565b9050919050565b6000602082019050818103600083015261416181613c64565b9050919050565b6000602082019050818103600083015261418181613c87565b9050919050565b600060208201905081810360008301526141a181613caa565b9050919050565b600060208201905081810360008301526141c181613ccd565b9050919050565b600060208201905081810360008301526141e28184613cf0565b905092915050565b60006020820190506141ff6000830184613d4f565b92915050565b600060408201905061421a6000830185613d4f565b818103602083015261422c81846138b2565b90509392505050565b600060408201905061424a6000830185613d4f565b6142576020830184613d4f565b9392505050565b6000614268614279565b905061427482826144f6565b919050565b6000604051905090565b600067ffffffffffffffff82111561429e5761429d6145ce565b5b6142a7826145fd565b9050602081019050919050565b600067ffffffffffffffff8211156142cf576142ce6145ce565b5b6142d8826145fd565b9050602081019050919050565b6000819050602082019050919050565b600081519050919050565b600081519050919050565b600081519050919050565b6000602082019050919050565b600082825260208201905092915050565b600082825260208201905092915050565b600082825260208201905092915050565b600082825260208201905092915050565b600081905092915050565b600061437d82614478565b915061438883614478565b9250827fffffffffffffffffffffffffffffffffffffffffffffffffffffffffffffffff038211156143bd576143bc614570565b5b828201905092915050565b60006143d382614478565b91506143de83614478565b9250828210156143f1576143f0614570565b5b828203905092915050565b600061440782614458565b9050919050565b600061441982614458565b9050919050565b60008115159050919050565b60007fffffffff0000000000000000000000000000000000000000000000000000000082169050919050565b600073ffffffffffffffffffffffffffffffffffffffff82169050919050565b6000819050919050565b82818337600083830152505050565b60005b838110156144af578082015181840152602081019050614494565b838111156144be576000848401525b50505050565b600060028204905060018216806144dc57607f821691505b602082108114156144f0576144ef61459f565b5b50919050565b6144ff826145fd565b810181811067ffffffffffffffff8211171561451e5761451d6145ce565b5b80604052505050565b600061453282614478565b91507fffffffffffffffffffffffffffffffffffffffffffffffffffffffffffffffff82141561456557614564614570565b5b600182019050919050565b7f4e487b7100000000000000000000000000000000000000000000000000000000600052601160045260246000fd5b7f4e487b7100000000000000000000000000000000000000000000000000000000600052602260045260246000fd5b7f4e487b7100000000000000000000000000000000000000000000000000000000600052604160045260246000fd5b6000601f19601f8301169050919050565b7f4552433732313a2063616c6c6572206973206e6f7420746f6b656e206f776e6560008201527f72206f7220617070726f76656400000000000000000000000000000000000000602082015250565b7f496e76616c696420616464726573730000000000000000000000000000000000600082015250565b7f4d7573742077616974206265666f7265206372656174696e6720616e6f74686560008201527f7220636f6c6c656374696f6e0000000000000000000000000000000000000000602082015250565b7f4552433732313a207472616e7366657220746f206e6f6e20455243373231526560008201527f63656976657220696d706c656d656e7465720000000000000000000000000000602082015250565b7f5072696365206d757374206265206174206c65617374204d494e5f5052494345600082015250565b7f4f776e61626c653a206e6577206f776e657220697320746865207a65726f206160008201527f6464726573730000000000000000000000000000000000000000000000000000602082015250565b7f4552433732313a207472616e736665722066726f6d20696e636f72726563742060008201527f6f776e6572000000000000000000000000000000000000000000000000000000602082015250565b7f4552433732313a20746f6b656e20616c7265616479206d696e74656400000000600082015250565b7f436f6c6c656374696f6e20646f6573206e6f7420657869737400000000000000600082015250565b7f4e6f7420746865206f776e6572206f662074686520636f6c6c656374696f6e00600082015250565b7f43616c6c6572206973206e6f7420746865206d61726b6574706c616365000000600082015250565b7f4552433732313a207472616e7366657220746f20746865207a65726f2061646460008201527f7265737300000000000000000000000000000000000000000000000000000000602082015250565b7f4552433732313a20617070726f766520746f2063616c6c657200000000000000600082015250565b7f546f6b656e20646f6573206e6f742062656c6f6e6720746f20616e7920636f6c60008201527f6c656374696f6e00000000000000000000000000000000000000000000000000602082015250565b7f4d617820636f6c6c656374696f6e732072656163686564000000000000000000600082015250565b7f546f6b656e2069732063757272656e746c79206c697374656420666f7220736160008201527f6c65000000000000000000000000000000000000000000000000000000000000602082015250565b7f4552433732313a2061646472657373207a65726f206973206e6f74206120766160008201527f6c6964206f776e65720000000000000000000000000000000000000000000000602082015250565b7f45524337323155524953746f726167653a2055524920736574206f66206e6f6e60008201527f6578697374656e7420746f6b656e000000000000000000000000000000000000602082015250565b7f496e76616c696420737461727420696e64657800000000000000000000000000600082015250565b7f5072696365206d757374206e6f7420657863656564204d41585f505249434500600082015250565b7f4552433732313a206d696e7420746f20746865207a65726f2061646472657373600082015250565b7f4f776e61626c653a2063616c6c6572206973206e6f7420746865206f776e6572600082015250565b7f4d61726b6574706c61636520616464726573732068617320616c72656164792060008201527f6265656e20736574000000000000000000000000000000000000000000000000602082015250565b7f4552433732313a20696e76616c696420746f6b656e2049440000000000000000600082015250565b7f4552433732313a20617070726f76616c20746f2063757272656e74206f776e6560008201527f7200000000000000000000000000000000000000000000000000000000000000602082015250565b7f4552433732313a20617070726f76652063616c6c6572206973206e6f7420746f60008201527f6b656e206f776e6572206f7220617070726f76656420666f7220616c6c000000602082015250565b7f4552433732313a207472616e736665722063616c6c6572206973206e6f74206f60008201527f776e6572206e6f7220617070726f766564000000000000000000000000000000602082015250565b7f417272617920697320656d707479000000000000000000000000000000000000600082015250565b614ca7816143fc565b8114614cb257600080fd5b50565b614cbe8161440e565b8114614cc957600080fd5b50565b614cd581614420565b8114614ce057600080fd5b50565b614cec8161442c565b8114614cf757600080fd5b50565b614d0381614478565b8114614d0e57600080fd5b5056fea2646970667358221220330ea1d2e0bba2f9878d8b564fdd239717f8ed9dbb74fdafd3a2c7604ec78dbd64736f6c63430008010033",
  "linkReferences": {},
  "deployedLinkReferences": {}
}