{
  "_format": "hh-sol-artifact-1",
  "contractName": "ERC721Collections",
  "sourceName": "contracts/ERC721Collections.sol",
  "abi": [
    {
      "inputs": [
        {
          "internalType": "string",
          "name": "publicCollectionURI",
          "type": "string"
        }
      ],
      "stateMutability": "nonpayable",
      "type": "constructor"
    },
    {
      "anonymous": false,
      "inputs": [
        {
          "indexed": true,
          "internalType": "address",
          "name": "owner",
          "type": "address"
        },
        {
          "indexed": true,
          "internalType": "address",
          "name": "approved",
          "type": "address"
        },
        {
          "indexed": true,
          "internalType": "uint256",
          "name": "tokenId",
          "type": "uint256"
        }
      ],
      "name": "Approval",
      "type": "event"
    },
    {
      "anonymous": false,
      "inputs": [
        {
          "indexed": true,
          "internalType": "address",
          "name": "owner",
          "type": "address"
        },
        {
          "indexed": true,
          "internalType": "address",
          "name": "operator",
          "type": "address"
        },
        {
          "indexed": false,
          "internalType": "bool",
          "name": "approved",
          "type": "bool"
        }
      ],
      "name": "ApprovalForAll",
      "type": "event"
    },
    {
      "anonymous": false,
      "inputs": [
        {
          "indexed": false,
          "internalType": "uint256",
          "name": "_fromTokenId",
          "type": "uint256"
        },
        {
          "indexed": false,
          "internalType": "uint256",
          "name": "_toTokenId",
          "type": "uint256"
        }
      ],
      "name": "BatchMetadataUpdate",
      "type": "event"
    },
    {
      "anonymous": false,
      "inputs": [
        {
          "indexed": false,
          "internalType": "uint256",
          "name": "id",
          "type": "uint256"
        },
        {
          "indexed": false,
          "internalType": "string",
          "name": "uri",
          "type": "string"
        }
      ],
      "name": "CollectionCreated",
      "type": "event"
    },
    {
      "anonymous": false,
      "inputs": [
        {
          "indexed": false,
          "internalType": "uint256",
          "name": "_tokenId",
          "type": "uint256"
        }
      ],
      "name": "MetadataUpdate",
      "type": "event"
    },
    {
      "anonymous": false,
      "inputs": [
        {
          "indexed": false,
          "internalType": "uint256",
          "name": "collectionId",
          "type": "uint256"
        },
        {
          "indexed": false,
          "internalType": "uint256",
          "name": "newMintPrice",
          "type": "uint256"
        }
      ],
      "name": "MintPriceChanged",
      "type": "event"
    },
    {
      "anonymous": false,
      "inputs": [
        {
          "indexed": true,
          "internalType": "address",
          "name": "previousOwner",
          "type": "address"
        },
        {
          "indexed": true,
          "internalType": "address",
          "name": "newOwner",
          "type": "address"
        }
      ],
      "name": "OwnershipTransferred",
      "type": "event"
    },
    {
      "anonymous": false,
      "inputs": [
        {
          "indexed": false,
          "internalType": "uint256",
          "name": "tokenId",
          "type": "uint256"
        },
        {
          "indexed": false,
          "internalType": "uint256",
          "name": "price",
          "type": "uint256"
        }
      ],
      "name": "PriceSet",
      "type": "event"
    },
    {
      "anonymous": false,
      "inputs": [
        {
          "indexed": false,
          "internalType": "uint256",
          "name": "tokenId",
          "type": "uint256"
        },
        {
          "indexed": false,
          "internalType": "uint256",
          "name": "collectionId",
          "type": "uint256"
        }
      ],
      "name": "TokenMinted",
      "type": "event"
    },
    {
      "anonymous": false,
      "inputs": [
        {
          "indexed": true,
          "internalType": "address",
          "name": "from",
          "type": "address"
        },
        {
          "indexed": true,
          "internalType": "address",
          "name": "to",
          "type": "address"
        },
        {
          "indexed": true,
          "internalType": "uint256",
          "name": "tokenId",
          "type": "uint256"
        }
      ],
      "name": "Transfer",
      "type": "event"
    },
    {
      "inputs": [],
      "name": "MIN_PRICE",
      "outputs": [
        {
          "internalType": "uint256",
          "name": "",
          "type": "uint256"
        }
      ],
      "stateMutability": "view",
      "type": "function"
    },
    {
      "inputs": [
        {
          "internalType": "address",
          "name": "to",
          "type": "address"
        },
        {
          "internalType": "uint256",
          "name": "tokenId",
          "type": "uint256"
        }
      ],
      "name": "approve",
      "outputs": [],
      "stateMutability": "nonpayable",
      "type": "function"
    },
    {
      "inputs": [
        {
          "internalType": "address",
          "name": "owner",
          "type": "address"
        }
      ],
      "name": "balanceOf",
      "outputs": [
        {
          "internalType": "uint256",
          "name": "",
          "type": "uint256"
        }
      ],
      "stateMutability": "view",
      "type": "function"
    },
    {
      "inputs": [
        {
          "internalType": "uint256",
          "name": "collectionId",
          "type": "uint256"
        },
        {
          "internalType": "uint256",
          "name": "newMintPrice",
          "type": "uint256"
        }
      ],
      "name": "changeMintPrice",
      "outputs": [],
      "stateMutability": "nonpayable",
      "type": "function"
    },
    {
      "inputs": [
        {
          "internalType": "address",
          "name": "",
          "type": "address"
        }
      ],
      "name": "collectionsCreated",
      "outputs": [
        {
          "internalType": "uint256",
          "name": "",
          "type": "uint256"
        }
      ],
      "stateMutability": "view",
      "type": "function"
    },
    {
      "inputs": [
        {
          "internalType": "string",
          "name": "uri",
          "type": "string"
        },
        {
          "internalType": "uint256",
          "name": "mintDate",
          "type": "uint256"
        },
        {
          "internalType": "uint256",
          "name": "mintPrice",
          "type": "uint256"
        },
        {
          "internalType": "uint256",
          "name": "royaltyPercentage",
          "type": "uint256"
        }
      ],
      "name": "createCollection",
      "outputs": [
        {
          "internalType": "uint256",
          "name": "",
          "type": "uint256"
        }
      ],
      "stateMutability": "nonpayable",
      "type": "function"
    },
    {
      "inputs": [
        {
          "internalType": "uint256",
          "name": "tokenId",
          "type": "uint256"
        }
      ],
      "name": "getApproved",
      "outputs": [
        {
          "internalType": "address",
          "name": "",
          "type": "address"
        }
      ],
      "stateMutability": "view",
      "type": "function"
    },
    {
      "inputs": [
        {
          "internalType": "uint256",
          "name": "id",
          "type": "uint256"
        }
      ],
      "name": "getCollection",
      "outputs": [
        {
          "components": [
            {
              "internalType": "string",
              "name": "uri",
              "type": "string"
            },
            {
              "internalType": "uint256",
              "name": "id",
              "type": "uint256"
            },
            {
              "internalType": "address",
              "name": "owner",
              "type": "address"
            },
            {
              "internalType": "uint256",
              "name": "mintDate",
              "type": "uint256"
            },
            {
              "internalType": "uint256",
              "name": "mintPrice",
              "type": "uint256"
            },
            {
              "internalType": "uint256",
              "name": "royaltyPercentage",
              "type": "uint256"
            }
          ],
          "internalType": "struct ERC721Collections.Collection",
          "name": "",
          "type": "tuple"
        }
      ],
      "stateMutability": "view",
      "type": "function"
    },
    {
      "inputs": [
        {
          "internalType": "uint256",
          "name": "tokenId",
          "type": "uint256"
        }
      ],
      "name": "getCollectionOfToken",
      "outputs": [
        {
          "components": [
            {
              "internalType": "string",
              "name": "uri",
              "type": "string"
            },
            {
              "internalType": "uint256",
              "name": "id",
              "type": "uint256"
            },
            {
              "internalType": "address",
              "name": "owner",
              "type": "address"
            },
            {
              "internalType": "uint256",
              "name": "mintDate",
              "type": "uint256"
            },
            {
              "internalType": "uint256",
              "name": "mintPrice",
              "type": "uint256"
            },
            {
              "internalType": "uint256",
              "name": "royaltyPercentage",
              "type": "uint256"
            }
          ],
          "internalType": "struct ERC721Collections.Collection",
          "name": "",
          "type": "tuple"
        }
      ],
      "stateMutability": "view",
      "type": "function"
    },
    {
      "inputs": [
        {
          "internalType": "uint256",
          "name": "collectionId",
          "type": "uint256"
        }
      ],
      "name": "getCollectionOwner",
      "outputs": [
        {
          "internalType": "address",
          "name": "",
          "type": "address"
        }
      ],
      "stateMutability": "view",
      "type": "function"
    },
    {
      "inputs": [
        {
          "internalType": "uint256",
          "name": "offset",
          "type": "uint256"
        },
        {
          "internalType": "uint256",
          "name": "limit",
          "type": "uint256"
        }
      ],
      "name": "getCollectionsWithPagination",
      "outputs": [
        {
          "components": [
            {
              "internalType": "string",
              "name": "uri",
              "type": "string"
            },
            {
              "internalType": "uint256",
              "name": "id",
              "type": "uint256"
            },
            {
              "internalType": "address",
              "name": "owner",
              "type": "address"
            },
            {
              "internalType": "uint256",
              "name": "mintDate",
              "type": "uint256"
            },
            {
              "internalType": "uint256",
              "name": "mintPrice",
              "type": "uint256"
            },
            {
              "internalType": "uint256",
              "name": "royaltyPercentage",
              "type": "uint256"
            }
          ],
          "internalType": "struct ERC721Collections.Collection[]",
          "name": "",
          "type": "tuple[]"
        }
      ],
      "stateMutability": "view",
      "type": "function"
    },
    {
      "inputs": [
        {
          "internalType": "uint256",
          "name": "collectionId",
          "type": "uint256"
        },
        {
          "internalType": "uint256",
          "name": "startIndex",
          "type": "uint256"
        },
        {
          "internalType": "uint256",
          "name": "pageSize",
          "type": "uint256"
        }
      ],
      "name": "getNFTsInCollection",
      "outputs": [
        {
          "internalType": "uint256[]",
          "name": "",
          "type": "uint256[]"
        }
      ],
      "stateMutability": "view",
      "type": "function"
    },
    {
      "inputs": [
        {
          "internalType": "address",
          "name": "owner",
          "type": "address"
        },
        {
          "internalType": "address",
          "name": "operator",
          "type": "address"
        }
      ],
      "name": "isApprovedForAll",
      "outputs": [
        {
          "internalType": "bool",
          "name": "",
          "type": "bool"
        }
      ],
      "stateMutability": "view",
      "type": "function"
    },
    {
      "inputs": [
        {
          "internalType": "address",
          "name": "",
          "type": "address"
        }
      ],
      "name": "lastCollectionTimestamp",
      "outputs": [
        {
          "internalType": "uint256",
          "name": "",
          "type": "uint256"
        }
      ],
      "stateMutability": "view",
      "type": "function"
    },
    {
      "inputs": [
        {
          "internalType": "uint256",
          "name": "collectionId",
          "type": "uint256"
        },
        {
          "internalType": "string",
          "name": "tokenURI",
          "type": "string"
        },
        {
          "internalType": "uint256",
          "name": "price",
          "type": "uint256"
        },
        {
          "internalType": "uint256",
          "name": "royaltyPercentage",
          "type": "uint256"
        },
        {
          "internalType": "bool",
          "name": "isMintToMarketplace",
          "type": "bool"
        }
      ],
      "name": "mint",
      "outputs": [
        {
          "internalType": "uint256",
          "name": "",
          "type": "uint256"
        }
      ],
      "stateMutability": "nonpayable",
      "type": "function"
    },
    {
      "inputs": [
        {
          "internalType": "uint256",
          "name": "collectionId",
          "type": "uint256"
        },
        {
          "internalType": "address",
          "name": "to",
          "type": "address"
        },
        {
          "internalType": "string",
          "name": "tokenURI",
          "type": "string"
        }
      ],
      "name": "mintToCollection",
      "outputs": [
        {
          "internalType": "uint256",
          "name": "tokenId",
          "type": "uint256"
        },
        {
          "internalType": "address",
          "name": "collectionOwner",
          "type": "address"
        }
      ],
      "stateMutability": "payable",
      "type": "function"
    },
    {
      "inputs": [],
      "name": "name",
      "outputs": [
        {
          "internalType": "string",
          "name": "",
          "type": "string"
        }
      ],
      "stateMutability": "view",
      "type": "function"
    },
    {
      "inputs": [],
      "name": "owner",
      "outputs": [
        {
          "internalType": "address",
          "name": "",
          "type": "address"
        }
      ],
      "stateMutability": "view",
      "type": "function"
    },
    {
      "inputs": [
        {
          "internalType": "uint256",
          "name": "tokenId",
          "type": "uint256"
        }
      ],
      "name": "ownerOf",
      "outputs": [
        {
          "internalType": "address",
          "name": "",
          "type": "address"
        }
      ],
      "stateMutability": "view",
      "type": "function"
    },
    {
      "inputs": [],
      "name": "renounceOwnership",
      "outputs": [],
      "stateMutability": "nonpayable",
      "type": "function"
    },
    {
      "inputs": [
        {
          "internalType": "uint256",
          "name": "tokenId",
          "type": "uint256"
        },
        {
          "internalType": "uint256",
          "name": "salePrice",
          "type": "uint256"
        }
      ],
      "name": "royaltyInfo",
      "outputs": [
        {
          "internalType": "address",
          "name": "receiver",
          "type": "address"
        },
        {
          "internalType": "uint256",
          "name": "royaltyAmount",
          "type": "uint256"
        }
      ],
      "stateMutability": "view",
      "type": "function"
    },
    {
      "inputs": [
        {
          "internalType": "address",
          "name": "from",
          "type": "address"
        },
        {
          "internalType": "address",
          "name": "to",
          "type": "address"
        },
        {
          "internalType": "uint256",
          "name": "tokenId",
          "type": "uint256"
        }
      ],
      "name": "safeTransferFrom",
      "outputs": [],
      "stateMutability": "nonpayable",
      "type": "function"
    },
    {
      "inputs": [
        {
          "internalType": "address",
          "name": "from",
          "type": "address"
        },
        {
          "internalType": "address",
          "name": "to",
          "type": "address"
        },
        {
          "internalType": "uint256",
          "name": "tokenId",
          "type": "uint256"
        },
        {
          "internalType": "bytes",
          "name": "data",
          "type": "bytes"
        }
      ],
      "name": "safeTransferFrom",
      "outputs": [],
      "stateMutability": "nonpayable",
      "type": "function"
    },
    {
      "inputs": [
        {
          "internalType": "address",
          "name": "operator",
          "type": "address"
        },
        {
          "internalType": "bool",
          "name": "approved",
          "type": "bool"
        }
      ],
      "name": "setApprovalForAll",
      "outputs": [],
      "stateMutability": "nonpayable",
      "type": "function"
    },
    {
      "inputs": [
        {
          "internalType": "address payable",
          "name": "marketplaceAddress",
          "type": "address"
        }
      ],
      "name": "setMarketplace",
      "outputs": [],
      "stateMutability": "nonpayable",
      "type": "function"
    },
    {
      "inputs": [
        {
          "internalType": "bytes4",
          "name": "interfaceId",
          "type": "bytes4"
        }
      ],
      "name": "supportsInterface",
      "outputs": [
        {
          "internalType": "bool",
          "name": "",
          "type": "bool"
        }
      ],
      "stateMutability": "view",
      "type": "function"
    },
    {
      "inputs": [],
      "name": "symbol",
      "outputs": [
        {
          "internalType": "string",
          "name": "",
          "type": "string"
        }
      ],
      "stateMutability": "view",
      "type": "function"
    },
    {
      "inputs": [
        {
          "internalType": "uint256",
          "name": "tokenId",
          "type": "uint256"
        }
      ],
      "name": "tokenURI",
      "outputs": [
        {
          "internalType": "string",
          "name": "",
          "type": "string"
        }
      ],
      "stateMutability": "view",
      "type": "function"
    },
    {
      "inputs": [
        {
          "internalType": "address",
          "name": "from",
          "type": "address"
        },
        {
          "internalType": "address",
          "name": "to",
          "type": "address"
        },
        {
          "internalType": "uint256",
          "name": "tokenId",
          "type": "uint256"
        }
      ],
      "name": "transferFrom",
      "outputs": [],
      "stateMutability": "nonpayable",
      "type": "function"
    },
    {
      "inputs": [
        {
          "internalType": "address",
          "name": "newOwner",
          "type": "address"
        }
      ],
      "name": "transferOwnership",
      "outputs": [],
      "stateMutability": "nonpayable",
      "type": "function"
    }
  ],
  "bytecode": "0x60806040523480156200001157600080fd5b50604051620064f0380380620064f08339818101604052810190620000379190620006d8565b6040518060400160405280601181526020017f455243373231436f6c6c656374696f6e730000000000000000000000000000008152506040518060400160405280600381526020017f53545200000000000000000000000000000000000000000000000000000000008152508160009080519060200190620000bb929190620005b6565b508060019080519060200190620000d4929190620005b6565b505050620000f7620000eb6200012b60201b60201c565b6200013360201b60201c565b6200010c8142600080620001f960201b60201c565b506200012460086200059260201b6200275d1760201c565b5062000bb5565b600033905090565b6000600760009054906101000a900473ffffffffffffffffffffffffffffffffffffffff16905081600760006101000a81548173ffffffffffffffffffffffffffffffffffffffff021916908373ffffffffffffffffffffffffffffffffffffffff1602179055508173ffffffffffffffffffffffffffffffffffffffff168173ffffffffffffffffffffffffffffffffffffffff167f8be0079c531659141344cd1fd0a4f28419497f9722a3daafe3b4186f6b6457e060405160405180910390a35050565b60006103e7601060003373ffffffffffffffffffffffffffffffffffffffff1673ffffffffffffffffffffffffffffffffffffffff168152602001908152602001600020541062000281576040517f08c379a0000000000000000000000000000000000000000000000000000000008152600401620002789062000828565b60405180910390fd5b42603c601160003373ffffffffffffffffffffffffffffffffffffffff1673ffffffffffffffffffffffffffffffffffffffff16815260200190815260200160002054620002d09190620008f9565b111562000314576040517f08c379a00000000000000000000000000000000000000000000000000000000081526004016200030b90620007e4565b60405180910390fd5b60648211156200035b576040517f08c379a0000000000000000000000000000000000000000000000000000000008152600401620003529062000806565b60405180910390fd5b6200037260096200059260201b6200275d1760201c565b6040518060c001604052808681526020016200039a6009620005a860201b620027731760201c565b81526020013373ffffffffffffffffffffffffffffffffffffffff16815260200185815260200184815260200183815250600d6000620003e66009620005a860201b620027731760201c565b8152602001908152602001600020600082015181600001908051906020019062000412929190620005b6565b506020820151816001015560408201518160020160006101000a81548173ffffffffffffffffffffffffffffffffffffffff021916908373ffffffffffffffffffffffffffffffffffffffff160217905550606082015181600301556080820151816004015560a08201518160050155905050601060003373ffffffffffffffffffffffffffffffffffffffff1673ffffffffffffffffffffffffffffffffffffffff1681526020019081526020016000206000815480929190620004d79062000a02565b919050555042601160003373ffffffffffffffffffffffffffffffffffffffff1673ffffffffffffffffffffffffffffffffffffffff168152602001908152602001600020819055507f62b7b5ba11bfc95430fab0460fdf99b9c8fbc2b3a6a48caf79c3ee1b591c0336620005586009620005a860201b620027731760201c565b86604051620005699291906200084a565b60405180910390a1620005886009620005a860201b620027731760201c565b9050949350505050565b6001816000016000828254019250508190555050565b600081600001549050919050565b828054620005c49062000996565b90600052602060002090601f016020900481019282620005e8576000855562000634565b82601f106200060357805160ff191683800117855562000634565b8280016001018555821562000634579182015b828111156200063357825182559160200191906001019062000616565b5b50905062000643919062000647565b5090565b5b808211156200066257600081600090555060010162000648565b5090565b60006200067d6200067784620008a7565b6200087e565b9050828152602081018484840111156200069657600080fd5b620006a384828562000960565b509392505050565b600082601f830112620006bd57600080fd5b8151620006cf84826020860162000666565b91505092915050565b600060208284031215620006eb57600080fd5b600082015167ffffffffffffffff8111156200070657600080fd5b6200071484828501620006ab565b91505092915050565b60006200072a82620008dd565b620007368185620008e8565b93506200074881856020860162000960565b620007538162000add565b840191505092915050565b60006200076d602c83620008e8565b91506200077a8262000aee565b604082019050919050565b600062000794602c83620008e8565b9150620007a18262000b3d565b604082019050919050565b6000620007bb601783620008e8565b9150620007c88262000b8c565b602082019050919050565b620007de8162000956565b82525050565b60006020820190508181036000830152620007ff816200075e565b9050919050565b60006020820190508181036000830152620008218162000785565b9050919050565b600060208201905081810360008301526200084381620007ac565b9050919050565b6000604082019050620008616000830185620007d3565b81810360208301526200087581846200071d565b90509392505050565b60006200088a6200089d565b9050620008988282620009cc565b919050565b6000604051905090565b600067ffffffffffffffff821115620008c557620008c462000aae565b5b620008d08262000add565b9050602081019050919050565b600081519050919050565b600082825260208201905092915050565b6000620009068262000956565b9150620009138362000956565b9250827fffffffffffffffffffffffffffffffffffffffffffffffffffffffffffffffff038211156200094b576200094a62000a50565b5b828201905092915050565b6000819050919050565b60005b838110156200098057808201518184015260208101905062000963565b8381111562000990576000848401525b50505050565b60006002820490506001821680620009af57607f821691505b60208210811415620009c657620009c562000a7f565b5b50919050565b620009d78262000add565b810181811067ffffffffffffffff82111715620009f957620009f862000aae565b5b80604052505050565b600062000a0f8262000956565b91507fffffffffffffffffffffffffffffffffffffffffffffffffffffffffffffffff82141562000a455762000a4462000a50565b5b600182019050919050565b7f4e487b7100000000000000000000000000000000000000000000000000000000600052601160045260246000fd5b7f4e487b7100000000000000000000000000000000000000000000000000000000600052602260045260246000fd5b7f4e487b7100000000000000000000000000000000000000000000000000000000600052604160045260246000fd5b6000601f19601f8301169050919050565b7f4d7573742077616974206265666f7265206372656174696e6720616e6f74686560008201527f7220636f6c6c656374696f6e0000000000000000000000000000000000000000602082015250565b7f526f79616c746965732070657263656e746167652073686f756c64206265206c60008201527f657373207468616e203130300000000000000000000000000000000000000000602082015250565b7f4d617820636f6c6c656374696f6e732072656163686564000000000000000000600082015250565b61592b8062000bc56000396000f3fe6080604052600436106101cd5760003560e01c806382a17cdb116100f7578063b88d4fde11610095578063da0277fd11610064578063da0277fd146106ff578063e985e9c51461073c578063f2fde38b14610779578063f6828246146107a2576101cd565b8063b88d4fde1461061f578063bd6fbad914610648578063c87b56dd14610685578063d08b28ea146106c2576101cd565b806395d89b41116100d157806395d89b411461056f578063a22cb4651461059a578063ad9f20a6146105c3578063b082ddcf146105ee576101cd565b806382a17cdb146104ca57806382abfbd6146105075780638da5cb5b14610544576101cd565b806342842e0e1161016f57806370342d0c1161013e57806370342d0c1461042457806370a082311461044d578063715018a61461048a57806373ad6c2d146104a1576101cd565b806342842e0e1461034457806344ce938e1461036d5780635a1f3c28146103aa5780636352211e146103e7576101cd565b8063095ea7b3116101ab578063095ea7b31461027757806323b872dd146102a05780632a55205a146102c9578063394120c014610307576101cd565b806301ffc9a7146101d257806306fdde031461020f578063081812fc1461023a575b600080fd5b3480156101de57600080fd5b506101f960048036038101906101f49190613d69565b6107df565b6040516102069190614807565b60405180910390f35b34801561021b57600080fd5b50610224610840565b6040516102319190614822565b60405180910390f35b34801561024657600080fd5b50610261600480360381019061025c9190613e36565b6108d2565b60405161026e9190614733565b60405180910390f35b34801561028357600080fd5b5061029e60048036038101906102999190613d2d565b610918565b005b3480156102ac57600080fd5b506102c760048036038101906102c29190613c27565b610a30565b005b3480156102d557600080fd5b506102f060048036038101906102eb9190613f55565b610a90565b6040516102fe92919061479a565b60405180910390f35b34801561031357600080fd5b5061032e60048036038101906103299190613e36565b610b09565b60405161033b9190614733565b60405180910390f35b34801561035057600080fd5b5061036b60048036038101906103669190613c27565b610b49565b005b34801561037957600080fd5b50610394600480360381019061038f9190613dbb565b610b69565b6040516103a19190614c06565b60405180910390f35b3480156103b657600080fd5b506103d160048036038101906103cc9190613e36565b610eb0565b6040516103de9190614be4565b60405180910390f35b3480156103f357600080fd5b5061040e60048036038101906104099190613e36565b610fed565b60405161041b9190614733565b60405180910390f35b34801561043057600080fd5b5061044b60048036038101906104469190613f55565b611074565b005b34801561045957600080fd5b50610474600480360381019061046f9190613b99565b611214565b6040516104819190614c06565b60405180910390f35b34801561049657600080fd5b5061049f6112cc565b005b3480156104ad57600080fd5b506104c860048036038101906104c39190613bc2565b6112e0565b005b3480156104d657600080fd5b506104f160048036038101906104ec9190613b99565b61142d565b6040516104fe9190614c06565b60405180910390f35b34801561051357600080fd5b5061052e60048036038101906105299190613ec6565b611445565b60405161053b9190614c06565b60405180910390f35b34801561055057600080fd5b50610559611831565b6040516105669190614733565b60405180910390f35b34801561057b57600080fd5b5061058461185b565b6040516105919190614822565b60405180910390f35b3480156105a657600080fd5b506105c160048036038101906105bc9190613cf1565b6118ed565b005b3480156105cf57600080fd5b506105d8611903565b6040516105e59190614c06565b60405180910390f35b61060860048036038101906106039190613e5f565b61190e565b604051610616929190614c21565b60405180910390f35b34801561062b57600080fd5b5061064660048036038101906106419190613c76565b611c8b565b005b34801561065457600080fd5b5061066f600480360381019061066a9190613b99565b611ced565b60405161067c9190614c06565b60405180910390f35b34801561069157600080fd5b506106ac60048036038101906106a79190613e36565b611d05565b6040516106b99190614822565b60405180910390f35b3480156106ce57600080fd5b506106e960048036038101906106e49190613f91565b611e18565b6040516106f691906147e5565b60405180910390f35b34801561070b57600080fd5b5061072660048036038101906107219190613e36565b612079565b6040516107339190614be4565b60405180910390f35b34801561074857600080fd5b50610763600480360381019061075e9190613beb565b612226565b6040516107709190614807565b60405180910390f35b34801561078557600080fd5b506107a0600480360381019061079b9190613b99565b6122ba565b005b3480156107ae57600080fd5b506107c960048036038101906107c49190613f55565b61233e565b6040516107d691906147c3565b60405180910390f35b6000634906490660e01b7bffffffffffffffffffffffffffffffffffffffffffffffffffffffff1916827bffffffffffffffffffffffffffffffffffffffffffffffffffffffff19161480610839575061083882612781565b5b9050919050565b60606000805461084f90615004565b80601f016020809104026020016040519081016040528092919081815260200182805461087b90615004565b80156108c85780601f1061089d576101008083540402835291602001916108c8565b820191906000526020600020905b8154815290600101906020018083116108ab57829003601f168201915b5050505050905090565b60006108dd82612863565b6004600083815260200190815260200160002060009054906101000a900473ffffffffffffffffffffffffffffffffffffffff169050919050565b600061092382610fed565b90508073ffffffffffffffffffffffffffffffffffffffff168373ffffffffffffffffffffffffffffffffffffffff161415610994576040517f08c379a000000000000000000000000000000000000000000000000000000000815260040161098b90614b64565b60405180910390fd5b8073ffffffffffffffffffffffffffffffffffffffff166109b36128ae565b73ffffffffffffffffffffffffffffffffffffffff1614806109e257506109e1816109dc6128ae565b612226565b5b610a21576040517f08c379a0000000000000000000000000000000000000000000000000000000008152600401610a1890614b84565b60405180910390fd5b610a2b83836128b6565b505050565b610a41610a3b6128ae565b8261296f565b610a80576040517f08c379a0000000000000000000000000000000000000000000000000000000008152600401610a7790614844565b60405180910390fd5b610a8b838383612a04565b505050565b6000806000600b6000868152602001908152602001600020549050600060648286610abb9190614eae565b610ac59190614e7d565b9050600a600087815260200190815260200160002060009054906101000a900473ffffffffffffffffffffffffffffffffffffffff16819350935050509250929050565b6000600d600083815260200190815260200160002060020160009054906101000a900473ffffffffffffffffffffffffffffffffffffffff169050919050565b610b6483838360405180602001604052806000815250611c8b565b505050565b60006103e7601060003373ffffffffffffffffffffffffffffffffffffffff1673ffffffffffffffffffffffffffffffffffffffff1681526020019081526020016000205410610bee576040517f08c379a0000000000000000000000000000000000000000000000000000000008152600401610be590614a64565b60405180910390fd5b42603c601160003373ffffffffffffffffffffffffffffffffffffffff1673ffffffffffffffffffffffffffffffffffffffff16815260200190815260200160002054610c3b9190614e27565b1115610c7c576040517f08c379a0000000000000000000000000000000000000000000000000000000008152600401610c7390614884565b60405180910390fd5b6064821115610cc0576040517f08c379a0000000000000000000000000000000000000000000000000000000008152600401610cb790614984565b60405180910390fd5b610cca600961275d565b6040518060c00160405280868152602001610ce56009612773565b81526020013373ffffffffffffffffffffffffffffffffffffffff16815260200185815260200184815260200183815250600d6000610d246009612773565b81526020019081526020016000206000820151816000019080519060200190610d4e92919061395c565b506020820151816001015560408201518160020160006101000a81548173ffffffffffffffffffffffffffffffffffffffff021916908373ffffffffffffffffffffffffffffffffffffffff160217905550606082015181600301556080820151816004015560a08201518160050155905050601060003373ffffffffffffffffffffffffffffffffffffffff1673ffffffffffffffffffffffffffffffffffffffff1681526020019081526020016000206000815480929190610e1190615067565b919050555042601160003373ffffffffffffffffffffffffffffffffffffffff1673ffffffffffffffffffffffffffffffffffffffff168152602001908152602001600020819055507f62b7b5ba11bfc95430fab0460fdf99b9c8fbc2b3a6a48caf79c3ee1b591c0336610e856009612773565b86604051610e94929190614c4a565b60405180910390a1610ea66009612773565b9050949350505050565b610eb86139e2565b600d60008381526020019081526020016000206040518060c0016040529081600082018054610ee690615004565b80601f0160208091040260200160405190810160405280929190818152602001828054610f1290615004565b8015610f5f5780601f10610f3457610100808354040283529160200191610f5f565b820191906000526020600020905b815481529060010190602001808311610f4257829003601f168201915b50505050508152602001600182015481526020016002820160009054906101000a900473ffffffffffffffffffffffffffffffffffffffff1673ffffffffffffffffffffffffffffffffffffffff1673ffffffffffffffffffffffffffffffffffffffff16815260200160038201548152602001600482015481526020016005820154815250509050919050565b600080610ff983612cfe565b9050600073ffffffffffffffffffffffffffffffffffffffff168173ffffffffffffffffffffffffffffffffffffffff16141561106b576040517f08c379a000000000000000000000000000000000000000000000000000000000815260040161106290614b44565b60405180910390fd5b80915050919050565b6000600d60008481526020019081526020016000206001015414156110ce576040517f08c379a00000000000000000000000000000000000000000000000000000000081526004016110c590614964565b60405180910390fd5b600d600083815260200190815260200160002060020160009054906101000a900473ffffffffffffffffffffffffffffffffffffffff1673ffffffffffffffffffffffffffffffffffffffff163373ffffffffffffffffffffffffffffffffffffffff1614611172576040517f08c379a0000000000000000000000000000000000000000000000000000000008152600401611169906149a4565b60405180910390fd5b662386f26fc100008110156111bc576040517f08c379a00000000000000000000000000000000000000000000000000000000081526004016111b3906149c4565b60405180910390fd5b80600d6000848152602001908152602001600020600401819055507f2063f24eb8e50478aa99484fcf0f591be5a95d83129c7388c3da4bd776655e7a8282604051611208929190614c7a565b60405180910390a15050565b60008073ffffffffffffffffffffffffffffffffffffffff168273ffffffffffffffffffffffffffffffffffffffff161415611285576040517f08c379a000000000000000000000000000000000000000000000000000000000815260040161127c90614a84565b60405180910390fd5b600360008373ffffffffffffffffffffffffffffffffffffffff1673ffffffffffffffffffffffffffffffffffffffff168152602001908152602001600020549050919050565b6112d4612d3b565b6112de6000612db9565b565b6112e8612d3b565b600073ffffffffffffffffffffffffffffffffffffffff16600c60009054906101000a900473ffffffffffffffffffffffffffffffffffffffff1673ffffffffffffffffffffffffffffffffffffffff1614611379576040517f08c379a000000000000000000000000000000000000000000000000000000000815260040161137090614b24565b60405180910390fd5b600073ffffffffffffffffffffffffffffffffffffffff168173ffffffffffffffffffffffffffffffffffffffff1614156113e9576040517f08c379a00000000000000000000000000000000000000000000000000000000081526004016113e090614864565b60405180910390fd5b80600c60006101000a81548173ffffffffffffffffffffffffffffffffffffffff021916908373ffffffffffffffffffffffffffffffffffffffff16021790555050565b60116020528060005260406000206000915090505481565b6000811561149857662386f26fc10000841015611497576040517f08c379a000000000000000000000000000000000000000000000000000000000815260040161148e906148e4565b60405180910390fd5b5b60648311156114dc576040517f08c379a00000000000000000000000000000000000000000000000000000000081526004016114d390614984565b60405180910390fd5b600186148061154c57503373ffffffffffffffffffffffffffffffffffffffff16600d600088815260200190815260200160002060020160009054906101000a900473ffffffffffffffffffffffffffffffffffffffff1673ffffffffffffffffffffffffffffffffffffffff16145b61158b576040517f08c379a0000000000000000000000000000000000000000000000000000000008152600401611582906149a4565b60405180910390fd5b600d6000878152602001908152602001600020600301544210156115e4576040517f08c379a00000000000000000000000000000000000000000000000000000000081526004016115db90614ba4565b60405180910390fd5b6000600d600088815260200190815260200160002060010154141561163e576040517f08c379a000000000000000000000000000000000000000000000000000000000815260040161163590614964565b60405180910390fd5b61166b600c60009054906101000a900473ffffffffffffffffffffffffffffffffffffffff1660016118ed565b60006116776008612773565b9050611683600861275d565b61168d3382612e7f565b611697818761309d565b86600f600083815260200190815260200160002081905550600e600088815260200190815260200160002081908060018154018082558091505060019003906000526020600020016000909190919091505533600a600083815260200190815260200160002060006101000a81548173ffffffffffffffffffffffffffffffffffffffff021916908373ffffffffffffffffffffffffffffffffffffffff16021790555083600b60008381526020019081526020016000208190555082156117eb57600c60009054906101000a900473ffffffffffffffffffffffffffffffffffffffff1673ffffffffffffffffffffffffffffffffffffffff166302998cf38287306040518463ffffffff1660e01b81526004016117b893929190614ca3565b600060405180830381600087803b1580156117d257600080fd5b505af11580156117e6573d6000803e3d6000fd5b505050505b7f5f7666687319b40936f33c188908d86aea154abd3f4127b4fa0a3f04f303c7da818860405161181c929190614c7a565b60405180910390a18091505095945050505050565b6000600760009054906101000a900473ffffffffffffffffffffffffffffffffffffffff16905090565b60606001805461186a90615004565b80601f016020809104026020016040519081016040528092919081815260200182805461189690615004565b80156118e35780601f106118b8576101008083540402835291602001916118e3565b820191906000526020600020905b8154815290600101906020018083116118c657829003601f168201915b5050505050905090565b6118ff6118f86128ae565b8383613148565b5050565b662386f26fc1000081565b600080600c60009054906101000a900473ffffffffffffffffffffffffffffffffffffffff1673ffffffffffffffffffffffffffffffffffffffff163373ffffffffffffffffffffffffffffffffffffffff16146119a1576040517f08c379a000000000000000000000000000000000000000000000000000000000815260040161199890614bc4565b60405180910390fd5b6000600d60008781526020019081526020016000206001015414156119fb576040517f08c379a00000000000000000000000000000000000000000000000000000000081526004016119f290614964565b60405180910390fd5b600d600086815260200190815260200160002060030154421015611a54576040517f08c379a0000000000000000000000000000000000000000000000000000000008152600401611a4b90614ba4565b60405180910390fd5b600d6000868152602001908152602001600020600401543414611aac576040517f08c379a0000000000000000000000000000000000000000000000000000000008152600401611aa3906148c4565b60405180910390fd5b611ad9600c60009054906101000a900473ffffffffffffffffffffffffffffffffffffffff1660016118ed565b6000611ae56008612773565b9050611af1600861275d565b611afb8582612e7f565b611b05818561309d565b85600f600083815260200190815260200160002081905550600e6000878152602001908152602001600020819080600181540180825580915050600190039060005260206000200160009091909190915055600d600087815260200190815260200160002060020160009054906101000a900473ffffffffffffffffffffffffffffffffffffffff16600a600083815260200190815260200160002060006101000a81548173ffffffffffffffffffffffffffffffffffffffff021916908373ffffffffffffffffffffffffffffffffffffffff160217905550600d600087815260200190815260200160002060050154600b6000838152602001908152602001600020819055507f5f7666687319b40936f33c188908d86aea154abd3f4127b4fa0a3f04f303c7da8187604051611c3e929190614c7a565b60405180910390a180600d600088815260200190815260200160002060020160009054906101000a900473ffffffffffffffffffffffffffffffffffffffff169250925050935093915050565b611c9c611c966128ae565b8361296f565b611cdb576040517f08c379a0000000000000000000000000000000000000000000000000000000008152600401611cd290614844565b60405180910390fd5b611ce7848484846132b5565b50505050565b60106020528060005260406000206000915090505481565b6060611d1082612863565b6000600660008481526020019081526020016000208054611d3090615004565b80601f0160208091040260200160405190810160405280929190818152602001828054611d5c90615004565b8015611da95780601f10611d7e57610100808354040283529160200191611da9565b820191906000526020600020905b815481529060010190602001808311611d8c57829003601f168201915b505050505090506000611dba613311565b9050600081511415611dd0578192505050611e13565b600082511115611e05578082604051602001611ded92919061470f565b60405160208183030381529060405292505050611e13565b611e0e84613328565b925050505b919050565b60606000600e6000868152602001908152602001600020805480602002602001604051908101604052809291908181526020018280548015611e7957602002820191906000526020600020905b815481526020019060010190808311611e65575b50505050509050600081511480611e91575080518410155b15611f0e57600067ffffffffffffffff811115611ed7577f4e487b7100000000000000000000000000000000000000000000000000000000600052604160045260246000fd5b604051908082528060200260200182016040528015611f055781602001602082028036833780820191505090505b50915050612072565b6064831115611f1c57606492505b60008385611f2a9190614e27565b90508151811115611f3a57815190505b60008582611f489190614f08565b67ffffffffffffffff811115611f87577f4e487b7100000000000000000000000000000000000000000000000000000000600052604160045260246000fd5b604051908082528060200260200182016040528015611fb55781602001602082028036833780820191505090505b50905060008690505b8281101561206a57838181518110611fff577f4e487b7100000000000000000000000000000000000000000000000000000000600052603260045260246000fd5b60200260200101518288836120149190614f08565b8151811061204b577f4e487b7100000000000000000000000000000000000000000000000000000000600052603260045260246000fd5b602002602001018181525050808061206290615067565b915050611fbe565b508093505050505b9392505050565b6120816139e2565b6000600f60008481526020019081526020016000205414156120d8576040517f08c379a00000000000000000000000000000000000000000000000000000000081526004016120cf90614a24565b60405180910390fd5b6000600f6000848152602001908152602001600020549050600d60008281526020019081526020016000206040518060c001604052908160008201805461211e90615004565b80601f016020809104026020016040519081016040528092919081815260200182805461214a90615004565b80156121975780601f1061216c57610100808354040283529160200191612197565b820191906000526020600020905b81548152906001019060200180831161217a57829003601f168201915b50505050508152602001600182015481526020016002820160009054906101000a900473ffffffffffffffffffffffffffffffffffffffff1673ffffffffffffffffffffffffffffffffffffffff1673ffffffffffffffffffffffffffffffffffffffff1681526020016003820154815260200160048201548152602001600582015481525050915050919050565b6000600560008473ffffffffffffffffffffffffffffffffffffffff1673ffffffffffffffffffffffffffffffffffffffff16815260200190815260200160002060008373ffffffffffffffffffffffffffffffffffffffff1673ffffffffffffffffffffffffffffffffffffffff16815260200190815260200160002060009054906101000a900460ff16905092915050565b6122c2612d3b565b600073ffffffffffffffffffffffffffffffffffffffff168173ffffffffffffffffffffffffffffffffffffffff161415612332576040517f08c379a000000000000000000000000000000000000000000000000000000000815260040161232990614904565b60405180910390fd5b61233b81612db9565b50565b6060600060018461234f9190614e27565b90506000600184836123619190614e27565b61236b9190614f08565b90506001821015801561238757506123836009612773565b8211155b6123c6576040517f08c379a00000000000000000000000000000000000000000000000000000000081526004016123bd90614b04565b60405180910390fd5b8181101580156123df57506123db6009612773565b8111155b61241e576040517f08c379a000000000000000000000000000000000000000000000000000000000815260040161241590614a44565b60405180910390fd5b60008467ffffffffffffffff811115612460577f4e487b7100000000000000000000000000000000000000000000000000000000600052604160045260246000fd5b60405190808252806020026020018201604052801561248e5781602001602082028036833780820191505090505b50905060008567ffffffffffffffff8111156124d3577f4e487b7100000000000000000000000000000000000000000000000000000000600052604160045260246000fd5b60405190808252806020026020018201604052801561250c57816020015b6124f96139e2565b8152602001906001900390816124f15790505b50905060005b8681101561257e5780856125269190614e27565b83828151811061255f577f4e487b7100000000000000000000000000000000000000000000000000000000600052603260045260246000fd5b602002602001018181525050808061257690615067565b915050612512565b5060005b8681101561274f57600d60008483815181106125c7577f4e487b7100000000000000000000000000000000000000000000000000000000600052603260045260246000fd5b602002602001015181526020019081526020016000206040518060c00160405290816000820180546125f890615004565b80601f016020809104026020016040519081016040528092919081815260200182805461262490615004565b80156126715780601f1061264657610100808354040283529160200191612671565b820191906000526020600020905b81548152906001019060200180831161265457829003601f168201915b50505050508152602001600182015481526020016002820160009054906101000a900473ffffffffffffffffffffffffffffffffffffffff1673ffffffffffffffffffffffffffffffffffffffff1673ffffffffffffffffffffffffffffffffffffffff1681526020016003820154815260200160048201548152602001600582015481525050828281518110612731577f4e487b7100000000000000000000000000000000000000000000000000000000600052603260045260246000fd5b6020026020010181905250808061274790615067565b915050612582565b508094505050505092915050565b6001816000016000828254019250508190555050565b600081600001549050919050565b60007f80ac58cd000000000000000000000000000000000000000000000000000000007bffffffffffffffffffffffffffffffffffffffffffffffffffffffff1916827bffffffffffffffffffffffffffffffffffffffffffffffffffffffff1916148061284c57507f5b5e139f000000000000000000000000000000000000000000000000000000007bffffffffffffffffffffffffffffffffffffffffffffffffffffffff1916827bffffffffffffffffffffffffffffffffffffffffffffffffffffffff1916145b8061285c575061285b82613390565b5b9050919050565b61286c816133fa565b6128ab576040517f08c379a00000000000000000000000000000000000000000000000000000000081526004016128a290614b44565b60405180910390fd5b50565b600033905090565b816004600083815260200190815260200160002060006101000a81548173ffffffffffffffffffffffffffffffffffffffff021916908373ffffffffffffffffffffffffffffffffffffffff160217905550808273ffffffffffffffffffffffffffffffffffffffff1661292983610fed565b73ffffffffffffffffffffffffffffffffffffffff167f8c5be1e5ebec7d5bd14f71427d1e84f3dd0314c0f7b2291e5b200ac8c7c3b92560405160405180910390a45050565b60008061297b83610fed565b90508073ffffffffffffffffffffffffffffffffffffffff168473ffffffffffffffffffffffffffffffffffffffff1614806129bd57506129bc8185612226565b5b806129fb57508373ffffffffffffffffffffffffffffffffffffffff166129e3846108d2565b73ffffffffffffffffffffffffffffffffffffffff16145b91505092915050565b8273ffffffffffffffffffffffffffffffffffffffff16612a2482610fed565b73ffffffffffffffffffffffffffffffffffffffff1614612a7a576040517f08c379a0000000000000000000000000000000000000000000000000000000008152600401612a7190614924565b60405180910390fd5b600073ffffffffffffffffffffffffffffffffffffffff168273ffffffffffffffffffffffffffffffffffffffff161415612aea576040517f08c379a0000000000000000000000000000000000000000000000000000000008152600401612ae1906149e4565b60405180910390fd5b612af7838383600161343b565b8273ffffffffffffffffffffffffffffffffffffffff16612b1782610fed565b73ffffffffffffffffffffffffffffffffffffffff1614612b6d576040517f08c379a0000000000000000000000000000000000000000000000000000000008152600401612b6490614924565b60405180910390fd5b6004600082815260200190815260200160002060006101000a81549073ffffffffffffffffffffffffffffffffffffffff02191690556001600360008573ffffffffffffffffffffffffffffffffffffffff1673ffffffffffffffffffffffffffffffffffffffff168152602001908152602001600020600082825403925050819055506001600360008473ffffffffffffffffffffffffffffffffffffffff1673ffffffffffffffffffffffffffffffffffffffff16815260200190815260200160002060008282540192505081905550816002600083815260200190815260200160002060006101000a81548173ffffffffffffffffffffffffffffffffffffffff021916908373ffffffffffffffffffffffffffffffffffffffff160217905550808273ffffffffffffffffffffffffffffffffffffffff168473ffffffffffffffffffffffffffffffffffffffff167fddf252ad1be2c89b69c2b068fc378daa952ba7f163c4a11628f55a4df523b3ef60405160405180910390a4612cf98383836001613441565b505050565b60006002600083815260200190815260200160002060009054906101000a900473ffffffffffffffffffffffffffffffffffffffff169050919050565b612d436128ae565b73ffffffffffffffffffffffffffffffffffffffff16612d61611831565b73ffffffffffffffffffffffffffffffffffffffff1614612db7576040517f08c379a0000000000000000000000000000000000000000000000000000000008152600401612dae90614ae4565b60405180910390fd5b565b6000600760009054906101000a900473ffffffffffffffffffffffffffffffffffffffff16905081600760006101000a81548173ffffffffffffffffffffffffffffffffffffffff021916908373ffffffffffffffffffffffffffffffffffffffff1602179055508173ffffffffffffffffffffffffffffffffffffffff168173ffffffffffffffffffffffffffffffffffffffff167f8be0079c531659141344cd1fd0a4f28419497f9722a3daafe3b4186f6b6457e060405160405180910390a35050565b600073ffffffffffffffffffffffffffffffffffffffff168273ffffffffffffffffffffffffffffffffffffffff161415612eef576040517f08c379a0000000000000000000000000000000000000000000000000000000008152600401612ee690614ac4565b60405180910390fd5b612ef8816133fa565b15612f38576040517f08c379a0000000000000000000000000000000000000000000000000000000008152600401612f2f90614944565b60405180910390fd5b612f4660008383600161343b565b612f4f816133fa565b15612f8f576040517f08c379a0000000000000000000000000000000000000000000000000000000008152600401612f8690614944565b60405180910390fd5b6001600360008473ffffffffffffffffffffffffffffffffffffffff1673ffffffffffffffffffffffffffffffffffffffff16815260200190815260200160002060008282540192505081905550816002600083815260200190815260200160002060006101000a81548173ffffffffffffffffffffffffffffffffffffffff021916908373ffffffffffffffffffffffffffffffffffffffff160217905550808273ffffffffffffffffffffffffffffffffffffffff16600073ffffffffffffffffffffffffffffffffffffffff167fddf252ad1be2c89b69c2b068fc378daa952ba7f163c4a11628f55a4df523b3ef60405160405180910390a4613099600083836001613441565b5050565b6130a6826133fa565b6130e5576040517f08c379a00000000000000000000000000000000000000000000000000000000081526004016130dc90614aa4565b60405180910390fd5b8060066000848152602001908152602001600020908051906020019061310c92919061395c565b507ff8e1a15aba9398e019f0b49df1a4fde98ee17ae345cb5f6b5e2c27f5033e8ce78260405161313c9190614c06565b60405180910390a15050565b8173ffffffffffffffffffffffffffffffffffffffff168373ffffffffffffffffffffffffffffffffffffffff1614156131b7576040517f08c379a00000000000000000000000000000000000000000000000000000000081526004016131ae90614a04565b60405180910390fd5b80600560008573ffffffffffffffffffffffffffffffffffffffff1673ffffffffffffffffffffffffffffffffffffffff16815260200190815260200160002060008473ffffffffffffffffffffffffffffffffffffffff1673ffffffffffffffffffffffffffffffffffffffff16815260200190815260200160002060006101000a81548160ff0219169083151502179055508173ffffffffffffffffffffffffffffffffffffffff168373ffffffffffffffffffffffffffffffffffffffff167f17307eab39ab6107e8899845ad3d59bd9653f200f220920489ca2b5937696c31836040516132a89190614807565b60405180910390a3505050565b6132c0848484612a04565b6132cc84848484613447565b61330b576040517f08c379a0000000000000000000000000000000000000000000000000000000008152600401613302906148a4565b60405180910390fd5b50505050565b606060405180602001604052806000815250905090565b606061333382612863565b600061333d613311565b9050600081511161335d5760405180602001604052806000815250613388565b80613367846135de565b60405160200161337892919061470f565b6040516020818303038152906040525b915050919050565b60007f01ffc9a7000000000000000000000000000000000000000000000000000000007bffffffffffffffffffffffffffffffffffffffffffffffffffffffff1916827bffffffffffffffffffffffffffffffffffffffffffffffffffffffff1916149050919050565b60008073ffffffffffffffffffffffffffffffffffffffff1661341c83612cfe565b73ffffffffffffffffffffffffffffffffffffffff1614159050919050565b50505050565b50505050565b60006134688473ffffffffffffffffffffffffffffffffffffffff16613702565b156135d1578373ffffffffffffffffffffffffffffffffffffffff1663150b7a026134916128ae565b8786866040518563ffffffff1660e01b81526004016134b3949392919061474e565b602060405180830381600087803b1580156134cd57600080fd5b505af19250505080156134fe57506040513d601f19601f820116820180604052508101906134fb9190613d92565b60015b613581573d806000811461352e576040519150601f19603f3d011682016040523d82523d6000602084013e613533565b606091505b50600081511415613579576040517f08c379a0000000000000000000000000000000000000000000000000000000008152600401613570906148a4565b60405180910390fd5b805181602001fd5b63150b7a0260e01b7bffffffffffffffffffffffffffffffffffffffffffffffffffffffff1916817bffffffffffffffffffffffffffffffffffffffffffffffffffffffff1916149150506135d6565b600190505b949350505050565b6060600060016135ed84613725565b01905060008167ffffffffffffffff811115613632577f4e487b7100000000000000000000000000000000000000000000000000000000600052604160045260246000fd5b6040519080825280601f01601f1916602001820160405280156136645781602001600182028036833780820191505090505b509050600082602001820190505b6001156136f7578080600190039150507f3031323334353637383961626364656600000000000000000000000000000000600a86061a8153600a85816136e1577f4e487b7100000000000000000000000000000000000000000000000000000000600052601260045260246000fd5b04945060008514156136f2576136f7565b613672565b819350505050919050565b6000808273ffffffffffffffffffffffffffffffffffffffff163b119050919050565b600080600090507a184f03e93ff9f4daa797ed6e38ed64bf6a1f01000000000000000083106137a9577a184f03e93ff9f4daa797ed6e38ed64bf6a1f010000000000000000838161379f577f4e487b7100000000000000000000000000000000000000000000000000000000600052601260045260246000fd5b0492506040810190505b6d04ee2d6d415b85acef8100000000831061380c576d04ee2d6d415b85acef81000000008381613802577f4e487b7100000000000000000000000000000000000000000000000000000000600052601260045260246000fd5b0492506020810190505b662386f26fc10000831061386157662386f26fc100008381613857577f4e487b7100000000000000000000000000000000000000000000000000000000600052601260045260246000fd5b0492506010810190505b6305f5e10083106138b0576305f5e10083816138a6577f4e487b7100000000000000000000000000000000000000000000000000000000600052601260045260246000fd5b0492506008810190505b61271083106138fb5761271083816138f1577f4e487b7100000000000000000000000000000000000000000000000000000000600052601260045260246000fd5b0492506004810190505b60648310613944576064838161393a577f4e487b7100000000000000000000000000000000000000000000000000000000600052601260045260246000fd5b0492506002810190505b600a8310613953576001810190505b80915050919050565b82805461396890615004565b90600052602060002090601f01602090048101928261398a57600085556139d1565b82601f106139a357805160ff19168380011785556139d1565b828001600101855582156139d1579182015b828111156139d05782518255916020019190600101906139b5565b5b5090506139de9190613a2e565b5090565b6040518060c001604052806060815260200160008152602001600073ffffffffffffffffffffffffffffffffffffffff1681526020016000815260200160008152602001600081525090565b5b80821115613a47576000816000905550600101613a2f565b5090565b6000613a5e613a5984614cff565b614cda565b905082815260208101848484011115613a7657600080fd5b613a81848285614fc2565b509392505050565b6000613a9c613a9784614d30565b614cda565b905082815260208101848484011115613ab457600080fd5b613abf848285614fc2565b509392505050565b600081359050613ad681615882565b92915050565b600081359050613aeb81615899565b92915050565b600081359050613b00816158b0565b92915050565b600081359050613b15816158c7565b92915050565b600081519050613b2a816158c7565b92915050565b600082601f830112613b4157600080fd5b8135613b51848260208601613a4b565b91505092915050565b600082601f830112613b6b57600080fd5b8135613b7b848260208601613a89565b91505092915050565b600081359050613b93816158de565b92915050565b600060208284031215613bab57600080fd5b6000613bb984828501613ac7565b91505092915050565b600060208284031215613bd457600080fd5b6000613be284828501613adc565b91505092915050565b60008060408385031215613bfe57600080fd5b6000613c0c85828601613ac7565b9250506020613c1d85828601613ac7565b9150509250929050565b600080600060608486031215613c3c57600080fd5b6000613c4a86828701613ac7565b9350506020613c5b86828701613ac7565b9250506040613c6c86828701613b84565b9150509250925092565b60008060008060808587031215613c8c57600080fd5b6000613c9a87828801613ac7565b9450506020613cab87828801613ac7565b9350506040613cbc87828801613b84565b925050606085013567ffffffffffffffff811115613cd957600080fd5b613ce587828801613b30565b91505092959194509250565b60008060408385031215613d0457600080fd5b6000613d1285828601613ac7565b9250506020613d2385828601613af1565b9150509250929050565b60008060408385031215613d4057600080fd5b6000613d4e85828601613ac7565b9250506020613d5f85828601613b84565b9150509250929050565b600060208284031215613d7b57600080fd5b6000613d8984828501613b06565b91505092915050565b600060208284031215613da457600080fd5b6000613db284828501613b1b565b91505092915050565b60008060008060808587031215613dd157600080fd5b600085013567ffffffffffffffff811115613deb57600080fd5b613df787828801613b5a565b9450506020613e0887828801613b84565b9350506040613e1987828801613b84565b9250506060613e2a87828801613b84565b91505092959194509250565b600060208284031215613e4857600080fd5b6000613e5684828501613b84565b91505092915050565b600080600060608486031215613e7457600080fd5b6000613e8286828701613b84565b9350506020613e9386828701613ac7565b925050604084013567ffffffffffffffff811115613eb057600080fd5b613ebc86828701613b5a565b9150509250925092565b600080600080600060a08688031215613ede57600080fd5b6000613eec88828901613b84565b955050602086013567ffffffffffffffff811115613f0957600080fd5b613f1588828901613b5a565b9450506040613f2688828901613b84565b9350506060613f3788828901613b84565b9250506080613f4888828901613af1565b9150509295509295909350565b60008060408385031215613f6857600080fd5b6000613f7685828601613b84565b9250506020613f8785828601613b84565b9150509250929050565b600080600060608486031215613fa657600080fd5b6000613fb486828701613b84565b9350506020613fc586828701613b84565b9250506040613fd686828701613b84565b9150509250925092565b6000613fec83836145df565b905092915050565b600061400083836146f1565b60208301905092915050565b61401581614f3c565b82525050565b61402481614f3c565b82525050565b600061403582614d81565b61403f8185614dc7565b93508360208202850161405185614d61565b8060005b8581101561408d578484038952815161406e8582613fe0565b945061407983614dad565b925060208a01995050600181019050614055565b50829750879550505050505092915050565b60006140aa82614d8c565b6140b48185614dd8565b93506140bf83614d71565b8060005b838110156140f05781516140d78882613ff4565b97506140e283614dba565b9250506001810190506140c3565b5085935050505092915050565b61410681614f60565b82525050565b600061411782614d97565b6141218185614de9565b9350614131818560208601614fd1565b61413a8161516c565b840191505092915050565b600061415082614da2565b61415a8185614dfa565b935061416a818560208601614fd1565b6141738161516c565b840191505092915050565b600061418982614da2565b6141938185614e0b565b93506141a3818560208601614fd1565b6141ac8161516c565b840191505092915050565b60006141c282614da2565b6141cc8185614e1c565b93506141dc818560208601614fd1565b80840191505092915050565b60006141f5602d83614e0b565b91506142008261517d565b604082019050919050565b6000614218600f83614e0b565b9150614223826151cc565b602082019050919050565b600061423b602c83614e0b565b9150614246826151f5565b604082019050919050565b600061425e603283614e0b565b915061426982615244565b604082019050919050565b6000614281602f83614e0b565b915061428c82615293565b604082019050919050565b60006142a4602083614e0b565b91506142af826152e2565b602082019050919050565b60006142c7602683614e0b565b91506142d28261530b565b604082019050919050565b60006142ea602583614e0b565b91506142f58261535a565b604082019050919050565b600061430d601c83614e0b565b9150614318826153a9565b602082019050919050565b6000614330601983614e0b565b915061433b826153d2565b602082019050919050565b6000614353602c83614e0b565b915061435e826153fb565b604082019050919050565b6000614376601f83614e0b565b91506143818261544a565b602082019050919050565b6000614399602983614e0b565b91506143a482615473565b604082019050919050565b60006143bc602483614e0b565b91506143c7826154c2565b604082019050919050565b60006143df601983614e0b565b91506143ea82615511565b602082019050919050565b6000614402602783614e0b565b915061440d8261553a565b604082019050919050565b6000614425600d83614e0b565b915061443082615589565b602082019050919050565b6000614448601783614e0b565b9150614453826155b2565b602082019050919050565b600061446b602983614e0b565b9150614476826155db565b604082019050919050565b600061448e602e83614e0b565b91506144998261562a565b604082019050919050565b60006144b1602083614e0b565b91506144bc82615679565b602082019050919050565b60006144d4602083614e0b565b91506144df826156a2565b602082019050919050565b60006144f7600e83614e0b565b9150614502826156cb565b602082019050919050565b600061451a602883614e0b565b9150614525826156f4565b604082019050919050565b600061453d601883614e0b565b915061454882615743565b602082019050919050565b6000614560602183614e0b565b915061456b8261576c565b604082019050919050565b6000614583603d83614e0b565b915061458e826157bb565b604082019050919050565b60006145a6602b83614e0b565b91506145b18261580a565b604082019050919050565b60006145c9601983614e0b565b91506145d482615859565b602082019050919050565b600060c08301600083015184820360008601526145fc8282614145565b915050602083015161461160208601826146f1565b506040830151614624604086018261400c565b50606083015161463760608601826146f1565b50608083015161464a60808601826146f1565b5060a083015161465d60a08601826146f1565b508091505092915050565b600060c08301600083015184820360008601526146858282614145565b915050602083015161469a60208601826146f1565b5060408301516146ad604086018261400c565b5060608301516146c060608601826146f1565b5060808301516146d360808601826146f1565b5060a08301516146e660a08601826146f1565b508091505092915050565b6146fa81614fb8565b82525050565b61470981614fb8565b82525050565b600061471b82856141b7565b915061472782846141b7565b91508190509392505050565b6000602082019050614748600083018461401b565b92915050565b6000608082019050614763600083018761401b565b614770602083018661401b565b61477d6040830185614700565b818103606083015261478f818461410c565b905095945050505050565b60006040820190506147af600083018561401b565b6147bc6020830184614700565b9392505050565b600060208201905081810360008301526147dd818461402a565b905092915050565b600060208201905081810360008301526147ff818461409f565b905092915050565b600060208201905061481c60008301846140fd565b92915050565b6000602082019050818103600083015261483c818461417e565b905092915050565b6000602082019050818103600083015261485d816141e8565b9050919050565b6000602082019050818103600083015261487d8161420b565b9050919050565b6000602082019050818103600083015261489d8161422e565b9050919050565b600060208201905081810360008301526148bd81614251565b9050919050565b600060208201905081810360008301526148dd81614274565b9050919050565b600060208201905081810360008301526148fd81614297565b9050919050565b6000602082019050818103600083015261491d816142ba565b9050919050565b6000602082019050818103600083015261493d816142dd565b9050919050565b6000602082019050818103600083015261495d81614300565b9050919050565b6000602082019050818103600083015261497d81614323565b9050919050565b6000602082019050818103600083015261499d81614346565b9050919050565b600060208201905081810360008301526149bd81614369565b9050919050565b600060208201905081810360008301526149dd8161438c565b9050919050565b600060208201905081810360008301526149fd816143af565b9050919050565b60006020820190508181036000830152614a1d816143d2565b9050919050565b60006020820190508181036000830152614a3d816143f5565b9050919050565b60006020820190508181036000830152614a5d81614418565b9050919050565b60006020820190508181036000830152614a7d8161443b565b9050919050565b60006020820190508181036000830152614a9d8161445e565b9050919050565b60006020820190508181036000830152614abd81614481565b9050919050565b60006020820190508181036000830152614add816144a4565b9050919050565b60006020820190508181036000830152614afd816144c7565b9050919050565b60006020820190508181036000830152614b1d816144ea565b9050919050565b60006020820190508181036000830152614b3d8161450d565b9050919050565b60006020820190508181036000830152614b5d81614530565b9050919050565b60006020820190508181036000830152614b7d81614553565b9050919050565b60006020820190508181036000830152614b9d81614576565b9050919050565b60006020820190508181036000830152614bbd81614599565b9050919050565b60006020820190508181036000830152614bdd816145bc565b9050919050565b60006020820190508181036000830152614bfe8184614668565b905092915050565b6000602082019050614c1b6000830184614700565b92915050565b6000604082019050614c366000830185614700565b614c43602083018461401b565b9392505050565b6000604082019050614c5f6000830185614700565b8181036020830152614c71818461417e565b90509392505050565b6000604082019050614c8f6000830185614700565b614c9c6020830184614700565b9392505050565b6000606082019050614cb86000830186614700565b614cc56020830185614700565b614cd2604083018461401b565b949350505050565b6000614ce4614cf5565b9050614cf08282615036565b919050565b6000604051905090565b600067ffffffffffffffff821115614d1a57614d1961513d565b5b614d238261516c565b9050602081019050919050565b600067ffffffffffffffff821115614d4b57614d4a61513d565b5b614d548261516c565b9050602081019050919050565b6000819050602082019050919050565b6000819050602082019050919050565b600081519050919050565b600081519050919050565b600081519050919050565b600081519050919050565b6000602082019050919050565b6000602082019050919050565b600082825260208201905092915050565b600082825260208201905092915050565b600082825260208201905092915050565b600082825260208201905092915050565b600082825260208201905092915050565b600081905092915050565b6000614e3282614fb8565b9150614e3d83614fb8565b9250827fffffffffffffffffffffffffffffffffffffffffffffffffffffffffffffffff03821115614e7257614e716150b0565b5b828201905092915050565b6000614e8882614fb8565b9150614e9383614fb8565b925082614ea357614ea26150df565b5b828204905092915050565b6000614eb982614fb8565b9150614ec483614fb8565b9250817fffffffffffffffffffffffffffffffffffffffffffffffffffffffffffffffff0483118215151615614efd57614efc6150b0565b5b828202905092915050565b6000614f1382614fb8565b9150614f1e83614fb8565b925082821015614f3157614f306150b0565b5b828203905092915050565b6000614f4782614f98565b9050919050565b6000614f5982614f98565b9050919050565b60008115159050919050565b60007fffffffff0000000000000000000000000000000000000000000000000000000082169050919050565b600073ffffffffffffffffffffffffffffffffffffffff82169050919050565b6000819050919050565b82818337600083830152505050565b60005b83811015614fef578082015181840152602081019050614fd4565b83811115614ffe576000848401525b50505050565b6000600282049050600182168061501c57607f821691505b602082108114156150305761502f61510e565b5b50919050565b61503f8261516c565b810181811067ffffffffffffffff8211171561505e5761505d61513d565b5b80604052505050565b600061507282614fb8565b91507fffffffffffffffffffffffffffffffffffffffffffffffffffffffffffffffff8214156150a5576150a46150b0565b5b600182019050919050565b7f4e487b7100000000000000000000000000000000000000000000000000000000600052601160045260246000fd5b7f4e487b7100000000000000000000000000000000000000000000000000000000600052601260045260246000fd5b7f4e487b7100000000000000000000000000000000000000000000000000000000600052602260045260246000fd5b7f4e487b7100000000000000000000000000000000000000000000000000000000600052604160045260246000fd5b6000601f19601f8301169050919050565b7f4552433732313a2063616c6c6572206973206e6f7420746f6b656e206f776e6560008201527f72206f7220617070726f76656400000000000000000000000000000000000000602082015250565b7f496e76616c696420616464726573730000000000000000000000000000000000600082015250565b7f4d7573742077616974206265666f7265206372656174696e6720616e6f74686560008201527f7220636f6c6c656374696f6e0000000000000000000000000000000000000000602082015250565b7f4552433732313a207472616e7366657220746f206e6f6e20455243373231526560008201527f63656976657220696d706c656d656e7465720000000000000000000000000000602082015250565b7f50726963652073686f756c6420626520657175616c20746f20636f6c6c65637460008201527f696f6e73206d696e742070726963650000000000000000000000000000000000602082015250565b7f5072696365206d757374206265206174206c65617374204d494e5f5052494345600082015250565b7f4f776e61626c653a206e6577206f776e657220697320746865207a65726f206160008201527f6464726573730000000000000000000000000000000000000000000000000000602082015250565b7f4552433732313a207472616e736665722066726f6d20696e636f72726563742060008201527f6f776e6572000000000000000000000000000000000000000000000000000000602082015250565b7f4552433732313a20746f6b656e20616c7265616479206d696e74656400000000600082015250565b7f436f6c6c656374696f6e20646f6573206e6f7420657869737400000000000000600082015250565b7f526f79616c746965732070657263656e746167652073686f756c64206265206c60008201527f657373207468616e203130300000000000000000000000000000000000000000602082015250565b7f4e6f7420746865206f776e6572206f662074686520636f6c6c656374696f6e00600082015250565b7f4e6577206d696e74207072696365206d757374206265206174206c656173742060008201527f4d494e5f50524943450000000000000000000000000000000000000000000000602082015250565b7f4552433732313a207472616e7366657220746f20746865207a65726f2061646460008201527f7265737300000000000000000000000000000000000000000000000000000000602082015250565b7f4552433732313a20617070726f766520746f2063616c6c657200000000000000600082015250565b7f546f6b656e20646f6573206e6f742062656c6f6e6720746f20616e7920636f6c60008201527f6c656374696f6e00000000000000000000000000000000000000000000000000602082015250565b7f496e76616c6964206c696d697400000000000000000000000000000000000000600082015250565b7f4d617820636f6c6c656374696f6e732072656163686564000000000000000000600082015250565b7f4552433732313a2061646472657373207a65726f206973206e6f74206120766160008201527f6c6964206f776e65720000000000000000000000000000000000000000000000602082015250565b7f45524337323155524953746f726167653a2055524920736574206f66206e6f6e60008201527f6578697374656e7420746f6b656e000000000000000000000000000000000000602082015250565b7f4552433732313a206d696e7420746f20746865207a65726f2061646472657373600082015250565b7f4f776e61626c653a2063616c6c6572206973206e6f7420746865206f776e6572600082015250565b7f496e76616c6964206f6666736574000000000000000000000000000000000000600082015250565b7f4d61726b6574706c61636520616464726573732068617320616c72656164792060008201527f6265656e20736574000000000000000000000000000000000000000000000000602082015250565b7f4552433732313a20696e76616c696420746f6b656e2049440000000000000000600082015250565b7f4552433732313a20617070726f76616c20746f2063757272656e74206f776e6560008201527f7200000000000000000000000000000000000000000000000000000000000000602082015250565b7f4552433732313a20617070726f76652063616c6c6572206973206e6f7420746f60008201527f6b656e206f776e6572206f7220617070726f76656420666f7220616c6c000000602082015250565b7f436f6c6c656374696f6e206973206e6f742079657420617661696c61626c652060008201527f666f72206d696e74696e67000000000000000000000000000000000000000000602082015250565b7f4f6e6c79206d61726b6574706c6163652063616e2063616c6c00000000000000600082015250565b61588b81614f3c565b811461589657600080fd5b50565b6158a281614f4e565b81146158ad57600080fd5b50565b6158b981614f60565b81146158c457600080fd5b50565b6158d081614f6c565b81146158db57600080fd5b50565b6158e781614fb8565b81146158f257600080fd5b5056fea2646970667358221220af9a4abc756117a1c330dcc74f510956712f4c21917351929e1536e11da8f33e64736f6c63430008010033",
  "linkReferences": {},
  "deployedLinkReferences": {}
}