{
  "_format": "hh-sol-artifact-1",
  "contractName": "ERC721Collections",
  "sourceName": "contracts/ERC721Collections.sol",
  "abi": [
    {
      "inputs": [
        {
          "internalType": "string",
          "name": "publicCollectionURI",
          "type": "string"
        }
      ],
      "stateMutability": "nonpayable",
      "type": "constructor"
    },
    {
      "anonymous": false,
      "inputs": [
        {
          "indexed": true,
          "internalType": "address",
          "name": "owner",
          "type": "address"
        },
        {
          "indexed": true,
          "internalType": "address",
          "name": "approved",
          "type": "address"
        },
        {
          "indexed": true,
          "internalType": "uint256",
          "name": "tokenId",
          "type": "uint256"
        }
      ],
      "name": "Approval",
      "type": "event"
    },
    {
      "anonymous": false,
      "inputs": [
        {
          "indexed": true,
          "internalType": "address",
          "name": "owner",
          "type": "address"
        },
        {
          "indexed": true,
          "internalType": "address",
          "name": "operator",
          "type": "address"
        },
        {
          "indexed": false,
          "internalType": "bool",
          "name": "approved",
          "type": "bool"
        }
      ],
      "name": "ApprovalForAll",
      "type": "event"
    },
    {
      "anonymous": false,
      "inputs": [
        {
          "indexed": false,
          "internalType": "uint256",
          "name": "_fromTokenId",
          "type": "uint256"
        },
        {
          "indexed": false,
          "internalType": "uint256",
          "name": "_toTokenId",
          "type": "uint256"
        }
      ],
      "name": "BatchMetadataUpdate",
      "type": "event"
    },
    {
      "anonymous": false,
      "inputs": [
        {
          "indexed": false,
          "internalType": "uint256",
          "name": "id",
          "type": "uint256"
        },
        {
          "indexed": false,
          "internalType": "string",
          "name": "uri",
          "type": "string"
        }
      ],
      "name": "CollectionCreated",
      "type": "event"
    },
    {
      "anonymous": false,
      "inputs": [
        {
          "indexed": false,
          "internalType": "uint256",
          "name": "_tokenId",
          "type": "uint256"
        }
      ],
      "name": "MetadataUpdate",
      "type": "event"
    },
    {
      "anonymous": false,
      "inputs": [
        {
          "indexed": false,
          "internalType": "uint256",
          "name": "collectionId",
          "type": "uint256"
        },
        {
          "indexed": false,
          "internalType": "uint256",
          "name": "newMintPrice",
          "type": "uint256"
        }
      ],
      "name": "MintPriceChanged",
      "type": "event"
    },
    {
      "anonymous": false,
      "inputs": [
        {
          "indexed": true,
          "internalType": "address",
          "name": "previousOwner",
          "type": "address"
        },
        {
          "indexed": true,
          "internalType": "address",
          "name": "newOwner",
          "type": "address"
        }
      ],
      "name": "OwnershipTransferred",
      "type": "event"
    },
    {
      "anonymous": false,
      "inputs": [
        {
          "indexed": false,
          "internalType": "uint256",
          "name": "tokenId",
          "type": "uint256"
        },
        {
          "indexed": false,
          "internalType": "uint256",
          "name": "price",
          "type": "uint256"
        }
      ],
      "name": "PriceSet",
      "type": "event"
    },
    {
      "anonymous": false,
      "inputs": [
        {
          "indexed": false,
          "internalType": "uint256",
          "name": "tokenId",
          "type": "uint256"
        },
        {
          "indexed": false,
          "internalType": "uint256",
          "name": "collectionId",
          "type": "uint256"
        }
      ],
      "name": "TokenMinted",
      "type": "event"
    },
    {
      "anonymous": false,
      "inputs": [
        {
          "indexed": true,
          "internalType": "address",
          "name": "from",
          "type": "address"
        },
        {
          "indexed": true,
          "internalType": "address",
          "name": "to",
          "type": "address"
        },
        {
          "indexed": true,
          "internalType": "uint256",
          "name": "tokenId",
          "type": "uint256"
        }
      ],
      "name": "Transfer",
      "type": "event"
    },
    {
      "inputs": [],
      "name": "MIN_PRICE",
      "outputs": [
        {
          "internalType": "uint256",
          "name": "",
          "type": "uint256"
        }
      ],
      "stateMutability": "view",
      "type": "function"
    },
    {
      "inputs": [
        {
          "internalType": "address",
          "name": "to",
          "type": "address"
        },
        {
          "internalType": "uint256",
          "name": "tokenId",
          "type": "uint256"
        }
      ],
      "name": "approve",
      "outputs": [],
      "stateMutability": "nonpayable",
      "type": "function"
    },
    {
      "inputs": [
        {
          "internalType": "address",
          "name": "owner",
          "type": "address"
        }
      ],
      "name": "balanceOf",
      "outputs": [
        {
          "internalType": "uint256",
          "name": "",
          "type": "uint256"
        }
      ],
      "stateMutability": "view",
      "type": "function"
    },
    {
      "inputs": [
        {
          "internalType": "uint256",
          "name": "collectionId",
          "type": "uint256"
        },
        {
          "internalType": "uint256",
          "name": "newMintPrice",
          "type": "uint256"
        }
      ],
      "name": "changeMintPrice",
      "outputs": [],
      "stateMutability": "nonpayable",
      "type": "function"
    },
    {
      "inputs": [
        {
          "internalType": "address",
          "name": "",
          "type": "address"
        }
      ],
      "name": "collectionsCreated",
      "outputs": [
        {
          "internalType": "uint256",
          "name": "",
          "type": "uint256"
        }
      ],
      "stateMutability": "view",
      "type": "function"
    },
    {
      "inputs": [
        {
          "internalType": "string",
          "name": "uri",
          "type": "string"
        },
        {
          "internalType": "uint256",
          "name": "mintDate",
          "type": "uint256"
        },
        {
          "internalType": "uint256",
          "name": "mintPrice",
          "type": "uint256"
        },
        {
          "internalType": "uint256",
          "name": "royaltyPercentage",
          "type": "uint256"
        }
      ],
      "name": "createCollection",
      "outputs": [
        {
          "internalType": "uint256",
          "name": "",
          "type": "uint256"
        }
      ],
      "stateMutability": "nonpayable",
      "type": "function"
    },
    {
      "inputs": [
        {
          "internalType": "uint256",
          "name": "tokenId",
          "type": "uint256"
        }
      ],
      "name": "getApproved",
      "outputs": [
        {
          "internalType": "address",
          "name": "",
          "type": "address"
        }
      ],
      "stateMutability": "view",
      "type": "function"
    },
    {
      "inputs": [
        {
          "internalType": "uint256",
          "name": "id",
          "type": "uint256"
        }
      ],
      "name": "getCollection",
      "outputs": [
        {
          "components": [
            {
              "internalType": "string",
              "name": "uri",
              "type": "string"
            },
            {
              "internalType": "uint256",
              "name": "id",
              "type": "uint256"
            },
            {
              "internalType": "address",
              "name": "owner",
              "type": "address"
            },
            {
              "internalType": "uint256",
              "name": "mintDate",
              "type": "uint256"
            },
            {
              "internalType": "uint256",
              "name": "mintPrice",
              "type": "uint256"
            },
            {
              "internalType": "uint256",
              "name": "royaltyPercentage",
              "type": "uint256"
            }
          ],
          "internalType": "struct ERC721Collections.Collection",
          "name": "",
          "type": "tuple"
        }
      ],
      "stateMutability": "view",
      "type": "function"
    },
    {
      "inputs": [
        {
          "internalType": "uint256",
          "name": "tokenId",
          "type": "uint256"
        }
      ],
      "name": "getCollectionOfToken",
      "outputs": [
        {
          "components": [
            {
              "internalType": "string",
              "name": "uri",
              "type": "string"
            },
            {
              "internalType": "uint256",
              "name": "id",
              "type": "uint256"
            },
            {
              "internalType": "address",
              "name": "owner",
              "type": "address"
            },
            {
              "internalType": "uint256",
              "name": "mintDate",
              "type": "uint256"
            },
            {
              "internalType": "uint256",
              "name": "mintPrice",
              "type": "uint256"
            },
            {
              "internalType": "uint256",
              "name": "royaltyPercentage",
              "type": "uint256"
            }
          ],
          "internalType": "struct ERC721Collections.Collection",
          "name": "",
          "type": "tuple"
        }
      ],
      "stateMutability": "view",
      "type": "function"
    },
    {
      "inputs": [
        {
          "internalType": "uint256",
          "name": "collectionId",
          "type": "uint256"
        }
      ],
      "name": "getCollectionOwner",
      "outputs": [
        {
          "internalType": "address",
          "name": "",
          "type": "address"
        }
      ],
      "stateMutability": "view",
      "type": "function"
    },
    {
      "inputs": [
        {
          "internalType": "uint256",
          "name": "collectionId",
          "type": "uint256"
        },
        {
          "internalType": "uint256",
          "name": "startIndex",
          "type": "uint256"
        },
        {
          "internalType": "uint256",
          "name": "pageSize",
          "type": "uint256"
        }
      ],
      "name": "getNFTsInCollection",
      "outputs": [
        {
          "internalType": "uint256[]",
          "name": "",
          "type": "uint256[]"
        }
      ],
      "stateMutability": "view",
      "type": "function"
    },
    {
      "inputs": [
        {
          "internalType": "address",
          "name": "owner",
          "type": "address"
        },
        {
          "internalType": "address",
          "name": "operator",
          "type": "address"
        }
      ],
      "name": "isApprovedForAll",
      "outputs": [
        {
          "internalType": "bool",
          "name": "",
          "type": "bool"
        }
      ],
      "stateMutability": "view",
      "type": "function"
    },
    {
      "inputs": [
        {
          "internalType": "address",
          "name": "",
          "type": "address"
        }
      ],
      "name": "lastCollectionTimestamp",
      "outputs": [
        {
          "internalType": "uint256",
          "name": "",
          "type": "uint256"
        }
      ],
      "stateMutability": "view",
      "type": "function"
    },
    {
      "inputs": [
        {
          "internalType": "uint256",
          "name": "collectionId",
          "type": "uint256"
        },
        {
          "internalType": "string",
          "name": "tokenURI",
          "type": "string"
        },
        {
          "internalType": "uint256",
          "name": "price",
          "type": "uint256"
        },
        {
          "internalType": "uint256",
          "name": "royaltyPercentage",
          "type": "uint256"
        },
        {
          "internalType": "bool",
          "name": "isMintToMarketplace",
          "type": "bool"
        }
      ],
      "name": "mint",
      "outputs": [
        {
          "internalType": "uint256",
          "name": "",
          "type": "uint256"
        }
      ],
      "stateMutability": "nonpayable",
      "type": "function"
    },
    {
      "inputs": [
        {
          "internalType": "uint256",
          "name": "collectionId",
          "type": "uint256"
        },
        {
          "internalType": "address",
          "name": "to",
          "type": "address"
        },
        {
          "internalType": "string",
          "name": "tokenURI",
          "type": "string"
        },
        {
          "internalType": "uint256",
          "name": "price",
          "type": "uint256"
        }
      ],
      "name": "mintToCollection",
      "outputs": [
        {
          "internalType": "uint256",
          "name": "tokenId",
          "type": "uint256"
        },
        {
          "internalType": "address",
          "name": "collectionOwner",
          "type": "address"
        }
      ],
      "stateMutability": "nonpayable",
      "type": "function"
    },
    {
      "inputs": [],
      "name": "name",
      "outputs": [
        {
          "internalType": "string",
          "name": "",
          "type": "string"
        }
      ],
      "stateMutability": "view",
      "type": "function"
    },
    {
      "inputs": [],
      "name": "owner",
      "outputs": [
        {
          "internalType": "address",
          "name": "",
          "type": "address"
        }
      ],
      "stateMutability": "view",
      "type": "function"
    },
    {
      "inputs": [
        {
          "internalType": "uint256",
          "name": "tokenId",
          "type": "uint256"
        }
      ],
      "name": "ownerOf",
      "outputs": [
        {
          "internalType": "address",
          "name": "",
          "type": "address"
        }
      ],
      "stateMutability": "view",
      "type": "function"
    },
    {
      "inputs": [],
      "name": "renounceOwnership",
      "outputs": [],
      "stateMutability": "nonpayable",
      "type": "function"
    },
    {
      "inputs": [
        {
          "internalType": "uint256",
          "name": "_tokenId",
          "type": "uint256"
        },
        {
          "internalType": "uint256",
          "name": "_salePrice",
          "type": "uint256"
        }
      ],
      "name": "royaltyInfo",
      "outputs": [
        {
          "internalType": "address",
          "name": "receiver",
          "type": "address"
        },
        {
          "internalType": "uint256",
          "name": "royaltyAmount",
          "type": "uint256"
        }
      ],
      "stateMutability": "view",
      "type": "function"
    },
    {
      "inputs": [
        {
          "internalType": "address",
          "name": "from",
          "type": "address"
        },
        {
          "internalType": "address",
          "name": "to",
          "type": "address"
        },
        {
          "internalType": "uint256",
          "name": "tokenId",
          "type": "uint256"
        }
      ],
      "name": "safeTransferFrom",
      "outputs": [],
      "stateMutability": "nonpayable",
      "type": "function"
    },
    {
      "inputs": [
        {
          "internalType": "address",
          "name": "from",
          "type": "address"
        },
        {
          "internalType": "address",
          "name": "to",
          "type": "address"
        },
        {
          "internalType": "uint256",
          "name": "tokenId",
          "type": "uint256"
        },
        {
          "internalType": "bytes",
          "name": "data",
          "type": "bytes"
        }
      ],
      "name": "safeTransferFrom",
      "outputs": [],
      "stateMutability": "nonpayable",
      "type": "function"
    },
    {
      "inputs": [
        {
          "internalType": "address",
          "name": "operator",
          "type": "address"
        },
        {
          "internalType": "bool",
          "name": "approved",
          "type": "bool"
        }
      ],
      "name": "setApprovalForAll",
      "outputs": [],
      "stateMutability": "nonpayable",
      "type": "function"
    },
    {
      "inputs": [
        {
          "internalType": "address payable",
          "name": "marketplaceAddress",
          "type": "address"
        }
      ],
      "name": "setMarketplace",
      "outputs": [],
      "stateMutability": "nonpayable",
      "type": "function"
    },
    {
      "inputs": [
        {
          "internalType": "bytes4",
          "name": "interfaceId",
          "type": "bytes4"
        }
      ],
      "name": "supportsInterface",
      "outputs": [
        {
          "internalType": "bool",
          "name": "",
          "type": "bool"
        }
      ],
      "stateMutability": "view",
      "type": "function"
    },
    {
      "inputs": [],
      "name": "symbol",
      "outputs": [
        {
          "internalType": "string",
          "name": "",
          "type": "string"
        }
      ],
      "stateMutability": "view",
      "type": "function"
    },
    {
      "inputs": [
        {
          "internalType": "uint256",
          "name": "tokenId",
          "type": "uint256"
        }
      ],
      "name": "tokenURI",
      "outputs": [
        {
          "internalType": "string",
          "name": "",
          "type": "string"
        }
      ],
      "stateMutability": "view",
      "type": "function"
    },
    {
      "inputs": [
        {
          "internalType": "address",
          "name": "from",
          "type": "address"
        },
        {
          "internalType": "address",
          "name": "to",
          "type": "address"
        },
        {
          "internalType": "uint256",
          "name": "tokenId",
          "type": "uint256"
        }
      ],
      "name": "transferFrom",
      "outputs": [],
      "stateMutability": "nonpayable",
      "type": "function"
    },
    {
      "inputs": [
        {
          "internalType": "address",
          "name": "newOwner",
          "type": "address"
        }
      ],
      "name": "transferOwnership",
      "outputs": [],
      "stateMutability": "nonpayable",
      "type": "function"
    }
  ],
  "bytecode": "0x60806040523480156200001157600080fd5b5060405162005cfa38038062005cfa8339818101604052810190620000379190620006d8565b6040518060400160405280601181526020017f455243373231436f6c6c656374696f6e730000000000000000000000000000008152506040518060400160405280600381526020017f53545200000000000000000000000000000000000000000000000000000000008152508160009080519060200190620000bb929190620005b6565b508060019080519060200190620000d4929190620005b6565b505050620000f7620000eb6200012b60201b60201c565b6200013360201b60201c565b6200010c8142600080620001f960201b60201c565b506200012460086200059260201b620021981760201c565b5062000bb5565b600033905090565b6000600760009054906101000a900473ffffffffffffffffffffffffffffffffffffffff16905081600760006101000a81548173ffffffffffffffffffffffffffffffffffffffff021916908373ffffffffffffffffffffffffffffffffffffffff1602179055508173ffffffffffffffffffffffffffffffffffffffff168173ffffffffffffffffffffffffffffffffffffffff167f8be0079c531659141344cd1fd0a4f28419497f9722a3daafe3b4186f6b6457e060405160405180910390a35050565b60006103e7601060003373ffffffffffffffffffffffffffffffffffffffff1673ffffffffffffffffffffffffffffffffffffffff168152602001908152602001600020541062000281576040517f08c379a0000000000000000000000000000000000000000000000000000000008152600401620002789062000828565b60405180910390fd5b42603c601160003373ffffffffffffffffffffffffffffffffffffffff1673ffffffffffffffffffffffffffffffffffffffff16815260200190815260200160002054620002d09190620008f9565b111562000314576040517f08c379a00000000000000000000000000000000000000000000000000000000081526004016200030b90620007e4565b60405180910390fd5b60648211156200035b576040517f08c379a0000000000000000000000000000000000000000000000000000000008152600401620003529062000806565b60405180910390fd5b6200037260096200059260201b620021981760201c565b6040518060c001604052808681526020016200039a6009620005a860201b620021ae1760201c565b81526020013373ffffffffffffffffffffffffffffffffffffffff16815260200185815260200184815260200183815250600d6000620003e66009620005a860201b620021ae1760201c565b8152602001908152602001600020600082015181600001908051906020019062000412929190620005b6565b506020820151816001015560408201518160020160006101000a81548173ffffffffffffffffffffffffffffffffffffffff021916908373ffffffffffffffffffffffffffffffffffffffff160217905550606082015181600301556080820151816004015560a08201518160050155905050601060003373ffffffffffffffffffffffffffffffffffffffff1673ffffffffffffffffffffffffffffffffffffffff1681526020019081526020016000206000815480929190620004d79062000a02565b919050555042601160003373ffffffffffffffffffffffffffffffffffffffff1673ffffffffffffffffffffffffffffffffffffffff168152602001908152602001600020819055507f62b7b5ba11bfc95430fab0460fdf99b9c8fbc2b3a6a48caf79c3ee1b591c0336620005586009620005a860201b620021ae1760201c565b86604051620005699291906200084a565b60405180910390a1620005886009620005a860201b620021ae1760201c565b9050949350505050565b6001816000016000828254019250508190555050565b600081600001549050919050565b828054620005c49062000996565b90600052602060002090601f016020900481019282620005e8576000855562000634565b82601f106200060357805160ff191683800117855562000634565b8280016001018555821562000634579182015b828111156200063357825182559160200191906001019062000616565b5b50905062000643919062000647565b5090565b5b808211156200066257600081600090555060010162000648565b5090565b60006200067d6200067784620008a7565b6200087e565b9050828152602081018484840111156200069657600080fd5b620006a384828562000960565b509392505050565b600082601f830112620006bd57600080fd5b8151620006cf84826020860162000666565b91505092915050565b600060208284031215620006eb57600080fd5b600082015167ffffffffffffffff8111156200070657600080fd5b6200071484828501620006ab565b91505092915050565b60006200072a82620008dd565b620007368185620008e8565b93506200074881856020860162000960565b620007538162000add565b840191505092915050565b60006200076d602c83620008e8565b91506200077a8262000aee565b604082019050919050565b600062000794602c83620008e8565b9150620007a18262000b3d565b604082019050919050565b6000620007bb601783620008e8565b9150620007c88262000b8c565b602082019050919050565b620007de8162000956565b82525050565b60006020820190508181036000830152620007ff816200075e565b9050919050565b60006020820190508181036000830152620008218162000785565b9050919050565b600060208201905081810360008301526200084381620007ac565b9050919050565b6000604082019050620008616000830185620007d3565b81810360208301526200087581846200071d565b90509392505050565b60006200088a6200089d565b9050620008988282620009cc565b919050565b6000604051905090565b600067ffffffffffffffff821115620008c557620008c462000aae565b5b620008d08262000add565b9050602081019050919050565b600081519050919050565b600082825260208201905092915050565b6000620009068262000956565b9150620009138362000956565b9250827fffffffffffffffffffffffffffffffffffffffffffffffffffffffffffffffff038211156200094b576200094a62000a50565b5b828201905092915050565b6000819050919050565b60005b838110156200098057808201518184015260208101905062000963565b8381111562000990576000848401525b50505050565b60006002820490506001821680620009af57607f821691505b60208210811415620009c657620009c562000a7f565b5b50919050565b620009d78262000add565b810181811067ffffffffffffffff82111715620009f957620009f862000aae565b5b80604052505050565b600062000a0f8262000956565b91507fffffffffffffffffffffffffffffffffffffffffffffffffffffffffffffffff82141562000a455762000a4462000a50565b5b600182019050919050565b7f4e487b7100000000000000000000000000000000000000000000000000000000600052601160045260246000fd5b7f4e487b7100000000000000000000000000000000000000000000000000000000600052602260045260246000fd5b7f4e487b7100000000000000000000000000000000000000000000000000000000600052604160045260246000fd5b6000601f19601f8301169050919050565b7f4d7573742077616974206265666f7265206372656174696e6720616e6f74686560008201527f7220636f6c6c656374696f6e0000000000000000000000000000000000000000602082015250565b7f526f79616c746965732070657263656e746167652073686f756c64206265206c60008201527f657373207468616e203130300000000000000000000000000000000000000000602082015250565b7f4d617820636f6c6c656374696f6e732072656163686564000000000000000000600082015250565b6151358062000bc56000396000f3fe608060405234801561001057600080fd5b50600436106101cf5760003560e01c8063715018a611610104578063ad9f20a6116100a2578063d08b28ea11610071578063d08b28ea1461058c578063da0277fd146105bc578063e985e9c5146105ec578063f2fde38b1461061c576101cf565b8063ad9f20a6146104f2578063b88d4fde14610510578063bd6fbad91461052c578063c87b56dd1461055c576101cf565b806382abfbd6116100de57806382abfbd61461046a5780638da5cb5b1461049a57806395d89b41146104b8578063a22cb465146104d6576101cf565b8063715018a61461041457806373ad6c2d1461041e57806382a17cdb1461043a576101cf565b806342842e0e116101715780636313a3e81161014b5780636313a3e8146103675780636352211e1461039857806370342d0c146103c857806370a08231146103e4576101cf565b806342842e0e146102eb57806344ce938e146103075780635a1f3c2814610337576101cf565b8063095ea7b3116101ad578063095ea7b31461025257806323b872dd1461026e5780632a55205a1461028a578063394120c0146102bb576101cf565b806301ffc9a7146101d457806306fdde0314610204578063081812fc14610222575b600080fd5b6101ee60048036038101906101e991906137a4565b610638565b6040516101fb91906140dc565b60405180910390f35b61020c610699565b60405161021991906140f7565b60405180910390f35b61023c60048036038101906102379190613871565b61072b565b604051610249919061402a565b60405180910390f35b61026c60048036038101906102679190613768565b610771565b005b61028860048036038101906102839190613662565b610889565b005b6102a4600480360381019061029f91906139a4565b6108e9565b6040516102b2929190614091565b60405180910390f35b6102d560048036038101906102d09190613871565b610962565b6040516102e2919061402a565b60405180910390f35b61030560048036038101906103009190613662565b6109a2565b005b610321600480360381019061031c91906137f6565b6109c2565b60405161032e919061449b565b60405180910390f35b610351600480360381019061034c9190613871565b610d09565b60405161035e9190614479565b60405180910390f35b610381600480360381019061037c919061389a565b610e46565b60405161038f9291906144b6565b60405180910390f35b6103b260048036038101906103ad9190613871565b6111c4565b6040516103bf919061402a565b60405180910390f35b6103e260048036038101906103dd91906139a4565b61124b565b005b6103fe60048036038101906103f991906135d4565b6113eb565b60405161040b919061449b565b60405180910390f35b61041c6114a3565b005b610438600480360381019061043391906135fd565b6114b7565b005b610454600480360381019061044f91906135d4565b611604565b604051610461919061449b565b60405180910390f35b610484600480360381019061047f9190613915565b61161c565b604051610491919061449b565b60405180910390f35b6104a2611a08565b6040516104af919061402a565b60405180910390f35b6104c0611a32565b6040516104cd91906140f7565b60405180910390f35b6104f060048036038101906104eb919061372c565b611ac4565b005b6104fa611ada565b604051610507919061449b565b60405180910390f35b61052a600480360381019061052591906136b1565b611ae5565b005b610546600480360381019061054191906135d4565b611b47565b604051610553919061449b565b60405180910390f35b61057660048036038101906105719190613871565b611b5f565b60405161058391906140f7565b60405180910390f35b6105a660048036038101906105a191906139e0565b611c72565b6040516105b391906140ba565b60405180910390f35b6105d660048036038101906105d19190613871565b611ed3565b6040516105e39190614479565b60405180910390f35b61060660048036038101906106019190613626565b612080565b60405161061391906140dc565b60405180910390f35b610636600480360381019061063191906135d4565b612114565b005b6000634906490660e01b7bffffffffffffffffffffffffffffffffffffffffffffffffffffffff1916827bffffffffffffffffffffffffffffffffffffffffffffffffffffffff191614806106925750610691826121bc565b5b9050919050565b6060600080546106a890614860565b80601f01602080910402602001604051908101604052809291908181526020018280546106d490614860565b80156107215780601f106106f657610100808354040283529160200191610721565b820191906000526020600020905b81548152906001019060200180831161070457829003601f168201915b5050505050905090565b60006107368261229e565b6004600083815260200190815260200160002060009054906101000a900473ffffffffffffffffffffffffffffffffffffffff169050919050565b600061077c826111c4565b90508073ffffffffffffffffffffffffffffffffffffffff168373ffffffffffffffffffffffffffffffffffffffff1614156107ed576040517f08c379a00000000000000000000000000000000000000000000000000000000081526004016107e4906143f9565b60405180910390fd5b8073ffffffffffffffffffffffffffffffffffffffff1661080c6122e9565b73ffffffffffffffffffffffffffffffffffffffff16148061083b575061083a816108356122e9565b612080565b5b61087a576040517f08c379a000000000000000000000000000000000000000000000000000000000815260040161087190614419565b60405180910390fd5b61088483836122f1565b505050565b61089a6108946122e9565b826123aa565b6108d9576040517f08c379a00000000000000000000000000000000000000000000000000000000081526004016108d090614119565b60405180910390fd5b6108e483838361243f565b505050565b6000806000600b6000868152602001908152602001600020549050600060648286610914919061470a565b61091e91906146d9565b9050600a600087815260200190815260200160002060009054906101000a900473ffffffffffffffffffffffffffffffffffffffff16819350935050509250929050565b6000600d600083815260200190815260200160002060020160009054906101000a900473ffffffffffffffffffffffffffffffffffffffff169050919050565b6109bd83838360405180602001604052806000815250611ae5565b505050565b60006103e7601060003373ffffffffffffffffffffffffffffffffffffffff1673ffffffffffffffffffffffffffffffffffffffff1681526020019081526020016000205410610a47576040517f08c379a0000000000000000000000000000000000000000000000000000000008152600401610a3e90614319565b60405180910390fd5b42603c601160003373ffffffffffffffffffffffffffffffffffffffff1673ffffffffffffffffffffffffffffffffffffffff16815260200190815260200160002054610a949190614683565b1115610ad5576040517f08c379a0000000000000000000000000000000000000000000000000000000008152600401610acc90614159565b60405180910390fd5b6064821115610b19576040517f08c379a0000000000000000000000000000000000000000000000000000000008152600401610b1090614259565b60405180910390fd5b610b236009612198565b6040518060c00160405280868152602001610b3e60096121ae565b81526020013373ffffffffffffffffffffffffffffffffffffffff16815260200185815260200184815260200183815250600d6000610b7d60096121ae565b81526020019081526020016000206000820151816000019080519060200190610ba7929190613397565b506020820151816001015560408201518160020160006101000a81548173ffffffffffffffffffffffffffffffffffffffff021916908373ffffffffffffffffffffffffffffffffffffffff160217905550606082015181600301556080820151816004015560a08201518160050155905050601060003373ffffffffffffffffffffffffffffffffffffffff1673ffffffffffffffffffffffffffffffffffffffff1681526020019081526020016000206000815480929190610c6a906148c3565b919050555042601160003373ffffffffffffffffffffffffffffffffffffffff1673ffffffffffffffffffffffffffffffffffffffff168152602001908152602001600020819055507f62b7b5ba11bfc95430fab0460fdf99b9c8fbc2b3a6a48caf79c3ee1b591c0336610cde60096121ae565b86604051610ced9291906144df565b60405180910390a1610cff60096121ae565b9050949350505050565b610d1161341d565b600d60008381526020019081526020016000206040518060c0016040529081600082018054610d3f90614860565b80601f0160208091040260200160405190810160405280929190818152602001828054610d6b90614860565b8015610db85780601f10610d8d57610100808354040283529160200191610db8565b820191906000526020600020905b815481529060010190602001808311610d9b57829003601f168201915b50505050508152602001600182015481526020016002820160009054906101000a900473ffffffffffffffffffffffffffffffffffffffff1673ffffffffffffffffffffffffffffffffffffffff1673ffffffffffffffffffffffffffffffffffffffff16815260200160038201548152602001600482015481526020016005820154815250509050919050565b600080600c60009054906101000a900473ffffffffffffffffffffffffffffffffffffffff1673ffffffffffffffffffffffffffffffffffffffff163373ffffffffffffffffffffffffffffffffffffffff1614610ed9576040517f08c379a0000000000000000000000000000000000000000000000000000000008152600401610ed090614459565b60405180910390fd5b6000600d6000888152602001908152602001600020600101541415610f33576040517f08c379a0000000000000000000000000000000000000000000000000000000008152600401610f2a90614239565b60405180910390fd5b600d600087815260200190815260200160002060030154421015610f8c576040517f08c379a0000000000000000000000000000000000000000000000000000000008152600401610f8390614439565b60405180910390fd5b600d6000878152602001908152602001600020600401548314610fe4576040517f08c379a0000000000000000000000000000000000000000000000000000000008152600401610fdb90614199565b60405180910390fd5b611011600c60009054906101000a900473ffffffffffffffffffffffffffffffffffffffff166001611ac4565b600061101d60086121ae565b90506110296008612198565b6110338682612739565b61103d8186612957565b86600f600083815260200190815260200160002081905550600e6000888152602001908152602001600020819080600181540180825580915050600190039060005260206000200160009091909190915055600d600088815260200190815260200160002060020160009054906101000a900473ffffffffffffffffffffffffffffffffffffffff16600a600083815260200190815260200160002060006101000a81548173ffffffffffffffffffffffffffffffffffffffff021916908373ffffffffffffffffffffffffffffffffffffffff160217905550600d600088815260200190815260200160002060050154600b6000838152602001908152602001600020819055507f5f7666687319b40936f33c188908d86aea154abd3f4127b4fa0a3f04f303c7da818860405161117692919061450f565b60405180910390a180600d600089815260200190815260200160002060020160009054906101000a900473ffffffffffffffffffffffffffffffffffffffff16925092505094509492505050565b6000806111d083612a02565b9050600073ffffffffffffffffffffffffffffffffffffffff168173ffffffffffffffffffffffffffffffffffffffff161415611242576040517f08c379a0000000000000000000000000000000000000000000000000000000008152600401611239906143d9565b60405180910390fd5b80915050919050565b6000600d60008481526020019081526020016000206001015414156112a5576040517f08c379a000000000000000000000000000000000000000000000000000000000815260040161129c90614239565b60405180910390fd5b600d600083815260200190815260200160002060020160009054906101000a900473ffffffffffffffffffffffffffffffffffffffff1673ffffffffffffffffffffffffffffffffffffffff163373ffffffffffffffffffffffffffffffffffffffff1614611349576040517f08c379a000000000000000000000000000000000000000000000000000000000815260040161134090614279565b60405180910390fd5b662386f26fc10000811015611393576040517f08c379a000000000000000000000000000000000000000000000000000000000815260040161138a90614299565b60405180910390fd5b80600d6000848152602001908152602001600020600401819055507f2063f24eb8e50478aa99484fcf0f591be5a95d83129c7388c3da4bd776655e7a82826040516113df92919061450f565b60405180910390a15050565b60008073ffffffffffffffffffffffffffffffffffffffff168273ffffffffffffffffffffffffffffffffffffffff16141561145c576040517f08c379a000000000000000000000000000000000000000000000000000000000815260040161145390614339565b60405180910390fd5b600360008373ffffffffffffffffffffffffffffffffffffffff1673ffffffffffffffffffffffffffffffffffffffff168152602001908152602001600020549050919050565b6114ab612a3f565b6114b56000612abd565b565b6114bf612a3f565b600073ffffffffffffffffffffffffffffffffffffffff16600c60009054906101000a900473ffffffffffffffffffffffffffffffffffffffff1673ffffffffffffffffffffffffffffffffffffffff1614611550576040517f08c379a0000000000000000000000000000000000000000000000000000000008152600401611547906143b9565b60405180910390fd5b600073ffffffffffffffffffffffffffffffffffffffff168173ffffffffffffffffffffffffffffffffffffffff1614156115c0576040517f08c379a00000000000000000000000000000000000000000000000000000000081526004016115b790614139565b60405180910390fd5b80600c60006101000a81548173ffffffffffffffffffffffffffffffffffffffff021916908373ffffffffffffffffffffffffffffffffffffffff16021790555050565b60116020528060005260406000206000915090505481565b6000811561166f57662386f26fc1000084101561166e576040517f08c379a0000000000000000000000000000000000000000000000000000000008152600401611665906141b9565b60405180910390fd5b5b60648311156116b3576040517f08c379a00000000000000000000000000000000000000000000000000000000081526004016116aa90614259565b60405180910390fd5b600186148061172357503373ffffffffffffffffffffffffffffffffffffffff16600d600088815260200190815260200160002060020160009054906101000a900473ffffffffffffffffffffffffffffffffffffffff1673ffffffffffffffffffffffffffffffffffffffff16145b611762576040517f08c379a000000000000000000000000000000000000000000000000000000000815260040161175990614279565b60405180910390fd5b600d6000878152602001908152602001600020600301544210156117bb576040517f08c379a00000000000000000000000000000000000000000000000000000000081526004016117b290614439565b60405180910390fd5b6000600d6000888152602001908152602001600020600101541415611815576040517f08c379a000000000000000000000000000000000000000000000000000000000815260040161180c90614239565b60405180910390fd5b611842600c60009054906101000a900473ffffffffffffffffffffffffffffffffffffffff166001611ac4565b600061184e60086121ae565b905061185a6008612198565b6118643382612739565b61186e8187612957565b86600f600083815260200190815260200160002081905550600e600088815260200190815260200160002081908060018154018082558091505060019003906000526020600020016000909190919091505533600a600083815260200190815260200160002060006101000a81548173ffffffffffffffffffffffffffffffffffffffff021916908373ffffffffffffffffffffffffffffffffffffffff16021790555083600b60008381526020019081526020016000208190555082156119c257600c60009054906101000a900473ffffffffffffffffffffffffffffffffffffffff1673ffffffffffffffffffffffffffffffffffffffff166302998cf38287306040518463ffffffff1660e01b815260040161198f93929190614538565b600060405180830381600087803b1580156119a957600080fd5b505af11580156119bd573d6000803e3d6000fd5b505050505b7f5f7666687319b40936f33c188908d86aea154abd3f4127b4fa0a3f04f303c7da81886040516119f392919061450f565b60405180910390a18091505095945050505050565b6000600760009054906101000a900473ffffffffffffffffffffffffffffffffffffffff16905090565b606060018054611a4190614860565b80601f0160208091040260200160405190810160405280929190818152602001828054611a6d90614860565b8015611aba5780601f10611a8f57610100808354040283529160200191611aba565b820191906000526020600020905b815481529060010190602001808311611a9d57829003601f168201915b5050505050905090565b611ad6611acf6122e9565b8383612b83565b5050565b662386f26fc1000081565b611af6611af06122e9565b836123aa565b611b35576040517f08c379a0000000000000000000000000000000000000000000000000000000008152600401611b2c90614119565b60405180910390fd5b611b4184848484612cf0565b50505050565b60106020528060005260406000206000915090505481565b6060611b6a8261229e565b6000600660008481526020019081526020016000208054611b8a90614860565b80601f0160208091040260200160405190810160405280929190818152602001828054611bb690614860565b8015611c035780601f10611bd857610100808354040283529160200191611c03565b820191906000526020600020905b815481529060010190602001808311611be657829003601f168201915b505050505090506000611c14612d4c565b9050600081511415611c2a578192505050611c6d565b600082511115611c5f578082604051602001611c47929190614006565b60405160208183030381529060405292505050611c6d565b611c6884612d63565b925050505b919050565b60606000600e6000868152602001908152602001600020805480602002602001604051908101604052809291908181526020018280548015611cd357602002820191906000526020600020905b815481526020019060010190808311611cbf575b50505050509050600081511480611ceb575080518410155b15611d6857600067ffffffffffffffff811115611d31577f4e487b7100000000000000000000000000000000000000000000000000000000600052604160045260246000fd5b604051908082528060200260200182016040528015611d5f5781602001602082028036833780820191505090505b50915050611ecc565b6064831115611d7657606492505b60008385611d849190614683565b90508151811115611d9457815190505b60008582611da29190614764565b67ffffffffffffffff811115611de1577f4e487b7100000000000000000000000000000000000000000000000000000000600052604160045260246000fd5b604051908082528060200260200182016040528015611e0f5781602001602082028036833780820191505090505b50905060008690505b82811015611ec457838181518110611e59577f4e487b7100000000000000000000000000000000000000000000000000000000600052603260045260246000fd5b6020026020010151828883611e6e9190614764565b81518110611ea5577f4e487b7100000000000000000000000000000000000000000000000000000000600052603260045260246000fd5b6020026020010181815250508080611ebc906148c3565b915050611e18565b508093505050505b9392505050565b611edb61341d565b6000600f6000848152602001908152602001600020541415611f32576040517f08c379a0000000000000000000000000000000000000000000000000000000008152600401611f29906142f9565b60405180910390fd5b6000600f6000848152602001908152602001600020549050600d60008281526020019081526020016000206040518060c0016040529081600082018054611f7890614860565b80601f0160208091040260200160405190810160405280929190818152602001828054611fa490614860565b8015611ff15780601f10611fc657610100808354040283529160200191611ff1565b820191906000526020600020905b815481529060010190602001808311611fd457829003601f168201915b50505050508152602001600182015481526020016002820160009054906101000a900473ffffffffffffffffffffffffffffffffffffffff1673ffffffffffffffffffffffffffffffffffffffff1673ffffffffffffffffffffffffffffffffffffffff1681526020016003820154815260200160048201548152602001600582015481525050915050919050565b6000600560008473ffffffffffffffffffffffffffffffffffffffff1673ffffffffffffffffffffffffffffffffffffffff16815260200190815260200160002060008373ffffffffffffffffffffffffffffffffffffffff1673ffffffffffffffffffffffffffffffffffffffff16815260200190815260200160002060009054906101000a900460ff16905092915050565b61211c612a3f565b600073ffffffffffffffffffffffffffffffffffffffff168173ffffffffffffffffffffffffffffffffffffffff16141561218c576040517f08c379a0000000000000000000000000000000000000000000000000000000008152600401612183906141d9565b60405180910390fd5b61219581612abd565b50565b6001816000016000828254019250508190555050565b600081600001549050919050565b60007f80ac58cd000000000000000000000000000000000000000000000000000000007bffffffffffffffffffffffffffffffffffffffffffffffffffffffff1916827bffffffffffffffffffffffffffffffffffffffffffffffffffffffff1916148061228757507f5b5e139f000000000000000000000000000000000000000000000000000000007bffffffffffffffffffffffffffffffffffffffffffffffffffffffff1916827bffffffffffffffffffffffffffffffffffffffffffffffffffffffff1916145b80612297575061229682612dcb565b5b9050919050565b6122a781612e35565b6122e6576040517f08c379a00000000000000000000000000000000000000000000000000000000081526004016122dd906143d9565b60405180910390fd5b50565b600033905090565b816004600083815260200190815260200160002060006101000a81548173ffffffffffffffffffffffffffffffffffffffff021916908373ffffffffffffffffffffffffffffffffffffffff160217905550808273ffffffffffffffffffffffffffffffffffffffff16612364836111c4565b73ffffffffffffffffffffffffffffffffffffffff167f8c5be1e5ebec7d5bd14f71427d1e84f3dd0314c0f7b2291e5b200ac8c7c3b92560405160405180910390a45050565b6000806123b6836111c4565b90508073ffffffffffffffffffffffffffffffffffffffff168473ffffffffffffffffffffffffffffffffffffffff1614806123f857506123f78185612080565b5b8061243657508373ffffffffffffffffffffffffffffffffffffffff1661241e8461072b565b73ffffffffffffffffffffffffffffffffffffffff16145b91505092915050565b8273ffffffffffffffffffffffffffffffffffffffff1661245f826111c4565b73ffffffffffffffffffffffffffffffffffffffff16146124b5576040517f08c379a00000000000000000000000000000000000000000000000000000000081526004016124ac906141f9565b60405180910390fd5b600073ffffffffffffffffffffffffffffffffffffffff168273ffffffffffffffffffffffffffffffffffffffff161415612525576040517f08c379a000000000000000000000000000000000000000000000000000000000815260040161251c906142b9565b60405180910390fd5b6125328383836001612e76565b8273ffffffffffffffffffffffffffffffffffffffff16612552826111c4565b73ffffffffffffffffffffffffffffffffffffffff16146125a8576040517f08c379a000000000000000000000000000000000000000000000000000000000815260040161259f906141f9565b60405180910390fd5b6004600082815260200190815260200160002060006101000a81549073ffffffffffffffffffffffffffffffffffffffff02191690556001600360008573ffffffffffffffffffffffffffffffffffffffff1673ffffffffffffffffffffffffffffffffffffffff168152602001908152602001600020600082825403925050819055506001600360008473ffffffffffffffffffffffffffffffffffffffff1673ffffffffffffffffffffffffffffffffffffffff16815260200190815260200160002060008282540192505081905550816002600083815260200190815260200160002060006101000a81548173ffffffffffffffffffffffffffffffffffffffff021916908373ffffffffffffffffffffffffffffffffffffffff160217905550808273ffffffffffffffffffffffffffffffffffffffff168473ffffffffffffffffffffffffffffffffffffffff167fddf252ad1be2c89b69c2b068fc378daa952ba7f163c4a11628f55a4df523b3ef60405160405180910390a46127348383836001612e7c565b505050565b600073ffffffffffffffffffffffffffffffffffffffff168273ffffffffffffffffffffffffffffffffffffffff1614156127a9576040517f08c379a00000000000000000000000000000000000000000000000000000000081526004016127a090614379565b60405180910390fd5b6127b281612e35565b156127f2576040517f08c379a00000000000000000000000000000000000000000000000000000000081526004016127e990614219565b60405180910390fd5b612800600083836001612e76565b61280981612e35565b15612849576040517f08c379a000000000000000000000000000000000000000000000000000000000815260040161284090614219565b60405180910390fd5b6001600360008473ffffffffffffffffffffffffffffffffffffffff1673ffffffffffffffffffffffffffffffffffffffff16815260200190815260200160002060008282540192505081905550816002600083815260200190815260200160002060006101000a81548173ffffffffffffffffffffffffffffffffffffffff021916908373ffffffffffffffffffffffffffffffffffffffff160217905550808273ffffffffffffffffffffffffffffffffffffffff16600073ffffffffffffffffffffffffffffffffffffffff167fddf252ad1be2c89b69c2b068fc378daa952ba7f163c4a11628f55a4df523b3ef60405160405180910390a4612953600083836001612e7c565b5050565b61296082612e35565b61299f576040517f08c379a000000000000000000000000000000000000000000000000000000000815260040161299690614359565b60405180910390fd5b806006600084815260200190815260200160002090805190602001906129c6929190613397565b507ff8e1a15aba9398e019f0b49df1a4fde98ee17ae345cb5f6b5e2c27f5033e8ce7826040516129f6919061449b565b60405180910390a15050565b60006002600083815260200190815260200160002060009054906101000a900473ffffffffffffffffffffffffffffffffffffffff169050919050565b612a476122e9565b73ffffffffffffffffffffffffffffffffffffffff16612a65611a08565b73ffffffffffffffffffffffffffffffffffffffff1614612abb576040517f08c379a0000000000000000000000000000000000000000000000000000000008152600401612ab290614399565b60405180910390fd5b565b6000600760009054906101000a900473ffffffffffffffffffffffffffffffffffffffff16905081600760006101000a81548173ffffffffffffffffffffffffffffffffffffffff021916908373ffffffffffffffffffffffffffffffffffffffff1602179055508173ffffffffffffffffffffffffffffffffffffffff168173ffffffffffffffffffffffffffffffffffffffff167f8be0079c531659141344cd1fd0a4f28419497f9722a3daafe3b4186f6b6457e060405160405180910390a35050565b8173ffffffffffffffffffffffffffffffffffffffff168373ffffffffffffffffffffffffffffffffffffffff161415612bf2576040517f08c379a0000000000000000000000000000000000000000000000000000000008152600401612be9906142d9565b60405180910390fd5b80600560008573ffffffffffffffffffffffffffffffffffffffff1673ffffffffffffffffffffffffffffffffffffffff16815260200190815260200160002060008473ffffffffffffffffffffffffffffffffffffffff1673ffffffffffffffffffffffffffffffffffffffff16815260200190815260200160002060006101000a81548160ff0219169083151502179055508173ffffffffffffffffffffffffffffffffffffffff168373ffffffffffffffffffffffffffffffffffffffff167f17307eab39ab6107e8899845ad3d59bd9653f200f220920489ca2b5937696c3183604051612ce391906140dc565b60405180910390a3505050565b612cfb84848461243f565b612d0784848484612e82565b612d46576040517f08c379a0000000000000000000000000000000000000000000000000000000008152600401612d3d90614179565b60405180910390fd5b50505050565b606060405180602001604052806000815250905090565b6060612d6e8261229e565b6000612d78612d4c565b90506000815111612d985760405180602001604052806000815250612dc3565b80612da284613019565b604051602001612db3929190614006565b6040516020818303038152906040525b915050919050565b60007f01ffc9a7000000000000000000000000000000000000000000000000000000007bffffffffffffffffffffffffffffffffffffffffffffffffffffffff1916827bffffffffffffffffffffffffffffffffffffffffffffffffffffffff1916149050919050565b60008073ffffffffffffffffffffffffffffffffffffffff16612e5783612a02565b73ffffffffffffffffffffffffffffffffffffffff1614159050919050565b50505050565b50505050565b6000612ea38473ffffffffffffffffffffffffffffffffffffffff1661313d565b1561300c578373ffffffffffffffffffffffffffffffffffffffff1663150b7a02612ecc6122e9565b8786866040518563ffffffff1660e01b8152600401612eee9493929190614045565b602060405180830381600087803b158015612f0857600080fd5b505af1925050508015612f3957506040513d601f19601f82011682018060405250810190612f3691906137cd565b60015b612fbc573d8060008114612f69576040519150601f19603f3d011682016040523d82523d6000602084013e612f6e565b606091505b50600081511415612fb4576040517f08c379a0000000000000000000000000000000000000000000000000000000008152600401612fab90614179565b60405180910390fd5b805181602001fd5b63150b7a0260e01b7bffffffffffffffffffffffffffffffffffffffffffffffffffffffff1916817bffffffffffffffffffffffffffffffffffffffffffffffffffffffff191614915050613011565b600190505b949350505050565b60606000600161302884613160565b01905060008167ffffffffffffffff81111561306d577f4e487b7100000000000000000000000000000000000000000000000000000000600052604160045260246000fd5b6040519080825280601f01601f19166020018201604052801561309f5781602001600182028036833780820191505090505b509050600082602001820190505b600115613132578080600190039150507f3031323334353637383961626364656600000000000000000000000000000000600a86061a8153600a858161311c577f4e487b7100000000000000000000000000000000000000000000000000000000600052601260045260246000fd5b049450600085141561312d57613132565b6130ad565b819350505050919050565b6000808273ffffffffffffffffffffffffffffffffffffffff163b119050919050565b600080600090507a184f03e93ff9f4daa797ed6e38ed64bf6a1f01000000000000000083106131e4577a184f03e93ff9f4daa797ed6e38ed64bf6a1f01000000000000000083816131da577f4e487b7100000000000000000000000000000000000000000000000000000000600052601260045260246000fd5b0492506040810190505b6d04ee2d6d415b85acef81000000008310613247576d04ee2d6d415b85acef8100000000838161323d577f4e487b7100000000000000000000000000000000000000000000000000000000600052601260045260246000fd5b0492506020810190505b662386f26fc10000831061329c57662386f26fc100008381613292577f4e487b7100000000000000000000000000000000000000000000000000000000600052601260045260246000fd5b0492506010810190505b6305f5e10083106132eb576305f5e10083816132e1577f4e487b7100000000000000000000000000000000000000000000000000000000600052601260045260246000fd5b0492506008810190505b612710831061333657612710838161332c577f4e487b7100000000000000000000000000000000000000000000000000000000600052601260045260246000fd5b0492506004810190505b6064831061337f5760648381613375577f4e487b7100000000000000000000000000000000000000000000000000000000600052601260045260246000fd5b0492506002810190505b600a831061338e576001810190505b80915050919050565b8280546133a390614860565b90600052602060002090601f0160209004810192826133c5576000855561340c565b82601f106133de57805160ff191683800117855561340c565b8280016001018555821561340c579182015b8281111561340b5782518255916020019190600101906133f0565b5b5090506134199190613469565b5090565b6040518060c001604052806060815260200160008152602001600073ffffffffffffffffffffffffffffffffffffffff1681526020016000815260200160008152602001600081525090565b5b8082111561348257600081600090555060010161346a565b5090565b600061349961349484614594565b61456f565b9050828152602081018484840111156134b157600080fd5b6134bc84828561481e565b509392505050565b60006134d76134d2846145c5565b61456f565b9050828152602081018484840111156134ef57600080fd5b6134fa84828561481e565b509392505050565b6000813590506135118161508c565b92915050565b600081359050613526816150a3565b92915050565b60008135905061353b816150ba565b92915050565b600081359050613550816150d1565b92915050565b600081519050613565816150d1565b92915050565b600082601f83011261357c57600080fd5b813561358c848260208601613486565b91505092915050565b600082601f8301126135a657600080fd5b81356135b68482602086016134c4565b91505092915050565b6000813590506135ce816150e8565b92915050565b6000602082840312156135e657600080fd5b60006135f484828501613502565b91505092915050565b60006020828403121561360f57600080fd5b600061361d84828501613517565b91505092915050565b6000806040838503121561363957600080fd5b600061364785828601613502565b925050602061365885828601613502565b9150509250929050565b60008060006060848603121561367757600080fd5b600061368586828701613502565b935050602061369686828701613502565b92505060406136a7868287016135bf565b9150509250925092565b600080600080608085870312156136c757600080fd5b60006136d587828801613502565b94505060206136e687828801613502565b93505060406136f7878288016135bf565b925050606085013567ffffffffffffffff81111561371457600080fd5b6137208782880161356b565b91505092959194509250565b6000806040838503121561373f57600080fd5b600061374d85828601613502565b925050602061375e8582860161352c565b9150509250929050565b6000806040838503121561377b57600080fd5b600061378985828601613502565b925050602061379a858286016135bf565b9150509250929050565b6000602082840312156137b657600080fd5b60006137c484828501613541565b91505092915050565b6000602082840312156137df57600080fd5b60006137ed84828501613556565b91505092915050565b6000806000806080858703121561380c57600080fd5b600085013567ffffffffffffffff81111561382657600080fd5b61383287828801613595565b9450506020613843878288016135bf565b9350506040613854878288016135bf565b9250506060613865878288016135bf565b91505092959194509250565b60006020828403121561388357600080fd5b6000613891848285016135bf565b91505092915050565b600080600080608085870312156138b057600080fd5b60006138be878288016135bf565b94505060206138cf87828801613502565b935050604085013567ffffffffffffffff8111156138ec57600080fd5b6138f887828801613595565b9250506060613909878288016135bf565b91505092959194509250565b600080600080600060a0868803121561392d57600080fd5b600061393b888289016135bf565b955050602086013567ffffffffffffffff81111561395857600080fd5b61396488828901613595565b9450506040613975888289016135bf565b9350506060613986888289016135bf565b92505060806139978882890161352c565b9150509295509295909350565b600080604083850312156139b757600080fd5b60006139c5858286016135bf565b92505060206139d6858286016135bf565b9150509250929050565b6000806000606084860312156139f557600080fd5b6000613a03868287016135bf565b9350506020613a14868287016135bf565b9250506040613a25868287016135bf565b9150509250925092565b6000613a3b8383613fe8565b60208301905092915050565b613a5081614798565b82525050565b613a5f81614798565b82525050565b6000613a7082614606565b613a7a8185614634565b9350613a85836145f6565b8060005b83811015613ab6578151613a9d8882613a2f565b9750613aa883614627565b925050600181019050613a89565b5085935050505092915050565b613acc816147bc565b82525050565b6000613add82614611565b613ae78185614645565b9350613af781856020860161482d565b613b00816149c8565b840191505092915050565b6000613b168261461c565b613b208185614656565b9350613b3081856020860161482d565b613b39816149c8565b840191505092915050565b6000613b4f8261461c565b613b598185614667565b9350613b6981856020860161482d565b613b72816149c8565b840191505092915050565b6000613b888261461c565b613b928185614678565b9350613ba281856020860161482d565b80840191505092915050565b6000613bbb602d83614667565b9150613bc6826149d9565b604082019050919050565b6000613bde600f83614667565b9150613be982614a28565b602082019050919050565b6000613c01602c83614667565b9150613c0c82614a51565b604082019050919050565b6000613c24603283614667565b9150613c2f82614aa0565b604082019050919050565b6000613c47602f83614667565b9150613c5282614aef565b604082019050919050565b6000613c6a602083614667565b9150613c7582614b3e565b602082019050919050565b6000613c8d602683614667565b9150613c9882614b67565b604082019050919050565b6000613cb0602583614667565b9150613cbb82614bb6565b604082019050919050565b6000613cd3601c83614667565b9150613cde82614c05565b602082019050919050565b6000613cf6601983614667565b9150613d0182614c2e565b602082019050919050565b6000613d19602c83614667565b9150613d2482614c57565b604082019050919050565b6000613d3c601f83614667565b9150613d4782614ca6565b602082019050919050565b6000613d5f602983614667565b9150613d6a82614ccf565b604082019050919050565b6000613d82602483614667565b9150613d8d82614d1e565b604082019050919050565b6000613da5601983614667565b9150613db082614d6d565b602082019050919050565b6000613dc8602783614667565b9150613dd382614d96565b604082019050919050565b6000613deb601783614667565b9150613df682614de5565b602082019050919050565b6000613e0e602983614667565b9150613e1982614e0e565b604082019050919050565b6000613e31602e83614667565b9150613e3c82614e5d565b604082019050919050565b6000613e54602083614667565b9150613e5f82614eac565b602082019050919050565b6000613e77602083614667565b9150613e8282614ed5565b602082019050919050565b6000613e9a602883614667565b9150613ea582614efe565b604082019050919050565b6000613ebd601883614667565b9150613ec882614f4d565b602082019050919050565b6000613ee0602183614667565b9150613eeb82614f76565b604082019050919050565b6000613f03603d83614667565b9150613f0e82614fc5565b604082019050919050565b6000613f26602b83614667565b9150613f3182615014565b604082019050919050565b6000613f49601983614667565b9150613f5482615063565b602082019050919050565b600060c0830160008301518482036000860152613f7c8282613b0b565b9150506020830151613f916020860182613fe8565b506040830151613fa46040860182613a47565b506060830151613fb76060860182613fe8565b506080830151613fca6080860182613fe8565b5060a0830151613fdd60a0860182613fe8565b508091505092915050565b613ff181614814565b82525050565b61400081614814565b82525050565b60006140128285613b7d565b915061401e8284613b7d565b91508190509392505050565b600060208201905061403f6000830184613a56565b92915050565b600060808201905061405a6000830187613a56565b6140676020830186613a56565b6140746040830185613ff7565b81810360608301526140868184613ad2565b905095945050505050565b60006040820190506140a66000830185613a56565b6140b36020830184613ff7565b9392505050565b600060208201905081810360008301526140d48184613a65565b905092915050565b60006020820190506140f16000830184613ac3565b92915050565b600060208201905081810360008301526141118184613b44565b905092915050565b6000602082019050818103600083015261413281613bae565b9050919050565b6000602082019050818103600083015261415281613bd1565b9050919050565b6000602082019050818103600083015261417281613bf4565b9050919050565b6000602082019050818103600083015261419281613c17565b9050919050565b600060208201905081810360008301526141b281613c3a565b9050919050565b600060208201905081810360008301526141d281613c5d565b9050919050565b600060208201905081810360008301526141f281613c80565b9050919050565b6000602082019050818103600083015261421281613ca3565b9050919050565b6000602082019050818103600083015261423281613cc6565b9050919050565b6000602082019050818103600083015261425281613ce9565b9050919050565b6000602082019050818103600083015261427281613d0c565b9050919050565b6000602082019050818103600083015261429281613d2f565b9050919050565b600060208201905081810360008301526142b281613d52565b9050919050565b600060208201905081810360008301526142d281613d75565b9050919050565b600060208201905081810360008301526142f281613d98565b9050919050565b6000602082019050818103600083015261431281613dbb565b9050919050565b6000602082019050818103600083015261433281613dde565b9050919050565b6000602082019050818103600083015261435281613e01565b9050919050565b6000602082019050818103600083015261437281613e24565b9050919050565b6000602082019050818103600083015261439281613e47565b9050919050565b600060208201905081810360008301526143b281613e6a565b9050919050565b600060208201905081810360008301526143d281613e8d565b9050919050565b600060208201905081810360008301526143f281613eb0565b9050919050565b6000602082019050818103600083015261441281613ed3565b9050919050565b6000602082019050818103600083015261443281613ef6565b9050919050565b6000602082019050818103600083015261445281613f19565b9050919050565b6000602082019050818103600083015261447281613f3c565b9050919050565b600060208201905081810360008301526144938184613f5f565b905092915050565b60006020820190506144b06000830184613ff7565b92915050565b60006040820190506144cb6000830185613ff7565b6144d86020830184613a56565b9392505050565b60006040820190506144f46000830185613ff7565b81810360208301526145068184613b44565b90509392505050565b60006040820190506145246000830185613ff7565b6145316020830184613ff7565b9392505050565b600060608201905061454d6000830186613ff7565b61455a6020830185613ff7565b6145676040830184613a56565b949350505050565b600061457961458a565b90506145858282614892565b919050565b6000604051905090565b600067ffffffffffffffff8211156145af576145ae614999565b5b6145b8826149c8565b9050602081019050919050565b600067ffffffffffffffff8211156145e0576145df614999565b5b6145e9826149c8565b9050602081019050919050565b6000819050602082019050919050565b600081519050919050565b600081519050919050565b600081519050919050565b6000602082019050919050565b600082825260208201905092915050565b600082825260208201905092915050565b600082825260208201905092915050565b600082825260208201905092915050565b600081905092915050565b600061468e82614814565b915061469983614814565b9250827fffffffffffffffffffffffffffffffffffffffffffffffffffffffffffffffff038211156146ce576146cd61490c565b5b828201905092915050565b60006146e482614814565b91506146ef83614814565b9250826146ff576146fe61493b565b5b828204905092915050565b600061471582614814565b915061472083614814565b9250817fffffffffffffffffffffffffffffffffffffffffffffffffffffffffffffffff04831182151516156147595761475861490c565b5b828202905092915050565b600061476f82614814565b915061477a83614814565b92508282101561478d5761478c61490c565b5b828203905092915050565b60006147a3826147f4565b9050919050565b60006147b5826147f4565b9050919050565b60008115159050919050565b60007fffffffff0000000000000000000000000000000000000000000000000000000082169050919050565b600073ffffffffffffffffffffffffffffffffffffffff82169050919050565b6000819050919050565b82818337600083830152505050565b60005b8381101561484b578082015181840152602081019050614830565b8381111561485a576000848401525b50505050565b6000600282049050600182168061487857607f821691505b6020821081141561488c5761488b61496a565b5b50919050565b61489b826149c8565b810181811067ffffffffffffffff821117156148ba576148b9614999565b5b80604052505050565b60006148ce82614814565b91507fffffffffffffffffffffffffffffffffffffffffffffffffffffffffffffffff8214156149015761490061490c565b5b600182019050919050565b7f4e487b7100000000000000000000000000000000000000000000000000000000600052601160045260246000fd5b7f4e487b7100000000000000000000000000000000000000000000000000000000600052601260045260246000fd5b7f4e487b7100000000000000000000000000000000000000000000000000000000600052602260045260246000fd5b7f4e487b7100000000000000000000000000000000000000000000000000000000600052604160045260246000fd5b6000601f19601f8301169050919050565b7f4552433732313a2063616c6c6572206973206e6f7420746f6b656e206f776e6560008201527f72206f7220617070726f76656400000000000000000000000000000000000000602082015250565b7f496e76616c696420616464726573730000000000000000000000000000000000600082015250565b7f4d7573742077616974206265666f7265206372656174696e6720616e6f74686560008201527f7220636f6c6c656374696f6e0000000000000000000000000000000000000000602082015250565b7f4552433732313a207472616e7366657220746f206e6f6e20455243373231526560008201527f63656976657220696d706c656d656e7465720000000000000000000000000000602082015250565b7f50726963652073686f756c6420626520657175616c20746f20636f6c6c65637460008201527f696f6e73206d696e742070726963650000000000000000000000000000000000602082015250565b7f5072696365206d757374206265206174206c65617374204d494e5f5052494345600082015250565b7f4f776e61626c653a206e6577206f776e657220697320746865207a65726f206160008201527f6464726573730000000000000000000000000000000000000000000000000000602082015250565b7f4552433732313a207472616e736665722066726f6d20696e636f72726563742060008201527f6f776e6572000000000000000000000000000000000000000000000000000000602082015250565b7f4552433732313a20746f6b656e20616c7265616479206d696e74656400000000600082015250565b7f436f6c6c656374696f6e20646f6573206e6f7420657869737400000000000000600082015250565b7f526f79616c746965732070657263656e746167652073686f756c64206265206c60008201527f657373207468616e203130300000000000000000000000000000000000000000602082015250565b7f4e6f7420746865206f776e6572206f662074686520636f6c6c656374696f6e00600082015250565b7f4e6577206d696e74207072696365206d757374206265206174206c656173742060008201527f4d494e5f50524943450000000000000000000000000000000000000000000000602082015250565b7f4552433732313a207472616e7366657220746f20746865207a65726f2061646460008201527f7265737300000000000000000000000000000000000000000000000000000000602082015250565b7f4552433732313a20617070726f766520746f2063616c6c657200000000000000600082015250565b7f546f6b656e20646f6573206e6f742062656c6f6e6720746f20616e7920636f6c60008201527f6c656374696f6e00000000000000000000000000000000000000000000000000602082015250565b7f4d617820636f6c6c656374696f6e732072656163686564000000000000000000600082015250565b7f4552433732313a2061646472657373207a65726f206973206e6f74206120766160008201527f6c6964206f776e65720000000000000000000000000000000000000000000000602082015250565b7f45524337323155524953746f726167653a2055524920736574206f66206e6f6e60008201527f6578697374656e7420746f6b656e000000000000000000000000000000000000602082015250565b7f4552433732313a206d696e7420746f20746865207a65726f2061646472657373600082015250565b7f4f776e61626c653a2063616c6c6572206973206e6f7420746865206f776e6572600082015250565b7f4d61726b6574706c61636520616464726573732068617320616c72656164792060008201527f6265656e20736574000000000000000000000000000000000000000000000000602082015250565b7f4552433732313a20696e76616c696420746f6b656e2049440000000000000000600082015250565b7f4552433732313a20617070726f76616c20746f2063757272656e74206f776e6560008201527f7200000000000000000000000000000000000000000000000000000000000000602082015250565b7f4552433732313a20617070726f76652063616c6c6572206973206e6f7420746f60008201527f6b656e206f776e6572206f7220617070726f76656420666f7220616c6c000000602082015250565b7f436f6c6c656374696f6e206973206e6f742079657420617661696c61626c652060008201527f666f72206d696e74696e67000000000000000000000000000000000000000000602082015250565b7f4f6e6c79206d61726b6574706c6163652063616e2063616c6c00000000000000600082015250565b61509581614798565b81146150a057600080fd5b50565b6150ac816147aa565b81146150b757600080fd5b50565b6150c3816147bc565b81146150ce57600080fd5b50565b6150da816147c8565b81146150e557600080fd5b50565b6150f181614814565b81146150fc57600080fd5b5056fea2646970667358221220997c23aaaba04bdac7ba8aed67f1df0484e79ab745f19e0cb47203219762b34664736f6c63430008010033",
  "linkReferences": {},
  "deployedLinkReferences": {}
}