{
  "_format": "hh-sol-artifact-1",
  "contractName": "ERC721Collections",
  "sourceName": "contracts/ERC721Collections.sol",
  "abi": [
    {
      "inputs": [
        {
          "internalType": "string",
          "name": "publicCollectionURI",
          "type": "string"
        }
      ],
      "stateMutability": "nonpayable",
      "type": "constructor"
    },
    {
      "anonymous": false,
      "inputs": [
        {
          "indexed": true,
          "internalType": "address",
          "name": "owner",
          "type": "address"
        },
        {
          "indexed": true,
          "internalType": "address",
          "name": "approved",
          "type": "address"
        },
        {
          "indexed": true,
          "internalType": "uint256",
          "name": "tokenId",
          "type": "uint256"
        }
      ],
      "name": "Approval",
      "type": "event"
    },
    {
      "anonymous": false,
      "inputs": [
        {
          "indexed": true,
          "internalType": "address",
          "name": "owner",
          "type": "address"
        },
        {
          "indexed": true,
          "internalType": "address",
          "name": "operator",
          "type": "address"
        },
        {
          "indexed": false,
          "internalType": "bool",
          "name": "approved",
          "type": "bool"
        }
      ],
      "name": "ApprovalForAll",
      "type": "event"
    },
    {
      "anonymous": false,
      "inputs": [
        {
          "indexed": false,
          "internalType": "uint256",
          "name": "_fromTokenId",
          "type": "uint256"
        },
        {
          "indexed": false,
          "internalType": "uint256",
          "name": "_toTokenId",
          "type": "uint256"
        }
      ],
      "name": "BatchMetadataUpdate",
      "type": "event"
    },
    {
      "anonymous": false,
      "inputs": [
        {
          "indexed": false,
          "internalType": "uint256",
          "name": "id",
          "type": "uint256"
        },
        {
          "indexed": false,
          "internalType": "string",
          "name": "uri",
          "type": "string"
        }
      ],
      "name": "CollectionCreated",
      "type": "event"
    },
    {
      "anonymous": false,
      "inputs": [
        {
          "indexed": false,
          "internalType": "uint256",
          "name": "_tokenId",
          "type": "uint256"
        }
      ],
      "name": "MetadataUpdate",
      "type": "event"
    },
    {
      "anonymous": false,
      "inputs": [
        {
          "indexed": false,
          "internalType": "uint256",
          "name": "collectionId",
          "type": "uint256"
        },
        {
          "indexed": false,
          "internalType": "uint256",
          "name": "newMintPrice",
          "type": "uint256"
        }
      ],
      "name": "MintPriceChanged",
      "type": "event"
    },
    {
      "anonymous": false,
      "inputs": [
        {
          "indexed": true,
          "internalType": "address",
          "name": "previousOwner",
          "type": "address"
        },
        {
          "indexed": true,
          "internalType": "address",
          "name": "newOwner",
          "type": "address"
        }
      ],
      "name": "OwnershipTransferred",
      "type": "event"
    },
    {
      "anonymous": false,
      "inputs": [
        {
          "indexed": false,
          "internalType": "uint256",
          "name": "tokenId",
          "type": "uint256"
        },
        {
          "indexed": false,
          "internalType": "uint256",
          "name": "collectionId",
          "type": "uint256"
        }
      ],
      "name": "TokenMinted",
      "type": "event"
    },
    {
      "anonymous": false,
      "inputs": [
        {
          "indexed": true,
          "internalType": "address",
          "name": "from",
          "type": "address"
        },
        {
          "indexed": true,
          "internalType": "address",
          "name": "to",
          "type": "address"
        },
        {
          "indexed": true,
          "internalType": "uint256",
          "name": "tokenId",
          "type": "uint256"
        }
      ],
      "name": "Transfer",
      "type": "event"
    },
    {
      "inputs": [],
      "name": "MIN_PRICE",
      "outputs": [
        {
          "internalType": "uint256",
          "name": "",
          "type": "uint256"
        }
      ],
      "stateMutability": "view",
      "type": "function"
    },
    {
      "inputs": [
        {
          "internalType": "address",
          "name": "to",
          "type": "address"
        },
        {
          "internalType": "uint256",
          "name": "tokenId",
          "type": "uint256"
        }
      ],
      "name": "approve",
      "outputs": [],
      "stateMutability": "nonpayable",
      "type": "function"
    },
    {
      "inputs": [
        {
          "internalType": "address",
          "name": "owner",
          "type": "address"
        }
      ],
      "name": "balanceOf",
      "outputs": [
        {
          "internalType": "uint256",
          "name": "",
          "type": "uint256"
        }
      ],
      "stateMutability": "view",
      "type": "function"
    },
    {
      "inputs": [
        {
          "internalType": "uint256",
          "name": "collectionId",
          "type": "uint256"
        },
        {
          "internalType": "uint256",
          "name": "newMintPrice",
          "type": "uint256"
        }
      ],
      "name": "changeMintPrice",
      "outputs": [],
      "stateMutability": "nonpayable",
      "type": "function"
    },
    {
      "inputs": [
        {
          "internalType": "address",
          "name": "",
          "type": "address"
        }
      ],
      "name": "collectionsCreated",
      "outputs": [
        {
          "internalType": "uint256",
          "name": "",
          "type": "uint256"
        }
      ],
      "stateMutability": "view",
      "type": "function"
    },
    {
      "inputs": [
        {
          "internalType": "string",
          "name": "uri",
          "type": "string"
        },
        {
          "internalType": "uint256",
          "name": "mintDate",
          "type": "uint256"
        },
        {
          "internalType": "uint256",
          "name": "mintPrice",
          "type": "uint256"
        },
        {
          "internalType": "uint256",
          "name": "royaltyPercent",
          "type": "uint256"
        }
      ],
      "name": "createCollection",
      "outputs": [
        {
          "internalType": "uint256",
          "name": "",
          "type": "uint256"
        }
      ],
      "stateMutability": "nonpayable",
      "type": "function"
    },
    {
      "inputs": [
        {
          "internalType": "uint256",
          "name": "offset",
          "type": "uint256"
        },
        {
          "internalType": "uint256",
          "name": "limit",
          "type": "uint256"
        }
      ],
      "name": "getAllCollections",
      "outputs": [
        {
          "components": [
            {
              "internalType": "string",
              "name": "uri",
              "type": "string"
            },
            {
              "internalType": "uint256",
              "name": "id",
              "type": "uint256"
            },
            {
              "internalType": "address",
              "name": "owner",
              "type": "address"
            },
            {
              "internalType": "uint256",
              "name": "mintDate",
              "type": "uint256"
            },
            {
              "internalType": "uint256",
              "name": "mintPrice",
              "type": "uint256"
            },
            {
              "internalType": "uint256",
              "name": "royaltyPercent",
              "type": "uint256"
            }
          ],
          "internalType": "struct ERC721Collections.Collection[]",
          "name": "",
          "type": "tuple[]"
        }
      ],
      "stateMutability": "view",
      "type": "function"
    },
    {
      "inputs": [
        {
          "internalType": "uint256",
          "name": "tokenId",
          "type": "uint256"
        }
      ],
      "name": "getApproved",
      "outputs": [
        {
          "internalType": "address",
          "name": "",
          "type": "address"
        }
      ],
      "stateMutability": "view",
      "type": "function"
    },
    {
      "inputs": [
        {
          "internalType": "uint256",
          "name": "id",
          "type": "uint256"
        }
      ],
      "name": "getCollection",
      "outputs": [
        {
          "components": [
            {
              "internalType": "string",
              "name": "uri",
              "type": "string"
            },
            {
              "internalType": "uint256",
              "name": "id",
              "type": "uint256"
            },
            {
              "internalType": "address",
              "name": "owner",
              "type": "address"
            },
            {
              "internalType": "uint256",
              "name": "mintDate",
              "type": "uint256"
            },
            {
              "internalType": "uint256",
              "name": "mintPrice",
              "type": "uint256"
            },
            {
              "internalType": "uint256",
              "name": "royaltyPercent",
              "type": "uint256"
            }
          ],
          "internalType": "struct ERC721Collections.Collection",
          "name": "",
          "type": "tuple"
        }
      ],
      "stateMutability": "view",
      "type": "function"
    },
    {
      "inputs": [
        {
          "internalType": "uint256",
          "name": "tokenId",
          "type": "uint256"
        }
      ],
      "name": "getCollectionOfToken",
      "outputs": [
        {
          "components": [
            {
              "internalType": "string",
              "name": "uri",
              "type": "string"
            },
            {
              "internalType": "uint256",
              "name": "id",
              "type": "uint256"
            },
            {
              "internalType": "address",
              "name": "owner",
              "type": "address"
            },
            {
              "internalType": "uint256",
              "name": "mintDate",
              "type": "uint256"
            },
            {
              "internalType": "uint256",
              "name": "mintPrice",
              "type": "uint256"
            },
            {
              "internalType": "uint256",
              "name": "royaltyPercent",
              "type": "uint256"
            }
          ],
          "internalType": "struct ERC721Collections.Collection",
          "name": "",
          "type": "tuple"
        }
      ],
      "stateMutability": "view",
      "type": "function"
    },
    {
      "inputs": [
        {
          "internalType": "uint256",
          "name": "collectionId",
          "type": "uint256"
        }
      ],
      "name": "getCollectionOwner",
      "outputs": [
        {
          "internalType": "address",
          "name": "",
          "type": "address"
        }
      ],
      "stateMutability": "view",
      "type": "function"
    },
    {
      "inputs": [
        {
          "internalType": "address",
          "name": "owner",
          "type": "address"
        },
        {
          "internalType": "uint256",
          "name": "offset",
          "type": "uint256"
        },
        {
          "internalType": "uint256",
          "name": "limit",
          "type": "uint256"
        }
      ],
      "name": "getCollectionsForOwner",
      "outputs": [
        {
          "components": [
            {
              "internalType": "string",
              "name": "uri",
              "type": "string"
            },
            {
              "internalType": "uint256",
              "name": "id",
              "type": "uint256"
            },
            {
              "internalType": "address",
              "name": "owner",
              "type": "address"
            },
            {
              "internalType": "uint256",
              "name": "mintDate",
              "type": "uint256"
            },
            {
              "internalType": "uint256",
              "name": "mintPrice",
              "type": "uint256"
            },
            {
              "internalType": "uint256",
              "name": "royaltyPercent",
              "type": "uint256"
            }
          ],
          "internalType": "struct ERC721Collections.Collection[]",
          "name": "",
          "type": "tuple[]"
        }
      ],
      "stateMutability": "view",
      "type": "function"
    },
    {
      "inputs": [
        {
          "internalType": "uint256",
          "name": "collectionId",
          "type": "uint256"
        },
        {
          "internalType": "uint256",
          "name": "startIndex",
          "type": "uint256"
        },
        {
          "internalType": "uint256",
          "name": "pageSize",
          "type": "uint256"
        }
      ],
      "name": "getNFTsInCollection",
      "outputs": [
        {
          "internalType": "uint256[]",
          "name": "",
          "type": "uint256[]"
        }
      ],
      "stateMutability": "view",
      "type": "function"
    },
    {
      "inputs": [
        {
          "internalType": "address",
          "name": "owner",
          "type": "address"
        },
        {
          "internalType": "address",
          "name": "operator",
          "type": "address"
        }
      ],
      "name": "isApprovedForAll",
      "outputs": [
        {
          "internalType": "bool",
          "name": "",
          "type": "bool"
        }
      ],
      "stateMutability": "view",
      "type": "function"
    },
    {
      "inputs": [
        {
          "internalType": "address",
          "name": "",
          "type": "address"
        }
      ],
      "name": "lastCollectionTimestamp",
      "outputs": [
        {
          "internalType": "uint256",
          "name": "",
          "type": "uint256"
        }
      ],
      "stateMutability": "view",
      "type": "function"
    },
    {
      "inputs": [
        {
          "internalType": "uint256",
          "name": "collectionId",
          "type": "uint256"
        },
        {
          "internalType": "string",
          "name": "tokenURI",
          "type": "string"
        },
        {
          "internalType": "uint256",
          "name": "price",
          "type": "uint256"
        },
        {
          "internalType": "bool",
          "name": "isMintToMarketplace",
          "type": "bool"
        },
        {
          "internalType": "address",
          "name": "airdropAddress",
          "type": "address"
        }
      ],
      "name": "mint",
      "outputs": [
        {
          "internalType": "uint256",
          "name": "",
          "type": "uint256"
        }
      ],
      "stateMutability": "nonpayable",
      "type": "function"
    },
    {
      "inputs": [
        {
          "internalType": "uint256",
          "name": "collectionId",
          "type": "uint256"
        },
        {
          "internalType": "address",
          "name": "to",
          "type": "address"
        },
        {
          "internalType": "string",
          "name": "tokenURI",
          "type": "string"
        },
        {
          "internalType": "uint256",
          "name": "price",
          "type": "uint256"
        }
      ],
      "name": "mintToCollection",
      "outputs": [
        {
          "internalType": "uint256",
          "name": "tokenId",
          "type": "uint256"
        },
        {
          "internalType": "address",
          "name": "collectionOwner",
          "type": "address"
        }
      ],
      "stateMutability": "payable",
      "type": "function"
    },
    {
      "inputs": [],
      "name": "name",
      "outputs": [
        {
          "internalType": "string",
          "name": "",
          "type": "string"
        }
      ],
      "stateMutability": "view",
      "type": "function"
    },
    {
      "inputs": [],
      "name": "owner",
      "outputs": [
        {
          "internalType": "address",
          "name": "",
          "type": "address"
        }
      ],
      "stateMutability": "view",
      "type": "function"
    },
    {
      "inputs": [
        {
          "internalType": "uint256",
          "name": "tokenId",
          "type": "uint256"
        }
      ],
      "name": "ownerOf",
      "outputs": [
        {
          "internalType": "address",
          "name": "",
          "type": "address"
        }
      ],
      "stateMutability": "view",
      "type": "function"
    },
    {
      "inputs": [],
      "name": "renounceOwnership",
      "outputs": [],
      "stateMutability": "nonpayable",
      "type": "function"
    },
    {
      "inputs": [
        {
          "internalType": "uint256",
          "name": "tokenId",
          "type": "uint256"
        },
        {
          "internalType": "uint256",
          "name": "salePrice",
          "type": "uint256"
        }
      ],
      "name": "royaltyInfo",
      "outputs": [
        {
          "internalType": "address",
          "name": "receiver",
          "type": "address"
        },
        {
          "internalType": "uint256",
          "name": "royaltyAmount",
          "type": "uint256"
        }
      ],
      "stateMutability": "view",
      "type": "function"
    },
    {
      "inputs": [
        {
          "internalType": "address",
          "name": "from",
          "type": "address"
        },
        {
          "internalType": "address",
          "name": "to",
          "type": "address"
        },
        {
          "internalType": "uint256",
          "name": "tokenId",
          "type": "uint256"
        }
      ],
      "name": "safeTransferFrom",
      "outputs": [],
      "stateMutability": "nonpayable",
      "type": "function"
    },
    {
      "inputs": [
        {
          "internalType": "address",
          "name": "from",
          "type": "address"
        },
        {
          "internalType": "address",
          "name": "to",
          "type": "address"
        },
        {
          "internalType": "uint256",
          "name": "tokenId",
          "type": "uint256"
        },
        {
          "internalType": "bytes",
          "name": "data",
          "type": "bytes"
        }
      ],
      "name": "safeTransferFrom",
      "outputs": [],
      "stateMutability": "nonpayable",
      "type": "function"
    },
    {
      "inputs": [
        {
          "internalType": "address",
          "name": "operator",
          "type": "address"
        },
        {
          "internalType": "bool",
          "name": "approved",
          "type": "bool"
        }
      ],
      "name": "setApprovalForAll",
      "outputs": [],
      "stateMutability": "nonpayable",
      "type": "function"
    },
    {
      "inputs": [
        {
          "internalType": "address payable",
          "name": "marketplaceAddress",
          "type": "address"
        }
      ],
      "name": "setMarketplace",
      "outputs": [],
      "stateMutability": "nonpayable",
      "type": "function"
    },
    {
      "inputs": [
        {
          "internalType": "bytes4",
          "name": "interfaceId",
          "type": "bytes4"
        }
      ],
      "name": "supportsInterface",
      "outputs": [
        {
          "internalType": "bool",
          "name": "",
          "type": "bool"
        }
      ],
      "stateMutability": "view",
      "type": "function"
    },
    {
      "inputs": [],
      "name": "symbol",
      "outputs": [
        {
          "internalType": "string",
          "name": "",
          "type": "string"
        }
      ],
      "stateMutability": "view",
      "type": "function"
    },
    {
      "inputs": [
        {
          "internalType": "uint256",
          "name": "tokenId",
          "type": "uint256"
        }
      ],
      "name": "tokenURI",
      "outputs": [
        {
          "internalType": "string",
          "name": "",
          "type": "string"
        }
      ],
      "stateMutability": "view",
      "type": "function"
    },
    {
      "inputs": [
        {
          "internalType": "address",
          "name": "from",
          "type": "address"
        },
        {
          "internalType": "address",
          "name": "to",
          "type": "address"
        },
        {
          "internalType": "uint256",
          "name": "tokenId",
          "type": "uint256"
        }
      ],
      "name": "transferFrom",
      "outputs": [],
      "stateMutability": "nonpayable",
      "type": "function"
    },
    {
      "inputs": [
        {
          "internalType": "address",
          "name": "newOwner",
          "type": "address"
        }
      ],
      "name": "transferOwnership",
      "outputs": [],
      "stateMutability": "nonpayable",
      "type": "function"
    }
  ],
  "bytecode": "0x60806040523480156200001157600080fd5b5060405162006b3438038062006b348339818101604052810190620000379190620006d8565b6040518060400160405280601181526020017f455243373231436f6c6c656374696f6e730000000000000000000000000000008152506040518060400160405280600381526020017f53545200000000000000000000000000000000000000000000000000000000008152508160009080519060200190620000bb929190620005b6565b508060019080519060200190620000d4929190620005b6565b505050620000f7620000eb6200012b60201b60201c565b6200013360201b60201c565b6200010c8142600080620001f960201b60201c565b506200012460086200059260201b62002b931760201c565b5062000bb5565b600033905090565b6000600760009054906101000a900473ffffffffffffffffffffffffffffffffffffffff16905081600760006101000a81548173ffffffffffffffffffffffffffffffffffffffff021916908373ffffffffffffffffffffffffffffffffffffffff1602179055508173ffffffffffffffffffffffffffffffffffffffff168173ffffffffffffffffffffffffffffffffffffffff167f8be0079c531659141344cd1fd0a4f28419497f9722a3daafe3b4186f6b6457e060405160405180910390a35050565b60006103e7600e60003373ffffffffffffffffffffffffffffffffffffffff1673ffffffffffffffffffffffffffffffffffffffff168152602001908152602001600020541062000281576040517f08c379a0000000000000000000000000000000000000000000000000000000008152600401620002789062000806565b60405180910390fd5b42603c600f60003373ffffffffffffffffffffffffffffffffffffffff1673ffffffffffffffffffffffffffffffffffffffff16815260200190815260200160002054620002d09190620008f9565b111562000314576040517f08c379a00000000000000000000000000000000000000000000000000000000081526004016200030b90620007e4565b60405180910390fd5b600a8211156200035b576040517f08c379a0000000000000000000000000000000000000000000000000000000008152600401620003529062000828565b60405180910390fd5b6200037260096200059260201b62002b931760201c565b6040518060c001604052808681526020016200039a6009620005a860201b62002ba91760201c565b81526020013373ffffffffffffffffffffffffffffffffffffffff16815260200185815260200184815260200183815250600b6000620003e66009620005a860201b62002ba91760201c565b8152602001908152602001600020600082015181600001908051906020019062000412929190620005b6565b506020820151816001015560408201518160020160006101000a81548173ffffffffffffffffffffffffffffffffffffffff021916908373ffffffffffffffffffffffffffffffffffffffff160217905550606082015181600301556080820151816004015560a08201518160050155905050600e60003373ffffffffffffffffffffffffffffffffffffffff1673ffffffffffffffffffffffffffffffffffffffff1681526020019081526020016000206000815480929190620004d79062000a02565b919050555042600f60003373ffffffffffffffffffffffffffffffffffffffff1673ffffffffffffffffffffffffffffffffffffffff168152602001908152602001600020819055507f62b7b5ba11bfc95430fab0460fdf99b9c8fbc2b3a6a48caf79c3ee1b591c0336620005586009620005a860201b62002ba91760201c565b86604051620005699291906200084a565b60405180910390a1620005886009620005a860201b62002ba91760201c565b9050949350505050565b6001816000016000828254019250508190555050565b600081600001549050919050565b828054620005c49062000996565b90600052602060002090601f016020900481019282620005e8576000855562000634565b82601f106200060357805160ff191683800117855562000634565b8280016001018555821562000634579182015b828111156200063357825182559160200191906001019062000616565b5b50905062000643919062000647565b5090565b5b808211156200066257600081600090555060010162000648565b5090565b60006200067d6200067784620008a7565b6200087e565b9050828152602081018484840111156200069657600080fd5b620006a384828562000960565b509392505050565b600082601f830112620006bd57600080fd5b8151620006cf84826020860162000666565b91505092915050565b600060208284031215620006eb57600080fd5b600082015167ffffffffffffffff8111156200070657600080fd5b6200071484828501620006ab565b91505092915050565b60006200072a82620008dd565b620007368185620008e8565b93506200074881856020860162000960565b620007538162000add565b840191505092915050565b60006200076d602c83620008e8565b91506200077a8262000aee565b604082019050919050565b600062000794601783620008e8565b9150620007a18262000b3d565b602082019050919050565b6000620007bb602b83620008e8565b9150620007c88262000b66565b604082019050919050565b620007de8162000956565b82525050565b60006020820190508181036000830152620007ff816200075e565b9050919050565b60006020820190508181036000830152620008218162000785565b9050919050565b600060208201905081810360008301526200084381620007ac565b9050919050565b6000604082019050620008616000830185620007d3565b81810360208301526200087581846200071d565b90509392505050565b60006200088a6200089d565b9050620008988282620009cc565b919050565b6000604051905090565b600067ffffffffffffffff821115620008c557620008c462000aae565b5b620008d08262000add565b9050602081019050919050565b600081519050919050565b600082825260208201905092915050565b6000620009068262000956565b9150620009138362000956565b9250827fffffffffffffffffffffffffffffffffffffffffffffffffffffffffffffffff038211156200094b576200094a62000a50565b5b828201905092915050565b6000819050919050565b60005b838110156200098057808201518184015260208101905062000963565b8381111562000990576000848401525b50505050565b60006002820490506001821680620009af57607f821691505b60208210811415620009c657620009c562000a7f565b5b50919050565b620009d78262000add565b810181811067ffffffffffffffff82111715620009f957620009f862000aae565b5b80604052505050565b600062000a0f8262000956565b91507fffffffffffffffffffffffffffffffffffffffffffffffffffffffffffffffff82141562000a455762000a4462000a50565b5b600182019050919050565b7f4e487b7100000000000000000000000000000000000000000000000000000000600052601160045260246000fd5b7f4e487b7100000000000000000000000000000000000000000000000000000000600052602260045260246000fd5b7f4e487b7100000000000000000000000000000000000000000000000000000000600052604160045260246000fd5b6000601f19601f8301169050919050565b7f4d7573742077616974206265666f7265206372656174696e6720616e6f74686560008201527f7220636f6c6c656374696f6e0000000000000000000000000000000000000000602082015250565b7f4d617820636f6c6c656374696f6e732072656163686564000000000000000000600082015250565b7f526f79616c746965732070657263656e746167652073686f756c64206265206c60008201527f657373207468616e203130000000000000000000000000000000000000000000602082015250565b615f6f8062000bc56000396000f3fe6080604052600436106101d85760003560e01c806373ad6c2d11610102578063b88d4fde11610095578063d08b28ea11610064578063d08b28ea14610747578063da0277fd14610784578063e985e9c5146107c1578063f2fde38b146107fe576101d8565b8063b88d4fde14610667578063bd6fbad914610690578063be038689146106cd578063c87b56dd1461070a576101d8565b806394ec1db3116100d157806394ec1db3146105ab57806395d89b41146105e8578063a22cb46514610613578063ad9f20a61461063c576101d8565b806373ad6c2d146104dd578063822f3e5d1461050657806382a17cdb146105435780638da5cb5b14610580576101d8565b806342842e0e1161017a5780636352211e116101495780636352211e1461042357806370342d0c1461046057806370a0823114610489578063715018a6146104c6576101d8565b806342842e0e1461034f57806344ce938e146103785780635a1f3c28146103b55780636313a3e8146103f2576101d8565b8063095ea7b3116101b6578063095ea7b31461028257806323b872dd146102ab5780632a55205a146102d4578063394120c014610312576101d8565b806301ffc9a7146101dd57806306fdde031461021a578063081812fc14610245575b600080fd5b3480156101e957600080fd5b5061020460048036038101906101ff919061424f565b610827565b6040516102119190614d47565b60405180910390f35b34801561022657600080fd5b5061022f6108a1565b60405161023c9190614d62565b60405180910390f35b34801561025157600080fd5b5061026c6004803603810190610267919061431c565b610933565b6040516102799190614c73565b60405180910390f35b34801561028e57600080fd5b506102a960048036038101906102a491906141c4565b610979565b005b3480156102b757600080fd5b506102d260048036038101906102cd91906140be565b610a91565b005b3480156102e057600080fd5b506102fb60048036038101906102f6919061444f565b610af1565b604051610309929190614cda565b60405180910390f35b34801561031e57600080fd5b506103396004803603810190610334919061431c565b610b34565b6040516103469190614c73565b60405180910390f35b34801561035b57600080fd5b50610376600480360381019061037191906140be565b610b74565b005b34801561038457600080fd5b5061039f600480360381019061039a91906142a1565b610b94565b6040516103ac9190615186565b60405180910390f35b3480156103c157600080fd5b506103dc60048036038101906103d7919061431c565b610edb565b6040516103e99190615164565b60405180910390f35b61040c60048036038101906104079190614345565b611018565b60405161041a9291906151a1565b60405180910390f35b34801561042f57600080fd5b5061044a6004803603810190610445919061431c565b6113b2565b6040516104579190614c73565b60405180910390f35b34801561046c57600080fd5b506104876004803603810190610482919061444f565b611439565b005b34801561049557600080fd5b506104b060048036038101906104ab9190614030565b6115d9565b6040516104bd9190615186565b60405180910390f35b3480156104d257600080fd5b506104db611691565b005b3480156104e957600080fd5b5061050460048036038101906104ff9190614059565b6116a5565b005b34801561051257600080fd5b5061052d6004803603810190610528919061444f565b6117f2565b60405161053a9190614d03565b60405180910390f35b34801561054f57600080fd5b5061056a60048036038101906105659190614030565b611bc3565b6040516105779190615186565b60405180910390f35b34801561058c57600080fd5b50610595611bdb565b6040516105a29190614c73565b60405180910390f35b3480156105b757600080fd5b506105d260048036038101906105cd9190614200565b611c05565b6040516105df9190614d03565b60405180910390f35b3480156105f457600080fd5b506105fd612036565b60405161060a9190614d62565b60405180910390f35b34801561061f57600080fd5b5061063a60048036038101906106359190614188565b6120c8565b005b34801561064857600080fd5b506106516120de565b60405161065e9190615186565b60405180910390f35b34801561067357600080fd5b5061068e6004803603810190610689919061410d565b6120e9565b005b34801561069c57600080fd5b506106b760048036038101906106b29190614030565b61214b565b6040516106c49190615186565b60405180910390f35b3480156106d957600080fd5b506106f460048036038101906106ef91906143c0565b612163565b6040516107019190615186565b60405180910390f35b34801561071657600080fd5b50610731600480360381019061072c919061431c565b61255a565b60405161073e9190614d62565b60405180910390f35b34801561075357600080fd5b5061076e6004803603810190610769919061448b565b61266d565b60405161077b9190614d25565b60405180910390f35b34801561079057600080fd5b506107ab60048036038101906107a6919061431c565b6128ce565b6040516107b89190615164565b60405180910390f35b3480156107cd57600080fd5b506107e860048036038101906107e39190614082565b612a7b565b6040516107f59190614d47565b60405180910390f35b34801561080a57600080fd5b5061082560048036038101906108209190614030565b612b0f565b005b60007f2a55205a000000000000000000000000000000000000000000000000000000007bffffffffffffffffffffffffffffffffffffffffffffffffffffffff1916827bffffffffffffffffffffffffffffffffffffffffffffffffffffffff1916148061089a575061089982612bb7565b5b9050919050565b6060600080546108b090615584565b80601f01602080910402602001604051908101604052809291908181526020018280546108dc90615584565b80156109295780601f106108fe57610100808354040283529160200191610929565b820191906000526020600020905b81548152906001019060200180831161090c57829003601f168201915b5050505050905090565b600061093e82612c18565b6004600083815260200190815260200160002060009054906101000a900473ffffffffffffffffffffffffffffffffffffffff169050919050565b6000610984826113b2565b90508073ffffffffffffffffffffffffffffffffffffffff168373ffffffffffffffffffffffffffffffffffffffff1614156109f5576040517f08c379a00000000000000000000000000000000000000000000000000000000081526004016109ec906150c4565b60405180910390fd5b8073ffffffffffffffffffffffffffffffffffffffff16610a14612c63565b73ffffffffffffffffffffffffffffffffffffffff161480610a435750610a4281610a3d612c63565b612a7b565b5b610a82576040517f08c379a0000000000000000000000000000000000000000000000000000000008152600401610a79906150e4565b60405180910390fd5b610a8c8383612c6b565b505050565b610aa2610a9c612c63565b82612d24565b610ae1576040517f08c379a0000000000000000000000000000000000000000000000000000000008152600401610ad890614da4565b60405180910390fd5b610aec838383612db9565b505050565b6000806000610aff856128ce565b9050600060648260a0015186610b15919061542e565b610b1f91906153fd565b90508160400151819350935050509250929050565b6000600b600083815260200190815260200160002060020160009054906101000a900473ffffffffffffffffffffffffffffffffffffffff169050919050565b610b8f838383604051806020016040528060008152506120e9565b505050565b60006103e7600e60003373ffffffffffffffffffffffffffffffffffffffff1673ffffffffffffffffffffffffffffffffffffffff1681526020019081526020016000205410610c19576040517f08c379a0000000000000000000000000000000000000000000000000000000008152600401610c1090614fc4565b60405180910390fd5b42603c600f60003373ffffffffffffffffffffffffffffffffffffffff1673ffffffffffffffffffffffffffffffffffffffff16815260200190815260200160002054610c6691906153a7565b1115610ca7576040517f08c379a0000000000000000000000000000000000000000000000000000000008152600401610c9e90614e04565b60405180910390fd5b600a821115610ceb576040517f08c379a0000000000000000000000000000000000000000000000000000000008152600401610ce290615144565b60405180910390fd5b610cf56009612b93565b6040518060c00160405280868152602001610d106009612ba9565b81526020013373ffffffffffffffffffffffffffffffffffffffff16815260200185815260200184815260200183815250600b6000610d4f6009612ba9565b81526020019081526020016000206000820151816000019080519060200190610d79929190613df3565b506020820151816001015560408201518160020160006101000a81548173ffffffffffffffffffffffffffffffffffffffff021916908373ffffffffffffffffffffffffffffffffffffffff160217905550606082015181600301556080820151816004015560a08201518160050155905050600e60003373ffffffffffffffffffffffffffffffffffffffff1673ffffffffffffffffffffffffffffffffffffffff1681526020019081526020016000206000815480929190610e3c906155e7565b919050555042600f60003373ffffffffffffffffffffffffffffffffffffffff1673ffffffffffffffffffffffffffffffffffffffff168152602001908152602001600020819055507f62b7b5ba11bfc95430fab0460fdf99b9c8fbc2b3a6a48caf79c3ee1b591c0336610eb06009612ba9565b86604051610ebf9291906151ca565b60405180910390a1610ed16009612ba9565b9050949350505050565b610ee3613e79565b600b60008381526020019081526020016000206040518060c0016040529081600082018054610f1190615584565b80601f0160208091040260200160405190810160405280929190818152602001828054610f3d90615584565b8015610f8a5780601f10610f5f57610100808354040283529160200191610f8a565b820191906000526020600020905b815481529060010190602001808311610f6d57829003601f168201915b50505050508152602001600182015481526020016002820160009054906101000a900473ffffffffffffffffffffffffffffffffffffffff1673ffffffffffffffffffffffffffffffffffffffff1673ffffffffffffffffffffffffffffffffffffffff16815260200160038201548152602001600482015481526020016005820154815250509050919050565b600080600a60009054906101000a900473ffffffffffffffffffffffffffffffffffffffff1673ffffffffffffffffffffffffffffffffffffffff163373ffffffffffffffffffffffffffffffffffffffff16146110ab576040517f08c379a00000000000000000000000000000000000000000000000000000000081526004016110a290615124565b60405180910390fd5b6000600b6000888152602001908152602001600020600101541415611105576040517f08c379a00000000000000000000000000000000000000000000000000000000081526004016110fc90614ee4565b60405180910390fd5b6001600b600088815260200190815260200160002060010154141561115f576040517f08c379a000000000000000000000000000000000000000000000000000000000815260040161115690614d84565b60405180910390fd5b600b6000878152602001908152602001600020600301544210156111b8576040517f08c379a00000000000000000000000000000000000000000000000000000000081526004016111af90615104565b60405180910390fd5b600b6000878152602001908152602001600020600401548314611210576040517f08c379a000000000000000000000000000000000000000000000000000000000815260040161120790614e44565b60405180910390fd5b600b600087815260200190815260200160002060020160009054906101000a900473ffffffffffffffffffffffffffffffffffffffff1673ffffffffffffffffffffffffffffffffffffffff168573ffffffffffffffffffffffffffffffffffffffff1614156112b5576040517f08c379a00000000000000000000000000000000000000000000000000000000081526004016112ac90614dc4565b60405180910390fd5b60006112c16008612ba9565b90506112cd6008612b93565b6112d786826130b3565b6112e181866132d1565b86600d600083815260200190815260200160002081905550600c60008881526020019081526020016000208190806001815401808255809150506001900390600052602060002001600090919091909150557f5f7666687319b40936f33c188908d86aea154abd3f4127b4fa0a3f04f303c7da81886040516113649291906151fa565b60405180910390a180600b600089815260200190815260200160002060020160009054906101000a900473ffffffffffffffffffffffffffffffffffffffff16925092505094509492505050565b6000806113be8361337c565b9050600073ffffffffffffffffffffffffffffffffffffffff168173ffffffffffffffffffffffffffffffffffffffff161415611430576040517f08c379a0000000000000000000000000000000000000000000000000000000008152600401611427906150a4565b60405180910390fd5b80915050919050565b6000600b6000848152602001908152602001600020600101541415611493576040517f08c379a000000000000000000000000000000000000000000000000000000000815260040161148a90614ee4565b60405180910390fd5b600b600083815260200190815260200160002060020160009054906101000a900473ffffffffffffffffffffffffffffffffffffffff1673ffffffffffffffffffffffffffffffffffffffff163373ffffffffffffffffffffffffffffffffffffffff1614611537576040517f08c379a000000000000000000000000000000000000000000000000000000000815260040161152e90614f04565b60405180910390fd5b662386f26fc10000811015611581576040517f08c379a000000000000000000000000000000000000000000000000000000000815260040161157890614f24565b60405180910390fd5b80600b6000848152602001908152602001600020600401819055507f2063f24eb8e50478aa99484fcf0f591be5a95d83129c7388c3da4bd776655e7a82826040516115cd9291906151fa565b60405180910390a15050565b60008073ffffffffffffffffffffffffffffffffffffffff168273ffffffffffffffffffffffffffffffffffffffff16141561164a576040517f08c379a000000000000000000000000000000000000000000000000000000000815260040161164190614fe4565b60405180910390fd5b600360008373ffffffffffffffffffffffffffffffffffffffff1673ffffffffffffffffffffffffffffffffffffffff168152602001908152602001600020549050919050565b6116996133b9565b6116a36000613437565b565b6116ad6133b9565b600073ffffffffffffffffffffffffffffffffffffffff16600a60009054906101000a900473ffffffffffffffffffffffffffffffffffffffff1673ffffffffffffffffffffffffffffffffffffffff161461173e576040517f08c379a000000000000000000000000000000000000000000000000000000000815260040161173590615084565b60405180910390fd5b600073ffffffffffffffffffffffffffffffffffffffff168173ffffffffffffffffffffffffffffffffffffffff1614156117ae576040517f08c379a00000000000000000000000000000000000000000000000000000000081526004016117a590614de4565b60405180910390fd5b80600a60006101000a81548173ffffffffffffffffffffffffffffffffffffffff021916908373ffffffffffffffffffffffffffffffffffffffff16021790555050565b6060600060018461180391906153a7565b90506001811015801561181f575061181b6009612ba9565b8111155b61185e576040517f08c379a000000000000000000000000000000000000000000000000000000000815260040161185590615064565b60405180910390fd5b6000808467ffffffffffffffff8111156118a1577f4e487b7100000000000000000000000000000000000000000000000000000000600052604160045260246000fd5b6040519080825280602002602001820160405280156118cf5781602001602082028036833780820191505090505b50905060005b8581101561196657600081856118eb91906153a7565b90506118f76009612ba9565b81116119525780838581518110611937577f4e487b7100000000000000000000000000000000000000000000000000000000600052603260045260246000fd5b602002602001018181525050838061194e906155e7565b9450505b50808061195e906155e7565b9150506118d5565b5060008267ffffffffffffffff8111156119a9577f4e487b7100000000000000000000000000000000000000000000000000000000600052604160045260246000fd5b6040519080825280602002602001820160405280156119e257816020015b6119cf613e79565b8152602001906001900390816119c75790505b50905060005b83811015611bb557600b6000848381518110611a2d577f4e487b7100000000000000000000000000000000000000000000000000000000600052603260045260246000fd5b602002602001015181526020019081526020016000206040518060c0016040529081600082018054611a5e90615584565b80601f0160208091040260200160405190810160405280929190818152602001828054611a8a90615584565b8015611ad75780601f10611aac57610100808354040283529160200191611ad7565b820191906000526020600020905b815481529060010190602001808311611aba57829003601f168201915b50505050508152602001600182015481526020016002820160009054906101000a900473ffffffffffffffffffffffffffffffffffffffff1673ffffffffffffffffffffffffffffffffffffffff1673ffffffffffffffffffffffffffffffffffffffff1681526020016003820154815260200160048201548152602001600582015481525050828281518110611b97577f4e487b7100000000000000000000000000000000000000000000000000000000600052603260045260246000fd5b60200260200101819052508080611bad906155e7565b9150506119e8565b508094505050505092915050565b600f6020528060005260406000206000915090505481565b6000600760009054906101000a900473ffffffffffffffffffffffffffffffffffffffff16905090565b6060600080600190505b611c196009612ba9565b8111611cab578573ffffffffffffffffffffffffffffffffffffffff16600b600083815260200190815260200160002060020160009054906101000a900473ffffffffffffffffffffffffffffffffffffffff1673ffffffffffffffffffffffffffffffffffffffff161415611c98578180611c94906155e7565b9250505b8080611ca3906155e7565b915050611c0f565b50808410611d3657600067ffffffffffffffff811115611cf4577f4e487b7100000000000000000000000000000000000000000000000000000000600052604160045260246000fd5b604051908082528060200260200182016040528015611d2d57816020015b611d1a613e79565b815260200190600190039081611d125790505b5091505061202f565b6000838583611d459190615488565b11611d5b578482611d569190615488565b611d5d565b835b905060008167ffffffffffffffff811115611da1577f4e487b7100000000000000000000000000000000000000000000000000000000600052604160045260246000fd5b604051908082528060200260200182016040528015611dda57816020015b611dc7613e79565b815260200190600190039081611dbf5790505b5090506000806000600190505b611df16009612ba9565b8111612025578973ffffffffffffffffffffffffffffffffffffffff16600b600083815260200190815260200160002060020160009054906101000a900473ffffffffffffffffffffffffffffffffffffffff1673ffffffffffffffffffffffffffffffffffffffff16141561200557888210158015611e7057508483105b15611ff657600b60008281526020019081526020016000206040518060c0016040529081600082018054611ea390615584565b80601f0160208091040260200160405190810160405280929190818152602001828054611ecf90615584565b8015611f1c5780601f10611ef157610100808354040283529160200191611f1c565b820191906000526020600020905b815481529060010190602001808311611eff57829003601f168201915b50505050508152602001600182015481526020016002820160009054906101000a900473ffffffffffffffffffffffffffffffffffffffff1673ffffffffffffffffffffffffffffffffffffffff1673ffffffffffffffffffffffffffffffffffffffff1681526020016003820154815260200160048201548152602001600582015481525050848481518110611fdc577f4e487b7100000000000000000000000000000000000000000000000000000000600052603260045260246000fd5b60200260200101819052508280611ff2906155e7565b9350505b8180612001906155e7565b9250505b8483141561201257612025565b808061201d906155e7565b915050611de7565b5082955050505050505b9392505050565b60606001805461204590615584565b80601f016020809104026020016040519081016040528092919081815260200182805461207190615584565b80156120be5780601f10612093576101008083540402835291602001916120be565b820191906000526020600020905b8154815290600101906020018083116120a157829003601f168201915b5050505050905090565b6120da6120d3612c63565b83836134fd565b5050565b662386f26fc1000081565b6120fa6120f4612c63565b83612d24565b612139576040517f08c379a000000000000000000000000000000000000000000000000000000000815260040161213090614da4565b60405180910390fd5b6121458484848461366a565b50505050565b600e6020528060005260406000206000915090505481565b600080600b60008881526020019081526020016000206001015414156121be576040517f08c379a00000000000000000000000000000000000000000000000000000000081526004016121b590614ee4565b60405180910390fd5b600073ffffffffffffffffffffffffffffffffffffffff168273ffffffffffffffffffffffffffffffffffffffff16141580156121f85750825b15612238576040517f08c379a000000000000000000000000000000000000000000000000000000000815260040161222f90614f84565b60405180910390fd5b821561228957662386f26fc10000841015612288576040517f08c379a000000000000000000000000000000000000000000000000000000000815260040161227f90614e64565b60405180910390fd5b5b60018614806122f957503373ffffffffffffffffffffffffffffffffffffffff16600b600088815260200190815260200160002060020160009054906101000a900473ffffffffffffffffffffffffffffffffffffffff1673ffffffffffffffffffffffffffffffffffffffff16145b612338576040517f08c379a000000000000000000000000000000000000000000000000000000000815260040161232f90614f04565b60405180910390fd5b600b600087815260200190815260200160002060030154421015612391576040517f08c379a000000000000000000000000000000000000000000000000000000000815260040161238890615104565b60405180910390fd5b6123be600a60009054906101000a900473ffffffffffffffffffffffffffffffffffffffff1660016120c8565b60006123ca6008612ba9565b90506123d66008612b93565b60008073ffffffffffffffffffffffffffffffffffffffff168473ffffffffffffffffffffffffffffffffffffffff16146124115783612413565b335b905061241f81836130b3565b61242982886132d1565b87600d600084815260200190815260200160002081905550600c6000898152602001908152602001600020829080600181540180825580915050600190039060005260206000200160009091909190915055841561251357600a60009054906101000a900473ffffffffffffffffffffffffffffffffffffffff1673ffffffffffffffffffffffffffffffffffffffff166302998cf38388306040518463ffffffff1660e01b81526004016124e093929190615223565b600060405180830381600087803b1580156124fa57600080fd5b505af115801561250e573d6000803e3d6000fd5b505050505b7f5f7666687319b40936f33c188908d86aea154abd3f4127b4fa0a3f04f303c7da82896040516125449291906151fa565b60405180910390a1819250505095945050505050565b606061256582612c18565b600060066000848152602001908152602001600020805461258590615584565b80601f01602080910402602001604051908101604052809291908181526020018280546125b190615584565b80156125fe5780601f106125d3576101008083540402835291602001916125fe565b820191906000526020600020905b8154815290600101906020018083116125e157829003601f168201915b50505050509050600061260f6136c6565b9050600081511415612625578192505050612668565b60008251111561265a578082604051602001612642929190614c4f565b60405160208183030381529060405292505050612668565b612663846136dd565b925050505b919050565b60606000600c60008681526020019081526020016000208054806020026020016040519081016040528092919081815260200182805480156126ce57602002820191906000526020600020905b8154815260200190600101908083116126ba575b505050505090506000815114806126e6575080518410155b1561276357600067ffffffffffffffff81111561272c577f4e487b7100000000000000000000000000000000000000000000000000000000600052604160045260246000fd5b60405190808252806020026020018201604052801561275a5781602001602082028036833780820191505090505b509150506128c7565b606483111561277157606492505b6000838561277f91906153a7565b9050815181111561278f57815190505b6000858261279d9190615488565b67ffffffffffffffff8111156127dc577f4e487b7100000000000000000000000000000000000000000000000000000000600052604160045260246000fd5b60405190808252806020026020018201604052801561280a5781602001602082028036833780820191505090505b50905060008690505b828110156128bf57838181518110612854577f4e487b7100000000000000000000000000000000000000000000000000000000600052603260045260246000fd5b60200260200101518288836128699190615488565b815181106128a0577f4e487b7100000000000000000000000000000000000000000000000000000000600052603260045260246000fd5b60200260200101818152505080806128b7906155e7565b915050612813565b508093505050505b9392505050565b6128d6613e79565b6000600d600084815260200190815260200160002054141561292d576040517f08c379a000000000000000000000000000000000000000000000000000000000815260040161292490614fa4565b60405180910390fd5b6000600d6000848152602001908152602001600020549050600b60008281526020019081526020016000206040518060c001604052908160008201805461297390615584565b80601f016020809104026020016040519081016040528092919081815260200182805461299f90615584565b80156129ec5780601f106129c1576101008083540402835291602001916129ec565b820191906000526020600020905b8154815290600101906020018083116129cf57829003601f168201915b50505050508152602001600182015481526020016002820160009054906101000a900473ffffffffffffffffffffffffffffffffffffffff1673ffffffffffffffffffffffffffffffffffffffff1673ffffffffffffffffffffffffffffffffffffffff1681526020016003820154815260200160048201548152602001600582015481525050915050919050565b6000600560008473ffffffffffffffffffffffffffffffffffffffff1673ffffffffffffffffffffffffffffffffffffffff16815260200190815260200160002060008373ffffffffffffffffffffffffffffffffffffffff1673ffffffffffffffffffffffffffffffffffffffff16815260200190815260200160002060009054906101000a900460ff16905092915050565b612b176133b9565b600073ffffffffffffffffffffffffffffffffffffffff168173ffffffffffffffffffffffffffffffffffffffff161415612b87576040517f08c379a0000000000000000000000000000000000000000000000000000000008152600401612b7e90614e84565b60405180910390fd5b612b9081613437565b50565b6001816000016000828254019250508190555050565b600081600001549050919050565b6000634906490660e01b7bffffffffffffffffffffffffffffffffffffffffffffffffffffffff1916827bffffffffffffffffffffffffffffffffffffffffffffffffffffffff19161480612c115750612c1082613745565b5b9050919050565b612c2181613827565b612c60576040517f08c379a0000000000000000000000000000000000000000000000000000000008152600401612c57906150a4565b60405180910390fd5b50565b600033905090565b816004600083815260200190815260200160002060006101000a81548173ffffffffffffffffffffffffffffffffffffffff021916908373ffffffffffffffffffffffffffffffffffffffff160217905550808273ffffffffffffffffffffffffffffffffffffffff16612cde836113b2565b73ffffffffffffffffffffffffffffffffffffffff167f8c5be1e5ebec7d5bd14f71427d1e84f3dd0314c0f7b2291e5b200ac8c7c3b92560405160405180910390a45050565b600080612d30836113b2565b90508073ffffffffffffffffffffffffffffffffffffffff168473ffffffffffffffffffffffffffffffffffffffff161480612d725750612d718185612a7b565b5b80612db057508373ffffffffffffffffffffffffffffffffffffffff16612d9884610933565b73ffffffffffffffffffffffffffffffffffffffff16145b91505092915050565b8273ffffffffffffffffffffffffffffffffffffffff16612dd9826113b2565b73ffffffffffffffffffffffffffffffffffffffff1614612e2f576040517f08c379a0000000000000000000000000000000000000000000000000000000008152600401612e2690614ea4565b60405180910390fd5b600073ffffffffffffffffffffffffffffffffffffffff168273ffffffffffffffffffffffffffffffffffffffff161415612e9f576040517f08c379a0000000000000000000000000000000000000000000000000000000008152600401612e9690614f44565b60405180910390fd5b612eac8383836001613868565b8273ffffffffffffffffffffffffffffffffffffffff16612ecc826113b2565b73ffffffffffffffffffffffffffffffffffffffff1614612f22576040517f08c379a0000000000000000000000000000000000000000000000000000000008152600401612f1990614ea4565b60405180910390fd5b6004600082815260200190815260200160002060006101000a81549073ffffffffffffffffffffffffffffffffffffffff02191690556001600360008573ffffffffffffffffffffffffffffffffffffffff1673ffffffffffffffffffffffffffffffffffffffff168152602001908152602001600020600082825403925050819055506001600360008473ffffffffffffffffffffffffffffffffffffffff1673ffffffffffffffffffffffffffffffffffffffff16815260200190815260200160002060008282540192505081905550816002600083815260200190815260200160002060006101000a81548173ffffffffffffffffffffffffffffffffffffffff021916908373ffffffffffffffffffffffffffffffffffffffff160217905550808273ffffffffffffffffffffffffffffffffffffffff168473ffffffffffffffffffffffffffffffffffffffff167fddf252ad1be2c89b69c2b068fc378daa952ba7f163c4a11628f55a4df523b3ef60405160405180910390a46130ae838383600161386e565b505050565b600073ffffffffffffffffffffffffffffffffffffffff168273ffffffffffffffffffffffffffffffffffffffff161415613123576040517f08c379a000000000000000000000000000000000000000000000000000000000815260040161311a90615024565b60405180910390fd5b61312c81613827565b1561316c576040517f08c379a000000000000000000000000000000000000000000000000000000000815260040161316390614ec4565b60405180910390fd5b61317a600083836001613868565b61318381613827565b156131c3576040517f08c379a00000000000000000000000000000000000000000000000000000000081526004016131ba90614ec4565b60405180910390fd5b6001600360008473ffffffffffffffffffffffffffffffffffffffff1673ffffffffffffffffffffffffffffffffffffffff16815260200190815260200160002060008282540192505081905550816002600083815260200190815260200160002060006101000a81548173ffffffffffffffffffffffffffffffffffffffff021916908373ffffffffffffffffffffffffffffffffffffffff160217905550808273ffffffffffffffffffffffffffffffffffffffff16600073ffffffffffffffffffffffffffffffffffffffff167fddf252ad1be2c89b69c2b068fc378daa952ba7f163c4a11628f55a4df523b3ef60405160405180910390a46132cd60008383600161386e565b5050565b6132da82613827565b613319576040517f08c379a000000000000000000000000000000000000000000000000000000000815260040161331090615004565b60405180910390fd5b80600660008481526020019081526020016000209080519060200190613340929190613df3565b507ff8e1a15aba9398e019f0b49df1a4fde98ee17ae345cb5f6b5e2c27f5033e8ce7826040516133709190615186565b60405180910390a15050565b60006002600083815260200190815260200160002060009054906101000a900473ffffffffffffffffffffffffffffffffffffffff169050919050565b6133c1612c63565b73ffffffffffffffffffffffffffffffffffffffff166133df611bdb565b73ffffffffffffffffffffffffffffffffffffffff1614613435576040517f08c379a000000000000000000000000000000000000000000000000000000000815260040161342c90615044565b60405180910390fd5b565b6000600760009054906101000a900473ffffffffffffffffffffffffffffffffffffffff16905081600760006101000a81548173ffffffffffffffffffffffffffffffffffffffff021916908373ffffffffffffffffffffffffffffffffffffffff1602179055508173ffffffffffffffffffffffffffffffffffffffff168173ffffffffffffffffffffffffffffffffffffffff167f8be0079c531659141344cd1fd0a4f28419497f9722a3daafe3b4186f6b6457e060405160405180910390a35050565b8173ffffffffffffffffffffffffffffffffffffffff168373ffffffffffffffffffffffffffffffffffffffff16141561356c576040517f08c379a000000000000000000000000000000000000000000000000000000000815260040161356390614f64565b60405180910390fd5b80600560008573ffffffffffffffffffffffffffffffffffffffff1673ffffffffffffffffffffffffffffffffffffffff16815260200190815260200160002060008473ffffffffffffffffffffffffffffffffffffffff1673ffffffffffffffffffffffffffffffffffffffff16815260200190815260200160002060006101000a81548160ff0219169083151502179055508173ffffffffffffffffffffffffffffffffffffffff168373ffffffffffffffffffffffffffffffffffffffff167f17307eab39ab6107e8899845ad3d59bd9653f200f220920489ca2b5937696c318360405161365d9190614d47565b60405180910390a3505050565b613675848484612db9565b61368184848484613874565b6136c0576040517f08c379a00000000000000000000000000000000000000000000000000000000081526004016136b790614e24565b60405180910390fd5b50505050565b606060405180602001604052806000815250905090565b60606136e882612c18565b60006136f26136c6565b90506000815111613712576040518060200160405280600081525061373d565b8061371c84613a0b565b60405160200161372d929190614c4f565b6040516020818303038152906040525b915050919050565b60007f80ac58cd000000000000000000000000000000000000000000000000000000007bffffffffffffffffffffffffffffffffffffffffffffffffffffffff1916827bffffffffffffffffffffffffffffffffffffffffffffffffffffffff1916148061381057507f5b5e139f000000000000000000000000000000000000000000000000000000007bffffffffffffffffffffffffffffffffffffffffffffffffffffffff1916827bffffffffffffffffffffffffffffffffffffffffffffffffffffffff1916145b80613820575061381f82613b2f565b5b9050919050565b60008073ffffffffffffffffffffffffffffffffffffffff166138498361337c565b73ffffffffffffffffffffffffffffffffffffffff1614159050919050565b50505050565b50505050565b60006138958473ffffffffffffffffffffffffffffffffffffffff16613b99565b156139fe578373ffffffffffffffffffffffffffffffffffffffff1663150b7a026138be612c63565b8786866040518563ffffffff1660e01b81526004016138e09493929190614c8e565b602060405180830381600087803b1580156138fa57600080fd5b505af192505050801561392b57506040513d601f19601f820116820180604052508101906139289190614278565b60015b6139ae573d806000811461395b576040519150601f19603f3d011682016040523d82523d6000602084013e613960565b606091505b506000815114156139a6576040517f08c379a000000000000000000000000000000000000000000000000000000000815260040161399d90614e24565b60405180910390fd5b805181602001fd5b63150b7a0260e01b7bffffffffffffffffffffffffffffffffffffffffffffffffffffffff1916817bffffffffffffffffffffffffffffffffffffffffffffffffffffffff191614915050613a03565b600190505b949350505050565b606060006001613a1a84613bbc565b01905060008167ffffffffffffffff811115613a5f577f4e487b7100000000000000000000000000000000000000000000000000000000600052604160045260246000fd5b6040519080825280601f01601f191660200182016040528015613a915781602001600182028036833780820191505090505b509050600082602001820190505b600115613b24578080600190039150507f3031323334353637383961626364656600000000000000000000000000000000600a86061a8153600a8581613b0e577f4e487b7100000000000000000000000000000000000000000000000000000000600052601260045260246000fd5b0494506000851415613b1f57613b24565b613a9f565b819350505050919050565b60007f01ffc9a7000000000000000000000000000000000000000000000000000000007bffffffffffffffffffffffffffffffffffffffffffffffffffffffff1916827bffffffffffffffffffffffffffffffffffffffffffffffffffffffff1916149050919050565b6000808273ffffffffffffffffffffffffffffffffffffffff163b119050919050565b600080600090507a184f03e93ff9f4daa797ed6e38ed64bf6a1f0100000000000000008310613c40577a184f03e93ff9f4daa797ed6e38ed64bf6a1f0100000000000000008381613c36577f4e487b7100000000000000000000000000000000000000000000000000000000600052601260045260246000fd5b0492506040810190505b6d04ee2d6d415b85acef81000000008310613ca3576d04ee2d6d415b85acef81000000008381613c99577f4e487b7100000000000000000000000000000000000000000000000000000000600052601260045260246000fd5b0492506020810190505b662386f26fc100008310613cf857662386f26fc100008381613cee577f4e487b7100000000000000000000000000000000000000000000000000000000600052601260045260246000fd5b0492506010810190505b6305f5e1008310613d47576305f5e1008381613d3d577f4e487b7100000000000000000000000000000000000000000000000000000000600052601260045260246000fd5b0492506008810190505b6127108310613d92576127108381613d88577f4e487b7100000000000000000000000000000000000000000000000000000000600052601260045260246000fd5b0492506004810190505b60648310613ddb5760648381613dd1577f4e487b7100000000000000000000000000000000000000000000000000000000600052601260045260246000fd5b0492506002810190505b600a8310613dea576001810190505b80915050919050565b828054613dff90615584565b90600052602060002090601f016020900481019282613e215760008555613e68565b82601f10613e3a57805160ff1916838001178555613e68565b82800160010185558215613e68579182015b82811115613e67578251825591602001919060010190613e4c565b5b509050613e759190613ec5565b5090565b6040518060c001604052806060815260200160008152602001600073ffffffffffffffffffffffffffffffffffffffff1681526020016000815260200160008152602001600081525090565b5b80821115613ede576000816000905550600101613ec6565b5090565b6000613ef5613ef08461527f565b61525a565b905082815260208101848484011115613f0d57600080fd5b613f18848285615542565b509392505050565b6000613f33613f2e846152b0565b61525a565b905082815260208101848484011115613f4b57600080fd5b613f56848285615542565b509392505050565b600081359050613f6d81615ec6565b92915050565b600081359050613f8281615edd565b92915050565b600081359050613f9781615ef4565b92915050565b600081359050613fac81615f0b565b92915050565b600081519050613fc181615f0b565b92915050565b600082601f830112613fd857600080fd5b8135613fe8848260208601613ee2565b91505092915050565b600082601f83011261400257600080fd5b8135614012848260208601613f20565b91505092915050565b60008135905061402a81615f22565b92915050565b60006020828403121561404257600080fd5b600061405084828501613f5e565b91505092915050565b60006020828403121561406b57600080fd5b600061407984828501613f73565b91505092915050565b6000806040838503121561409557600080fd5b60006140a385828601613f5e565b92505060206140b485828601613f5e565b9150509250929050565b6000806000606084860312156140d357600080fd5b60006140e186828701613f5e565b93505060206140f286828701613f5e565b92505060406141038682870161401b565b9150509250925092565b6000806000806080858703121561412357600080fd5b600061413187828801613f5e565b945050602061414287828801613f5e565b93505060406141538782880161401b565b925050606085013567ffffffffffffffff81111561417057600080fd5b61417c87828801613fc7565b91505092959194509250565b6000806040838503121561419b57600080fd5b60006141a985828601613f5e565b92505060206141ba85828601613f88565b9150509250929050565b600080604083850312156141d757600080fd5b60006141e585828601613f5e565b92505060206141f68582860161401b565b9150509250929050565b60008060006060848603121561421557600080fd5b600061422386828701613f5e565b93505060206142348682870161401b565b92505060406142458682870161401b565b9150509250925092565b60006020828403121561426157600080fd5b600061426f84828501613f9d565b91505092915050565b60006020828403121561428a57600080fd5b600061429884828501613fb2565b91505092915050565b600080600080608085870312156142b757600080fd5b600085013567ffffffffffffffff8111156142d157600080fd5b6142dd87828801613ff1565b94505060206142ee8782880161401b565b93505060406142ff8782880161401b565b92505060606143108782880161401b565b91505092959194509250565b60006020828403121561432e57600080fd5b600061433c8482850161401b565b91505092915050565b6000806000806080858703121561435b57600080fd5b60006143698782880161401b565b945050602061437a87828801613f5e565b935050604085013567ffffffffffffffff81111561439757600080fd5b6143a387828801613ff1565b92505060606143b48782880161401b565b91505092959194509250565b600080600080600060a086880312156143d857600080fd5b60006143e68882890161401b565b955050602086013567ffffffffffffffff81111561440357600080fd5b61440f88828901613ff1565b94505060406144208882890161401b565b935050606061443188828901613f88565b925050608061444288828901613f5e565b9150509295509295909350565b6000806040838503121561446257600080fd5b60006144708582860161401b565b92505060206144818582860161401b565b9150509250929050565b6000806000606084860312156144a057600080fd5b60006144ae8682870161401b565b93505060206144bf8682870161401b565b92505060406144d08682870161401b565b9150509250925092565b60006144e68383614b1f565b905092915050565b60006144fa8383614c31565b60208301905092915050565b61450f816154bc565b82525050565b61451e816154bc565b82525050565b600061452f82615301565b6145398185615347565b93508360208202850161454b856152e1565b8060005b85811015614587578484038952815161456885826144da565b94506145738361532d565b925060208a0199505060018101905061454f565b50829750879550505050505092915050565b60006145a48261530c565b6145ae8185615358565b93506145b9836152f1565b8060005b838110156145ea5781516145d188826144ee565b97506145dc8361533a565b9250506001810190506145bd565b5085935050505092915050565b614600816154e0565b82525050565b600061461182615317565b61461b8185615369565b935061462b818560208601615551565b614634816156ec565b840191505092915050565b600061464a82615322565b614654818561537a565b9350614664818560208601615551565b61466d816156ec565b840191505092915050565b600061468382615322565b61468d818561538b565b935061469d818560208601615551565b6146a6816156ec565b840191505092915050565b60006146bc82615322565b6146c6818561539c565b93506146d6818560208601615551565b80840191505092915050565b60006146ef60218361538b565b91506146fa826156fd565b604082019050919050565b6000614712602d8361538b565b915061471d8261574c565b604082019050919050565b600061473560218361538b565b91506147408261579b565b604082019050919050565b6000614758600f8361538b565b9150614763826157ea565b602082019050919050565b600061477b602c8361538b565b915061478682615813565b604082019050919050565b600061479e60328361538b565b91506147a982615862565b604082019050919050565b60006147c1602f8361538b565b91506147cc826158b1565b604082019050919050565b60006147e460208361538b565b91506147ef82615900565b602082019050919050565b600061480760268361538b565b915061481282615929565b604082019050919050565b600061482a60258361538b565b915061483582615978565b604082019050919050565b600061484d601c8361538b565b9150614858826159c7565b602082019050919050565b600061487060198361538b565b915061487b826159f0565b602082019050919050565b6000614893601f8361538b565b915061489e82615a19565b602082019050919050565b60006148b660298361538b565b91506148c182615a42565b604082019050919050565b60006148d960248361538b565b91506148e482615a91565b604082019050919050565b60006148fc60198361538b565b915061490782615ae0565b602082019050919050565b600061491f603b8361538b565b915061492a82615b09565b604082019050919050565b600061494260278361538b565b915061494d82615b58565b604082019050919050565b600061496560178361538b565b915061497082615ba7565b602082019050919050565b600061498860298361538b565b915061499382615bd0565b604082019050919050565b60006149ab602e8361538b565b91506149b682615c1f565b604082019050919050565b60006149ce60208361538b565b91506149d982615c6e565b602082019050919050565b60006149f160208361538b565b91506149fc82615c97565b602082019050919050565b6000614a14600e8361538b565b9150614a1f82615cc0565b602082019050919050565b6000614a3760288361538b565b9150614a4282615ce9565b604082019050919050565b6000614a5a60188361538b565b9150614a6582615d38565b602082019050919050565b6000614a7d60218361538b565b9150614a8882615d61565b604082019050919050565b6000614aa0603d8361538b565b9150614aab82615db0565b604082019050919050565b6000614ac3602b8361538b565b9150614ace82615dff565b604082019050919050565b6000614ae660198361538b565b9150614af182615e4e565b602082019050919050565b6000614b09602b8361538b565b9150614b1482615e77565b604082019050919050565b600060c0830160008301518482036000860152614b3c828261463f565b9150506020830151614b516020860182614c31565b506040830151614b646040860182614506565b506060830151614b776060860182614c31565b506080830151614b8a6080860182614c31565b5060a0830151614b9d60a0860182614c31565b508091505092915050565b600060c0830160008301518482036000860152614bc5828261463f565b9150506020830151614bda6020860182614c31565b506040830151614bed6040860182614506565b506060830151614c006060860182614c31565b506080830151614c136080860182614c31565b5060a0830151614c2660a0860182614c31565b508091505092915050565b614c3a81615538565b82525050565b614c4981615538565b82525050565b6000614c5b82856146b1565b9150614c6782846146b1565b91508190509392505050565b6000602082019050614c886000830184614515565b92915050565b6000608082019050614ca36000830187614515565b614cb06020830186614515565b614cbd6040830185614c40565b8181036060830152614ccf8184614606565b905095945050505050565b6000604082019050614cef6000830185614515565b614cfc6020830184614c40565b9392505050565b60006020820190508181036000830152614d1d8184614524565b905092915050565b60006020820190508181036000830152614d3f8184614599565b905092915050565b6000602082019050614d5c60008301846145f7565b92915050565b60006020820190508181036000830152614d7c8184614678565b905092915050565b60006020820190508181036000830152614d9d816146e2565b9050919050565b60006020820190508181036000830152614dbd81614705565b9050919050565b60006020820190508181036000830152614ddd81614728565b9050919050565b60006020820190508181036000830152614dfd8161474b565b9050919050565b60006020820190508181036000830152614e1d8161476e565b9050919050565b60006020820190508181036000830152614e3d81614791565b9050919050565b60006020820190508181036000830152614e5d816147b4565b9050919050565b60006020820190508181036000830152614e7d816147d7565b9050919050565b60006020820190508181036000830152614e9d816147fa565b9050919050565b60006020820190508181036000830152614ebd8161481d565b9050919050565b60006020820190508181036000830152614edd81614840565b9050919050565b60006020820190508181036000830152614efd81614863565b9050919050565b60006020820190508181036000830152614f1d81614886565b9050919050565b60006020820190508181036000830152614f3d816148a9565b9050919050565b60006020820190508181036000830152614f5d816148cc565b9050919050565b60006020820190508181036000830152614f7d816148ef565b9050919050565b60006020820190508181036000830152614f9d81614912565b9050919050565b60006020820190508181036000830152614fbd81614935565b9050919050565b60006020820190508181036000830152614fdd81614958565b9050919050565b60006020820190508181036000830152614ffd8161497b565b9050919050565b6000602082019050818103600083015261501d8161499e565b9050919050565b6000602082019050818103600083015261503d816149c1565b9050919050565b6000602082019050818103600083015261505d816149e4565b9050919050565b6000602082019050818103600083015261507d81614a07565b9050919050565b6000602082019050818103600083015261509d81614a2a565b9050919050565b600060208201905081810360008301526150bd81614a4d565b9050919050565b600060208201905081810360008301526150dd81614a70565b9050919050565b600060208201905081810360008301526150fd81614a93565b9050919050565b6000602082019050818103600083015261511d81614ab6565b9050919050565b6000602082019050818103600083015261513d81614ad9565b9050919050565b6000602082019050818103600083015261515d81614afc565b9050919050565b6000602082019050818103600083015261517e8184614ba8565b905092915050565b600060208201905061519b6000830184614c40565b92915050565b60006040820190506151b66000830185614c40565b6151c36020830184614515565b9392505050565b60006040820190506151df6000830185614c40565b81810360208301526151f18184614678565b90509392505050565b600060408201905061520f6000830185614c40565b61521c6020830184614c40565b9392505050565b60006060820190506152386000830186614c40565b6152456020830185614c40565b6152526040830184614515565b949350505050565b6000615264615275565b905061527082826155b6565b919050565b6000604051905090565b600067ffffffffffffffff82111561529a576152996156bd565b5b6152a3826156ec565b9050602081019050919050565b600067ffffffffffffffff8211156152cb576152ca6156bd565b5b6152d4826156ec565b9050602081019050919050565b6000819050602082019050919050565b6000819050602082019050919050565b600081519050919050565b600081519050919050565b600081519050919050565b600081519050919050565b6000602082019050919050565b6000602082019050919050565b600082825260208201905092915050565b600082825260208201905092915050565b600082825260208201905092915050565b600082825260208201905092915050565b600082825260208201905092915050565b600081905092915050565b60006153b282615538565b91506153bd83615538565b9250827fffffffffffffffffffffffffffffffffffffffffffffffffffffffffffffffff038211156153f2576153f1615630565b5b828201905092915050565b600061540882615538565b915061541383615538565b9250826154235761542261565f565b5b828204905092915050565b600061543982615538565b915061544483615538565b9250817fffffffffffffffffffffffffffffffffffffffffffffffffffffffffffffffff048311821515161561547d5761547c615630565b5b828202905092915050565b600061549382615538565b915061549e83615538565b9250828210156154b1576154b0615630565b5b828203905092915050565b60006154c782615518565b9050919050565b60006154d982615518565b9050919050565b60008115159050919050565b60007fffffffff0000000000000000000000000000000000000000000000000000000082169050919050565b600073ffffffffffffffffffffffffffffffffffffffff82169050919050565b6000819050919050565b82818337600083830152505050565b60005b8381101561556f578082015181840152602081019050615554565b8381111561557e576000848401525b50505050565b6000600282049050600182168061559c57607f821691505b602082108114156155b0576155af61568e565b5b50919050565b6155bf826156ec565b810181811067ffffffffffffffff821117156155de576155dd6156bd565b5b80604052505050565b60006155f282615538565b91507fffffffffffffffffffffffffffffffffffffffffffffffffffffffffffffffff82141561562557615624615630565b5b600182019050919050565b7f4e487b7100000000000000000000000000000000000000000000000000000000600052601160045260246000fd5b7f4e487b7100000000000000000000000000000000000000000000000000000000600052601260045260246000fd5b7f4e487b7100000000000000000000000000000000000000000000000000000000600052602260045260246000fd5b7f4e487b7100000000000000000000000000000000000000000000000000000000600052604160045260246000fd5b6000601f19601f8301169050919050565b7f43616e206e6f74206d696e7420746f207075626c696320436f6c6c656374696f60008201527f6e00000000000000000000000000000000000000000000000000000000000000602082015250565b7f4552433732313a2063616c6c6572206973206e6f7420746f6b656e206f776e6560008201527f72206f7220617070726f76656400000000000000000000000000000000000000602082015250565b7f4f776e65722063616e206e6f74206275792066726f6d20636f6c6c656374696f60008201527f6e00000000000000000000000000000000000000000000000000000000000000602082015250565b7f496e76616c696420616464726573730000000000000000000000000000000000600082015250565b7f4d7573742077616974206265666f7265206372656174696e6720616e6f74686560008201527f7220636f6c6c656374696f6e0000000000000000000000000000000000000000602082015250565b7f4552433732313a207472616e7366657220746f206e6f6e20455243373231526560008201527f63656976657220696d706c656d656e7465720000000000000000000000000000602082015250565b7f50726963652073686f756c6420626520657175616c20746f20636f6c6c65637460008201527f696f6e73206d696e742070726963650000000000000000000000000000000000602082015250565b7f5072696365206d757374206265206174206c65617374204d494e5f5052494345600082015250565b7f4f776e61626c653a206e6577206f776e657220697320746865207a65726f206160008201527f6464726573730000000000000000000000000000000000000000000000000000602082015250565b7f4552433732313a207472616e736665722066726f6d20696e636f72726563742060008201527f6f776e6572000000000000000000000000000000000000000000000000000000602082015250565b7f4552433732313a20746f6b656e20616c7265616479206d696e74656400000000600082015250565b7f436f6c6c656374696f6e20646f6573206e6f7420657869737400000000000000600082015250565b7f4e6f7420746865206f776e6572206f662074686520636f6c6c656374696f6e00600082015250565b7f4e6577206d696e74207072696365206d757374206265206174206c656173742060008201527f4d494e5f50524943450000000000000000000000000000000000000000000000602082015250565b7f4552433732313a207472616e7366657220746f20746865207a65726f2061646460008201527f7265737300000000000000000000000000000000000000000000000000000000602082015250565b7f4552433732313a20617070726f766520746f2063616c6c657200000000000000600082015250565b7f43616e6e6f74206d696e7420746f206d61726b6574706c616365207768656e2060008201527f61697264726f7020616464726573732069732070726f76696465640000000000602082015250565b7f546f6b656e20646f6573206e6f742062656c6f6e6720746f20616e7920636f6c60008201527f6c656374696f6e00000000000000000000000000000000000000000000000000602082015250565b7f4d617820636f6c6c656374696f6e732072656163686564000000000000000000600082015250565b7f4552433732313a2061646472657373207a65726f206973206e6f74206120766160008201527f6c6964206f776e65720000000000000000000000000000000000000000000000602082015250565b7f45524337323155524953746f726167653a2055524920736574206f66206e6f6e60008201527f6578697374656e7420746f6b656e000000000000000000000000000000000000602082015250565b7f4552433732313a206d696e7420746f20746865207a65726f2061646472657373600082015250565b7f4f776e61626c653a2063616c6c6572206973206e6f7420746865206f776e6572600082015250565b7f496e76616c6964206f6666736574000000000000000000000000000000000000600082015250565b7f4d61726b6574706c61636520616464726573732068617320616c72656164792060008201527f6265656e20736574000000000000000000000000000000000000000000000000602082015250565b7f4552433732313a20696e76616c696420746f6b656e2049440000000000000000600082015250565b7f4552433732313a20617070726f76616c20746f2063757272656e74206f776e6560008201527f7200000000000000000000000000000000000000000000000000000000000000602082015250565b7f4552433732313a20617070726f76652063616c6c6572206973206e6f7420746f60008201527f6b656e206f776e6572206f7220617070726f76656420666f7220616c6c000000602082015250565b7f436f6c6c656374696f6e206973206e6f742079657420617661696c61626c652060008201527f666f72206d696e74696e67000000000000000000000000000000000000000000602082015250565b7f4f6e6c79206d61726b6574706c6163652063616e2063616c6c00000000000000600082015250565b7f526f79616c746965732070657263656e746167652073686f756c64206265206c60008201527f657373207468616e203130000000000000000000000000000000000000000000602082015250565b615ecf816154bc565b8114615eda57600080fd5b50565b615ee6816154ce565b8114615ef157600080fd5b50565b615efd816154e0565b8114615f0857600080fd5b50565b615f14816154ec565b8114615f1f57600080fd5b50565b615f2b81615538565b8114615f3657600080fd5b5056fea264697066735822122045e9c53a35cfbdf153a821c0ccb953edbb18a268a6fb77573e8b0b3b0c31a02d64736f6c63430008010033",
  "linkReferences": {},
  "deployedLinkReferences": {}
}