{
  "_format": "hh-sol-artifact-1",
  "contractName": "ERC721Collections",
  "sourceName": "contracts/ERC721Collections.sol",
  "abi": [
    {
      "inputs": [
        {
          "internalType": "string",
          "name": "publicCollectionURI",
          "type": "string"
        }
      ],
      "stateMutability": "nonpayable",
      "type": "constructor"
    },
    {
      "anonymous": false,
      "inputs": [
        {
          "indexed": true,
          "internalType": "address",
          "name": "owner",
          "type": "address"
        },
        {
          "indexed": true,
          "internalType": "address",
          "name": "approved",
          "type": "address"
        },
        {
          "indexed": true,
          "internalType": "uint256",
          "name": "tokenId",
          "type": "uint256"
        }
      ],
      "name": "Approval",
      "type": "event"
    },
    {
      "anonymous": false,
      "inputs": [
        {
          "indexed": true,
          "internalType": "address",
          "name": "owner",
          "type": "address"
        },
        {
          "indexed": true,
          "internalType": "address",
          "name": "operator",
          "type": "address"
        },
        {
          "indexed": false,
          "internalType": "bool",
          "name": "approved",
          "type": "bool"
        }
      ],
      "name": "ApprovalForAll",
      "type": "event"
    },
    {
      "anonymous": false,
      "inputs": [
        {
          "indexed": false,
          "internalType": "uint256",
          "name": "_fromTokenId",
          "type": "uint256"
        },
        {
          "indexed": false,
          "internalType": "uint256",
          "name": "_toTokenId",
          "type": "uint256"
        }
      ],
      "name": "BatchMetadataUpdate",
      "type": "event"
    },
    {
      "anonymous": false,
      "inputs": [
        {
          "indexed": false,
          "internalType": "uint256",
          "name": "id",
          "type": "uint256"
        },
        {
          "indexed": false,
          "internalType": "string",
          "name": "uri",
          "type": "string"
        }
      ],
      "name": "CollectionCreated",
      "type": "event"
    },
    {
      "anonymous": false,
      "inputs": [
        {
          "indexed": false,
          "internalType": "uint256",
          "name": "_tokenId",
          "type": "uint256"
        }
      ],
      "name": "MetadataUpdate",
      "type": "event"
    },
    {
      "anonymous": false,
      "inputs": [
        {
          "indexed": false,
          "internalType": "uint256",
          "name": "collectionId",
          "type": "uint256"
        },
        {
          "indexed": false,
          "internalType": "uint256",
          "name": "newMintPrice",
          "type": "uint256"
        }
      ],
      "name": "MintPriceChanged",
      "type": "event"
    },
    {
      "anonymous": false,
      "inputs": [
        {
          "indexed": true,
          "internalType": "address",
          "name": "previousOwner",
          "type": "address"
        },
        {
          "indexed": true,
          "internalType": "address",
          "name": "newOwner",
          "type": "address"
        }
      ],
      "name": "OwnershipTransferred",
      "type": "event"
    },
    {
      "anonymous": false,
      "inputs": [
        {
          "indexed": false,
          "internalType": "uint256",
          "name": "tokenId",
          "type": "uint256"
        },
        {
          "indexed": false,
          "internalType": "uint256",
          "name": "price",
          "type": "uint256"
        }
      ],
      "name": "PriceSet",
      "type": "event"
    },
    {
      "anonymous": false,
      "inputs": [
        {
          "indexed": false,
          "internalType": "uint256",
          "name": "tokenId",
          "type": "uint256"
        },
        {
          "indexed": false,
          "internalType": "uint256",
          "name": "collectionId",
          "type": "uint256"
        }
      ],
      "name": "TokenMinted",
      "type": "event"
    },
    {
      "anonymous": false,
      "inputs": [
        {
          "indexed": true,
          "internalType": "address",
          "name": "from",
          "type": "address"
        },
        {
          "indexed": true,
          "internalType": "address",
          "name": "to",
          "type": "address"
        },
        {
          "indexed": true,
          "internalType": "uint256",
          "name": "tokenId",
          "type": "uint256"
        }
      ],
      "name": "Transfer",
      "type": "event"
    },
    {
      "inputs": [],
      "name": "MIN_PRICE",
      "outputs": [
        {
          "internalType": "uint256",
          "name": "",
          "type": "uint256"
        }
      ],
      "stateMutability": "view",
      "type": "function"
    },
    {
      "inputs": [
        {
          "internalType": "address",
          "name": "to",
          "type": "address"
        },
        {
          "internalType": "uint256",
          "name": "tokenId",
          "type": "uint256"
        }
      ],
      "name": "approve",
      "outputs": [],
      "stateMutability": "nonpayable",
      "type": "function"
    },
    {
      "inputs": [
        {
          "internalType": "address",
          "name": "owner",
          "type": "address"
        }
      ],
      "name": "balanceOf",
      "outputs": [
        {
          "internalType": "uint256",
          "name": "",
          "type": "uint256"
        }
      ],
      "stateMutability": "view",
      "type": "function"
    },
    {
      "inputs": [
        {
          "internalType": "uint256",
          "name": "collectionId",
          "type": "uint256"
        },
        {
          "internalType": "uint256",
          "name": "newMintPrice",
          "type": "uint256"
        }
      ],
      "name": "changeMintPrice",
      "outputs": [],
      "stateMutability": "nonpayable",
      "type": "function"
    },
    {
      "inputs": [
        {
          "internalType": "address",
          "name": "",
          "type": "address"
        }
      ],
      "name": "collectionsCreated",
      "outputs": [
        {
          "internalType": "uint256",
          "name": "",
          "type": "uint256"
        }
      ],
      "stateMutability": "view",
      "type": "function"
    },
    {
      "inputs": [
        {
          "internalType": "string",
          "name": "uri",
          "type": "string"
        },
        {
          "internalType": "uint256",
          "name": "mintDate",
          "type": "uint256"
        },
        {
          "internalType": "uint256",
          "name": "mintPrice",
          "type": "uint256"
        },
        {
          "internalType": "uint256",
          "name": "royaltyPercent",
          "type": "uint256"
        }
      ],
      "name": "createCollection",
      "outputs": [
        {
          "internalType": "uint256",
          "name": "",
          "type": "uint256"
        }
      ],
      "stateMutability": "nonpayable",
      "type": "function"
    },
    {
      "inputs": [
        {
          "internalType": "uint256",
          "name": "offset",
          "type": "uint256"
        },
        {
          "internalType": "uint256",
          "name": "limit",
          "type": "uint256"
        }
      ],
      "name": "getAllCollections",
      "outputs": [
        {
          "components": [
            {
              "internalType": "string",
              "name": "uri",
              "type": "string"
            },
            {
              "internalType": "uint256",
              "name": "id",
              "type": "uint256"
            },
            {
              "internalType": "address",
              "name": "owner",
              "type": "address"
            },
            {
              "internalType": "uint256",
              "name": "mintDate",
              "type": "uint256"
            },
            {
              "internalType": "uint256",
              "name": "mintPrice",
              "type": "uint256"
            },
            {
              "internalType": "uint256",
              "name": "royaltyPercent",
              "type": "uint256"
            }
          ],
          "internalType": "struct ERC721Collections.Collection[]",
          "name": "",
          "type": "tuple[]"
        }
      ],
      "stateMutability": "view",
      "type": "function"
    },
    {
      "inputs": [
        {
          "internalType": "uint256",
          "name": "tokenId",
          "type": "uint256"
        }
      ],
      "name": "getApproved",
      "outputs": [
        {
          "internalType": "address",
          "name": "",
          "type": "address"
        }
      ],
      "stateMutability": "view",
      "type": "function"
    },
    {
      "inputs": [
        {
          "internalType": "uint256",
          "name": "id",
          "type": "uint256"
        }
      ],
      "name": "getCollection",
      "outputs": [
        {
          "components": [
            {
              "internalType": "string",
              "name": "uri",
              "type": "string"
            },
            {
              "internalType": "uint256",
              "name": "id",
              "type": "uint256"
            },
            {
              "internalType": "address",
              "name": "owner",
              "type": "address"
            },
            {
              "internalType": "uint256",
              "name": "mintDate",
              "type": "uint256"
            },
            {
              "internalType": "uint256",
              "name": "mintPrice",
              "type": "uint256"
            },
            {
              "internalType": "uint256",
              "name": "royaltyPercent",
              "type": "uint256"
            }
          ],
          "internalType": "struct ERC721Collections.Collection",
          "name": "",
          "type": "tuple"
        }
      ],
      "stateMutability": "view",
      "type": "function"
    },
    {
      "inputs": [
        {
          "internalType": "uint256",
          "name": "tokenId",
          "type": "uint256"
        }
      ],
      "name": "getCollectionOfToken",
      "outputs": [
        {
          "components": [
            {
              "internalType": "string",
              "name": "uri",
              "type": "string"
            },
            {
              "internalType": "uint256",
              "name": "id",
              "type": "uint256"
            },
            {
              "internalType": "address",
              "name": "owner",
              "type": "address"
            },
            {
              "internalType": "uint256",
              "name": "mintDate",
              "type": "uint256"
            },
            {
              "internalType": "uint256",
              "name": "mintPrice",
              "type": "uint256"
            },
            {
              "internalType": "uint256",
              "name": "royaltyPercent",
              "type": "uint256"
            }
          ],
          "internalType": "struct ERC721Collections.Collection",
          "name": "",
          "type": "tuple"
        }
      ],
      "stateMutability": "view",
      "type": "function"
    },
    {
      "inputs": [
        {
          "internalType": "uint256",
          "name": "collectionId",
          "type": "uint256"
        }
      ],
      "name": "getCollectionOwner",
      "outputs": [
        {
          "internalType": "address",
          "name": "",
          "type": "address"
        }
      ],
      "stateMutability": "view",
      "type": "function"
    },
    {
      "inputs": [
        {
          "internalType": "address",
          "name": "owner",
          "type": "address"
        },
        {
          "internalType": "uint256",
          "name": "offset",
          "type": "uint256"
        },
        {
          "internalType": "uint256",
          "name": "limit",
          "type": "uint256"
        }
      ],
      "name": "getCollectionsForOwner",
      "outputs": [
        {
          "components": [
            {
              "internalType": "string",
              "name": "uri",
              "type": "string"
            },
            {
              "internalType": "uint256",
              "name": "id",
              "type": "uint256"
            },
            {
              "internalType": "address",
              "name": "owner",
              "type": "address"
            },
            {
              "internalType": "uint256",
              "name": "mintDate",
              "type": "uint256"
            },
            {
              "internalType": "uint256",
              "name": "mintPrice",
              "type": "uint256"
            },
            {
              "internalType": "uint256",
              "name": "royaltyPercent",
              "type": "uint256"
            }
          ],
          "internalType": "struct ERC721Collections.Collection[]",
          "name": "",
          "type": "tuple[]"
        }
      ],
      "stateMutability": "view",
      "type": "function"
    },
    {
      "inputs": [
        {
          "internalType": "uint256",
          "name": "collectionId",
          "type": "uint256"
        },
        {
          "internalType": "uint256",
          "name": "startIndex",
          "type": "uint256"
        },
        {
          "internalType": "uint256",
          "name": "pageSize",
          "type": "uint256"
        }
      ],
      "name": "getNFTsInCollection",
      "outputs": [
        {
          "internalType": "uint256[]",
          "name": "",
          "type": "uint256[]"
        }
      ],
      "stateMutability": "view",
      "type": "function"
    },
    {
      "inputs": [
        {
          "internalType": "address",
          "name": "owner",
          "type": "address"
        },
        {
          "internalType": "address",
          "name": "operator",
          "type": "address"
        }
      ],
      "name": "isApprovedForAll",
      "outputs": [
        {
          "internalType": "bool",
          "name": "",
          "type": "bool"
        }
      ],
      "stateMutability": "view",
      "type": "function"
    },
    {
      "inputs": [
        {
          "internalType": "address",
          "name": "",
          "type": "address"
        }
      ],
      "name": "lastCollectionTimestamp",
      "outputs": [
        {
          "internalType": "uint256",
          "name": "",
          "type": "uint256"
        }
      ],
      "stateMutability": "view",
      "type": "function"
    },
    {
      "inputs": [
        {
          "internalType": "uint256",
          "name": "collectionId",
          "type": "uint256"
        },
        {
          "internalType": "string",
          "name": "tokenURI",
          "type": "string"
        },
        {
          "internalType": "uint256",
          "name": "price",
          "type": "uint256"
        },
        {
          "internalType": "bool",
          "name": "isMintToMarketplace",
          "type": "bool"
        }
      ],
      "name": "mint",
      "outputs": [
        {
          "internalType": "uint256",
          "name": "",
          "type": "uint256"
        }
      ],
      "stateMutability": "nonpayable",
      "type": "function"
    },
    {
      "inputs": [
        {
          "internalType": "uint256",
          "name": "collectionId",
          "type": "uint256"
        },
        {
          "internalType": "address",
          "name": "to",
          "type": "address"
        },
        {
          "internalType": "string",
          "name": "tokenURI",
          "type": "string"
        },
        {
          "internalType": "uint256",
          "name": "price",
          "type": "uint256"
        }
      ],
      "name": "mintToCollection",
      "outputs": [
        {
          "internalType": "uint256",
          "name": "tokenId",
          "type": "uint256"
        },
        {
          "internalType": "address",
          "name": "collectionOwner",
          "type": "address"
        }
      ],
      "stateMutability": "payable",
      "type": "function"
    },
    {
      "inputs": [],
      "name": "name",
      "outputs": [
        {
          "internalType": "string",
          "name": "",
          "type": "string"
        }
      ],
      "stateMutability": "view",
      "type": "function"
    },
    {
      "inputs": [],
      "name": "owner",
      "outputs": [
        {
          "internalType": "address",
          "name": "",
          "type": "address"
        }
      ],
      "stateMutability": "view",
      "type": "function"
    },
    {
      "inputs": [
        {
          "internalType": "uint256",
          "name": "tokenId",
          "type": "uint256"
        }
      ],
      "name": "ownerOf",
      "outputs": [
        {
          "internalType": "address",
          "name": "",
          "type": "address"
        }
      ],
      "stateMutability": "view",
      "type": "function"
    },
    {
      "inputs": [],
      "name": "renounceOwnership",
      "outputs": [],
      "stateMutability": "nonpayable",
      "type": "function"
    },
    {
      "inputs": [
        {
          "internalType": "uint256",
          "name": "tokenId",
          "type": "uint256"
        },
        {
          "internalType": "uint256",
          "name": "salePrice",
          "type": "uint256"
        }
      ],
      "name": "royaltyInfo",
      "outputs": [
        {
          "internalType": "address",
          "name": "receiver",
          "type": "address"
        },
        {
          "internalType": "uint256",
          "name": "royaltyAmount",
          "type": "uint256"
        }
      ],
      "stateMutability": "view",
      "type": "function"
    },
    {
      "inputs": [
        {
          "internalType": "address",
          "name": "from",
          "type": "address"
        },
        {
          "internalType": "address",
          "name": "to",
          "type": "address"
        },
        {
          "internalType": "uint256",
          "name": "tokenId",
          "type": "uint256"
        }
      ],
      "name": "safeTransferFrom",
      "outputs": [],
      "stateMutability": "nonpayable",
      "type": "function"
    },
    {
      "inputs": [
        {
          "internalType": "address",
          "name": "from",
          "type": "address"
        },
        {
          "internalType": "address",
          "name": "to",
          "type": "address"
        },
        {
          "internalType": "uint256",
          "name": "tokenId",
          "type": "uint256"
        },
        {
          "internalType": "bytes",
          "name": "data",
          "type": "bytes"
        }
      ],
      "name": "safeTransferFrom",
      "outputs": [],
      "stateMutability": "nonpayable",
      "type": "function"
    },
    {
      "inputs": [
        {
          "internalType": "address",
          "name": "operator",
          "type": "address"
        },
        {
          "internalType": "bool",
          "name": "approved",
          "type": "bool"
        }
      ],
      "name": "setApprovalForAll",
      "outputs": [],
      "stateMutability": "nonpayable",
      "type": "function"
    },
    {
      "inputs": [
        {
          "internalType": "address payable",
          "name": "marketplaceAddress",
          "type": "address"
        }
      ],
      "name": "setMarketplace",
      "outputs": [],
      "stateMutability": "nonpayable",
      "type": "function"
    },
    {
      "inputs": [
        {
          "internalType": "bytes4",
          "name": "interfaceId",
          "type": "bytes4"
        }
      ],
      "name": "supportsInterface",
      "outputs": [
        {
          "internalType": "bool",
          "name": "",
          "type": "bool"
        }
      ],
      "stateMutability": "view",
      "type": "function"
    },
    {
      "inputs": [],
      "name": "symbol",
      "outputs": [
        {
          "internalType": "string",
          "name": "",
          "type": "string"
        }
      ],
      "stateMutability": "view",
      "type": "function"
    },
    {
      "inputs": [
        {
          "internalType": "uint256",
          "name": "tokenId",
          "type": "uint256"
        }
      ],
      "name": "tokenURI",
      "outputs": [
        {
          "internalType": "string",
          "name": "",
          "type": "string"
        }
      ],
      "stateMutability": "view",
      "type": "function"
    },
    {
      "inputs": [
        {
          "internalType": "address",
          "name": "from",
          "type": "address"
        },
        {
          "internalType": "address",
          "name": "to",
          "type": "address"
        },
        {
          "internalType": "uint256",
          "name": "tokenId",
          "type": "uint256"
        }
      ],
      "name": "transferFrom",
      "outputs": [],
      "stateMutability": "nonpayable",
      "type": "function"
    },
    {
      "inputs": [
        {
          "internalType": "address",
          "name": "newOwner",
          "type": "address"
        }
      ],
      "name": "transferOwnership",
      "outputs": [],
      "stateMutability": "nonpayable",
      "type": "function"
    }
  ],
  "bytecode": "0x60806040523480156200001157600080fd5b50604051620069d3380380620069d38339818101604052810190620000379190620006d8565b6040518060400160405280601181526020017f455243373231436f6c6c656374696f6e730000000000000000000000000000008152506040518060400160405280600381526020017f53545200000000000000000000000000000000000000000000000000000000008152508160009080519060200190620000bb929190620005b6565b508060019080519060200190620000d4929190620005b6565b505050620000f7620000eb6200012b60201b60201c565b6200013360201b60201c565b6200010c8142600080620001f960201b60201c565b506200012460086200059260201b62002ad81760201c565b5062000bb5565b600033905090565b6000600760009054906101000a900473ffffffffffffffffffffffffffffffffffffffff16905081600760006101000a81548173ffffffffffffffffffffffffffffffffffffffff021916908373ffffffffffffffffffffffffffffffffffffffff1602179055508173ffffffffffffffffffffffffffffffffffffffff168173ffffffffffffffffffffffffffffffffffffffff167f8be0079c531659141344cd1fd0a4f28419497f9722a3daafe3b4186f6b6457e060405160405180910390a35050565b60006103e7600e60003373ffffffffffffffffffffffffffffffffffffffff1673ffffffffffffffffffffffffffffffffffffffff168152602001908152602001600020541062000281576040517f08c379a0000000000000000000000000000000000000000000000000000000008152600401620002789062000806565b60405180910390fd5b42603c600f60003373ffffffffffffffffffffffffffffffffffffffff1673ffffffffffffffffffffffffffffffffffffffff16815260200190815260200160002054620002d09190620008f9565b111562000314576040517f08c379a00000000000000000000000000000000000000000000000000000000081526004016200030b90620007e4565b60405180910390fd5b600a8211156200035b576040517f08c379a0000000000000000000000000000000000000000000000000000000008152600401620003529062000828565b60405180910390fd5b6200037260096200059260201b62002ad81760201c565b6040518060c001604052808681526020016200039a6009620005a860201b62002aee1760201c565b81526020013373ffffffffffffffffffffffffffffffffffffffff16815260200185815260200184815260200183815250600b6000620003e66009620005a860201b62002aee1760201c565b8152602001908152602001600020600082015181600001908051906020019062000412929190620005b6565b506020820151816001015560408201518160020160006101000a81548173ffffffffffffffffffffffffffffffffffffffff021916908373ffffffffffffffffffffffffffffffffffffffff160217905550606082015181600301556080820151816004015560a08201518160050155905050600e60003373ffffffffffffffffffffffffffffffffffffffff1673ffffffffffffffffffffffffffffffffffffffff1681526020019081526020016000206000815480929190620004d79062000a02565b919050555042600f60003373ffffffffffffffffffffffffffffffffffffffff1673ffffffffffffffffffffffffffffffffffffffff168152602001908152602001600020819055507f62b7b5ba11bfc95430fab0460fdf99b9c8fbc2b3a6a48caf79c3ee1b591c0336620005586009620005a860201b62002aee1760201c565b86604051620005699291906200084a565b60405180910390a1620005886009620005a860201b62002aee1760201c565b9050949350505050565b6001816000016000828254019250508190555050565b600081600001549050919050565b828054620005c49062000996565b90600052602060002090601f016020900481019282620005e8576000855562000634565b82601f106200060357805160ff191683800117855562000634565b8280016001018555821562000634579182015b828111156200063357825182559160200191906001019062000616565b5b50905062000643919062000647565b5090565b5b808211156200066257600081600090555060010162000648565b5090565b60006200067d6200067784620008a7565b6200087e565b9050828152602081018484840111156200069657600080fd5b620006a384828562000960565b509392505050565b600082601f830112620006bd57600080fd5b8151620006cf84826020860162000666565b91505092915050565b600060208284031215620006eb57600080fd5b600082015167ffffffffffffffff8111156200070657600080fd5b6200071484828501620006ab565b91505092915050565b60006200072a82620008dd565b620007368185620008e8565b93506200074881856020860162000960565b620007538162000add565b840191505092915050565b60006200076d602c83620008e8565b91506200077a8262000aee565b604082019050919050565b600062000794601783620008e8565b9150620007a18262000b3d565b602082019050919050565b6000620007bb602b83620008e8565b9150620007c88262000b66565b604082019050919050565b620007de8162000956565b82525050565b60006020820190508181036000830152620007ff816200075e565b9050919050565b60006020820190508181036000830152620008218162000785565b9050919050565b600060208201905081810360008301526200084381620007ac565b9050919050565b6000604082019050620008616000830185620007d3565b81810360208301526200087581846200071d565b90509392505050565b60006200088a6200089d565b9050620008988282620009cc565b919050565b6000604051905090565b600067ffffffffffffffff821115620008c557620008c462000aae565b5b620008d08262000add565b9050602081019050919050565b600081519050919050565b600082825260208201905092915050565b6000620009068262000956565b9150620009138362000956565b9250827fffffffffffffffffffffffffffffffffffffffffffffffffffffffffffffffff038211156200094b576200094a62000a50565b5b828201905092915050565b6000819050919050565b60005b838110156200098057808201518184015260208101905062000963565b8381111562000990576000848401525b50505050565b60006002820490506001821680620009af57607f821691505b60208210811415620009c657620009c562000a7f565b5b50919050565b620009d78262000add565b810181811067ffffffffffffffff82111715620009f957620009f862000aae565b5b80604052505050565b600062000a0f8262000956565b91507fffffffffffffffffffffffffffffffffffffffffffffffffffffffffffffffff82141562000a455762000a4462000a50565b5b600182019050919050565b7f4e487b7100000000000000000000000000000000000000000000000000000000600052601160045260246000fd5b7f4e487b7100000000000000000000000000000000000000000000000000000000600052602260045260246000fd5b7f4e487b7100000000000000000000000000000000000000000000000000000000600052604160045260246000fd5b6000601f19601f8301169050919050565b7f4d7573742077616974206265666f7265206372656174696e6720616e6f74686560008201527f7220636f6c6c656374696f6e0000000000000000000000000000000000000000602082015250565b7f4d617820636f6c6c656374696f6e732072656163686564000000000000000000600082015250565b7f526f79616c746965732070657263656e746167652073686f756c64206265206c60008201527f657373207468616e203130000000000000000000000000000000000000000000602082015250565b615e0e8062000bc56000396000f3fe6080604052600436106101d85760003560e01c8063715018a611610102578063ad9f20a611610095578063d08b28ea11610064578063d08b28ea14610747578063da0277fd14610784578063e985e9c5146107c1578063f2fde38b146107fe576101d8565b8063ad9f20a614610679578063b88d4fde146106a4578063bd6fbad9146106cd578063c87b56dd1461070a576101d8565b80638da5cb5b116100d15780638da5cb5b146105bd57806394ec1db3146105e857806395d89b4114610625578063a22cb46514610650576101d8565b8063715018a61461050357806373ad6c2d1461051a578063822f3e5d1461054357806382a17cdb14610580576101d8565b8063394120c01161017a5780636313a3e8116101495780636313a3e81461042f5780636352211e1461046057806370342d0c1461049d57806370a08231146104c6576101d8565b8063394120c01461034f57806342842e0e1461038c57806344ce938e146103b55780635a1f3c28146103f2576101d8565b8063095ea7b3116101b6578063095ea7b314610282578063118970ee146102ab57806323b872dd146102e85780632a55205a14610311576101d8565b806301ffc9a7146101dd57806306fdde031461021a578063081812fc14610245575b600080fd5b3480156101e957600080fd5b5061020460048036038101906101ff9190614194565b610827565b6040516102119190614c55565b60405180910390f35b34801561022657600080fd5b5061022f6108a1565b60405161023c9190614c70565b60405180910390f35b34801561025157600080fd5b5061026c60048036038101906102679190614261565b610933565b6040516102799190614b81565b60405180910390f35b34801561028e57600080fd5b506102a960048036038101906102a49190614109565b610979565b005b3480156102b757600080fd5b506102d260048036038101906102cd9190614305565b610a91565b6040516102df9190615074565b60405180910390f35b3480156102f457600080fd5b5061030f600480360381019061030a9190614003565b610dcd565b005b34801561031d57600080fd5b5061033860048036038101906103339190614380565b610e2d565b604051610346929190614be8565b60405180910390f35b34801561035b57600080fd5b5061037660048036038101906103719190614261565b610e70565b6040516103839190614b81565b60405180910390f35b34801561039857600080fd5b506103b360048036038101906103ae9190614003565b610eb0565b005b3480156103c157600080fd5b506103dc60048036038101906103d791906141e6565b610ed0565b6040516103e99190615074565b60405180910390f35b3480156103fe57600080fd5b5061041960048036038101906104149190614261565b611217565b6040516104269190615052565b60405180910390f35b6104496004803603810190610444919061428a565b611354565b60405161045792919061508f565b60405180910390f35b34801561046c57600080fd5b5061048760048036038101906104829190614261565b6116ee565b6040516104949190614b81565b60405180910390f35b3480156104a957600080fd5b506104c460048036038101906104bf9190614380565b611775565b005b3480156104d257600080fd5b506104ed60048036038101906104e89190613f75565b611915565b6040516104fa9190615074565b60405180910390f35b34801561050f57600080fd5b506105186119cd565b005b34801561052657600080fd5b50610541600480360381019061053c9190613f9e565b6119e1565b005b34801561054f57600080fd5b5061056a60048036038101906105659190614380565b611b2e565b6040516105779190614c11565b60405180910390f35b34801561058c57600080fd5b506105a760048036038101906105a29190613f75565b611eff565b6040516105b49190615074565b60405180910390f35b3480156105c957600080fd5b506105d2611f17565b6040516105df9190614b81565b60405180910390f35b3480156105f457600080fd5b5061060f600480360381019061060a9190614145565b611f41565b60405161061c9190614c11565b60405180910390f35b34801561063157600080fd5b5061063a612372565b6040516106479190614c70565b60405180910390f35b34801561065c57600080fd5b50610677600480360381019061067291906140cd565b612404565b005b34801561068557600080fd5b5061068e61241a565b60405161069b9190615074565b60405180910390f35b3480156106b057600080fd5b506106cb60048036038101906106c69190614052565b612425565b005b3480156106d957600080fd5b506106f460048036038101906106ef9190613f75565b612487565b6040516107019190615074565b60405180910390f35b34801561071657600080fd5b50610731600480360381019061072c9190614261565b61249f565b60405161073e9190614c70565b60405180910390f35b34801561075357600080fd5b5061076e600480360381019061076991906143bc565b6125b2565b60405161077b9190614c33565b60405180910390f35b34801561079057600080fd5b506107ab60048036038101906107a69190614261565b612813565b6040516107b89190615052565b60405180910390f35b3480156107cd57600080fd5b506107e860048036038101906107e39190613fc7565b6129c0565b6040516107f59190614c55565b60405180910390f35b34801561080a57600080fd5b5061082560048036038101906108209190613f75565b612a54565b005b60007f2a55205a000000000000000000000000000000000000000000000000000000007bffffffffffffffffffffffffffffffffffffffffffffffffffffffff1916827bffffffffffffffffffffffffffffffffffffffffffffffffffffffff1916148061089a575061089982612afc565b5b9050919050565b6060600080546108b090615472565b80601f01602080910402602001604051908101604052809291908181526020018280546108dc90615472565b80156109295780601f106108fe57610100808354040283529160200191610929565b820191906000526020600020905b81548152906001019060200180831161090c57829003601f168201915b5050505050905090565b600061093e82612b5d565b6004600083815260200190815260200160002060009054906101000a900473ffffffffffffffffffffffffffffffffffffffff169050919050565b6000610984826116ee565b90508073ffffffffffffffffffffffffffffffffffffffff168373ffffffffffffffffffffffffffffffffffffffff1614156109f5576040517f08c379a00000000000000000000000000000000000000000000000000000000081526004016109ec90614fb2565b60405180910390fd5b8073ffffffffffffffffffffffffffffffffffffffff16610a14612ba8565b73ffffffffffffffffffffffffffffffffffffffff161480610a435750610a4281610a3d612ba8565b6129c0565b5b610a82576040517f08c379a0000000000000000000000000000000000000000000000000000000008152600401610a7990614fd2565b60405180910390fd5b610a8c8383612bb0565b505050565b600080600b6000878152602001908152602001600020600101541415610aec576040517f08c379a0000000000000000000000000000000000000000000000000000000008152600401610ae390614df2565b60405180910390fd5b8115610b3d57662386f26fc10000831015610b3c576040517f08c379a0000000000000000000000000000000000000000000000000000000008152600401610b3390614d72565b60405180910390fd5b5b6001851480610bad57503373ffffffffffffffffffffffffffffffffffffffff16600b600087815260200190815260200160002060020160009054906101000a900473ffffffffffffffffffffffffffffffffffffffff1673ffffffffffffffffffffffffffffffffffffffff16145b610bec576040517f08c379a0000000000000000000000000000000000000000000000000000000008152600401610be390614e12565b60405180910390fd5b600b600086815260200190815260200160002060030154421015610c45576040517f08c379a0000000000000000000000000000000000000000000000000000000008152600401610c3c90614ff2565b60405180910390fd5b610c72600a60009054906101000a900473ffffffffffffffffffffffffffffffffffffffff166001612404565b6000610c7e6008612aee565b9050610c8a6008612ad8565b610c943382612c69565b610c9e8186612e87565b85600d600083815260200190815260200160002081905550600c60008781526020019081526020016000208190806001815401808255809150506001900390600052602060002001600090919091909150558215610d8857600a60009054906101000a900473ffffffffffffffffffffffffffffffffffffffff1673ffffffffffffffffffffffffffffffffffffffff166302998cf38286306040518463ffffffff1660e01b8152600401610d5593929190615111565b600060405180830381600087803b158015610d6f57600080fd5b505af1158015610d83573d6000803e3d6000fd5b505050505b7f5f7666687319b40936f33c188908d86aea154abd3f4127b4fa0a3f04f303c7da8187604051610db99291906150e8565b60405180910390a180915050949350505050565b610dde610dd8612ba8565b82612f32565b610e1d576040517f08c379a0000000000000000000000000000000000000000000000000000000008152600401610e1490614cb2565b60405180910390fd5b610e28838383612fc7565b505050565b6000806000610e3b85612813565b9050600060648260a0015186610e51919061531c565b610e5b91906152eb565b90508160400151819350935050509250929050565b6000600b600083815260200190815260200160002060020160009054906101000a900473ffffffffffffffffffffffffffffffffffffffff169050919050565b610ecb83838360405180602001604052806000815250612425565b505050565b60006103e7600e60003373ffffffffffffffffffffffffffffffffffffffff1673ffffffffffffffffffffffffffffffffffffffff1681526020019081526020016000205410610f55576040517f08c379a0000000000000000000000000000000000000000000000000000000008152600401610f4c90614eb2565b60405180910390fd5b42603c600f60003373ffffffffffffffffffffffffffffffffffffffff1673ffffffffffffffffffffffffffffffffffffffff16815260200190815260200160002054610fa29190615295565b1115610fe3576040517f08c379a0000000000000000000000000000000000000000000000000000000008152600401610fda90614d12565b60405180910390fd5b600a821115611027576040517f08c379a000000000000000000000000000000000000000000000000000000000815260040161101e90615032565b60405180910390fd5b6110316009612ad8565b6040518060c0016040528086815260200161104c6009612aee565b81526020013373ffffffffffffffffffffffffffffffffffffffff16815260200185815260200184815260200183815250600b600061108b6009612aee565b815260200190815260200160002060008201518160000190805190602001906110b5929190613d38565b506020820151816001015560408201518160020160006101000a81548173ffffffffffffffffffffffffffffffffffffffff021916908373ffffffffffffffffffffffffffffffffffffffff160217905550606082015181600301556080820151816004015560a08201518160050155905050600e60003373ffffffffffffffffffffffffffffffffffffffff1673ffffffffffffffffffffffffffffffffffffffff1681526020019081526020016000206000815480929190611178906154d5565b919050555042600f60003373ffffffffffffffffffffffffffffffffffffffff1673ffffffffffffffffffffffffffffffffffffffff168152602001908152602001600020819055507f62b7b5ba11bfc95430fab0460fdf99b9c8fbc2b3a6a48caf79c3ee1b591c03366111ec6009612aee565b866040516111fb9291906150b8565b60405180910390a161120d6009612aee565b9050949350505050565b61121f613dbe565b600b60008381526020019081526020016000206040518060c001604052908160008201805461124d90615472565b80601f016020809104026020016040519081016040528092919081815260200182805461127990615472565b80156112c65780601f1061129b576101008083540402835291602001916112c6565b820191906000526020600020905b8154815290600101906020018083116112a957829003601f168201915b50505050508152602001600182015481526020016002820160009054906101000a900473ffffffffffffffffffffffffffffffffffffffff1673ffffffffffffffffffffffffffffffffffffffff1673ffffffffffffffffffffffffffffffffffffffff16815260200160038201548152602001600482015481526020016005820154815250509050919050565b600080600a60009054906101000a900473ffffffffffffffffffffffffffffffffffffffff1673ffffffffffffffffffffffffffffffffffffffff163373ffffffffffffffffffffffffffffffffffffffff16146113e7576040517f08c379a00000000000000000000000000000000000000000000000000000000081526004016113de90615012565b60405180910390fd5b6000600b6000888152602001908152602001600020600101541415611441576040517f08c379a000000000000000000000000000000000000000000000000000000000815260040161143890614df2565b60405180910390fd5b6001600b600088815260200190815260200160002060010154141561149b576040517f08c379a000000000000000000000000000000000000000000000000000000000815260040161149290614c92565b60405180910390fd5b600b6000878152602001908152602001600020600301544210156114f4576040517f08c379a00000000000000000000000000000000000000000000000000000000081526004016114eb90614ff2565b60405180910390fd5b600b600087815260200190815260200160002060040154831461154c576040517f08c379a000000000000000000000000000000000000000000000000000000000815260040161154390614d52565b60405180910390fd5b600b600087815260200190815260200160002060020160009054906101000a900473ffffffffffffffffffffffffffffffffffffffff1673ffffffffffffffffffffffffffffffffffffffff168573ffffffffffffffffffffffffffffffffffffffff1614156115f1576040517f08c379a00000000000000000000000000000000000000000000000000000000081526004016115e890614cd2565b60405180910390fd5b60006115fd6008612aee565b90506116096008612ad8565b6116138682612c69565b61161d8186612e87565b86600d600083815260200190815260200160002081905550600c60008881526020019081526020016000208190806001815401808255809150506001900390600052602060002001600090919091909150557f5f7666687319b40936f33c188908d86aea154abd3f4127b4fa0a3f04f303c7da81886040516116a09291906150e8565b60405180910390a180600b600089815260200190815260200160002060020160009054906101000a900473ffffffffffffffffffffffffffffffffffffffff16925092505094509492505050565b6000806116fa836132c1565b9050600073ffffffffffffffffffffffffffffffffffffffff168173ffffffffffffffffffffffffffffffffffffffff16141561176c576040517f08c379a000000000000000000000000000000000000000000000000000000000815260040161176390614f92565b60405180910390fd5b80915050919050565b6000600b60008481526020019081526020016000206001015414156117cf576040517f08c379a00000000000000000000000000000000000000000000000000000000081526004016117c690614df2565b60405180910390fd5b600b600083815260200190815260200160002060020160009054906101000a900473ffffffffffffffffffffffffffffffffffffffff1673ffffffffffffffffffffffffffffffffffffffff163373ffffffffffffffffffffffffffffffffffffffff1614611873576040517f08c379a000000000000000000000000000000000000000000000000000000000815260040161186a90614e12565b60405180910390fd5b662386f26fc100008110156118bd576040517f08c379a00000000000000000000000000000000000000000000000000000000081526004016118b490614e32565b60405180910390fd5b80600b6000848152602001908152602001600020600401819055507f2063f24eb8e50478aa99484fcf0f591be5a95d83129c7388c3da4bd776655e7a82826040516119099291906150e8565b60405180910390a15050565b60008073ffffffffffffffffffffffffffffffffffffffff168273ffffffffffffffffffffffffffffffffffffffff161415611986576040517f08c379a000000000000000000000000000000000000000000000000000000000815260040161197d90614ed2565b60405180910390fd5b600360008373ffffffffffffffffffffffffffffffffffffffff1673ffffffffffffffffffffffffffffffffffffffff168152602001908152602001600020549050919050565b6119d56132fe565b6119df600061337c565b565b6119e96132fe565b600073ffffffffffffffffffffffffffffffffffffffff16600a60009054906101000a900473ffffffffffffffffffffffffffffffffffffffff1673ffffffffffffffffffffffffffffffffffffffff1614611a7a576040517f08c379a0000000000000000000000000000000000000000000000000000000008152600401611a7190614f72565b60405180910390fd5b600073ffffffffffffffffffffffffffffffffffffffff168173ffffffffffffffffffffffffffffffffffffffff161415611aea576040517f08c379a0000000000000000000000000000000000000000000000000000000008152600401611ae190614cf2565b60405180910390fd5b80600a60006101000a81548173ffffffffffffffffffffffffffffffffffffffff021916908373ffffffffffffffffffffffffffffffffffffffff16021790555050565b60606000600184611b3f9190615295565b905060018110158015611b5b5750611b576009612aee565b8111155b611b9a576040517f08c379a0000000000000000000000000000000000000000000000000000000008152600401611b9190614f52565b60405180910390fd5b6000808467ffffffffffffffff811115611bdd577f4e487b7100000000000000000000000000000000000000000000000000000000600052604160045260246000fd5b604051908082528060200260200182016040528015611c0b5781602001602082028036833780820191505090505b50905060005b85811015611ca25760008185611c279190615295565b9050611c336009612aee565b8111611c8e5780838581518110611c73577f4e487b7100000000000000000000000000000000000000000000000000000000600052603260045260246000fd5b6020026020010181815250508380611c8a906154d5565b9450505b508080611c9a906154d5565b915050611c11565b5060008267ffffffffffffffff811115611ce5577f4e487b7100000000000000000000000000000000000000000000000000000000600052604160045260246000fd5b604051908082528060200260200182016040528015611d1e57816020015b611d0b613dbe565b815260200190600190039081611d035790505b50905060005b83811015611ef157600b6000848381518110611d69577f4e487b7100000000000000000000000000000000000000000000000000000000600052603260045260246000fd5b602002602001015181526020019081526020016000206040518060c0016040529081600082018054611d9a90615472565b80601f0160208091040260200160405190810160405280929190818152602001828054611dc690615472565b8015611e135780601f10611de857610100808354040283529160200191611e13565b820191906000526020600020905b815481529060010190602001808311611df657829003601f168201915b50505050508152602001600182015481526020016002820160009054906101000a900473ffffffffffffffffffffffffffffffffffffffff1673ffffffffffffffffffffffffffffffffffffffff1673ffffffffffffffffffffffffffffffffffffffff1681526020016003820154815260200160048201548152602001600582015481525050828281518110611ed3577f4e487b7100000000000000000000000000000000000000000000000000000000600052603260045260246000fd5b60200260200101819052508080611ee9906154d5565b915050611d24565b508094505050505092915050565b600f6020528060005260406000206000915090505481565b6000600760009054906101000a900473ffffffffffffffffffffffffffffffffffffffff16905090565b6060600080600190505b611f556009612aee565b8111611fe7578573ffffffffffffffffffffffffffffffffffffffff16600b600083815260200190815260200160002060020160009054906101000a900473ffffffffffffffffffffffffffffffffffffffff1673ffffffffffffffffffffffffffffffffffffffff161415611fd4578180611fd0906154d5565b9250505b8080611fdf906154d5565b915050611f4b565b5080841061207257600067ffffffffffffffff811115612030577f4e487b7100000000000000000000000000000000000000000000000000000000600052604160045260246000fd5b60405190808252806020026020018201604052801561206957816020015b612056613dbe565b81526020019060019003908161204e5790505b5091505061236b565b60008385836120819190615376565b116120975784826120929190615376565b612099565b835b905060008167ffffffffffffffff8111156120dd577f4e487b7100000000000000000000000000000000000000000000000000000000600052604160045260246000fd5b60405190808252806020026020018201604052801561211657816020015b612103613dbe565b8152602001906001900390816120fb5790505b5090506000806000600190505b61212d6009612aee565b8111612361578973ffffffffffffffffffffffffffffffffffffffff16600b600083815260200190815260200160002060020160009054906101000a900473ffffffffffffffffffffffffffffffffffffffff1673ffffffffffffffffffffffffffffffffffffffff161415612341578882101580156121ac57508483105b1561233257600b60008281526020019081526020016000206040518060c00160405290816000820180546121df90615472565b80601f016020809104026020016040519081016040528092919081815260200182805461220b90615472565b80156122585780601f1061222d57610100808354040283529160200191612258565b820191906000526020600020905b81548152906001019060200180831161223b57829003601f168201915b50505050508152602001600182015481526020016002820160009054906101000a900473ffffffffffffffffffffffffffffffffffffffff1673ffffffffffffffffffffffffffffffffffffffff1673ffffffffffffffffffffffffffffffffffffffff1681526020016003820154815260200160048201548152602001600582015481525050848481518110612318577f4e487b7100000000000000000000000000000000000000000000000000000000600052603260045260246000fd5b6020026020010181905250828061232e906154d5565b9350505b818061233d906154d5565b9250505b8483141561234e57612361565b8080612359906154d5565b915050612123565b5082955050505050505b9392505050565b60606001805461238190615472565b80601f01602080910402602001604051908101604052809291908181526020018280546123ad90615472565b80156123fa5780601f106123cf576101008083540402835291602001916123fa565b820191906000526020600020905b8154815290600101906020018083116123dd57829003601f168201915b5050505050905090565b61241661240f612ba8565b8383613442565b5050565b662386f26fc1000081565b612436612430612ba8565b83612f32565b612475576040517f08c379a000000000000000000000000000000000000000000000000000000000815260040161246c90614cb2565b60405180910390fd5b612481848484846135af565b50505050565b600e6020528060005260406000206000915090505481565b60606124aa82612b5d565b60006006600084815260200190815260200160002080546124ca90615472565b80601f01602080910402602001604051908101604052809291908181526020018280546124f690615472565b80156125435780601f1061251857610100808354040283529160200191612543565b820191906000526020600020905b81548152906001019060200180831161252657829003601f168201915b50505050509050600061255461360b565b905060008151141561256a5781925050506125ad565b60008251111561259f578082604051602001612587929190614b5d565b604051602081830303815290604052925050506125ad565b6125a884613622565b925050505b919050565b60606000600c600086815260200190815260200160002080548060200260200160405190810160405280929190818152602001828054801561261357602002820191906000526020600020905b8154815260200190600101908083116125ff575b5050505050905060008151148061262b575080518410155b156126a857600067ffffffffffffffff811115612671577f4e487b7100000000000000000000000000000000000000000000000000000000600052604160045260246000fd5b60405190808252806020026020018201604052801561269f5781602001602082028036833780820191505090505b5091505061280c565b60648311156126b657606492505b600083856126c49190615295565b905081518111156126d457815190505b600085826126e29190615376565b67ffffffffffffffff811115612721577f4e487b7100000000000000000000000000000000000000000000000000000000600052604160045260246000fd5b60405190808252806020026020018201604052801561274f5781602001602082028036833780820191505090505b50905060008690505b8281101561280457838181518110612799577f4e487b7100000000000000000000000000000000000000000000000000000000600052603260045260246000fd5b60200260200101518288836127ae9190615376565b815181106127e5577f4e487b7100000000000000000000000000000000000000000000000000000000600052603260045260246000fd5b60200260200101818152505080806127fc906154d5565b915050612758565b508093505050505b9392505050565b61281b613dbe565b6000600d6000848152602001908152602001600020541415612872576040517f08c379a000000000000000000000000000000000000000000000000000000000815260040161286990614e92565b60405180910390fd5b6000600d6000848152602001908152602001600020549050600b60008281526020019081526020016000206040518060c00160405290816000820180546128b890615472565b80601f01602080910402602001604051908101604052809291908181526020018280546128e490615472565b80156129315780601f1061290657610100808354040283529160200191612931565b820191906000526020600020905b81548152906001019060200180831161291457829003601f168201915b50505050508152602001600182015481526020016002820160009054906101000a900473ffffffffffffffffffffffffffffffffffffffff1673ffffffffffffffffffffffffffffffffffffffff1673ffffffffffffffffffffffffffffffffffffffff1681526020016003820154815260200160048201548152602001600582015481525050915050919050565b6000600560008473ffffffffffffffffffffffffffffffffffffffff1673ffffffffffffffffffffffffffffffffffffffff16815260200190815260200160002060008373ffffffffffffffffffffffffffffffffffffffff1673ffffffffffffffffffffffffffffffffffffffff16815260200190815260200160002060009054906101000a900460ff16905092915050565b612a5c6132fe565b600073ffffffffffffffffffffffffffffffffffffffff168173ffffffffffffffffffffffffffffffffffffffff161415612acc576040517f08c379a0000000000000000000000000000000000000000000000000000000008152600401612ac390614d92565b60405180910390fd5b612ad58161337c565b50565b6001816000016000828254019250508190555050565b600081600001549050919050565b6000634906490660e01b7bffffffffffffffffffffffffffffffffffffffffffffffffffffffff1916827bffffffffffffffffffffffffffffffffffffffffffffffffffffffff19161480612b565750612b558261368a565b5b9050919050565b612b668161376c565b612ba5576040517f08c379a0000000000000000000000000000000000000000000000000000000008152600401612b9c90614f92565b60405180910390fd5b50565b600033905090565b816004600083815260200190815260200160002060006101000a81548173ffffffffffffffffffffffffffffffffffffffff021916908373ffffffffffffffffffffffffffffffffffffffff160217905550808273ffffffffffffffffffffffffffffffffffffffff16612c23836116ee565b73ffffffffffffffffffffffffffffffffffffffff167f8c5be1e5ebec7d5bd14f71427d1e84f3dd0314c0f7b2291e5b200ac8c7c3b92560405160405180910390a45050565b600073ffffffffffffffffffffffffffffffffffffffff168273ffffffffffffffffffffffffffffffffffffffff161415612cd9576040517f08c379a0000000000000000000000000000000000000000000000000000000008152600401612cd090614f12565b60405180910390fd5b612ce28161376c565b15612d22576040517f08c379a0000000000000000000000000000000000000000000000000000000008152600401612d1990614dd2565b60405180910390fd5b612d306000838360016137ad565b612d398161376c565b15612d79576040517f08c379a0000000000000000000000000000000000000000000000000000000008152600401612d7090614dd2565b60405180910390fd5b6001600360008473ffffffffffffffffffffffffffffffffffffffff1673ffffffffffffffffffffffffffffffffffffffff16815260200190815260200160002060008282540192505081905550816002600083815260200190815260200160002060006101000a81548173ffffffffffffffffffffffffffffffffffffffff021916908373ffffffffffffffffffffffffffffffffffffffff160217905550808273ffffffffffffffffffffffffffffffffffffffff16600073ffffffffffffffffffffffffffffffffffffffff167fddf252ad1be2c89b69c2b068fc378daa952ba7f163c4a11628f55a4df523b3ef60405160405180910390a4612e836000838360016137b3565b5050565b612e908261376c565b612ecf576040517f08c379a0000000000000000000000000000000000000000000000000000000008152600401612ec690614ef2565b60405180910390fd5b80600660008481526020019081526020016000209080519060200190612ef6929190613d38565b507ff8e1a15aba9398e019f0b49df1a4fde98ee17ae345cb5f6b5e2c27f5033e8ce782604051612f269190615074565b60405180910390a15050565b600080612f3e836116ee565b90508073ffffffffffffffffffffffffffffffffffffffff168473ffffffffffffffffffffffffffffffffffffffff161480612f805750612f7f81856129c0565b5b80612fbe57508373ffffffffffffffffffffffffffffffffffffffff16612fa684610933565b73ffffffffffffffffffffffffffffffffffffffff16145b91505092915050565b8273ffffffffffffffffffffffffffffffffffffffff16612fe7826116ee565b73ffffffffffffffffffffffffffffffffffffffff161461303d576040517f08c379a000000000000000000000000000000000000000000000000000000000815260040161303490614db2565b60405180910390fd5b600073ffffffffffffffffffffffffffffffffffffffff168273ffffffffffffffffffffffffffffffffffffffff1614156130ad576040517f08c379a00000000000000000000000000000000000000000000000000000000081526004016130a490614e52565b60405180910390fd5b6130ba83838360016137ad565b8273ffffffffffffffffffffffffffffffffffffffff166130da826116ee565b73ffffffffffffffffffffffffffffffffffffffff1614613130576040517f08c379a000000000000000000000000000000000000000000000000000000000815260040161312790614db2565b60405180910390fd5b6004600082815260200190815260200160002060006101000a81549073ffffffffffffffffffffffffffffffffffffffff02191690556001600360008573ffffffffffffffffffffffffffffffffffffffff1673ffffffffffffffffffffffffffffffffffffffff168152602001908152602001600020600082825403925050819055506001600360008473ffffffffffffffffffffffffffffffffffffffff1673ffffffffffffffffffffffffffffffffffffffff16815260200190815260200160002060008282540192505081905550816002600083815260200190815260200160002060006101000a81548173ffffffffffffffffffffffffffffffffffffffff021916908373ffffffffffffffffffffffffffffffffffffffff160217905550808273ffffffffffffffffffffffffffffffffffffffff168473ffffffffffffffffffffffffffffffffffffffff167fddf252ad1be2c89b69c2b068fc378daa952ba7f163c4a11628f55a4df523b3ef60405160405180910390a46132bc83838360016137b3565b505050565b60006002600083815260200190815260200160002060009054906101000a900473ffffffffffffffffffffffffffffffffffffffff169050919050565b613306612ba8565b73ffffffffffffffffffffffffffffffffffffffff16613324611f17565b73ffffffffffffffffffffffffffffffffffffffff161461337a576040517f08c379a000000000000000000000000000000000000000000000000000000000815260040161337190614f32565b60405180910390fd5b565b6000600760009054906101000a900473ffffffffffffffffffffffffffffffffffffffff16905081600760006101000a81548173ffffffffffffffffffffffffffffffffffffffff021916908373ffffffffffffffffffffffffffffffffffffffff1602179055508173ffffffffffffffffffffffffffffffffffffffff168173ffffffffffffffffffffffffffffffffffffffff167f8be0079c531659141344cd1fd0a4f28419497f9722a3daafe3b4186f6b6457e060405160405180910390a35050565b8173ffffffffffffffffffffffffffffffffffffffff168373ffffffffffffffffffffffffffffffffffffffff1614156134b1576040517f08c379a00000000000000000000000000000000000000000000000000000000081526004016134a890614e72565b60405180910390fd5b80600560008573ffffffffffffffffffffffffffffffffffffffff1673ffffffffffffffffffffffffffffffffffffffff16815260200190815260200160002060008473ffffffffffffffffffffffffffffffffffffffff1673ffffffffffffffffffffffffffffffffffffffff16815260200190815260200160002060006101000a81548160ff0219169083151502179055508173ffffffffffffffffffffffffffffffffffffffff168373ffffffffffffffffffffffffffffffffffffffff167f17307eab39ab6107e8899845ad3d59bd9653f200f220920489ca2b5937696c31836040516135a29190614c55565b60405180910390a3505050565b6135ba848484612fc7565b6135c6848484846137b9565b613605576040517f08c379a00000000000000000000000000000000000000000000000000000000081526004016135fc90614d32565b60405180910390fd5b50505050565b606060405180602001604052806000815250905090565b606061362d82612b5d565b600061363761360b565b905060008151116136575760405180602001604052806000815250613682565b8061366184613950565b604051602001613672929190614b5d565b6040516020818303038152906040525b915050919050565b60007f80ac58cd000000000000000000000000000000000000000000000000000000007bffffffffffffffffffffffffffffffffffffffffffffffffffffffff1916827bffffffffffffffffffffffffffffffffffffffffffffffffffffffff1916148061375557507f5b5e139f000000000000000000000000000000000000000000000000000000007bffffffffffffffffffffffffffffffffffffffffffffffffffffffff1916827bffffffffffffffffffffffffffffffffffffffffffffffffffffffff1916145b80613765575061376482613a74565b5b9050919050565b60008073ffffffffffffffffffffffffffffffffffffffff1661378e836132c1565b73ffffffffffffffffffffffffffffffffffffffff1614159050919050565b50505050565b50505050565b60006137da8473ffffffffffffffffffffffffffffffffffffffff16613ade565b15613943578373ffffffffffffffffffffffffffffffffffffffff1663150b7a02613803612ba8565b8786866040518563ffffffff1660e01b81526004016138259493929190614b9c565b602060405180830381600087803b15801561383f57600080fd5b505af192505050801561387057506040513d601f19601f8201168201806040525081019061386d91906141bd565b60015b6138f3573d80600081146138a0576040519150601f19603f3d011682016040523d82523d6000602084013e6138a5565b606091505b506000815114156138eb576040517f08c379a00000000000000000000000000000000000000000000000000000000081526004016138e290614d32565b60405180910390fd5b805181602001fd5b63150b7a0260e01b7bffffffffffffffffffffffffffffffffffffffffffffffffffffffff1916817bffffffffffffffffffffffffffffffffffffffffffffffffffffffff191614915050613948565b600190505b949350505050565b60606000600161395f84613b01565b01905060008167ffffffffffffffff8111156139a4577f4e487b7100000000000000000000000000000000000000000000000000000000600052604160045260246000fd5b6040519080825280601f01601f1916602001820160405280156139d65781602001600182028036833780820191505090505b509050600082602001820190505b600115613a69578080600190039150507f3031323334353637383961626364656600000000000000000000000000000000600a86061a8153600a8581613a53577f4e487b7100000000000000000000000000000000000000000000000000000000600052601260045260246000fd5b0494506000851415613a6457613a69565b6139e4565b819350505050919050565b60007f01ffc9a7000000000000000000000000000000000000000000000000000000007bffffffffffffffffffffffffffffffffffffffffffffffffffffffff1916827bffffffffffffffffffffffffffffffffffffffffffffffffffffffff1916149050919050565b6000808273ffffffffffffffffffffffffffffffffffffffff163b119050919050565b600080600090507a184f03e93ff9f4daa797ed6e38ed64bf6a1f0100000000000000008310613b85577a184f03e93ff9f4daa797ed6e38ed64bf6a1f0100000000000000008381613b7b577f4e487b7100000000000000000000000000000000000000000000000000000000600052601260045260246000fd5b0492506040810190505b6d04ee2d6d415b85acef81000000008310613be8576d04ee2d6d415b85acef81000000008381613bde577f4e487b7100000000000000000000000000000000000000000000000000000000600052601260045260246000fd5b0492506020810190505b662386f26fc100008310613c3d57662386f26fc100008381613c33577f4e487b7100000000000000000000000000000000000000000000000000000000600052601260045260246000fd5b0492506010810190505b6305f5e1008310613c8c576305f5e1008381613c82577f4e487b7100000000000000000000000000000000000000000000000000000000600052601260045260246000fd5b0492506008810190505b6127108310613cd7576127108381613ccd577f4e487b7100000000000000000000000000000000000000000000000000000000600052601260045260246000fd5b0492506004810190505b60648310613d205760648381613d16577f4e487b7100000000000000000000000000000000000000000000000000000000600052601260045260246000fd5b0492506002810190505b600a8310613d2f576001810190505b80915050919050565b828054613d4490615472565b90600052602060002090601f016020900481019282613d665760008555613dad565b82601f10613d7f57805160ff1916838001178555613dad565b82800160010185558215613dad579182015b82811115613dac578251825591602001919060010190613d91565b5b509050613dba9190613e0a565b5090565b6040518060c001604052806060815260200160008152602001600073ffffffffffffffffffffffffffffffffffffffff1681526020016000815260200160008152602001600081525090565b5b80821115613e23576000816000905550600101613e0b565b5090565b6000613e3a613e358461516d565b615148565b905082815260208101848484011115613e5257600080fd5b613e5d848285615430565b509392505050565b6000613e78613e738461519e565b615148565b905082815260208101848484011115613e9057600080fd5b613e9b848285615430565b509392505050565b600081359050613eb281615d65565b92915050565b600081359050613ec781615d7c565b92915050565b600081359050613edc81615d93565b92915050565b600081359050613ef181615daa565b92915050565b600081519050613f0681615daa565b92915050565b600082601f830112613f1d57600080fd5b8135613f2d848260208601613e27565b91505092915050565b600082601f830112613f4757600080fd5b8135613f57848260208601613e65565b91505092915050565b600081359050613f6f81615dc1565b92915050565b600060208284031215613f8757600080fd5b6000613f9584828501613ea3565b91505092915050565b600060208284031215613fb057600080fd5b6000613fbe84828501613eb8565b91505092915050565b60008060408385031215613fda57600080fd5b6000613fe885828601613ea3565b9250506020613ff985828601613ea3565b9150509250929050565b60008060006060848603121561401857600080fd5b600061402686828701613ea3565b935050602061403786828701613ea3565b925050604061404886828701613f60565b9150509250925092565b6000806000806080858703121561406857600080fd5b600061407687828801613ea3565b945050602061408787828801613ea3565b935050604061409887828801613f60565b925050606085013567ffffffffffffffff8111156140b557600080fd5b6140c187828801613f0c565b91505092959194509250565b600080604083850312156140e057600080fd5b60006140ee85828601613ea3565b92505060206140ff85828601613ecd565b9150509250929050565b6000806040838503121561411c57600080fd5b600061412a85828601613ea3565b925050602061413b85828601613f60565b9150509250929050565b60008060006060848603121561415a57600080fd5b600061416886828701613ea3565b935050602061417986828701613f60565b925050604061418a86828701613f60565b9150509250925092565b6000602082840312156141a657600080fd5b60006141b484828501613ee2565b91505092915050565b6000602082840312156141cf57600080fd5b60006141dd84828501613ef7565b91505092915050565b600080600080608085870312156141fc57600080fd5b600085013567ffffffffffffffff81111561421657600080fd5b61422287828801613f36565b945050602061423387828801613f60565b935050604061424487828801613f60565b925050606061425587828801613f60565b91505092959194509250565b60006020828403121561427357600080fd5b600061428184828501613f60565b91505092915050565b600080600080608085870312156142a057600080fd5b60006142ae87828801613f60565b94505060206142bf87828801613ea3565b935050604085013567ffffffffffffffff8111156142dc57600080fd5b6142e887828801613f36565b92505060606142f987828801613f60565b91505092959194509250565b6000806000806080858703121561431b57600080fd5b600061432987828801613f60565b945050602085013567ffffffffffffffff81111561434657600080fd5b61435287828801613f36565b935050604061436387828801613f60565b925050606061437487828801613ecd565b91505092959194509250565b6000806040838503121561439357600080fd5b60006143a185828601613f60565b92505060206143b285828601613f60565b9150509250929050565b6000806000606084860312156143d157600080fd5b60006143df86828701613f60565b93505060206143f086828701613f60565b925050604061440186828701613f60565b9150509250925092565b60006144178383614a2d565b905092915050565b600061442b8383614b3f565b60208301905092915050565b614440816153aa565b82525050565b61444f816153aa565b82525050565b6000614460826151ef565b61446a8185615235565b93508360208202850161447c856151cf565b8060005b858110156144b85784840389528151614499858261440b565b94506144a48361521b565b925060208a01995050600181019050614480565b50829750879550505050505092915050565b60006144d5826151fa565b6144df8185615246565b93506144ea836151df565b8060005b8381101561451b578151614502888261441f565b975061450d83615228565b9250506001810190506144ee565b5085935050505092915050565b614531816153ce565b82525050565b600061454282615205565b61454c8185615257565b935061455c81856020860161543f565b614565816155da565b840191505092915050565b600061457b82615210565b6145858185615268565b935061459581856020860161543f565b61459e816155da565b840191505092915050565b60006145b482615210565b6145be8185615279565b93506145ce81856020860161543f565b6145d7816155da565b840191505092915050565b60006145ed82615210565b6145f7818561528a565b935061460781856020860161543f565b80840191505092915050565b6000614620602183615279565b915061462b826155eb565b604082019050919050565b6000614643602d83615279565b915061464e8261563a565b604082019050919050565b6000614666602183615279565b915061467182615689565b604082019050919050565b6000614689600f83615279565b9150614694826156d8565b602082019050919050565b60006146ac602c83615279565b91506146b782615701565b604082019050919050565b60006146cf603283615279565b91506146da82615750565b604082019050919050565b60006146f2602f83615279565b91506146fd8261579f565b604082019050919050565b6000614715602083615279565b9150614720826157ee565b602082019050919050565b6000614738602683615279565b915061474382615817565b604082019050919050565b600061475b602583615279565b915061476682615866565b604082019050919050565b600061477e601c83615279565b9150614789826158b5565b602082019050919050565b60006147a1601983615279565b91506147ac826158de565b602082019050919050565b60006147c4601f83615279565b91506147cf82615907565b602082019050919050565b60006147e7602983615279565b91506147f282615930565b604082019050919050565b600061480a602483615279565b91506148158261597f565b604082019050919050565b600061482d601983615279565b9150614838826159ce565b602082019050919050565b6000614850602783615279565b915061485b826159f7565b604082019050919050565b6000614873601783615279565b915061487e82615a46565b602082019050919050565b6000614896602983615279565b91506148a182615a6f565b604082019050919050565b60006148b9602e83615279565b91506148c482615abe565b604082019050919050565b60006148dc602083615279565b91506148e782615b0d565b602082019050919050565b60006148ff602083615279565b915061490a82615b36565b602082019050919050565b6000614922600e83615279565b915061492d82615b5f565b602082019050919050565b6000614945602883615279565b915061495082615b88565b604082019050919050565b6000614968601883615279565b915061497382615bd7565b602082019050919050565b600061498b602183615279565b915061499682615c00565b604082019050919050565b60006149ae603d83615279565b91506149b982615c4f565b604082019050919050565b60006149d1602b83615279565b91506149dc82615c9e565b604082019050919050565b60006149f4601983615279565b91506149ff82615ced565b602082019050919050565b6000614a17602b83615279565b9150614a2282615d16565b604082019050919050565b600060c0830160008301518482036000860152614a4a8282614570565b9150506020830151614a5f6020860182614b3f565b506040830151614a726040860182614437565b506060830151614a856060860182614b3f565b506080830151614a986080860182614b3f565b5060a0830151614aab60a0860182614b3f565b508091505092915050565b600060c0830160008301518482036000860152614ad38282614570565b9150506020830151614ae86020860182614b3f565b506040830151614afb6040860182614437565b506060830151614b0e6060860182614b3f565b506080830151614b216080860182614b3f565b5060a0830151614b3460a0860182614b3f565b508091505092915050565b614b4881615426565b82525050565b614b5781615426565b82525050565b6000614b6982856145e2565b9150614b7582846145e2565b91508190509392505050565b6000602082019050614b966000830184614446565b92915050565b6000608082019050614bb16000830187614446565b614bbe6020830186614446565b614bcb6040830185614b4e565b8181036060830152614bdd8184614537565b905095945050505050565b6000604082019050614bfd6000830185614446565b614c0a6020830184614b4e565b9392505050565b60006020820190508181036000830152614c2b8184614455565b905092915050565b60006020820190508181036000830152614c4d81846144ca565b905092915050565b6000602082019050614c6a6000830184614528565b92915050565b60006020820190508181036000830152614c8a81846145a9565b905092915050565b60006020820190508181036000830152614cab81614613565b9050919050565b60006020820190508181036000830152614ccb81614636565b9050919050565b60006020820190508181036000830152614ceb81614659565b9050919050565b60006020820190508181036000830152614d0b8161467c565b9050919050565b60006020820190508181036000830152614d2b8161469f565b9050919050565b60006020820190508181036000830152614d4b816146c2565b9050919050565b60006020820190508181036000830152614d6b816146e5565b9050919050565b60006020820190508181036000830152614d8b81614708565b9050919050565b60006020820190508181036000830152614dab8161472b565b9050919050565b60006020820190508181036000830152614dcb8161474e565b9050919050565b60006020820190508181036000830152614deb81614771565b9050919050565b60006020820190508181036000830152614e0b81614794565b9050919050565b60006020820190508181036000830152614e2b816147b7565b9050919050565b60006020820190508181036000830152614e4b816147da565b9050919050565b60006020820190508181036000830152614e6b816147fd565b9050919050565b60006020820190508181036000830152614e8b81614820565b9050919050565b60006020820190508181036000830152614eab81614843565b9050919050565b60006020820190508181036000830152614ecb81614866565b9050919050565b60006020820190508181036000830152614eeb81614889565b9050919050565b60006020820190508181036000830152614f0b816148ac565b9050919050565b60006020820190508181036000830152614f2b816148cf565b9050919050565b60006020820190508181036000830152614f4b816148f2565b9050919050565b60006020820190508181036000830152614f6b81614915565b9050919050565b60006020820190508181036000830152614f8b81614938565b9050919050565b60006020820190508181036000830152614fab8161495b565b9050919050565b60006020820190508181036000830152614fcb8161497e565b9050919050565b60006020820190508181036000830152614feb816149a1565b9050919050565b6000602082019050818103600083015261500b816149c4565b9050919050565b6000602082019050818103600083015261502b816149e7565b9050919050565b6000602082019050818103600083015261504b81614a0a565b9050919050565b6000602082019050818103600083015261506c8184614ab6565b905092915050565b60006020820190506150896000830184614b4e565b92915050565b60006040820190506150a46000830185614b4e565b6150b16020830184614446565b9392505050565b60006040820190506150cd6000830185614b4e565b81810360208301526150df81846145a9565b90509392505050565b60006040820190506150fd6000830185614b4e565b61510a6020830184614b4e565b9392505050565b60006060820190506151266000830186614b4e565b6151336020830185614b4e565b6151406040830184614446565b949350505050565b6000615152615163565b905061515e82826154a4565b919050565b6000604051905090565b600067ffffffffffffffff821115615188576151876155ab565b5b615191826155da565b9050602081019050919050565b600067ffffffffffffffff8211156151b9576151b86155ab565b5b6151c2826155da565b9050602081019050919050565b6000819050602082019050919050565b6000819050602082019050919050565b600081519050919050565b600081519050919050565b600081519050919050565b600081519050919050565b6000602082019050919050565b6000602082019050919050565b600082825260208201905092915050565b600082825260208201905092915050565b600082825260208201905092915050565b600082825260208201905092915050565b600082825260208201905092915050565b600081905092915050565b60006152a082615426565b91506152ab83615426565b9250827fffffffffffffffffffffffffffffffffffffffffffffffffffffffffffffffff038211156152e0576152df61551e565b5b828201905092915050565b60006152f682615426565b915061530183615426565b9250826153115761531061554d565b5b828204905092915050565b600061532782615426565b915061533283615426565b9250817fffffffffffffffffffffffffffffffffffffffffffffffffffffffffffffffff048311821515161561536b5761536a61551e565b5b828202905092915050565b600061538182615426565b915061538c83615426565b92508282101561539f5761539e61551e565b5b828203905092915050565b60006153b582615406565b9050919050565b60006153c782615406565b9050919050565b60008115159050919050565b60007fffffffff0000000000000000000000000000000000000000000000000000000082169050919050565b600073ffffffffffffffffffffffffffffffffffffffff82169050919050565b6000819050919050565b82818337600083830152505050565b60005b8381101561545d578082015181840152602081019050615442565b8381111561546c576000848401525b50505050565b6000600282049050600182168061548a57607f821691505b6020821081141561549e5761549d61557c565b5b50919050565b6154ad826155da565b810181811067ffffffffffffffff821117156154cc576154cb6155ab565b5b80604052505050565b60006154e082615426565b91507fffffffffffffffffffffffffffffffffffffffffffffffffffffffffffffffff8214156155135761551261551e565b5b600182019050919050565b7f4e487b7100000000000000000000000000000000000000000000000000000000600052601160045260246000fd5b7f4e487b7100000000000000000000000000000000000000000000000000000000600052601260045260246000fd5b7f4e487b7100000000000000000000000000000000000000000000000000000000600052602260045260246000fd5b7f4e487b7100000000000000000000000000000000000000000000000000000000600052604160045260246000fd5b6000601f19601f8301169050919050565b7f43616e206e6f74206d696e7420746f207075626c696320436f6c6c656374696f60008201527f6e00000000000000000000000000000000000000000000000000000000000000602082015250565b7f4552433732313a2063616c6c6572206973206e6f7420746f6b656e206f776e6560008201527f72206f7220617070726f76656400000000000000000000000000000000000000602082015250565b7f4f776e65722063616e206e6f74206275792066726f6d20636f6c6c656374696f60008201527f6e00000000000000000000000000000000000000000000000000000000000000602082015250565b7f496e76616c696420616464726573730000000000000000000000000000000000600082015250565b7f4d7573742077616974206265666f7265206372656174696e6720616e6f74686560008201527f7220636f6c6c656374696f6e0000000000000000000000000000000000000000602082015250565b7f4552433732313a207472616e7366657220746f206e6f6e20455243373231526560008201527f63656976657220696d706c656d656e7465720000000000000000000000000000602082015250565b7f50726963652073686f756c6420626520657175616c20746f20636f6c6c65637460008201527f696f6e73206d696e742070726963650000000000000000000000000000000000602082015250565b7f5072696365206d757374206265206174206c65617374204d494e5f5052494345600082015250565b7f4f776e61626c653a206e6577206f776e657220697320746865207a65726f206160008201527f6464726573730000000000000000000000000000000000000000000000000000602082015250565b7f4552433732313a207472616e736665722066726f6d20696e636f72726563742060008201527f6f776e6572000000000000000000000000000000000000000000000000000000602082015250565b7f4552433732313a20746f6b656e20616c7265616479206d696e74656400000000600082015250565b7f436f6c6c656374696f6e20646f6573206e6f7420657869737400000000000000600082015250565b7f4e6f7420746865206f776e6572206f662074686520636f6c6c656374696f6e00600082015250565b7f4e6577206d696e74207072696365206d757374206265206174206c656173742060008201527f4d494e5f50524943450000000000000000000000000000000000000000000000602082015250565b7f4552433732313a207472616e7366657220746f20746865207a65726f2061646460008201527f7265737300000000000000000000000000000000000000000000000000000000602082015250565b7f4552433732313a20617070726f766520746f2063616c6c657200000000000000600082015250565b7f546f6b656e20646f6573206e6f742062656c6f6e6720746f20616e7920636f6c60008201527f6c656374696f6e00000000000000000000000000000000000000000000000000602082015250565b7f4d617820636f6c6c656374696f6e732072656163686564000000000000000000600082015250565b7f4552433732313a2061646472657373207a65726f206973206e6f74206120766160008201527f6c6964206f776e65720000000000000000000000000000000000000000000000602082015250565b7f45524337323155524953746f726167653a2055524920736574206f66206e6f6e60008201527f6578697374656e7420746f6b656e000000000000000000000000000000000000602082015250565b7f4552433732313a206d696e7420746f20746865207a65726f2061646472657373600082015250565b7f4f776e61626c653a2063616c6c6572206973206e6f7420746865206f776e6572600082015250565b7f496e76616c6964206f6666736574000000000000000000000000000000000000600082015250565b7f4d61726b6574706c61636520616464726573732068617320616c72656164792060008201527f6265656e20736574000000000000000000000000000000000000000000000000602082015250565b7f4552433732313a20696e76616c696420746f6b656e2049440000000000000000600082015250565b7f4552433732313a20617070726f76616c20746f2063757272656e74206f776e6560008201527f7200000000000000000000000000000000000000000000000000000000000000602082015250565b7f4552433732313a20617070726f76652063616c6c6572206973206e6f7420746f60008201527f6b656e206f776e6572206f7220617070726f76656420666f7220616c6c000000602082015250565b7f436f6c6c656374696f6e206973206e6f742079657420617661696c61626c652060008201527f666f72206d696e74696e67000000000000000000000000000000000000000000602082015250565b7f4f6e6c79206d61726b6574706c6163652063616e2063616c6c00000000000000600082015250565b7f526f79616c746965732070657263656e746167652073686f756c64206265206c60008201527f657373207468616e203130000000000000000000000000000000000000000000602082015250565b615d6e816153aa565b8114615d7957600080fd5b50565b615d85816153bc565b8114615d9057600080fd5b50565b615d9c816153ce565b8114615da757600080fd5b50565b615db3816153da565b8114615dbe57600080fd5b50565b615dca81615426565b8114615dd557600080fd5b5056fea2646970667358221220af6c4f961794dd2425284c7028d68f958a3408378316204a1bb881604731cc7764736f6c63430008010033",
  "linkReferences": {},
  "deployedLinkReferences": {}
}