{
  "_format": "hh-sol-artifact-1",
  "contractName": "ERC721Collections",
  "sourceName": "contracts/ERC721Collections.sol",
  "abi": [
    {
      "inputs": [
        {
          "internalType": "string",
          "name": "publicCollectionURI",
          "type": "string"
        }
      ],
      "stateMutability": "nonpayable",
      "type": "constructor"
    },
    {
      "anonymous": false,
      "inputs": [
        {
          "indexed": true,
          "internalType": "address",
          "name": "owner",
          "type": "address"
        },
        {
          "indexed": true,
          "internalType": "address",
          "name": "approved",
          "type": "address"
        },
        {
          "indexed": true,
          "internalType": "uint256",
          "name": "tokenId",
          "type": "uint256"
        }
      ],
      "name": "Approval",
      "type": "event"
    },
    {
      "anonymous": false,
      "inputs": [
        {
          "indexed": true,
          "internalType": "address",
          "name": "owner",
          "type": "address"
        },
        {
          "indexed": true,
          "internalType": "address",
          "name": "operator",
          "type": "address"
        },
        {
          "indexed": false,
          "internalType": "bool",
          "name": "approved",
          "type": "bool"
        }
      ],
      "name": "ApprovalForAll",
      "type": "event"
    },
    {
      "anonymous": false,
      "inputs": [
        {
          "indexed": false,
          "internalType": "uint256",
          "name": "_fromTokenId",
          "type": "uint256"
        },
        {
          "indexed": false,
          "internalType": "uint256",
          "name": "_toTokenId",
          "type": "uint256"
        }
      ],
      "name": "BatchMetadataUpdate",
      "type": "event"
    },
    {
      "anonymous": false,
      "inputs": [
        {
          "indexed": false,
          "internalType": "uint256",
          "name": "id",
          "type": "uint256"
        },
        {
          "indexed": false,
          "internalType": "string",
          "name": "uri",
          "type": "string"
        }
      ],
      "name": "CollectionCreated",
      "type": "event"
    },
    {
      "anonymous": false,
      "inputs": [
        {
          "indexed": false,
          "internalType": "uint256",
          "name": "_tokenId",
          "type": "uint256"
        }
      ],
      "name": "MetadataUpdate",
      "type": "event"
    },
    {
      "anonymous": false,
      "inputs": [
        {
          "indexed": true,
          "internalType": "address",
          "name": "previousOwner",
          "type": "address"
        },
        {
          "indexed": true,
          "internalType": "address",
          "name": "newOwner",
          "type": "address"
        }
      ],
      "name": "OwnershipTransferred",
      "type": "event"
    },
    {
      "anonymous": false,
      "inputs": [
        {
          "indexed": false,
          "internalType": "uint256",
          "name": "tokenId",
          "type": "uint256"
        },
        {
          "indexed": false,
          "internalType": "uint256",
          "name": "price",
          "type": "uint256"
        }
      ],
      "name": "PriceSet",
      "type": "event"
    },
    {
      "anonymous": false,
      "inputs": [
        {
          "indexed": false,
          "internalType": "uint256",
          "name": "tokenId",
          "type": "uint256"
        },
        {
          "indexed": false,
          "internalType": "uint256",
          "name": "collectionId",
          "type": "uint256"
        }
      ],
      "name": "TokenMinted",
      "type": "event"
    },
    {
      "anonymous": false,
      "inputs": [
        {
          "indexed": true,
          "internalType": "address",
          "name": "from",
          "type": "address"
        },
        {
          "indexed": true,
          "internalType": "address",
          "name": "to",
          "type": "address"
        },
        {
          "indexed": true,
          "internalType": "uint256",
          "name": "tokenId",
          "type": "uint256"
        }
      ],
      "name": "Transfer",
      "type": "event"
    },
    {
      "inputs": [],
      "name": "MIN_PRICE",
      "outputs": [
        {
          "internalType": "uint256",
          "name": "",
          "type": "uint256"
        }
      ],
      "stateMutability": "view",
      "type": "function"
    },
    {
      "inputs": [
        {
          "internalType": "address",
          "name": "to",
          "type": "address"
        },
        {
          "internalType": "uint256",
          "name": "tokenId",
          "type": "uint256"
        }
      ],
      "name": "approve",
      "outputs": [],
      "stateMutability": "nonpayable",
      "type": "function"
    },
    {
      "inputs": [
        {
          "internalType": "address",
          "name": "owner",
          "type": "address"
        }
      ],
      "name": "balanceOf",
      "outputs": [
        {
          "internalType": "uint256",
          "name": "",
          "type": "uint256"
        }
      ],
      "stateMutability": "view",
      "type": "function"
    },
    {
      "inputs": [
        {
          "internalType": "address",
          "name": "",
          "type": "address"
        }
      ],
      "name": "collectionsCreated",
      "outputs": [
        {
          "internalType": "uint256",
          "name": "",
          "type": "uint256"
        }
      ],
      "stateMutability": "view",
      "type": "function"
    },
    {
      "inputs": [
        {
          "internalType": "string",
          "name": "uri",
          "type": "string"
        },
        {
          "internalType": "uint256",
          "name": "mintDate",
          "type": "uint256"
        },
        {
          "internalType": "uint256",
          "name": "mintPrice",
          "type": "uint256"
        },
        {
          "internalType": "uint256",
          "name": "royaltyPercentage",
          "type": "uint256"
        }
      ],
      "name": "createCollection",
      "outputs": [
        {
          "internalType": "uint256",
          "name": "",
          "type": "uint256"
        }
      ],
      "stateMutability": "nonpayable",
      "type": "function"
    },
    {
      "inputs": [
        {
          "internalType": "uint256",
          "name": "tokenId",
          "type": "uint256"
        }
      ],
      "name": "getApproved",
      "outputs": [
        {
          "internalType": "address",
          "name": "",
          "type": "address"
        }
      ],
      "stateMutability": "view",
      "type": "function"
    },
    {
      "inputs": [
        {
          "internalType": "uint256",
          "name": "id",
          "type": "uint256"
        }
      ],
      "name": "getCollection",
      "outputs": [
        {
          "components": [
            {
              "internalType": "string",
              "name": "uri",
              "type": "string"
            },
            {
              "internalType": "uint256",
              "name": "id",
              "type": "uint256"
            },
            {
              "internalType": "address",
              "name": "owner",
              "type": "address"
            },
            {
              "internalType": "uint256",
              "name": "mintDate",
              "type": "uint256"
            },
            {
              "internalType": "uint256",
              "name": "mintPrice",
              "type": "uint256"
            },
            {
              "internalType": "uint256",
              "name": "royaltyPercentage",
              "type": "uint256"
            }
          ],
          "internalType": "struct ERC721Collections.Collection",
          "name": "",
          "type": "tuple"
        }
      ],
      "stateMutability": "view",
      "type": "function"
    },
    {
      "inputs": [
        {
          "internalType": "uint256",
          "name": "tokenId",
          "type": "uint256"
        }
      ],
      "name": "getCollectionOfToken",
      "outputs": [
        {
          "components": [
            {
              "internalType": "string",
              "name": "uri",
              "type": "string"
            },
            {
              "internalType": "uint256",
              "name": "id",
              "type": "uint256"
            },
            {
              "internalType": "address",
              "name": "owner",
              "type": "address"
            },
            {
              "internalType": "uint256",
              "name": "mintDate",
              "type": "uint256"
            },
            {
              "internalType": "uint256",
              "name": "mintPrice",
              "type": "uint256"
            },
            {
              "internalType": "uint256",
              "name": "royaltyPercentage",
              "type": "uint256"
            }
          ],
          "internalType": "struct ERC721Collections.Collection",
          "name": "",
          "type": "tuple"
        }
      ],
      "stateMutability": "view",
      "type": "function"
    },
    {
      "inputs": [
        {
          "internalType": "uint256",
          "name": "collectionId",
          "type": "uint256"
        }
      ],
      "name": "getCollectionOwner",
      "outputs": [
        {
          "internalType": "address",
          "name": "",
          "type": "address"
        }
      ],
      "stateMutability": "view",
      "type": "function"
    },
    {
      "inputs": [
        {
          "internalType": "uint256",
          "name": "collectionId",
          "type": "uint256"
        },
        {
          "internalType": "uint256",
          "name": "startIndex",
          "type": "uint256"
        },
        {
          "internalType": "uint256",
          "name": "pageSize",
          "type": "uint256"
        }
      ],
      "name": "getNFTsInCollection",
      "outputs": [
        {
          "internalType": "uint256[]",
          "name": "",
          "type": "uint256[]"
        }
      ],
      "stateMutability": "view",
      "type": "function"
    },
    {
      "inputs": [
        {
          "internalType": "address",
          "name": "owner",
          "type": "address"
        },
        {
          "internalType": "address",
          "name": "operator",
          "type": "address"
        }
      ],
      "name": "isApprovedForAll",
      "outputs": [
        {
          "internalType": "bool",
          "name": "",
          "type": "bool"
        }
      ],
      "stateMutability": "view",
      "type": "function"
    },
    {
      "inputs": [
        {
          "internalType": "address",
          "name": "",
          "type": "address"
        }
      ],
      "name": "lastCollectionTimestamp",
      "outputs": [
        {
          "internalType": "uint256",
          "name": "",
          "type": "uint256"
        }
      ],
      "stateMutability": "view",
      "type": "function"
    },
    {
      "inputs": [
        {
          "internalType": "uint256",
          "name": "collectionId",
          "type": "uint256"
        },
        {
          "internalType": "string",
          "name": "tokenURI",
          "type": "string"
        },
        {
          "internalType": "uint256",
          "name": "price",
          "type": "uint256"
        },
        {
          "internalType": "uint256",
          "name": "royaltyPercentage",
          "type": "uint256"
        },
        {
          "internalType": "bool",
          "name": "isMintToMarketplace",
          "type": "bool"
        }
      ],
      "name": "mint",
      "outputs": [
        {
          "internalType": "uint256",
          "name": "",
          "type": "uint256"
        }
      ],
      "stateMutability": "nonpayable",
      "type": "function"
    },
    {
      "inputs": [
        {
          "internalType": "uint256",
          "name": "collectionId",
          "type": "uint256"
        },
        {
          "internalType": "address",
          "name": "to",
          "type": "address"
        },
        {
          "internalType": "string",
          "name": "tokenURI",
          "type": "string"
        },
        {
          "internalType": "uint256",
          "name": "price",
          "type": "uint256"
        }
      ],
      "name": "mintToCollection",
      "outputs": [
        {
          "internalType": "uint256",
          "name": "tokenId",
          "type": "uint256"
        },
        {
          "internalType": "address",
          "name": "collectionOwner",
          "type": "address"
        }
      ],
      "stateMutability": "nonpayable",
      "type": "function"
    },
    {
      "inputs": [],
      "name": "name",
      "outputs": [
        {
          "internalType": "string",
          "name": "",
          "type": "string"
        }
      ],
      "stateMutability": "view",
      "type": "function"
    },
    {
      "inputs": [],
      "name": "owner",
      "outputs": [
        {
          "internalType": "address",
          "name": "",
          "type": "address"
        }
      ],
      "stateMutability": "view",
      "type": "function"
    },
    {
      "inputs": [
        {
          "internalType": "uint256",
          "name": "tokenId",
          "type": "uint256"
        }
      ],
      "name": "ownerOf",
      "outputs": [
        {
          "internalType": "address",
          "name": "",
          "type": "address"
        }
      ],
      "stateMutability": "view",
      "type": "function"
    },
    {
      "inputs": [],
      "name": "renounceOwnership",
      "outputs": [],
      "stateMutability": "nonpayable",
      "type": "function"
    },
    {
      "inputs": [
        {
          "internalType": "uint256",
          "name": "_tokenId",
          "type": "uint256"
        },
        {
          "internalType": "uint256",
          "name": "_salePrice",
          "type": "uint256"
        }
      ],
      "name": "royaltyInfo",
      "outputs": [
        {
          "internalType": "address",
          "name": "receiver",
          "type": "address"
        },
        {
          "internalType": "uint256",
          "name": "royaltyAmount",
          "type": "uint256"
        }
      ],
      "stateMutability": "view",
      "type": "function"
    },
    {
      "inputs": [
        {
          "internalType": "address",
          "name": "from",
          "type": "address"
        },
        {
          "internalType": "address",
          "name": "to",
          "type": "address"
        },
        {
          "internalType": "uint256",
          "name": "tokenId",
          "type": "uint256"
        }
      ],
      "name": "safeTransferFrom",
      "outputs": [],
      "stateMutability": "nonpayable",
      "type": "function"
    },
    {
      "inputs": [
        {
          "internalType": "address",
          "name": "from",
          "type": "address"
        },
        {
          "internalType": "address",
          "name": "to",
          "type": "address"
        },
        {
          "internalType": "uint256",
          "name": "tokenId",
          "type": "uint256"
        },
        {
          "internalType": "bytes",
          "name": "data",
          "type": "bytes"
        }
      ],
      "name": "safeTransferFrom",
      "outputs": [],
      "stateMutability": "nonpayable",
      "type": "function"
    },
    {
      "inputs": [
        {
          "internalType": "address",
          "name": "operator",
          "type": "address"
        },
        {
          "internalType": "bool",
          "name": "approved",
          "type": "bool"
        }
      ],
      "name": "setApprovalForAll",
      "outputs": [],
      "stateMutability": "nonpayable",
      "type": "function"
    },
    {
      "inputs": [
        {
          "internalType": "address payable",
          "name": "marketplaceAddress",
          "type": "address"
        }
      ],
      "name": "setMarketplace",
      "outputs": [],
      "stateMutability": "nonpayable",
      "type": "function"
    },
    {
      "inputs": [
        {
          "internalType": "bytes4",
          "name": "interfaceId",
          "type": "bytes4"
        }
      ],
      "name": "supportsInterface",
      "outputs": [
        {
          "internalType": "bool",
          "name": "",
          "type": "bool"
        }
      ],
      "stateMutability": "view",
      "type": "function"
    },
    {
      "inputs": [],
      "name": "symbol",
      "outputs": [
        {
          "internalType": "string",
          "name": "",
          "type": "string"
        }
      ],
      "stateMutability": "view",
      "type": "function"
    },
    {
      "inputs": [
        {
          "internalType": "uint256",
          "name": "tokenId",
          "type": "uint256"
        }
      ],
      "name": "tokenURI",
      "outputs": [
        {
          "internalType": "string",
          "name": "",
          "type": "string"
        }
      ],
      "stateMutability": "view",
      "type": "function"
    },
    {
      "inputs": [
        {
          "internalType": "address",
          "name": "from",
          "type": "address"
        },
        {
          "internalType": "address",
          "name": "to",
          "type": "address"
        },
        {
          "internalType": "uint256",
          "name": "tokenId",
          "type": "uint256"
        }
      ],
      "name": "transferFrom",
      "outputs": [],
      "stateMutability": "nonpayable",
      "type": "function"
    },
    {
      "inputs": [
        {
          "internalType": "address",
          "name": "newOwner",
          "type": "address"
        }
      ],
      "name": "transferOwnership",
      "outputs": [],
      "stateMutability": "nonpayable",
      "type": "function"
    }
  ],
  "bytecode": "0x60806040523480156200001157600080fd5b5060405162005a9a38038062005a9a8339818101604052810190620000379190620006d8565b6040518060400160405280601181526020017f455243373231436f6c6c656374696f6e730000000000000000000000000000008152506040518060400160405280600381526020017f53545200000000000000000000000000000000000000000000000000000000008152508160009080519060200190620000bb929190620005b6565b508060019080519060200190620000d4929190620005b6565b505050620000f7620000eb6200012b60201b60201c565b6200013360201b60201c565b6200010c8142600080620001f960201b60201c565b506200012460086200059260201b62001fca1760201c565b5062000bb5565b600033905090565b6000600760009054906101000a900473ffffffffffffffffffffffffffffffffffffffff16905081600760006101000a81548173ffffffffffffffffffffffffffffffffffffffff021916908373ffffffffffffffffffffffffffffffffffffffff1602179055508173ffffffffffffffffffffffffffffffffffffffff168173ffffffffffffffffffffffffffffffffffffffff167f8be0079c531659141344cd1fd0a4f28419497f9722a3daafe3b4186f6b6457e060405160405180910390a35050565b60006103e7601060003373ffffffffffffffffffffffffffffffffffffffff1673ffffffffffffffffffffffffffffffffffffffff168152602001908152602001600020541062000281576040517f08c379a0000000000000000000000000000000000000000000000000000000008152600401620002789062000828565b60405180910390fd5b42603c601160003373ffffffffffffffffffffffffffffffffffffffff1673ffffffffffffffffffffffffffffffffffffffff16815260200190815260200160002054620002d09190620008f9565b111562000314576040517f08c379a00000000000000000000000000000000000000000000000000000000081526004016200030b90620007e4565b60405180910390fd5b60648211156200035b576040517f08c379a0000000000000000000000000000000000000000000000000000000008152600401620003529062000806565b60405180910390fd5b6200037260096200059260201b62001fca1760201c565b6040518060c001604052808681526020016200039a6009620005a860201b62001fe01760201c565b81526020013373ffffffffffffffffffffffffffffffffffffffff16815260200185815260200184815260200183815250600d6000620003e66009620005a860201b62001fe01760201c565b8152602001908152602001600020600082015181600001908051906020019062000412929190620005b6565b506020820151816001015560408201518160020160006101000a81548173ffffffffffffffffffffffffffffffffffffffff021916908373ffffffffffffffffffffffffffffffffffffffff160217905550606082015181600301556080820151816004015560a08201518160050155905050601060003373ffffffffffffffffffffffffffffffffffffffff1673ffffffffffffffffffffffffffffffffffffffff1681526020019081526020016000206000815480929190620004d79062000a02565b919050555042601160003373ffffffffffffffffffffffffffffffffffffffff1673ffffffffffffffffffffffffffffffffffffffff168152602001908152602001600020819055507f62b7b5ba11bfc95430fab0460fdf99b9c8fbc2b3a6a48caf79c3ee1b591c0336620005586009620005a860201b62001fe01760201c565b86604051620005699291906200084a565b60405180910390a1620005886009620005a860201b62001fe01760201c565b9050949350505050565b6001816000016000828254019250508190555050565b600081600001549050919050565b828054620005c49062000996565b90600052602060002090601f016020900481019282620005e8576000855562000634565b82601f106200060357805160ff191683800117855562000634565b8280016001018555821562000634579182015b828111156200063357825182559160200191906001019062000616565b5b50905062000643919062000647565b5090565b5b808211156200066257600081600090555060010162000648565b5090565b60006200067d6200067784620008a7565b6200087e565b9050828152602081018484840111156200069657600080fd5b620006a384828562000960565b509392505050565b600082601f830112620006bd57600080fd5b8151620006cf84826020860162000666565b91505092915050565b600060208284031215620006eb57600080fd5b600082015167ffffffffffffffff8111156200070657600080fd5b6200071484828501620006ab565b91505092915050565b60006200072a82620008dd565b620007368185620008e8565b93506200074881856020860162000960565b620007538162000add565b840191505092915050565b60006200076d602c83620008e8565b91506200077a8262000aee565b604082019050919050565b600062000794602c83620008e8565b9150620007a18262000b3d565b604082019050919050565b6000620007bb601783620008e8565b9150620007c88262000b8c565b602082019050919050565b620007de8162000956565b82525050565b60006020820190508181036000830152620007ff816200075e565b9050919050565b60006020820190508181036000830152620008218162000785565b9050919050565b600060208201905081810360008301526200084381620007ac565b9050919050565b6000604082019050620008616000830185620007d3565b81810360208301526200087581846200071d565b90509392505050565b60006200088a6200089d565b9050620008988282620009cc565b919050565b6000604051905090565b600067ffffffffffffffff821115620008c557620008c462000aae565b5b620008d08262000add565b9050602081019050919050565b600081519050919050565b600082825260208201905092915050565b6000620009068262000956565b9150620009138362000956565b9250827fffffffffffffffffffffffffffffffffffffffffffffffffffffffffffffffff038211156200094b576200094a62000a50565b5b828201905092915050565b6000819050919050565b60005b838110156200098057808201518184015260208101905062000963565b8381111562000990576000848401525b50505050565b60006002820490506001821680620009af57607f821691505b60208210811415620009c657620009c562000a7f565b5b50919050565b620009d78262000add565b810181811067ffffffffffffffff82111715620009f957620009f862000aae565b5b80604052505050565b600062000a0f8262000956565b91507fffffffffffffffffffffffffffffffffffffffffffffffffffffffffffffffff82141562000a455762000a4462000a50565b5b600182019050919050565b7f4e487b7100000000000000000000000000000000000000000000000000000000600052601160045260246000fd5b7f4e487b7100000000000000000000000000000000000000000000000000000000600052602260045260246000fd5b7f4e487b7100000000000000000000000000000000000000000000000000000000600052604160045260246000fd5b6000601f19601f8301169050919050565b7f4d7573742077616974206265666f7265206372656174696e6720616e6f74686560008201527f7220636f6c6c656374696f6e0000000000000000000000000000000000000000602082015250565b7f526f79616c746965732070657263656e746167652073686f756c64206265206c60008201527f657373207468616e203130300000000000000000000000000000000000000000602082015250565b7f4d617820636f6c6c656374696f6e732072656163686564000000000000000000600082015250565b614ed58062000bc56000396000f3fe608060405234801561001057600080fd5b50600436106101c45760003560e01c806373ad6c2d116100f9578063b88d4fde11610097578063d08b28ea11610071578063d08b28ea14610565578063da0277fd14610595578063e985e9c5146105c5578063f2fde38b146105f5576101c4565b8063b88d4fde146104e9578063bd6fbad914610505578063c87b56dd14610535576101c4565b80638da5cb5b116100d35780638da5cb5b1461047357806395d89b4114610491578063a22cb465146104af578063ad9f20a6146104cb576101c4565b806373ad6c2d146103f757806382a17cdb1461041357806382abfbd614610443576101c4565b806342842e0e116101665780636313a3e8116101405780636313a3e81461035c5780636352211e1461038d57806370a08231146103bd578063715018a6146103ed576101c4565b806342842e0e146102e057806344ce938e146102fc5780635a1f3c281461032c576101c4565b8063095ea7b3116101a2578063095ea7b31461024757806323b872dd146102635780632a55205a1461027f578063394120c0146102b0576101c4565b806301ffc9a7146101c957806306fdde03146101f9578063081812fc14610217575b600080fd5b6101e360048036038101906101de91906135d6565b610611565b6040516101f09190613eeb565b60405180910390f35b610201610672565b60405161020e9190613f06565b60405180910390f35b610231600480360381019061022c91906136a3565b610704565b60405161023e9190613e39565b60405180910390f35b610261600480360381019061025c919061359a565b61074a565b005b61027d60048036038101906102789190613494565b610862565b005b610299600480360381019061029491906137d6565b6108c2565b6040516102a7929190613ea0565b60405180910390f35b6102ca60048036038101906102c591906136a3565b61093b565b6040516102d79190613e39565b60405180910390f35b6102fa60048036038101906102f59190613494565b61097b565b005b61031660048036038101906103119190613628565b61099b565b604051610323919061428a565b60405180910390f35b610346600480360381019061034191906136a3565b610ce2565b6040516103539190614268565b60405180910390f35b610376600480360381019061037191906136cc565b610e1f565b6040516103849291906142a5565b60405180910390f35b6103a760048036038101906103a291906136a3565b61119d565b6040516103b49190613e39565b60405180910390f35b6103d760048036038101906103d29190613406565b611224565b6040516103e4919061428a565b60405180910390f35b6103f56112dc565b005b610411600480360381019061040c919061342f565b6112f0565b005b61042d60048036038101906104289190613406565b61143d565b60405161043a919061428a565b60405180910390f35b61045d60048036038101906104589190613747565b611455565b60405161046a919061428a565b60405180910390f35b61047b61183a565b6040516104889190613e39565b60405180910390f35b610499611864565b6040516104a69190613f06565b60405180910390f35b6104c960048036038101906104c4919061355e565b6118f6565b005b6104d361190c565b6040516104e0919061428a565b60405180910390f35b61050360048036038101906104fe91906134e3565b611917565b005b61051f600480360381019061051a9190613406565b611979565b60405161052c919061428a565b60405180910390f35b61054f600480360381019061054a91906136a3565b611991565b60405161055c9190613f06565b60405180910390f35b61057f600480360381019061057a9190613812565b611aa4565b60405161058c9190613ec9565b60405180910390f35b6105af60048036038101906105aa91906136a3565b611d05565b6040516105bc9190614268565b60405180910390f35b6105df60048036038101906105da9190613458565b611eb2565b6040516105ec9190613eeb565b60405180910390f35b61060f600480360381019061060a9190613406565b611f46565b005b6000634906490660e01b7bffffffffffffffffffffffffffffffffffffffffffffffffffffffff1916827bffffffffffffffffffffffffffffffffffffffffffffffffffffffff1916148061066b575061066a82611fee565b5b9050919050565b6060600080546106819061464f565b80601f01602080910402602001604051908101604052809291908181526020018280546106ad9061464f565b80156106fa5780601f106106cf576101008083540402835291602001916106fa565b820191906000526020600020905b8154815290600101906020018083116106dd57829003601f168201915b5050505050905090565b600061070f826120d0565b6004600083815260200190815260200160002060009054906101000a900473ffffffffffffffffffffffffffffffffffffffff169050919050565b60006107558261119d565b90508073ffffffffffffffffffffffffffffffffffffffff168373ffffffffffffffffffffffffffffffffffffffff1614156107c6576040517f08c379a00000000000000000000000000000000000000000000000000000000081526004016107bd906141e8565b60405180910390fd5b8073ffffffffffffffffffffffffffffffffffffffff166107e561211b565b73ffffffffffffffffffffffffffffffffffffffff16148061081457506108138161080e61211b565b611eb2565b5b610853576040517f08c379a000000000000000000000000000000000000000000000000000000000815260040161084a90614208565b60405180910390fd5b61085d8383612123565b505050565b61087361086d61211b565b826121dc565b6108b2576040517f08c379a00000000000000000000000000000000000000000000000000000000081526004016108a990613f28565b60405180910390fd5b6108bd838383612271565b505050565b6000806000600b60008681526020019081526020016000205490506000606482866108ed91906144f9565b6108f791906144c8565b9050600a600087815260200190815260200160002060009054906101000a900473ffffffffffffffffffffffffffffffffffffffff16819350935050509250929050565b6000600d600083815260200190815260200160002060020160009054906101000a900473ffffffffffffffffffffffffffffffffffffffff169050919050565b61099683838360405180602001604052806000815250611917565b505050565b60006103e7601060003373ffffffffffffffffffffffffffffffffffffffff1673ffffffffffffffffffffffffffffffffffffffff1681526020019081526020016000205410610a20576040517f08c379a0000000000000000000000000000000000000000000000000000000008152600401610a1790614108565b60405180910390fd5b42603c601160003373ffffffffffffffffffffffffffffffffffffffff1673ffffffffffffffffffffffffffffffffffffffff16815260200190815260200160002054610a6d9190614472565b1115610aae576040517f08c379a0000000000000000000000000000000000000000000000000000000008152600401610aa590613f68565b60405180910390fd5b6064821115610af2576040517f08c379a0000000000000000000000000000000000000000000000000000000008152600401610ae990614068565b60405180910390fd5b610afc6009611fca565b6040518060c00160405280868152602001610b176009611fe0565b81526020013373ffffffffffffffffffffffffffffffffffffffff16815260200185815260200184815260200183815250600d6000610b566009611fe0565b81526020019081526020016000206000820151816000019080519060200190610b809291906131c9565b506020820151816001015560408201518160020160006101000a81548173ffffffffffffffffffffffffffffffffffffffff021916908373ffffffffffffffffffffffffffffffffffffffff160217905550606082015181600301556080820151816004015560a08201518160050155905050601060003373ffffffffffffffffffffffffffffffffffffffff1673ffffffffffffffffffffffffffffffffffffffff1681526020019081526020016000206000815480929190610c43906146b2565b919050555042601160003373ffffffffffffffffffffffffffffffffffffffff1673ffffffffffffffffffffffffffffffffffffffff168152602001908152602001600020819055507f62b7b5ba11bfc95430fab0460fdf99b9c8fbc2b3a6a48caf79c3ee1b591c0336610cb76009611fe0565b86604051610cc69291906142ce565b60405180910390a1610cd86009611fe0565b9050949350505050565b610cea61324f565b600d60008381526020019081526020016000206040518060c0016040529081600082018054610d189061464f565b80601f0160208091040260200160405190810160405280929190818152602001828054610d449061464f565b8015610d915780601f10610d6657610100808354040283529160200191610d91565b820191906000526020600020905b815481529060010190602001808311610d7457829003601f168201915b50505050508152602001600182015481526020016002820160009054906101000a900473ffffffffffffffffffffffffffffffffffffffff1673ffffffffffffffffffffffffffffffffffffffff1673ffffffffffffffffffffffffffffffffffffffff16815260200160038201548152602001600482015481526020016005820154815250509050919050565b600080600c60009054906101000a900473ffffffffffffffffffffffffffffffffffffffff1673ffffffffffffffffffffffffffffffffffffffff163373ffffffffffffffffffffffffffffffffffffffff1614610eb2576040517f08c379a0000000000000000000000000000000000000000000000000000000008152600401610ea990614248565b60405180910390fd5b6000600d6000888152602001908152602001600020600101541415610f0c576040517f08c379a0000000000000000000000000000000000000000000000000000000008152600401610f0390614048565b60405180910390fd5b600d600087815260200190815260200160002060030154421015610f65576040517f08c379a0000000000000000000000000000000000000000000000000000000008152600401610f5c90614228565b60405180910390fd5b600d6000878152602001908152602001600020600401548314610fbd576040517f08c379a0000000000000000000000000000000000000000000000000000000008152600401610fb490613fa8565b60405180910390fd5b610fea600c60009054906101000a900473ffffffffffffffffffffffffffffffffffffffff1660016118f6565b6000610ff66008611fe0565b90506110026008611fca565b61100c868261256b565b6110168186612789565b86600f600083815260200190815260200160002081905550600e6000888152602001908152602001600020819080600181540180825580915050600190039060005260206000200160009091909190915055600d600088815260200190815260200160002060020160009054906101000a900473ffffffffffffffffffffffffffffffffffffffff16600a600083815260200190815260200160002060006101000a81548173ffffffffffffffffffffffffffffffffffffffff021916908373ffffffffffffffffffffffffffffffffffffffff160217905550600d600088815260200190815260200160002060050154600b6000838152602001908152602001600020819055507f5f7666687319b40936f33c188908d86aea154abd3f4127b4fa0a3f04f303c7da818860405161114f9291906142fe565b60405180910390a180600d600089815260200190815260200160002060020160009054906101000a900473ffffffffffffffffffffffffffffffffffffffff16925092505094509492505050565b6000806111a983612834565b9050600073ffffffffffffffffffffffffffffffffffffffff168173ffffffffffffffffffffffffffffffffffffffff16141561121b576040517f08c379a0000000000000000000000000000000000000000000000000000000008152600401611212906141c8565b60405180910390fd5b80915050919050565b60008073ffffffffffffffffffffffffffffffffffffffff168273ffffffffffffffffffffffffffffffffffffffff161415611295576040517f08c379a000000000000000000000000000000000000000000000000000000000815260040161128c90614128565b60405180910390fd5b600360008373ffffffffffffffffffffffffffffffffffffffff1673ffffffffffffffffffffffffffffffffffffffff168152602001908152602001600020549050919050565b6112e4612871565b6112ee60006128ef565b565b6112f8612871565b600073ffffffffffffffffffffffffffffffffffffffff16600c60009054906101000a900473ffffffffffffffffffffffffffffffffffffffff1673ffffffffffffffffffffffffffffffffffffffff1614611389576040517f08c379a0000000000000000000000000000000000000000000000000000000008152600401611380906141a8565b60405180910390fd5b600073ffffffffffffffffffffffffffffffffffffffff168173ffffffffffffffffffffffffffffffffffffffff1614156113f9576040517f08c379a00000000000000000000000000000000000000000000000000000000081526004016113f090613f48565b60405180910390fd5b80600c60006101000a81548173ffffffffffffffffffffffffffffffffffffffff021916908373ffffffffffffffffffffffffffffffffffffffff16021790555050565b60116020528060005260406000206000915090505481565b6000600d6000878152602001908152602001600020600301544210156114b0576040517f08c379a00000000000000000000000000000000000000000000000000000000081526004016114a790614228565b60405180910390fd5b662386f26fc100008410156114fa576040517f08c379a00000000000000000000000000000000000000000000000000000000081526004016114f190613fc8565b60405180910390fd5b6000600d6000888152602001908152602001600020600101541415611554576040517f08c379a000000000000000000000000000000000000000000000000000000000815260040161154b90614048565b60405180910390fd5b6064831115611598576040517f08c379a000000000000000000000000000000000000000000000000000000000815260040161158f90614068565b60405180910390fd5b600186148061160857503373ffffffffffffffffffffffffffffffffffffffff16600d600088815260200190815260200160002060020160009054906101000a900473ffffffffffffffffffffffffffffffffffffffff1673ffffffffffffffffffffffffffffffffffffffff16145b611647576040517f08c379a000000000000000000000000000000000000000000000000000000000815260040161163e90614088565b60405180910390fd5b611674600c60009054906101000a900473ffffffffffffffffffffffffffffffffffffffff1660016118f6565b60006116806008611fe0565b905061168c6008611fca565b611696338261256b565b6116a08187612789565b86600f600083815260200190815260200160002081905550600e600088815260200190815260200160002081908060018154018082558091505060019003906000526020600020016000909190919091505533600a600083815260200190815260200160002060006101000a81548173ffffffffffffffffffffffffffffffffffffffff021916908373ffffffffffffffffffffffffffffffffffffffff16021790555083600b60008381526020019081526020016000208190555082156117f457600c60009054906101000a900473ffffffffffffffffffffffffffffffffffffffff1673ffffffffffffffffffffffffffffffffffffffff166302998cf38287306040518463ffffffff1660e01b81526004016117c193929190614327565b600060405180830381600087803b1580156117db57600080fd5b505af11580156117ef573d6000803e3d6000fd5b505050505b7f5f7666687319b40936f33c188908d86aea154abd3f4127b4fa0a3f04f303c7da81886040516118259291906142fe565b60405180910390a18091505095945050505050565b6000600760009054906101000a900473ffffffffffffffffffffffffffffffffffffffff16905090565b6060600180546118739061464f565b80601f016020809104026020016040519081016040528092919081815260200182805461189f9061464f565b80156118ec5780601f106118c1576101008083540402835291602001916118ec565b820191906000526020600020905b8154815290600101906020018083116118cf57829003601f168201915b5050505050905090565b61190861190161211b565b83836129b5565b5050565b662386f26fc1000081565b61192861192261211b565b836121dc565b611967576040517f08c379a000000000000000000000000000000000000000000000000000000000815260040161195e90613f28565b60405180910390fd5b61197384848484612b22565b50505050565b60106020528060005260406000206000915090505481565b606061199c826120d0565b60006006600084815260200190815260200160002080546119bc9061464f565b80601f01602080910402602001604051908101604052809291908181526020018280546119e89061464f565b8015611a355780601f10611a0a57610100808354040283529160200191611a35565b820191906000526020600020905b815481529060010190602001808311611a1857829003601f168201915b505050505090506000611a46612b7e565b9050600081511415611a5c578192505050611a9f565b600082511115611a91578082604051602001611a79929190613e15565b60405160208183030381529060405292505050611a9f565b611a9a84612b95565b925050505b919050565b60606000600e6000868152602001908152602001600020805480602002602001604051908101604052809291908181526020018280548015611b0557602002820191906000526020600020905b815481526020019060010190808311611af1575b50505050509050600081511480611b1d575080518410155b15611b9a57600067ffffffffffffffff811115611b63577f4e487b7100000000000000000000000000000000000000000000000000000000600052604160045260246000fd5b604051908082528060200260200182016040528015611b915781602001602082028036833780820191505090505b50915050611cfe565b6064831115611ba857606492505b60008385611bb69190614472565b90508151811115611bc657815190505b60008582611bd49190614553565b67ffffffffffffffff811115611c13577f4e487b7100000000000000000000000000000000000000000000000000000000600052604160045260246000fd5b604051908082528060200260200182016040528015611c415781602001602082028036833780820191505090505b50905060008690505b82811015611cf657838181518110611c8b577f4e487b7100000000000000000000000000000000000000000000000000000000600052603260045260246000fd5b6020026020010151828883611ca09190614553565b81518110611cd7577f4e487b7100000000000000000000000000000000000000000000000000000000600052603260045260246000fd5b6020026020010181815250508080611cee906146b2565b915050611c4a565b508093505050505b9392505050565b611d0d61324f565b6000600f6000848152602001908152602001600020541415611d64576040517f08c379a0000000000000000000000000000000000000000000000000000000008152600401611d5b906140e8565b60405180910390fd5b6000600f6000848152602001908152602001600020549050600d60008281526020019081526020016000206040518060c0016040529081600082018054611daa9061464f565b80601f0160208091040260200160405190810160405280929190818152602001828054611dd69061464f565b8015611e235780601f10611df857610100808354040283529160200191611e23565b820191906000526020600020905b815481529060010190602001808311611e0657829003601f168201915b50505050508152602001600182015481526020016002820160009054906101000a900473ffffffffffffffffffffffffffffffffffffffff1673ffffffffffffffffffffffffffffffffffffffff1673ffffffffffffffffffffffffffffffffffffffff1681526020016003820154815260200160048201548152602001600582015481525050915050919050565b6000600560008473ffffffffffffffffffffffffffffffffffffffff1673ffffffffffffffffffffffffffffffffffffffff16815260200190815260200160002060008373ffffffffffffffffffffffffffffffffffffffff1673ffffffffffffffffffffffffffffffffffffffff16815260200190815260200160002060009054906101000a900460ff16905092915050565b611f4e612871565b600073ffffffffffffffffffffffffffffffffffffffff168173ffffffffffffffffffffffffffffffffffffffff161415611fbe576040517f08c379a0000000000000000000000000000000000000000000000000000000008152600401611fb590613fe8565b60405180910390fd5b611fc7816128ef565b50565b6001816000016000828254019250508190555050565b600081600001549050919050565b60007f80ac58cd000000000000000000000000000000000000000000000000000000007bffffffffffffffffffffffffffffffffffffffffffffffffffffffff1916827bffffffffffffffffffffffffffffffffffffffffffffffffffffffff191614806120b957507f5b5e139f000000000000000000000000000000000000000000000000000000007bffffffffffffffffffffffffffffffffffffffffffffffffffffffff1916827bffffffffffffffffffffffffffffffffffffffffffffffffffffffff1916145b806120c957506120c882612bfd565b5b9050919050565b6120d981612c67565b612118576040517f08c379a000000000000000000000000000000000000000000000000000000000815260040161210f906141c8565b60405180910390fd5b50565b600033905090565b816004600083815260200190815260200160002060006101000a81548173ffffffffffffffffffffffffffffffffffffffff021916908373ffffffffffffffffffffffffffffffffffffffff160217905550808273ffffffffffffffffffffffffffffffffffffffff166121968361119d565b73ffffffffffffffffffffffffffffffffffffffff167f8c5be1e5ebec7d5bd14f71427d1e84f3dd0314c0f7b2291e5b200ac8c7c3b92560405160405180910390a45050565b6000806121e88361119d565b90508073ffffffffffffffffffffffffffffffffffffffff168473ffffffffffffffffffffffffffffffffffffffff16148061222a57506122298185611eb2565b5b8061226857508373ffffffffffffffffffffffffffffffffffffffff1661225084610704565b73ffffffffffffffffffffffffffffffffffffffff16145b91505092915050565b8273ffffffffffffffffffffffffffffffffffffffff166122918261119d565b73ffffffffffffffffffffffffffffffffffffffff16146122e7576040517f08c379a00000000000000000000000000000000000000000000000000000000081526004016122de90614008565b60405180910390fd5b600073ffffffffffffffffffffffffffffffffffffffff168273ffffffffffffffffffffffffffffffffffffffff161415612357576040517f08c379a000000000000000000000000000000000000000000000000000000000815260040161234e906140a8565b60405180910390fd5b6123648383836001612ca8565b8273ffffffffffffffffffffffffffffffffffffffff166123848261119d565b73ffffffffffffffffffffffffffffffffffffffff16146123da576040517f08c379a00000000000000000000000000000000000000000000000000000000081526004016123d190614008565b60405180910390fd5b6004600082815260200190815260200160002060006101000a81549073ffffffffffffffffffffffffffffffffffffffff02191690556001600360008573ffffffffffffffffffffffffffffffffffffffff1673ffffffffffffffffffffffffffffffffffffffff168152602001908152602001600020600082825403925050819055506001600360008473ffffffffffffffffffffffffffffffffffffffff1673ffffffffffffffffffffffffffffffffffffffff16815260200190815260200160002060008282540192505081905550816002600083815260200190815260200160002060006101000a81548173ffffffffffffffffffffffffffffffffffffffff021916908373ffffffffffffffffffffffffffffffffffffffff160217905550808273ffffffffffffffffffffffffffffffffffffffff168473ffffffffffffffffffffffffffffffffffffffff167fddf252ad1be2c89b69c2b068fc378daa952ba7f163c4a11628f55a4df523b3ef60405160405180910390a46125668383836001612cae565b505050565b600073ffffffffffffffffffffffffffffffffffffffff168273ffffffffffffffffffffffffffffffffffffffff1614156125db576040517f08c379a00000000000000000000000000000000000000000000000000000000081526004016125d290614168565b60405180910390fd5b6125e481612c67565b15612624576040517f08c379a000000000000000000000000000000000000000000000000000000000815260040161261b90614028565b60405180910390fd5b612632600083836001612ca8565b61263b81612c67565b1561267b576040517f08c379a000000000000000000000000000000000000000000000000000000000815260040161267290614028565b60405180910390fd5b6001600360008473ffffffffffffffffffffffffffffffffffffffff1673ffffffffffffffffffffffffffffffffffffffff16815260200190815260200160002060008282540192505081905550816002600083815260200190815260200160002060006101000a81548173ffffffffffffffffffffffffffffffffffffffff021916908373ffffffffffffffffffffffffffffffffffffffff160217905550808273ffffffffffffffffffffffffffffffffffffffff16600073ffffffffffffffffffffffffffffffffffffffff167fddf252ad1be2c89b69c2b068fc378daa952ba7f163c4a11628f55a4df523b3ef60405160405180910390a4612785600083836001612cae565b5050565b61279282612c67565b6127d1576040517f08c379a00000000000000000000000000000000000000000000000000000000081526004016127c890614148565b60405180910390fd5b806006600084815260200190815260200160002090805190602001906127f89291906131c9565b507ff8e1a15aba9398e019f0b49df1a4fde98ee17ae345cb5f6b5e2c27f5033e8ce782604051612828919061428a565b60405180910390a15050565b60006002600083815260200190815260200160002060009054906101000a900473ffffffffffffffffffffffffffffffffffffffff169050919050565b61287961211b565b73ffffffffffffffffffffffffffffffffffffffff1661289761183a565b73ffffffffffffffffffffffffffffffffffffffff16146128ed576040517f08c379a00000000000000000000000000000000000000000000000000000000081526004016128e490614188565b60405180910390fd5b565b6000600760009054906101000a900473ffffffffffffffffffffffffffffffffffffffff16905081600760006101000a81548173ffffffffffffffffffffffffffffffffffffffff021916908373ffffffffffffffffffffffffffffffffffffffff1602179055508173ffffffffffffffffffffffffffffffffffffffff168173ffffffffffffffffffffffffffffffffffffffff167f8be0079c531659141344cd1fd0a4f28419497f9722a3daafe3b4186f6b6457e060405160405180910390a35050565b8173ffffffffffffffffffffffffffffffffffffffff168373ffffffffffffffffffffffffffffffffffffffff161415612a24576040517f08c379a0000000000000000000000000000000000000000000000000000000008152600401612a1b906140c8565b60405180910390fd5b80600560008573ffffffffffffffffffffffffffffffffffffffff1673ffffffffffffffffffffffffffffffffffffffff16815260200190815260200160002060008473ffffffffffffffffffffffffffffffffffffffff1673ffffffffffffffffffffffffffffffffffffffff16815260200190815260200160002060006101000a81548160ff0219169083151502179055508173ffffffffffffffffffffffffffffffffffffffff168373ffffffffffffffffffffffffffffffffffffffff167f17307eab39ab6107e8899845ad3d59bd9653f200f220920489ca2b5937696c3183604051612b159190613eeb565b60405180910390a3505050565b612b2d848484612271565b612b3984848484612cb4565b612b78576040517f08c379a0000000000000000000000000000000000000000000000000000000008152600401612b6f90613f88565b60405180910390fd5b50505050565b606060405180602001604052806000815250905090565b6060612ba0826120d0565b6000612baa612b7e565b90506000815111612bca5760405180602001604052806000815250612bf5565b80612bd484612e4b565b604051602001612be5929190613e15565b6040516020818303038152906040525b915050919050565b60007f01ffc9a7000000000000000000000000000000000000000000000000000000007bffffffffffffffffffffffffffffffffffffffffffffffffffffffff1916827bffffffffffffffffffffffffffffffffffffffffffffffffffffffff1916149050919050565b60008073ffffffffffffffffffffffffffffffffffffffff16612c8983612834565b73ffffffffffffffffffffffffffffffffffffffff1614159050919050565b50505050565b50505050565b6000612cd58473ffffffffffffffffffffffffffffffffffffffff16612f6f565b15612e3e578373ffffffffffffffffffffffffffffffffffffffff1663150b7a02612cfe61211b565b8786866040518563ffffffff1660e01b8152600401612d209493929190613e54565b602060405180830381600087803b158015612d3a57600080fd5b505af1925050508015612d6b57506040513d601f19601f82011682018060405250810190612d6891906135ff565b60015b612dee573d8060008114612d9b576040519150601f19603f3d011682016040523d82523d6000602084013e612da0565b606091505b50600081511415612de6576040517f08c379a0000000000000000000000000000000000000000000000000000000008152600401612ddd90613f88565b60405180910390fd5b805181602001fd5b63150b7a0260e01b7bffffffffffffffffffffffffffffffffffffffffffffffffffffffff1916817bffffffffffffffffffffffffffffffffffffffffffffffffffffffff191614915050612e43565b600190505b949350505050565b606060006001612e5a84612f92565b01905060008167ffffffffffffffff811115612e9f577f4e487b7100000000000000000000000000000000000000000000000000000000600052604160045260246000fd5b6040519080825280601f01601f191660200182016040528015612ed15781602001600182028036833780820191505090505b509050600082602001820190505b600115612f64578080600190039150507f3031323334353637383961626364656600000000000000000000000000000000600a86061a8153600a8581612f4e577f4e487b7100000000000000000000000000000000000000000000000000000000600052601260045260246000fd5b0494506000851415612f5f57612f64565b612edf565b819350505050919050565b6000808273ffffffffffffffffffffffffffffffffffffffff163b119050919050565b600080600090507a184f03e93ff9f4daa797ed6e38ed64bf6a1f0100000000000000008310613016577a184f03e93ff9f4daa797ed6e38ed64bf6a1f010000000000000000838161300c577f4e487b7100000000000000000000000000000000000000000000000000000000600052601260045260246000fd5b0492506040810190505b6d04ee2d6d415b85acef81000000008310613079576d04ee2d6d415b85acef8100000000838161306f577f4e487b7100000000000000000000000000000000000000000000000000000000600052601260045260246000fd5b0492506020810190505b662386f26fc1000083106130ce57662386f26fc1000083816130c4577f4e487b7100000000000000000000000000000000000000000000000000000000600052601260045260246000fd5b0492506010810190505b6305f5e100831061311d576305f5e1008381613113577f4e487b7100000000000000000000000000000000000000000000000000000000600052601260045260246000fd5b0492506008810190505b612710831061316857612710838161315e577f4e487b7100000000000000000000000000000000000000000000000000000000600052601260045260246000fd5b0492506004810190505b606483106131b157606483816131a7577f4e487b7100000000000000000000000000000000000000000000000000000000600052601260045260246000fd5b0492506002810190505b600a83106131c0576001810190505b80915050919050565b8280546131d59061464f565b90600052602060002090601f0160209004810192826131f7576000855561323e565b82601f1061321057805160ff191683800117855561323e565b8280016001018555821561323e579182015b8281111561323d578251825591602001919060010190613222565b5b50905061324b919061329b565b5090565b6040518060c001604052806060815260200160008152602001600073ffffffffffffffffffffffffffffffffffffffff1681526020016000815260200160008152602001600081525090565b5b808211156132b457600081600090555060010161329c565b5090565b60006132cb6132c684614383565b61435e565b9050828152602081018484840111156132e357600080fd5b6132ee84828561460d565b509392505050565b6000613309613304846143b4565b61435e565b90508281526020810184848401111561332157600080fd5b61332c84828561460d565b509392505050565b60008135905061334381614e2c565b92915050565b60008135905061335881614e43565b92915050565b60008135905061336d81614e5a565b92915050565b60008135905061338281614e71565b92915050565b60008151905061339781614e71565b92915050565b600082601f8301126133ae57600080fd5b81356133be8482602086016132b8565b91505092915050565b600082601f8301126133d857600080fd5b81356133e88482602086016132f6565b91505092915050565b60008135905061340081614e88565b92915050565b60006020828403121561341857600080fd5b600061342684828501613334565b91505092915050565b60006020828403121561344157600080fd5b600061344f84828501613349565b91505092915050565b6000806040838503121561346b57600080fd5b600061347985828601613334565b925050602061348a85828601613334565b9150509250929050565b6000806000606084860312156134a957600080fd5b60006134b786828701613334565b93505060206134c886828701613334565b92505060406134d9868287016133f1565b9150509250925092565b600080600080608085870312156134f957600080fd5b600061350787828801613334565b945050602061351887828801613334565b9350506040613529878288016133f1565b925050606085013567ffffffffffffffff81111561354657600080fd5b6135528782880161339d565b91505092959194509250565b6000806040838503121561357157600080fd5b600061357f85828601613334565b92505060206135908582860161335e565b9150509250929050565b600080604083850312156135ad57600080fd5b60006135bb85828601613334565b92505060206135cc858286016133f1565b9150509250929050565b6000602082840312156135e857600080fd5b60006135f684828501613373565b91505092915050565b60006020828403121561361157600080fd5b600061361f84828501613388565b91505092915050565b6000806000806080858703121561363e57600080fd5b600085013567ffffffffffffffff81111561365857600080fd5b613664878288016133c7565b9450506020613675878288016133f1565b9350506040613686878288016133f1565b9250506060613697878288016133f1565b91505092959194509250565b6000602082840312156136b557600080fd5b60006136c3848285016133f1565b91505092915050565b600080600080608085870312156136e257600080fd5b60006136f0878288016133f1565b945050602061370187828801613334565b935050604085013567ffffffffffffffff81111561371e57600080fd5b61372a878288016133c7565b925050606061373b878288016133f1565b91505092959194509250565b600080600080600060a0868803121561375f57600080fd5b600061376d888289016133f1565b955050602086013567ffffffffffffffff81111561378a57600080fd5b613796888289016133c7565b94505060406137a7888289016133f1565b93505060606137b8888289016133f1565b92505060806137c98882890161335e565b9150509295509295909350565b600080604083850312156137e957600080fd5b60006137f7858286016133f1565b9250506020613808858286016133f1565b9150509250929050565b60008060006060848603121561382757600080fd5b6000613835868287016133f1565b9350506020613846868287016133f1565b9250506040613857868287016133f1565b9150509250925092565b600061386d8383613df7565b60208301905092915050565b61388281614587565b82525050565b61389181614587565b82525050565b60006138a2826143f5565b6138ac8185614423565b93506138b7836143e5565b8060005b838110156138e85781516138cf8882613861565b97506138da83614416565b9250506001810190506138bb565b5085935050505092915050565b6138fe816145ab565b82525050565b600061390f82614400565b6139198185614434565b935061392981856020860161461c565b613932816147b7565b840191505092915050565b60006139488261440b565b6139528185614445565b935061396281856020860161461c565b61396b816147b7565b840191505092915050565b60006139818261440b565b61398b8185614456565b935061399b81856020860161461c565b6139a4816147b7565b840191505092915050565b60006139ba8261440b565b6139c48185614467565b93506139d481856020860161461c565b80840191505092915050565b60006139ed602d83614456565b91506139f8826147c8565b604082019050919050565b6000613a10600f83614456565b9150613a1b82614817565b602082019050919050565b6000613a33602c83614456565b9150613a3e82614840565b604082019050919050565b6000613a56603283614456565b9150613a618261488f565b604082019050919050565b6000613a79602f83614456565b9150613a84826148de565b604082019050919050565b6000613a9c602083614456565b9150613aa78261492d565b602082019050919050565b6000613abf602683614456565b9150613aca82614956565b604082019050919050565b6000613ae2602583614456565b9150613aed826149a5565b604082019050919050565b6000613b05601c83614456565b9150613b10826149f4565b602082019050919050565b6000613b28601983614456565b9150613b3382614a1d565b602082019050919050565b6000613b4b602c83614456565b9150613b5682614a46565b604082019050919050565b6000613b6e601f83614456565b9150613b7982614a95565b602082019050919050565b6000613b91602483614456565b9150613b9c82614abe565b604082019050919050565b6000613bb4601983614456565b9150613bbf82614b0d565b602082019050919050565b6000613bd7602783614456565b9150613be282614b36565b604082019050919050565b6000613bfa601783614456565b9150613c0582614b85565b602082019050919050565b6000613c1d602983614456565b9150613c2882614bae565b604082019050919050565b6000613c40602e83614456565b9150613c4b82614bfd565b604082019050919050565b6000613c63602083614456565b9150613c6e82614c4c565b602082019050919050565b6000613c86602083614456565b9150613c9182614c75565b602082019050919050565b6000613ca9602883614456565b9150613cb482614c9e565b604082019050919050565b6000613ccc601883614456565b9150613cd782614ced565b602082019050919050565b6000613cef602183614456565b9150613cfa82614d16565b604082019050919050565b6000613d12603d83614456565b9150613d1d82614d65565b604082019050919050565b6000613d35602b83614456565b9150613d4082614db4565b604082019050919050565b6000613d58601983614456565b9150613d6382614e03565b602082019050919050565b600060c0830160008301518482036000860152613d8b828261393d565b9150506020830151613da06020860182613df7565b506040830151613db36040860182613879565b506060830151613dc66060860182613df7565b506080830151613dd96080860182613df7565b5060a0830151613dec60a0860182613df7565b508091505092915050565b613e0081614603565b82525050565b613e0f81614603565b82525050565b6000613e2182856139af565b9150613e2d82846139af565b91508190509392505050565b6000602082019050613e4e6000830184613888565b92915050565b6000608082019050613e696000830187613888565b613e766020830186613888565b613e836040830185613e06565b8181036060830152613e958184613904565b905095945050505050565b6000604082019050613eb56000830185613888565b613ec26020830184613e06565b9392505050565b60006020820190508181036000830152613ee38184613897565b905092915050565b6000602082019050613f0060008301846138f5565b92915050565b60006020820190508181036000830152613f208184613976565b905092915050565b60006020820190508181036000830152613f41816139e0565b9050919050565b60006020820190508181036000830152613f6181613a03565b9050919050565b60006020820190508181036000830152613f8181613a26565b9050919050565b60006020820190508181036000830152613fa181613a49565b9050919050565b60006020820190508181036000830152613fc181613a6c565b9050919050565b60006020820190508181036000830152613fe181613a8f565b9050919050565b6000602082019050818103600083015261400181613ab2565b9050919050565b6000602082019050818103600083015261402181613ad5565b9050919050565b6000602082019050818103600083015261404181613af8565b9050919050565b6000602082019050818103600083015261406181613b1b565b9050919050565b6000602082019050818103600083015261408181613b3e565b9050919050565b600060208201905081810360008301526140a181613b61565b9050919050565b600060208201905081810360008301526140c181613b84565b9050919050565b600060208201905081810360008301526140e181613ba7565b9050919050565b6000602082019050818103600083015261410181613bca565b9050919050565b6000602082019050818103600083015261412181613bed565b9050919050565b6000602082019050818103600083015261414181613c10565b9050919050565b6000602082019050818103600083015261416181613c33565b9050919050565b6000602082019050818103600083015261418181613c56565b9050919050565b600060208201905081810360008301526141a181613c79565b9050919050565b600060208201905081810360008301526141c181613c9c565b9050919050565b600060208201905081810360008301526141e181613cbf565b9050919050565b6000602082019050818103600083015261420181613ce2565b9050919050565b6000602082019050818103600083015261422181613d05565b9050919050565b6000602082019050818103600083015261424181613d28565b9050919050565b6000602082019050818103600083015261426181613d4b565b9050919050565b600060208201905081810360008301526142828184613d6e565b905092915050565b600060208201905061429f6000830184613e06565b92915050565b60006040820190506142ba6000830185613e06565b6142c76020830184613888565b9392505050565b60006040820190506142e36000830185613e06565b81810360208301526142f58184613976565b90509392505050565b60006040820190506143136000830185613e06565b6143206020830184613e06565b9392505050565b600060608201905061433c6000830186613e06565b6143496020830185613e06565b6143566040830184613888565b949350505050565b6000614368614379565b90506143748282614681565b919050565b6000604051905090565b600067ffffffffffffffff82111561439e5761439d614788565b5b6143a7826147b7565b9050602081019050919050565b600067ffffffffffffffff8211156143cf576143ce614788565b5b6143d8826147b7565b9050602081019050919050565b6000819050602082019050919050565b600081519050919050565b600081519050919050565b600081519050919050565b6000602082019050919050565b600082825260208201905092915050565b600082825260208201905092915050565b600082825260208201905092915050565b600082825260208201905092915050565b600081905092915050565b600061447d82614603565b915061448883614603565b9250827fffffffffffffffffffffffffffffffffffffffffffffffffffffffffffffffff038211156144bd576144bc6146fb565b5b828201905092915050565b60006144d382614603565b91506144de83614603565b9250826144ee576144ed61472a565b5b828204905092915050565b600061450482614603565b915061450f83614603565b9250817fffffffffffffffffffffffffffffffffffffffffffffffffffffffffffffffff0483118215151615614548576145476146fb565b5b828202905092915050565b600061455e82614603565b915061456983614603565b92508282101561457c5761457b6146fb565b5b828203905092915050565b6000614592826145e3565b9050919050565b60006145a4826145e3565b9050919050565b60008115159050919050565b60007fffffffff0000000000000000000000000000000000000000000000000000000082169050919050565b600073ffffffffffffffffffffffffffffffffffffffff82169050919050565b6000819050919050565b82818337600083830152505050565b60005b8381101561463a57808201518184015260208101905061461f565b83811115614649576000848401525b50505050565b6000600282049050600182168061466757607f821691505b6020821081141561467b5761467a614759565b5b50919050565b61468a826147b7565b810181811067ffffffffffffffff821117156146a9576146a8614788565b5b80604052505050565b60006146bd82614603565b91507fffffffffffffffffffffffffffffffffffffffffffffffffffffffffffffffff8214156146f0576146ef6146fb565b5b600182019050919050565b7f4e487b7100000000000000000000000000000000000000000000000000000000600052601160045260246000fd5b7f4e487b7100000000000000000000000000000000000000000000000000000000600052601260045260246000fd5b7f4e487b7100000000000000000000000000000000000000000000000000000000600052602260045260246000fd5b7f4e487b7100000000000000000000000000000000000000000000000000000000600052604160045260246000fd5b6000601f19601f8301169050919050565b7f4552433732313a2063616c6c6572206973206e6f7420746f6b656e206f776e6560008201527f72206f7220617070726f76656400000000000000000000000000000000000000602082015250565b7f496e76616c696420616464726573730000000000000000000000000000000000600082015250565b7f4d7573742077616974206265666f7265206372656174696e6720616e6f74686560008201527f7220636f6c6c656374696f6e0000000000000000000000000000000000000000602082015250565b7f4552433732313a207472616e7366657220746f206e6f6e20455243373231526560008201527f63656976657220696d706c656d656e7465720000000000000000000000000000602082015250565b7f50726963652073686f756c6420626520657175616c20746f20636f6c6c65637460008201527f696f6e73206d696e742070726963650000000000000000000000000000000000602082015250565b7f5072696365206d757374206265206174206c65617374204d494e5f5052494345600082015250565b7f4f776e61626c653a206e6577206f776e657220697320746865207a65726f206160008201527f6464726573730000000000000000000000000000000000000000000000000000602082015250565b7f4552433732313a207472616e736665722066726f6d20696e636f72726563742060008201527f6f776e6572000000000000000000000000000000000000000000000000000000602082015250565b7f4552433732313a20746f6b656e20616c7265616479206d696e74656400000000600082015250565b7f436f6c6c656374696f6e20646f6573206e6f7420657869737400000000000000600082015250565b7f526f79616c746965732070657263656e746167652073686f756c64206265206c60008201527f657373207468616e203130300000000000000000000000000000000000000000602082015250565b7f4e6f7420746865206f776e6572206f662074686520636f6c6c656374696f6e00600082015250565b7f4552433732313a207472616e7366657220746f20746865207a65726f2061646460008201527f7265737300000000000000000000000000000000000000000000000000000000602082015250565b7f4552433732313a20617070726f766520746f2063616c6c657200000000000000600082015250565b7f546f6b656e20646f6573206e6f742062656c6f6e6720746f20616e7920636f6c60008201527f6c656374696f6e00000000000000000000000000000000000000000000000000602082015250565b7f4d617820636f6c6c656374696f6e732072656163686564000000000000000000600082015250565b7f4552433732313a2061646472657373207a65726f206973206e6f74206120766160008201527f6c6964206f776e65720000000000000000000000000000000000000000000000602082015250565b7f45524337323155524953746f726167653a2055524920736574206f66206e6f6e60008201527f6578697374656e7420746f6b656e000000000000000000000000000000000000602082015250565b7f4552433732313a206d696e7420746f20746865207a65726f2061646472657373600082015250565b7f4f776e61626c653a2063616c6c6572206973206e6f7420746865206f776e6572600082015250565b7f4d61726b6574706c61636520616464726573732068617320616c72656164792060008201527f6265656e20736574000000000000000000000000000000000000000000000000602082015250565b7f4552433732313a20696e76616c696420746f6b656e2049440000000000000000600082015250565b7f4552433732313a20617070726f76616c20746f2063757272656e74206f776e6560008201527f7200000000000000000000000000000000000000000000000000000000000000602082015250565b7f4552433732313a20617070726f76652063616c6c6572206973206e6f7420746f60008201527f6b656e206f776e6572206f7220617070726f76656420666f7220616c6c000000602082015250565b7f436f6c6c656374696f6e206973206e6f742079657420617661696c61626c652060008201527f666f72206d696e74696e67000000000000000000000000000000000000000000602082015250565b7f4f6e6c79206d61726b6574706c6163652063616e2063616c6c00000000000000600082015250565b614e3581614587565b8114614e4057600080fd5b50565b614e4c81614599565b8114614e5757600080fd5b50565b614e63816145ab565b8114614e6e57600080fd5b50565b614e7a816145b7565b8114614e8557600080fd5b50565b614e9181614603565b8114614e9c57600080fd5b5056fea26469706673582212200a5986f01a6f47114d7857c696406c41b71325ea56d039eba72714dd7ebddf2d64736f6c63430008010033",
  "linkReferences": {},
  "deployedLinkReferences": {}
}