{
  "_format": "hh-sol-artifact-1",
  "contractName": "NFTMarketplace",
  "sourceName": "contracts/NFTMarketplace.sol",
  "abi": [
    {
      "inputs": [
        {
          "internalType": "address",
          "name": "nftContractAddress",
          "type": "address"
        },
        {
          "internalType": "address[]",
          "name": "payees",
          "type": "address[]"
        },
        {
          "internalType": "uint256[]",
          "name": "shares",
          "type": "uint256[]"
        },
        {
          "internalType": "uint256",
          "name": "royalties",
          "type": "uint256"
        }
      ],
      "stateMutability": "nonpayable",
      "type": "constructor"
    },
    {
      "anonymous": false,
      "inputs": [
        {
          "indexed": true,
          "internalType": "contract IERC20",
          "name": "token",
          "type": "address"
        },
        {
          "indexed": false,
          "internalType": "address",
          "name": "to",
          "type": "address"
        },
        {
          "indexed": false,
          "internalType": "uint256",
          "name": "amount",
          "type": "uint256"
        }
      ],
      "name": "ERC20PaymentReleased",
      "type": "event"
    },
    {
      "anonymous": false,
      "inputs": [
        {
          "indexed": true,
          "internalType": "uint256",
          "name": "tokenId",
          "type": "uint256"
        },
        {
          "indexed": false,
          "internalType": "uint256",
          "name": "price",
          "type": "uint256"
        },
        {
          "indexed": true,
          "internalType": "address",
          "name": "seller",
          "type": "address"
        },
        {
          "indexed": true,
          "internalType": "address",
          "name": "buyer",
          "type": "address"
        },
        {
          "indexed": false,
          "internalType": "address",
          "name": "collection",
          "type": "address"
        }
      ],
      "name": "NFTSold",
      "type": "event"
    },
    {
      "anonymous": false,
      "inputs": [
        {
          "indexed": true,
          "internalType": "address",
          "name": "previousOwner",
          "type": "address"
        },
        {
          "indexed": true,
          "internalType": "address",
          "name": "newOwner",
          "type": "address"
        }
      ],
      "name": "OwnershipTransferred",
      "type": "event"
    },
    {
      "anonymous": false,
      "inputs": [
        {
          "indexed": false,
          "internalType": "address",
          "name": "account",
          "type": "address"
        }
      ],
      "name": "Paused",
      "type": "event"
    },
    {
      "anonymous": false,
      "inputs": [
        {
          "indexed": false,
          "internalType": "address",
          "name": "account",
          "type": "address"
        },
        {
          "indexed": false,
          "internalType": "uint256",
          "name": "shares",
          "type": "uint256"
        }
      ],
      "name": "PayeeAdded",
      "type": "event"
    },
    {
      "anonymous": false,
      "inputs": [
        {
          "indexed": false,
          "internalType": "address",
          "name": "from",
          "type": "address"
        },
        {
          "indexed": false,
          "internalType": "uint256",
          "name": "amount",
          "type": "uint256"
        }
      ],
      "name": "PaymentReceived",
      "type": "event"
    },
    {
      "anonymous": false,
      "inputs": [
        {
          "indexed": false,
          "internalType": "address",
          "name": "to",
          "type": "address"
        },
        {
          "indexed": false,
          "internalType": "uint256",
          "name": "amount",
          "type": "uint256"
        }
      ],
      "name": "PaymentReleased",
      "type": "event"
    },
    {
      "anonymous": false,
      "inputs": [
        {
          "indexed": false,
          "internalType": "address",
          "name": "account",
          "type": "address"
        }
      ],
      "name": "Unpaused",
      "type": "event"
    },
    {
      "inputs": [],
      "name": "MIN_PRICE",
      "outputs": [
        {
          "internalType": "uint256",
          "name": "",
          "type": "uint256"
        }
      ],
      "stateMutability": "view",
      "type": "function"
    },
    {
      "inputs": [
        {
          "internalType": "uint256",
          "name": "collectionId",
          "type": "uint256"
        },
        {
          "internalType": "string",
          "name": "tokenURI",
          "type": "string"
        }
      ],
      "name": "buyFromCollection",
      "outputs": [],
      "stateMutability": "payable",
      "type": "function"
    },
    {
      "inputs": [
        {
          "internalType": "address",
          "name": "collection",
          "type": "address"
        },
        {
          "internalType": "uint256",
          "name": "tokenId",
          "type": "uint256"
        }
      ],
      "name": "buyNFT",
      "outputs": [],
      "stateMutability": "payable",
      "type": "function"
    },
    {
      "inputs": [
        {
          "internalType": "address",
          "name": "collection",
          "type": "address"
        },
        {
          "internalType": "uint256",
          "name": "tokenId",
          "type": "uint256"
        }
      ],
      "name": "delistNFT",
      "outputs": [],
      "stateMutability": "nonpayable",
      "type": "function"
    },
    {
      "inputs": [
        {
          "internalType": "uint256",
          "name": "page",
          "type": "uint256"
        }
      ],
      "name": "getAllListings",
      "outputs": [
        {
          "components": [
            {
              "internalType": "uint256",
              "name": "tokenId",
              "type": "uint256"
            },
            {
              "internalType": "uint256",
              "name": "price",
              "type": "uint256"
            },
            {
              "internalType": "address",
              "name": "seller",
              "type": "address"
            },
            {
              "internalType": "address",
              "name": "collection",
              "type": "address"
            }
          ],
          "internalType": "struct NFTMarketplace.Listing[]",
          "name": "",
          "type": "tuple[]"
        }
      ],
      "stateMutability": "view",
      "type": "function"
    },
    {
      "inputs": [
        {
          "internalType": "address",
          "name": "collection",
          "type": "address"
        },
        {
          "internalType": "uint256",
          "name": "tokenId",
          "type": "uint256"
        }
      ],
      "name": "getKeyForToken",
      "outputs": [
        {
          "internalType": "bytes32",
          "name": "",
          "type": "bytes32"
        }
      ],
      "stateMutability": "pure",
      "type": "function"
    },
    {
      "inputs": [
        {
          "internalType": "uint256",
          "name": "collectionId",
          "type": "uint256"
        },
        {
          "internalType": "uint256",
          "name": "startIndex",
          "type": "uint256"
        },
        {
          "internalType": "uint256",
          "name": "pageSize",
          "type": "uint256"
        },
        {
          "internalType": "address",
          "name": "collection",
          "type": "address"
        }
      ],
      "name": "getListedTokensInCollection",
      "outputs": [
        {
          "internalType": "uint256[]",
          "name": "",
          "type": "uint256[]"
        }
      ],
      "stateMutability": "view",
      "type": "function"
    },
    {
      "inputs": [
        {
          "internalType": "uint256",
          "name": "tokenId",
          "type": "uint256"
        },
        {
          "internalType": "address",
          "name": "collection",
          "type": "address"
        }
      ],
      "name": "getListingByTokenIdAndAddress",
      "outputs": [
        {
          "components": [
            {
              "internalType": "uint256",
              "name": "tokenId",
              "type": "uint256"
            },
            {
              "internalType": "uint256",
              "name": "price",
              "type": "uint256"
            },
            {
              "internalType": "address",
              "name": "seller",
              "type": "address"
            },
            {
              "internalType": "address",
              "name": "collection",
              "type": "address"
            }
          ],
          "internalType": "struct NFTMarketplace.Listing",
          "name": "",
          "type": "tuple"
        }
      ],
      "stateMutability": "view",
      "type": "function"
    },
    {
      "inputs": [
        {
          "internalType": "address",
          "name": "collection",
          "type": "address"
        },
        {
          "internalType": "uint256",
          "name": "page",
          "type": "uint256"
        }
      ],
      "name": "getListingsByNFTContract",
      "outputs": [
        {
          "components": [
            {
              "internalType": "uint256",
              "name": "tokenId",
              "type": "uint256"
            },
            {
              "internalType": "uint256",
              "name": "price",
              "type": "uint256"
            },
            {
              "internalType": "address",
              "name": "seller",
              "type": "address"
            },
            {
              "internalType": "address",
              "name": "collection",
              "type": "address"
            }
          ],
          "internalType": "struct NFTMarketplace.Listing[]",
          "name": "",
          "type": "tuple[]"
        }
      ],
      "stateMutability": "view",
      "type": "function"
    },
    {
      "inputs": [
        {
          "internalType": "address",
          "name": "seller",
          "type": "address"
        },
        {
          "internalType": "uint256",
          "name": "page",
          "type": "uint256"
        }
      ],
      "name": "getListingsBySeller",
      "outputs": [
        {
          "components": [
            {
              "internalType": "uint256",
              "name": "tokenId",
              "type": "uint256"
            },
            {
              "internalType": "uint256",
              "name": "price",
              "type": "uint256"
            },
            {
              "internalType": "address",
              "name": "seller",
              "type": "address"
            },
            {
              "internalType": "address",
              "name": "collection",
              "type": "address"
            }
          ],
          "internalType": "struct NFTMarketplace.Listing[]",
          "name": "",
          "type": "tuple[]"
        }
      ],
      "stateMutability": "view",
      "type": "function"
    },
    {
      "inputs": [
        {
          "internalType": "address",
          "name": "collection",
          "type": "address"
        },
        {
          "internalType": "uint256",
          "name": "tokenId",
          "type": "uint256"
        }
      ],
      "name": "isTokenListed",
      "outputs": [
        {
          "internalType": "bool",
          "name": "",
          "type": "bool"
        }
      ],
      "stateMutability": "view",
      "type": "function"
    },
    {
      "inputs": [
        {
          "internalType": "uint256",
          "name": "tokenId",
          "type": "uint256"
        },
        {
          "internalType": "uint256",
          "name": "price",
          "type": "uint256"
        },
        {
          "internalType": "address",
          "name": "collection",
          "type": "address"
        }
      ],
      "name": "listNFT",
      "outputs": [],
      "stateMutability": "nonpayable",
      "type": "function"
    },
    {
      "inputs": [
        {
          "internalType": "bytes32",
          "name": "",
          "type": "bytes32"
        }
      ],
      "name": "listings",
      "outputs": [
        {
          "internalType": "uint256",
          "name": "tokenId",
          "type": "uint256"
        },
        {
          "internalType": "uint256",
          "name": "price",
          "type": "uint256"
        },
        {
          "internalType": "address",
          "name": "seller",
          "type": "address"
        },
        {
          "internalType": "address",
          "name": "collection",
          "type": "address"
        }
      ],
      "stateMutability": "view",
      "type": "function"
    },
    {
      "inputs": [
        {
          "internalType": "uint256",
          "name": "",
          "type": "uint256"
        }
      ],
      "name": "listingsKeys",
      "outputs": [
        {
          "internalType": "bytes32",
          "name": "",
          "type": "bytes32"
        }
      ],
      "stateMutability": "view",
      "type": "function"
    },
    {
      "inputs": [],
      "name": "owner",
      "outputs": [
        {
          "internalType": "address",
          "name": "",
          "type": "address"
        }
      ],
      "stateMutability": "view",
      "type": "function"
    },
    {
      "inputs": [],
      "name": "pause",
      "outputs": [],
      "stateMutability": "nonpayable",
      "type": "function"
    },
    {
      "inputs": [],
      "name": "paused",
      "outputs": [
        {
          "internalType": "bool",
          "name": "",
          "type": "bool"
        }
      ],
      "stateMutability": "view",
      "type": "function"
    },
    {
      "inputs": [
        {
          "internalType": "uint256",
          "name": "index",
          "type": "uint256"
        }
      ],
      "name": "payee",
      "outputs": [
        {
          "internalType": "address",
          "name": "",
          "type": "address"
        }
      ],
      "stateMutability": "view",
      "type": "function"
    },
    {
      "inputs": [
        {
          "internalType": "address",
          "name": "account",
          "type": "address"
        }
      ],
      "name": "releasable",
      "outputs": [
        {
          "internalType": "uint256",
          "name": "",
          "type": "uint256"
        }
      ],
      "stateMutability": "view",
      "type": "function"
    },
    {
      "inputs": [
        {
          "internalType": "contract IERC20",
          "name": "token",
          "type": "address"
        },
        {
          "internalType": "address",
          "name": "account",
          "type": "address"
        }
      ],
      "name": "releasable",
      "outputs": [
        {
          "internalType": "uint256",
          "name": "",
          "type": "uint256"
        }
      ],
      "stateMutability": "view",
      "type": "function"
    },
    {
      "inputs": [
        {
          "internalType": "address payable",
          "name": "account",
          "type": "address"
        }
      ],
      "name": "release",
      "outputs": [],
      "stateMutability": "nonpayable",
      "type": "function"
    },
    {
      "inputs": [
        {
          "internalType": "contract IERC20",
          "name": "token",
          "type": "address"
        },
        {
          "internalType": "address",
          "name": "account",
          "type": "address"
        }
      ],
      "name": "release",
      "outputs": [],
      "stateMutability": "nonpayable",
      "type": "function"
    },
    {
      "inputs": [
        {
          "internalType": "contract IERC20",
          "name": "token",
          "type": "address"
        },
        {
          "internalType": "address",
          "name": "account",
          "type": "address"
        }
      ],
      "name": "released",
      "outputs": [
        {
          "internalType": "uint256",
          "name": "",
          "type": "uint256"
        }
      ],
      "stateMutability": "view",
      "type": "function"
    },
    {
      "inputs": [
        {
          "internalType": "address",
          "name": "account",
          "type": "address"
        }
      ],
      "name": "released",
      "outputs": [
        {
          "internalType": "uint256",
          "name": "",
          "type": "uint256"
        }
      ],
      "stateMutability": "view",
      "type": "function"
    },
    {
      "inputs": [],
      "name": "renounceOwnership",
      "outputs": [],
      "stateMutability": "nonpayable",
      "type": "function"
    },
    {
      "inputs": [
        {
          "internalType": "address",
          "name": "account",
          "type": "address"
        }
      ],
      "name": "shares",
      "outputs": [
        {
          "internalType": "uint256",
          "name": "",
          "type": "uint256"
        }
      ],
      "stateMutability": "view",
      "type": "function"
    },
    {
      "inputs": [
        {
          "internalType": "contract IERC20",
          "name": "token",
          "type": "address"
        }
      ],
      "name": "totalReleased",
      "outputs": [
        {
          "internalType": "uint256",
          "name": "",
          "type": "uint256"
        }
      ],
      "stateMutability": "view",
      "type": "function"
    },
    {
      "inputs": [],
      "name": "totalReleased",
      "outputs": [
        {
          "internalType": "uint256",
          "name": "",
          "type": "uint256"
        }
      ],
      "stateMutability": "view",
      "type": "function"
    },
    {
      "inputs": [],
      "name": "totalShares",
      "outputs": [
        {
          "internalType": "uint256",
          "name": "",
          "type": "uint256"
        }
      ],
      "stateMutability": "view",
      "type": "function"
    },
    {
      "inputs": [
        {
          "internalType": "address",
          "name": "newOwner",
          "type": "address"
        }
      ],
      "name": "transferOwnership",
      "outputs": [],
      "stateMutability": "nonpayable",
      "type": "function"
    },
    {
      "inputs": [],
      "name": "unpause",
      "outputs": [],
      "stateMutability": "nonpayable",
      "type": "function"
    },
    {
      "stateMutability": "payable",
      "type": "receive"
    }
  ],
  "bytecode": "0x60806040523480156200001157600080fd5b5060405162006d0b38038062006d0b8339818101604052810190620000379190620007a3565b8282620000596200004d6200032b60201b60201c565b6200033360201b60201c565b600180819055508051825114620000a7576040517f08c379a00000000000000000000000000000000000000000000000000000000081526004016200009e9062000a0c565b60405180910390fd5b6000825111620000ee576040517f08c379a0000000000000000000000000000000000000000000000000000000008152600401620000e59062000a94565b60405180910390fd5b60005b8251811015620001a5576200018f83828151811062000139577f4e487b7100000000000000000000000000000000000000000000000000000000600052603260045260246000fd5b60200260200101518383815181106200017b577f4e487b7100000000000000000000000000000000000000000000000000000000600052603260045260246000fd5b6020026020010151620003f760201b60201c565b80806200019c9062000c41565b915050620000f1565b5050506000600960006101000a81548160ff02191690831515021790555060008351116200020a576040517f08c379a0000000000000000000000000000000000000000000000000000000008152600401620002019062000a50565b60405180910390fd5b815183511462000251576040517f08c379a0000000000000000000000000000000000000000000000000000000008152600401620002489062000a2e565b60405180910390fd5b600a81111562000298576040517f08c379a00000000000000000000000000000000000000000000000000000000081526004016200028f90620009ea565b60405180910390fd5b83600c60006101000a81548173ffffffffffffffffffffffffffffffffffffffff021916908373ffffffffffffffffffffffffffffffffffffffff16021790555083600b60006101000a81548173ffffffffffffffffffffffffffffffffffffffff021916908373ffffffffffffffffffffffffffffffffffffffff16021790555080600a819055505050505062000f12565b600033905090565b60008060009054906101000a900473ffffffffffffffffffffffffffffffffffffffff169050816000806101000a81548173ffffffffffffffffffffffffffffffffffffffff021916908373ffffffffffffffffffffffffffffffffffffffff1602179055508173ffffffffffffffffffffffffffffffffffffffff168173ffffffffffffffffffffffffffffffffffffffff167f8be0079c531659141344cd1fd0a4f28419497f9722a3daafe3b4186f6b6457e060405160405180910390a35050565b600073ffffffffffffffffffffffffffffffffffffffff168273ffffffffffffffffffffffffffffffffffffffff1614156200046a576040517f08c379a00000000000000000000000000000000000000000000000000000000081526004016200046190620009c8565b60405180910390fd5b60008111620004b0576040517f08c379a0000000000000000000000000000000000000000000000000000000008152600401620004a79062000ab6565b60405180910390fd5b6000600460008473ffffffffffffffffffffffffffffffffffffffff1673ffffffffffffffffffffffffffffffffffffffff168152602001908152602001600020541462000535576040517f08c379a00000000000000000000000000000000000000000000000000000000081526004016200052c9062000a72565b60405180910390fd5b6006829080600181540180825580915050600190039060005260206000200160009091909190916101000a81548173ffffffffffffffffffffffffffffffffffffffff021916908373ffffffffffffffffffffffffffffffffffffffff16021790555080600460008473ffffffffffffffffffffffffffffffffffffffff1673ffffffffffffffffffffffffffffffffffffffff1681526020019081526020016000208190555080600254620005ec919062000b70565b6002819055507f40c340f65e17194d14ddddb073d3c9f888e3cb52b5aae0c6c7706b4fbc905fac8282604051620006259291906200099b565b60405180910390a15050565b600062000648620006428462000b01565b62000ad8565b905080838252602082019050828560208602820111156200066857600080fd5b60005b858110156200069c57816200068188826200071b565b8452602084019350602083019250506001810190506200066b565b5050509392505050565b6000620006bd620006b78462000b30565b62000ad8565b90508083825260208201905082856020860282011115620006dd57600080fd5b60005b85811015620007115781620006f688826200078c565b845260208401935060208301925050600181019050620006e0565b5050509392505050565b6000815190506200072c8162000ede565b92915050565b600082601f8301126200074457600080fd5b81516200075684826020860162000631565b91505092915050565b600082601f8301126200077157600080fd5b815162000783848260208601620006a6565b91505092915050565b6000815190506200079d8162000ef8565b92915050565b60008060008060808587031215620007ba57600080fd5b6000620007ca878288016200071b565b945050602085015167ffffffffffffffff811115620007e857600080fd5b620007f68782880162000732565b935050604085015167ffffffffffffffff8111156200081457600080fd5b62000822878288016200075f565b925050606062000835878288016200078c565b91505092959194509250565b6200084c8162000bcd565b82525050565b600062000861602c8362000b5f565b91506200086e8262000cfe565b604082019050919050565b600062000888601f8362000b5f565b9150620008958262000d4d565b602082019050919050565b6000620008af60328362000b5f565b9150620008bc8262000d76565b604082019050919050565b6000620008d660238362000b5f565b9150620008e38262000dc5565b604082019050919050565b6000620008fd601e8362000b5f565b91506200090a8262000e14565b602082019050919050565b600062000924602b8362000b5f565b9150620009318262000e3d565b604082019050919050565b60006200094b601a8362000b5f565b9150620009588262000e8c565b602082019050919050565b600062000972601d8362000b5f565b91506200097f8262000eb5565b602082019050919050565b620009958162000c01565b82525050565b6000604082019050620009b2600083018562000841565b620009c160208301846200098a565b9392505050565b60006020820190508181036000830152620009e38162000852565b9050919050565b6000602082019050818103600083015262000a058162000879565b9050919050565b6000602082019050818103600083015262000a2781620008a0565b9050919050565b6000602082019050818103600083015262000a4981620008c7565b9050919050565b6000602082019050818103600083015262000a6b81620008ee565b9050919050565b6000602082019050818103600083015262000a8d8162000915565b9050919050565b6000602082019050818103600083015262000aaf816200093c565b9050919050565b6000602082019050818103600083015262000ad18162000963565b9050919050565b600062000ae462000af7565b905062000af2828262000c0b565b919050565b6000604051905090565b600067ffffffffffffffff82111562000b1f5762000b1e62000cbe565b5b602082029050602081019050919050565b600067ffffffffffffffff82111562000b4e5762000b4d62000cbe565b5b602082029050602081019050919050565b600082825260208201905092915050565b600062000b7d8262000c01565b915062000b8a8362000c01565b9250827fffffffffffffffffffffffffffffffffffffffffffffffffffffffffffffffff0382111562000bc25762000bc162000c8f565b5b828201905092915050565b600062000bda8262000be1565b9050919050565b600073ffffffffffffffffffffffffffffffffffffffff82169050919050565b6000819050919050565b62000c168262000ced565b810181811067ffffffffffffffff8211171562000c385762000c3762000cbe565b5b80604052505050565b600062000c4e8262000c01565b91507fffffffffffffffffffffffffffffffffffffffffffffffffffffffffffffffff82141562000c845762000c8362000c8f565b5b600182019050919050565b7f4e487b7100000000000000000000000000000000000000000000000000000000600052601160045260246000fd5b7f4e487b7100000000000000000000000000000000000000000000000000000000600052604160045260246000fd5b6000601f19601f8301169050919050565b7f5061796d656e7453706c69747465723a206163636f756e74206973207468652060008201527f7a65726f20616464726573730000000000000000000000000000000000000000602082015250565b7f4d6178696d756d2025206f6620726f79616c7469657320657865656464656400600082015250565b7f5061796d656e7453706c69747465723a2070617965657320616e64207368617260008201527f6573206c656e677468206d69736d617463680000000000000000000000000000602082015250565b7f50617965657320616e6420736861726573206c656e677468206d757374206d6160008201527f7463680000000000000000000000000000000000000000000000000000000000602082015250565b7f4174206c65617374206f6e652070617965652069732072657175697265640000600082015250565b7f5061796d656e7453706c69747465723a206163636f756e7420616c726561647960008201527f2068617320736861726573000000000000000000000000000000000000000000602082015250565b7f5061796d656e7453706c69747465723a206e6f20706179656573000000000000600082015250565b7f5061796d656e7453706c69747465723a20736861726573206172652030000000600082015250565b62000ee98162000bcd565b811462000ef557600080fd5b50565b62000f038162000c01565b811462000f0f57600080fd5b50565b615de98062000f226000396000f3fe6080604052600436106101dc5760003560e01c80638da5cb5b11610102578063c4f85af711610095578063f193a6cf11610064578063f193a6cf1461073c578063f2fde38b14610779578063f4b48357146107a2578063fad03b80146107df57610223565b8063c4f85af71461067b578063ce7c2ac214610697578063d79779b2146106d4578063e33b7de31461071157610223565b8063a82ba76f116100d1578063a82ba76f146105b7578063ad9f20a6146105d3578063c18b8db4146105fe578063c45ac0501461063e57610223565b80638da5cb5b146104e95780639852595c14610514578063a17a709414610551578063a3f8eace1461057a57610223565b80634d2f65031161017a578063715018a611610149578063715018a6146104415780637e5c0924146104585780638456cb59146104955780638b83209b146104ac57610223565b80634d2f65031461035f5780634f99b1041461039c5780635471b47a146103d95780635c975abb1461041657610223565b80633a98ef39116101b65780633a98ef39146102b75780633f4ba83a146102e2578063406072a9146102f957806348b750441461033657610223565b806302998cf31461022857806314cadc7014610251578063191655871461028e57610223565b36610223577f6ef95f06320e7a25a04a175ca677b7052bdd97131872c2192525a629f51be77061020a61081c565b34604051610219929190614c18565b60405180910390a1005b600080fd5b34801561023457600080fd5b5061024f600480360381019061024a91906143f6565b610824565b005b34801561025d57600080fd5b50610278600480360381019061027391906142d8565b610d51565b6040516102859190614c41565b60405180910390f35b34801561029a57600080fd5b506102b560048036038101906102b0919061413f565b61112d565b005b3480156102c357600080fd5b506102cc6112ad565b6040516102d99190615093565b60405180910390f35b3480156102ee57600080fd5b506102f76112b7565b005b34801561030557600080fd5b50610320600480360381019061031b919061429c565b6112c9565b60405161032d9190615093565b60405180910390f35b34801561034257600080fd5b5061035d6004803603810190610358919061429c565b611350565b005b34801561036b57600080fd5b506103866004803603810190610381919061432a565b611564565b6040516103939190615078565b60405180910390f35b3480156103a857600080fd5b506103c360048036038101906103be9190614168565b611707565b6040516103d09190614c41565b60405180910390f35b3480156103e557600080fd5b5061040060048036038101906103fb9190614168565b611ace565b60405161040d9190614c85565b60405180910390f35b34801561042257600080fd5b5061042b611b4d565b6040516104389190614c85565b60405180910390f35b34801561044d57600080fd5b50610456611b64565b005b34801561046457600080fd5b5061047f600480360381019061047a9190614445565b611b78565b60405161048c9190614c63565b60405180910390f35b3480156104a157600080fd5b506104aa611f86565b005b3480156104b857600080fd5b506104d360048036038101906104ce91906142d8565b611f98565b6040516104e09190614b9d565b60405180910390f35b3480156104f557600080fd5b506104fe612006565b60405161050b9190614b9d565b60405180910390f35b34801561052057600080fd5b5061053b600480360381019061053691906140ed565b61202f565b6040516105489190615093565b60405180910390f35b34801561055d57600080fd5b5061057860048036038101906105739190614168565b612078565b005b34801561058657600080fd5b506105a1600480360381019061059c91906140ed565b6123e9565b6040516105ae9190615093565b60405180910390f35b6105d160048036038101906105cc9190614168565b61241c565b005b3480156105df57600080fd5b506105e8612afc565b6040516105f59190615093565b60405180910390f35b34801561060a57600080fd5b506106256004803603810190610620919061424a565b612b07565b604051610635949392919061514c565b60405180910390f35b34801561064a57600080fd5b506106656004803603810190610660919061429c565b612b77565b6040516106729190615093565b60405180910390f35b610695600480360381019061069091906143a2565b612c35565b005b3480156106a357600080fd5b506106be60048036038101906106b991906140ed565b612eb5565b6040516106cb9190615093565b60405180910390f35b3480156106e057600080fd5b506106fb60048036038101906106f69190614273565b612efe565b6040516107089190615093565b60405180910390f35b34801561071d57600080fd5b50610726612f47565b6040516107339190615093565b60405180910390f35b34801561074857600080fd5b50610763600480360381019061075e91906142d8565b612f51565b6040516107709190614ca0565b60405180910390f35b34801561078557600080fd5b506107a0600480360381019061079b91906140ed565b612f75565b005b3480156107ae57600080fd5b506107c960048036038101906107c49190614168565b612ff9565b6040516107d69190614ca0565b60405180910390f35b3480156107eb57600080fd5b5061080660048036038101906108019190614168565b61302c565b6040516108139190614c41565b60405180910390f35b600033905090565b61082c613449565b610834613499565b6000819050610842826134e3565b61084c8285611ace565b1561088c576040517f08c379a000000000000000000000000000000000000000000000000000000000815260040161088390614ff8565b60405180910390fd5b66038d7ea4c680008310156108d6576040517f08c379a00000000000000000000000000000000000000000000000000000000081526004016108cd90614f18565b60405180910390fd5b3373ffffffffffffffffffffffffffffffffffffffff168173ffffffffffffffffffffffffffffffffffffffff16636352211e866040518263ffffffff1660e01b81526004016109269190615093565b60206040518083038186803b15801561093e57600080fd5b505afa158015610952573d6000803e3d6000fd5b505050506040513d601f19601f820116820180604052508101906109769190614116565b73ffffffffffffffffffffffffffffffffffffffff161480610a3e5750600b60009054906101000a900473ffffffffffffffffffffffffffffffffffffffff1673ffffffffffffffffffffffffffffffffffffffff163373ffffffffffffffffffffffffffffffffffffffff16148015610a3d5750600b60009054906101000a900473ffffffffffffffffffffffffffffffffffffffff1673ffffffffffffffffffffffffffffffffffffffff168273ffffffffffffffffffffffffffffffffffffffff16145b5b610a7d576040517f08c379a0000000000000000000000000000000000000000000000000000000008152600401610a7490614eb8565b60405180910390fd5b6000610a898386612ff9565b905060405180608001604052808681526020018581526020018373ffffffffffffffffffffffffffffffffffffffff16636352211e886040518263ffffffff1660e01b8152600401610adb9190615093565b60206040518083038186803b158015610af357600080fd5b505afa158015610b07573d6000803e3d6000fd5b505050506040513d601f19601f82011682018060405250810190610b2b9190614116565b73ffffffffffffffffffffffffffffffffffffffff1681526020018473ffffffffffffffffffffffffffffffffffffffff16815250600e6000838152602001908152602001600020600082015181600001556020820151816001015560408201518160020160006101000a81548173ffffffffffffffffffffffffffffffffffffffff021916908373ffffffffffffffffffffffffffffffffffffffff16021790555060608201518160030160006101000a81548173ffffffffffffffffffffffffffffffffffffffff021916908373ffffffffffffffffffffffffffffffffffffffff1602179055509050508173ffffffffffffffffffffffffffffffffffffffff166323b872dd8373ffffffffffffffffffffffffffffffffffffffff16636352211e886040518263ffffffff1660e01b8152600401610c6d9190615093565b60206040518083038186803b158015610c8557600080fd5b505afa158015610c99573d6000803e3d6000fd5b505050506040513d601f19601f82011682018060405250810190610cbd9190614116565b30886040518463ffffffff1660e01b8152600401610cdd93929190614be1565b600060405180830381600087803b158015610cf757600080fd5b505af1158015610d0b573d6000803e3d6000fd5b50505050610d19600d6136bc565b600f8190806001815401808255809150506001900390600052602060002001600090919091909150555050610d4c6136d2565b505050565b6060600080610d69610d63600d6136db565b856136e9565b9150915060008282610d7b91906153cf565b67ffffffffffffffff811115610dba577f4e487b7100000000000000000000000000000000000000000000000000000000600052604160045260246000fd5b604051908082528060200260200182016040528015610df357816020015b610de0613ef3565b815260200190600190039081610dd85790505b5090506000808490505b83811015610ffd576000600f8281548110610e41577f4e487b7100000000000000000000000000000000000000000000000000000000600052603260045260246000fd5b90600052602060002001549050600073ffffffffffffffffffffffffffffffffffffffff16600e600083815260200190815260200160002060020160009054906101000a900473ffffffffffffffffffffffffffffffffffffffff1673ffffffffffffffffffffffffffffffffffffffff1614610fe957600e600082815260200190815260200160002060405180608001604052908160008201548152602001600182015481526020016002820160009054906101000a900473ffffffffffffffffffffffffffffffffffffffff1673ffffffffffffffffffffffffffffffffffffffff1673ffffffffffffffffffffffffffffffffffffffff1681526020016003820160009054906101000a900473ffffffffffffffffffffffffffffffffffffffff1673ffffffffffffffffffffffffffffffffffffffff1673ffffffffffffffffffffffffffffffffffffffff1681525050848481518110610fcf577f4e487b7100000000000000000000000000000000000000000000000000000000600052603260045260246000fd5b60200260200101819052508280610fe59061554e565b9350505b508080610ff59061554e565b915050610dfd565b5060008167ffffffffffffffff811115611040577f4e487b7100000000000000000000000000000000000000000000000000000000600052604160045260246000fd5b60405190808252806020026020018201604052801561107957816020015b611066613ef3565b81526020019060019003908161105e5790505b50905060005b8281101561111f578381815181106110c0577f4e487b7100000000000000000000000000000000000000000000000000000000600052603260045260246000fd5b6020026020010151828281518110611101577f4e487b7100000000000000000000000000000000000000000000000000000000600052603260045260246000fd5b602002602001018190525080806111179061554e565b91505061107f565b508095505050505050919050565b6000600460008373ffffffffffffffffffffffffffffffffffffffff1673ffffffffffffffffffffffffffffffffffffffff16815260200190815260200160002054116111af576040517f08c379a00000000000000000000000000000000000000000000000000000000081526004016111a690614df8565b60405180910390fd5b60006111ba826123e9565b90506000811415611200576040517f08c379a00000000000000000000000000000000000000000000000000000000081526004016111f790614e78565b60405180910390fd5b806003600082825461121291906152ee565b9250508190555080600560008473ffffffffffffffffffffffffffffffffffffffff1673ffffffffffffffffffffffffffffffffffffffff1681526020019081526020016000206000828254019250508190555061127082826137c8565b7fdf20fd1e76bc69d672e4814fafb2c449bba3a5369d8359adf9e05e6fde87b05682826040516112a1929190614bb8565b60405180910390a15050565b6000600254905090565b6112bf6138bc565b6112c761393a565b565b6000600860008473ffffffffffffffffffffffffffffffffffffffff1673ffffffffffffffffffffffffffffffffffffffff16815260200190815260200160002060008373ffffffffffffffffffffffffffffffffffffffff1673ffffffffffffffffffffffffffffffffffffffff16815260200190815260200160002054905092915050565b6000600460008373ffffffffffffffffffffffffffffffffffffffff1673ffffffffffffffffffffffffffffffffffffffff16815260200190815260200160002054116113d2576040517f08c379a00000000000000000000000000000000000000000000000000000000081526004016113c990614df8565b60405180910390fd5b60006113de8383612b77565b90506000811415611424576040517f08c379a000000000000000000000000000000000000000000000000000000000815260040161141b90614e78565b60405180910390fd5b80600760008573ffffffffffffffffffffffffffffffffffffffff1673ffffffffffffffffffffffffffffffffffffffff168152602001908152602001600020600082825461147391906152ee565b9250508190555080600860008573ffffffffffffffffffffffffffffffffffffffff1673ffffffffffffffffffffffffffffffffffffffff16815260200190815260200160002060008473ffffffffffffffffffffffffffffffffffffffff1673ffffffffffffffffffffffffffffffffffffffff1681526020019081526020016000206000828254019250508190555061150f83838361399d565b8273ffffffffffffffffffffffffffffffffffffffff167f3be5b7a71e84ed12875d241991c70855ac5817d847039e17a9d895c1ceb0f18a8383604051611557929190614c18565b60405180910390a2505050565b61156c613ef3565b60006115788385612ff9565b9050600073ffffffffffffffffffffffffffffffffffffffff16600e600083815260200190815260200160002060020160009054906101000a900473ffffffffffffffffffffffffffffffffffffffff1673ffffffffffffffffffffffffffffffffffffffff161415611620576040517f08c379a000000000000000000000000000000000000000000000000000000000815260040161161790614db8565b60405180910390fd5b600e600082815260200190815260200160002060405180608001604052908160008201548152602001600182015481526020016002820160009054906101000a900473ffffffffffffffffffffffffffffffffffffffff1673ffffffffffffffffffffffffffffffffffffffff1673ffffffffffffffffffffffffffffffffffffffff1681526020016003820160009054906101000a900473ffffffffffffffffffffffffffffffffffffffff1673ffffffffffffffffffffffffffffffffffffffff1673ffffffffffffffffffffffffffffffffffffffff168152505091505092915050565b606060008061171b600f80549050856136e9565b915091506000828261172d91906153cf565b67ffffffffffffffff81111561176c577f4e487b7100000000000000000000000000000000000000000000000000000000600052604160045260246000fd5b6040519080825280602002602001820160405280156117a557816020015b611792613ef3565b81526020019060019003908161178a5790505b5090506000808490505b8381101561199d576000600e6000600f84815481106117f7577f4e487b7100000000000000000000000000000000000000000000000000000000600052603260045260246000fd5b9060005260206000200154815260200190815260200160002090508873ffffffffffffffffffffffffffffffffffffffff168160020160009054906101000a900473ffffffffffffffffffffffffffffffffffffffff1673ffffffffffffffffffffffffffffffffffffffff161415611989578060405180608001604052908160008201548152602001600182015481526020016002820160009054906101000a900473ffffffffffffffffffffffffffffffffffffffff1673ffffffffffffffffffffffffffffffffffffffff1673ffffffffffffffffffffffffffffffffffffffff1681526020016003820160009054906101000a900473ffffffffffffffffffffffffffffffffffffffff1673ffffffffffffffffffffffffffffffffffffffff1673ffffffffffffffffffffffffffffffffffffffff168152505084848151811061196f577f4e487b7100000000000000000000000000000000000000000000000000000000600052603260045260246000fd5b602002602001018190525082806119859061554e565b9350505b5080806119959061554e565b9150506117af565b5060008167ffffffffffffffff8111156119e0577f4e487b7100000000000000000000000000000000000000000000000000000000600052604160045260246000fd5b604051908082528060200260200182016040528015611a1957816020015b611a06613ef3565b8152602001906001900390816119fe5790505b50905060005b82811015611abf57838181518110611a60577f4e487b7100000000000000000000000000000000000000000000000000000000600052603260045260246000fd5b6020026020010151828281518110611aa1577f4e487b7100000000000000000000000000000000000000000000000000000000600052603260045260246000fd5b60200260200101819052508080611ab79061554e565b915050611a1f565b50809550505050505092915050565b600080611adb8484612ff9565b9050600073ffffffffffffffffffffffffffffffffffffffff16600e600083815260200190815260200160002060020160009054906101000a900473ffffffffffffffffffffffffffffffffffffffff1673ffffffffffffffffffffffffffffffffffffffff16141591505092915050565b6000600960009054906101000a900460ff16905090565b611b6c6138bc565b611b766000613a23565b565b606060008367ffffffffffffffff811115611bbc577f4e487b7100000000000000000000000000000000000000000000000000000000600052604160045260246000fd5b604051908082528060200260200182016040528015611bea5781602001602082028036833780820191505090505b509050600080600c60009054906101000a900473ffffffffffffffffffffffffffffffffffffffff1673ffffffffffffffffffffffffffffffffffffffff1663d08b28ea8989896040518463ffffffff1660e01b8152600401611c4f93929190615191565b60006040518083038186803b158015611c6757600080fd5b505afa158015611c7b573d6000803e3d6000fd5b505050506040513d6000823e3d601f19601f82011682018060405250810190611ca491906141e0565b9050600081511415611d2a57600067ffffffffffffffff811115611cf1577f4e487b7100000000000000000000000000000000000000000000000000000000600052604160045260246000fd5b604051908082528060200260200182016040528015611d1f5781602001602082028036833780820191505090505b509350505050611f7e565b60005b8151811015611e5d576000828281518110611d71577f4e487b7100000000000000000000000000000000000000000000000000000000600052603260045260246000fd5b602002602001015190506000611d878883612ff9565b9050600073ffffffffffffffffffffffffffffffffffffffff16600e600083815260200190815260200160002060020160009054906101000a900473ffffffffffffffffffffffffffffffffffffffff1673ffffffffffffffffffffffffffffffffffffffff1614611e485781868681518110611e2d577f4e487b7100000000000000000000000000000000000000000000000000000000600052603260045260246000fd5b6020026020010181815250508480611e449061554e565b9550505b50508080611e559061554e565b915050611d2d565b5060008267ffffffffffffffff811115611ea0577f4e487b7100000000000000000000000000000000000000000000000000000000600052604160045260246000fd5b604051908082528060200260200182016040528015611ece5781602001602082028036833780820191505090505b50905060005b83811015611f7557848181518110611f15577f4e487b7100000000000000000000000000000000000000000000000000000000600052603260045260246000fd5b6020026020010151828281518110611f56577f4e487b7100000000000000000000000000000000000000000000000000000000600052603260045260246000fd5b6020026020010181815250508080611f6d9061554e565b915050611ed4565b50809450505050505b949350505050565b611f8e6138bc565b611f96613ae7565b565b600060068281548110611fd4577f4e487b7100000000000000000000000000000000000000000000000000000000600052603260045260246000fd5b9060005260206000200160009054906101000a900473ffffffffffffffffffffffffffffffffffffffff169050919050565b60008060009054906101000a900473ffffffffffffffffffffffffffffffffffffffff16905090565b6000600560008373ffffffffffffffffffffffffffffffffffffffff1673ffffffffffffffffffffffffffffffffffffffff168152602001908152602001600020549050919050565b612080613449565b612088613499565b60006120948383612ff9565b90506000600e600083815260200190815260200160002090503373ffffffffffffffffffffffffffffffffffffffff168160020160009054906101000a900473ffffffffffffffffffffffffffffffffffffffff1673ffffffffffffffffffffffffffffffffffffffff161461213f576040517f08c379a000000000000000000000000000000000000000000000000000000000815260040161213690614eb8565b60405180910390fd5b60008160030160009054906101000a900473ffffffffffffffffffffffffffffffffffffffff1690508073ffffffffffffffffffffffffffffffffffffffff166323b872dd308460020160009054906101000a900473ffffffffffffffffffffffffffffffffffffffff16876040518463ffffffff1660e01b81526004016121c993929190614be1565b600060405180830381600087803b1580156121e357600080fd5b505af11580156121f7573d6000803e3d6000fd5b50505050600e600084815260200190815260200160002060008082016000905560018201600090556002820160006101000a81549073ffffffffffffffffffffffffffffffffffffffff02191690556003820160006101000a81549073ffffffffffffffffffffffffffffffffffffffff02191690555050612279600d613b4a565b60005b600f805490508110156123d95783600f82815481106122c4577f4e487b7100000000000000000000000000000000000000000000000000000000600052603260045260246000fd5b906000526020600020015414156123c657600f6001600f805490506122e991906153cf565b81548110612320577f4e487b7100000000000000000000000000000000000000000000000000000000600052603260045260246000fd5b9060005260206000200154600f8281548110612365577f4e487b7100000000000000000000000000000000000000000000000000000000600052603260045260246000fd5b9060005260206000200181905550600f8054806123ab577f4e487b7100000000000000000000000000000000000000000000000000000000600052603160045260246000fd5b600190038181906000526020600020016000905590556123d9565b80806123d19061554e565b91505061227c565b505050506123e56136d2565b5050565b6000806123f4612f47565b476123ff91906152ee565b9050612414838261240f8661202f565b613ba6565b915050919050565b612424613449565b61242c613499565b60006124388383612ff9565b90506000600e6000838152602001908152602001600020905080600101543414612497576040517f08c379a000000000000000000000000000000000000000000000000000000000815260040161248e90614f98565b60405180910390fd5b3373ffffffffffffffffffffffffffffffffffffffff168160020160009054906101000a900473ffffffffffffffffffffffffffffffffffffffff1673ffffffffffffffffffffffffffffffffffffffff16141561252a576040517f08c379a000000000000000000000000000000000000000000000000000000000815260040161252190614f58565b60405180910390fd5b612533846134e3565b600084905060008590506000808373ffffffffffffffffffffffffffffffffffffffff16632a55205a866000015487600101546040518363ffffffff1660e01b8152600401612583929190615123565b604080518083038186803b15801561259a57600080fd5b505afa1580156125ae573d6000803e3d6000fd5b505050506040513d601f19601f820116820180604052508101906125d291906141a4565b9150915060006064600a5487600101546125ec9190615375565b6125f69190615344565b90506000828261260691906152ee565b9050808760010154101561264f576040517f08c379a000000000000000000000000000000000000000000000000000000000815260040161264690614cf8565b60405180910390fd5b600081886001015461266191906153cf565b905060008860020160009054906101000a900473ffffffffffffffffffffffffffffffffffffffff1673ffffffffffffffffffffffffffffffffffffffff16826040516126ad90614b88565b60006040518083038185875af1925050503d80600081146126ea576040519150601f19603f3d011682016040523d82523d6000602084013e6126ef565b606091505b5050905080612733576040517f08c379a000000000000000000000000000000000000000000000000000000000815260040161272a90614dd8565b60405180910390fd5b60008673ffffffffffffffffffffffffffffffffffffffff168660405161275990614b88565b60006040518083038185875af1925050503d8060008114612796576040519150601f19603f3d011682016040523d82523d6000602084013e61279b565b606091505b50509050806127df576040517f08c379a00000000000000000000000000000000000000000000000000000000081526004016127d690614d58565b60405180910390fd5b8773ffffffffffffffffffffffffffffffffffffffff166323b872dd30338d600001546040518463ffffffff1660e01b815260040161282093929190614be1565b600060405180830381600087803b15801561283a57600080fd5b505af115801561284e573d6000803e3d6000fd5b50505050600e60008c815260200190815260200160002060008082016000905560018201600090556002820160006101000a81549073ffffffffffffffffffffffffffffffffffffffff02191690556003820160006101000a81549073ffffffffffffffffffffffffffffffffffffffff021916905550506128d0600d613b4a565b60005b600f80549050811015612a30578b600f828154811061291b577f4e487b7100000000000000000000000000000000000000000000000000000000600052603260045260246000fd5b90600052602060002001541415612a1d57600f6001600f8054905061294091906153cf565b81548110612977577f4e487b7100000000000000000000000000000000000000000000000000000000600052603260045260246000fd5b9060005260206000200154600f82815481106129bc577f4e487b7100000000000000000000000000000000000000000000000000000000600052603260045260246000fd5b9060005260206000200181905550600f805480612a02577f4e487b7100000000000000000000000000000000000000000000000000000000600052603160045260246000fd5b60019003818190600052602060002001600090559055612a30565b8080612a289061554e565b9150506128d3565b503373ffffffffffffffffffffffffffffffffffffffff168a60020160009054906101000a900473ffffffffffffffffffffffffffffffffffffffff1673ffffffffffffffffffffffffffffffffffffffff168d7f4d26e6707cfb0dd9d0e2aaaf04de4b0b4a388a1c760ed3b2976827015153a39e8d600101548e60030160009054906101000a900473ffffffffffffffffffffffffffffffffffffffff16604051612add9291906150ae565b60405180910390a45050505050505050505050612af86136d2565b5050565b66038d7ea4c6800081565b600e6020528060005260406000206000915090508060000154908060010154908060020160009054906101000a900473ffffffffffffffffffffffffffffffffffffffff16908060030160009054906101000a900473ffffffffffffffffffffffffffffffffffffffff16905084565b600080612b8384612efe565b8473ffffffffffffffffffffffffffffffffffffffff166370a08231306040518263ffffffff1660e01b8152600401612bbc9190614b9d565b60206040518083038186803b158015612bd457600080fd5b505afa158015612be8573d6000803e3d6000fd5b505050506040513d601f19601f82011682018060405250810190612c0c9190614301565b612c1691906152ee565b9050612c2c8382612c2787876112c9565b613ba6565b91505092915050565b612c3d613449565b612c45613499565b60006064600a5434612c579190615375565b612c619190615344565b9050803411612ca5576040517f08c379a0000000000000000000000000000000000000000000000000000000008152600401612c9c90614f78565b60405180910390fd5b600080600c60009054906101000a900473ffffffffffffffffffffffffffffffffffffffff1673ffffffffffffffffffffffffffffffffffffffff16636313a3e8863387346040518563ffffffff1660e01b8152600401612d0994939291906150d7565b6040805180830381600087803b158015612d2257600080fd5b505af1158015612d36573d6000803e3d6000fd5b505050506040513d601f19601f82011682018060405250810190612d5a9190614366565b9150915060008334612d6c91906153cf565b905060008273ffffffffffffffffffffffffffffffffffffffff1682604051612d9490614b88565b60006040518083038185875af1925050503d8060008114612dd1576040519150601f19603f3d011682016040523d82523d6000602084013e612dd6565b606091505b5050905080612e1a576040517f08c379a0000000000000000000000000000000000000000000000000000000008152600401612e1190614fd8565b60405180910390fd5b3373ffffffffffffffffffffffffffffffffffffffff168373ffffffffffffffffffffffffffffffffffffffff16857f4d26e6707cfb0dd9d0e2aaaf04de4b0b4a388a1c760ed3b2976827015153a39e34600b60009054906101000a900473ffffffffffffffffffffffffffffffffffffffff16604051612e9c9291906150ae565b60405180910390a45050505050612eb16136d2565b5050565b6000600460008373ffffffffffffffffffffffffffffffffffffffff1673ffffffffffffffffffffffffffffffffffffffff168152602001908152602001600020549050919050565b6000600760008373ffffffffffffffffffffffffffffffffffffffff1673ffffffffffffffffffffffffffffffffffffffff168152602001908152602001600020549050919050565b6000600354905090565b600f8181548110612f6157600080fd5b906000526020600020016000915090505481565b612f7d6138bc565b600073ffffffffffffffffffffffffffffffffffffffff168173ffffffffffffffffffffffffffffffffffffffff161415612fed576040517f08c379a0000000000000000000000000000000000000000000000000000000008152600401612fe490614d98565b60405180910390fd5b612ff681613a23565b50565b6000828260405160200161300e929190614b45565b60405160208183030381529060405280519060200120905092915050565b6060600080613040600f80549050856136e9565b915091506000828261305291906153cf565b67ffffffffffffffff811115613091577f4e487b7100000000000000000000000000000000000000000000000000000000600052604160045260246000fd5b6040519080825280602002602001820160405280156130ca57816020015b6130b7613ef3565b8152602001906001900390816130af5790505b5090506000808490505b83811015613318576000600e6000600f848154811061311c577f4e487b7100000000000000000000000000000000000000000000000000000000600052603260045260246000fd5b9060005260206000200154815260200190815260200160002090508873ffffffffffffffffffffffffffffffffffffffff168160030160009054906101000a900473ffffffffffffffffffffffffffffffffffffffff1673ffffffffffffffffffffffffffffffffffffffff16141561330457600e6000600f84815481106131cd577f4e487b7100000000000000000000000000000000000000000000000000000000600052603260045260246000fd5b9060005260206000200154815260200190815260200160002060405180608001604052908160008201548152602001600182015481526020016002820160009054906101000a900473ffffffffffffffffffffffffffffffffffffffff1673ffffffffffffffffffffffffffffffffffffffff1673ffffffffffffffffffffffffffffffffffffffff1681526020016003820160009054906101000a900473ffffffffffffffffffffffffffffffffffffffff1673ffffffffffffffffffffffffffffffffffffffff1673ffffffffffffffffffffffffffffffffffffffff16815250508484815181106132ea577f4e487b7100000000000000000000000000000000000000000000000000000000600052603260045260246000fd5b602002602001018190525082806133009061554e565b9350505b5080806133109061554e565b9150506130d4565b5060008167ffffffffffffffff81111561335b577f4e487b7100000000000000000000000000000000000000000000000000000000600052604160045260246000fd5b60405190808252806020026020018201604052801561339457816020015b613381613ef3565b8152602001906001900390816133795790505b50905060005b8281101561343a578381815181106133db577f4e487b7100000000000000000000000000000000000000000000000000000000600052603260045260246000fd5b602002602001015182828151811061341c577f4e487b7100000000000000000000000000000000000000000000000000000000600052603260045260246000fd5b602002602001018190525080806134329061554e565b91505061339a565b50809550505050505092915050565b6002600154141561348f576040517f08c379a000000000000000000000000000000000000000000000000000000000815260040161348690615058565b60405180910390fd5b6002600181905550565b6134a1611b4d565b156134e1576040517f08c379a00000000000000000000000000000000000000000000000000000000081526004016134d890614ed8565b60405180910390fd5b565b60008190508073ffffffffffffffffffffffffffffffffffffffff166301ffc9a77f80ac58cd000000000000000000000000000000000000000000000000000000006040518263ffffffff1660e01b81526004016135419190614cbb565b60206040518083038186803b15801561355957600080fd5b505afa15801561356d573d6000803e3d6000fd5b505050506040513d601f19601f820116820180604052508101906135919190614221565b6135d0576040517f08c379a00000000000000000000000000000000000000000000000000000000081526004016135c790614d38565b60405180910390fd5b8073ffffffffffffffffffffffffffffffffffffffff166301ffc9a77f2a55205a000000000000000000000000000000000000000000000000000000006040518263ffffffff1660e01b81526004016136299190614cbb565b60206040518083038186803b15801561364157600080fd5b505afa158015613655573d6000803e3d6000fd5b505050506040513d601f19601f820116820180604052508101906136799190614221565b6136b8576040517f08c379a00000000000000000000000000000000000000000000000000000000081526004016136af90614e98565b60405180910390fd5b5050565b6001816000016000828254019250508190555050565b60018081905550565b600081600001549050919050565b6000806000831161372f576040517f08c379a000000000000000000000000000000000000000000000000000000000815260040161372690614ef8565b60405180910390fd5b6000606460018561374091906153cf565b61374a9190615375565b905060008560648361375c91906152ee565b116137735760648261376e91906152ee565b613775565b855b90508181116137b9576040517f08c379a00000000000000000000000000000000000000000000000000000000081526004016137b090614f38565b60405180910390fd5b81819350935050509250929050565b8047101561380b576040517f08c379a000000000000000000000000000000000000000000000000000000000815260040161380290614e38565b60405180910390fd5b60008273ffffffffffffffffffffffffffffffffffffffff168260405161383190614b88565b60006040518083038185875af1925050503d806000811461386e576040519150601f19603f3d011682016040523d82523d6000602084013e613873565b606091505b50509050806138b7576040517f08c379a00000000000000000000000000000000000000000000000000000000081526004016138ae90614e18565b60405180910390fd5b505050565b6138c461081c565b73ffffffffffffffffffffffffffffffffffffffff166138e2612006565b73ffffffffffffffffffffffffffffffffffffffff1614613938576040517f08c379a000000000000000000000000000000000000000000000000000000000815260040161392f90614fb8565b60405180910390fd5b565b613942613c14565b6000600960006101000a81548160ff0219169083151502179055507f5db9ee0a495bf2e6ff9c91a7834c1ba4fdd244a5e8aa4e537bd38aeae4b073aa61398661081c565b6040516139939190614b9d565b60405180910390a1565b613a1e8363a9059cbb60e01b84846040516024016139bc929190614c18565b604051602081830303815290604052907bffffffffffffffffffffffffffffffffffffffffffffffffffffffff19166020820180517bffffffffffffffffffffffffffffffffffffffffffffffffffffffff8381831617835250505050613c5d565b505050565b60008060009054906101000a900473ffffffffffffffffffffffffffffffffffffffff169050816000806101000a81548173ffffffffffffffffffffffffffffffffffffffff021916908373ffffffffffffffffffffffffffffffffffffffff1602179055508173ffffffffffffffffffffffffffffffffffffffff168173ffffffffffffffffffffffffffffffffffffffff167f8be0079c531659141344cd1fd0a4f28419497f9722a3daafe3b4186f6b6457e060405160405180910390a35050565b613aef613499565b6001600960006101000a81548160ff0219169083151502179055507f62e78cea01bee320cd4e420270b5ea74000d11b0c9f74754ebdbfc544b05a258613b3361081c565b604051613b409190614b9d565b60405180910390a1565b60008160000154905060008111613b96576040517f08c379a0000000000000000000000000000000000000000000000000000000008152600401613b8d90614d78565b60405180910390fd5b6001810382600001819055505050565b600081600254600460008773ffffffffffffffffffffffffffffffffffffffff1673ffffffffffffffffffffffffffffffffffffffff1681526020019081526020016000205485613bf79190615375565b613c019190615344565b613c0b91906153cf565b90509392505050565b613c1c611b4d565b613c5b576040517f08c379a0000000000000000000000000000000000000000000000000000000008152600401613c5290614d18565b60405180910390fd5b565b6000613cbf826040518060400160405280602081526020017f5361666545524332303a206c6f772d6c6576656c2063616c6c206661696c65648152508573ffffffffffffffffffffffffffffffffffffffff16613d259092919063ffffffff16565b9050600081511480613ce1575080806020019051810190613ce09190614221565b5b613d20576040517f08c379a0000000000000000000000000000000000000000000000000000000008152600401613d1790615038565b60405180910390fd5b505050565b6060613d348484600085613d3d565b90509392505050565b606082471015613d82576040517f08c379a0000000000000000000000000000000000000000000000000000000008152600401613d7990614e58565b60405180910390fd5b6000808673ffffffffffffffffffffffffffffffffffffffff168587604051613dab9190614b71565b60006040518083038185875af1925050503d8060008114613de8576040519150601f19603f3d011682016040523d82523d6000602084013e613ded565b606091505b5091509150613dfe87838387613e0a565b92505050949350505050565b60608315613e6d57600083511415613e6557613e2585613e80565b613e64576040517f08c379a0000000000000000000000000000000000000000000000000000000008152600401613e5b90615018565b60405180910390fd5b5b829050613e78565b613e778383613ea3565b5b949350505050565b6000808273ffffffffffffffffffffffffffffffffffffffff163b119050919050565b600082511115613eb65781518083602001fd5b806040517f08c379a0000000000000000000000000000000000000000000000000000000008152600401613eea9190614cd6565b60405180910390fd5b60405180608001604052806000815260200160008152602001600073ffffffffffffffffffffffffffffffffffffffff168152602001600073ffffffffffffffffffffffffffffffffffffffff1681525090565b6000613f5a613f55846151ed565b6151c8565b90508083825260208201905082856020860282011115613f7957600080fd5b60005b85811015613fa95781613f8f88826140d8565b845260208401935060208301925050600181019050613f7c565b5050509392505050565b6000613fc6613fc184615219565b6151c8565b905082815260208101848484011115613fde57600080fd5b613fe98482856154db565b509392505050565b60008135905061400081615d29565b92915050565b60008151905061401581615d29565b92915050565b60008135905061402a81615d40565b92915050565b600082601f83011261404157600080fd5b8151614051848260208601613f47565b91505092915050565b60008151905061406981615d57565b92915050565b60008135905061407e81615d6e565b92915050565b60008135905061409381615d85565b92915050565b600082601f8301126140aa57600080fd5b81356140ba848260208601613fb3565b91505092915050565b6000813590506140d281615d9c565b92915050565b6000815190506140e781615d9c565b92915050565b6000602082840312156140ff57600080fd5b600061410d84828501613ff1565b91505092915050565b60006020828403121561412857600080fd5b600061413684828501614006565b91505092915050565b60006020828403121561415157600080fd5b600061415f8482850161401b565b91505092915050565b6000806040838503121561417b57600080fd5b600061418985828601613ff1565b925050602061419a858286016140c3565b9150509250929050565b600080604083850312156141b757600080fd5b60006141c585828601614006565b92505060206141d6858286016140d8565b9150509250929050565b6000602082840312156141f257600080fd5b600082015167ffffffffffffffff81111561420c57600080fd5b61421884828501614030565b91505092915050565b60006020828403121561423357600080fd5b60006142418482850161405a565b91505092915050565b60006020828403121561425c57600080fd5b600061426a8482850161406f565b91505092915050565b60006020828403121561428557600080fd5b600061429384828501614084565b91505092915050565b600080604083850312156142af57600080fd5b60006142bd85828601614084565b92505060206142ce85828601613ff1565b9150509250929050565b6000602082840312156142ea57600080fd5b60006142f8848285016140c3565b91505092915050565b60006020828403121561431357600080fd5b6000614321848285016140d8565b91505092915050565b6000806040838503121561433d57600080fd5b600061434b858286016140c3565b925050602061435c85828601613ff1565b9150509250929050565b6000806040838503121561437957600080fd5b6000614387858286016140d8565b925050602061439885828601614006565b9150509250929050565b600080604083850312156143b557600080fd5b60006143c3858286016140c3565b925050602083013567ffffffffffffffff8111156143e057600080fd5b6143ec85828601614099565b9150509250929050565b60008060006060848603121561440b57600080fd5b6000614419868287016140c3565b935050602061442a868287016140c3565b925050604061443b86828701613ff1565b9150509250925092565b6000806000806080858703121561445b57600080fd5b6000614469878288016140c3565b945050602061447a878288016140c3565b935050604061448b878288016140c3565b925050606061449c87828801613ff1565b91505092959194509250565b60006144b48383614a66565b60808301905092915050565b60006144cc8383614b10565b60208301905092915050565b6144e1816154a5565b82525050565b6144f081615403565b82525050565b6144ff81615403565b82525050565b61451661451182615403565b615597565b82525050565b60006145278261526a565b61453181856152b0565b935061453c8361524a565b8060005b8381101561456d57815161455488826144a8565b975061455f83615296565b925050600181019050614540565b5085935050505092915050565b600061458582615275565b61458f81856152c1565b935061459a8361525a565b8060005b838110156145cb5781516145b288826144c0565b97506145bd836152a3565b92505060018101905061459e565b5085935050505092915050565b6145e181615427565b82525050565b6145f081615433565b82525050565b6145ff8161543d565b82525050565b600061461082615280565b61461a81856152d2565b935061462a8185602086016154ea565b80840191505092915050565b60006146418261528b565b61464b81856152dd565b935061465b8185602086016154ea565b61466481615652565b840191505092915050565b600061467c6022836152dd565b915061468782615670565b604082019050919050565b600061469f6014836152dd565b91506146aa826156bf565b602082019050919050565b60006146c26036836152dd565b91506146cd826156e8565b604082019050919050565b60006146e5602b836152dd565b91506146f082615737565b604082019050919050565b6000614708601b836152dd565b915061471382615786565b602082019050919050565b600061472b6026836152dd565b9150614736826157af565b604082019050919050565b600061474e6030836152dd565b9150614759826157fe565b604082019050919050565b6000614771601e836152dd565b915061477c8261584d565b602082019050919050565b60006147946026836152dd565b915061479f82615876565b604082019050919050565b60006147b7603a836152dd565b91506147c2826158c5565b604082019050919050565b60006147da601d836152dd565b91506147e582615914565b602082019050919050565b60006147fd6026836152dd565b91506148088261593d565b604082019050919050565b6000614820602b836152dd565b915061482b8261598c565b604082019050919050565b60006148436037836152dd565b915061484e826159db565b604082019050919050565b60006148666016836152dd565b915061487182615a2a565b602082019050919050565b60006148896010836152dd565b915061489482615a53565b602082019050919050565b60006148ac6024836152dd565b91506148b782615a7c565b604082019050919050565b60006148cf6024836152dd565b91506148da82615acb565b604082019050919050565b60006148f26018836152dd565b91506148fd82615b1a565b602082019050919050565b6000614915601e836152dd565b915061492082615b43565b602082019050919050565b6000614938602b836152dd565b915061494382615b6c565b604082019050919050565b600061495b6027836152dd565b915061496682615bbb565b604082019050919050565b600061497e6020836152dd565b915061498982615c0a565b602082019050919050565b60006149a1601d836152dd565b91506149ac82615c33565b602082019050919050565b60006149c46017836152dd565b91506149cf82615c5c565b602082019050919050565b60006149e76000836152d2565b91506149f282615c85565b600082019050919050565b6000614a0a601d836152dd565b9150614a1582615c88565b602082019050919050565b6000614a2d602a836152dd565b9150614a3882615cb1565b604082019050919050565b6000614a50601f836152dd565b9150614a5b82615d00565b602082019050919050565b608082016000820151614a7c6000850182614b10565b506020820151614a8f6020850182614b10565b506040820151614aa260408501826144e7565b506060820151614ab560608501826144e7565b50505050565b608082016000820151614ad16000850182614b10565b506020820151614ae46020850182614b10565b506040820151614af760408501826144e7565b506060820151614b0a60608501826144e7565b50505050565b614b198161549b565b82525050565b614b288161549b565b82525050565b614b3f614b3a8261549b565b6155bb565b82525050565b6000614b518285614505565b601482019150614b618284614b2e565b6020820191508190509392505050565b6000614b7d8284614605565b915081905092915050565b6000614b93826149da565b9150819050919050565b6000602082019050614bb260008301846144f6565b92915050565b6000604082019050614bcd60008301856144d8565b614bda6020830184614b1f565b9392505050565b6000606082019050614bf660008301866144f6565b614c0360208301856144f6565b614c106040830184614b1f565b949350505050565b6000604082019050614c2d60008301856144f6565b614c3a6020830184614b1f565b9392505050565b60006020820190508181036000830152614c5b818461451c565b905092915050565b60006020820190508181036000830152614c7d818461457a565b905092915050565b6000602082019050614c9a60008301846145d8565b92915050565b6000602082019050614cb560008301846145e7565b92915050565b6000602082019050614cd060008301846145f6565b92915050565b60006020820190508181036000830152614cf08184614636565b905092915050565b60006020820190508181036000830152614d118161466f565b9050919050565b60006020820190508181036000830152614d3181614692565b9050919050565b60006020820190508181036000830152614d51816146b5565b9050919050565b60006020820190508181036000830152614d71816146d8565b9050919050565b60006020820190508181036000830152614d91816146fb565b9050919050565b60006020820190508181036000830152614db18161471e565b9050919050565b60006020820190508181036000830152614dd181614741565b9050919050565b60006020820190508181036000830152614df181614764565b9050919050565b60006020820190508181036000830152614e1181614787565b9050919050565b60006020820190508181036000830152614e31816147aa565b9050919050565b60006020820190508181036000830152614e51816147cd565b9050919050565b60006020820190508181036000830152614e71816147f0565b9050919050565b60006020820190508181036000830152614e9181614813565b9050919050565b60006020820190508181036000830152614eb181614836565b9050919050565b60006020820190508181036000830152614ed181614859565b9050919050565b60006020820190508181036000830152614ef18161487c565b9050919050565b60006020820190508181036000830152614f118161489f565b9050919050565b60006020820190508181036000830152614f31816148c2565b9050919050565b60006020820190508181036000830152614f51816148e5565b9050919050565b60006020820190508181036000830152614f7181614908565b9050919050565b60006020820190508181036000830152614f918161492b565b9050919050565b60006020820190508181036000830152614fb18161494e565b9050919050565b60006020820190508181036000830152614fd181614971565b9050919050565b60006020820190508181036000830152614ff181614994565b9050919050565b60006020820190508181036000830152615011816149b7565b9050919050565b60006020820190508181036000830152615031816149fd565b9050919050565b6000602082019050818103600083015261505181614a20565b9050919050565b6000602082019050818103600083015261507181614a43565b9050919050565b600060808201905061508d6000830184614abb565b92915050565b60006020820190506150a86000830184614b1f565b92915050565b60006040820190506150c36000830185614b1f565b6150d060208301846144f6565b9392505050565b60006080820190506150ec6000830187614b1f565b6150f960208301866144f6565b818103604083015261510b8185614636565b905061511a6060830184614b1f565b95945050505050565b60006040820190506151386000830185614b1f565b6151456020830184614b1f565b9392505050565b60006080820190506151616000830187614b1f565b61516e6020830186614b1f565b61517b60408301856144f6565b61518860608301846144f6565b95945050505050565b60006060820190506151a66000830186614b1f565b6151b36020830185614b1f565b6151c06040830184614b1f565b949350505050565b60006151d26151e3565b90506151de828261551d565b919050565b6000604051905090565b600067ffffffffffffffff82111561520857615207615623565b5b602082029050602081019050919050565b600067ffffffffffffffff82111561523457615233615623565b5b61523d82615652565b9050602081019050919050565b6000819050602082019050919050565b6000819050602082019050919050565b600081519050919050565b600081519050919050565b600081519050919050565b600081519050919050565b6000602082019050919050565b6000602082019050919050565b600082825260208201905092915050565b600082825260208201905092915050565b600081905092915050565b600082825260208201905092915050565b60006152f98261549b565b91506153048361549b565b9250827fffffffffffffffffffffffffffffffffffffffffffffffffffffffffffffffff03821115615339576153386155c5565b5b828201905092915050565b600061534f8261549b565b915061535a8361549b565b92508261536a576153696155f4565b5b828204905092915050565b60006153808261549b565b915061538b8361549b565b9250817fffffffffffffffffffffffffffffffffffffffffffffffffffffffffffffffff04831182151516156153c4576153c36155c5565b5b828202905092915050565b60006153da8261549b565b91506153e58361549b565b9250828210156153f8576153f76155c5565b5b828203905092915050565b600061540e8261547b565b9050919050565b60006154208261547b565b9050919050565b60008115159050919050565b6000819050919050565b60007fffffffff0000000000000000000000000000000000000000000000000000000082169050919050565b600061547482615403565b9050919050565b600073ffffffffffffffffffffffffffffffffffffffff82169050919050565b6000819050919050565b60006154b0826154b7565b9050919050565b60006154c2826154c9565b9050919050565b60006154d48261547b565b9050919050565b82818337600083830152505050565b60005b838110156155085780820151818401526020810190506154ed565b83811115615517576000848401525b50505050565b61552682615652565b810181811067ffffffffffffffff8211171561554557615544615623565b5b80604052505050565b60006155598261549b565b91507fffffffffffffffffffffffffffffffffffffffffffffffffffffffffffffffff82141561558c5761558b6155c5565b5b600182019050919050565b60006155a2826155a9565b9050919050565b60006155b482615663565b9050919050565b6000819050919050565b7f4e487b7100000000000000000000000000000000000000000000000000000000600052601160045260246000fd5b7f4e487b7100000000000000000000000000000000000000000000000000000000600052601260045260246000fd5b7f4e487b7100000000000000000000000000000000000000000000000000000000600052604160045260246000fd5b6000601f19601f8301169050919050565b60008160601b9050919050565b7f50726963652073686f756c6420636f76657220746f74616c20726f79616c746960008201527f6573000000000000000000000000000000000000000000000000000000000000602082015250565b7f5061757361626c653a206e6f7420706175736564000000000000000000000000600082015250565b7f546865204e465420636f6e747261637420646f6573206e6f7420737570706f7260008201527f74207468652045524337323120696e7465726661636500000000000000000000602082015250565b7f5472616e73666572206f6620726f79616c747920746f2074686520726563656960008201527f766572206661696c65642e000000000000000000000000000000000000000000602082015250565b7f436f756e7465723a2064656372656d656e74206f766572666c6f770000000000600082015250565b7f4f776e61626c653a206e6577206f776e657220697320746865207a65726f206160008201527f6464726573730000000000000000000000000000000000000000000000000000602082015250565b7f4e6f206c697374696e6720666f756e6420666f72207468697320746f6b656e4960008201527f6420616e6420636f6c6c656374696f6e00000000000000000000000000000000602082015250565b7f5472616e7366657220746f204e46542073656c6c6572206661696c65642e0000600082015250565b7f5061796d656e7453706c69747465723a206163636f756e7420686173206e6f2060008201527f7368617265730000000000000000000000000000000000000000000000000000602082015250565b7f416464726573733a20756e61626c6520746f2073656e642076616c75652c207260008201527f6563697069656e74206d61792068617665207265766572746564000000000000602082015250565b7f416464726573733a20696e73756666696369656e742062616c616e6365000000600082015250565b7f416464726573733a20696e73756666696369656e742062616c616e636520666f60008201527f722063616c6c0000000000000000000000000000000000000000000000000000602082015250565b7f5061796d656e7453706c69747465723a206163636f756e74206973206e6f742060008201527f647565207061796d656e74000000000000000000000000000000000000000000602082015250565b7f546865204e465420636f6e747261637420646f6573206e6f7420737570706f7260008201527f7420746865204552433239383120696e74657266616365000000000000000000602082015250565b7f596f7520646f6e2774206f776e2074686973204e465400000000000000000000600082015250565b7f5061757361626c653a2070617573656400000000000000000000000000000000600082015250565b7f50616765206e756d6265722073686f756c64206265206772656174657220746860008201527f616e203000000000000000000000000000000000000000000000000000000000602082015250565b7f5072696365206d7573742062652067726561746572207468616e204d494e5f5060008201527f5249434500000000000000000000000000000000000000000000000000000000602082015250565b7f496e76616c696420706167696e6174696f6e2072616e67650000000000000000600082015250565b7f4f776e65722063616e6e6f7420627579207468656972206f776e204e46540000600082015250565b7f50726963652073686f756c6420626520686967686572207468616e20746f746160008201527f6c20726f79616c74696573000000000000000000000000000000000000000000602082015250565b7f53656e742076616c756520646f6573206e6f74206d6174636820746865204e4660008201527f5420707269636500000000000000000000000000000000000000000000000000602082015250565b7f4f776e61626c653a2063616c6c6572206973206e6f7420746865206f776e6572600082015250565b7f5472616e7366657220746f204e4654206f776e6572206661696c65642e000000600082015250565b7f546f6b656e20697320616c7265616479206c6973746564000000000000000000600082015250565b50565b7f416464726573733a2063616c6c20746f206e6f6e2d636f6e7472616374000000600082015250565b7f5361666545524332303a204552433230206f7065726174696f6e20646964206e60008201527f6f74207375636365656400000000000000000000000000000000000000000000602082015250565b7f5265656e7472616e637947756172643a207265656e7472616e742063616c6c00600082015250565b615d3281615403565b8114615d3d57600080fd5b50565b615d4981615415565b8114615d5457600080fd5b50565b615d6081615427565b8114615d6b57600080fd5b50565b615d7781615433565b8114615d8257600080fd5b50565b615d8e81615469565b8114615d9957600080fd5b50565b615da58161549b565b8114615db057600080fd5b5056fea2646970667358221220bc4b5eb2bfec4cfa2cbcbc74480c91c08451ae40824488b71f6e5fecc53fb32664736f6c63430008010033",
  "linkReferences": {},
  "deployedLinkReferences": {}
}