{
  "_format": "hh-sol-artifact-1",
  "contractName": "NFTMarketplace",
  "sourceName": "contracts/NFTMarketplace.sol",
  "abi": [
    {
      "inputs": [
        {
          "internalType": "address",
          "name": "nftContractAddress",
          "type": "address"
        },
        {
          "internalType": "address[]",
          "name": "payees",
          "type": "address[]"
        },
        {
          "internalType": "uint256[]",
          "name": "shares",
          "type": "uint256[]"
        },
        {
          "internalType": "uint256",
          "name": "royalties",
          "type": "uint256"
        }
      ],
      "stateMutability": "nonpayable",
      "type": "constructor"
    },
    {
      "anonymous": false,
      "inputs": [
        {
          "indexed": true,
          "internalType": "contract IERC20",
          "name": "token",
          "type": "address"
        },
        {
          "indexed": false,
          "internalType": "address",
          "name": "to",
          "type": "address"
        },
        {
          "indexed": false,
          "internalType": "uint256",
          "name": "amount",
          "type": "uint256"
        }
      ],
      "name": "ERC20PaymentReleased",
      "type": "event"
    },
    {
      "anonymous": false,
      "inputs": [
        {
          "indexed": false,
          "internalType": "uint256",
          "name": "requestId",
          "type": "uint256"
        },
        {
          "indexed": false,
          "internalType": "uint256",
          "name": "tokenId",
          "type": "uint256"
        }
      ],
      "name": "MintRequestApproved",
      "type": "event"
    },
    {
      "anonymous": false,
      "inputs": [
        {
          "indexed": true,
          "internalType": "uint256",
          "name": "tokenId",
          "type": "uint256"
        }
      ],
      "name": "NFTBought",
      "type": "event"
    },
    {
      "anonymous": false,
      "inputs": [
        {
          "indexed": true,
          "internalType": "uint256",
          "name": "tokenId",
          "type": "uint256"
        }
      ],
      "name": "NFTDelisted",
      "type": "event"
    },
    {
      "anonymous": false,
      "inputs": [
        {
          "indexed": true,
          "internalType": "uint256",
          "name": "tokenId",
          "type": "uint256"
        }
      ],
      "name": "NFTListed",
      "type": "event"
    },
    {
      "anonymous": false,
      "inputs": [
        {
          "indexed": true,
          "internalType": "address",
          "name": "previousOwner",
          "type": "address"
        },
        {
          "indexed": true,
          "internalType": "address",
          "name": "newOwner",
          "type": "address"
        }
      ],
      "name": "OwnershipTransferred",
      "type": "event"
    },
    {
      "anonymous": false,
      "inputs": [
        {
          "indexed": false,
          "internalType": "address",
          "name": "account",
          "type": "address"
        },
        {
          "indexed": false,
          "internalType": "uint256",
          "name": "shares",
          "type": "uint256"
        }
      ],
      "name": "PayeeAdded",
      "type": "event"
    },
    {
      "anonymous": false,
      "inputs": [
        {
          "indexed": false,
          "internalType": "address",
          "name": "from",
          "type": "address"
        },
        {
          "indexed": false,
          "internalType": "uint256",
          "name": "amount",
          "type": "uint256"
        }
      ],
      "name": "PaymentReceived",
      "type": "event"
    },
    {
      "anonymous": false,
      "inputs": [
        {
          "indexed": false,
          "internalType": "address",
          "name": "to",
          "type": "address"
        },
        {
          "indexed": false,
          "internalType": "uint256",
          "name": "amount",
          "type": "uint256"
        }
      ],
      "name": "PaymentReleased",
      "type": "event"
    },
    {
      "anonymous": false,
      "inputs": [
        {
          "indexed": true,
          "internalType": "uint256",
          "name": "requestId",
          "type": "uint256"
        },
        {
          "indexed": false,
          "internalType": "address",
          "name": "buyer",
          "type": "address"
        },
        {
          "indexed": false,
          "internalType": "string",
          "name": "tokenURI",
          "type": "string"
        },
        {
          "indexed": false,
          "internalType": "uint256",
          "name": "price",
          "type": "uint256"
        }
      ],
      "name": "TokenMintRequest",
      "type": "event"
    },
    {
      "inputs": [],
      "name": "MAX_PRICE",
      "outputs": [
        {
          "internalType": "uint256",
          "name": "",
          "type": "uint256"
        }
      ],
      "stateMutability": "view",
      "type": "function"
    },
    {
      "inputs": [],
      "name": "MIN_PRICE",
      "outputs": [
        {
          "internalType": "uint256",
          "name": "",
          "type": "uint256"
        }
      ],
      "stateMutability": "view",
      "type": "function"
    },
    {
      "inputs": [
        {
          "internalType": "uint256",
          "name": "requestId",
          "type": "uint256"
        }
      ],
      "name": "approveMintRequest",
      "outputs": [],
      "stateMutability": "nonpayable",
      "type": "function"
    },
    {
      "inputs": [
        {
          "internalType": "uint256",
          "name": "tokenId",
          "type": "uint256"
        },
        {
          "internalType": "uint256",
          "name": "collectionId",
          "type": "uint256"
        },
        {
          "internalType": "string",
          "name": "tokenURI",
          "type": "string"
        }
      ],
      "name": "buyNFT",
      "outputs": [],
      "stateMutability": "payable",
      "type": "function"
    },
    {
      "inputs": [
        {
          "internalType": "uint256",
          "name": "tokenId",
          "type": "uint256"
        }
      ],
      "name": "delistNFT",
      "outputs": [],
      "stateMutability": "nonpayable",
      "type": "function"
    },
    {
      "inputs": [
        {
          "internalType": "uint256",
          "name": "tokenId",
          "type": "uint256"
        }
      ],
      "name": "isTokenListed",
      "outputs": [
        {
          "internalType": "bool",
          "name": "",
          "type": "bool"
        }
      ],
      "stateMutability": "view",
      "type": "function"
    },
    {
      "inputs": [
        {
          "internalType": "uint256",
          "name": "tokenId",
          "type": "uint256"
        },
        {
          "internalType": "uint256",
          "name": "newPrice",
          "type": "uint256"
        }
      ],
      "name": "listNFT",
      "outputs": [],
      "stateMutability": "nonpayable",
      "type": "function"
    },
    {
      "inputs": [],
      "name": "mintRequestIdTracker",
      "outputs": [
        {
          "internalType": "uint256",
          "name": "",
          "type": "uint256"
        }
      ],
      "stateMutability": "view",
      "type": "function"
    },
    {
      "inputs": [
        {
          "internalType": "uint256",
          "name": "",
          "type": "uint256"
        }
      ],
      "name": "mintRequests",
      "outputs": [
        {
          "internalType": "uint256",
          "name": "collectionId",
          "type": "uint256"
        },
        {
          "internalType": "string",
          "name": "tokenURI",
          "type": "string"
        },
        {
          "internalType": "uint256",
          "name": "price",
          "type": "uint256"
        },
        {
          "internalType": "address",
          "name": "buyer",
          "type": "address"
        },
        {
          "internalType": "bool",
          "name": "approved",
          "type": "bool"
        }
      ],
      "stateMutability": "view",
      "type": "function"
    },
    {
      "inputs": [],
      "name": "owner",
      "outputs": [
        {
          "internalType": "address",
          "name": "",
          "type": "address"
        }
      ],
      "stateMutability": "view",
      "type": "function"
    },
    {
      "inputs": [
        {
          "internalType": "uint256",
          "name": "index",
          "type": "uint256"
        }
      ],
      "name": "payee",
      "outputs": [
        {
          "internalType": "address",
          "name": "",
          "type": "address"
        }
      ],
      "stateMutability": "view",
      "type": "function"
    },
    {
      "inputs": [
        {
          "internalType": "address",
          "name": "account",
          "type": "address"
        }
      ],
      "name": "releasable",
      "outputs": [
        {
          "internalType": "uint256",
          "name": "",
          "type": "uint256"
        }
      ],
      "stateMutability": "view",
      "type": "function"
    },
    {
      "inputs": [
        {
          "internalType": "contract IERC20",
          "name": "token",
          "type": "address"
        },
        {
          "internalType": "address",
          "name": "account",
          "type": "address"
        }
      ],
      "name": "releasable",
      "outputs": [
        {
          "internalType": "uint256",
          "name": "",
          "type": "uint256"
        }
      ],
      "stateMutability": "view",
      "type": "function"
    },
    {
      "inputs": [
        {
          "internalType": "address payable",
          "name": "account",
          "type": "address"
        }
      ],
      "name": "release",
      "outputs": [],
      "stateMutability": "nonpayable",
      "type": "function"
    },
    {
      "inputs": [
        {
          "internalType": "contract IERC20",
          "name": "token",
          "type": "address"
        },
        {
          "internalType": "address",
          "name": "account",
          "type": "address"
        }
      ],
      "name": "release",
      "outputs": [],
      "stateMutability": "nonpayable",
      "type": "function"
    },
    {
      "inputs": [
        {
          "internalType": "contract IERC20",
          "name": "token",
          "type": "address"
        },
        {
          "internalType": "address",
          "name": "account",
          "type": "address"
        }
      ],
      "name": "released",
      "outputs": [
        {
          "internalType": "uint256",
          "name": "",
          "type": "uint256"
        }
      ],
      "stateMutability": "view",
      "type": "function"
    },
    {
      "inputs": [
        {
          "internalType": "address",
          "name": "account",
          "type": "address"
        }
      ],
      "name": "released",
      "outputs": [
        {
          "internalType": "uint256",
          "name": "",
          "type": "uint256"
        }
      ],
      "stateMutability": "view",
      "type": "function"
    },
    {
      "inputs": [],
      "name": "renounceOwnership",
      "outputs": [],
      "stateMutability": "nonpayable",
      "type": "function"
    },
    {
      "inputs": [
        {
          "internalType": "address",
          "name": "account",
          "type": "address"
        }
      ],
      "name": "shares",
      "outputs": [
        {
          "internalType": "uint256",
          "name": "",
          "type": "uint256"
        }
      ],
      "stateMutability": "view",
      "type": "function"
    },
    {
      "inputs": [
        {
          "internalType": "contract IERC20",
          "name": "token",
          "type": "address"
        }
      ],
      "name": "totalReleased",
      "outputs": [
        {
          "internalType": "uint256",
          "name": "",
          "type": "uint256"
        }
      ],
      "stateMutability": "view",
      "type": "function"
    },
    {
      "inputs": [],
      "name": "totalReleased",
      "outputs": [
        {
          "internalType": "uint256",
          "name": "",
          "type": "uint256"
        }
      ],
      "stateMutability": "view",
      "type": "function"
    },
    {
      "inputs": [],
      "name": "totalShares",
      "outputs": [
        {
          "internalType": "uint256",
          "name": "",
          "type": "uint256"
        }
      ],
      "stateMutability": "view",
      "type": "function"
    },
    {
      "inputs": [
        {
          "internalType": "address",
          "name": "newOwner",
          "type": "address"
        }
      ],
      "name": "transferOwnership",
      "outputs": [],
      "stateMutability": "nonpayable",
      "type": "function"
    },
    {
      "stateMutability": "payable",
      "type": "receive"
    }
  ],
  "bytecode": "0x60806040526001600d553480156200001657600080fd5b5060405162004f3138038062004f3183398181016040528101906200003c919062000705565b82826200005e620000526200028d60201b60201c565b6200029560201b60201c565b600180819055508051825114620000ac576040517f08c379a0000000000000000000000000000000000000000000000000000000008152600401620000a39062000925565b60405180910390fd5b6000825111620000f3576040517f08c379a0000000000000000000000000000000000000000000000000000000008152600401620000ea90620009ad565b60405180910390fd5b60005b8251811015620001aa57620001948382815181106200013e577f4e487b7100000000000000000000000000000000000000000000000000000000600052603260045260246000fd5b602002602001015183838151811062000180577f4e487b7100000000000000000000000000000000000000000000000000000000600052603260045260246000fd5b60200260200101516200035960201b60201c565b8080620001a19062000b5a565b915050620000f6565b5050506000835111620001f4576040517f08c379a0000000000000000000000000000000000000000000000000000000008152600401620001eb9062000969565b60405180910390fd5b81518351146200023b576040517f08c379a0000000000000000000000000000000000000000000000000000000008152600401620002329062000947565b60405180910390fd5b83600960006101000a81548173ffffffffffffffffffffffffffffffffffffffff021916908373ffffffffffffffffffffffffffffffffffffffff16021790555080600a819055505050505062000e02565b600033905090565b60008060009054906101000a900473ffffffffffffffffffffffffffffffffffffffff169050816000806101000a81548173ffffffffffffffffffffffffffffffffffffffff021916908373ffffffffffffffffffffffffffffffffffffffff1602179055508173ffffffffffffffffffffffffffffffffffffffff168173ffffffffffffffffffffffffffffffffffffffff167f8be0079c531659141344cd1fd0a4f28419497f9722a3daafe3b4186f6b6457e060405160405180910390a35050565b600073ffffffffffffffffffffffffffffffffffffffff168273ffffffffffffffffffffffffffffffffffffffff161415620003cc576040517f08c379a0000000000000000000000000000000000000000000000000000000008152600401620003c39062000903565b60405180910390fd5b6000811162000412576040517f08c379a00000000000000000000000000000000000000000000000000000000081526004016200040990620009cf565b60405180910390fd5b6000600460008473ffffffffffffffffffffffffffffffffffffffff1673ffffffffffffffffffffffffffffffffffffffff168152602001908152602001600020541462000497576040517f08c379a00000000000000000000000000000000000000000000000000000000081526004016200048e906200098b565b60405180910390fd5b6006829080600181540180825580915050600190039060005260206000200160009091909190916101000a81548173ffffffffffffffffffffffffffffffffffffffff021916908373ffffffffffffffffffffffffffffffffffffffff16021790555080600460008473ffffffffffffffffffffffffffffffffffffffff1673ffffffffffffffffffffffffffffffffffffffff16815260200190815260200160002081905550806002546200054e919062000a89565b6002819055507f40c340f65e17194d14ddddb073d3c9f888e3cb52b5aae0c6c7706b4fbc905fac828260405162000587929190620008d6565b60405180910390a15050565b6000620005aa620005a48462000a1a565b620009f1565b90508083825260208201905082856020860282011115620005ca57600080fd5b60005b85811015620005fe5781620005e388826200067d565b845260208401935060208301925050600181019050620005cd565b5050509392505050565b60006200061f620006198462000a49565b620009f1565b905080838252602082019050828560208602820111156200063f57600080fd5b60005b85811015620006735781620006588882620006ee565b84526020840193506020830192505060018101905062000642565b5050509392505050565b6000815190506200068e8162000dce565b92915050565b600082601f830112620006a657600080fd5b8151620006b884826020860162000593565b91505092915050565b600082601f830112620006d357600080fd5b8151620006e584826020860162000608565b91505092915050565b600081519050620006ff8162000de8565b92915050565b600080600080608085870312156200071c57600080fd5b60006200072c878288016200067d565b945050602085015167ffffffffffffffff8111156200074a57600080fd5b620007588782880162000694565b935050604085015167ffffffffffffffff8111156200077657600080fd5b6200078487828801620006c1565b92505060606200079787828801620006ee565b91505092959194509250565b620007ae8162000ae6565b82525050565b6000620007c3602c8362000a78565b9150620007d08262000c17565b604082019050919050565b6000620007ea60328362000a78565b9150620007f78262000c66565b604082019050919050565b60006200081160238362000a78565b91506200081e8262000cb5565b604082019050919050565b600062000838601e8362000a78565b9150620008458262000d04565b602082019050919050565b60006200085f602b8362000a78565b91506200086c8262000d2d565b604082019050919050565b600062000886601a8362000a78565b9150620008938262000d7c565b602082019050919050565b6000620008ad601d8362000a78565b9150620008ba8262000da5565b602082019050919050565b620008d08162000b1a565b82525050565b6000604082019050620008ed6000830185620007a3565b620008fc6020830184620008c5565b9392505050565b600060208201905081810360008301526200091e81620007b4565b9050919050565b600060208201905081810360008301526200094081620007db565b9050919050565b60006020820190508181036000830152620009628162000802565b9050919050565b60006020820190508181036000830152620009848162000829565b9050919050565b60006020820190508181036000830152620009a68162000850565b9050919050565b60006020820190508181036000830152620009c88162000877565b9050919050565b60006020820190508181036000830152620009ea816200089e565b9050919050565b6000620009fd62000a10565b905062000a0b828262000b24565b919050565b6000604051905090565b600067ffffffffffffffff82111562000a385762000a3762000bd7565b5b602082029050602081019050919050565b600067ffffffffffffffff82111562000a675762000a6662000bd7565b5b602082029050602081019050919050565b600082825260208201905092915050565b600062000a968262000b1a565b915062000aa38362000b1a565b9250827fffffffffffffffffffffffffffffffffffffffffffffffffffffffffffffffff0382111562000adb5762000ada62000ba8565b5b828201905092915050565b600062000af38262000afa565b9050919050565b600073ffffffffffffffffffffffffffffffffffffffff82169050919050565b6000819050919050565b62000b2f8262000c06565b810181811067ffffffffffffffff8211171562000b515762000b5062000bd7565b5b80604052505050565b600062000b678262000b1a565b91507fffffffffffffffffffffffffffffffffffffffffffffffffffffffffffffffff82141562000b9d5762000b9c62000ba8565b5b600182019050919050565b7f4e487b7100000000000000000000000000000000000000000000000000000000600052601160045260246000fd5b7f4e487b7100000000000000000000000000000000000000000000000000000000600052604160045260246000fd5b6000601f19601f8301169050919050565b7f5061796d656e7453706c69747465723a206163636f756e74206973207468652060008201527f7a65726f20616464726573730000000000000000000000000000000000000000602082015250565b7f5061796d656e7453706c69747465723a2070617965657320616e64207368617260008201527f6573206c656e677468206d69736d617463680000000000000000000000000000602082015250565b7f50617965657320616e6420736861726573206c656e677468206d757374206d6160008201527f7463680000000000000000000000000000000000000000000000000000000000602082015250565b7f4174206c65617374206f6e652070617965652069732072657175697265640000600082015250565b7f5061796d656e7453706c69747465723a206163636f756e7420616c726561647960008201527f2068617320736861726573000000000000000000000000000000000000000000602082015250565b7f5061796d656e7453706c69747465723a206e6f20706179656573000000000000600082015250565b7f5061796d656e7453706c69747465723a20736861726573206172652030000000600082015250565b62000dd98162000ae6565b811462000de557600080fd5b50565b62000df38162000b1a565b811462000dff57600080fd5b50565b61411f8062000e126000396000f3fe6080604052600436106101445760003560e01c80638da5cb5b116100b6578063c45ac0501161006f578063c45ac050146104b0578063cb917b9c146104ed578063ce7c2ac214610516578063d79779b214610553578063e33b7de314610590578063f2fde38b146105bb5761018b565b80638da5cb5b1461037a57806394383f14146103a55780639852595c146103ce5780639b83cddc1461040b578063a3f8eace14610448578063ad9f20a6146104855761018b565b8063424e657511610108578063424e65751461026857806348b75044146102a95780636e7f7678146102d2578063715018a6146102fb578063787954eb146103125780638b83209b1461033d5761018b565b806301c11d9614610190578063094a6aa4146101bb57806319165587146101d75780633a98ef3914610200578063406072a91461022b5761018b565b3661018b577f6ef95f06320e7a25a04a175ca677b7052bdd97131872c2192525a629f51be7706101726105e4565b3460405161018192919061312d565b60405180910390a1005b600080fd5b34801561019c57600080fd5b506101a56105ec565b6040516101b29190613513565b60405180910390f35b6101d560048036038101906101d09190612a9b565b6105fa565b005b3480156101e357600080fd5b506101fe60048036038101906101f99190612956565b610ce5565b005b34801561020c57600080fd5b50610215610e65565b6040516102229190613513565b60405180910390f35b34801561023757600080fd5b50610252600480360381019061024d91906129d1565b610e6f565b60405161025f9190613513565b60405180910390f35b34801561027457600080fd5b5061028f600480360381019061028a9190612a0d565b610ef6565b6040516102a095949392919061352e565b60405180910390f35b3480156102b557600080fd5b506102d060048036038101906102cb91906129d1565b610fe1565b005b3480156102de57600080fd5b506102f960048036038101906102f49190612a0d565b6111f5565b005b34801561030757600080fd5b506103106116d2565b005b34801561031e57600080fd5b506103276116e6565b6040516103349190613513565b60405180910390f35b34801561034957600080fd5b50610364600480360381019061035f9190612a0d565b6116ec565b604051610371919061304b565b60405180910390f35b34801561038657600080fd5b5061038f61175a565b60405161039c919061304b565b60405180910390f35b3480156103b157600080fd5b506103cc60048036038101906103c79190612a5f565b611783565b005b3480156103da57600080fd5b506103f560048036038101906103f09190612904565b611c5b565b6040516104029190613513565b60405180910390f35b34801561041757600080fd5b50610432600480360381019061042d9190612a0d565b611ca4565b60405161043f9190613156565b60405180910390f35b34801561045457600080fd5b5061046f600480360381019061046a9190612904565b611cce565b60405161047c9190613513565b60405180910390f35b34801561049157600080fd5b5061049a611d01565b6040516104a79190613513565b60405180910390f35b3480156104bc57600080fd5b506104d760048036038101906104d291906129d1565b611d0c565b6040516104e49190613513565b60405180910390f35b3480156104f957600080fd5b50610514600480360381019061050f9190612a0d565b611dca565b005b34801561052257600080fd5b5061053d60048036038101906105389190612904565b611feb565b60405161054a9190613513565b60405180910390f35b34801561055f57600080fd5b5061057a600480360381019061057591906129a8565b612034565b6040516105879190613513565b60405180910390f35b34801561059c57600080fd5b506105a561207d565b6040516105b29190613513565b60405180910390f35b3480156105c757600080fd5b506105e260048036038101906105dd9190612904565b612087565b005b600033905090565b69021e19e0c9bab240000081565b61060261210b565b60008060008514610a2c57600b600086815260200190815260200160002060009054906101000a900460ff1661066d576040517f08c379a000000000000000000000000000000000000000000000000000000000815260040161066490613393565b60405180910390fd5b600960009054906101000a900473ffffffffffffffffffffffffffffffffffffffff1673ffffffffffffffffffffffffffffffffffffffff1663e7572230866040518263ffffffff1660e01b81526004016106c89190613513565b60206040518083038186803b1580156106e057600080fd5b505afa1580156106f4573d6000803e3d6000fd5b505050506040513d601f19601f820116820180604052508101906107189190612a36565b9150600960009054906101000a900473ffffffffffffffffffffffffffffffffffffffff1673ffffffffffffffffffffffffffffffffffffffff16636352211e866040518263ffffffff1660e01b81526004016107759190613513565b60206040518083038186803b15801561078d57600080fd5b505afa1580156107a1573d6000803e3d6000fd5b505050506040513d601f19601f820116820180604052508101906107c5919061292d565b9050813414610809576040517f08c379a000000000000000000000000000000000000000000000000000000000815260040161080090613333565b60405180910390fd5b60006108336064610825600a548661215b90919063ffffffff16565b61217190919063ffffffff16565b9050808311610877576040517f08c379a000000000000000000000000000000000000000000000000000000000815260040161086e90613313565b60405180910390fd5b600061088c828561218790919063ffffffff16565b90506000600b600089815260200190815260200160002060006101000a81548160ff02191690831515021790555060008373ffffffffffffffffffffffffffffffffffffffff16826040516108e090613036565b60006040518083038185875af1925050503d806000811461091d576040519150601f19603f3d011682016040523d82523d6000602084013e610922565b606091505b5050905080610966576040517f08c379a000000000000000000000000000000000000000000000000000000000815260040161095d90613413565b60405180910390fd5b600960009054906101000a900473ffffffffffffffffffffffffffffffffffffffff1673ffffffffffffffffffffffffffffffffffffffff166323b872dd85338b6040518463ffffffff1660e01b81526004016109c5939291906130b8565b600060405180830381600087803b1580156109df57600080fd5b505af11580156109f3573d6000803e3d6000fd5b50505050877ff1a4f188d8f608af032a64d403473119856aae541d836c6a78e2187e809c330760405160405180910390a2505050610cd6565b662386f26fc10000341015610a76576040517f08c379a0000000000000000000000000000000000000000000000000000000008152600401610a6d90613193565b60405180910390fd5b69021e19e0c9bab2400000341115610ac3576040517f08c379a0000000000000000000000000000000000000000000000000000000008152600401610aba906132d3565b60405180910390fd5b6000835111610b07576040517f08c379a0000000000000000000000000000000000000000000000000000000008152600401610afe906133d3565b60405180910390fd5b6001841415610b4b576040517f08c379a0000000000000000000000000000000000000000000000000000000008152600401610b4290613433565b60405180910390fd5b6000841415610b8f576040517f08c379a0000000000000000000000000000000000000000000000000000000008152600401610b8690613473565b60405180910390fd5b6040518060a001604052808581526020018481526020013481526020013373ffffffffffffffffffffffffffffffffffffffff16815260200160001515815250600c6000600d548152602001908152602001600020600082015181600001556020820151816001019080519060200190610c0a929190612766565b506040820151816002015560608201518160030160006101000a81548173ffffffffffffffffffffffffffffffffffffffff021916908373ffffffffffffffffffffffffffffffffffffffff16021790555060808201518160030160146101000a81548160ff021916908315150217905550905050600d547f0514ef6e9a15654bb97b2d44afaa80921232b56180326dd4966e01ecd230d233338534604051610cb5939291906130ef565b60405180910390a2600d6000815480929190610cd0906138f6565b91905055505b5050610ce061219d565b505050565b6000600460008373ffffffffffffffffffffffffffffffffffffffff1673ffffffffffffffffffffffffffffffffffffffff1681526020019081526020016000205411610d67576040517f08c379a0000000000000000000000000000000000000000000000000000000008152600401610d5e90613233565b60405180910390fd5b6000610d7282611cce565b90506000811415610db8576040517f08c379a0000000000000000000000000000000000000000000000000000000008152600401610daf906132b3565b60405180910390fd5b8060036000828254610dca919061369a565b9250508190555080600560008473ffffffffffffffffffffffffffffffffffffffff1673ffffffffffffffffffffffffffffffffffffffff16815260200190815260200160002060008282540192505081905550610e2882826121a6565b7fdf20fd1e76bc69d672e4814fafb2c449bba3a5369d8359adf9e05e6fde87b0568282604051610e59929190613066565b60405180910390a15050565b6000600254905090565b6000600860008473ffffffffffffffffffffffffffffffffffffffff1673ffffffffffffffffffffffffffffffffffffffff16815260200190815260200160002060008373ffffffffffffffffffffffffffffffffffffffff1673ffffffffffffffffffffffffffffffffffffffff16815260200190815260200160002054905092915050565b600c602052806000526040600020600091509050806000015490806001018054610f1f90613893565b80601f0160208091040260200160405190810160405280929190818152602001828054610f4b90613893565b8015610f985780601f10610f6d57610100808354040283529160200191610f98565b820191906000526020600020905b815481529060010190602001808311610f7b57829003601f168201915b5050505050908060020154908060030160009054906101000a900473ffffffffffffffffffffffffffffffffffffffff16908060030160149054906101000a900460ff16905085565b6000600460008373ffffffffffffffffffffffffffffffffffffffff1673ffffffffffffffffffffffffffffffffffffffff1681526020019081526020016000205411611063576040517f08c379a000000000000000000000000000000000000000000000000000000000815260040161105a90613233565b60405180910390fd5b600061106f8383611d0c565b905060008114156110b5576040517f08c379a00000000000000000000000000000000000000000000000000000000081526004016110ac906132b3565b60405180910390fd5b80600760008573ffffffffffffffffffffffffffffffffffffffff1673ffffffffffffffffffffffffffffffffffffffff1681526020019081526020016000206000828254611104919061369a565b9250508190555080600860008573ffffffffffffffffffffffffffffffffffffffff1673ffffffffffffffffffffffffffffffffffffffff16815260200190815260200160002060008473ffffffffffffffffffffffffffffffffffffffff1673ffffffffffffffffffffffffffffffffffffffff168152602001908152602001600020600082825401925050819055506111a083838361229a565b8273ffffffffffffffffffffffffffffffffffffffff167f3be5b7a71e84ed12875d241991c70855ac5817d847039e17a9d895c1ceb0f18a83836040516111e892919061312d565b60405180910390a2505050565b6111fd61210b565b6000600c60008381526020019081526020016000209050600073ffffffffffffffffffffffffffffffffffffffff168160030160009054906101000a900473ffffffffffffffffffffffffffffffffffffffff1673ffffffffffffffffffffffffffffffffffffffff1614156112a8576040517f08c379a000000000000000000000000000000000000000000000000000000000815260040161129f906134d3565b60405180910390fd5b8060030160149054906101000a900460ff16156112fa576040517f08c379a00000000000000000000000000000000000000000000000000000000081526004016112f190613213565b60405180910390fd5b6000600960009054906101000a900473ffffffffffffffffffffffffffffffffffffffff1673ffffffffffffffffffffffffffffffffffffffff1663394120c083600001546040518263ffffffff1660e01b815260040161135b9190613513565b60206040518083038186803b15801561137357600080fd5b505afa158015611387573d6000803e3d6000fd5b505050506040513d601f19601f820116820180604052508101906113ab919061292d565b90503373ffffffffffffffffffffffffffffffffffffffff168173ffffffffffffffffffffffffffffffffffffffff161461141b576040517f08c379a000000000000000000000000000000000000000000000000000000000815260040161141290613353565b60405180910390fd5b6000611449606461143b600a54866002015461215b90919063ffffffff16565b61217190919063ffffffff16565b905080836002015411611491576040517f08c379a000000000000000000000000000000000000000000000000000000000815260040161148890613313565b60405180910390fd5b60006114aa82856002015461218790919063ffffffff16565b905060008373ffffffffffffffffffffffffffffffffffffffff16826040516114d290613036565b60006040518083038185875af1925050503d806000811461150f576040519150601f19603f3d011682016040523d82523d6000602084013e611514565b606091505b5050905080611558576040517f08c379a000000000000000000000000000000000000000000000000000000000815260040161154f90613373565b60405180910390fd5b6000600960009054906101000a900473ffffffffffffffffffffffffffffffffffffffff1673ffffffffffffffffffffffffffffffffffffffff1663b41a6e3487600001548860010189600201548a60030160009054906101000a900473ffffffffffffffffffffffffffffffffffffffff166040518563ffffffff1660e01b81526004016115ea9493929190613588565b602060405180830381600087803b15801561160457600080fd5b505af1158015611618573d6000803e3d6000fd5b505050506040513d601f19601f8201168201806040525081019061163c9190612a36565b905060018660030160146101000a81548160ff0219169083151502179055507febe8a5caf534027cd489966391b45060b1030eb8db4cd6e20429d7bc1cdf9595878260405161168c9291906135d4565b60405180910390a1807ff1a4f188d8f608af032a64d403473119856aae541d836c6a78e2187e809c330760405160405180910390a25050505050506116cf61219d565b50565b6116da612320565b6116e4600061239e565b565b600d5481565b600060068281548110611728577f4e487b7100000000000000000000000000000000000000000000000000000000600052603260045260246000fd5b9060005260206000200160009054906101000a900473ffffffffffffffffffffffffffffffffffffffff169050919050565b60008060009054906101000a900473ffffffffffffffffffffffffffffffffffffffff16905090565b61178b61210b565b662386f26fc100008110156117d5576040517f08c379a00000000000000000000000000000000000000000000000000000000081526004016117cc90613193565b60405180910390fd5b69021e19e0c9bab2400000811115611822576040517f08c379a0000000000000000000000000000000000000000000000000000000008152600401611819906132d3565b60405180910390fd5b600b600083815260200190815260200160002060009054906101000a900460ff1615611883576040517f08c379a000000000000000000000000000000000000000000000000000000000815260040161187a906132f3565b60405180910390fd5b3373ffffffffffffffffffffffffffffffffffffffff16600960009054906101000a900473ffffffffffffffffffffffffffffffffffffffff1673ffffffffffffffffffffffffffffffffffffffff16636352211e846040518263ffffffff1660e01b81526004016118f59190613513565b60206040518083038186803b15801561190d57600080fd5b505afa158015611921573d6000803e3d6000fd5b505050506040513d601f19601f82011682018060405250810190611945919061292d565b73ffffffffffffffffffffffffffffffffffffffff161461199b576040517f08c379a0000000000000000000000000000000000000000000000000000000008152600401611992906134f3565b60405180910390fd5b600960009054906101000a900473ffffffffffffffffffffffffffffffffffffffff1673ffffffffffffffffffffffffffffffffffffffff1663e985e9c533306040518363ffffffff1660e01b81526004016119f892919061308f565b60206040518083038186803b158015611a1057600080fd5b505afa158015611a24573d6000803e3d6000fd5b505050506040513d601f19601f82011682018060405250810190611a48919061297f565b80611b2857503073ffffffffffffffffffffffffffffffffffffffff16600960009054906101000a900473ffffffffffffffffffffffffffffffffffffffff1673ffffffffffffffffffffffffffffffffffffffff1663081812fc846040518263ffffffff1660e01b8152600401611ac09190613513565b60206040518083038186803b158015611ad857600080fd5b505afa158015611aec573d6000803e3d6000fd5b505050506040513d601f19601f82011682018060405250810190611b10919061292d565b73ffffffffffffffffffffffffffffffffffffffff16145b611b67576040517f08c379a0000000000000000000000000000000000000000000000000000000008152600401611b5e906133f3565b60405180910390fd5b600960009054906101000a900473ffffffffffffffffffffffffffffffffffffffff1673ffffffffffffffffffffffffffffffffffffffff1663f7d9757783836040518363ffffffff1660e01b8152600401611bc49291906135d4565b600060405180830381600087803b158015611bde57600080fd5b505af1158015611bf2573d6000803e3d6000fd5b505050506001600b600084815260200190815260200160002060006101000a81548160ff021916908315150217905550817fdb1fd9bae40110b73b6592270632b19e60d204d52ee5cd72c60d076e6bdd342f60405160405180910390a2611c5761219d565b5050565b6000600560008373ffffffffffffffffffffffffffffffffffffffff1673ffffffffffffffffffffffffffffffffffffffff168152602001908152602001600020549050919050565b6000600b600083815260200190815260200160002060009054906101000a900460ff169050919050565b600080611cd961207d565b47611ce4919061369a565b9050611cf98382611cf486611c5b565b612462565b915050919050565b662386f26fc1000081565b600080611d1884612034565b8473ffffffffffffffffffffffffffffffffffffffff166370a08231306040518263ffffffff1660e01b8152600401611d51919061304b565b60206040518083038186803b158015611d6957600080fd5b505afa158015611d7d573d6000803e3d6000fd5b505050506040513d601f19601f82011682018060405250810190611da19190612a36565b611dab919061369a565b9050611dc18382611dbc8787610e6f565b612462565b91505092915050565b611dd261210b565b600960009054906101000a900473ffffffffffffffffffffffffffffffffffffffff1673ffffffffffffffffffffffffffffffffffffffff16636352211e826040518263ffffffff1660e01b8152600401611e2d9190613513565b60206040518083038186803b158015611e4557600080fd5b505afa158015611e59573d6000803e3d6000fd5b505050506040513d601f19601f82011682018060405250810190611e7d919061292d565b73ffffffffffffffffffffffffffffffffffffffff163373ffffffffffffffffffffffffffffffffffffffff161480611ee85750611eb961175a565b73ffffffffffffffffffffffffffffffffffffffff163373ffffffffffffffffffffffffffffffffffffffff16145b611f27576040517f08c379a0000000000000000000000000000000000000000000000000000000008152600401611f1e906131f3565b60405180910390fd5b600b600082815260200190815260200160002060009054906101000a900460ff16611f87576040517f08c379a0000000000000000000000000000000000000000000000000000000008152600401611f7e906131d3565b60405180910390fd5b6000600b600083815260200190815260200160002060006101000a81548160ff021916908315150217905550807fc0c55a6edead4433d18cb1e287a0a20a2fa003a6f483bc9823d2e504d70d1c6760405160405180910390a2611fe861219d565b50565b6000600460008373ffffffffffffffffffffffffffffffffffffffff1673ffffffffffffffffffffffffffffffffffffffff168152602001908152602001600020549050919050565b6000600760008373ffffffffffffffffffffffffffffffffffffffff1673ffffffffffffffffffffffffffffffffffffffff168152602001908152602001600020549050919050565b6000600354905090565b61208f612320565b600073ffffffffffffffffffffffffffffffffffffffff168173ffffffffffffffffffffffffffffffffffffffff1614156120ff576040517f08c379a00000000000000000000000000000000000000000000000000000000081526004016120f6906131b3565b60405180910390fd5b6121088161239e565b50565b60026001541415612151576040517f08c379a0000000000000000000000000000000000000000000000000000000008152600401612148906134b3565b60405180910390fd5b6002600181905550565b600081836121699190613721565b905092915050565b6000818361217f91906136f0565b905092915050565b60008183612195919061377b565b905092915050565b60018081905550565b804710156121e9576040517f08c379a00000000000000000000000000000000000000000000000000000000081526004016121e090613273565b60405180910390fd5b60008273ffffffffffffffffffffffffffffffffffffffff168260405161220f90613036565b60006040518083038185875af1925050503d806000811461224c576040519150601f19603f3d011682016040523d82523d6000602084013e612251565b606091505b5050905080612295576040517f08c379a000000000000000000000000000000000000000000000000000000000815260040161228c90613253565b60405180910390fd5b505050565b61231b8363a9059cbb60e01b84846040516024016122b992919061312d565b604051602081830303815290604052907bffffffffffffffffffffffffffffffffffffffffffffffffffffffff19166020820180517bffffffffffffffffffffffffffffffffffffffffffffffffffffffff83818316178352505050506124d0565b505050565b6123286105e4565b73ffffffffffffffffffffffffffffffffffffffff1661234661175a565b73ffffffffffffffffffffffffffffffffffffffff161461239c576040517f08c379a0000000000000000000000000000000000000000000000000000000008152600401612393906133b3565b60405180910390fd5b565b60008060009054906101000a900473ffffffffffffffffffffffffffffffffffffffff169050816000806101000a81548173ffffffffffffffffffffffffffffffffffffffff021916908373ffffffffffffffffffffffffffffffffffffffff1602179055508173ffffffffffffffffffffffffffffffffffffffff168173ffffffffffffffffffffffffffffffffffffffff167f8be0079c531659141344cd1fd0a4f28419497f9722a3daafe3b4186f6b6457e060405160405180910390a35050565b600081600254600460008773ffffffffffffffffffffffffffffffffffffffff1673ffffffffffffffffffffffffffffffffffffffff16815260200190815260200160002054856124b39190613721565b6124bd91906136f0565b6124c7919061377b565b90509392505050565b6000612532826040518060400160405280602081526020017f5361666545524332303a206c6f772d6c6576656c2063616c6c206661696c65648152508573ffffffffffffffffffffffffffffffffffffffff166125989092919063ffffffff16565b9050600081511480612554575080806020019051810190612553919061297f565b5b612593576040517f08c379a000000000000000000000000000000000000000000000000000000000815260040161258a90613493565b60405180910390fd5b505050565b60606125a784846000856125b0565b90509392505050565b6060824710156125f5576040517f08c379a00000000000000000000000000000000000000000000000000000000081526004016125ec90613293565b60405180910390fd5b6000808673ffffffffffffffffffffffffffffffffffffffff16858760405161261e919061301f565b60006040518083038185875af1925050503d806000811461265b576040519150601f19603f3d011682016040523d82523d6000602084013e612660565b606091505b50915091506126718783838761267d565b92505050949350505050565b606083156126e0576000835114156126d857612698856126f3565b6126d7576040517f08c379a00000000000000000000000000000000000000000000000000000000081526004016126ce90613453565b60405180910390fd5b5b8290506126eb565b6126ea8383612716565b5b949350505050565b6000808273ffffffffffffffffffffffffffffffffffffffff163b119050919050565b6000825111156127295781518083602001fd5b806040517f08c379a000000000000000000000000000000000000000000000000000000000815260040161275d9190613171565b60405180910390fd5b82805461277290613893565b90600052602060002090601f01602090048101928261279457600085556127db565b82601f106127ad57805160ff19168380011785556127db565b828001600101855582156127db579182015b828111156127da5782518255916020019190600101906127bf565b5b5090506127e891906127ec565b5090565b5b808211156128055760008160009055506001016127ed565b5090565b600061281c61281784613622565b6135fd565b90508281526020810184848401111561283457600080fd5b61283f848285613851565b509392505050565b60008135905061285681614076565b92915050565b60008151905061286b81614076565b92915050565b6000813590506128808161408d565b92915050565b600081519050612895816140a4565b92915050565b6000813590506128aa816140bb565b92915050565b600082601f8301126128c157600080fd5b81356128d1848260208601612809565b91505092915050565b6000813590506128e9816140d2565b92915050565b6000815190506128fe816140d2565b92915050565b60006020828403121561291657600080fd5b600061292484828501612847565b91505092915050565b60006020828403121561293f57600080fd5b600061294d8482850161285c565b91505092915050565b60006020828403121561296857600080fd5b600061297684828501612871565b91505092915050565b60006020828403121561299157600080fd5b600061299f84828501612886565b91505092915050565b6000602082840312156129ba57600080fd5b60006129c88482850161289b565b91505092915050565b600080604083850312156129e457600080fd5b60006129f28582860161289b565b9250506020612a0385828601612847565b9150509250929050565b600060208284031215612a1f57600080fd5b6000612a2d848285016128da565b91505092915050565b600060208284031215612a4857600080fd5b6000612a56848285016128ef565b91505092915050565b60008060408385031215612a7257600080fd5b6000612a80858286016128da565b9250506020612a91858286016128da565b9150509250929050565b600080600060608486031215612ab057600080fd5b6000612abe868287016128da565b9350506020612acf868287016128da565b925050604084013567ffffffffffffffff811115612aec57600080fd5b612af8868287016128b0565b9150509250925092565b612b0b8161381b565b82525050565b612b1a816137af565b82525050565b612b29816137d3565b82525050565b6000612b3a82613668565b612b44818561367e565b9350612b54818560208601613860565b80840191505092915050565b6000612b6b82613673565b612b758185613689565b9350612b85818560208601613860565b612b8e816139fb565b840191505092915050565b60008154612ba681613893565b612bb08186613689565b94506001821660008114612bcb5760018114612bdd57612c10565b60ff1983168652602086019350612c10565b612be685613653565b60005b83811015612c0857815481890152600182019150602081019050612be9565b808801955050505b50505092915050565b6000612c26602083613689565b9150612c3182613a0c565b602082019050919050565b6000612c49602683613689565b9150612c5482613a35565b604082019050919050565b6000612c6c600e83613689565b9150612c7782613a84565b602082019050919050565b6000612c8f602983613689565b9150612c9a82613aad565b604082019050919050565b6000612cb2601d83613689565b9150612cbd82613afc565b602082019050919050565b6000612cd5602683613689565b9150612ce082613b25565b604082019050919050565b6000612cf8603a83613689565b9150612d0382613b74565b604082019050919050565b6000612d1b601d83613689565b9150612d2682613bc3565b602082019050919050565b6000612d3e602683613689565b9150612d4982613bec565b604082019050919050565b6000612d61602b83613689565b9150612d6c82613c3b565b604082019050919050565b6000612d84601f83613689565b9150612d8f82613c8a565b602082019050919050565b6000612da7601283613689565b9150612db282613cb3565b602082019050919050565b6000612dca602b83613689565b9150612dd582613cdc565b604082019050919050565b6000612ded602783613689565b9150612df882613d2b565b604082019050919050565b6000612e10603683613689565b9150612e1b82613d7a565b604082019050919050565b6000612e33602483613689565b9150612e3e82613dc9565b604082019050919050565b6000612e56601783613689565b9150612e6182613e18565b602082019050919050565b6000612e79602083613689565b9150612e8482613e41565b602082019050919050565b6000612e9c602183613689565b9150612ea782613e6a565b604082019050919050565b6000612ebf602a83613689565b9150612eca82613eb9565b604082019050919050565b6000612ee2601d83613689565b9150612eed82613f08565b602082019050919050565b6000612f0560008361367e565b9150612f1082613f31565b600082019050919050565b6000612f28600083613689565b9150612f3382613f31565b600082019050919050565b6000612f4b601d83613689565b9150612f5682613f34565b602082019050919050565b6000612f6e602583613689565b9150612f7982613f5d565b604082019050919050565b6000612f91602a83613689565b9150612f9c82613fac565b604082019050919050565b6000612fb4601f83613689565b9150612fbf82613ffb565b602082019050919050565b6000612fd7601b83613689565b9150612fe282614024565b602082019050919050565b6000612ffa601883613689565b91506130058261404d565b602082019050919050565b61301981613811565b82525050565b600061302b8284612b2f565b915081905092915050565b600061304182612ef8565b9150819050919050565b60006020820190506130606000830184612b11565b92915050565b600060408201905061307b6000830185612b02565b6130886020830184613010565b9392505050565b60006040820190506130a46000830185612b11565b6130b16020830184612b11565b9392505050565b60006060820190506130cd6000830186612b11565b6130da6020830185612b11565b6130e76040830184613010565b949350505050565b60006060820190506131046000830186612b11565b81810360208301526131168185612b60565b90506131256040830184613010565b949350505050565b60006040820190506131426000830185612b11565b61314f6020830184613010565b9392505050565b600060208201905061316b6000830184612b20565b92915050565b6000602082019050818103600083015261318b8184612b60565b905092915050565b600060208201905081810360008301526131ac81612c19565b9050919050565b600060208201905081810360008301526131cc81612c3c565b9050919050565b600060208201905081810360008301526131ec81612c5f565b9050919050565b6000602082019050818103600083015261320c81612c82565b9050919050565b6000602082019050818103600083015261322c81612ca5565b9050919050565b6000602082019050818103600083015261324c81612cc8565b9050919050565b6000602082019050818103600083015261326c81612ceb565b9050919050565b6000602082019050818103600083015261328c81612d0e565b9050919050565b600060208201905081810360008301526132ac81612d31565b9050919050565b600060208201905081810360008301526132cc81612d54565b9050919050565b600060208201905081810360008301526132ec81612d77565b9050919050565b6000602082019050818103600083015261330c81612d9a565b9050919050565b6000602082019050818103600083015261332c81612dbd565b9050919050565b6000602082019050818103600083015261334c81612de0565b9050919050565b6000602082019050818103600083015261336c81612e03565b9050919050565b6000602082019050818103600083015261338c81612e26565b9050919050565b600060208201905081810360008301526133ac81612e49565b9050919050565b600060208201905081810360008301526133cc81612e6c565b9050919050565b600060208201905081810360008301526133ec81612e8f565b9050919050565b6000602082019050818103600083015261340c81612eb2565b9050919050565b6000602082019050818103600083015261342c81612ed5565b9050919050565b6000602082019050818103600083015261344c81612f1b565b9050919050565b6000602082019050818103600083015261346c81612f3e565b9050919050565b6000602082019050818103600083015261348c81612f61565b9050919050565b600060208201905081810360008301526134ac81612f84565b9050919050565b600060208201905081810360008301526134cc81612fa7565b9050919050565b600060208201905081810360008301526134ec81612fca565b9050919050565b6000602082019050818103600083015261350c81612fed565b9050919050565b60006020820190506135286000830184613010565b92915050565b600060a0820190506135436000830188613010565b81810360208301526135558187612b60565b90506135646040830186613010565b6135716060830185612b11565b61357e6080830184612b20565b9695505050505050565b600060808201905061359d6000830187613010565b81810360208301526135af8186612b99565b90506135be6040830185613010565b6135cb6060830184612b11565b95945050505050565b60006040820190506135e96000830185613010565b6135f66020830184613010565b9392505050565b6000613607613618565b905061361382826138c5565b919050565b6000604051905090565b600067ffffffffffffffff82111561363d5761363c6139cc565b5b613646826139fb565b9050602081019050919050565b60008190508160005260206000209050919050565b600081519050919050565b600081519050919050565b600081905092915050565b600082825260208201905092915050565b60006136a582613811565b91506136b083613811565b9250827fffffffffffffffffffffffffffffffffffffffffffffffffffffffffffffffff038211156136e5576136e461393f565b5b828201905092915050565b60006136fb82613811565b915061370683613811565b9250826137165761371561396e565b5b828204905092915050565b600061372c82613811565b915061373783613811565b9250817fffffffffffffffffffffffffffffffffffffffffffffffffffffffffffffffff04831182151516156137705761376f61393f565b5b828202905092915050565b600061378682613811565b915061379183613811565b9250828210156137a4576137a361393f565b5b828203905092915050565b60006137ba826137f1565b9050919050565b60006137cc826137f1565b9050919050565b60008115159050919050565b60006137ea826137af565b9050919050565b600073ffffffffffffffffffffffffffffffffffffffff82169050919050565b6000819050919050565b60006138268261382d565b9050919050565b60006138388261383f565b9050919050565b600061384a826137f1565b9050919050565b82818337600083830152505050565b60005b8381101561387e578082015181840152602081019050613863565b8381111561388d576000848401525b50505050565b600060028204905060018216806138ab57607f821691505b602082108114156138bf576138be61399d565b5b50919050565b6138ce826139fb565b810181811067ffffffffffffffff821117156138ed576138ec6139cc565b5b80604052505050565b600061390182613811565b91507fffffffffffffffffffffffffffffffffffffffffffffffffffffffffffffffff8214156139345761393361393f565b5b600182019050919050565b7f4e487b7100000000000000000000000000000000000000000000000000000000600052601160045260246000fd5b7f4e487b7100000000000000000000000000000000000000000000000000000000600052601260045260246000fd5b7f4e487b7100000000000000000000000000000000000000000000000000000000600052602260045260246000fd5b7f4e487b7100000000000000000000000000000000000000000000000000000000600052604160045260246000fd5b6000601f19601f8301169050919050565b7f5072696365206d757374206265206174206c65617374204d494e5f5052494345600082015250565b7f4f776e61626c653a206e6577206f776e657220697320746865207a65726f206160008201527f6464726573730000000000000000000000000000000000000000000000000000602082015250565b7f4e4654206e6f74206c6973746564000000000000000000000000000000000000600082015250565b7f43616c6c6572206973206e6f74206f776e6572206f66204e4654206f72206d6160008201527f726b6574706c6163650000000000000000000000000000000000000000000000602082015250565b7f4d696e74207265717565737420616c726561647920617070726f766564000000600082015250565b7f5061796d656e7453706c69747465723a206163636f756e7420686173206e6f2060008201527f7368617265730000000000000000000000000000000000000000000000000000602082015250565b7f416464726573733a20756e61626c6520746f2073656e642076616c75652c207260008201527f6563697069656e74206d61792068617665207265766572746564000000000000602082015250565b7f416464726573733a20696e73756666696369656e742062616c616e6365000000600082015250565b7f416464726573733a20696e73756666696369656e742062616c616e636520666f60008201527f722063616c6c0000000000000000000000000000000000000000000000000000602082015250565b7f5061796d656e7453706c69747465723a206163636f756e74206973206e6f742060008201527f647565207061796d656e74000000000000000000000000000000000000000000602082015250565b7f5072696365206d757374206e6f7420657863656564204d41585f505249434500600082015250565b7f4e465420616c7265616479206c69737465640000000000000000000000000000600082015250565b7f50726963652073686f756c6420626520686967686572207468616e20746f746160008201527f6c20726f79616c74696573000000000000000000000000000000000000000000602082015250565b7f53656e742076616c756520646f6573206e6f74206d6174636820746865204e4660008201527f5420707269636500000000000000000000000000000000000000000000000000602082015250565b7f4f6e6c792074686520636f6c6c656374696f6e206f776e65722063616e20617060008201527f70726f766520746865206d696e74207265717565737400000000000000000000602082015250565b7f5472616e7366657220746f20436f6c6c656374696f6e206f776e65722066616960008201527f6c65642e00000000000000000000000000000000000000000000000000000000602082015250565b7f4e4654206e6f74206c697374656420666f722073616c65000000000000000000600082015250565b7f4f776e61626c653a2063616c6c6572206973206e6f7420746865206f776e6572600082015250565b7f546f6b656e2055524920697320726571756972656420666f72206d696e74696e60008201527f6700000000000000000000000000000000000000000000000000000000000000602082015250565b7f4d75737420617070726f7665206d61726b6574706c61636520746f206d616e6160008201527f676520746865204e465400000000000000000000000000000000000000000000602082015250565b7f5472616e7366657220746f204e4654206f776e6572206661696c65642e000000600082015250565b50565b7f416464726573733a2063616c6c20746f206e6f6e2d636f6e7472616374000000600082015250565b7f436f6c6c656374696f6e20494420697320726571756972656420666f72206d6960008201527f6e74696e67000000000000000000000000000000000000000000000000000000602082015250565b7f5361666545524332303a204552433230206f7065726174696f6e20646964206e60008201527f6f74207375636365656400000000000000000000000000000000000000000000602082015250565b7f5265656e7472616e637947756172643a207265656e7472616e742063616c6c00600082015250565b7f4d696e74207265717565737420646f6573206e6f742065786973740000000000600082015250565b7f4d757374206265206f776e6572206f6620746865204e46540000000000000000600082015250565b61407f816137af565b811461408a57600080fd5b50565b614096816137c1565b81146140a157600080fd5b50565b6140ad816137d3565b81146140b857600080fd5b50565b6140c4816137df565b81146140cf57600080fd5b50565b6140db81613811565b81146140e657600080fd5b5056fea264697066735822122004862103494c96e0a4cf14df338fedf138292f76772ac5134d4094546da28cba64736f6c63430008010033",
  "linkReferences": {},
  "deployedLinkReferences": {}
}