{
  "_format": "hh-sol-artifact-1",
  "contractName": "NFTMarketplace",
  "sourceName": "contracts/NFTMarketplace.sol",
  "abi": [
    {
      "inputs": [
        {
          "internalType": "address",
          "name": "nftContractAddress",
          "type": "address"
        },
        {
          "internalType": "address[]",
          "name": "payees",
          "type": "address[]"
        },
        {
          "internalType": "uint256[]",
          "name": "shares",
          "type": "uint256[]"
        },
        {
          "internalType": "uint256",
          "name": "royalties",
          "type": "uint256"
        }
      ],
      "stateMutability": "nonpayable",
      "type": "constructor"
    },
    {
      "anonymous": false,
      "inputs": [
        {
          "indexed": true,
          "internalType": "contract IERC20",
          "name": "token",
          "type": "address"
        },
        {
          "indexed": false,
          "internalType": "address",
          "name": "to",
          "type": "address"
        },
        {
          "indexed": false,
          "internalType": "uint256",
          "name": "amount",
          "type": "uint256"
        }
      ],
      "name": "ERC20PaymentReleased",
      "type": "event"
    },
    {
      "anonymous": false,
      "inputs": [
        {
          "indexed": true,
          "internalType": "uint256",
          "name": "tokenId",
          "type": "uint256"
        },
        {
          "indexed": true,
          "internalType": "address",
          "name": "nftAddress",
          "type": "address"
        }
      ],
      "name": "NFTDelisted",
      "type": "event"
    },
    {
      "anonymous": false,
      "inputs": [
        {
          "indexed": true,
          "internalType": "uint256",
          "name": "tokenId",
          "type": "uint256"
        },
        {
          "indexed": false,
          "internalType": "uint256",
          "name": "price",
          "type": "uint256"
        },
        {
          "indexed": true,
          "internalType": "address",
          "name": "seller",
          "type": "address"
        },
        {
          "indexed": true,
          "internalType": "address",
          "name": "nftAddress",
          "type": "address"
        }
      ],
      "name": "NFTListed",
      "type": "event"
    },
    {
      "anonymous": false,
      "inputs": [
        {
          "indexed": true,
          "internalType": "uint256",
          "name": "tokenId",
          "type": "uint256"
        },
        {
          "indexed": false,
          "internalType": "uint256",
          "name": "price",
          "type": "uint256"
        },
        {
          "indexed": true,
          "internalType": "address",
          "name": "seller",
          "type": "address"
        },
        {
          "indexed": true,
          "internalType": "address",
          "name": "buyer",
          "type": "address"
        },
        {
          "indexed": false,
          "internalType": "address",
          "name": "nftAddress",
          "type": "address"
        }
      ],
      "name": "NFTSold",
      "type": "event"
    },
    {
      "anonymous": false,
      "inputs": [
        {
          "indexed": true,
          "internalType": "address",
          "name": "previousOwner",
          "type": "address"
        },
        {
          "indexed": true,
          "internalType": "address",
          "name": "newOwner",
          "type": "address"
        }
      ],
      "name": "OwnershipTransferred",
      "type": "event"
    },
    {
      "anonymous": false,
      "inputs": [
        {
          "indexed": false,
          "internalType": "address",
          "name": "account",
          "type": "address"
        },
        {
          "indexed": false,
          "internalType": "uint256",
          "name": "shares",
          "type": "uint256"
        }
      ],
      "name": "PayeeAdded",
      "type": "event"
    },
    {
      "anonymous": false,
      "inputs": [
        {
          "indexed": false,
          "internalType": "address",
          "name": "from",
          "type": "address"
        },
        {
          "indexed": false,
          "internalType": "uint256",
          "name": "amount",
          "type": "uint256"
        }
      ],
      "name": "PaymentReceived",
      "type": "event"
    },
    {
      "anonymous": false,
      "inputs": [
        {
          "indexed": false,
          "internalType": "address",
          "name": "to",
          "type": "address"
        },
        {
          "indexed": false,
          "internalType": "uint256",
          "name": "amount",
          "type": "uint256"
        }
      ],
      "name": "PaymentReleased",
      "type": "event"
    },
    {
      "inputs": [],
      "name": "MIN_PRICE",
      "outputs": [
        {
          "internalType": "uint256",
          "name": "",
          "type": "uint256"
        }
      ],
      "stateMutability": "view",
      "type": "function"
    },
    {
      "inputs": [
        {
          "internalType": "uint256",
          "name": "collectionId",
          "type": "uint256"
        },
        {
          "internalType": "string",
          "name": "tokenURI",
          "type": "string"
        }
      ],
      "name": "buyFromCollection",
      "outputs": [],
      "stateMutability": "payable",
      "type": "function"
    },
    {
      "inputs": [
        {
          "internalType": "address",
          "name": "nftAddress",
          "type": "address"
        },
        {
          "internalType": "uint256",
          "name": "tokenId",
          "type": "uint256"
        }
      ],
      "name": "buyNFT",
      "outputs": [],
      "stateMutability": "payable",
      "type": "function"
    },
    {
      "inputs": [
        {
          "internalType": "address",
          "name": "nftAddress",
          "type": "address"
        },
        {
          "internalType": "uint256",
          "name": "tokenId",
          "type": "uint256"
        }
      ],
      "name": "delistNFT",
      "outputs": [],
      "stateMutability": "nonpayable",
      "type": "function"
    },
    {
      "inputs": [
        {
          "internalType": "uint256",
          "name": "page",
          "type": "uint256"
        }
      ],
      "name": "getAllListings",
      "outputs": [
        {
          "components": [
            {
              "internalType": "uint256",
              "name": "tokenId",
              "type": "uint256"
            },
            {
              "internalType": "uint256",
              "name": "price",
              "type": "uint256"
            },
            {
              "internalType": "address",
              "name": "seller",
              "type": "address"
            },
            {
              "internalType": "address",
              "name": "nftAddress",
              "type": "address"
            }
          ],
          "internalType": "struct NFTMarketplace.Listing[]",
          "name": "",
          "type": "tuple[]"
        }
      ],
      "stateMutability": "view",
      "type": "function"
    },
    {
      "inputs": [
        {
          "internalType": "address",
          "name": "nftAddress",
          "type": "address"
        },
        {
          "internalType": "uint256",
          "name": "tokenId",
          "type": "uint256"
        }
      ],
      "name": "getKeyForToken",
      "outputs": [
        {
          "internalType": "bytes32",
          "name": "",
          "type": "bytes32"
        }
      ],
      "stateMutability": "pure",
      "type": "function"
    },
    {
      "inputs": [
        {
          "internalType": "uint256",
          "name": "collectionId",
          "type": "uint256"
        },
        {
          "internalType": "uint256",
          "name": "startIndex",
          "type": "uint256"
        },
        {
          "internalType": "uint256",
          "name": "pageSize",
          "type": "uint256"
        },
        {
          "internalType": "address",
          "name": "nftAddress",
          "type": "address"
        }
      ],
      "name": "getListedTokensInCollection",
      "outputs": [
        {
          "internalType": "uint256[]",
          "name": "",
          "type": "uint256[]"
        }
      ],
      "stateMutability": "view",
      "type": "function"
    },
    {
      "inputs": [
        {
          "internalType": "uint256",
          "name": "tokenId",
          "type": "uint256"
        },
        {
          "internalType": "address",
          "name": "nftAddress",
          "type": "address"
        }
      ],
      "name": "getListingByTokenIdAndAddress",
      "outputs": [
        {
          "components": [
            {
              "internalType": "uint256",
              "name": "tokenId",
              "type": "uint256"
            },
            {
              "internalType": "uint256",
              "name": "price",
              "type": "uint256"
            },
            {
              "internalType": "address",
              "name": "seller",
              "type": "address"
            },
            {
              "internalType": "address",
              "name": "nftAddress",
              "type": "address"
            }
          ],
          "internalType": "struct NFTMarketplace.Listing",
          "name": "",
          "type": "tuple"
        }
      ],
      "stateMutability": "view",
      "type": "function"
    },
    {
      "inputs": [
        {
          "internalType": "address",
          "name": "nftAddress",
          "type": "address"
        },
        {
          "internalType": "uint256",
          "name": "page",
          "type": "uint256"
        },
        {
          "internalType": "uint256",
          "name": "pageSize",
          "type": "uint256"
        }
      ],
      "name": "getListingsByNFTContract",
      "outputs": [
        {
          "components": [
            {
              "internalType": "uint256",
              "name": "tokenId",
              "type": "uint256"
            },
            {
              "internalType": "uint256",
              "name": "price",
              "type": "uint256"
            },
            {
              "internalType": "address",
              "name": "seller",
              "type": "address"
            },
            {
              "internalType": "address",
              "name": "nftAddress",
              "type": "address"
            }
          ],
          "internalType": "struct NFTMarketplace.Listing[]",
          "name": "",
          "type": "tuple[]"
        }
      ],
      "stateMutability": "view",
      "type": "function"
    },
    {
      "inputs": [
        {
          "internalType": "address",
          "name": "seller",
          "type": "address"
        },
        {
          "internalType": "uint256",
          "name": "page",
          "type": "uint256"
        },
        {
          "internalType": "uint256",
          "name": "pageSize",
          "type": "uint256"
        }
      ],
      "name": "getListingsBySeller",
      "outputs": [
        {
          "components": [
            {
              "internalType": "uint256",
              "name": "tokenId",
              "type": "uint256"
            },
            {
              "internalType": "uint256",
              "name": "price",
              "type": "uint256"
            },
            {
              "internalType": "address",
              "name": "seller",
              "type": "address"
            },
            {
              "internalType": "address",
              "name": "nftAddress",
              "type": "address"
            }
          ],
          "internalType": "struct NFTMarketplace.Listing[]",
          "name": "",
          "type": "tuple[]"
        }
      ],
      "stateMutability": "view",
      "type": "function"
    },
    {
      "inputs": [
        {
          "internalType": "address",
          "name": "nftAddress",
          "type": "address"
        },
        {
          "internalType": "uint256",
          "name": "tokenId",
          "type": "uint256"
        }
      ],
      "name": "isTokenListed",
      "outputs": [
        {
          "internalType": "bool",
          "name": "",
          "type": "bool"
        }
      ],
      "stateMutability": "view",
      "type": "function"
    },
    {
      "inputs": [
        {
          "internalType": "uint256",
          "name": "tokenId",
          "type": "uint256"
        },
        {
          "internalType": "uint256",
          "name": "price",
          "type": "uint256"
        },
        {
          "internalType": "address",
          "name": "nftAddress",
          "type": "address"
        }
      ],
      "name": "listNFT",
      "outputs": [],
      "stateMutability": "nonpayable",
      "type": "function"
    },
    {
      "inputs": [
        {
          "internalType": "bytes32",
          "name": "",
          "type": "bytes32"
        }
      ],
      "name": "listings",
      "outputs": [
        {
          "internalType": "uint256",
          "name": "tokenId",
          "type": "uint256"
        },
        {
          "internalType": "uint256",
          "name": "price",
          "type": "uint256"
        },
        {
          "internalType": "address",
          "name": "seller",
          "type": "address"
        },
        {
          "internalType": "address",
          "name": "nftAddress",
          "type": "address"
        }
      ],
      "stateMutability": "view",
      "type": "function"
    },
    {
      "inputs": [
        {
          "internalType": "uint256",
          "name": "",
          "type": "uint256"
        }
      ],
      "name": "listingsKeys",
      "outputs": [
        {
          "internalType": "bytes32",
          "name": "",
          "type": "bytes32"
        }
      ],
      "stateMutability": "view",
      "type": "function"
    },
    {
      "inputs": [],
      "name": "owner",
      "outputs": [
        {
          "internalType": "address",
          "name": "",
          "type": "address"
        }
      ],
      "stateMutability": "view",
      "type": "function"
    },
    {
      "inputs": [
        {
          "internalType": "uint256",
          "name": "index",
          "type": "uint256"
        }
      ],
      "name": "payee",
      "outputs": [
        {
          "internalType": "address",
          "name": "",
          "type": "address"
        }
      ],
      "stateMutability": "view",
      "type": "function"
    },
    {
      "inputs": [
        {
          "internalType": "address",
          "name": "account",
          "type": "address"
        }
      ],
      "name": "releasable",
      "outputs": [
        {
          "internalType": "uint256",
          "name": "",
          "type": "uint256"
        }
      ],
      "stateMutability": "view",
      "type": "function"
    },
    {
      "inputs": [
        {
          "internalType": "contract IERC20",
          "name": "token",
          "type": "address"
        },
        {
          "internalType": "address",
          "name": "account",
          "type": "address"
        }
      ],
      "name": "releasable",
      "outputs": [
        {
          "internalType": "uint256",
          "name": "",
          "type": "uint256"
        }
      ],
      "stateMutability": "view",
      "type": "function"
    },
    {
      "inputs": [
        {
          "internalType": "address payable",
          "name": "account",
          "type": "address"
        }
      ],
      "name": "release",
      "outputs": [],
      "stateMutability": "nonpayable",
      "type": "function"
    },
    {
      "inputs": [
        {
          "internalType": "contract IERC20",
          "name": "token",
          "type": "address"
        },
        {
          "internalType": "address",
          "name": "account",
          "type": "address"
        }
      ],
      "name": "release",
      "outputs": [],
      "stateMutability": "nonpayable",
      "type": "function"
    },
    {
      "inputs": [
        {
          "internalType": "contract IERC20",
          "name": "token",
          "type": "address"
        },
        {
          "internalType": "address",
          "name": "account",
          "type": "address"
        }
      ],
      "name": "released",
      "outputs": [
        {
          "internalType": "uint256",
          "name": "",
          "type": "uint256"
        }
      ],
      "stateMutability": "view",
      "type": "function"
    },
    {
      "inputs": [
        {
          "internalType": "address",
          "name": "account",
          "type": "address"
        }
      ],
      "name": "released",
      "outputs": [
        {
          "internalType": "uint256",
          "name": "",
          "type": "uint256"
        }
      ],
      "stateMutability": "view",
      "type": "function"
    },
    {
      "inputs": [],
      "name": "renounceOwnership",
      "outputs": [],
      "stateMutability": "nonpayable",
      "type": "function"
    },
    {
      "inputs": [
        {
          "internalType": "address",
          "name": "account",
          "type": "address"
        }
      ],
      "name": "shares",
      "outputs": [
        {
          "internalType": "uint256",
          "name": "",
          "type": "uint256"
        }
      ],
      "stateMutability": "view",
      "type": "function"
    },
    {
      "inputs": [
        {
          "internalType": "contract IERC20",
          "name": "token",
          "type": "address"
        }
      ],
      "name": "totalReleased",
      "outputs": [
        {
          "internalType": "uint256",
          "name": "",
          "type": "uint256"
        }
      ],
      "stateMutability": "view",
      "type": "function"
    },
    {
      "inputs": [],
      "name": "totalReleased",
      "outputs": [
        {
          "internalType": "uint256",
          "name": "",
          "type": "uint256"
        }
      ],
      "stateMutability": "view",
      "type": "function"
    },
    {
      "inputs": [],
      "name": "totalShares",
      "outputs": [
        {
          "internalType": "uint256",
          "name": "",
          "type": "uint256"
        }
      ],
      "stateMutability": "view",
      "type": "function"
    },
    {
      "inputs": [
        {
          "internalType": "address",
          "name": "newOwner",
          "type": "address"
        }
      ],
      "name": "transferOwnership",
      "outputs": [],
      "stateMutability": "nonpayable",
      "type": "function"
    },
    {
      "stateMutability": "payable",
      "type": "receive"
    }
  ],
  "bytecode": "0x60806040523480156200001157600080fd5b506040516200692038038062006920833981810160405281019062000037919062000700565b8282620000596200004d6200028860201b60201c565b6200029060201b60201c565b600180819055508051825114620000a7576040517f08c379a00000000000000000000000000000000000000000000000000000000081526004016200009e9062000920565b60405180910390fd5b6000825111620000ee576040517f08c379a0000000000000000000000000000000000000000000000000000000008152600401620000e590620009a8565b60405180910390fd5b60005b8251811015620001a5576200018f83828151811062000139577f4e487b7100000000000000000000000000000000000000000000000000000000600052603260045260246000fd5b60200260200101518383815181106200017b577f4e487b7100000000000000000000000000000000000000000000000000000000600052603260045260246000fd5b60200260200101516200035460201b60201c565b80806200019c9062000b55565b915050620000f1565b5050506000835111620001ef576040517f08c379a0000000000000000000000000000000000000000000000000000000008152600401620001e69062000964565b60405180910390fd5b815183511462000236576040517f08c379a00000000000000000000000000000000000000000000000000000000081526004016200022d9062000942565b60405180910390fd5b83600a60006101000a81548173ffffffffffffffffffffffffffffffffffffffff021916908373ffffffffffffffffffffffffffffffffffffffff160217905550806009819055505050505062000dfd565b600033905090565b60008060009054906101000a900473ffffffffffffffffffffffffffffffffffffffff169050816000806101000a81548173ffffffffffffffffffffffffffffffffffffffff021916908373ffffffffffffffffffffffffffffffffffffffff1602179055508173ffffffffffffffffffffffffffffffffffffffff168173ffffffffffffffffffffffffffffffffffffffff167f8be0079c531659141344cd1fd0a4f28419497f9722a3daafe3b4186f6b6457e060405160405180910390a35050565b600073ffffffffffffffffffffffffffffffffffffffff168273ffffffffffffffffffffffffffffffffffffffff161415620003c7576040517f08c379a0000000000000000000000000000000000000000000000000000000008152600401620003be90620008fe565b60405180910390fd5b600081116200040d576040517f08c379a00000000000000000000000000000000000000000000000000000000081526004016200040490620009ca565b60405180910390fd5b6000600460008473ffffffffffffffffffffffffffffffffffffffff1673ffffffffffffffffffffffffffffffffffffffff168152602001908152602001600020541462000492576040517f08c379a0000000000000000000000000000000000000000000000000000000008152600401620004899062000986565b60405180910390fd5b6006829080600181540180825580915050600190039060005260206000200160009091909190916101000a81548173ffffffffffffffffffffffffffffffffffffffff021916908373ffffffffffffffffffffffffffffffffffffffff16021790555080600460008473ffffffffffffffffffffffffffffffffffffffff1673ffffffffffffffffffffffffffffffffffffffff168152602001908152602001600020819055508060025462000549919062000a84565b6002819055507f40c340f65e17194d14ddddb073d3c9f888e3cb52b5aae0c6c7706b4fbc905fac828260405162000582929190620008d1565b60405180910390a15050565b6000620005a56200059f8462000a15565b620009ec565b90508083825260208201905082856020860282011115620005c557600080fd5b60005b85811015620005f95781620005de888262000678565b845260208401935060208301925050600181019050620005c8565b5050509392505050565b60006200061a620006148462000a44565b620009ec565b905080838252602082019050828560208602820111156200063a57600080fd5b60005b858110156200066e5781620006538882620006e9565b8452602084019350602083019250506001810190506200063d565b5050509392505050565b600081519050620006898162000dc9565b92915050565b600082601f830112620006a157600080fd5b8151620006b38482602086016200058e565b91505092915050565b600082601f830112620006ce57600080fd5b8151620006e084826020860162000603565b91505092915050565b600081519050620006fa8162000de3565b92915050565b600080600080608085870312156200071757600080fd5b6000620007278782880162000678565b945050602085015167ffffffffffffffff8111156200074557600080fd5b62000753878288016200068f565b935050604085015167ffffffffffffffff8111156200077157600080fd5b6200077f87828801620006bc565b92505060606200079287828801620006e9565b91505092959194509250565b620007a98162000ae1565b82525050565b6000620007be602c8362000a73565b9150620007cb8262000c12565b604082019050919050565b6000620007e560328362000a73565b9150620007f28262000c61565b604082019050919050565b60006200080c60238362000a73565b9150620008198262000cb0565b604082019050919050565b600062000833601e8362000a73565b9150620008408262000cff565b602082019050919050565b60006200085a602b8362000a73565b9150620008678262000d28565b604082019050919050565b600062000881601a8362000a73565b91506200088e8262000d77565b602082019050919050565b6000620008a8601d8362000a73565b9150620008b58262000da0565b602082019050919050565b620008cb8162000b15565b82525050565b6000604082019050620008e860008301856200079e565b620008f76020830184620008c0565b9392505050565b600060208201905081810360008301526200091981620007af565b9050919050565b600060208201905081810360008301526200093b81620007d6565b9050919050565b600060208201905081810360008301526200095d81620007fd565b9050919050565b600060208201905081810360008301526200097f8162000824565b9050919050565b60006020820190508181036000830152620009a1816200084b565b9050919050565b60006020820190508181036000830152620009c38162000872565b9050919050565b60006020820190508181036000830152620009e58162000899565b9050919050565b6000620009f862000a0b565b905062000a06828262000b1f565b919050565b6000604051905090565b600067ffffffffffffffff82111562000a335762000a3262000bd2565b5b602082029050602081019050919050565b600067ffffffffffffffff82111562000a625762000a6162000bd2565b5b602082029050602081019050919050565b600082825260208201905092915050565b600062000a918262000b15565b915062000a9e8362000b15565b9250827fffffffffffffffffffffffffffffffffffffffffffffffffffffffffffffffff0382111562000ad65762000ad562000ba3565b5b828201905092915050565b600062000aee8262000af5565b9050919050565b600073ffffffffffffffffffffffffffffffffffffffff82169050919050565b6000819050919050565b62000b2a8262000c01565b810181811067ffffffffffffffff8211171562000b4c5762000b4b62000bd2565b5b80604052505050565b600062000b628262000b15565b91507fffffffffffffffffffffffffffffffffffffffffffffffffffffffffffffffff82141562000b985762000b9762000ba3565b5b600182019050919050565b7f4e487b7100000000000000000000000000000000000000000000000000000000600052601160045260246000fd5b7f4e487b7100000000000000000000000000000000000000000000000000000000600052604160045260246000fd5b6000601f19601f8301169050919050565b7f5061796d656e7453706c69747465723a206163636f756e74206973207468652060008201527f7a65726f20616464726573730000000000000000000000000000000000000000602082015250565b7f5061796d656e7453706c69747465723a2070617965657320616e64207368617260008201527f6573206c656e677468206d69736d617463680000000000000000000000000000602082015250565b7f50617965657320616e6420736861726573206c656e677468206d757374206d6160008201527f7463680000000000000000000000000000000000000000000000000000000000602082015250565b7f4174206c65617374206f6e652070617965652069732072657175697265640000600082015250565b7f5061796d656e7453706c69747465723a206163636f756e7420616c726561647960008201527f2068617320736861726573000000000000000000000000000000000000000000602082015250565b7f5061796d656e7453706c69747465723a206e6f20706179656573000000000000600082015250565b7f5061796d656e7453706c69747465723a20736861726573206172652030000000600082015250565b62000dd48162000ae1565b811462000de057600080fd5b50565b62000dee8162000b15565b811462000dfa57600080fd5b50565b615b138062000e0d6000396000f3fe6080604052600436106101bb5760003560e01c80639852595c116100ec578063c4f85af71161008a578063e33b7de311610064578063e33b7de3146106d4578063f193a6cf146106ff578063f2fde38b1461073c578063f4b483571461076557610202565b8063c4f85af71461063e578063ce7c2ac21461065a578063d79779b21461069757610202565b8063a82ba76f116100c6578063a82ba76f1461057a578063ad9f20a614610596578063c18b8db4146105c1578063c45ac0501461060157610202565b80639852595c146104d7578063a17a709414610514578063a3f8eace1461053d57610202565b80634d2f6503116101595780637e5c0924116101335780637e5c0924146103f55780638b83209b146104325780638da5cb5b1461046f57806393a895531461049a57610202565b80634d2f6503146103645780635471b47a146103a1578063715018a6146103de57610202565b8063191655871161019557806319165587146102aa5780633a98ef39146102d3578063406072a9146102fe57806348b750441461033b57610202565b806302998cf31461020757806314cadc7014610230578063150abc571461026d57610202565b36610202577f6ef95f06320e7a25a04a175ca677b7052bdd97131872c2192525a629f51be7706101e96107a2565b346040516101f89291906149f7565b60405180910390a1005b600080fd5b34801561021357600080fd5b5061022e60048036038101906102299190614215565b6107aa565b005b34801561023c57600080fd5b50610257600480360381019061025291906140f7565b610e0b565b6040516102649190614a20565b60405180910390f35b34801561027957600080fd5b50610294600480360381019061028f9190613fb0565b611267565b6040516102a19190614a20565b60405180910390f35b3480156102b657600080fd5b506102d160048036038101906102cc9190613f0f565b61167d565b005b3480156102df57600080fd5b506102e86117fd565b6040516102f59190614e12565b60405180910390f35b34801561030a57600080fd5b50610325600480360381019061032091906140bb565b611807565b6040516103329190614e12565b60405180910390f35b34801561034757600080fd5b50610362600480360381019061035d91906140bb565b61188e565b005b34801561037057600080fd5b5061038b60048036038101906103869190614149565b611aa2565b6040516103989190614df7565b60405180910390f35b3480156103ad57600080fd5b506103c860048036038101906103c39190613f38565b611c45565b6040516103d59190614a64565b60405180910390f35b3480156103ea57600080fd5b506103f3611cc4565b005b34801561040157600080fd5b5061041c60048036038101906104179190614264565b611cd8565b6040516104299190614a42565b60405180910390f35b34801561043e57600080fd5b50610459600480360381019061045491906140f7565b6120e6565b6040516104669190614953565b60405180910390f35b34801561047b57600080fd5b50610484612154565b6040516104919190614953565b60405180910390f35b3480156104a657600080fd5b506104c160048036038101906104bc9190613fb0565b61217d565b6040516104ce9190614a20565b60405180910390f35b3480156104e357600080fd5b506104fe60048036038101906104f99190613ebd565b61243f565b60405161050b9190614e12565b60405180910390f35b34801561052057600080fd5b5061053b60048036038101906105369190613f38565b612488565b005b34801561054957600080fd5b50610564600480360381019061055f9190613ebd565b612811565b6040516105719190614e12565b60405180910390f35b610594600480360381019061058f9190613f38565b612844565b005b3480156105a257600080fd5b506105ab6130e9565b6040516105b89190614e12565b60405180910390f35b3480156105cd57600080fd5b506105e860048036038101906105e39190614069565b6130f4565b6040516105f89493929190614ecb565b60405180910390f35b34801561060d57600080fd5b50610628600480360381019061062391906140bb565b613164565b6040516106359190614e12565b60405180910390f35b610658600480360381019061065391906141c1565b613222565b005b34801561066657600080fd5b50610681600480360381019061067c9190613ebd565b61349a565b60405161068e9190614e12565b60405180910390f35b3480156106a357600080fd5b506106be60048036038101906106b99190614092565b6134e3565b6040516106cb9190614e12565b60405180910390f35b3480156106e057600080fd5b506106e961352c565b6040516106f69190614e12565b60405180910390f35b34801561070b57600080fd5b50610726600480360381019061072191906140f7565b613536565b6040516107339190614a7f565b60405180910390f35b34801561074857600080fd5b50610763600480360381019061075e9190613ebd565b61355a565b005b34801561077157600080fd5b5061078c60048036038101906107879190613f38565b6135de565b6040516107999190614a7f565b60405180910390f35b600033905090565b6107b2613611565b600081905060008290508073ffffffffffffffffffffffffffffffffffffffff166301ffc9a77f80ac58cd000000000000000000000000000000000000000000000000000000006040518263ffffffff1660e01b81526004016108159190614a9a565b60206040518083038186803b15801561082d57600080fd5b505afa158015610841573d6000803e3d6000fd5b505050506040513d601f19601f820116820180604052508101906108659190614040565b6108a4576040517f08c379a000000000000000000000000000000000000000000000000000000000815260040161089b90614ad7565b60405180910390fd5b8073ffffffffffffffffffffffffffffffffffffffff166301ffc9a77f2a55205a000000000000000000000000000000000000000000000000000000006040518263ffffffff1660e01b81526004016108fd9190614a9a565b60206040518083038186803b15801561091557600080fd5b505afa158015610929573d6000803e3d6000fd5b505050506040513d601f19601f8201168201806040525081019061094d9190614040565b61098c576040517f08c379a000000000000000000000000000000000000000000000000000000000815260040161098390614c37565b60405180910390fd5b3373ffffffffffffffffffffffffffffffffffffffff168273ffffffffffffffffffffffffffffffffffffffff16636352211e876040518263ffffffff1660e01b81526004016109dc9190614e12565b60206040518083038186803b1580156109f457600080fd5b505afa158015610a08573d6000803e3d6000fd5b505050506040513d601f19601f82011682018060405250810190610a2c9190613ee6565b73ffffffffffffffffffffffffffffffffffffffff1614610a82576040517f08c379a0000000000000000000000000000000000000000000000000000000008152600401610a7990614c57565b60405180910390fd5b662386f26fc10000841015610acc576040517f08c379a0000000000000000000000000000000000000000000000000000000008152600401610ac390614c97565b60405180910390fd5b610ad68386611c45565b15610b16576040517f08c379a0000000000000000000000000000000000000000000000000000000008152600401610b0d90614d77565b60405180910390fd5b8173ffffffffffffffffffffffffffffffffffffffff1663e985e9c533306040518363ffffffff1660e01b8152600401610b51929190614997565b60206040518083038186803b158015610b6957600080fd5b505afa158015610b7d573d6000803e3d6000fd5b505050506040513d601f19601f82011682018060405250810190610ba19190614040565b610be0576040517f08c379a0000000000000000000000000000000000000000000000000000000008152600401610bd790614b77565b60405180910390fd5b6000610bec84876135de565b90508273ffffffffffffffffffffffffffffffffffffffff166323b872dd3330896040518463ffffffff1660e01b8152600401610c2b939291906149c0565b600060405180830381600087803b158015610c4557600080fd5b505af1158015610c59573d6000803e3d6000fd5b5050505060405180608001604052808781526020018681526020013373ffffffffffffffffffffffffffffffffffffffff1681526020018573ffffffffffffffffffffffffffffffffffffffff16815250600c6000838152602001908152602001600020600082015181600001556020820151816001015560408201518160020160006101000a81548173ffffffffffffffffffffffffffffffffffffffff021916908373ffffffffffffffffffffffffffffffffffffffff16021790555060608201518160030160006101000a81548173ffffffffffffffffffffffffffffffffffffffff021916908373ffffffffffffffffffffffffffffffffffffffff160217905550905050610d6c600b613661565b600d8190806001815401808255809150506001900390600052602060002001600090919091909150558373ffffffffffffffffffffffffffffffffffffffff163373ffffffffffffffffffffffffffffffffffffffff16877fc65ba3c5b271b28dd9e42873d11ec274c241e89fe348618c03ac562170f754f788604051610df39190614e12565b60405180910390a4505050610e06613677565b505050565b606060008211610e50576040517f08c379a0000000000000000000000000000000000000000000000000000000008152600401610e4790614c77565b60405180910390fd5b6000610e5c600b613680565b905060006064600185610e6f919061514e565b610e7991906150f4565b9050600082606483610e8b919061506d565b11610ea257606482610e9d919061506d565b610ea4565b825b905060008282610eb4919061514e565b67ffffffffffffffff811115610ef3577f4e487b7100000000000000000000000000000000000000000000000000000000600052604160045260246000fd5b604051908082528060200260200182016040528015610f2c57816020015b610f19613cc3565b815260200190600190039081610f115790505b5090506000808490505b83811015611136576000600d8281548110610f7a577f4e487b7100000000000000000000000000000000000000000000000000000000600052603260045260246000fd5b90600052602060002001549050600073ffffffffffffffffffffffffffffffffffffffff16600c600083815260200190815260200160002060020160009054906101000a900473ffffffffffffffffffffffffffffffffffffffff1673ffffffffffffffffffffffffffffffffffffffff161461112257600c600082815260200190815260200160002060405180608001604052908160008201548152602001600182015481526020016002820160009054906101000a900473ffffffffffffffffffffffffffffffffffffffff1673ffffffffffffffffffffffffffffffffffffffff1673ffffffffffffffffffffffffffffffffffffffff1681526020016003820160009054906101000a900473ffffffffffffffffffffffffffffffffffffffff1673ffffffffffffffffffffffffffffffffffffffff1673ffffffffffffffffffffffffffffffffffffffff1681525050848481518110611108577f4e487b7100000000000000000000000000000000000000000000000000000000600052603260045260246000fd5b6020026020010181905250828061111e906152cd565b9350505b50808061112e906152cd565b915050610f36565b5060008167ffffffffffffffff811115611179577f4e487b7100000000000000000000000000000000000000000000000000000000600052604160045260246000fd5b6040519080825280602002602001820160405280156111b257816020015b61119f613cc3565b8152602001906001900390816111975790505b50905060005b82811015611258578381815181106111f9577f4e487b7100000000000000000000000000000000000000000000000000000000600052603260045260246000fd5b602002602001015182828151811061123a577f4e487b7100000000000000000000000000000000000000000000000000000000600052603260045260246000fd5b60200260200101819052508080611250906152cd565b9150506111b8565b50809650505050505050919050565b60606000805b600d8054905081101561134a578573ffffffffffffffffffffffffffffffffffffffff16600c6000600d84815481106112cf577f4e487b7100000000000000000000000000000000000000000000000000000000600052603260045260246000fd5b9060005260206000200154815260200190815260200160002060030160009054906101000a900473ffffffffffffffffffffffffffffffffffffffff1673ffffffffffffffffffffffffffffffffffffffff161415611337578180611333906152cd565b9250505b8080611342906152cd565b91505061126d565b506000838561135991906150f4565b90506000611372858361136c919061506d565b8461368e565b905060008282611382919061514e565b67ffffffffffffffff8111156113c1577f4e487b7100000000000000000000000000000000000000000000000000000000600052604160045260246000fd5b6040519080825280602002602001820160405280156113fa57816020015b6113e7613cc3565b8152602001906001900390816113df5790505b5090506000805b600d805490508110801561141f5750848461141c919061514e565b82105b1561166d578973ffffffffffffffffffffffffffffffffffffffff16600c6000600d8481548110611479577f4e487b7100000000000000000000000000000000000000000000000000000000600052603260045260246000fd5b9060005260206000200154815260200190815260200160002060030160009054906101000a900473ffffffffffffffffffffffffffffffffffffffff1673ffffffffffffffffffffffffffffffffffffffff16141561165a5784821061164b57600c6000600d8381548110611517577f4e487b7100000000000000000000000000000000000000000000000000000000600052603260045260246000fd5b9060005260206000200154815260200190815260200160002060405180608001604052908160008201548152602001600182015481526020016002820160009054906101000a900473ffffffffffffffffffffffffffffffffffffffff1673ffffffffffffffffffffffffffffffffffffffff1673ffffffffffffffffffffffffffffffffffffffff1681526020016003820160009054906101000a900473ffffffffffffffffffffffffffffffffffffffff1673ffffffffffffffffffffffffffffffffffffffff1673ffffffffffffffffffffffffffffffffffffffff1681525050838684611608919061514e565b8151811061163f577f4e487b7100000000000000000000000000000000000000000000000000000000600052603260045260246000fd5b60200260200101819052505b8180611656906152cd565b9250505b8080611665906152cd565b915050611401565b5081955050505050509392505050565b6000600460008373ffffffffffffffffffffffffffffffffffffffff1673ffffffffffffffffffffffffffffffffffffffff16815260200190815260200160002054116116ff576040517f08c379a00000000000000000000000000000000000000000000000000000000081526004016116f690614b97565b60405180910390fd5b600061170a82612811565b90506000811415611750576040517f08c379a000000000000000000000000000000000000000000000000000000000815260040161174790614c17565b60405180910390fd5b8060036000828254611762919061506d565b9250508190555080600560008473ffffffffffffffffffffffffffffffffffffffff1673ffffffffffffffffffffffffffffffffffffffff168152602001908152602001600020600082825401925050819055506117c082826136a7565b7fdf20fd1e76bc69d672e4814fafb2c449bba3a5369d8359adf9e05e6fde87b05682826040516117f192919061496e565b60405180910390a15050565b6000600254905090565b6000600860008473ffffffffffffffffffffffffffffffffffffffff1673ffffffffffffffffffffffffffffffffffffffff16815260200190815260200160002060008373ffffffffffffffffffffffffffffffffffffffff1673ffffffffffffffffffffffffffffffffffffffff16815260200190815260200160002054905092915050565b6000600460008373ffffffffffffffffffffffffffffffffffffffff1673ffffffffffffffffffffffffffffffffffffffff1681526020019081526020016000205411611910576040517f08c379a000000000000000000000000000000000000000000000000000000000815260040161190790614b97565b60405180910390fd5b600061191c8383613164565b90506000811415611962576040517f08c379a000000000000000000000000000000000000000000000000000000000815260040161195990614c17565b60405180910390fd5b80600760008573ffffffffffffffffffffffffffffffffffffffff1673ffffffffffffffffffffffffffffffffffffffff16815260200190815260200160002060008282546119b1919061506d565b9250508190555080600860008573ffffffffffffffffffffffffffffffffffffffff1673ffffffffffffffffffffffffffffffffffffffff16815260200190815260200160002060008473ffffffffffffffffffffffffffffffffffffffff1673ffffffffffffffffffffffffffffffffffffffff16815260200190815260200160002060008282540192505081905550611a4d83838361379b565b8273ffffffffffffffffffffffffffffffffffffffff167f3be5b7a71e84ed12875d241991c70855ac5817d847039e17a9d895c1ceb0f18a8383604051611a959291906149f7565b60405180910390a2505050565b611aaa613cc3565b6000611ab683856135de565b9050600073ffffffffffffffffffffffffffffffffffffffff16600c600083815260200190815260200160002060020160009054906101000a900473ffffffffffffffffffffffffffffffffffffffff1673ffffffffffffffffffffffffffffffffffffffff161415611b5e576040517f08c379a0000000000000000000000000000000000000000000000000000000008152600401611b5590614b57565b60405180910390fd5b600c600082815260200190815260200160002060405180608001604052908160008201548152602001600182015481526020016002820160009054906101000a900473ffffffffffffffffffffffffffffffffffffffff1673ffffffffffffffffffffffffffffffffffffffff1673ffffffffffffffffffffffffffffffffffffffff1681526020016003820160009054906101000a900473ffffffffffffffffffffffffffffffffffffffff1673ffffffffffffffffffffffffffffffffffffffff1673ffffffffffffffffffffffffffffffffffffffff168152505091505092915050565b600080611c5284846135de565b9050600073ffffffffffffffffffffffffffffffffffffffff16600c600083815260200190815260200160002060020160009054906101000a900473ffffffffffffffffffffffffffffffffffffffff1673ffffffffffffffffffffffffffffffffffffffff16141591505092915050565b611ccc613821565b611cd6600061389f565b565b606060008367ffffffffffffffff811115611d1c577f4e487b7100000000000000000000000000000000000000000000000000000000600052604160045260246000fd5b604051908082528060200260200182016040528015611d4a5781602001602082028036833780820191505090505b509050600080600a60009054906101000a900473ffffffffffffffffffffffffffffffffffffffff1673ffffffffffffffffffffffffffffffffffffffff1663d08b28ea8989896040518463ffffffff1660e01b8152600401611daf93929190614f10565b60006040518083038186803b158015611dc757600080fd5b505afa158015611ddb573d6000803e3d6000fd5b505050506040513d6000823e3d601f19601f82011682018060405250810190611e049190613fff565b9050600081511415611e8a57600067ffffffffffffffff811115611e51577f4e487b7100000000000000000000000000000000000000000000000000000000600052604160045260246000fd5b604051908082528060200260200182016040528015611e7f5781602001602082028036833780820191505090505b5093505050506120de565b60005b8151811015611fbd576000828281518110611ed1577f4e487b7100000000000000000000000000000000000000000000000000000000600052603260045260246000fd5b602002602001015190506000611ee788836135de565b9050600073ffffffffffffffffffffffffffffffffffffffff16600c600083815260200190815260200160002060020160009054906101000a900473ffffffffffffffffffffffffffffffffffffffff1673ffffffffffffffffffffffffffffffffffffffff1614611fa85781868681518110611f8d577f4e487b7100000000000000000000000000000000000000000000000000000000600052603260045260246000fd5b6020026020010181815250508480611fa4906152cd565b9550505b50508080611fb5906152cd565b915050611e8d565b5060008267ffffffffffffffff811115612000577f4e487b7100000000000000000000000000000000000000000000000000000000600052604160045260246000fd5b60405190808252806020026020018201604052801561202e5781602001602082028036833780820191505090505b50905060005b838110156120d557848181518110612075577f4e487b7100000000000000000000000000000000000000000000000000000000600052603260045260246000fd5b60200260200101518282815181106120b6577f4e487b7100000000000000000000000000000000000000000000000000000000600052603260045260246000fd5b60200260200101818152505080806120cd906152cd565b915050612034565b50809450505050505b949350505050565b600060068281548110612122577f4e487b7100000000000000000000000000000000000000000000000000000000600052603260045260246000fd5b9060005260206000200160009054906101000a900473ffffffffffffffffffffffffffffffffffffffff169050919050565b60008060009054906101000a900473ffffffffffffffffffffffffffffffffffffffff16905090565b60606000600d80549050905060006121ab84858761219b91906150f4565b846121a6919061514e565b61368e565b67ffffffffffffffff8111156121ea577f4e487b7100000000000000000000000000000000000000000000000000000000600052604160045260246000fd5b60405190808252806020026020018201604052801561222357816020015b612210613cc3565b8152602001906001900390816122085790505b509050600080858761223591906150f4565b90505b838110801561224657508582105b15612431576000600c6000600d848154811061228b577f4e487b7100000000000000000000000000000000000000000000000000000000600052603260045260246000fd5b9060005260206000200154815260200190815260200160002090508873ffffffffffffffffffffffffffffffffffffffff168160020160009054906101000a900473ffffffffffffffffffffffffffffffffffffffff1673ffffffffffffffffffffffffffffffffffffffff16141561241d578060405180608001604052908160008201548152602001600182015481526020016002820160009054906101000a900473ffffffffffffffffffffffffffffffffffffffff1673ffffffffffffffffffffffffffffffffffffffff1673ffffffffffffffffffffffffffffffffffffffff1681526020016003820160009054906101000a900473ffffffffffffffffffffffffffffffffffffffff1673ffffffffffffffffffffffffffffffffffffffff1673ffffffffffffffffffffffffffffffffffffffff1681525050848481518110612403577f4e487b7100000000000000000000000000000000000000000000000000000000600052603260045260246000fd5b60200260200101819052508280612419906152cd565b9350505b508080612429906152cd565b915050612238565b508193505050509392505050565b6000600560008373ffffffffffffffffffffffffffffffffffffffff1673ffffffffffffffffffffffffffffffffffffffff168152602001908152602001600020549050919050565b612490613611565b600061249c83836135de565b90506000600c600083815260200190815260200160002090503373ffffffffffffffffffffffffffffffffffffffff168160020160009054906101000a900473ffffffffffffffffffffffffffffffffffffffff1673ffffffffffffffffffffffffffffffffffffffff1614612547576040517f08c379a000000000000000000000000000000000000000000000000000000000815260040161253e90614c57565b60405180910390fd5b60008160030160009054906101000a900473ffffffffffffffffffffffffffffffffffffffff169050600c600084815260200190815260200160002060008082016000905560018201600090556002820160006101000a81549073ffffffffffffffffffffffffffffffffffffffff02191690556003820160006101000a81549073ffffffffffffffffffffffffffffffffffffffff021916905550508073ffffffffffffffffffffffffffffffffffffffff166323b872dd3033876040518463ffffffff1660e01b8152600401612621939291906149c0565b600060405180830381600087803b15801561263b57600080fd5b505af115801561264f573d6000803e3d6000fd5b5050505061265d600b613963565b60005b600d805490508110156127bd5783600d82815481106126a8577f4e487b7100000000000000000000000000000000000000000000000000000000600052603260045260246000fd5b906000526020600020015414156127aa57600d6001600d805490506126cd919061514e565b81548110612704577f4e487b7100000000000000000000000000000000000000000000000000000000600052603260045260246000fd5b9060005260206000200154600d8281548110612749577f4e487b7100000000000000000000000000000000000000000000000000000000600052603260045260246000fd5b9060005260206000200181905550600d80548061278f577f4e487b7100000000000000000000000000000000000000000000000000000000600052603160045260246000fd5b600190038181906000526020600020016000905590556127bd565b80806127b5906152cd565b915050612660565b508473ffffffffffffffffffffffffffffffffffffffff16847fef1499b350e05776e60cd2ffcac001569a28e9d574e1f3adc1b3ab264f8ccffd60405160405180910390a350505061280d613677565b5050565b60008061281c61352c565b47612827919061506d565b905061283c83826128378661243f565b6139bf565b915050919050565b61284c613611565b600061285883836135de565b90506000600c60008381526020019081526020016000209050806001015434146128b7576040517f08c379a00000000000000000000000000000000000000000000000000000000081526004016128ae90614cf7565b60405180910390fd5b3373ffffffffffffffffffffffffffffffffffffffff168160020160009054906101000a900473ffffffffffffffffffffffffffffffffffffffff1673ffffffffffffffffffffffffffffffffffffffff16141561294a576040517f08c379a000000000000000000000000000000000000000000000000000000000815260040161294190614cb7565b60405180910390fd5b60008490508073ffffffffffffffffffffffffffffffffffffffff166301ffc9a77f80ac58cd000000000000000000000000000000000000000000000000000000006040518263ffffffff1660e01b81526004016129a89190614a9a565b60206040518083038186803b1580156129c057600080fd5b505afa1580156129d4573d6000803e3d6000fd5b505050506040513d601f19601f820116820180604052508101906129f89190614040565b612a37576040517f08c379a0000000000000000000000000000000000000000000000000000000008152600401612a2e90614ad7565b60405180910390fd5b8073ffffffffffffffffffffffffffffffffffffffff166301ffc9a77f2a55205a000000000000000000000000000000000000000000000000000000006040518263ffffffff1660e01b8152600401612a909190614a9a565b60206040518083038186803b158015612aa857600080fd5b505afa158015612abc573d6000803e3d6000fd5b505050506040513d601f19601f82011682018060405250810190612ae09190614040565b612b1f576040517f08c379a0000000000000000000000000000000000000000000000000000000008152600401612b1690614c37565b60405180910390fd5b600085905060008690506000808373ffffffffffffffffffffffffffffffffffffffff16632a55205a876000015488600101546040518363ffffffff1660e01b8152600401612b6f929190614ea2565b604080518083038186803b158015612b8657600080fd5b505afa158015612b9a573d6000803e3d6000fd5b505050506040513d601f19601f82011682018060405250810190612bbe9190613f74565b91509150600060646009548860010154612bd891906150f4565b612be291906150c3565b90508181612bf0919061506d565b876001015411612c35576040517f08c379a0000000000000000000000000000000000000000000000000000000008152600401612c2c90614cd7565b60405180910390fd5b60008183612c43919061506d565b8860010154612c52919061514e565b905060008860020160009054906101000a900473ffffffffffffffffffffffffffffffffffffffff1673ffffffffffffffffffffffffffffffffffffffff1682604051612c9e9061493e565b60006040518083038185875af1925050503d8060008114612cdb576040519150601f19603f3d011682016040523d82523d6000602084013e612ce0565b606091505b5050905080612d24576040517f08c379a0000000000000000000000000000000000000000000000000000000008152600401612d1b90614d57565b60405180910390fd5b60008573ffffffffffffffffffffffffffffffffffffffff1685604051612d4a9061493e565b60006040518083038185875af1925050503d8060008114612d87576040519150601f19603f3d011682016040523d82523d6000602084013e612d8c565b606091505b5050905080612dd0576040517f08c379a0000000000000000000000000000000000000000000000000000000008152600401612dc790614af7565b60405180910390fd5b600c60008c815260200190815260200160002060008082016000905560018201600090556002820160006101000a81549073ffffffffffffffffffffffffffffffffffffffff02191690556003820160006101000a81549073ffffffffffffffffffffffffffffffffffffffff021916905550508673ffffffffffffffffffffffffffffffffffffffff166323b872dd30338f6040518463ffffffff1660e01b8152600401612e81939291906149c0565b600060405180830381600087803b158015612e9b57600080fd5b505af1158015612eaf573d6000803e3d6000fd5b50505050612ebd600b613963565b60005b600d8054905081101561301d578b600d8281548110612f08577f4e487b7100000000000000000000000000000000000000000000000000000000600052603260045260246000fd5b9060005260206000200154141561300a57600d6001600d80549050612f2d919061514e565b81548110612f64577f4e487b7100000000000000000000000000000000000000000000000000000000600052603260045260246000fd5b9060005260206000200154600d8281548110612fa9577f4e487b7100000000000000000000000000000000000000000000000000000000600052603260045260246000fd5b9060005260206000200181905550600d805480612fef577f4e487b7100000000000000000000000000000000000000000000000000000000600052603160045260246000fd5b6001900381819060005260206000200160009055905561301d565b8080613015906152cd565b915050612ec0565b503373ffffffffffffffffffffffffffffffffffffffff168a60020160009054906101000a900473ffffffffffffffffffffffffffffffffffffffff1673ffffffffffffffffffffffffffffffffffffffff168d7f4d26e6707cfb0dd9d0e2aaaf04de4b0b4a388a1c760ed3b2976827015153a39e8d600101548e60030160009054906101000a900473ffffffffffffffffffffffffffffffffffffffff166040516130ca929190614e2d565b60405180910390a450505050505050505050506130e5613677565b5050565b662386f26fc1000081565b600c6020528060005260406000206000915090508060000154908060010154908060020160009054906101000a900473ffffffffffffffffffffffffffffffffffffffff16908060030160009054906101000a900473ffffffffffffffffffffffffffffffffffffffff16905084565b600080613170846134e3565b8473ffffffffffffffffffffffffffffffffffffffff166370a08231306040518263ffffffff1660e01b81526004016131a99190614953565b60206040518083038186803b1580156131c157600080fd5b505afa1580156131d5573d6000803e3d6000fd5b505050506040513d601f19601f820116820180604052508101906131f99190614120565b613203919061506d565b905061321983826132148787611807565b6139bf565b91505092915050565b61322a613611565b600060646009543461323c91906150f4565b61324691906150c3565b905080341161328a576040517f08c379a000000000000000000000000000000000000000000000000000000000815260040161328190614cd7565b60405180910390fd5b600080600a60009054906101000a900473ffffffffffffffffffffffffffffffffffffffff1673ffffffffffffffffffffffffffffffffffffffff16636313a3e8863387346040518563ffffffff1660e01b81526004016132ee9493929190614e56565b6040805180830381600087803b15801561330757600080fd5b505af115801561331b573d6000803e3d6000fd5b505050506040513d601f19601f8201168201806040525081019061333f9190614185565b9150915060008334613351919061514e565b905060008273ffffffffffffffffffffffffffffffffffffffff16826040516133799061493e565b60006040518083038185875af1925050503d80600081146133b6576040519150601f19603f3d011682016040523d82523d6000602084013e6133bb565b606091505b50509050806133ff576040517f08c379a00000000000000000000000000000000000000000000000000000000081526004016133f690614d17565b60405180910390fd5b3373ffffffffffffffffffffffffffffffffffffffff168373ffffffffffffffffffffffffffffffffffffffff16857f4d26e6707cfb0dd9d0e2aaaf04de4b0b4a388a1c760ed3b2976827015153a39e34600a60009054906101000a900473ffffffffffffffffffffffffffffffffffffffff16604051613481929190614e2d565b60405180910390a45050505050613496613677565b5050565b6000600460008373ffffffffffffffffffffffffffffffffffffffff1673ffffffffffffffffffffffffffffffffffffffff168152602001908152602001600020549050919050565b6000600760008373ffffffffffffffffffffffffffffffffffffffff1673ffffffffffffffffffffffffffffffffffffffff168152602001908152602001600020549050919050565b6000600354905090565b600d818154811061354657600080fd5b906000526020600020016000915090505481565b613562613821565b600073ffffffffffffffffffffffffffffffffffffffff168173ffffffffffffffffffffffffffffffffffffffff1614156135d2576040517f08c379a00000000000000000000000000000000000000000000000000000000081526004016135c990614b37565b60405180910390fd5b6135db8161389f565b50565b600082826040516020016135f39291906148fb565b60405160208183030381529060405280519060200120905092915050565b60026001541415613657576040517f08c379a000000000000000000000000000000000000000000000000000000000815260040161364e90614dd7565b60405180910390fd5b6002600181905550565b6001816000016000828254019250508190555050565b60018081905550565b600081600001549050919050565b600081831061369d578161369f565b825b905092915050565b804710156136ea576040517f08c379a00000000000000000000000000000000000000000000000000000000081526004016136e190614bd7565b60405180910390fd5b60008273ffffffffffffffffffffffffffffffffffffffff16826040516137109061493e565b60006040518083038185875af1925050503d806000811461374d576040519150601f19603f3d011682016040523d82523d6000602084013e613752565b606091505b5050905080613796576040517f08c379a000000000000000000000000000000000000000000000000000000000815260040161378d90614bb7565b60405180910390fd5b505050565b61381c8363a9059cbb60e01b84846040516024016137ba9291906149f7565b604051602081830303815290604052907bffffffffffffffffffffffffffffffffffffffffffffffffffffffff19166020820180517bffffffffffffffffffffffffffffffffffffffffffffffffffffffff8381831617835250505050613a2d565b505050565b6138296107a2565b73ffffffffffffffffffffffffffffffffffffffff16613847612154565b73ffffffffffffffffffffffffffffffffffffffff161461389d576040517f08c379a000000000000000000000000000000000000000000000000000000000815260040161389490614d37565b60405180910390fd5b565b60008060009054906101000a900473ffffffffffffffffffffffffffffffffffffffff169050816000806101000a81548173ffffffffffffffffffffffffffffffffffffffff021916908373ffffffffffffffffffffffffffffffffffffffff1602179055508173ffffffffffffffffffffffffffffffffffffffff168173ffffffffffffffffffffffffffffffffffffffff167f8be0079c531659141344cd1fd0a4f28419497f9722a3daafe3b4186f6b6457e060405160405180910390a35050565b600081600001549050600081116139af576040517f08c379a00000000000000000000000000000000000000000000000000000000081526004016139a690614b17565b60405180910390fd5b6001810382600001819055505050565b600081600254600460008773ffffffffffffffffffffffffffffffffffffffff1673ffffffffffffffffffffffffffffffffffffffff1681526020019081526020016000205485613a1091906150f4565b613a1a91906150c3565b613a24919061514e565b90509392505050565b6000613a8f826040518060400160405280602081526020017f5361666545524332303a206c6f772d6c6576656c2063616c6c206661696c65648152508573ffffffffffffffffffffffffffffffffffffffff16613af59092919063ffffffff16565b9050600081511480613ab1575080806020019051810190613ab09190614040565b5b613af0576040517f08c379a0000000000000000000000000000000000000000000000000000000008152600401613ae790614db7565b60405180910390fd5b505050565b6060613b048484600085613b0d565b90509392505050565b606082471015613b52576040517f08c379a0000000000000000000000000000000000000000000000000000000008152600401613b4990614bf7565b60405180910390fd5b6000808673ffffffffffffffffffffffffffffffffffffffff168587604051613b7b9190614927565b60006040518083038185875af1925050503d8060008114613bb8576040519150601f19603f3d011682016040523d82523d6000602084013e613bbd565b606091505b5091509150613bce87838387613bda565b92505050949350505050565b60608315613c3d57600083511415613c3557613bf585613c50565b613c34576040517f08c379a0000000000000000000000000000000000000000000000000000000008152600401613c2b90614d97565b60405180910390fd5b5b829050613c48565b613c478383613c73565b5b949350505050565b6000808273ffffffffffffffffffffffffffffffffffffffff163b119050919050565b600082511115613c865781518083602001fd5b806040517f08c379a0000000000000000000000000000000000000000000000000000000008152600401613cba9190614ab5565b60405180910390fd5b60405180608001604052806000815260200160008152602001600073ffffffffffffffffffffffffffffffffffffffff168152602001600073ffffffffffffffffffffffffffffffffffffffff1681525090565b6000613d2a613d2584614f6c565b614f47565b90508083825260208201905082856020860282011115613d4957600080fd5b60005b85811015613d795781613d5f8882613ea8565b845260208401935060208301925050600181019050613d4c565b5050509392505050565b6000613d96613d9184614f98565b614f47565b905082815260208101848484011115613dae57600080fd5b613db984828561525a565b509392505050565b600081359050613dd081615a53565b92915050565b600081519050613de581615a53565b92915050565b600081359050613dfa81615a6a565b92915050565b600082601f830112613e1157600080fd5b8151613e21848260208601613d17565b91505092915050565b600081519050613e3981615a81565b92915050565b600081359050613e4e81615a98565b92915050565b600081359050613e6381615aaf565b92915050565b600082601f830112613e7a57600080fd5b8135613e8a848260208601613d83565b91505092915050565b600081359050613ea281615ac6565b92915050565b600081519050613eb781615ac6565b92915050565b600060208284031215613ecf57600080fd5b6000613edd84828501613dc1565b91505092915050565b600060208284031215613ef857600080fd5b6000613f0684828501613dd6565b91505092915050565b600060208284031215613f2157600080fd5b6000613f2f84828501613deb565b91505092915050565b60008060408385031215613f4b57600080fd5b6000613f5985828601613dc1565b9250506020613f6a85828601613e93565b9150509250929050565b60008060408385031215613f8757600080fd5b6000613f9585828601613dd6565b9250506020613fa685828601613ea8565b9150509250929050565b600080600060608486031215613fc557600080fd5b6000613fd386828701613dc1565b9350506020613fe486828701613e93565b9250506040613ff586828701613e93565b9150509250925092565b60006020828403121561401157600080fd5b600082015167ffffffffffffffff81111561402b57600080fd5b61403784828501613e00565b91505092915050565b60006020828403121561405257600080fd5b600061406084828501613e2a565b91505092915050565b60006020828403121561407b57600080fd5b600061408984828501613e3f565b91505092915050565b6000602082840312156140a457600080fd5b60006140b284828501613e54565b91505092915050565b600080604083850312156140ce57600080fd5b60006140dc85828601613e54565b92505060206140ed85828601613dc1565b9150509250929050565b60006020828403121561410957600080fd5b600061411784828501613e93565b91505092915050565b60006020828403121561413257600080fd5b600061414084828501613ea8565b91505092915050565b6000806040838503121561415c57600080fd5b600061416a85828601613e93565b925050602061417b85828601613dc1565b9150509250929050565b6000806040838503121561419857600080fd5b60006141a685828601613ea8565b92505060206141b785828601613dd6565b9150509250929050565b600080604083850312156141d457600080fd5b60006141e285828601613e93565b925050602083013567ffffffffffffffff8111156141ff57600080fd5b61420b85828601613e69565b9150509250929050565b60008060006060848603121561422a57600080fd5b600061423886828701613e93565b935050602061424986828701613e93565b925050604061425a86828701613dc1565b9150509250925092565b6000806000806080858703121561427a57600080fd5b600061428887828801613e93565b945050602061429987828801613e93565b93505060406142aa87828801613e93565b92505060606142bb87828801613dc1565b91505092959194509250565b60006142d3838361481c565b60808301905092915050565b60006142eb83836148c6565b60208301905092915050565b61430081615224565b82525050565b61430f81615182565b82525050565b61431e81615182565b82525050565b61433561433082615182565b615316565b82525050565b600061434682614fe9565b614350818561502f565b935061435b83614fc9565b8060005b8381101561438c57815161437388826142c7565b975061437e83615015565b92505060018101905061435f565b5085935050505092915050565b60006143a482614ff4565b6143ae8185615040565b93506143b983614fd9565b8060005b838110156143ea5781516143d188826142df565b97506143dc83615022565b9250506001810190506143bd565b5085935050505092915050565b614400816151a6565b82525050565b61440f816151b2565b82525050565b61441e816151bc565b82525050565b600061442f82614fff565b6144398185615051565b9350614449818560208601615269565b80840191505092915050565b60006144608261500a565b61446a818561505c565b935061447a818560208601615269565b614483816153d1565b840191505092915050565b600061449b60368361505c565b91506144a6826153ef565b604082019050919050565b60006144be602b8361505c565b91506144c98261543e565b604082019050919050565b60006144e1601b8361505c565b91506144ec8261548d565b602082019050919050565b600061450460268361505c565b915061450f826154b6565b604082019050919050565b600061452760308361505c565b915061453282615505565b604082019050919050565b600061454a602d8361505c565b915061455582615554565b604082019050919050565b600061456d60268361505c565b9150614578826155a3565b604082019050919050565b6000614590603a8361505c565b915061459b826155f2565b604082019050919050565b60006145b3601d8361505c565b91506145be82615641565b602082019050919050565b60006145d660268361505c565b91506145e18261566a565b604082019050919050565b60006145f9602b8361505c565b9150614604826156b9565b604082019050919050565b600061461c60378361505c565b915061462782615708565b604082019050919050565b600061463f60168361505c565b915061464a82615757565b602082019050919050565b600061466260248361505c565b915061466d82615780565b604082019050919050565b600061468560248361505c565b9150614690826157cf565b604082019050919050565b60006146a8601e8361505c565b91506146b38261581e565b602082019050919050565b60006146cb602b8361505c565b91506146d682615847565b604082019050919050565b60006146ee60278361505c565b91506146f982615896565b604082019050919050565b600061471160248361505c565b915061471c826158e5565b604082019050919050565b600061473460208361505c565b915061473f82615934565b602082019050919050565b6000614757601d8361505c565b91506147628261595d565b602082019050919050565b600061477a60178361505c565b915061478582615986565b602082019050919050565b600061479d600083615051565b91506147a8826159af565b600082019050919050565b60006147c0601d8361505c565b91506147cb826159b2565b602082019050919050565b60006147e3602a8361505c565b91506147ee826159db565b604082019050919050565b6000614806601f8361505c565b915061481182615a2a565b602082019050919050565b60808201600082015161483260008501826148c6565b50602082015161484560208501826148c6565b5060408201516148586040850182614306565b50606082015161486b6060850182614306565b50505050565b60808201600082015161488760008501826148c6565b50602082015161489a60208501826148c6565b5060408201516148ad6040850182614306565b5060608201516148c06060850182614306565b50505050565b6148cf8161521a565b82525050565b6148de8161521a565b82525050565b6148f56148f08261521a565b61533a565b82525050565b60006149078285614324565b60148201915061491782846148e4565b6020820191508190509392505050565b60006149338284614424565b915081905092915050565b600061494982614790565b9150819050919050565b60006020820190506149686000830184614315565b92915050565b600060408201905061498360008301856142f7565b61499060208301846148d5565b9392505050565b60006040820190506149ac6000830185614315565b6149b96020830184614315565b9392505050565b60006060820190506149d56000830186614315565b6149e26020830185614315565b6149ef60408301846148d5565b949350505050565b6000604082019050614a0c6000830185614315565b614a1960208301846148d5565b9392505050565b60006020820190508181036000830152614a3a818461433b565b905092915050565b60006020820190508181036000830152614a5c8184614399565b905092915050565b6000602082019050614a7960008301846143f7565b92915050565b6000602082019050614a946000830184614406565b92915050565b6000602082019050614aaf6000830184614415565b92915050565b60006020820190508181036000830152614acf8184614455565b905092915050565b60006020820190508181036000830152614af08161448e565b9050919050565b60006020820190508181036000830152614b10816144b1565b9050919050565b60006020820190508181036000830152614b30816144d4565b9050919050565b60006020820190508181036000830152614b50816144f7565b9050919050565b60006020820190508181036000830152614b708161451a565b9050919050565b60006020820190508181036000830152614b908161453d565b9050919050565b60006020820190508181036000830152614bb081614560565b9050919050565b60006020820190508181036000830152614bd081614583565b9050919050565b60006020820190508181036000830152614bf0816145a6565b9050919050565b60006020820190508181036000830152614c10816145c9565b9050919050565b60006020820190508181036000830152614c30816145ec565b9050919050565b60006020820190508181036000830152614c508161460f565b9050919050565b60006020820190508181036000830152614c7081614632565b9050919050565b60006020820190508181036000830152614c9081614655565b9050919050565b60006020820190508181036000830152614cb081614678565b9050919050565b60006020820190508181036000830152614cd08161469b565b9050919050565b60006020820190508181036000830152614cf0816146be565b9050919050565b60006020820190508181036000830152614d10816146e1565b9050919050565b60006020820190508181036000830152614d3081614704565b9050919050565b60006020820190508181036000830152614d5081614727565b9050919050565b60006020820190508181036000830152614d708161474a565b9050919050565b60006020820190508181036000830152614d908161476d565b9050919050565b60006020820190508181036000830152614db0816147b3565b9050919050565b60006020820190508181036000830152614dd0816147d6565b9050919050565b60006020820190508181036000830152614df0816147f9565b9050919050565b6000608082019050614e0c6000830184614871565b92915050565b6000602082019050614e2760008301846148d5565b92915050565b6000604082019050614e4260008301856148d5565b614e4f6020830184614315565b9392505050565b6000608082019050614e6b60008301876148d5565b614e786020830186614315565b8181036040830152614e8a8185614455565b9050614e9960608301846148d5565b95945050505050565b6000604082019050614eb760008301856148d5565b614ec460208301846148d5565b9392505050565b6000608082019050614ee060008301876148d5565b614eed60208301866148d5565b614efa6040830185614315565b614f076060830184614315565b95945050505050565b6000606082019050614f2560008301866148d5565b614f3260208301856148d5565b614f3f60408301846148d5565b949350505050565b6000614f51614f62565b9050614f5d828261529c565b919050565b6000604051905090565b600067ffffffffffffffff821115614f8757614f866153a2565b5b602082029050602081019050919050565b600067ffffffffffffffff821115614fb357614fb26153a2565b5b614fbc826153d1565b9050602081019050919050565b6000819050602082019050919050565b6000819050602082019050919050565b600081519050919050565b600081519050919050565b600081519050919050565b600081519050919050565b6000602082019050919050565b6000602082019050919050565b600082825260208201905092915050565b600082825260208201905092915050565b600081905092915050565b600082825260208201905092915050565b60006150788261521a565b91506150838361521a565b9250827fffffffffffffffffffffffffffffffffffffffffffffffffffffffffffffffff038211156150b8576150b7615344565b5b828201905092915050565b60006150ce8261521a565b91506150d98361521a565b9250826150e9576150e8615373565b5b828204905092915050565b60006150ff8261521a565b915061510a8361521a565b9250817fffffffffffffffffffffffffffffffffffffffffffffffffffffffffffffffff048311821515161561514357615142615344565b5b828202905092915050565b60006151598261521a565b91506151648361521a565b92508282101561517757615176615344565b5b828203905092915050565b600061518d826151fa565b9050919050565b600061519f826151fa565b9050919050565b60008115159050919050565b6000819050919050565b60007fffffffff0000000000000000000000000000000000000000000000000000000082169050919050565b60006151f382615182565b9050919050565b600073ffffffffffffffffffffffffffffffffffffffff82169050919050565b6000819050919050565b600061522f82615236565b9050919050565b600061524182615248565b9050919050565b6000615253826151fa565b9050919050565b82818337600083830152505050565b60005b8381101561528757808201518184015260208101905061526c565b83811115615296576000848401525b50505050565b6152a5826153d1565b810181811067ffffffffffffffff821117156152c4576152c36153a2565b5b80604052505050565b60006152d88261521a565b91507fffffffffffffffffffffffffffffffffffffffffffffffffffffffffffffffff82141561530b5761530a615344565b5b600182019050919050565b600061532182615328565b9050919050565b6000615333826153e2565b9050919050565b6000819050919050565b7f4e487b7100000000000000000000000000000000000000000000000000000000600052601160045260246000fd5b7f4e487b7100000000000000000000000000000000000000000000000000000000600052601260045260246000fd5b7f4e487b7100000000000000000000000000000000000000000000000000000000600052604160045260246000fd5b6000601f19601f8301169050919050565b60008160601b9050919050565b7f546865204e465420636f6e747261637420646f6573206e6f7420737570706f7260008201527f74207468652045524337323120696e7465726661636500000000000000000000602082015250565b7f5472616e73666572206f6620726f79616c747920746f2074686520726563656960008201527f766572206661696c65642e000000000000000000000000000000000000000000602082015250565b7f436f756e7465723a2064656372656d656e74206f766572666c6f770000000000600082015250565b7f4f776e61626c653a206e6577206f776e657220697320746865207a65726f206160008201527f6464726573730000000000000000000000000000000000000000000000000000602082015250565b7f4e6f206c697374696e6720666f756e6420666f72207468697320746f6b656e4960008201527f6420616e64206e66744164647265737300000000000000000000000000000000602082015250565b7f4d61726b6574706c616365206e6f7420617070726f76656420746f207472616e60008201527f736665722074686973204e465400000000000000000000000000000000000000602082015250565b7f5061796d656e7453706c69747465723a206163636f756e7420686173206e6f2060008201527f7368617265730000000000000000000000000000000000000000000000000000602082015250565b7f416464726573733a20756e61626c6520746f2073656e642076616c75652c207260008201527f6563697069656e74206d61792068617665207265766572746564000000000000602082015250565b7f416464726573733a20696e73756666696369656e742062616c616e6365000000600082015250565b7f416464726573733a20696e73756666696369656e742062616c616e636520666f60008201527f722063616c6c0000000000000000000000000000000000000000000000000000602082015250565b7f5061796d656e7453706c69747465723a206163636f756e74206973206e6f742060008201527f647565207061796d656e74000000000000000000000000000000000000000000602082015250565b7f546865204e465420636f6e747261637420646f6573206e6f7420737570706f7260008201527f7420746865204552433239383120696e74657266616365000000000000000000602082015250565b7f596f7520646f6e2774206f776e2074686973204e465400000000000000000000600082015250565b7f50616765206e756d6265722073686f756c64206265206772656174657220746860008201527f616e203000000000000000000000000000000000000000000000000000000000602082015250565b7f5072696365206d7573742062652067726561746572207468616e204d494e5f5060008201527f5249434500000000000000000000000000000000000000000000000000000000602082015250565b7f4f776e65722063616e6e6f7420627579207468656972206f776e204e46540000600082015250565b7f50726963652073686f756c6420626520686967686572207468616e20746f746160008201527f6c20726f79616c74696573000000000000000000000000000000000000000000602082015250565b7f53656e742076616c756520646f6573206e6f74206d6174636820746865204e4660008201527f5420707269636500000000000000000000000000000000000000000000000000602082015250565b7f5472616e7366657220746f20436f6c6c656374696f6e206f776e65722066616960008201527f6c65642e00000000000000000000000000000000000000000000000000000000602082015250565b7f4f776e61626c653a2063616c6c6572206973206e6f7420746865206f776e6572600082015250565b7f5472616e7366657220746f204e4654206f776e6572206661696c65642e000000600082015250565b7f546f6b656e20697320616c7265616479206c6973746564000000000000000000600082015250565b50565b7f416464726573733a2063616c6c20746f206e6f6e2d636f6e7472616374000000600082015250565b7f5361666545524332303a204552433230206f7065726174696f6e20646964206e60008201527f6f74207375636365656400000000000000000000000000000000000000000000602082015250565b7f5265656e7472616e637947756172643a207265656e7472616e742063616c6c00600082015250565b615a5c81615182565b8114615a6757600080fd5b50565b615a7381615194565b8114615a7e57600080fd5b50565b615a8a816151a6565b8114615a9557600080fd5b50565b615aa1816151b2565b8114615aac57600080fd5b50565b615ab8816151e8565b8114615ac357600080fd5b50565b615acf8161521a565b8114615ada57600080fd5b5056fea26469706673582212204f3dcbe1bb86b957dc05ac5a764d43fd4e7cf25d5ebc06f07058242e2b862a5d64736f6c63430008010033",
  "linkReferences": {},
  "deployedLinkReferences": {}
}