{
  "_format": "hh-sol-artifact-1",
  "contractName": "NFTMarketplace",
  "sourceName": "contracts/NFTMarketplace.sol",
  "abi": [
    {
      "inputs": [
        {
          "internalType": "address",
          "name": "nftContractAddress",
          "type": "address"
        },
        {
          "internalType": "address[]",
          "name": "payees",
          "type": "address[]"
        },
        {
          "internalType": "uint256[]",
          "name": "shares",
          "type": "uint256[]"
        },
        {
          "internalType": "uint256",
          "name": "royalties",
          "type": "uint256"
        }
      ],
      "stateMutability": "nonpayable",
      "type": "constructor"
    },
    {
      "anonymous": false,
      "inputs": [
        {
          "indexed": true,
          "internalType": "contract IERC20",
          "name": "token",
          "type": "address"
        },
        {
          "indexed": false,
          "internalType": "address",
          "name": "to",
          "type": "address"
        },
        {
          "indexed": false,
          "internalType": "uint256",
          "name": "amount",
          "type": "uint256"
        }
      ],
      "name": "ERC20PaymentReleased",
      "type": "event"
    },
    {
      "anonymous": false,
      "inputs": [
        {
          "indexed": false,
          "internalType": "uint256",
          "name": "requestId",
          "type": "uint256"
        },
        {
          "indexed": false,
          "internalType": "uint256",
          "name": "tokenId",
          "type": "uint256"
        }
      ],
      "name": "MintRequestApproved",
      "type": "event"
    },
    {
      "anonymous": false,
      "inputs": [
        {
          "indexed": true,
          "internalType": "uint256",
          "name": "tokenId",
          "type": "uint256"
        }
      ],
      "name": "NFTBought",
      "type": "event"
    },
    {
      "anonymous": false,
      "inputs": [
        {
          "indexed": true,
          "internalType": "uint256",
          "name": "tokenId",
          "type": "uint256"
        }
      ],
      "name": "NFTDelisted",
      "type": "event"
    },
    {
      "anonymous": false,
      "inputs": [
        {
          "indexed": true,
          "internalType": "uint256",
          "name": "tokenId",
          "type": "uint256"
        }
      ],
      "name": "NFTListed",
      "type": "event"
    },
    {
      "anonymous": false,
      "inputs": [
        {
          "indexed": true,
          "internalType": "address",
          "name": "previousOwner",
          "type": "address"
        },
        {
          "indexed": true,
          "internalType": "address",
          "name": "newOwner",
          "type": "address"
        }
      ],
      "name": "OwnershipTransferred",
      "type": "event"
    },
    {
      "anonymous": false,
      "inputs": [
        {
          "indexed": false,
          "internalType": "address",
          "name": "account",
          "type": "address"
        },
        {
          "indexed": false,
          "internalType": "uint256",
          "name": "shares",
          "type": "uint256"
        }
      ],
      "name": "PayeeAdded",
      "type": "event"
    },
    {
      "anonymous": false,
      "inputs": [
        {
          "indexed": false,
          "internalType": "address",
          "name": "from",
          "type": "address"
        },
        {
          "indexed": false,
          "internalType": "uint256",
          "name": "amount",
          "type": "uint256"
        }
      ],
      "name": "PaymentReceived",
      "type": "event"
    },
    {
      "anonymous": false,
      "inputs": [
        {
          "indexed": false,
          "internalType": "address",
          "name": "to",
          "type": "address"
        },
        {
          "indexed": false,
          "internalType": "uint256",
          "name": "amount",
          "type": "uint256"
        }
      ],
      "name": "PaymentReleased",
      "type": "event"
    },
    {
      "anonymous": false,
      "inputs": [
        {
          "indexed": true,
          "internalType": "uint256",
          "name": "requestId",
          "type": "uint256"
        },
        {
          "indexed": false,
          "internalType": "address",
          "name": "buyer",
          "type": "address"
        },
        {
          "indexed": false,
          "internalType": "string",
          "name": "tokenURI",
          "type": "string"
        },
        {
          "indexed": false,
          "internalType": "uint256",
          "name": "price",
          "type": "uint256"
        }
      ],
      "name": "TokenMintRequest",
      "type": "event"
    },
    {
      "inputs": [],
      "name": "MAX_PRICE",
      "outputs": [
        {
          "internalType": "uint256",
          "name": "",
          "type": "uint256"
        }
      ],
      "stateMutability": "view",
      "type": "function"
    },
    {
      "inputs": [],
      "name": "MIN_PRICE",
      "outputs": [
        {
          "internalType": "uint256",
          "name": "",
          "type": "uint256"
        }
      ],
      "stateMutability": "view",
      "type": "function"
    },
    {
      "inputs": [
        {
          "internalType": "uint256",
          "name": "requestId",
          "type": "uint256"
        }
      ],
      "name": "approveMintRequest",
      "outputs": [],
      "stateMutability": "nonpayable",
      "type": "function"
    },
    {
      "inputs": [
        {
          "internalType": "uint256",
          "name": "tokenId",
          "type": "uint256"
        },
        {
          "internalType": "uint256",
          "name": "collectionId",
          "type": "uint256"
        },
        {
          "internalType": "string",
          "name": "tokenURI",
          "type": "string"
        }
      ],
      "name": "buyNFT",
      "outputs": [],
      "stateMutability": "payable",
      "type": "function"
    },
    {
      "inputs": [
        {
          "internalType": "uint256",
          "name": "tokenId",
          "type": "uint256"
        }
      ],
      "name": "delistNFT",
      "outputs": [],
      "stateMutability": "nonpayable",
      "type": "function"
    },
    {
      "inputs": [
        {
          "internalType": "uint256",
          "name": "tokenId",
          "type": "uint256"
        }
      ],
      "name": "isTokenListed",
      "outputs": [
        {
          "internalType": "bool",
          "name": "",
          "type": "bool"
        }
      ],
      "stateMutability": "view",
      "type": "function"
    },
    {
      "inputs": [
        {
          "internalType": "uint256",
          "name": "tokenId",
          "type": "uint256"
        },
        {
          "internalType": "uint256",
          "name": "newPrice",
          "type": "uint256"
        }
      ],
      "name": "listNFT",
      "outputs": [],
      "stateMutability": "nonpayable",
      "type": "function"
    },
    {
      "inputs": [],
      "name": "mintRequestIdTracker",
      "outputs": [
        {
          "internalType": "uint256",
          "name": "",
          "type": "uint256"
        }
      ],
      "stateMutability": "view",
      "type": "function"
    },
    {
      "inputs": [
        {
          "internalType": "uint256",
          "name": "",
          "type": "uint256"
        }
      ],
      "name": "mintRequests",
      "outputs": [
        {
          "internalType": "uint256",
          "name": "collectionId",
          "type": "uint256"
        },
        {
          "internalType": "string",
          "name": "tokenURI",
          "type": "string"
        },
        {
          "internalType": "uint256",
          "name": "price",
          "type": "uint256"
        },
        {
          "internalType": "address",
          "name": "buyer",
          "type": "address"
        },
        {
          "internalType": "bool",
          "name": "approved",
          "type": "bool"
        }
      ],
      "stateMutability": "view",
      "type": "function"
    },
    {
      "inputs": [],
      "name": "owner",
      "outputs": [
        {
          "internalType": "address",
          "name": "",
          "type": "address"
        }
      ],
      "stateMutability": "view",
      "type": "function"
    },
    {
      "inputs": [
        {
          "internalType": "uint256",
          "name": "index",
          "type": "uint256"
        }
      ],
      "name": "payee",
      "outputs": [
        {
          "internalType": "address",
          "name": "",
          "type": "address"
        }
      ],
      "stateMutability": "view",
      "type": "function"
    },
    {
      "inputs": [
        {
          "internalType": "address",
          "name": "account",
          "type": "address"
        }
      ],
      "name": "releasable",
      "outputs": [
        {
          "internalType": "uint256",
          "name": "",
          "type": "uint256"
        }
      ],
      "stateMutability": "view",
      "type": "function"
    },
    {
      "inputs": [
        {
          "internalType": "contract IERC20",
          "name": "token",
          "type": "address"
        },
        {
          "internalType": "address",
          "name": "account",
          "type": "address"
        }
      ],
      "name": "releasable",
      "outputs": [
        {
          "internalType": "uint256",
          "name": "",
          "type": "uint256"
        }
      ],
      "stateMutability": "view",
      "type": "function"
    },
    {
      "inputs": [
        {
          "internalType": "address payable",
          "name": "account",
          "type": "address"
        }
      ],
      "name": "release",
      "outputs": [],
      "stateMutability": "nonpayable",
      "type": "function"
    },
    {
      "inputs": [
        {
          "internalType": "contract IERC20",
          "name": "token",
          "type": "address"
        },
        {
          "internalType": "address",
          "name": "account",
          "type": "address"
        }
      ],
      "name": "release",
      "outputs": [],
      "stateMutability": "nonpayable",
      "type": "function"
    },
    {
      "inputs": [
        {
          "internalType": "contract IERC20",
          "name": "token",
          "type": "address"
        },
        {
          "internalType": "address",
          "name": "account",
          "type": "address"
        }
      ],
      "name": "released",
      "outputs": [
        {
          "internalType": "uint256",
          "name": "",
          "type": "uint256"
        }
      ],
      "stateMutability": "view",
      "type": "function"
    },
    {
      "inputs": [
        {
          "internalType": "address",
          "name": "account",
          "type": "address"
        }
      ],
      "name": "released",
      "outputs": [
        {
          "internalType": "uint256",
          "name": "",
          "type": "uint256"
        }
      ],
      "stateMutability": "view",
      "type": "function"
    },
    {
      "inputs": [],
      "name": "renounceOwnership",
      "outputs": [],
      "stateMutability": "nonpayable",
      "type": "function"
    },
    {
      "inputs": [
        {
          "internalType": "address",
          "name": "account",
          "type": "address"
        }
      ],
      "name": "shares",
      "outputs": [
        {
          "internalType": "uint256",
          "name": "",
          "type": "uint256"
        }
      ],
      "stateMutability": "view",
      "type": "function"
    },
    {
      "inputs": [
        {
          "internalType": "contract IERC20",
          "name": "token",
          "type": "address"
        }
      ],
      "name": "totalReleased",
      "outputs": [
        {
          "internalType": "uint256",
          "name": "",
          "type": "uint256"
        }
      ],
      "stateMutability": "view",
      "type": "function"
    },
    {
      "inputs": [],
      "name": "totalReleased",
      "outputs": [
        {
          "internalType": "uint256",
          "name": "",
          "type": "uint256"
        }
      ],
      "stateMutability": "view",
      "type": "function"
    },
    {
      "inputs": [],
      "name": "totalShares",
      "outputs": [
        {
          "internalType": "uint256",
          "name": "",
          "type": "uint256"
        }
      ],
      "stateMutability": "view",
      "type": "function"
    },
    {
      "inputs": [
        {
          "internalType": "address",
          "name": "newOwner",
          "type": "address"
        }
      ],
      "name": "transferOwnership",
      "outputs": [],
      "stateMutability": "nonpayable",
      "type": "function"
    },
    {
      "stateMutability": "payable",
      "type": "receive"
    }
  ],
  "bytecode": "0x60806040526000600d553480156200001657600080fd5b50604051620050f7380380620050f783398181016040528101906200003c919062000705565b82826200005e620000526200028d60201b60201c565b6200029560201b60201c565b600180819055508051825114620000ac576040517f08c379a0000000000000000000000000000000000000000000000000000000008152600401620000a39062000925565b60405180910390fd5b6000825111620000f3576040517f08c379a0000000000000000000000000000000000000000000000000000000008152600401620000ea90620009ad565b60405180910390fd5b60005b8251811015620001aa57620001948382815181106200013e577f4e487b7100000000000000000000000000000000000000000000000000000000600052603260045260246000fd5b602002602001015183838151811062000180577f4e487b7100000000000000000000000000000000000000000000000000000000600052603260045260246000fd5b60200260200101516200035960201b60201c565b8080620001a19062000b5a565b915050620000f6565b5050506000835111620001f4576040517f08c379a0000000000000000000000000000000000000000000000000000000008152600401620001eb9062000969565b60405180910390fd5b81518351146200023b576040517f08c379a0000000000000000000000000000000000000000000000000000000008152600401620002329062000947565b60405180910390fd5b83600960006101000a81548173ffffffffffffffffffffffffffffffffffffffff021916908373ffffffffffffffffffffffffffffffffffffffff16021790555080600a819055505050505062000e02565b600033905090565b60008060009054906101000a900473ffffffffffffffffffffffffffffffffffffffff169050816000806101000a81548173ffffffffffffffffffffffffffffffffffffffff021916908373ffffffffffffffffffffffffffffffffffffffff1602179055508173ffffffffffffffffffffffffffffffffffffffff168173ffffffffffffffffffffffffffffffffffffffff167f8be0079c531659141344cd1fd0a4f28419497f9722a3daafe3b4186f6b6457e060405160405180910390a35050565b600073ffffffffffffffffffffffffffffffffffffffff168273ffffffffffffffffffffffffffffffffffffffff161415620003cc576040517f08c379a0000000000000000000000000000000000000000000000000000000008152600401620003c39062000903565b60405180910390fd5b6000811162000412576040517f08c379a00000000000000000000000000000000000000000000000000000000081526004016200040990620009cf565b60405180910390fd5b6000600460008473ffffffffffffffffffffffffffffffffffffffff1673ffffffffffffffffffffffffffffffffffffffff168152602001908152602001600020541462000497576040517f08c379a00000000000000000000000000000000000000000000000000000000081526004016200048e906200098b565b60405180910390fd5b6006829080600181540180825580915050600190039060005260206000200160009091909190916101000a81548173ffffffffffffffffffffffffffffffffffffffff021916908373ffffffffffffffffffffffffffffffffffffffff16021790555080600460008473ffffffffffffffffffffffffffffffffffffffff1673ffffffffffffffffffffffffffffffffffffffff16815260200190815260200160002081905550806002546200054e919062000a89565b6002819055507f40c340f65e17194d14ddddb073d3c9f888e3cb52b5aae0c6c7706b4fbc905fac828260405162000587929190620008d6565b60405180910390a15050565b6000620005aa620005a48462000a1a565b620009f1565b90508083825260208201905082856020860282011115620005ca57600080fd5b60005b85811015620005fe5781620005e388826200067d565b845260208401935060208301925050600181019050620005cd565b5050509392505050565b60006200061f620006198462000a49565b620009f1565b905080838252602082019050828560208602820111156200063f57600080fd5b60005b85811015620006735781620006588882620006ee565b84526020840193506020830192505060018101905062000642565b5050509392505050565b6000815190506200068e8162000dce565b92915050565b600082601f830112620006a657600080fd5b8151620006b884826020860162000593565b91505092915050565b600082601f830112620006d357600080fd5b8151620006e584826020860162000608565b91505092915050565b600081519050620006ff8162000de8565b92915050565b600080600080608085870312156200071c57600080fd5b60006200072c878288016200067d565b945050602085015167ffffffffffffffff8111156200074a57600080fd5b620007588782880162000694565b935050604085015167ffffffffffffffff8111156200077657600080fd5b6200078487828801620006c1565b92505060606200079787828801620006ee565b91505092959194509250565b620007ae8162000ae6565b82525050565b6000620007c3602c8362000a78565b9150620007d08262000c17565b604082019050919050565b6000620007ea60328362000a78565b9150620007f78262000c66565b604082019050919050565b60006200081160238362000a78565b91506200081e8262000cb5565b604082019050919050565b600062000838601e8362000a78565b9150620008458262000d04565b602082019050919050565b60006200085f602b8362000a78565b91506200086c8262000d2d565b604082019050919050565b600062000886601a8362000a78565b9150620008938262000d7c565b602082019050919050565b6000620008ad601d8362000a78565b9150620008ba8262000da5565b602082019050919050565b620008d08162000b1a565b82525050565b6000604082019050620008ed6000830185620007a3565b620008fc6020830184620008c5565b9392505050565b600060208201905081810360008301526200091e81620007b4565b9050919050565b600060208201905081810360008301526200094081620007db565b9050919050565b60006020820190508181036000830152620009628162000802565b9050919050565b60006020820190508181036000830152620009848162000829565b9050919050565b60006020820190508181036000830152620009a68162000850565b9050919050565b60006020820190508181036000830152620009c88162000877565b9050919050565b60006020820190508181036000830152620009ea816200089e565b9050919050565b6000620009fd62000a10565b905062000a0b828262000b24565b919050565b6000604051905090565b600067ffffffffffffffff82111562000a385762000a3762000bd7565b5b602082029050602081019050919050565b600067ffffffffffffffff82111562000a675762000a6662000bd7565b5b602082029050602081019050919050565b600082825260208201905092915050565b600062000a968262000b1a565b915062000aa38362000b1a565b9250827fffffffffffffffffffffffffffffffffffffffffffffffffffffffffffffffff0382111562000adb5762000ada62000ba8565b5b828201905092915050565b600062000af38262000afa565b9050919050565b600073ffffffffffffffffffffffffffffffffffffffff82169050919050565b6000819050919050565b62000b2f8262000c06565b810181811067ffffffffffffffff8211171562000b515762000b5062000bd7565b5b80604052505050565b600062000b678262000b1a565b91507fffffffffffffffffffffffffffffffffffffffffffffffffffffffffffffffff82141562000b9d5762000b9c62000ba8565b5b600182019050919050565b7f4e487b7100000000000000000000000000000000000000000000000000000000600052601160045260246000fd5b7f4e487b7100000000000000000000000000000000000000000000000000000000600052604160045260246000fd5b6000601f19601f8301169050919050565b7f5061796d656e7453706c69747465723a206163636f756e74206973207468652060008201527f7a65726f20616464726573730000000000000000000000000000000000000000602082015250565b7f5061796d656e7453706c69747465723a2070617965657320616e64207368617260008201527f6573206c656e677468206d69736d617463680000000000000000000000000000602082015250565b7f50617965657320616e6420736861726573206c656e677468206d757374206d6160008201527f7463680000000000000000000000000000000000000000000000000000000000602082015250565b7f4174206c65617374206f6e652070617965652069732072657175697265640000600082015250565b7f5061796d656e7453706c69747465723a206163636f756e7420616c726561647960008201527f2068617320736861726573000000000000000000000000000000000000000000602082015250565b7f5061796d656e7453706c69747465723a206e6f20706179656573000000000000600082015250565b7f5061796d656e7453706c69747465723a20736861726573206172652030000000600082015250565b62000dd98162000ae6565b811462000de557600080fd5b50565b62000df38162000b1a565b811462000dff57600080fd5b50565b6142e58062000e126000396000f3fe6080604052600436106101445760003560e01c80638da5cb5b116100b6578063c45ac0501161006f578063c45ac050146104b0578063cb917b9c146104ed578063ce7c2ac214610516578063d79779b214610553578063e33b7de314610590578063f2fde38b146105bb5761018b565b80638da5cb5b1461037a57806394383f14146103a55780639852595c146103ce5780639b83cddc1461040b578063a3f8eace14610448578063ad9f20a6146104855761018b565b8063424e657511610108578063424e65751461026857806348b75044146102a95780636e7f7678146102d2578063715018a6146102fb578063787954eb146103125780638b83209b1461033d5761018b565b806301c11d9614610190578063094a6aa4146101bb57806319165587146101d75780633a98ef3914610200578063406072a91461022b5761018b565b3661018b577f6ef95f06320e7a25a04a175ca677b7052bdd97131872c2192525a629f51be7706101726105e4565b346040516101819291906132aa565b60405180910390a1005b600080fd5b34801561019c57600080fd5b506101a56105ec565b6040516101b291906136b0565b60405180910390f35b6101d560048036038101906101d09190612bf5565b6105fa565b005b3480156101e357600080fd5b506101fe60048036038101906101f99190612ab0565b610d92565b005b34801561020c57600080fd5b50610215610f12565b60405161022291906136b0565b60405180910390f35b34801561023757600080fd5b50610252600480360381019061024d9190612b2b565b610f1c565b60405161025f91906136b0565b60405180910390f35b34801561027457600080fd5b5061028f600480360381019061028a9190612b67565b610fa3565b6040516102a09594939291906136cb565b60405180910390f35b3480156102b557600080fd5b506102d060048036038101906102cb9190612b2b565b61108e565b005b3480156102de57600080fd5b506102f960048036038101906102f49190612b67565b6112a2565b005b34801561030757600080fd5b5061031061182c565b005b34801561031e57600080fd5b50610327611840565b60405161033491906136b0565b60405180910390f35b34801561034957600080fd5b50610364600480360381019061035f9190612b67565b611846565b60405161037191906131c8565b60405180910390f35b34801561038657600080fd5b5061038f6118b4565b60405161039c91906131c8565b60405180910390f35b3480156103b157600080fd5b506103cc60048036038101906103c79190612bb9565b6118dd565b005b3480156103da57600080fd5b506103f560048036038101906103f09190612a5e565b611db5565b60405161040291906136b0565b60405180910390f35b34801561041757600080fd5b50610432600480360381019061042d9190612b67565b611dfe565b60405161043f91906132d3565b60405180910390f35b34801561045457600080fd5b5061046f600480360381019061046a9190612a5e565b611e28565b60405161047c91906136b0565b60405180910390f35b34801561049157600080fd5b5061049a611e5b565b6040516104a791906136b0565b60405180910390f35b3480156104bc57600080fd5b506104d760048036038101906104d29190612b2b565b611e66565b6040516104e491906136b0565b60405180910390f35b3480156104f957600080fd5b50610514600480360381019061050f9190612b67565b611f24565b005b34801561052257600080fd5b5061053d60048036038101906105389190612a5e565b612145565b60405161054a91906136b0565b60405180910390f35b34801561055f57600080fd5b5061057a60048036038101906105759190612b02565b61218e565b60405161058791906136b0565b60405180910390f35b34801561059c57600080fd5b506105a56121d7565b6040516105b291906136b0565b60405180910390f35b3480156105c757600080fd5b506105e260048036038101906105dd9190612a5e565b6121e1565b005b600033905090565b69021e19e0c9bab240000081565b610602612265565b60008060008514610ad957600b600086815260200190815260200160002060009054906101000a900460ff1661066d576040517f08c379a000000000000000000000000000000000000000000000000000000000815260040161066490613530565b60405180910390fd5b600960009054906101000a900473ffffffffffffffffffffffffffffffffffffffff1673ffffffffffffffffffffffffffffffffffffffff1663e7572230866040518263ffffffff1660e01b81526004016106c891906136b0565b60206040518083038186803b1580156106e057600080fd5b505afa1580156106f4573d6000803e3d6000fd5b505050506040513d601f19601f820116820180604052508101906107189190612b90565b9150600960009054906101000a900473ffffffffffffffffffffffffffffffffffffffff1673ffffffffffffffffffffffffffffffffffffffff16636352211e866040518263ffffffff1660e01b815260040161077591906136b0565b60206040518083038186803b15801561078d57600080fd5b505afa1580156107a1573d6000803e3d6000fd5b505050506040513d601f19601f820116820180604052508101906107c59190612a87565b9050813414610809576040517f08c379a0000000000000000000000000000000000000000000000000000000008152600401610800906134d0565b60405180910390fd5b60006108336064610825600a54866122b590919063ffffffff16565b6122cb90919063ffffffff16565b9050808311610877576040517f08c379a000000000000000000000000000000000000000000000000000000000815260040161086e906134b0565b60405180910390fd5b600061088c82856122e190919063ffffffff16565b90506000600b600089815260200190815260200160002060006101000a81548160ff02191690831515021790555060008373ffffffffffffffffffffffffffffffffffffffff16826040516108e0906131b3565b60006040518083038185875af1925050503d806000811461091d576040519150601f19603f3d011682016040523d82523d6000602084013e610922565b606091505b5050905080610966576040517f08c379a000000000000000000000000000000000000000000000000000000000815260040161095d906135b0565b60405180910390fd5b60003073ffffffffffffffffffffffffffffffffffffffff168460405161098c906131b3565b60006040518083038185875af1925050503d80600081146109c9576040519150601f19603f3d011682016040523d82523d6000602084013e6109ce565b606091505b5050905080610a12576040517f08c379a0000000000000000000000000000000000000000000000000000000008152600401610a0990613450565b60405180910390fd5b600960009054906101000a900473ffffffffffffffffffffffffffffffffffffffff1673ffffffffffffffffffffffffffffffffffffffff166323b872dd86338c6040518463ffffffff1660e01b8152600401610a7193929190613235565b600060405180830381600087803b158015610a8b57600080fd5b505af1158015610a9f573d6000803e3d6000fd5b50505050887ff1a4f188d8f608af032a64d403473119856aae541d836c6a78e2187e809c330760405160405180910390a250505050610d83565b662386f26fc10000341015610b23576040517f08c379a0000000000000000000000000000000000000000000000000000000008152600401610b1a90613310565b60405180910390fd5b69021e19e0c9bab2400000341115610b70576040517f08c379a0000000000000000000000000000000000000000000000000000000008152600401610b6790613470565b60405180910390fd5b6000835111610bb4576040517f08c379a0000000000000000000000000000000000000000000000000000000008152600401610bab90613570565b60405180910390fd5b6001841415610bf8576040517f08c379a0000000000000000000000000000000000000000000000000000000008152600401610bef906135d0565b60405180910390fd5b6000841415610c3c576040517f08c379a0000000000000000000000000000000000000000000000000000000008152600401610c3390613610565b60405180910390fd5b6040518060a001604052808581526020018481526020013481526020013373ffffffffffffffffffffffffffffffffffffffff16815260200160001515815250600c6000600d548152602001908152602001600020600082015181600001556020820151816001019080519060200190610cb79291906128c0565b506040820151816002015560608201518160030160006101000a81548173ffffffffffffffffffffffffffffffffffffffff021916908373ffffffffffffffffffffffffffffffffffffffff16021790555060808201518160030160146101000a81548160ff021916908315150217905550905050600d547f0514ef6e9a15654bb97b2d44afaa80921232b56180326dd4966e01ecd230d233338534604051610d629392919061326c565b60405180910390a2600d6000815480929190610d7d90613a93565b91905055505b5050610d8d6122f7565b505050565b6000600460008373ffffffffffffffffffffffffffffffffffffffff1673ffffffffffffffffffffffffffffffffffffffff1681526020019081526020016000205411610e14576040517f08c379a0000000000000000000000000000000000000000000000000000000008152600401610e0b906133b0565b60405180910390fd5b6000610e1f82611e28565b90506000811415610e65576040517f08c379a0000000000000000000000000000000000000000000000000000000008152600401610e5c90613430565b60405180910390fd5b8060036000828254610e779190613837565b9250508190555080600560008473ffffffffffffffffffffffffffffffffffffffff1673ffffffffffffffffffffffffffffffffffffffff16815260200190815260200160002060008282540192505081905550610ed58282612300565b7fdf20fd1e76bc69d672e4814fafb2c449bba3a5369d8359adf9e05e6fde87b0568282604051610f069291906131e3565b60405180910390a15050565b6000600254905090565b6000600860008473ffffffffffffffffffffffffffffffffffffffff1673ffffffffffffffffffffffffffffffffffffffff16815260200190815260200160002060008373ffffffffffffffffffffffffffffffffffffffff1673ffffffffffffffffffffffffffffffffffffffff16815260200190815260200160002054905092915050565b600c602052806000526040600020600091509050806000015490806001018054610fcc90613a30565b80601f0160208091040260200160405190810160405280929190818152602001828054610ff890613a30565b80156110455780601f1061101a57610100808354040283529160200191611045565b820191906000526020600020905b81548152906001019060200180831161102857829003601f168201915b5050505050908060020154908060030160009054906101000a900473ffffffffffffffffffffffffffffffffffffffff16908060030160149054906101000a900460ff16905085565b6000600460008373ffffffffffffffffffffffffffffffffffffffff1673ffffffffffffffffffffffffffffffffffffffff1681526020019081526020016000205411611110576040517f08c379a0000000000000000000000000000000000000000000000000000000008152600401611107906133b0565b60405180910390fd5b600061111c8383611e66565b90506000811415611162576040517f08c379a000000000000000000000000000000000000000000000000000000000815260040161115990613430565b60405180910390fd5b80600760008573ffffffffffffffffffffffffffffffffffffffff1673ffffffffffffffffffffffffffffffffffffffff16815260200190815260200160002060008282546111b19190613837565b9250508190555080600860008573ffffffffffffffffffffffffffffffffffffffff1673ffffffffffffffffffffffffffffffffffffffff16815260200190815260200160002060008473ffffffffffffffffffffffffffffffffffffffff1673ffffffffffffffffffffffffffffffffffffffff1681526020019081526020016000206000828254019250508190555061124d8383836123f4565b8273ffffffffffffffffffffffffffffffffffffffff167f3be5b7a71e84ed12875d241991c70855ac5817d847039e17a9d895c1ceb0f18a83836040516112959291906132aa565b60405180910390a2505050565b6112aa612265565b6000600c60008381526020019081526020016000209050600073ffffffffffffffffffffffffffffffffffffffff168160030160009054906101000a900473ffffffffffffffffffffffffffffffffffffffff1673ffffffffffffffffffffffffffffffffffffffff161415611355576040517f08c379a000000000000000000000000000000000000000000000000000000000815260040161134c90613670565b60405180910390fd5b8060030160149054906101000a900460ff16156113a7576040517f08c379a000000000000000000000000000000000000000000000000000000000815260040161139e90613390565b60405180910390fd5b6000600960009054906101000a900473ffffffffffffffffffffffffffffffffffffffff1673ffffffffffffffffffffffffffffffffffffffff1663394120c083600001546040518263ffffffff1660e01b815260040161140891906136b0565b60206040518083038186803b15801561142057600080fd5b505afa158015611434573d6000803e3d6000fd5b505050506040513d601f19601f820116820180604052508101906114589190612a87565b90503373ffffffffffffffffffffffffffffffffffffffff168173ffffffffffffffffffffffffffffffffffffffff16146114c8576040517f08c379a00000000000000000000000000000000000000000000000000000000081526004016114bf906134f0565b60405180910390fd5b60006114f660646114e8600a5486600201546122b590919063ffffffff16565b6122cb90919063ffffffff16565b90508083600201541161153e576040517f08c379a0000000000000000000000000000000000000000000000000000000008152600401611535906134b0565b60405180910390fd5b60006115578285600201546122e190919063ffffffff16565b905060008373ffffffffffffffffffffffffffffffffffffffff168260405161157f906131b3565b60006040518083038185875af1925050503d80600081146115bc576040519150601f19603f3d011682016040523d82523d6000602084013e6115c1565b606091505b5050905080611605576040517f08c379a00000000000000000000000000000000000000000000000000000000081526004016115fc90613510565b60405180910390fd5b60003073ffffffffffffffffffffffffffffffffffffffff168460405161162b906131b3565b60006040518083038185875af1925050503d8060008114611668576040519150601f19603f3d011682016040523d82523d6000602084013e61166d565b606091505b50509050806116b1576040517f08c379a00000000000000000000000000000000000000000000000000000000081526004016116a890613450565b60405180910390fd5b6000600960009054906101000a900473ffffffffffffffffffffffffffffffffffffffff1673ffffffffffffffffffffffffffffffffffffffff1663b41a6e348860000154896001018a600201548b60030160009054906101000a900473ffffffffffffffffffffffffffffffffffffffff166040518563ffffffff1660e01b81526004016117439493929190613725565b602060405180830381600087803b15801561175d57600080fd5b505af1158015611771573d6000803e3d6000fd5b505050506040513d601f19601f820116820180604052508101906117959190612b90565b905060018760030160146101000a81548160ff0219169083151502179055507febe8a5caf534027cd489966391b45060b1030eb8db4cd6e20429d7bc1cdf959588826040516117e5929190613771565b60405180910390a1807ff1a4f188d8f608af032a64d403473119856aae541d836c6a78e2187e809c330760405160405180910390a2505050505050506118296122f7565b50565b61183461247a565b61183e60006124f8565b565b600d5481565b600060068281548110611882577f4e487b7100000000000000000000000000000000000000000000000000000000600052603260045260246000fd5b9060005260206000200160009054906101000a900473ffffffffffffffffffffffffffffffffffffffff169050919050565b60008060009054906101000a900473ffffffffffffffffffffffffffffffffffffffff16905090565b6118e5612265565b662386f26fc1000081101561192f576040517f08c379a000000000000000000000000000000000000000000000000000000000815260040161192690613310565b60405180910390fd5b69021e19e0c9bab240000081111561197c576040517f08c379a000000000000000000000000000000000000000000000000000000000815260040161197390613470565b60405180910390fd5b600b600083815260200190815260200160002060009054906101000a900460ff16156119dd576040517f08c379a00000000000000000000000000000000000000000000000000000000081526004016119d490613490565b60405180910390fd5b3373ffffffffffffffffffffffffffffffffffffffff16600960009054906101000a900473ffffffffffffffffffffffffffffffffffffffff1673ffffffffffffffffffffffffffffffffffffffff16636352211e846040518263ffffffff1660e01b8152600401611a4f91906136b0565b60206040518083038186803b158015611a6757600080fd5b505afa158015611a7b573d6000803e3d6000fd5b505050506040513d601f19601f82011682018060405250810190611a9f9190612a87565b73ffffffffffffffffffffffffffffffffffffffff1614611af5576040517f08c379a0000000000000000000000000000000000000000000000000000000008152600401611aec90613690565b60405180910390fd5b600960009054906101000a900473ffffffffffffffffffffffffffffffffffffffff1673ffffffffffffffffffffffffffffffffffffffff1663e985e9c533306040518363ffffffff1660e01b8152600401611b5292919061320c565b60206040518083038186803b158015611b6a57600080fd5b505afa158015611b7e573d6000803e3d6000fd5b505050506040513d601f19601f82011682018060405250810190611ba29190612ad9565b80611c8257503073ffffffffffffffffffffffffffffffffffffffff16600960009054906101000a900473ffffffffffffffffffffffffffffffffffffffff1673ffffffffffffffffffffffffffffffffffffffff1663081812fc846040518263ffffffff1660e01b8152600401611c1a91906136b0565b60206040518083038186803b158015611c3257600080fd5b505afa158015611c46573d6000803e3d6000fd5b505050506040513d601f19601f82011682018060405250810190611c6a9190612a87565b73ffffffffffffffffffffffffffffffffffffffff16145b611cc1576040517f08c379a0000000000000000000000000000000000000000000000000000000008152600401611cb890613590565b60405180910390fd5b600960009054906101000a900473ffffffffffffffffffffffffffffffffffffffff1673ffffffffffffffffffffffffffffffffffffffff1663f7d9757783836040518363ffffffff1660e01b8152600401611d1e929190613771565b600060405180830381600087803b158015611d3857600080fd5b505af1158015611d4c573d6000803e3d6000fd5b505050506001600b600084815260200190815260200160002060006101000a81548160ff021916908315150217905550817fdb1fd9bae40110b73b6592270632b19e60d204d52ee5cd72c60d076e6bdd342f60405160405180910390a2611db16122f7565b5050565b6000600560008373ffffffffffffffffffffffffffffffffffffffff1673ffffffffffffffffffffffffffffffffffffffff168152602001908152602001600020549050919050565b6000600b600083815260200190815260200160002060009054906101000a900460ff169050919050565b600080611e336121d7565b47611e3e9190613837565b9050611e538382611e4e86611db5565b6125bc565b915050919050565b662386f26fc1000081565b600080611e728461218e565b8473ffffffffffffffffffffffffffffffffffffffff166370a08231306040518263ffffffff1660e01b8152600401611eab91906131c8565b60206040518083038186803b158015611ec357600080fd5b505afa158015611ed7573d6000803e3d6000fd5b505050506040513d601f19601f82011682018060405250810190611efb9190612b90565b611f059190613837565b9050611f1b8382611f168787610f1c565b6125bc565b91505092915050565b611f2c612265565b600960009054906101000a900473ffffffffffffffffffffffffffffffffffffffff1673ffffffffffffffffffffffffffffffffffffffff16636352211e826040518263ffffffff1660e01b8152600401611f8791906136b0565b60206040518083038186803b158015611f9f57600080fd5b505afa158015611fb3573d6000803e3d6000fd5b505050506040513d601f19601f82011682018060405250810190611fd79190612a87565b73ffffffffffffffffffffffffffffffffffffffff163373ffffffffffffffffffffffffffffffffffffffff16148061204257506120136118b4565b73ffffffffffffffffffffffffffffffffffffffff163373ffffffffffffffffffffffffffffffffffffffff16145b612081576040517f08c379a000000000000000000000000000000000000000000000000000000000815260040161207890613370565b60405180910390fd5b600b600082815260200190815260200160002060009054906101000a900460ff166120e1576040517f08c379a00000000000000000000000000000000000000000000000000000000081526004016120d890613350565b60405180910390fd5b6000600b600083815260200190815260200160002060006101000a81548160ff021916908315150217905550807fc0c55a6edead4433d18cb1e287a0a20a2fa003a6f483bc9823d2e504d70d1c6760405160405180910390a26121426122f7565b50565b6000600460008373ffffffffffffffffffffffffffffffffffffffff1673ffffffffffffffffffffffffffffffffffffffff168152602001908152602001600020549050919050565b6000600760008373ffffffffffffffffffffffffffffffffffffffff1673ffffffffffffffffffffffffffffffffffffffff168152602001908152602001600020549050919050565b6000600354905090565b6121e961247a565b600073ffffffffffffffffffffffffffffffffffffffff168173ffffffffffffffffffffffffffffffffffffffff161415612259576040517f08c379a000000000000000000000000000000000000000000000000000000000815260040161225090613330565b60405180910390fd5b612262816124f8565b50565b600260015414156122ab576040517f08c379a00000000000000000000000000000000000000000000000000000000081526004016122a290613650565b60405180910390fd5b6002600181905550565b600081836122c391906138be565b905092915050565b600081836122d9919061388d565b905092915050565b600081836122ef9190613918565b905092915050565b60018081905550565b80471015612343576040517f08c379a000000000000000000000000000000000000000000000000000000000815260040161233a906133f0565b60405180910390fd5b60008273ffffffffffffffffffffffffffffffffffffffff1682604051612369906131b3565b60006040518083038185875af1925050503d80600081146123a6576040519150601f19603f3d011682016040523d82523d6000602084013e6123ab565b606091505b50509050806123ef576040517f08c379a00000000000000000000000000000000000000000000000000000000081526004016123e6906133d0565b60405180910390fd5b505050565b6124758363a9059cbb60e01b84846040516024016124139291906132aa565b604051602081830303815290604052907bffffffffffffffffffffffffffffffffffffffffffffffffffffffff19166020820180517bffffffffffffffffffffffffffffffffffffffffffffffffffffffff838183161783525050505061262a565b505050565b6124826105e4565b73ffffffffffffffffffffffffffffffffffffffff166124a06118b4565b73ffffffffffffffffffffffffffffffffffffffff16146124f6576040517f08c379a00000000000000000000000000000000000000000000000000000000081526004016124ed90613550565b60405180910390fd5b565b60008060009054906101000a900473ffffffffffffffffffffffffffffffffffffffff169050816000806101000a81548173ffffffffffffffffffffffffffffffffffffffff021916908373ffffffffffffffffffffffffffffffffffffffff1602179055508173ffffffffffffffffffffffffffffffffffffffff168173ffffffffffffffffffffffffffffffffffffffff167f8be0079c531659141344cd1fd0a4f28419497f9722a3daafe3b4186f6b6457e060405160405180910390a35050565b600081600254600460008773ffffffffffffffffffffffffffffffffffffffff1673ffffffffffffffffffffffffffffffffffffffff168152602001908152602001600020548561260d91906138be565b612617919061388d565b6126219190613918565b90509392505050565b600061268c826040518060400160405280602081526020017f5361666545524332303a206c6f772d6c6576656c2063616c6c206661696c65648152508573ffffffffffffffffffffffffffffffffffffffff166126f29092919063ffffffff16565b90506000815114806126ae5750808060200190518101906126ad9190612ad9565b5b6126ed576040517f08c379a00000000000000000000000000000000000000000000000000000000081526004016126e490613630565b60405180910390fd5b505050565b6060612701848460008561270a565b90509392505050565b60608247101561274f576040517f08c379a000000000000000000000000000000000000000000000000000000000815260040161274690613410565b60405180910390fd5b6000808673ffffffffffffffffffffffffffffffffffffffff168587604051612778919061319c565b60006040518083038185875af1925050503d80600081146127b5576040519150601f19603f3d011682016040523d82523d6000602084013e6127ba565b606091505b50915091506127cb878383876127d7565b92505050949350505050565b6060831561283a57600083511415612832576127f28561284d565b612831576040517f08c379a0000000000000000000000000000000000000000000000000000000008152600401612828906135f0565b60405180910390fd5b5b829050612845565b6128448383612870565b5b949350505050565b6000808273ffffffffffffffffffffffffffffffffffffffff163b119050919050565b6000825111156128835781518083602001fd5b806040517f08c379a00000000000000000000000000000000000000000000000000000000081526004016128b791906132ee565b60405180910390fd5b8280546128cc90613a30565b90600052602060002090601f0160209004810192826128ee5760008555612935565b82601f1061290757805160ff1916838001178555612935565b82800160010185558215612935579182015b82811115612934578251825591602001919060010190612919565b5b5090506129429190612946565b5090565b5b8082111561295f576000816000905550600101612947565b5090565b6000612976612971846137bf565b61379a565b90508281526020810184848401111561298e57600080fd5b6129998482856139ee565b509392505050565b6000813590506129b08161423c565b92915050565b6000815190506129c58161423c565b92915050565b6000813590506129da81614253565b92915050565b6000815190506129ef8161426a565b92915050565b600081359050612a0481614281565b92915050565b600082601f830112612a1b57600080fd5b8135612a2b848260208601612963565b91505092915050565b600081359050612a4381614298565b92915050565b600081519050612a5881614298565b92915050565b600060208284031215612a7057600080fd5b6000612a7e848285016129a1565b91505092915050565b600060208284031215612a9957600080fd5b6000612aa7848285016129b6565b91505092915050565b600060208284031215612ac257600080fd5b6000612ad0848285016129cb565b91505092915050565b600060208284031215612aeb57600080fd5b6000612af9848285016129e0565b91505092915050565b600060208284031215612b1457600080fd5b6000612b22848285016129f5565b91505092915050565b60008060408385031215612b3e57600080fd5b6000612b4c858286016129f5565b9250506020612b5d858286016129a1565b9150509250929050565b600060208284031215612b7957600080fd5b6000612b8784828501612a34565b91505092915050565b600060208284031215612ba257600080fd5b6000612bb084828501612a49565b91505092915050565b60008060408385031215612bcc57600080fd5b6000612bda85828601612a34565b9250506020612beb85828601612a34565b9150509250929050565b600080600060608486031215612c0a57600080fd5b6000612c1886828701612a34565b9350506020612c2986828701612a34565b925050604084013567ffffffffffffffff811115612c4657600080fd5b612c5286828701612a0a565b9150509250925092565b612c65816139b8565b82525050565b612c748161394c565b82525050565b612c8381613970565b82525050565b6000612c9482613805565b612c9e818561381b565b9350612cae8185602086016139fd565b80840191505092915050565b6000612cc582613810565b612ccf8185613826565b9350612cdf8185602086016139fd565b612ce881613b98565b840191505092915050565b60008154612d0081613a30565b612d0a8186613826565b94506001821660008114612d255760018114612d3757612d6a565b60ff1983168652602086019350612d6a565b612d40856137f0565b60005b83811015612d6257815481890152600182019150602081019050612d43565b808801955050505b50505092915050565b6000612d80602083613826565b9150612d8b82613ba9565b602082019050919050565b6000612da3602683613826565b9150612dae82613bd2565b604082019050919050565b6000612dc6600e83613826565b9150612dd182613c21565b602082019050919050565b6000612de9602983613826565b9150612df482613c4a565b604082019050919050565b6000612e0c601d83613826565b9150612e1782613c99565b602082019050919050565b6000612e2f602683613826565b9150612e3a82613cc2565b604082019050919050565b6000612e52603a83613826565b9150612e5d82613d11565b604082019050919050565b6000612e75601d83613826565b9150612e8082613d60565b602082019050919050565b6000612e98602683613826565b9150612ea382613d89565b604082019050919050565b6000612ebb602b83613826565b9150612ec682613dd8565b604082019050919050565b6000612ede601d83613826565b9150612ee982613e27565b602082019050919050565b6000612f01601f83613826565b9150612f0c82613e50565b602082019050919050565b6000612f24601283613826565b9150612f2f82613e79565b602082019050919050565b6000612f47602b83613826565b9150612f5282613ea2565b604082019050919050565b6000612f6a602783613826565b9150612f7582613ef1565b604082019050919050565b6000612f8d603683613826565b9150612f9882613f40565b604082019050919050565b6000612fb0602483613826565b9150612fbb82613f8f565b604082019050919050565b6000612fd3601783613826565b9150612fde82613fde565b602082019050919050565b6000612ff6602083613826565b915061300182614007565b602082019050919050565b6000613019602183613826565b915061302482614030565b604082019050919050565b600061303c602a83613826565b91506130478261407f565b604082019050919050565b600061305f601d83613826565b915061306a826140ce565b602082019050919050565b600061308260008361381b565b915061308d826140f7565b600082019050919050565b60006130a5600083613826565b91506130b0826140f7565b600082019050919050565b60006130c8601d83613826565b91506130d3826140fa565b602082019050919050565b60006130eb602583613826565b91506130f682614123565b604082019050919050565b600061310e602a83613826565b915061311982614172565b604082019050919050565b6000613131601f83613826565b915061313c826141c1565b602082019050919050565b6000613154601b83613826565b915061315f826141ea565b602082019050919050565b6000613177601883613826565b915061318282614213565b602082019050919050565b613196816139ae565b82525050565b60006131a88284612c89565b915081905092915050565b60006131be82613075565b9150819050919050565b60006020820190506131dd6000830184612c6b565b92915050565b60006040820190506131f86000830185612c5c565b613205602083018461318d565b9392505050565b60006040820190506132216000830185612c6b565b61322e6020830184612c6b565b9392505050565b600060608201905061324a6000830186612c6b565b6132576020830185612c6b565b613264604083018461318d565b949350505050565b60006060820190506132816000830186612c6b565b81810360208301526132938185612cba565b90506132a2604083018461318d565b949350505050565b60006040820190506132bf6000830185612c6b565b6132cc602083018461318d565b9392505050565b60006020820190506132e86000830184612c7a565b92915050565b600060208201905081810360008301526133088184612cba565b905092915050565b6000602082019050818103600083015261332981612d73565b9050919050565b6000602082019050818103600083015261334981612d96565b9050919050565b6000602082019050818103600083015261336981612db9565b9050919050565b6000602082019050818103600083015261338981612ddc565b9050919050565b600060208201905081810360008301526133a981612dff565b9050919050565b600060208201905081810360008301526133c981612e22565b9050919050565b600060208201905081810360008301526133e981612e45565b9050919050565b6000602082019050818103600083015261340981612e68565b9050919050565b6000602082019050818103600083015261342981612e8b565b9050919050565b6000602082019050818103600083015261344981612eae565b9050919050565b6000602082019050818103600083015261346981612ed1565b9050919050565b6000602082019050818103600083015261348981612ef4565b9050919050565b600060208201905081810360008301526134a981612f17565b9050919050565b600060208201905081810360008301526134c981612f3a565b9050919050565b600060208201905081810360008301526134e981612f5d565b9050919050565b6000602082019050818103600083015261350981612f80565b9050919050565b6000602082019050818103600083015261352981612fa3565b9050919050565b6000602082019050818103600083015261354981612fc6565b9050919050565b6000602082019050818103600083015261356981612fe9565b9050919050565b600060208201905081810360008301526135898161300c565b9050919050565b600060208201905081810360008301526135a98161302f565b9050919050565b600060208201905081810360008301526135c981613052565b9050919050565b600060208201905081810360008301526135e981613098565b9050919050565b60006020820190508181036000830152613609816130bb565b9050919050565b60006020820190508181036000830152613629816130de565b9050919050565b6000602082019050818103600083015261364981613101565b9050919050565b6000602082019050818103600083015261366981613124565b9050919050565b6000602082019050818103600083015261368981613147565b9050919050565b600060208201905081810360008301526136a98161316a565b9050919050565b60006020820190506136c5600083018461318d565b92915050565b600060a0820190506136e0600083018861318d565b81810360208301526136f28187612cba565b9050613701604083018661318d565b61370e6060830185612c6b565b61371b6080830184612c7a565b9695505050505050565b600060808201905061373a600083018761318d565b818103602083015261374c8186612cf3565b905061375b604083018561318d565b6137686060830184612c6b565b95945050505050565b6000604082019050613786600083018561318d565b613793602083018461318d565b9392505050565b60006137a46137b5565b90506137b08282613a62565b919050565b6000604051905090565b600067ffffffffffffffff8211156137da576137d9613b69565b5b6137e382613b98565b9050602081019050919050565b60008190508160005260206000209050919050565b600081519050919050565b600081519050919050565b600081905092915050565b600082825260208201905092915050565b6000613842826139ae565b915061384d836139ae565b9250827fffffffffffffffffffffffffffffffffffffffffffffffffffffffffffffffff0382111561388257613881613adc565b5b828201905092915050565b6000613898826139ae565b91506138a3836139ae565b9250826138b3576138b2613b0b565b5b828204905092915050565b60006138c9826139ae565b91506138d4836139ae565b9250817fffffffffffffffffffffffffffffffffffffffffffffffffffffffffffffffff048311821515161561390d5761390c613adc565b5b828202905092915050565b6000613923826139ae565b915061392e836139ae565b92508282101561394157613940613adc565b5b828203905092915050565b60006139578261398e565b9050919050565b60006139698261398e565b9050919050565b60008115159050919050565b60006139878261394c565b9050919050565b600073ffffffffffffffffffffffffffffffffffffffff82169050919050565b6000819050919050565b60006139c3826139ca565b9050919050565b60006139d5826139dc565b9050919050565b60006139e78261398e565b9050919050565b82818337600083830152505050565b60005b83811015613a1b578082015181840152602081019050613a00565b83811115613a2a576000848401525b50505050565b60006002820490506001821680613a4857607f821691505b60208210811415613a5c57613a5b613b3a565b5b50919050565b613a6b82613b98565b810181811067ffffffffffffffff82111715613a8a57613a89613b69565b5b80604052505050565b6000613a9e826139ae565b91507fffffffffffffffffffffffffffffffffffffffffffffffffffffffffffffffff821415613ad157613ad0613adc565b5b600182019050919050565b7f4e487b7100000000000000000000000000000000000000000000000000000000600052601160045260246000fd5b7f4e487b7100000000000000000000000000000000000000000000000000000000600052601260045260246000fd5b7f4e487b7100000000000000000000000000000000000000000000000000000000600052602260045260246000fd5b7f4e487b7100000000000000000000000000000000000000000000000000000000600052604160045260246000fd5b6000601f19601f8301169050919050565b7f5072696365206d757374206265206174206c65617374204d494e5f5052494345600082015250565b7f4f776e61626c653a206e6577206f776e657220697320746865207a65726f206160008201527f6464726573730000000000000000000000000000000000000000000000000000602082015250565b7f4e4654206e6f74206c6973746564000000000000000000000000000000000000600082015250565b7f43616c6c6572206973206e6f74206f776e6572206f66204e4654206f72206d6160008201527f726b6574706c6163650000000000000000000000000000000000000000000000602082015250565b7f4d696e74207265717565737420616c726561647920617070726f766564000000600082015250565b7f5061796d656e7453706c69747465723a206163636f756e7420686173206e6f2060008201527f7368617265730000000000000000000000000000000000000000000000000000602082015250565b7f416464726573733a20756e61626c6520746f2073656e642076616c75652c207260008201527f6563697069656e74206d61792068617665207265766572746564000000000000602082015250565b7f416464726573733a20696e73756666696369656e742062616c616e6365000000600082015250565b7f416464726573733a20696e73756666696369656e742062616c616e636520666f60008201527f722063616c6c0000000000000000000000000000000000000000000000000000602082015250565b7f5061796d656e7453706c69747465723a206163636f756e74206973206e6f742060008201527f647565207061796d656e74000000000000000000000000000000000000000000602082015250565b7f5472616e73666572206f6620726f79616c74696573206661696c65642e000000600082015250565b7f5072696365206d757374206e6f7420657863656564204d41585f505249434500600082015250565b7f4e465420616c7265616479206c69737465640000000000000000000000000000600082015250565b7f50726963652073686f756c6420626520686967686572207468616e20746f746160008201527f6c20726f79616c74696573000000000000000000000000000000000000000000602082015250565b7f53656e742076616c756520646f6573206e6f74206d6174636820746865204e4660008201527f5420707269636500000000000000000000000000000000000000000000000000602082015250565b7f4f6e6c792074686520636f6c6c656374696f6e206f776e65722063616e20617060008201527f70726f766520746865206d696e74207265717565737400000000000000000000602082015250565b7f5472616e7366657220746f20436f6c6c656374696f6e206f776e65722066616960008201527f6c65642e00000000000000000000000000000000000000000000000000000000602082015250565b7f4e4654206e6f74206c697374656420666f722073616c65000000000000000000600082015250565b7f4f776e61626c653a2063616c6c6572206973206e6f7420746865206f776e6572600082015250565b7f546f6b656e2055524920697320726571756972656420666f72206d696e74696e60008201527f6700000000000000000000000000000000000000000000000000000000000000602082015250565b7f4d75737420617070726f7665206d61726b6574706c61636520746f206d616e6160008201527f676520746865204e465400000000000000000000000000000000000000000000602082015250565b7f5472616e7366657220746f204e4654206f776e6572206661696c65642e000000600082015250565b50565b7f416464726573733a2063616c6c20746f206e6f6e2d636f6e7472616374000000600082015250565b7f436f6c6c656374696f6e20494420697320726571756972656420666f72206d6960008201527f6e74696e67000000000000000000000000000000000000000000000000000000602082015250565b7f5361666545524332303a204552433230206f7065726174696f6e20646964206e60008201527f6f74207375636365656400000000000000000000000000000000000000000000602082015250565b7f5265656e7472616e637947756172643a207265656e7472616e742063616c6c00600082015250565b7f4d696e74207265717565737420646f6573206e6f742065786973740000000000600082015250565b7f4d757374206265206f776e6572206f6620746865204e46540000000000000000600082015250565b6142458161394c565b811461425057600080fd5b50565b61425c8161395e565b811461426757600080fd5b50565b61427381613970565b811461427e57600080fd5b50565b61428a8161397c565b811461429557600080fd5b50565b6142a1816139ae565b81146142ac57600080fd5b5056fea2646970667358221220b476165d5f734e7411af489f970fde8c73a94dd9aacc2a191bf7a7d1f4a513e164736f6c63430008010033",
  "linkReferences": {},
  "deployedLinkReferences": {}
}