{
  "_format": "hh-sol-artifact-1",
  "contractName": "NFTMarketplace",
  "sourceName": "contracts/NFTMarketplace.sol",
  "abi": [
    {
      "inputs": [
        {
          "internalType": "address",
          "name": "nftContractAddress",
          "type": "address"
        },
        {
          "internalType": "address[]",
          "name": "payees",
          "type": "address[]"
        },
        {
          "internalType": "uint256[]",
          "name": "shares",
          "type": "uint256[]"
        },
        {
          "internalType": "uint256",
          "name": "royalties",
          "type": "uint256"
        }
      ],
      "stateMutability": "nonpayable",
      "type": "constructor"
    },
    {
      "anonymous": false,
      "inputs": [
        {
          "indexed": true,
          "internalType": "contract IERC20",
          "name": "token",
          "type": "address"
        },
        {
          "indexed": false,
          "internalType": "address",
          "name": "to",
          "type": "address"
        },
        {
          "indexed": false,
          "internalType": "uint256",
          "name": "amount",
          "type": "uint256"
        }
      ],
      "name": "ERC20PaymentReleased",
      "type": "event"
    },
    {
      "anonymous": false,
      "inputs": [
        {
          "indexed": false,
          "internalType": "uint256",
          "name": "requestId",
          "type": "uint256"
        },
        {
          "indexed": false,
          "internalType": "uint256",
          "name": "tokenId",
          "type": "uint256"
        }
      ],
      "name": "MintRequestApproved",
      "type": "event"
    },
    {
      "anonymous": false,
      "inputs": [
        {
          "indexed": true,
          "internalType": "uint256",
          "name": "tokenId",
          "type": "uint256"
        }
      ],
      "name": "NFTBought",
      "type": "event"
    },
    {
      "anonymous": false,
      "inputs": [
        {
          "indexed": true,
          "internalType": "uint256",
          "name": "tokenId",
          "type": "uint256"
        }
      ],
      "name": "NFTDelisted",
      "type": "event"
    },
    {
      "anonymous": false,
      "inputs": [
        {
          "indexed": true,
          "internalType": "uint256",
          "name": "tokenId",
          "type": "uint256"
        }
      ],
      "name": "NFTListed",
      "type": "event"
    },
    {
      "anonymous": false,
      "inputs": [
        {
          "indexed": true,
          "internalType": "address",
          "name": "previousOwner",
          "type": "address"
        },
        {
          "indexed": true,
          "internalType": "address",
          "name": "newOwner",
          "type": "address"
        }
      ],
      "name": "OwnershipTransferred",
      "type": "event"
    },
    {
      "anonymous": false,
      "inputs": [
        {
          "indexed": false,
          "internalType": "address",
          "name": "account",
          "type": "address"
        },
        {
          "indexed": false,
          "internalType": "uint256",
          "name": "shares",
          "type": "uint256"
        }
      ],
      "name": "PayeeAdded",
      "type": "event"
    },
    {
      "anonymous": false,
      "inputs": [
        {
          "indexed": false,
          "internalType": "address",
          "name": "from",
          "type": "address"
        },
        {
          "indexed": false,
          "internalType": "uint256",
          "name": "amount",
          "type": "uint256"
        }
      ],
      "name": "PaymentReceived",
      "type": "event"
    },
    {
      "anonymous": false,
      "inputs": [
        {
          "indexed": false,
          "internalType": "address",
          "name": "to",
          "type": "address"
        },
        {
          "indexed": false,
          "internalType": "uint256",
          "name": "amount",
          "type": "uint256"
        }
      ],
      "name": "PaymentReleased",
      "type": "event"
    },
    {
      "anonymous": false,
      "inputs": [
        {
          "indexed": true,
          "internalType": "uint256",
          "name": "requestId",
          "type": "uint256"
        },
        {
          "indexed": false,
          "internalType": "address",
          "name": "buyer",
          "type": "address"
        },
        {
          "indexed": false,
          "internalType": "string",
          "name": "tokenURI",
          "type": "string"
        },
        {
          "indexed": false,
          "internalType": "uint256",
          "name": "price",
          "type": "uint256"
        }
      ],
      "name": "TokenMintRequest",
      "type": "event"
    },
    {
      "inputs": [],
      "name": "MAX_PRICE",
      "outputs": [
        {
          "internalType": "uint256",
          "name": "",
          "type": "uint256"
        }
      ],
      "stateMutability": "view",
      "type": "function"
    },
    {
      "inputs": [],
      "name": "MIN_PRICE",
      "outputs": [
        {
          "internalType": "uint256",
          "name": "",
          "type": "uint256"
        }
      ],
      "stateMutability": "view",
      "type": "function"
    },
    {
      "inputs": [
        {
          "internalType": "uint256",
          "name": "requestId",
          "type": "uint256"
        }
      ],
      "name": "approveMintRequest",
      "outputs": [],
      "stateMutability": "nonpayable",
      "type": "function"
    },
    {
      "inputs": [
        {
          "internalType": "uint256",
          "name": "tokenId",
          "type": "uint256"
        },
        {
          "internalType": "uint256",
          "name": "collectionId",
          "type": "uint256"
        },
        {
          "internalType": "string",
          "name": "tokenURI",
          "type": "string"
        }
      ],
      "name": "buyNFT",
      "outputs": [],
      "stateMutability": "payable",
      "type": "function"
    },
    {
      "inputs": [
        {
          "internalType": "uint256",
          "name": "tokenId",
          "type": "uint256"
        }
      ],
      "name": "delistNFT",
      "outputs": [],
      "stateMutability": "nonpayable",
      "type": "function"
    },
    {
      "inputs": [
        {
          "internalType": "uint256",
          "name": "collectionId",
          "type": "uint256"
        },
        {
          "internalType": "uint256",
          "name": "startIndex",
          "type": "uint256"
        },
        {
          "internalType": "uint256",
          "name": "pageSize",
          "type": "uint256"
        }
      ],
      "name": "getListedTokensInCollection",
      "outputs": [
        {
          "internalType": "uint256[]",
          "name": "",
          "type": "uint256[]"
        }
      ],
      "stateMutability": "view",
      "type": "function"
    },
    {
      "inputs": [
        {
          "internalType": "uint256",
          "name": "requestId",
          "type": "uint256"
        }
      ],
      "name": "getMintRequestDetails",
      "outputs": [
        {
          "internalType": "uint256",
          "name": "collectionId",
          "type": "uint256"
        },
        {
          "internalType": "string",
          "name": "tokenURI",
          "type": "string"
        },
        {
          "internalType": "uint256",
          "name": "price",
          "type": "uint256"
        },
        {
          "internalType": "address",
          "name": "buyer",
          "type": "address"
        },
        {
          "internalType": "bool",
          "name": "approved",
          "type": "bool"
        }
      ],
      "stateMutability": "view",
      "type": "function"
    },
    {
      "inputs": [
        {
          "internalType": "uint256",
          "name": "tokenId",
          "type": "uint256"
        }
      ],
      "name": "isTokenListed",
      "outputs": [
        {
          "internalType": "bool",
          "name": "",
          "type": "bool"
        }
      ],
      "stateMutability": "view",
      "type": "function"
    },
    {
      "inputs": [
        {
          "internalType": "uint256",
          "name": "tokenId",
          "type": "uint256"
        },
        {
          "internalType": "uint256",
          "name": "newPrice",
          "type": "uint256"
        }
      ],
      "name": "listNFT",
      "outputs": [],
      "stateMutability": "nonpayable",
      "type": "function"
    },
    {
      "inputs": [],
      "name": "mintRequestIdTracker",
      "outputs": [
        {
          "internalType": "uint256",
          "name": "",
          "type": "uint256"
        }
      ],
      "stateMutability": "view",
      "type": "function"
    },
    {
      "inputs": [
        {
          "internalType": "uint256",
          "name": "",
          "type": "uint256"
        }
      ],
      "name": "mintRequests",
      "outputs": [
        {
          "internalType": "uint256",
          "name": "collectionId",
          "type": "uint256"
        },
        {
          "internalType": "string",
          "name": "tokenURI",
          "type": "string"
        },
        {
          "internalType": "uint256",
          "name": "price",
          "type": "uint256"
        },
        {
          "internalType": "address",
          "name": "buyer",
          "type": "address"
        },
        {
          "internalType": "bool",
          "name": "approved",
          "type": "bool"
        }
      ],
      "stateMutability": "view",
      "type": "function"
    },
    {
      "inputs": [],
      "name": "owner",
      "outputs": [
        {
          "internalType": "address",
          "name": "",
          "type": "address"
        }
      ],
      "stateMutability": "view",
      "type": "function"
    },
    {
      "inputs": [
        {
          "internalType": "uint256",
          "name": "index",
          "type": "uint256"
        }
      ],
      "name": "payee",
      "outputs": [
        {
          "internalType": "address",
          "name": "",
          "type": "address"
        }
      ],
      "stateMutability": "view",
      "type": "function"
    },
    {
      "inputs": [
        {
          "internalType": "address",
          "name": "account",
          "type": "address"
        }
      ],
      "name": "releasable",
      "outputs": [
        {
          "internalType": "uint256",
          "name": "",
          "type": "uint256"
        }
      ],
      "stateMutability": "view",
      "type": "function"
    },
    {
      "inputs": [
        {
          "internalType": "contract IERC20",
          "name": "token",
          "type": "address"
        },
        {
          "internalType": "address",
          "name": "account",
          "type": "address"
        }
      ],
      "name": "releasable",
      "outputs": [
        {
          "internalType": "uint256",
          "name": "",
          "type": "uint256"
        }
      ],
      "stateMutability": "view",
      "type": "function"
    },
    {
      "inputs": [
        {
          "internalType": "address payable",
          "name": "account",
          "type": "address"
        }
      ],
      "name": "release",
      "outputs": [],
      "stateMutability": "nonpayable",
      "type": "function"
    },
    {
      "inputs": [
        {
          "internalType": "contract IERC20",
          "name": "token",
          "type": "address"
        },
        {
          "internalType": "address",
          "name": "account",
          "type": "address"
        }
      ],
      "name": "release",
      "outputs": [],
      "stateMutability": "nonpayable",
      "type": "function"
    },
    {
      "inputs": [
        {
          "internalType": "contract IERC20",
          "name": "token",
          "type": "address"
        },
        {
          "internalType": "address",
          "name": "account",
          "type": "address"
        }
      ],
      "name": "released",
      "outputs": [
        {
          "internalType": "uint256",
          "name": "",
          "type": "uint256"
        }
      ],
      "stateMutability": "view",
      "type": "function"
    },
    {
      "inputs": [
        {
          "internalType": "address",
          "name": "account",
          "type": "address"
        }
      ],
      "name": "released",
      "outputs": [
        {
          "internalType": "uint256",
          "name": "",
          "type": "uint256"
        }
      ],
      "stateMutability": "view",
      "type": "function"
    },
    {
      "inputs": [],
      "name": "renounceOwnership",
      "outputs": [],
      "stateMutability": "nonpayable",
      "type": "function"
    },
    {
      "inputs": [
        {
          "internalType": "address",
          "name": "account",
          "type": "address"
        }
      ],
      "name": "shares",
      "outputs": [
        {
          "internalType": "uint256",
          "name": "",
          "type": "uint256"
        }
      ],
      "stateMutability": "view",
      "type": "function"
    },
    {
      "inputs": [
        {
          "internalType": "contract IERC20",
          "name": "token",
          "type": "address"
        }
      ],
      "name": "totalReleased",
      "outputs": [
        {
          "internalType": "uint256",
          "name": "",
          "type": "uint256"
        }
      ],
      "stateMutability": "view",
      "type": "function"
    },
    {
      "inputs": [],
      "name": "totalReleased",
      "outputs": [
        {
          "internalType": "uint256",
          "name": "",
          "type": "uint256"
        }
      ],
      "stateMutability": "view",
      "type": "function"
    },
    {
      "inputs": [],
      "name": "totalShares",
      "outputs": [
        {
          "internalType": "uint256",
          "name": "",
          "type": "uint256"
        }
      ],
      "stateMutability": "view",
      "type": "function"
    },
    {
      "inputs": [
        {
          "internalType": "address",
          "name": "newOwner",
          "type": "address"
        }
      ],
      "name": "transferOwnership",
      "outputs": [],
      "stateMutability": "nonpayable",
      "type": "function"
    },
    {
      "stateMutability": "payable",
      "type": "receive"
    }
  ],
  "bytecode": "0x60806040526001600d553480156200001657600080fd5b50604051620059fd380380620059fd83398181016040528101906200003c919062000705565b82826200005e620000526200028d60201b60201c565b6200029560201b60201c565b600180819055508051825114620000ac576040517f08c379a0000000000000000000000000000000000000000000000000000000008152600401620000a39062000925565b60405180910390fd5b6000825111620000f3576040517f08c379a0000000000000000000000000000000000000000000000000000000008152600401620000ea90620009ad565b60405180910390fd5b60005b8251811015620001aa57620001948382815181106200013e577f4e487b7100000000000000000000000000000000000000000000000000000000600052603260045260246000fd5b602002602001015183838151811062000180577f4e487b7100000000000000000000000000000000000000000000000000000000600052603260045260246000fd5b60200260200101516200035960201b60201c565b8080620001a19062000b5a565b915050620000f6565b5050506000835111620001f4576040517f08c379a0000000000000000000000000000000000000000000000000000000008152600401620001eb9062000969565b60405180910390fd5b81518351146200023b576040517f08c379a0000000000000000000000000000000000000000000000000000000008152600401620002329062000947565b60405180910390fd5b83600960006101000a81548173ffffffffffffffffffffffffffffffffffffffff021916908373ffffffffffffffffffffffffffffffffffffffff16021790555080600a819055505050505062000e02565b600033905090565b60008060009054906101000a900473ffffffffffffffffffffffffffffffffffffffff169050816000806101000a81548173ffffffffffffffffffffffffffffffffffffffff021916908373ffffffffffffffffffffffffffffffffffffffff1602179055508173ffffffffffffffffffffffffffffffffffffffff168173ffffffffffffffffffffffffffffffffffffffff167f8be0079c531659141344cd1fd0a4f28419497f9722a3daafe3b4186f6b6457e060405160405180910390a35050565b600073ffffffffffffffffffffffffffffffffffffffff168273ffffffffffffffffffffffffffffffffffffffff161415620003cc576040517f08c379a0000000000000000000000000000000000000000000000000000000008152600401620003c39062000903565b60405180910390fd5b6000811162000412576040517f08c379a00000000000000000000000000000000000000000000000000000000081526004016200040990620009cf565b60405180910390fd5b6000600460008473ffffffffffffffffffffffffffffffffffffffff1673ffffffffffffffffffffffffffffffffffffffff168152602001908152602001600020541462000497576040517f08c379a00000000000000000000000000000000000000000000000000000000081526004016200048e906200098b565b60405180910390fd5b6006829080600181540180825580915050600190039060005260206000200160009091909190916101000a81548173ffffffffffffffffffffffffffffffffffffffff021916908373ffffffffffffffffffffffffffffffffffffffff16021790555080600460008473ffffffffffffffffffffffffffffffffffffffff1673ffffffffffffffffffffffffffffffffffffffff16815260200190815260200160002081905550806002546200054e919062000a89565b6002819055507f40c340f65e17194d14ddddb073d3c9f888e3cb52b5aae0c6c7706b4fbc905fac828260405162000587929190620008d6565b60405180910390a15050565b6000620005aa620005a48462000a1a565b620009f1565b90508083825260208201905082856020860282011115620005ca57600080fd5b60005b85811015620005fe5781620005e388826200067d565b845260208401935060208301925050600181019050620005cd565b5050509392505050565b60006200061f620006198462000a49565b620009f1565b905080838252602082019050828560208602820111156200063f57600080fd5b60005b85811015620006735781620006588882620006ee565b84526020840193506020830192505060018101905062000642565b5050509392505050565b6000815190506200068e8162000dce565b92915050565b600082601f830112620006a657600080fd5b8151620006b884826020860162000593565b91505092915050565b600082601f830112620006d357600080fd5b8151620006e584826020860162000608565b91505092915050565b600081519050620006ff8162000de8565b92915050565b600080600080608085870312156200071c57600080fd5b60006200072c878288016200067d565b945050602085015167ffffffffffffffff8111156200074a57600080fd5b620007588782880162000694565b935050604085015167ffffffffffffffff8111156200077657600080fd5b6200078487828801620006c1565b92505060606200079787828801620006ee565b91505092959194509250565b620007ae8162000ae6565b82525050565b6000620007c3602c8362000a78565b9150620007d08262000c17565b604082019050919050565b6000620007ea60328362000a78565b9150620007f78262000c66565b604082019050919050565b60006200081160238362000a78565b91506200081e8262000cb5565b604082019050919050565b600062000838601e8362000a78565b9150620008458262000d04565b602082019050919050565b60006200085f602b8362000a78565b91506200086c8262000d2d565b604082019050919050565b600062000886601a8362000a78565b9150620008938262000d7c565b602082019050919050565b6000620008ad601d8362000a78565b9150620008ba8262000da5565b602082019050919050565b620008d08162000b1a565b82525050565b6000604082019050620008ed6000830185620007a3565b620008fc6020830184620008c5565b9392505050565b600060208201905081810360008301526200091e81620007b4565b9050919050565b600060208201905081810360008301526200094081620007db565b9050919050565b60006020820190508181036000830152620009628162000802565b9050919050565b60006020820190508181036000830152620009848162000829565b9050919050565b60006020820190508181036000830152620009a68162000850565b9050919050565b60006020820190508181036000830152620009c88162000877565b9050919050565b60006020820190508181036000830152620009ea816200089e565b9050919050565b6000620009fd62000a10565b905062000a0b828262000b24565b919050565b6000604051905090565b600067ffffffffffffffff82111562000a385762000a3762000bd7565b5b602082029050602081019050919050565b600067ffffffffffffffff82111562000a675762000a6662000bd7565b5b602082029050602081019050919050565b600082825260208201905092915050565b600062000a968262000b1a565b915062000aa38362000b1a565b9250827fffffffffffffffffffffffffffffffffffffffffffffffffffffffffffffffff0382111562000adb5762000ada62000ba8565b5b828201905092915050565b600062000af38262000afa565b9050919050565b600073ffffffffffffffffffffffffffffffffffffffff82169050919050565b6000819050919050565b62000b2f8262000c06565b810181811067ffffffffffffffff8211171562000b515762000b5062000bd7565b5b80604052505050565b600062000b678262000b1a565b91507fffffffffffffffffffffffffffffffffffffffffffffffffffffffffffffffff82141562000b9d5762000b9c62000ba8565b5b600182019050919050565b7f4e487b7100000000000000000000000000000000000000000000000000000000600052601160045260246000fd5b7f4e487b7100000000000000000000000000000000000000000000000000000000600052604160045260246000fd5b6000601f19601f8301169050919050565b7f5061796d656e7453706c69747465723a206163636f756e74206973207468652060008201527f7a65726f20616464726573730000000000000000000000000000000000000000602082015250565b7f5061796d656e7453706c69747465723a2070617965657320616e64207368617260008201527f6573206c656e677468206d69736d617463680000000000000000000000000000602082015250565b7f50617965657320616e6420736861726573206c656e677468206d757374206d6160008201527f7463680000000000000000000000000000000000000000000000000000000000602082015250565b7f4174206c65617374206f6e652070617965652069732072657175697265640000600082015250565b7f5061796d656e7453706c69747465723a206163636f756e7420616c726561647960008201527f2068617320736861726573000000000000000000000000000000000000000000602082015250565b7f5061796d656e7453706c69747465723a206e6f20706179656573000000000000600082015250565b7f5061796d656e7453706c69747465723a20736861726573206172652030000000600082015250565b62000dd98162000ae6565b811462000de557600080fd5b50565b62000df38162000b1a565b811462000dff57600080fd5b50565b614beb8062000e126000396000f3fe60806040526004361061016a5760003560e01c80638b83209b116100d1578063ad9f20a61161008a578063ce7c2ac211610064578063ce7c2ac2146105ba578063d79779b2146105f7578063e33b7de314610634578063f2fde38b1461065f576101b1565b8063ad9f20a614610529578063c45ac05014610554578063cb917b9c14610591576101b1565b80638b83209b146103e15780638da5cb5b1461041e57806394383f14146104495780639852595c146104725780639b83cddc146104af578063a3f8eace146104ec576101b1565b8063424e657511610123578063424e6575146102cf57806348b75044146103105780635f85ad68146103395780636e7f767814610376578063715018a61461039f578063787954eb146103b6576101b1565b806301c11d96146101b657806307cb2994146101e1578063094a6aa414610222578063191655871461023e5780633a98ef3914610267578063406072a914610292576101b1565b366101b1577f6ef95f06320e7a25a04a175ca677b7052bdd97131872c2192525a629f51be770610198610688565b346040516101a7929190613a14565b60405180910390a1005b600080fd5b3480156101c257600080fd5b506101cb610690565b6040516101d89190613e7c565b60405180910390f35b3480156101ed57600080fd5b50610208600480360381019061020391906131b7565b61069e565b604051610219959493929190613e97565b60405180910390f35b61023c60048036038101906102379190613245565b6107f4565b005b34801561024a57600080fd5b50610265600480360381019061026091906130bf565b61106d565b005b34801561027357600080fd5b5061027c6111ed565b6040516102899190613e7c565b60405180910390f35b34801561029e57600080fd5b506102b960048036038101906102b4919061317b565b6111f7565b6040516102c69190613e7c565b60405180910390f35b3480156102db57600080fd5b506102f660048036038101906102f191906131b7565b61127e565b604051610307959493929190613e97565b60405180910390f35b34801561031c57600080fd5b506103376004803603810190610332919061317b565b611369565b005b34801561034557600080fd5b50610360600480360381019061035b91906132ac565b61157d565b60405161036d9190613a3d565b60405180910390f35b34801561038257600080fd5b5061039d600480360381019061039891906131b7565b6118c8565b005b3480156103ab57600080fd5b506103b4611da5565b005b3480156103c257600080fd5b506103cb611db9565b6040516103d89190613e7c565b60405180910390f35b3480156103ed57600080fd5b50610408600480360381019061040391906131b7565b611dbf565b6040516104159190613932565b60405180910390f35b34801561042a57600080fd5b50610433611e2d565b6040516104409190613932565b60405180910390f35b34801561045557600080fd5b50610470600480360381019061046b9190613209565b611e56565b005b34801561047e57600080fd5b506104996004803603810190610494919061306d565b61232e565b6040516104a69190613e7c565b60405180910390f35b3480156104bb57600080fd5b506104d660048036038101906104d191906131b7565b612377565b6040516104e39190613a5f565b60405180910390f35b3480156104f857600080fd5b50610513600480360381019061050e919061306d565b6123a1565b6040516105209190613e7c565b60405180910390f35b34801561053557600080fd5b5061053e6123d4565b60405161054b9190613e7c565b60405180910390f35b34801561056057600080fd5b5061057b6004803603810190610576919061317b565b6123df565b6040516105889190613e7c565b60405180910390f35b34801561059d57600080fd5b506105b860048036038101906105b391906131b7565b61249d565b005b3480156105c657600080fd5b506105e160048036038101906105dc919061306d565b6126be565b6040516105ee9190613e7c565b60405180910390f35b34801561060357600080fd5b5061061e60048036038101906106199190613152565b612707565b60405161062b9190613e7c565b60405180910390f35b34801561064057600080fd5b50610649612750565b6040516106569190613e7c565b60405180910390f35b34801561066b57600080fd5b506106866004803603810190610681919061306d565b61275a565b005b600033905090565b69021e19e0c9bab240000081565b600060606000806000600d54861080156106b9575060018610155b6106f8576040517f08c379a00000000000000000000000000000000000000000000000000000000081526004016106ef90613a9c565b60405180910390fd5b6000600c6000888152602001908152602001600020905080600001548160010182600201548360030160009054906101000a900473ffffffffffffffffffffffffffffffffffffffff168460030160149054906101000a900460ff1683805461076090614298565b80601f016020809104026020016040519081016040528092919081815260200182805461078c90614298565b80156107d95780601f106107ae576101008083540402835291602001916107d9565b820191906000526020600020905b8154815290600101906020018083116107bc57829003601f168201915b50505050509350955095509550955095505091939590929450565b6107fc6127de565b60008060008514610c9557600b600086815260200190815260200160002060009054906101000a900460ff16610867576040517f08c379a000000000000000000000000000000000000000000000000000000000815260040161085e90613cdc565b60405180910390fd5b600960009054906101000a900473ffffffffffffffffffffffffffffffffffffffff1673ffffffffffffffffffffffffffffffffffffffff1663e7572230866040518263ffffffff1660e01b81526004016108c29190613e7c565b60206040518083038186803b1580156108da57600080fd5b505afa1580156108ee573d6000803e3d6000fd5b505050506040513d601f19601f8201168201806040525081019061091291906131e0565b9150600960009054906101000a900473ffffffffffffffffffffffffffffffffffffffff1673ffffffffffffffffffffffffffffffffffffffff16636352211e866040518263ffffffff1660e01b815260040161096f9190613e7c565b60206040518083038186803b15801561098757600080fd5b505afa15801561099b573d6000803e3d6000fd5b505050506040513d601f19601f820116820180604052508101906109bf9190613096565b90503373ffffffffffffffffffffffffffffffffffffffff168173ffffffffffffffffffffffffffffffffffffffff161415610a30576040517f08c379a0000000000000000000000000000000000000000000000000000000008152600401610a2790613c1c565b60405180910390fd5b813414610a72576040517f08c379a0000000000000000000000000000000000000000000000000000000008152600401610a6990613c7c565b60405180910390fd5b6000610a9c6064610a8e600a548661282e90919063ffffffff16565b61284490919063ffffffff16565b9050808311610ae0576040517f08c379a0000000000000000000000000000000000000000000000000000000008152600401610ad790613c5c565b60405180910390fd5b6000610af5828561285a90919063ffffffff16565b90506000600b600089815260200190815260200160002060006101000a81548160ff02191690831515021790555060008373ffffffffffffffffffffffffffffffffffffffff1682604051610b499061391d565b60006040518083038185875af1925050503d8060008114610b86576040519150601f19603f3d011682016040523d82523d6000602084013e610b8b565b606091505b5050905080610bcf576040517f08c379a0000000000000000000000000000000000000000000000000000000008152600401610bc690613d5c565b60405180910390fd5b600960009054906101000a900473ffffffffffffffffffffffffffffffffffffffff1673ffffffffffffffffffffffffffffffffffffffff166323b872dd85338b6040518463ffffffff1660e01b8152600401610c2e9392919061399f565b600060405180830381600087803b158015610c4857600080fd5b505af1158015610c5c573d6000803e3d6000fd5b50505050877ff1a4f188d8f608af032a64d403473119856aae541d836c6a78e2187e809c330760405160405180910390a250505061105e565b662386f26fc10000341015610cdf576040517f08c379a0000000000000000000000000000000000000000000000000000000008152600401610cd690613abc565b60405180910390fd5b69021e19e0c9bab2400000341115610d2c576040517f08c379a0000000000000000000000000000000000000000000000000000000008152600401610d2390613bfc565b60405180910390fd5b6000835111610d70576040517f08c379a0000000000000000000000000000000000000000000000000000000008152600401610d6790613d1c565b60405180910390fd5b6001841415610db4576040517f08c379a0000000000000000000000000000000000000000000000000000000008152600401610dab90613d7c565b60405180910390fd5b6000841415610df8576040517f08c379a0000000000000000000000000000000000000000000000000000000008152600401610def90613dbc565b60405180910390fd5b6000600960009054906101000a900473ffffffffffffffffffffffffffffffffffffffff1673ffffffffffffffffffffffffffffffffffffffff1663394120c0866040518263ffffffff1660e01b8152600401610e559190613e7c565b60206040518083038186803b158015610e6d57600080fd5b505afa158015610e81573d6000803e3d6000fd5b505050506040513d601f19601f82011682018060405250810190610ea59190613096565b90503373ffffffffffffffffffffffffffffffffffffffff168173ffffffffffffffffffffffffffffffffffffffff161415610f16576040517f08c379a0000000000000000000000000000000000000000000000000000000008152600401610f0d90613dfc565b60405180910390fd5b6040518060a001604052808681526020018581526020013481526020013373ffffffffffffffffffffffffffffffffffffffff16815260200160001515815250600c6000600d548152602001908152602001600020600082015181600001556020820151816001019080519060200190610f91929190612e39565b506040820151816002015560608201518160030160006101000a81548173ffffffffffffffffffffffffffffffffffffffff021916908373ffffffffffffffffffffffffffffffffffffffff16021790555060808201518160030160146101000a81548160ff021916908315150217905550905050600d547f0514ef6e9a15654bb97b2d44afaa80921232b56180326dd4966e01ecd230d23333863460405161103c939291906139d6565b60405180910390a2600d6000815480929190611057906142fb565b9190505550505b5050611068612870565b505050565b6000600460008373ffffffffffffffffffffffffffffffffffffffff1673ffffffffffffffffffffffffffffffffffffffff16815260200190815260200160002054116110ef576040517f08c379a00000000000000000000000000000000000000000000000000000000081526004016110e690613b5c565b60405180910390fd5b60006110fa826123a1565b90506000811415611140576040517f08c379a000000000000000000000000000000000000000000000000000000000815260040161113790613bdc565b60405180910390fd5b8060036000828254611152919061409f565b9250508190555080600560008473ffffffffffffffffffffffffffffffffffffffff1673ffffffffffffffffffffffffffffffffffffffff168152602001908152602001600020600082825401925050819055506111b08282612879565b7fdf20fd1e76bc69d672e4814fafb2c449bba3a5369d8359adf9e05e6fde87b05682826040516111e192919061394d565b60405180910390a15050565b6000600254905090565b6000600860008473ffffffffffffffffffffffffffffffffffffffff1673ffffffffffffffffffffffffffffffffffffffff16815260200190815260200160002060008373ffffffffffffffffffffffffffffffffffffffff1673ffffffffffffffffffffffffffffffffffffffff16815260200190815260200160002054905092915050565b600c6020528060005260406000206000915090508060000154908060010180546112a790614298565b80601f01602080910402602001604051908101604052809291908181526020018280546112d390614298565b80156113205780601f106112f557610100808354040283529160200191611320565b820191906000526020600020905b81548152906001019060200180831161130357829003601f168201915b5050505050908060020154908060030160009054906101000a900473ffffffffffffffffffffffffffffffffffffffff16908060030160149054906101000a900460ff16905085565b6000600460008373ffffffffffffffffffffffffffffffffffffffff1673ffffffffffffffffffffffffffffffffffffffff16815260200190815260200160002054116113eb576040517f08c379a00000000000000000000000000000000000000000000000000000000081526004016113e290613b5c565b60405180910390fd5b60006113f783836123df565b9050600081141561143d576040517f08c379a000000000000000000000000000000000000000000000000000000000815260040161143490613bdc565b60405180910390fd5b80600760008573ffffffffffffffffffffffffffffffffffffffff1673ffffffffffffffffffffffffffffffffffffffff168152602001908152602001600020600082825461148c919061409f565b9250508190555080600860008573ffffffffffffffffffffffffffffffffffffffff1673ffffffffffffffffffffffffffffffffffffffff16815260200190815260200160002060008473ffffffffffffffffffffffffffffffffffffffff1673ffffffffffffffffffffffffffffffffffffffff1681526020019081526020016000206000828254019250508190555061152883838361296d565b8273ffffffffffffffffffffffffffffffffffffffff167f3be5b7a71e84ed12875d241991c70855ac5817d847039e17a9d895c1ceb0f18a8383604051611570929190613a14565b60405180910390a2505050565b606060008267ffffffffffffffff8111156115c1577f4e487b7100000000000000000000000000000000000000000000000000000000600052604160045260246000fd5b6040519080825280602002602001820160405280156115ef5781602001602082028036833780820191505090505b509050600080600960009054906101000a900473ffffffffffffffffffffffffffffffffffffffff1673ffffffffffffffffffffffffffffffffffffffff1663d08b28ea8888886040518463ffffffff1660e01b815260040161165493929190613f66565b60006040518083038186803b15801561166c57600080fd5b505afa158015611680573d6000803e3d6000fd5b505050506040513d6000823e3d601f19601f820116820180604052508101906116a991906130e8565b90506000815114156116c0578293505050506118c1565b60005b81518110156117a0576000828281518110611707577f4e487b7100000000000000000000000000000000000000000000000000000000600052603260045260246000fd5b60200260200101519050600b600082815260200190815260200160002060009054906101000a900460ff161561178c5780858581518110611771577f4e487b7100000000000000000000000000000000000000000000000000000000600052603260045260246000fd5b6020026020010181815250508380611788906142fb565b9450505b508080611798906142fb565b9150506116c3565b5060008267ffffffffffffffff8111156117e3577f4e487b7100000000000000000000000000000000000000000000000000000000600052604160045260246000fd5b6040519080825280602002602001820160405280156118115781602001602082028036833780820191505090505b50905060005b838110156118b857848181518110611858577f4e487b7100000000000000000000000000000000000000000000000000000000600052603260045260246000fd5b6020026020010151828281518110611899577f4e487b7100000000000000000000000000000000000000000000000000000000600052603260045260246000fd5b60200260200101818152505080806118b0906142fb565b915050611817565b50809450505050505b9392505050565b6118d06127de565b6000600c60008381526020019081526020016000209050600073ffffffffffffffffffffffffffffffffffffffff168160030160009054906101000a900473ffffffffffffffffffffffffffffffffffffffff1673ffffffffffffffffffffffffffffffffffffffff16141561197b576040517f08c379a000000000000000000000000000000000000000000000000000000000815260040161197290613e3c565b60405180910390fd5b8060030160149054906101000a900460ff16156119cd576040517f08c379a00000000000000000000000000000000000000000000000000000000081526004016119c490613b3c565b60405180910390fd5b6000600960009054906101000a900473ffffffffffffffffffffffffffffffffffffffff1673ffffffffffffffffffffffffffffffffffffffff1663394120c083600001546040518263ffffffff1660e01b8152600401611a2e9190613e7c565b60206040518083038186803b158015611a4657600080fd5b505afa158015611a5a573d6000803e3d6000fd5b505050506040513d601f19601f82011682018060405250810190611a7e9190613096565b90503373ffffffffffffffffffffffffffffffffffffffff168173ffffffffffffffffffffffffffffffffffffffff1614611aee576040517f08c379a0000000000000000000000000000000000000000000000000000000008152600401611ae590613c9c565b60405180910390fd5b6000611b1c6064611b0e600a54866002015461282e90919063ffffffff16565b61284490919063ffffffff16565b905080836002015411611b64576040517f08c379a0000000000000000000000000000000000000000000000000000000008152600401611b5b90613c5c565b60405180910390fd5b6000611b7d82856002015461285a90919063ffffffff16565b905060008373ffffffffffffffffffffffffffffffffffffffff1682604051611ba59061391d565b60006040518083038185875af1925050503d8060008114611be2576040519150601f19603f3d011682016040523d82523d6000602084013e611be7565b606091505b5050905080611c2b576040517f08c379a0000000000000000000000000000000000000000000000000000000008152600401611c2290613cbc565b60405180910390fd5b6000600960009054906101000a900473ffffffffffffffffffffffffffffffffffffffff1673ffffffffffffffffffffffffffffffffffffffff1663b41a6e3487600001548860010189600201548a60030160009054906101000a900473ffffffffffffffffffffffffffffffffffffffff166040518563ffffffff1660e01b8152600401611cbd9493929190613ef1565b602060405180830381600087803b158015611cd757600080fd5b505af1158015611ceb573d6000803e3d6000fd5b505050506040513d601f19601f82011682018060405250810190611d0f91906131e0565b905060018660030160146101000a81548160ff0219169083151502179055507febe8a5caf534027cd489966391b45060b1030eb8db4cd6e20429d7bc1cdf95958782604051611d5f929190613f3d565b60405180910390a1807ff1a4f188d8f608af032a64d403473119856aae541d836c6a78e2187e809c330760405160405180910390a2505050505050611da2612870565b50565b611dad6129f3565b611db76000612a71565b565b600d5481565b600060068281548110611dfb577f4e487b7100000000000000000000000000000000000000000000000000000000600052603260045260246000fd5b9060005260206000200160009054906101000a900473ffffffffffffffffffffffffffffffffffffffff169050919050565b60008060009054906101000a900473ffffffffffffffffffffffffffffffffffffffff16905090565b611e5e6127de565b662386f26fc10000811015611ea8576040517f08c379a0000000000000000000000000000000000000000000000000000000008152600401611e9f90613abc565b60405180910390fd5b69021e19e0c9bab2400000811115611ef5576040517f08c379a0000000000000000000000000000000000000000000000000000000008152600401611eec90613bfc565b60405180910390fd5b600b600083815260200190815260200160002060009054906101000a900460ff1615611f56576040517f08c379a0000000000000000000000000000000000000000000000000000000008152600401611f4d90613c3c565b60405180910390fd5b3373ffffffffffffffffffffffffffffffffffffffff16600960009054906101000a900473ffffffffffffffffffffffffffffffffffffffff1673ffffffffffffffffffffffffffffffffffffffff16636352211e846040518263ffffffff1660e01b8152600401611fc89190613e7c565b60206040518083038186803b158015611fe057600080fd5b505afa158015611ff4573d6000803e3d6000fd5b505050506040513d601f19601f820116820180604052508101906120189190613096565b73ffffffffffffffffffffffffffffffffffffffff161461206e576040517f08c379a000000000000000000000000000000000000000000000000000000000815260040161206590613e5c565b60405180910390fd5b600960009054906101000a900473ffffffffffffffffffffffffffffffffffffffff1673ffffffffffffffffffffffffffffffffffffffff1663e985e9c533306040518363ffffffff1660e01b81526004016120cb929190613976565b60206040518083038186803b1580156120e357600080fd5b505afa1580156120f7573d6000803e3d6000fd5b505050506040513d601f19601f8201168201806040525081019061211b9190613129565b806121fb57503073ffffffffffffffffffffffffffffffffffffffff16600960009054906101000a900473ffffffffffffffffffffffffffffffffffffffff1673ffffffffffffffffffffffffffffffffffffffff1663081812fc846040518263ffffffff1660e01b81526004016121939190613e7c565b60206040518083038186803b1580156121ab57600080fd5b505afa1580156121bf573d6000803e3d6000fd5b505050506040513d601f19601f820116820180604052508101906121e39190613096565b73ffffffffffffffffffffffffffffffffffffffff16145b61223a576040517f08c379a000000000000000000000000000000000000000000000000000000000815260040161223190613d3c565b60405180910390fd5b600960009054906101000a900473ffffffffffffffffffffffffffffffffffffffff1673ffffffffffffffffffffffffffffffffffffffff1663f7d9757783836040518363ffffffff1660e01b8152600401612297929190613f3d565b600060405180830381600087803b1580156122b157600080fd5b505af11580156122c5573d6000803e3d6000fd5b505050506001600b600084815260200190815260200160002060006101000a81548160ff021916908315150217905550817fdb1fd9bae40110b73b6592270632b19e60d204d52ee5cd72c60d076e6bdd342f60405160405180910390a261232a612870565b5050565b6000600560008373ffffffffffffffffffffffffffffffffffffffff1673ffffffffffffffffffffffffffffffffffffffff168152602001908152602001600020549050919050565b6000600b600083815260200190815260200160002060009054906101000a900460ff169050919050565b6000806123ac612750565b476123b7919061409f565b90506123cc83826123c78661232e565b612b35565b915050919050565b662386f26fc1000081565b6000806123eb84612707565b8473ffffffffffffffffffffffffffffffffffffffff166370a08231306040518263ffffffff1660e01b81526004016124249190613932565b60206040518083038186803b15801561243c57600080fd5b505afa158015612450573d6000803e3d6000fd5b505050506040513d601f19601f8201168201806040525081019061247491906131e0565b61247e919061409f565b9050612494838261248f87876111f7565b612b35565b91505092915050565b6124a56127de565b600960009054906101000a900473ffffffffffffffffffffffffffffffffffffffff1673ffffffffffffffffffffffffffffffffffffffff16636352211e826040518263ffffffff1660e01b81526004016125009190613e7c565b60206040518083038186803b15801561251857600080fd5b505afa15801561252c573d6000803e3d6000fd5b505050506040513d601f19601f820116820180604052508101906125509190613096565b73ffffffffffffffffffffffffffffffffffffffff163373ffffffffffffffffffffffffffffffffffffffff1614806125bb575061258c611e2d565b73ffffffffffffffffffffffffffffffffffffffff163373ffffffffffffffffffffffffffffffffffffffff16145b6125fa576040517f08c379a00000000000000000000000000000000000000000000000000000000081526004016125f190613b1c565b60405180910390fd5b600b600082815260200190815260200160002060009054906101000a900460ff1661265a576040517f08c379a000000000000000000000000000000000000000000000000000000000815260040161265190613afc565b60405180910390fd5b6000600b600083815260200190815260200160002060006101000a81548160ff021916908315150217905550807fc0c55a6edead4433d18cb1e287a0a20a2fa003a6f483bc9823d2e504d70d1c6760405160405180910390a26126bb612870565b50565b6000600460008373ffffffffffffffffffffffffffffffffffffffff1673ffffffffffffffffffffffffffffffffffffffff168152602001908152602001600020549050919050565b6000600760008373ffffffffffffffffffffffffffffffffffffffff1673ffffffffffffffffffffffffffffffffffffffff168152602001908152602001600020549050919050565b6000600354905090565b6127626129f3565b600073ffffffffffffffffffffffffffffffffffffffff168173ffffffffffffffffffffffffffffffffffffffff1614156127d2576040517f08c379a00000000000000000000000000000000000000000000000000000000081526004016127c990613adc565b60405180910390fd5b6127db81612a71565b50565b60026001541415612824576040517f08c379a000000000000000000000000000000000000000000000000000000000815260040161281b90613e1c565b60405180910390fd5b6002600181905550565b6000818361283c9190614126565b905092915050565b6000818361285291906140f5565b905092915050565b600081836128689190614180565b905092915050565b60018081905550565b804710156128bc576040517f08c379a00000000000000000000000000000000000000000000000000000000081526004016128b390613b9c565b60405180910390fd5b60008273ffffffffffffffffffffffffffffffffffffffff16826040516128e29061391d565b60006040518083038185875af1925050503d806000811461291f576040519150601f19603f3d011682016040523d82523d6000602084013e612924565b606091505b5050905080612968576040517f08c379a000000000000000000000000000000000000000000000000000000000815260040161295f90613b7c565b60405180910390fd5b505050565b6129ee8363a9059cbb60e01b848460405160240161298c929190613a14565b604051602081830303815290604052907bffffffffffffffffffffffffffffffffffffffffffffffffffffffff19166020820180517bffffffffffffffffffffffffffffffffffffffffffffffffffffffff8381831617835250505050612ba3565b505050565b6129fb610688565b73ffffffffffffffffffffffffffffffffffffffff16612a19611e2d565b73ffffffffffffffffffffffffffffffffffffffff1614612a6f576040517f08c379a0000000000000000000000000000000000000000000000000000000008152600401612a6690613cfc565b60405180910390fd5b565b60008060009054906101000a900473ffffffffffffffffffffffffffffffffffffffff169050816000806101000a81548173ffffffffffffffffffffffffffffffffffffffff021916908373ffffffffffffffffffffffffffffffffffffffff1602179055508173ffffffffffffffffffffffffffffffffffffffff168173ffffffffffffffffffffffffffffffffffffffff167f8be0079c531659141344cd1fd0a4f28419497f9722a3daafe3b4186f6b6457e060405160405180910390a35050565b600081600254600460008773ffffffffffffffffffffffffffffffffffffffff1673ffffffffffffffffffffffffffffffffffffffff1681526020019081526020016000205485612b869190614126565b612b9091906140f5565b612b9a9190614180565b90509392505050565b6000612c05826040518060400160405280602081526020017f5361666545524332303a206c6f772d6c6576656c2063616c6c206661696c65648152508573ffffffffffffffffffffffffffffffffffffffff16612c6b9092919063ffffffff16565b9050600081511480612c27575080806020019051810190612c269190613129565b5b612c66576040517f08c379a0000000000000000000000000000000000000000000000000000000008152600401612c5d90613ddc565b60405180910390fd5b505050565b6060612c7a8484600085612c83565b90509392505050565b606082471015612cc8576040517f08c379a0000000000000000000000000000000000000000000000000000000008152600401612cbf90613bbc565b60405180910390fd5b6000808673ffffffffffffffffffffffffffffffffffffffff168587604051612cf19190613906565b60006040518083038185875af1925050503d8060008114612d2e576040519150601f19603f3d011682016040523d82523d6000602084013e612d33565b606091505b5091509150612d4487838387612d50565b92505050949350505050565b60608315612db357600083511415612dab57612d6b85612dc6565b612daa576040517f08c379a0000000000000000000000000000000000000000000000000000000008152600401612da190613d9c565b60405180910390fd5b5b829050612dbe565b612dbd8383612de9565b5b949350505050565b6000808273ffffffffffffffffffffffffffffffffffffffff163b119050919050565b600082511115612dfc5781518083602001fd5b806040517f08c379a0000000000000000000000000000000000000000000000000000000008152600401612e309190613a7a565b60405180910390fd5b828054612e4590614298565b90600052602060002090601f016020900481019282612e675760008555612eae565b82601f10612e8057805160ff1916838001178555612eae565b82800160010185558215612eae579182015b82811115612ead578251825591602001919060010190612e92565b5b509050612ebb9190612ebf565b5090565b5b80821115612ed8576000816000905550600101612ec0565b5090565b6000612eef612eea84613fc2565b613f9d565b90508083825260208201905082856020860282011115612f0e57600080fd5b60005b85811015612f3e5781612f248882613058565b845260208401935060208301925050600181019050612f11565b5050509392505050565b6000612f5b612f5684613fee565b613f9d565b905082815260208101848484011115612f7357600080fd5b612f7e848285614256565b509392505050565b600081359050612f9581614b42565b92915050565b600081519050612faa81614b42565b92915050565b600081359050612fbf81614b59565b92915050565b600082601f830112612fd657600080fd5b8151612fe6848260208601612edc565b91505092915050565b600081519050612ffe81614b70565b92915050565b60008135905061301381614b87565b92915050565b600082601f83011261302a57600080fd5b813561303a848260208601612f48565b91505092915050565b60008135905061305281614b9e565b92915050565b60008151905061306781614b9e565b92915050565b60006020828403121561307f57600080fd5b600061308d84828501612f86565b91505092915050565b6000602082840312156130a857600080fd5b60006130b684828501612f9b565b91505092915050565b6000602082840312156130d157600080fd5b60006130df84828501612fb0565b91505092915050565b6000602082840312156130fa57600080fd5b600082015167ffffffffffffffff81111561311457600080fd5b61312084828501612fc5565b91505092915050565b60006020828403121561313b57600080fd5b600061314984828501612fef565b91505092915050565b60006020828403121561316457600080fd5b600061317284828501613004565b91505092915050565b6000806040838503121561318e57600080fd5b600061319c85828601613004565b92505060206131ad85828601612f86565b9150509250929050565b6000602082840312156131c957600080fd5b60006131d784828501613043565b91505092915050565b6000602082840312156131f257600080fd5b600061320084828501613058565b91505092915050565b6000806040838503121561321c57600080fd5b600061322a85828601613043565b925050602061323b85828601613043565b9150509250929050565b60008060006060848603121561325a57600080fd5b600061326886828701613043565b935050602061327986828701613043565b925050604084013567ffffffffffffffff81111561329657600080fd5b6132a286828701613019565b9150509250925092565b6000806000606084860312156132c157600080fd5b60006132cf86828701613043565b93505060206132e086828701613043565b92505060406132f186828701613043565b9150509250925092565b600061330783836138e8565b60208301905092915050565b61331c81614220565b82525050565b61332b816141b4565b82525050565b600061333c82614044565b6133468185614072565b93506133518361401f565b8060005b8381101561338257815161336988826132fb565b975061337483614065565b925050600181019050613355565b5085935050505092915050565b613398816141d8565b82525050565b60006133a98261404f565b6133b38185614083565b93506133c3818560208601614265565b80840191505092915050565b60006133da8261405a565b6133e4818561408e565b93506133f4818560208601614265565b6133fd81614400565b840191505092915050565b6000815461341581614298565b61341f818661408e565b9450600182166000811461343a576001811461344c5761347f565b60ff198316865260208601935061347f565b6134558561402f565b60005b8381101561347757815481890152600182019150602081019050613458565b808801955050505b50505092915050565b600061349560228361408e565b91506134a082614411565b604082019050919050565b60006134b860208361408e565b91506134c382614460565b602082019050919050565b60006134db60268361408e565b91506134e682614489565b604082019050919050565b60006134fe600e8361408e565b9150613509826144d8565b602082019050919050565b600061352160298361408e565b915061352c82614501565b604082019050919050565b6000613544601d8361408e565b915061354f82614550565b602082019050919050565b600061356760268361408e565b915061357282614579565b604082019050919050565b600061358a603a8361408e565b9150613595826145c8565b604082019050919050565b60006135ad601d8361408e565b91506135b882614617565b602082019050919050565b60006135d060268361408e565b91506135db82614640565b604082019050919050565b60006135f3602b8361408e565b91506135fe8261468f565b604082019050919050565b6000613616601f8361408e565b9150613621826146de565b602082019050919050565b6000613639601e8361408e565b915061364482614707565b602082019050919050565b600061365c60128361408e565b915061366782614730565b602082019050919050565b600061367f602b8361408e565b915061368a82614759565b604082019050919050565b60006136a260278361408e565b91506136ad826147a8565b604082019050919050565b60006136c560368361408e565b91506136d0826147f7565b604082019050919050565b60006136e860248361408e565b91506136f382614846565b604082019050919050565b600061370b60178361408e565b915061371682614895565b602082019050919050565b600061372e60208361408e565b9150613739826148be565b602082019050919050565b600061375160218361408e565b915061375c826148e7565b604082019050919050565b6000613774602a8361408e565b915061377f82614936565b604082019050919050565b6000613797601d8361408e565b91506137a282614985565b602082019050919050565b60006137ba600083614083565b91506137c5826149ae565b600082019050919050565b60006137dd60008361408e565b91506137e8826149ae565b600082019050919050565b6000613800601d8361408e565b915061380b826149b1565b602082019050919050565b600061382360258361408e565b915061382e826149da565b604082019050919050565b6000613846602a8361408e565b915061385182614a29565b604082019050919050565b600061386960408361408e565b915061387482614a78565b604082019050919050565b600061388c601f8361408e565b915061389782614ac7565b602082019050919050565b60006138af601b8361408e565b91506138ba82614af0565b602082019050919050565b60006138d260188361408e565b91506138dd82614b19565b602082019050919050565b6138f181614216565b82525050565b61390081614216565b82525050565b6000613912828461339e565b915081905092915050565b6000613928826137ad565b9150819050919050565b60006020820190506139476000830184613322565b92915050565b60006040820190506139626000830185613313565b61396f60208301846138f7565b9392505050565b600060408201905061398b6000830185613322565b6139986020830184613322565b9392505050565b60006060820190506139b46000830186613322565b6139c16020830185613322565b6139ce60408301846138f7565b949350505050565b60006060820190506139eb6000830186613322565b81810360208301526139fd81856133cf565b9050613a0c60408301846138f7565b949350505050565b6000604082019050613a296000830185613322565b613a3660208301846138f7565b9392505050565b60006020820190508181036000830152613a578184613331565b905092915050565b6000602082019050613a74600083018461338f565b92915050565b60006020820190508181036000830152613a9481846133cf565b905092915050565b60006020820190508181036000830152613ab581613488565b9050919050565b60006020820190508181036000830152613ad5816134ab565b9050919050565b60006020820190508181036000830152613af5816134ce565b9050919050565b60006020820190508181036000830152613b15816134f1565b9050919050565b60006020820190508181036000830152613b3581613514565b9050919050565b60006020820190508181036000830152613b5581613537565b9050919050565b60006020820190508181036000830152613b758161355a565b9050919050565b60006020820190508181036000830152613b958161357d565b9050919050565b60006020820190508181036000830152613bb5816135a0565b9050919050565b60006020820190508181036000830152613bd5816135c3565b9050919050565b60006020820190508181036000830152613bf5816135e6565b9050919050565b60006020820190508181036000830152613c1581613609565b9050919050565b60006020820190508181036000830152613c358161362c565b9050919050565b60006020820190508181036000830152613c558161364f565b9050919050565b60006020820190508181036000830152613c7581613672565b9050919050565b60006020820190508181036000830152613c9581613695565b9050919050565b60006020820190508181036000830152613cb5816136b8565b9050919050565b60006020820190508181036000830152613cd5816136db565b9050919050565b60006020820190508181036000830152613cf5816136fe565b9050919050565b60006020820190508181036000830152613d1581613721565b9050919050565b60006020820190508181036000830152613d3581613744565b9050919050565b60006020820190508181036000830152613d5581613767565b9050919050565b60006020820190508181036000830152613d758161378a565b9050919050565b60006020820190508181036000830152613d95816137d0565b9050919050565b60006020820190508181036000830152613db5816137f3565b9050919050565b60006020820190508181036000830152613dd581613816565b9050919050565b60006020820190508181036000830152613df581613839565b9050919050565b60006020820190508181036000830152613e158161385c565b9050919050565b60006020820190508181036000830152613e358161387f565b9050919050565b60006020820190508181036000830152613e55816138a2565b9050919050565b60006020820190508181036000830152613e75816138c5565b9050919050565b6000602082019050613e9160008301846138f7565b92915050565b600060a082019050613eac60008301886138f7565b8181036020830152613ebe81876133cf565b9050613ecd60408301866138f7565b613eda6060830185613322565b613ee7608083018461338f565b9695505050505050565b6000608082019050613f0660008301876138f7565b8181036020830152613f188186613408565b9050613f2760408301856138f7565b613f346060830184613322565b95945050505050565b6000604082019050613f5260008301856138f7565b613f5f60208301846138f7565b9392505050565b6000606082019050613f7b60008301866138f7565b613f8860208301856138f7565b613f9560408301846138f7565b949350505050565b6000613fa7613fb8565b9050613fb382826142ca565b919050565b6000604051905090565b600067ffffffffffffffff821115613fdd57613fdc6143d1565b5b602082029050602081019050919050565b600067ffffffffffffffff821115614009576140086143d1565b5b61401282614400565b9050602081019050919050565b6000819050602082019050919050565b60008190508160005260206000209050919050565b600081519050919050565b600081519050919050565b600081519050919050565b6000602082019050919050565b600082825260208201905092915050565b600081905092915050565b600082825260208201905092915050565b60006140aa82614216565b91506140b583614216565b9250827fffffffffffffffffffffffffffffffffffffffffffffffffffffffffffffffff038211156140ea576140e9614344565b5b828201905092915050565b600061410082614216565b915061410b83614216565b92508261411b5761411a614373565b5b828204905092915050565b600061413182614216565b915061413c83614216565b9250817fffffffffffffffffffffffffffffffffffffffffffffffffffffffffffffffff048311821515161561417557614174614344565b5b828202905092915050565b600061418b82614216565b915061419683614216565b9250828210156141a9576141a8614344565b5b828203905092915050565b60006141bf826141f6565b9050919050565b60006141d1826141f6565b9050919050565b60008115159050919050565b60006141ef826141b4565b9050919050565b600073ffffffffffffffffffffffffffffffffffffffff82169050919050565b6000819050919050565b600061422b82614232565b9050919050565b600061423d82614244565b9050919050565b600061424f826141f6565b9050919050565b82818337600083830152505050565b60005b83811015614283578082015181840152602081019050614268565b83811115614292576000848401525b50505050565b600060028204905060018216806142b057607f821691505b602082108114156142c4576142c36143a2565b5b50919050565b6142d382614400565b810181811067ffffffffffffffff821117156142f2576142f16143d1565b5b80604052505050565b600061430682614216565b91507fffffffffffffffffffffffffffffffffffffffffffffffffffffffffffffffff82141561433957614338614344565b5b600182019050919050565b7f4e487b7100000000000000000000000000000000000000000000000000000000600052601160045260246000fd5b7f4e487b7100000000000000000000000000000000000000000000000000000000600052601260045260246000fd5b7f4e487b7100000000000000000000000000000000000000000000000000000000600052602260045260246000fd5b7f4e487b7100000000000000000000000000000000000000000000000000000000600052604160045260246000fd5b6000601f19601f8301169050919050565b7f5468652070726f7669646564207265717565737420494420697320696e76616c60008201527f6964000000000000000000000000000000000000000000000000000000000000602082015250565b7f5072696365206d757374206265206174206c65617374204d494e5f5052494345600082015250565b7f4f776e61626c653a206e6577206f776e657220697320746865207a65726f206160008201527f6464726573730000000000000000000000000000000000000000000000000000602082015250565b7f4e4654206e6f74206c6973746564000000000000000000000000000000000000600082015250565b7f43616c6c6572206973206e6f74206f776e6572206f66204e4654206f72206d6160008201527f726b6574706c6163650000000000000000000000000000000000000000000000602082015250565b7f4d696e74207265717565737420616c726561647920617070726f766564000000600082015250565b7f5061796d656e7453706c69747465723a206163636f756e7420686173206e6f2060008201527f7368617265730000000000000000000000000000000000000000000000000000602082015250565b7f416464726573733a20756e61626c6520746f2073656e642076616c75652c207260008201527f6563697069656e74206d61792068617665207265766572746564000000000000602082015250565b7f416464726573733a20696e73756666696369656e742062616c616e6365000000600082015250565b7f416464726573733a20696e73756666696369656e742062616c616e636520666f60008201527f722063616c6c0000000000000000000000000000000000000000000000000000602082015250565b7f5061796d656e7453706c69747465723a206163636f756e74206973206e6f742060008201527f647565207061796d656e74000000000000000000000000000000000000000000602082015250565b7f5072696365206d757374206e6f7420657863656564204d41585f505249434500600082015250565b7f4f776e65722063616e6e6f7420627579207468656972206f776e204e46540000600082015250565b7f4e465420616c7265616479206c69737465640000000000000000000000000000600082015250565b7f50726963652073686f756c6420626520686967686572207468616e20746f746160008201527f6c20726f79616c74696573000000000000000000000000000000000000000000602082015250565b7f53656e742076616c756520646f6573206e6f74206d6174636820746865204e4660008201527f5420707269636500000000000000000000000000000000000000000000000000602082015250565b7f4f6e6c792074686520636f6c6c656374696f6e206f776e65722063616e20617060008201527f70726f766520746865206d696e74207265717565737400000000000000000000602082015250565b7f5472616e7366657220746f20436f6c6c656374696f6e206f776e65722066616960008201527f6c65642e00000000000000000000000000000000000000000000000000000000602082015250565b7f4e4654206e6f74206c697374656420666f722073616c65000000000000000000600082015250565b7f4f776e61626c653a2063616c6c6572206973206e6f7420746865206f776e6572600082015250565b7f546f6b656e2055524920697320726571756972656420666f72206d696e74696e60008201527f6700000000000000000000000000000000000000000000000000000000000000602082015250565b7f4d75737420617070726f7665206d61726b6574706c61636520746f206d616e6160008201527f676520746865204e465400000000000000000000000000000000000000000000602082015250565b7f5472616e7366657220746f204e4654206f776e6572206661696c65642e000000600082015250565b50565b7f416464726573733a2063616c6c20746f206e6f6e2d636f6e7472616374000000600082015250565b7f436f6c6c656374696f6e20494420697320726571756972656420666f72206d6960008201527f6e74696e67000000000000000000000000000000000000000000000000000000602082015250565b7f5361666545524332303a204552433230206f7065726174696f6e20646964206e60008201527f6f74207375636365656400000000000000000000000000000000000000000000602082015250565b7f436f6c6c656374696f6e206f776e65722073686f756c64206e6f74207265717560008201527f657374204e46547320696e207468656972206f776e20636f6c6c656374696f6e602082015250565b7f5265656e7472616e637947756172643a207265656e7472616e742063616c6c00600082015250565b7f4d696e74207265717565737420646f6573206e6f742065786973740000000000600082015250565b7f4d757374206265206f776e6572206f6620746865204e46540000000000000000600082015250565b614b4b816141b4565b8114614b5657600080fd5b50565b614b62816141c6565b8114614b6d57600080fd5b50565b614b79816141d8565b8114614b8457600080fd5b50565b614b90816141e4565b8114614b9b57600080fd5b50565b614ba781614216565b8114614bb257600080fd5b5056fea2646970667358221220e529510af39f19b7598585d72e1fdfaaca9d2bb84248646f56d6b127f709585a64736f6c63430008010033",
  "linkReferences": {},
  "deployedLinkReferences": {}
}