{
  "_format": "hh-sol-artifact-1",
  "contractName": "NFTMarketplace",
  "sourceName": "contracts/NFTMarketplace.sol",
  "abi": [
    {
      "inputs": [
        {
          "internalType": "address",
          "name": "nftContractAddress",
          "type": "address"
        },
        {
          "internalType": "address[]",
          "name": "payees",
          "type": "address[]"
        },
        {
          "internalType": "uint256[]",
          "name": "shares",
          "type": "uint256[]"
        },
        {
          "internalType": "uint256",
          "name": "royalties",
          "type": "uint256"
        }
      ],
      "stateMutability": "nonpayable",
      "type": "constructor"
    },
    {
      "anonymous": false,
      "inputs": [
        {
          "indexed": true,
          "internalType": "contract IERC20",
          "name": "token",
          "type": "address"
        },
        {
          "indexed": false,
          "internalType": "address",
          "name": "to",
          "type": "address"
        },
        {
          "indexed": false,
          "internalType": "uint256",
          "name": "amount",
          "type": "uint256"
        }
      ],
      "name": "ERC20PaymentReleased",
      "type": "event"
    },
    {
      "anonymous": false,
      "inputs": [
        {
          "indexed": true,
          "internalType": "uint256",
          "name": "tokenId",
          "type": "uint256"
        }
      ],
      "name": "NFTBought",
      "type": "event"
    },
    {
      "anonymous": false,
      "inputs": [
        {
          "indexed": true,
          "internalType": "uint256",
          "name": "tokenId",
          "type": "uint256"
        }
      ],
      "name": "NFTDelisted",
      "type": "event"
    },
    {
      "anonymous": false,
      "inputs": [
        {
          "indexed": true,
          "internalType": "uint256",
          "name": "tokenId",
          "type": "uint256"
        }
      ],
      "name": "NFTListed",
      "type": "event"
    },
    {
      "anonymous": false,
      "inputs": [
        {
          "indexed": true,
          "internalType": "address",
          "name": "previousOwner",
          "type": "address"
        },
        {
          "indexed": true,
          "internalType": "address",
          "name": "newOwner",
          "type": "address"
        }
      ],
      "name": "OwnershipTransferred",
      "type": "event"
    },
    {
      "anonymous": false,
      "inputs": [
        {
          "indexed": false,
          "internalType": "address",
          "name": "account",
          "type": "address"
        },
        {
          "indexed": false,
          "internalType": "uint256",
          "name": "shares",
          "type": "uint256"
        }
      ],
      "name": "PayeeAdded",
      "type": "event"
    },
    {
      "anonymous": false,
      "inputs": [
        {
          "indexed": false,
          "internalType": "address",
          "name": "from",
          "type": "address"
        },
        {
          "indexed": false,
          "internalType": "uint256",
          "name": "amount",
          "type": "uint256"
        }
      ],
      "name": "PaymentReceived",
      "type": "event"
    },
    {
      "anonymous": false,
      "inputs": [
        {
          "indexed": false,
          "internalType": "address",
          "name": "to",
          "type": "address"
        },
        {
          "indexed": false,
          "internalType": "uint256",
          "name": "amount",
          "type": "uint256"
        }
      ],
      "name": "PaymentReleased",
      "type": "event"
    },
    {
      "inputs": [],
      "name": "MAX_PRICE",
      "outputs": [
        {
          "internalType": "uint256",
          "name": "",
          "type": "uint256"
        }
      ],
      "stateMutability": "view",
      "type": "function"
    },
    {
      "inputs": [],
      "name": "MIN_PRICE",
      "outputs": [
        {
          "internalType": "uint256",
          "name": "",
          "type": "uint256"
        }
      ],
      "stateMutability": "view",
      "type": "function"
    },
    {
      "inputs": [
        {
          "internalType": "uint256",
          "name": "tokenId",
          "type": "uint256"
        },
        {
          "internalType": "uint256",
          "name": "collectionId",
          "type": "uint256"
        },
        {
          "internalType": "string",
          "name": "tokenURI",
          "type": "string"
        }
      ],
      "name": "buyNFT",
      "outputs": [],
      "stateMutability": "payable",
      "type": "function"
    },
    {
      "inputs": [
        {
          "internalType": "uint256",
          "name": "tokenId",
          "type": "uint256"
        }
      ],
      "name": "delistNFT",
      "outputs": [],
      "stateMutability": "nonpayable",
      "type": "function"
    },
    {
      "inputs": [
        {
          "internalType": "uint256",
          "name": "tokenId",
          "type": "uint256"
        }
      ],
      "name": "isTokenListed",
      "outputs": [
        {
          "internalType": "bool",
          "name": "",
          "type": "bool"
        }
      ],
      "stateMutability": "view",
      "type": "function"
    },
    {
      "inputs": [
        {
          "internalType": "uint256",
          "name": "tokenId",
          "type": "uint256"
        },
        {
          "internalType": "uint256",
          "name": "newPrice",
          "type": "uint256"
        }
      ],
      "name": "listNFT",
      "outputs": [],
      "stateMutability": "nonpayable",
      "type": "function"
    },
    {
      "inputs": [],
      "name": "owner",
      "outputs": [
        {
          "internalType": "address",
          "name": "",
          "type": "address"
        }
      ],
      "stateMutability": "view",
      "type": "function"
    },
    {
      "inputs": [
        {
          "internalType": "uint256",
          "name": "index",
          "type": "uint256"
        }
      ],
      "name": "payee",
      "outputs": [
        {
          "internalType": "address",
          "name": "",
          "type": "address"
        }
      ],
      "stateMutability": "view",
      "type": "function"
    },
    {
      "inputs": [
        {
          "internalType": "address",
          "name": "account",
          "type": "address"
        }
      ],
      "name": "releasable",
      "outputs": [
        {
          "internalType": "uint256",
          "name": "",
          "type": "uint256"
        }
      ],
      "stateMutability": "view",
      "type": "function"
    },
    {
      "inputs": [
        {
          "internalType": "contract IERC20",
          "name": "token",
          "type": "address"
        },
        {
          "internalType": "address",
          "name": "account",
          "type": "address"
        }
      ],
      "name": "releasable",
      "outputs": [
        {
          "internalType": "uint256",
          "name": "",
          "type": "uint256"
        }
      ],
      "stateMutability": "view",
      "type": "function"
    },
    {
      "inputs": [
        {
          "internalType": "address payable",
          "name": "account",
          "type": "address"
        }
      ],
      "name": "release",
      "outputs": [],
      "stateMutability": "nonpayable",
      "type": "function"
    },
    {
      "inputs": [
        {
          "internalType": "contract IERC20",
          "name": "token",
          "type": "address"
        },
        {
          "internalType": "address",
          "name": "account",
          "type": "address"
        }
      ],
      "name": "release",
      "outputs": [],
      "stateMutability": "nonpayable",
      "type": "function"
    },
    {
      "inputs": [
        {
          "internalType": "contract IERC20",
          "name": "token",
          "type": "address"
        },
        {
          "internalType": "address",
          "name": "account",
          "type": "address"
        }
      ],
      "name": "released",
      "outputs": [
        {
          "internalType": "uint256",
          "name": "",
          "type": "uint256"
        }
      ],
      "stateMutability": "view",
      "type": "function"
    },
    {
      "inputs": [
        {
          "internalType": "address",
          "name": "account",
          "type": "address"
        }
      ],
      "name": "released",
      "outputs": [
        {
          "internalType": "uint256",
          "name": "",
          "type": "uint256"
        }
      ],
      "stateMutability": "view",
      "type": "function"
    },
    {
      "inputs": [],
      "name": "renounceOwnership",
      "outputs": [],
      "stateMutability": "nonpayable",
      "type": "function"
    },
    {
      "inputs": [
        {
          "internalType": "address",
          "name": "account",
          "type": "address"
        }
      ],
      "name": "shares",
      "outputs": [
        {
          "internalType": "uint256",
          "name": "",
          "type": "uint256"
        }
      ],
      "stateMutability": "view",
      "type": "function"
    },
    {
      "inputs": [
        {
          "internalType": "contract IERC20",
          "name": "token",
          "type": "address"
        }
      ],
      "name": "totalReleased",
      "outputs": [
        {
          "internalType": "uint256",
          "name": "",
          "type": "uint256"
        }
      ],
      "stateMutability": "view",
      "type": "function"
    },
    {
      "inputs": [],
      "name": "totalReleased",
      "outputs": [
        {
          "internalType": "uint256",
          "name": "",
          "type": "uint256"
        }
      ],
      "stateMutability": "view",
      "type": "function"
    },
    {
      "inputs": [],
      "name": "totalShares",
      "outputs": [
        {
          "internalType": "uint256",
          "name": "",
          "type": "uint256"
        }
      ],
      "stateMutability": "view",
      "type": "function"
    },
    {
      "inputs": [
        {
          "internalType": "address",
          "name": "newOwner",
          "type": "address"
        }
      ],
      "name": "transferOwnership",
      "outputs": [],
      "stateMutability": "nonpayable",
      "type": "function"
    },
    {
      "stateMutability": "payable",
      "type": "receive"
    }
  ],
  "bytecode": "0x60806040523480156200001157600080fd5b506040516200425138038062004251833981810160405281019062000037919062000700565b8282620000596200004d6200028860201b60201c565b6200029060201b60201c565b600180819055508051825114620000a7576040517f08c379a00000000000000000000000000000000000000000000000000000000081526004016200009e9062000920565b60405180910390fd5b6000825111620000ee576040517f08c379a0000000000000000000000000000000000000000000000000000000008152600401620000e590620009a8565b60405180910390fd5b60005b8251811015620001a5576200018f83828151811062000139577f4e487b7100000000000000000000000000000000000000000000000000000000600052603260045260246000fd5b60200260200101518383815181106200017b577f4e487b7100000000000000000000000000000000000000000000000000000000600052603260045260246000fd5b60200260200101516200035460201b60201c565b80806200019c9062000b55565b915050620000f1565b5050506000835111620001ef576040517f08c379a0000000000000000000000000000000000000000000000000000000008152600401620001e69062000964565b60405180910390fd5b815183511462000236576040517f08c379a00000000000000000000000000000000000000000000000000000000081526004016200022d9062000942565b60405180910390fd5b83600960006101000a81548173ffffffffffffffffffffffffffffffffffffffff021916908373ffffffffffffffffffffffffffffffffffffffff16021790555080600a819055505050505062000dfd565b600033905090565b60008060009054906101000a900473ffffffffffffffffffffffffffffffffffffffff169050816000806101000a81548173ffffffffffffffffffffffffffffffffffffffff021916908373ffffffffffffffffffffffffffffffffffffffff1602179055508173ffffffffffffffffffffffffffffffffffffffff168173ffffffffffffffffffffffffffffffffffffffff167f8be0079c531659141344cd1fd0a4f28419497f9722a3daafe3b4186f6b6457e060405160405180910390a35050565b600073ffffffffffffffffffffffffffffffffffffffff168273ffffffffffffffffffffffffffffffffffffffff161415620003c7576040517f08c379a0000000000000000000000000000000000000000000000000000000008152600401620003be90620008fe565b60405180910390fd5b600081116200040d576040517f08c379a00000000000000000000000000000000000000000000000000000000081526004016200040490620009ca565b60405180910390fd5b6000600460008473ffffffffffffffffffffffffffffffffffffffff1673ffffffffffffffffffffffffffffffffffffffff168152602001908152602001600020541462000492576040517f08c379a0000000000000000000000000000000000000000000000000000000008152600401620004899062000986565b60405180910390fd5b6006829080600181540180825580915050600190039060005260206000200160009091909190916101000a81548173ffffffffffffffffffffffffffffffffffffffff021916908373ffffffffffffffffffffffffffffffffffffffff16021790555080600460008473ffffffffffffffffffffffffffffffffffffffff1673ffffffffffffffffffffffffffffffffffffffff168152602001908152602001600020819055508060025462000549919062000a84565b6002819055507f40c340f65e17194d14ddddb073d3c9f888e3cb52b5aae0c6c7706b4fbc905fac828260405162000582929190620008d1565b60405180910390a15050565b6000620005a56200059f8462000a15565b620009ec565b90508083825260208201905082856020860282011115620005c557600080fd5b60005b85811015620005f95781620005de888262000678565b845260208401935060208301925050600181019050620005c8565b5050509392505050565b60006200061a620006148462000a44565b620009ec565b905080838252602082019050828560208602820111156200063a57600080fd5b60005b858110156200066e5781620006538882620006e9565b8452602084019350602083019250506001810190506200063d565b5050509392505050565b600081519050620006898162000dc9565b92915050565b600082601f830112620006a157600080fd5b8151620006b38482602086016200058e565b91505092915050565b600082601f830112620006ce57600080fd5b8151620006e084826020860162000603565b91505092915050565b600081519050620006fa8162000de3565b92915050565b600080600080608085870312156200071757600080fd5b6000620007278782880162000678565b945050602085015167ffffffffffffffff8111156200074557600080fd5b62000753878288016200068f565b935050604085015167ffffffffffffffff8111156200077157600080fd5b6200077f87828801620006bc565b92505060606200079287828801620006e9565b91505092959194509250565b620007a98162000ae1565b82525050565b6000620007be602c8362000a73565b9150620007cb8262000c12565b604082019050919050565b6000620007e560328362000a73565b9150620007f28262000c61565b604082019050919050565b60006200080c60238362000a73565b9150620008198262000cb0565b604082019050919050565b600062000833601e8362000a73565b9150620008408262000cff565b602082019050919050565b60006200085a602b8362000a73565b9150620008678262000d28565b604082019050919050565b600062000881601a8362000a73565b91506200088e8262000d77565b602082019050919050565b6000620008a8601d8362000a73565b9150620008b58262000da0565b602082019050919050565b620008cb8162000b15565b82525050565b6000604082019050620008e860008301856200079e565b620008f76020830184620008c0565b9392505050565b600060208201905081810360008301526200091981620007af565b9050919050565b600060208201905081810360008301526200093b81620007d6565b9050919050565b600060208201905081810360008301526200095d81620007fd565b9050919050565b600060208201905081810360008301526200097f8162000824565b9050919050565b60006020820190508181036000830152620009a1816200084b565b9050919050565b60006020820190508181036000830152620009c38162000872565b9050919050565b60006020820190508181036000830152620009e58162000899565b9050919050565b6000620009f862000a0b565b905062000a06828262000b1f565b919050565b6000604051905090565b600067ffffffffffffffff82111562000a335762000a3262000bd2565b5b602082029050602081019050919050565b600067ffffffffffffffff82111562000a625762000a6162000bd2565b5b602082029050602081019050919050565b600082825260208201905092915050565b600062000a918262000b15565b915062000a9e8362000b15565b9250827fffffffffffffffffffffffffffffffffffffffffffffffffffffffffffffffff0382111562000ad65762000ad562000ba3565b5b828201905092915050565b600062000aee8262000af5565b9050919050565b600073ffffffffffffffffffffffffffffffffffffffff82169050919050565b6000819050919050565b62000b2a8262000c01565b810181811067ffffffffffffffff8211171562000b4c5762000b4b62000bd2565b5b80604052505050565b600062000b628262000b15565b91507fffffffffffffffffffffffffffffffffffffffffffffffffffffffffffffffff82141562000b985762000b9762000ba3565b5b600182019050919050565b7f4e487b7100000000000000000000000000000000000000000000000000000000600052601160045260246000fd5b7f4e487b7100000000000000000000000000000000000000000000000000000000600052604160045260246000fd5b6000601f19601f8301169050919050565b7f5061796d656e7453706c69747465723a206163636f756e74206973207468652060008201527f7a65726f20616464726573730000000000000000000000000000000000000000602082015250565b7f5061796d656e7453706c69747465723a2070617965657320616e64207368617260008201527f6573206c656e677468206d69736d617463680000000000000000000000000000602082015250565b7f50617965657320616e6420736861726573206c656e677468206d757374206d6160008201527f7463680000000000000000000000000000000000000000000000000000000000602082015250565b7f4174206c65617374206f6e652070617965652069732072657175697265640000600082015250565b7f5061796d656e7453706c69747465723a206163636f756e7420616c726561647960008201527f2068617320736861726573000000000000000000000000000000000000000000602082015250565b7f5061796d656e7453706c69747465723a206e6f20706179656573000000000000600082015250565b7f5061796d656e7453706c69747465723a20736861726573206172652030000000600082015250565b62000dd48162000ae1565b811462000de057600080fd5b50565b62000dee8162000b15565b811462000dfa57600080fd5b50565b6134448062000e0d6000396000f3fe6080604052600436106101235760003560e01c80639852595c116100a0578063cb917b9c11610064578063cb917b9c14610437578063ce7c2ac214610460578063d79779b21461049d578063e33b7de3146104da578063f2fde38b146105055761016a565b80639852595c146103185780639b83cddc14610355578063a3f8eace14610392578063ad9f20a6146103cf578063c45ac050146103fa5761016a565b806348b75044116100e757806348b7504414610247578063715018a6146102705780638b83209b146102875780638da5cb5b146102c457806394383f14146102ef5761016a565b806301c11d961461016f578063094a6aa41461019a57806319165587146101b65780633a98ef39146101df578063406072a91461020a5761016a565b3661016a577f6ef95f06320e7a25a04a175ca677b7052bdd97131872c2192525a629f51be77061015161052e565b34604051610160929190612744565b60405180910390a1005b600080fd5b34801561017b57600080fd5b50610184610536565b6040516101919190612a6a565b60405180910390f35b6101b460048036038101906101af9190612242565b610544565b005b3480156101c257600080fd5b506101dd60048036038101906101d891906120fd565b610b3f565b005b3480156101eb57600080fd5b506101f4610cbf565b6040516102019190612a6a565b60405180910390f35b34801561021657600080fd5b50610231600480360381019061022c9190612178565b610cc9565b60405161023e9190612a6a565b60405180910390f35b34801561025357600080fd5b5061026e60048036038101906102699190612178565b610d50565b005b34801561027c57600080fd5b50610285610f64565b005b34801561029357600080fd5b506102ae60048036038101906102a991906121b4565b610f78565b6040516102bb91906126a0565b60405180910390f35b3480156102d057600080fd5b506102d9610fe6565b6040516102e691906126a0565b60405180910390f35b3480156102fb57600080fd5b5061031660048036038101906103119190612206565b61100f565b005b34801561032457600080fd5b5061033f600480360381019061033a91906120ab565b6114e7565b60405161034c9190612a6a565b60405180910390f35b34801561036157600080fd5b5061037c600480360381019061037791906121b4565b611530565b604051610389919061276d565b60405180910390f35b34801561039e57600080fd5b506103b960048036038101906103b491906120ab565b61155a565b6040516103c69190612a6a565b60405180910390f35b3480156103db57600080fd5b506103e461158d565b6040516103f19190612a6a565b60405180910390f35b34801561040657600080fd5b50610421600480360381019061041c9190612178565b611598565b60405161042e9190612a6a565b60405180910390f35b34801561044357600080fd5b5061045e600480360381019061045991906121b4565b611656565b005b34801561046c57600080fd5b50610487600480360381019061048291906120ab565b611877565b6040516104949190612a6a565b60405180910390f35b3480156104a957600080fd5b506104c460048036038101906104bf919061214f565b6118c0565b6040516104d19190612a6a565b60405180910390f35b3480156104e657600080fd5b506104ef611909565b6040516104fc9190612a6a565b60405180910390f35b34801561051157600080fd5b5061052c600480360381019061052791906120ab565b611913565b005b600033905090565b69021e19e0c9bab240000081565b61054c611997565b6000806000851461071657600b600086815260200190815260200160002060009054906101000a900460ff166105b7576040517f08c379a00000000000000000000000000000000000000000000000000000000081526004016105ae9061294a565b60405180910390fd5b600960009054906101000a900473ffffffffffffffffffffffffffffffffffffffff1673ffffffffffffffffffffffffffffffffffffffff1663e7572230866040518263ffffffff1660e01b81526004016106129190612a6a565b60206040518083038186803b15801561062a57600080fd5b505afa15801561063e573d6000803e3d6000fd5b505050506040513d601f19601f8201168201806040525081019061066291906121dd565b9150600960009054906101000a900473ffffffffffffffffffffffffffffffffffffffff1673ffffffffffffffffffffffffffffffffffffffff16636352211e866040518263ffffffff1660e01b81526004016106bf9190612a6a565b60206040518083038186803b1580156106d757600080fd5b505afa1580156106eb573d6000803e3d6000fd5b505050506040513d601f19601f8201168201806040525081019061070f91906120d4565b9050610904565b600083511161075a576040517f08c379a00000000000000000000000000000000000000000000000000000000081526004016107519061298a565b60405180910390fd5b600084141561079e576040517f08c379a0000000000000000000000000000000000000000000000000000000008152600401610795906129ea565b60405180910390fd5b349150600960009054906101000a900473ffffffffffffffffffffffffffffffffffffffff1673ffffffffffffffffffffffffffffffffffffffff1663b41a6e34858585336040518563ffffffff1660e01b81526004016108029493929190612a85565b602060405180830381600087803b15801561081c57600080fd5b505af1158015610830573d6000803e3d6000fd5b505050506040513d601f19601f8201168201806040525081019061085491906121dd565b9450600960009054906101000a900473ffffffffffffffffffffffffffffffffffffffff1673ffffffffffffffffffffffffffffffffffffffff16636352211e856040518263ffffffff1660e01b81526004016108b19190612a6a565b60206040518083038186803b1580156108c957600080fd5b505afa1580156108dd573d6000803e3d6000fd5b505050506040513d601f19601f8201168201806040525081019061090191906120d4565b90505b813414610946576040517f08c379a000000000000000000000000000000000000000000000000000000000815260040161093d9061292a565b60405180910390fd5b60006064600a54846109589190612c09565b6109629190612bd8565b90508083116109a6576040517f08c379a000000000000000000000000000000000000000000000000000000000815260040161099d9061290a565b60405180910390fd5b600081846109b49190612c63565b90506000600b600089815260200190815260200160002060006101000a81548160ff0219169083151502179055508273ffffffffffffffffffffffffffffffffffffffff166108fc829081150290604051600060405180830381858888f19350505050158015610a28573d6000803e3d6000fd5b503073ffffffffffffffffffffffffffffffffffffffff166108fc839081150290604051600060405180830381858888f19350505050158015610a6f573d6000803e3d6000fd5b50600960009054906101000a900473ffffffffffffffffffffffffffffffffffffffff1673ffffffffffffffffffffffffffffffffffffffff166323b872dd84338a6040518463ffffffff1660e01b8152600401610acf9392919061270d565b600060405180830381600087803b158015610ae957600080fd5b505af1158015610afd573d6000803e3d6000fd5b50505050867ff1a4f188d8f608af032a64d403473119856aae541d836c6a78e2187e809c330760405160405180910390a250505050610b3a6119e7565b505050565b6000600460008373ffffffffffffffffffffffffffffffffffffffff1673ffffffffffffffffffffffffffffffffffffffff1681526020019081526020016000205411610bc1576040517f08c379a0000000000000000000000000000000000000000000000000000000008152600401610bb89061282a565b60405180910390fd5b6000610bcc8261155a565b90506000811415610c12576040517f08c379a0000000000000000000000000000000000000000000000000000000008152600401610c09906128aa565b60405180910390fd5b8060036000828254610c249190612b82565b9250508190555080600560008473ffffffffffffffffffffffffffffffffffffffff1673ffffffffffffffffffffffffffffffffffffffff16815260200190815260200160002060008282540192505081905550610c8282826119f0565b7fdf20fd1e76bc69d672e4814fafb2c449bba3a5369d8359adf9e05e6fde87b0568282604051610cb39291906126bb565b60405180910390a15050565b6000600254905090565b6000600860008473ffffffffffffffffffffffffffffffffffffffff1673ffffffffffffffffffffffffffffffffffffffff16815260200190815260200160002060008373ffffffffffffffffffffffffffffffffffffffff1673ffffffffffffffffffffffffffffffffffffffff16815260200190815260200160002054905092915050565b6000600460008373ffffffffffffffffffffffffffffffffffffffff1673ffffffffffffffffffffffffffffffffffffffff1681526020019081526020016000205411610dd2576040517f08c379a0000000000000000000000000000000000000000000000000000000008152600401610dc99061282a565b60405180910390fd5b6000610dde8383611598565b90506000811415610e24576040517f08c379a0000000000000000000000000000000000000000000000000000000008152600401610e1b906128aa565b60405180910390fd5b80600760008573ffffffffffffffffffffffffffffffffffffffff1673ffffffffffffffffffffffffffffffffffffffff1681526020019081526020016000206000828254610e739190612b82565b9250508190555080600860008573ffffffffffffffffffffffffffffffffffffffff1673ffffffffffffffffffffffffffffffffffffffff16815260200190815260200160002060008473ffffffffffffffffffffffffffffffffffffffff1673ffffffffffffffffffffffffffffffffffffffff16815260200190815260200160002060008282540192505081905550610f0f838383611ae4565b8273ffffffffffffffffffffffffffffffffffffffff167f3be5b7a71e84ed12875d241991c70855ac5817d847039e17a9d895c1ceb0f18a8383604051610f57929190612744565b60405180910390a2505050565b610f6c611b6a565b610f766000611be8565b565b600060068281548110610fb4577f4e487b7100000000000000000000000000000000000000000000000000000000600052603260045260246000fd5b9060005260206000200160009054906101000a900473ffffffffffffffffffffffffffffffffffffffff169050919050565b60008060009054906101000a900473ffffffffffffffffffffffffffffffffffffffff16905090565b611017611997565b662386f26fc10000811015611061576040517f08c379a0000000000000000000000000000000000000000000000000000000008152600401611058906127aa565b60405180910390fd5b69021e19e0c9bab24000008111156110ae576040517f08c379a00000000000000000000000000000000000000000000000000000000081526004016110a5906128ca565b60405180910390fd5b600b600083815260200190815260200160002060009054906101000a900460ff161561110f576040517f08c379a0000000000000000000000000000000000000000000000000000000008152600401611106906128ea565b60405180910390fd5b3373ffffffffffffffffffffffffffffffffffffffff16600960009054906101000a900473ffffffffffffffffffffffffffffffffffffffff1673ffffffffffffffffffffffffffffffffffffffff16636352211e846040518263ffffffff1660e01b81526004016111819190612a6a565b60206040518083038186803b15801561119957600080fd5b505afa1580156111ad573d6000803e3d6000fd5b505050506040513d601f19601f820116820180604052508101906111d191906120d4565b73ffffffffffffffffffffffffffffffffffffffff1614611227576040517f08c379a000000000000000000000000000000000000000000000000000000000815260040161121e90612a4a565b60405180910390fd5b600960009054906101000a900473ffffffffffffffffffffffffffffffffffffffff1673ffffffffffffffffffffffffffffffffffffffff1663e985e9c533306040518363ffffffff1660e01b81526004016112849291906126e4565b60206040518083038186803b15801561129c57600080fd5b505afa1580156112b0573d6000803e3d6000fd5b505050506040513d601f19601f820116820180604052508101906112d49190612126565b806113b457503073ffffffffffffffffffffffffffffffffffffffff16600960009054906101000a900473ffffffffffffffffffffffffffffffffffffffff1673ffffffffffffffffffffffffffffffffffffffff1663081812fc846040518263ffffffff1660e01b815260040161134c9190612a6a565b60206040518083038186803b15801561136457600080fd5b505afa158015611378573d6000803e3d6000fd5b505050506040513d601f19601f8201168201806040525081019061139c91906120d4565b73ffffffffffffffffffffffffffffffffffffffff16145b6113f3576040517f08c379a00000000000000000000000000000000000000000000000000000000081526004016113ea906129aa565b60405180910390fd5b600960009054906101000a900473ffffffffffffffffffffffffffffffffffffffff1673ffffffffffffffffffffffffffffffffffffffff1663f7d9757783836040518363ffffffff1660e01b8152600401611450929190612ad1565b600060405180830381600087803b15801561146a57600080fd5b505af115801561147e573d6000803e3d6000fd5b505050506001600b600084815260200190815260200160002060006101000a81548160ff021916908315150217905550817fdb1fd9bae40110b73b6592270632b19e60d204d52ee5cd72c60d076e6bdd342f60405160405180910390a26114e36119e7565b5050565b6000600560008373ffffffffffffffffffffffffffffffffffffffff1673ffffffffffffffffffffffffffffffffffffffff168152602001908152602001600020549050919050565b6000600b600083815260200190815260200160002060009054906101000a900460ff169050919050565b600080611565611909565b476115709190612b82565b90506115858382611580866114e7565b611cac565b915050919050565b662386f26fc1000081565b6000806115a4846118c0565b8473ffffffffffffffffffffffffffffffffffffffff166370a08231306040518263ffffffff1660e01b81526004016115dd91906126a0565b60206040518083038186803b1580156115f557600080fd5b505afa158015611609573d6000803e3d6000fd5b505050506040513d601f19601f8201168201806040525081019061162d91906121dd565b6116379190612b82565b905061164d83826116488787610cc9565b611cac565b91505092915050565b61165e611997565b600960009054906101000a900473ffffffffffffffffffffffffffffffffffffffff1673ffffffffffffffffffffffffffffffffffffffff16636352211e826040518263ffffffff1660e01b81526004016116b99190612a6a565b60206040518083038186803b1580156116d157600080fd5b505afa1580156116e5573d6000803e3d6000fd5b505050506040513d601f19601f8201168201806040525081019061170991906120d4565b73ffffffffffffffffffffffffffffffffffffffff163373ffffffffffffffffffffffffffffffffffffffff1614806117745750611745610fe6565b73ffffffffffffffffffffffffffffffffffffffff163373ffffffffffffffffffffffffffffffffffffffff16145b6117b3576040517f08c379a00000000000000000000000000000000000000000000000000000000081526004016117aa9061280a565b60405180910390fd5b600b600082815260200190815260200160002060009054906101000a900460ff16611813576040517f08c379a000000000000000000000000000000000000000000000000000000000815260040161180a906127ea565b60405180910390fd5b6000600b600083815260200190815260200160002060006101000a81548160ff021916908315150217905550807fc0c55a6edead4433d18cb1e287a0a20a2fa003a6f483bc9823d2e504d70d1c6760405160405180910390a26118746119e7565b50565b6000600460008373ffffffffffffffffffffffffffffffffffffffff1673ffffffffffffffffffffffffffffffffffffffff168152602001908152602001600020549050919050565b6000600760008373ffffffffffffffffffffffffffffffffffffffff1673ffffffffffffffffffffffffffffffffffffffff168152602001908152602001600020549050919050565b6000600354905090565b61191b611b6a565b600073ffffffffffffffffffffffffffffffffffffffff168173ffffffffffffffffffffffffffffffffffffffff16141561198b576040517f08c379a0000000000000000000000000000000000000000000000000000000008152600401611982906127ca565b60405180910390fd5b61199481611be8565b50565b600260015414156119dd576040517f08c379a00000000000000000000000000000000000000000000000000000000081526004016119d490612a2a565b60405180910390fd5b6002600181905550565b60018081905550565b80471015611a33576040517f08c379a0000000000000000000000000000000000000000000000000000000008152600401611a2a9061286a565b60405180910390fd5b60008273ffffffffffffffffffffffffffffffffffffffff1682604051611a599061268b565b60006040518083038185875af1925050503d8060008114611a96576040519150601f19603f3d011682016040523d82523d6000602084013e611a9b565b606091505b5050905080611adf576040517f08c379a0000000000000000000000000000000000000000000000000000000008152600401611ad69061284a565b60405180910390fd5b505050565b611b658363a9059cbb60e01b8484604051602401611b03929190612744565b604051602081830303815290604052907bffffffffffffffffffffffffffffffffffffffffffffffffffffffff19166020820180517bffffffffffffffffffffffffffffffffffffffffffffffffffffffff8381831617835250505050611d1a565b505050565b611b7261052e565b73ffffffffffffffffffffffffffffffffffffffff16611b90610fe6565b73ffffffffffffffffffffffffffffffffffffffff1614611be6576040517f08c379a0000000000000000000000000000000000000000000000000000000008152600401611bdd9061296a565b60405180910390fd5b565b60008060009054906101000a900473ffffffffffffffffffffffffffffffffffffffff169050816000806101000a81548173ffffffffffffffffffffffffffffffffffffffff021916908373ffffffffffffffffffffffffffffffffffffffff1602179055508173ffffffffffffffffffffffffffffffffffffffff168173ffffffffffffffffffffffffffffffffffffffff167f8be0079c531659141344cd1fd0a4f28419497f9722a3daafe3b4186f6b6457e060405160405180910390a35050565b600081600254600460008773ffffffffffffffffffffffffffffffffffffffff1673ffffffffffffffffffffffffffffffffffffffff1681526020019081526020016000205485611cfd9190612c09565b611d079190612bd8565b611d119190612c63565b90509392505050565b6000611d7c826040518060400160405280602081526020017f5361666545524332303a206c6f772d6c6576656c2063616c6c206661696c65648152508573ffffffffffffffffffffffffffffffffffffffff16611de29092919063ffffffff16565b9050600081511480611d9e575080806020019051810190611d9d9190612126565b5b611ddd576040517f08c379a0000000000000000000000000000000000000000000000000000000008152600401611dd490612a0a565b60405180910390fd5b505050565b6060611df18484600085611dfa565b90509392505050565b606082471015611e3f576040517f08c379a0000000000000000000000000000000000000000000000000000000008152600401611e369061288a565b60405180910390fd5b6000808673ffffffffffffffffffffffffffffffffffffffff168587604051611e689190612674565b60006040518083038185875af1925050503d8060008114611ea5576040519150601f19603f3d011682016040523d82523d6000602084013e611eaa565b606091505b5091509150611ebb87838387611ec7565b92505050949350505050565b60608315611f2a57600083511415611f2257611ee285611f3d565b611f21576040517f08c379a0000000000000000000000000000000000000000000000000000000008152600401611f18906129ca565b60405180910390fd5b5b829050611f35565b611f348383611f60565b5b949350505050565b6000808273ffffffffffffffffffffffffffffffffffffffff163b119050919050565b600082511115611f735781518083602001fd5b806040517f08c379a0000000000000000000000000000000000000000000000000000000008152600401611fa79190612788565b60405180910390fd5b6000611fc3611fbe84612b1f565b612afa565b905082815260208101848484011115611fdb57600080fd5b611fe6848285612d39565b509392505050565b600081359050611ffd8161339b565b92915050565b6000815190506120128161339b565b92915050565b600081359050612027816133b2565b92915050565b60008151905061203c816133c9565b92915050565b600081359050612051816133e0565b92915050565b600082601f83011261206857600080fd5b8135612078848260208601611fb0565b91505092915050565b600081359050612090816133f7565b92915050565b6000815190506120a5816133f7565b92915050565b6000602082840312156120bd57600080fd5b60006120cb84828501611fee565b91505092915050565b6000602082840312156120e657600080fd5b60006120f484828501612003565b91505092915050565b60006020828403121561210f57600080fd5b600061211d84828501612018565b91505092915050565b60006020828403121561213857600080fd5b60006121468482850161202d565b91505092915050565b60006020828403121561216157600080fd5b600061216f84828501612042565b91505092915050565b6000806040838503121561218b57600080fd5b600061219985828601612042565b92505060206121aa85828601611fee565b9150509250929050565b6000602082840312156121c657600080fd5b60006121d484828501612081565b91505092915050565b6000602082840312156121ef57600080fd5b60006121fd84828501612096565b91505092915050565b6000806040838503121561221957600080fd5b600061222785828601612081565b925050602061223885828601612081565b9150509250929050565b60008060006060848603121561225757600080fd5b600061226586828701612081565b935050602061227686828701612081565b925050604084013567ffffffffffffffff81111561229357600080fd5b61229f86828701612057565b9150509250925092565b6122b281612d03565b82525050565b6122c181612c97565b82525050565b6122d081612cbb565b82525050565b60006122e182612b50565b6122eb8185612b66565b93506122fb818560208601612d48565b80840191505092915050565b600061231282612b5b565b61231c8185612b71565b935061232c818560208601612d48565b61233581612e39565b840191505092915050565b600061234d602083612b71565b915061235882612e4a565b602082019050919050565b6000612370602683612b71565b915061237b82612e73565b604082019050919050565b6000612393600e83612b71565b915061239e82612ec2565b602082019050919050565b60006123b6602983612b71565b91506123c182612eeb565b604082019050919050565b60006123d9602683612b71565b91506123e482612f3a565b604082019050919050565b60006123fc603a83612b71565b915061240782612f89565b604082019050919050565b600061241f601d83612b71565b915061242a82612fd8565b602082019050919050565b6000612442602683612b71565b915061244d82613001565b604082019050919050565b6000612465602b83612b71565b915061247082613050565b604082019050919050565b6000612488601f83612b71565b91506124938261309f565b602082019050919050565b60006124ab601283612b71565b91506124b6826130c8565b602082019050919050565b60006124ce602b83612b71565b91506124d9826130f1565b604082019050919050565b60006124f1602783612b71565b91506124fc82613140565b604082019050919050565b6000612514601783612b71565b915061251f8261318f565b602082019050919050565b6000612537602083612b71565b9150612542826131b8565b602082019050919050565b600061255a602183612b71565b9150612565826131e1565b604082019050919050565b600061257d602a83612b71565b915061258882613230565b604082019050919050565b60006125a0600083612b66565b91506125ab8261327f565b600082019050919050565b60006125c3601d83612b71565b91506125ce82613282565b602082019050919050565b60006125e6602583612b71565b91506125f1826132ab565b604082019050919050565b6000612609602a83612b71565b9150612614826132fa565b604082019050919050565b600061262c601f83612b71565b915061263782613349565b602082019050919050565b600061264f601883612b71565b915061265a82613372565b602082019050919050565b61266e81612cf9565b82525050565b600061268082846122d6565b915081905092915050565b600061269682612593565b9150819050919050565b60006020820190506126b560008301846122b8565b92915050565b60006040820190506126d060008301856122a9565b6126dd6020830184612665565b9392505050565b60006040820190506126f960008301856122b8565b61270660208301846122b8565b9392505050565b600060608201905061272260008301866122b8565b61272f60208301856122b8565b61273c6040830184612665565b949350505050565b600060408201905061275960008301856122b8565b6127666020830184612665565b9392505050565b600060208201905061278260008301846122c7565b92915050565b600060208201905081810360008301526127a28184612307565b905092915050565b600060208201905081810360008301526127c381612340565b9050919050565b600060208201905081810360008301526127e381612363565b9050919050565b6000602082019050818103600083015261280381612386565b9050919050565b60006020820190508181036000830152612823816123a9565b9050919050565b60006020820190508181036000830152612843816123cc565b9050919050565b60006020820190508181036000830152612863816123ef565b9050919050565b6000602082019050818103600083015261288381612412565b9050919050565b600060208201905081810360008301526128a381612435565b9050919050565b600060208201905081810360008301526128c381612458565b9050919050565b600060208201905081810360008301526128e38161247b565b9050919050565b600060208201905081810360008301526129038161249e565b9050919050565b60006020820190508181036000830152612923816124c1565b9050919050565b60006020820190508181036000830152612943816124e4565b9050919050565b6000602082019050818103600083015261296381612507565b9050919050565b600060208201905081810360008301526129838161252a565b9050919050565b600060208201905081810360008301526129a38161254d565b9050919050565b600060208201905081810360008301526129c381612570565b9050919050565b600060208201905081810360008301526129e3816125b6565b9050919050565b60006020820190508181036000830152612a03816125d9565b9050919050565b60006020820190508181036000830152612a23816125fc565b9050919050565b60006020820190508181036000830152612a438161261f565b9050919050565b60006020820190508181036000830152612a6381612642565b9050919050565b6000602082019050612a7f6000830184612665565b92915050565b6000608082019050612a9a6000830187612665565b8181036020830152612aac8186612307565b9050612abb6040830185612665565b612ac860608301846122b8565b95945050505050565b6000604082019050612ae66000830185612665565b612af36020830184612665565b9392505050565b6000612b04612b15565b9050612b108282612d7b565b919050565b6000604051905090565b600067ffffffffffffffff821115612b3a57612b39612e0a565b5b612b4382612e39565b9050602081019050919050565b600081519050919050565b600081519050919050565b600081905092915050565b600082825260208201905092915050565b6000612b8d82612cf9565b9150612b9883612cf9565b9250827fffffffffffffffffffffffffffffffffffffffffffffffffffffffffffffffff03821115612bcd57612bcc612dac565b5b828201905092915050565b6000612be382612cf9565b9150612bee83612cf9565b925082612bfe57612bfd612ddb565b5b828204905092915050565b6000612c1482612cf9565b9150612c1f83612cf9565b9250817fffffffffffffffffffffffffffffffffffffffffffffffffffffffffffffffff0483118215151615612c5857612c57612dac565b5b828202905092915050565b6000612c6e82612cf9565b9150612c7983612cf9565b925082821015612c8c57612c8b612dac565b5b828203905092915050565b6000612ca282612cd9565b9050919050565b6000612cb482612cd9565b9050919050565b60008115159050919050565b6000612cd282612c97565b9050919050565b600073ffffffffffffffffffffffffffffffffffffffff82169050919050565b6000819050919050565b6000612d0e82612d15565b9050919050565b6000612d2082612d27565b9050919050565b6000612d3282612cd9565b9050919050565b82818337600083830152505050565b60005b83811015612d66578082015181840152602081019050612d4b565b83811115612d75576000848401525b50505050565b612d8482612e39565b810181811067ffffffffffffffff82111715612da357612da2612e0a565b5b80604052505050565b7f4e487b7100000000000000000000000000000000000000000000000000000000600052601160045260246000fd5b7f4e487b7100000000000000000000000000000000000000000000000000000000600052601260045260246000fd5b7f4e487b7100000000000000000000000000000000000000000000000000000000600052604160045260246000fd5b6000601f19601f8301169050919050565b7f5072696365206d757374206265206174206c65617374204d494e5f5052494345600082015250565b7f4f776e61626c653a206e6577206f776e657220697320746865207a65726f206160008201527f6464726573730000000000000000000000000000000000000000000000000000602082015250565b7f4e4654206e6f74206c6973746564000000000000000000000000000000000000600082015250565b7f43616c6c6572206973206e6f74206f776e6572206f66204e4654206f72206d6160008201527f726b6574706c6163650000000000000000000000000000000000000000000000602082015250565b7f5061796d656e7453706c69747465723a206163636f756e7420686173206e6f2060008201527f7368617265730000000000000000000000000000000000000000000000000000602082015250565b7f416464726573733a20756e61626c6520746f2073656e642076616c75652c207260008201527f6563697069656e74206d61792068617665207265766572746564000000000000602082015250565b7f416464726573733a20696e73756666696369656e742062616c616e6365000000600082015250565b7f416464726573733a20696e73756666696369656e742062616c616e636520666f60008201527f722063616c6c0000000000000000000000000000000000000000000000000000602082015250565b7f5061796d656e7453706c69747465723a206163636f756e74206973206e6f742060008201527f647565207061796d656e74000000000000000000000000000000000000000000602082015250565b7f5072696365206d757374206e6f7420657863656564204d41585f505249434500600082015250565b7f4e465420616c7265616479206c69737465640000000000000000000000000000600082015250565b7f50726963652073686f756c6420626520686967686572207468616e20746f746160008201527f6c20726f79616c74696573000000000000000000000000000000000000000000602082015250565b7f53656e742076616c756520646f6573206e6f74206d6174636820746865204e4660008201527f5420707269636500000000000000000000000000000000000000000000000000602082015250565b7f4e4654206e6f74206c697374656420666f722073616c65000000000000000000600082015250565b7f4f776e61626c653a2063616c6c6572206973206e6f7420746865206f776e6572600082015250565b7f546f6b656e2055524920697320726571756972656420666f72206d696e74696e60008201527f6700000000000000000000000000000000000000000000000000000000000000602082015250565b7f4d75737420617070726f7665206d61726b6574706c61636520746f206d616e6160008201527f676520746865204e465400000000000000000000000000000000000000000000602082015250565b50565b7f416464726573733a2063616c6c20746f206e6f6e2d636f6e7472616374000000600082015250565b7f436f6c6c656374696f6e20494420697320726571756972656420666f72206d6960008201527f6e74696e67000000000000000000000000000000000000000000000000000000602082015250565b7f5361666545524332303a204552433230206f7065726174696f6e20646964206e60008201527f6f74207375636365656400000000000000000000000000000000000000000000602082015250565b7f5265656e7472616e637947756172643a207265656e7472616e742063616c6c00600082015250565b7f4d757374206265206f776e6572206f6620746865204e46540000000000000000600082015250565b6133a481612c97565b81146133af57600080fd5b50565b6133bb81612ca9565b81146133c657600080fd5b50565b6133d281612cbb565b81146133dd57600080fd5b50565b6133e981612cc7565b81146133f457600080fd5b50565b61340081612cf9565b811461340b57600080fd5b5056fea264697066735822122056c5c68e9d22ec49e678a5092b7f3a7ff6950196dba7a39cb4bd428c0e67d43464736f6c63430008010033",
  "linkReferences": {},
  "deployedLinkReferences": {}
}