{
  "_format": "hh-sol-artifact-1",
  "contractName": "NFTMarketplace",
  "sourceName": "contracts/NFTMarketplace.sol",
  "abi": [
    {
      "inputs": [
        {
          "internalType": "address",
          "name": "nftContractAddress",
          "type": "address"
        },
        {
          "internalType": "address[]",
          "name": "payees",
          "type": "address[]"
        },
        {
          "internalType": "uint256[]",
          "name": "shares",
          "type": "uint256[]"
        },
        {
          "internalType": "uint256",
          "name": "royalties",
          "type": "uint256"
        }
      ],
      "stateMutability": "nonpayable",
      "type": "constructor"
    },
    {
      "anonymous": false,
      "inputs": [
        {
          "indexed": true,
          "internalType": "contract IERC20",
          "name": "token",
          "type": "address"
        },
        {
          "indexed": false,
          "internalType": "address",
          "name": "to",
          "type": "address"
        },
        {
          "indexed": false,
          "internalType": "uint256",
          "name": "amount",
          "type": "uint256"
        }
      ],
      "name": "ERC20PaymentReleased",
      "type": "event"
    },
    {
      "anonymous": false,
      "inputs": [
        {
          "indexed": true,
          "internalType": "uint256",
          "name": "tokenId",
          "type": "uint256"
        },
        {
          "indexed": false,
          "internalType": "uint256",
          "name": "price",
          "type": "uint256"
        },
        {
          "indexed": true,
          "internalType": "address",
          "name": "seller",
          "type": "address"
        },
        {
          "indexed": true,
          "internalType": "address",
          "name": "buyer",
          "type": "address"
        },
        {
          "indexed": false,
          "internalType": "address",
          "name": "collection",
          "type": "address"
        }
      ],
      "name": "NFTSold",
      "type": "event"
    },
    {
      "anonymous": false,
      "inputs": [
        {
          "indexed": true,
          "internalType": "address",
          "name": "previousOwner",
          "type": "address"
        },
        {
          "indexed": true,
          "internalType": "address",
          "name": "newOwner",
          "type": "address"
        }
      ],
      "name": "OwnershipTransferred",
      "type": "event"
    },
    {
      "anonymous": false,
      "inputs": [
        {
          "indexed": false,
          "internalType": "address",
          "name": "account",
          "type": "address"
        },
        {
          "indexed": false,
          "internalType": "uint256",
          "name": "shares",
          "type": "uint256"
        }
      ],
      "name": "PayeeAdded",
      "type": "event"
    },
    {
      "anonymous": false,
      "inputs": [
        {
          "indexed": false,
          "internalType": "address",
          "name": "from",
          "type": "address"
        },
        {
          "indexed": false,
          "internalType": "uint256",
          "name": "amount",
          "type": "uint256"
        }
      ],
      "name": "PaymentReceived",
      "type": "event"
    },
    {
      "anonymous": false,
      "inputs": [
        {
          "indexed": false,
          "internalType": "address",
          "name": "to",
          "type": "address"
        },
        {
          "indexed": false,
          "internalType": "uint256",
          "name": "amount",
          "type": "uint256"
        }
      ],
      "name": "PaymentReleased",
      "type": "event"
    },
    {
      "inputs": [],
      "name": "MIN_PRICE",
      "outputs": [
        {
          "internalType": "uint256",
          "name": "",
          "type": "uint256"
        }
      ],
      "stateMutability": "view",
      "type": "function"
    },
    {
      "inputs": [
        {
          "internalType": "uint256",
          "name": "collectionId",
          "type": "uint256"
        },
        {
          "internalType": "string",
          "name": "tokenURI",
          "type": "string"
        }
      ],
      "name": "buyFromCollection",
      "outputs": [],
      "stateMutability": "payable",
      "type": "function"
    },
    {
      "inputs": [
        {
          "internalType": "address",
          "name": "collection",
          "type": "address"
        },
        {
          "internalType": "uint256",
          "name": "tokenId",
          "type": "uint256"
        }
      ],
      "name": "buyNFT",
      "outputs": [],
      "stateMutability": "payable",
      "type": "function"
    },
    {
      "inputs": [
        {
          "internalType": "address",
          "name": "collection",
          "type": "address"
        },
        {
          "internalType": "uint256",
          "name": "tokenId",
          "type": "uint256"
        }
      ],
      "name": "delistNFT",
      "outputs": [],
      "stateMutability": "nonpayable",
      "type": "function"
    },
    {
      "inputs": [
        {
          "internalType": "uint256",
          "name": "page",
          "type": "uint256"
        }
      ],
      "name": "getAllListings",
      "outputs": [
        {
          "components": [
            {
              "internalType": "uint256",
              "name": "tokenId",
              "type": "uint256"
            },
            {
              "internalType": "uint256",
              "name": "price",
              "type": "uint256"
            },
            {
              "internalType": "address",
              "name": "seller",
              "type": "address"
            },
            {
              "internalType": "address",
              "name": "collection",
              "type": "address"
            }
          ],
          "internalType": "struct NFTMarketplace.Listing[]",
          "name": "",
          "type": "tuple[]"
        }
      ],
      "stateMutability": "view",
      "type": "function"
    },
    {
      "inputs": [
        {
          "internalType": "address",
          "name": "collection",
          "type": "address"
        },
        {
          "internalType": "uint256",
          "name": "tokenId",
          "type": "uint256"
        }
      ],
      "name": "getKeyForToken",
      "outputs": [
        {
          "internalType": "bytes32",
          "name": "",
          "type": "bytes32"
        }
      ],
      "stateMutability": "pure",
      "type": "function"
    },
    {
      "inputs": [
        {
          "internalType": "uint256",
          "name": "collectionId",
          "type": "uint256"
        },
        {
          "internalType": "uint256",
          "name": "startIndex",
          "type": "uint256"
        },
        {
          "internalType": "uint256",
          "name": "pageSize",
          "type": "uint256"
        },
        {
          "internalType": "address",
          "name": "collection",
          "type": "address"
        }
      ],
      "name": "getListedTokensInCollection",
      "outputs": [
        {
          "internalType": "uint256[]",
          "name": "",
          "type": "uint256[]"
        }
      ],
      "stateMutability": "view",
      "type": "function"
    },
    {
      "inputs": [
        {
          "internalType": "uint256",
          "name": "tokenId",
          "type": "uint256"
        },
        {
          "internalType": "address",
          "name": "collection",
          "type": "address"
        }
      ],
      "name": "getListingByTokenIdAndAddress",
      "outputs": [
        {
          "components": [
            {
              "internalType": "uint256",
              "name": "tokenId",
              "type": "uint256"
            },
            {
              "internalType": "uint256",
              "name": "price",
              "type": "uint256"
            },
            {
              "internalType": "address",
              "name": "seller",
              "type": "address"
            },
            {
              "internalType": "address",
              "name": "collection",
              "type": "address"
            }
          ],
          "internalType": "struct NFTMarketplace.Listing",
          "name": "",
          "type": "tuple"
        }
      ],
      "stateMutability": "view",
      "type": "function"
    },
    {
      "inputs": [
        {
          "internalType": "address",
          "name": "collection",
          "type": "address"
        },
        {
          "internalType": "uint256",
          "name": "page",
          "type": "uint256"
        }
      ],
      "name": "getListingsByNFTContract",
      "outputs": [
        {
          "components": [
            {
              "internalType": "uint256",
              "name": "tokenId",
              "type": "uint256"
            },
            {
              "internalType": "uint256",
              "name": "price",
              "type": "uint256"
            },
            {
              "internalType": "address",
              "name": "seller",
              "type": "address"
            },
            {
              "internalType": "address",
              "name": "collection",
              "type": "address"
            }
          ],
          "internalType": "struct NFTMarketplace.Listing[]",
          "name": "",
          "type": "tuple[]"
        }
      ],
      "stateMutability": "view",
      "type": "function"
    },
    {
      "inputs": [
        {
          "internalType": "address",
          "name": "seller",
          "type": "address"
        },
        {
          "internalType": "uint256",
          "name": "page",
          "type": "uint256"
        }
      ],
      "name": "getListingsBySeller",
      "outputs": [
        {
          "components": [
            {
              "internalType": "uint256",
              "name": "tokenId",
              "type": "uint256"
            },
            {
              "internalType": "uint256",
              "name": "price",
              "type": "uint256"
            },
            {
              "internalType": "address",
              "name": "seller",
              "type": "address"
            },
            {
              "internalType": "address",
              "name": "collection",
              "type": "address"
            }
          ],
          "internalType": "struct NFTMarketplace.Listing[]",
          "name": "",
          "type": "tuple[]"
        }
      ],
      "stateMutability": "view",
      "type": "function"
    },
    {
      "inputs": [
        {
          "internalType": "address",
          "name": "collection",
          "type": "address"
        },
        {
          "internalType": "uint256",
          "name": "tokenId",
          "type": "uint256"
        }
      ],
      "name": "isTokenListed",
      "outputs": [
        {
          "internalType": "bool",
          "name": "",
          "type": "bool"
        }
      ],
      "stateMutability": "view",
      "type": "function"
    },
    {
      "inputs": [
        {
          "internalType": "uint256",
          "name": "tokenId",
          "type": "uint256"
        },
        {
          "internalType": "uint256",
          "name": "price",
          "type": "uint256"
        },
        {
          "internalType": "address",
          "name": "collection",
          "type": "address"
        }
      ],
      "name": "listNFT",
      "outputs": [],
      "stateMutability": "nonpayable",
      "type": "function"
    },
    {
      "inputs": [
        {
          "internalType": "bytes32",
          "name": "",
          "type": "bytes32"
        }
      ],
      "name": "listings",
      "outputs": [
        {
          "internalType": "uint256",
          "name": "tokenId",
          "type": "uint256"
        },
        {
          "internalType": "uint256",
          "name": "price",
          "type": "uint256"
        },
        {
          "internalType": "address",
          "name": "seller",
          "type": "address"
        },
        {
          "internalType": "address",
          "name": "collection",
          "type": "address"
        }
      ],
      "stateMutability": "view",
      "type": "function"
    },
    {
      "inputs": [
        {
          "internalType": "uint256",
          "name": "",
          "type": "uint256"
        }
      ],
      "name": "listingsKeys",
      "outputs": [
        {
          "internalType": "bytes32",
          "name": "",
          "type": "bytes32"
        }
      ],
      "stateMutability": "view",
      "type": "function"
    },
    {
      "inputs": [],
      "name": "owner",
      "outputs": [
        {
          "internalType": "address",
          "name": "",
          "type": "address"
        }
      ],
      "stateMutability": "view",
      "type": "function"
    },
    {
      "inputs": [
        {
          "internalType": "uint256",
          "name": "index",
          "type": "uint256"
        }
      ],
      "name": "payee",
      "outputs": [
        {
          "internalType": "address",
          "name": "",
          "type": "address"
        }
      ],
      "stateMutability": "view",
      "type": "function"
    },
    {
      "inputs": [
        {
          "internalType": "address",
          "name": "account",
          "type": "address"
        }
      ],
      "name": "releasable",
      "outputs": [
        {
          "internalType": "uint256",
          "name": "",
          "type": "uint256"
        }
      ],
      "stateMutability": "view",
      "type": "function"
    },
    {
      "inputs": [
        {
          "internalType": "contract IERC20",
          "name": "token",
          "type": "address"
        },
        {
          "internalType": "address",
          "name": "account",
          "type": "address"
        }
      ],
      "name": "releasable",
      "outputs": [
        {
          "internalType": "uint256",
          "name": "",
          "type": "uint256"
        }
      ],
      "stateMutability": "view",
      "type": "function"
    },
    {
      "inputs": [
        {
          "internalType": "address payable",
          "name": "account",
          "type": "address"
        }
      ],
      "name": "release",
      "outputs": [],
      "stateMutability": "nonpayable",
      "type": "function"
    },
    {
      "inputs": [
        {
          "internalType": "contract IERC20",
          "name": "token",
          "type": "address"
        },
        {
          "internalType": "address",
          "name": "account",
          "type": "address"
        }
      ],
      "name": "release",
      "outputs": [],
      "stateMutability": "nonpayable",
      "type": "function"
    },
    {
      "inputs": [
        {
          "internalType": "contract IERC20",
          "name": "token",
          "type": "address"
        },
        {
          "internalType": "address",
          "name": "account",
          "type": "address"
        }
      ],
      "name": "released",
      "outputs": [
        {
          "internalType": "uint256",
          "name": "",
          "type": "uint256"
        }
      ],
      "stateMutability": "view",
      "type": "function"
    },
    {
      "inputs": [
        {
          "internalType": "address",
          "name": "account",
          "type": "address"
        }
      ],
      "name": "released",
      "outputs": [
        {
          "internalType": "uint256",
          "name": "",
          "type": "uint256"
        }
      ],
      "stateMutability": "view",
      "type": "function"
    },
    {
      "inputs": [],
      "name": "renounceOwnership",
      "outputs": [],
      "stateMutability": "nonpayable",
      "type": "function"
    },
    {
      "inputs": [
        {
          "internalType": "address",
          "name": "account",
          "type": "address"
        }
      ],
      "name": "shares",
      "outputs": [
        {
          "internalType": "uint256",
          "name": "",
          "type": "uint256"
        }
      ],
      "stateMutability": "view",
      "type": "function"
    },
    {
      "inputs": [
        {
          "internalType": "contract IERC20",
          "name": "token",
          "type": "address"
        }
      ],
      "name": "totalReleased",
      "outputs": [
        {
          "internalType": "uint256",
          "name": "",
          "type": "uint256"
        }
      ],
      "stateMutability": "view",
      "type": "function"
    },
    {
      "inputs": [],
      "name": "totalReleased",
      "outputs": [
        {
          "internalType": "uint256",
          "name": "",
          "type": "uint256"
        }
      ],
      "stateMutability": "view",
      "type": "function"
    },
    {
      "inputs": [],
      "name": "totalShares",
      "outputs": [
        {
          "internalType": "uint256",
          "name": "",
          "type": "uint256"
        }
      ],
      "stateMutability": "view",
      "type": "function"
    },
    {
      "inputs": [
        {
          "internalType": "address",
          "name": "newOwner",
          "type": "address"
        }
      ],
      "name": "transferOwnership",
      "outputs": [],
      "stateMutability": "nonpayable",
      "type": "function"
    },
    {
      "stateMutability": "payable",
      "type": "receive"
    }
  ],
  "bytecode": "0x60806040523480156200001157600080fd5b5060405162006e1938038062006e19833981810160405281019062000037919062000788565b8282620000596200004d6200031060201b60201c565b6200031860201b60201c565b600180819055508051825114620000a7576040517f08c379a00000000000000000000000000000000000000000000000000000000081526004016200009e90620009f1565b60405180910390fd5b6000825111620000ee576040517f08c379a0000000000000000000000000000000000000000000000000000000008152600401620000e59062000a79565b60405180910390fd5b60005b8251811015620001a5576200018f83828151811062000139577f4e487b7100000000000000000000000000000000000000000000000000000000600052603260045260246000fd5b60200260200101518383815181106200017b577f4e487b7100000000000000000000000000000000000000000000000000000000600052603260045260246000fd5b6020026020010151620003dc60201b60201c565b80806200019c9062000c26565b915050620000f1565b5050506000835111620001ef576040517f08c379a0000000000000000000000000000000000000000000000000000000008152600401620001e69062000a35565b60405180910390fd5b815183511462000236576040517f08c379a00000000000000000000000000000000000000000000000000000000081526004016200022d9062000a13565b60405180910390fd5b600a8111156200027d576040517f08c379a00000000000000000000000000000000000000000000000000000000081526004016200027490620009cf565b60405180910390fd5b83600b60006101000a81548173ffffffffffffffffffffffffffffffffffffffff021916908373ffffffffffffffffffffffffffffffffffffffff16021790555083600a60006101000a81548173ffffffffffffffffffffffffffffffffffffffff021916908373ffffffffffffffffffffffffffffffffffffffff160217905550806009819055505050505062000ef7565b600033905090565b60008060009054906101000a900473ffffffffffffffffffffffffffffffffffffffff169050816000806101000a81548173ffffffffffffffffffffffffffffffffffffffff021916908373ffffffffffffffffffffffffffffffffffffffff1602179055508173ffffffffffffffffffffffffffffffffffffffff168173ffffffffffffffffffffffffffffffffffffffff167f8be0079c531659141344cd1fd0a4f28419497f9722a3daafe3b4186f6b6457e060405160405180910390a35050565b600073ffffffffffffffffffffffffffffffffffffffff168273ffffffffffffffffffffffffffffffffffffffff1614156200044f576040517f08c379a00000000000000000000000000000000000000000000000000000000081526004016200044690620009ad565b60405180910390fd5b6000811162000495576040517f08c379a00000000000000000000000000000000000000000000000000000000081526004016200048c9062000a9b565b60405180910390fd5b6000600460008473ffffffffffffffffffffffffffffffffffffffff1673ffffffffffffffffffffffffffffffffffffffff16815260200190815260200160002054146200051a576040517f08c379a0000000000000000000000000000000000000000000000000000000008152600401620005119062000a57565b60405180910390fd5b6006829080600181540180825580915050600190039060005260206000200160009091909190916101000a81548173ffffffffffffffffffffffffffffffffffffffff021916908373ffffffffffffffffffffffffffffffffffffffff16021790555080600460008473ffffffffffffffffffffffffffffffffffffffff1673ffffffffffffffffffffffffffffffffffffffff1681526020019081526020016000208190555080600254620005d1919062000b55565b6002819055507f40c340f65e17194d14ddddb073d3c9f888e3cb52b5aae0c6c7706b4fbc905fac82826040516200060a92919062000980565b60405180910390a15050565b60006200062d620006278462000ae6565b62000abd565b905080838252602082019050828560208602820111156200064d57600080fd5b60005b8581101562000681578162000666888262000700565b84526020840193506020830192505060018101905062000650565b5050509392505050565b6000620006a26200069c8462000b15565b62000abd565b90508083825260208201905082856020860282011115620006c257600080fd5b60005b85811015620006f65781620006db888262000771565b845260208401935060208301925050600181019050620006c5565b5050509392505050565b600081519050620007118162000ec3565b92915050565b600082601f8301126200072957600080fd5b81516200073b84826020860162000616565b91505092915050565b600082601f8301126200075657600080fd5b8151620007688482602086016200068b565b91505092915050565b600081519050620007828162000edd565b92915050565b600080600080608085870312156200079f57600080fd5b6000620007af8782880162000700565b945050602085015167ffffffffffffffff811115620007cd57600080fd5b620007db8782880162000717565b935050604085015167ffffffffffffffff811115620007f957600080fd5b620008078782880162000744565b92505060606200081a8782880162000771565b91505092959194509250565b620008318162000bb2565b82525050565b600062000846602c8362000b44565b9150620008538262000ce3565b604082019050919050565b60006200086d601f8362000b44565b91506200087a8262000d32565b602082019050919050565b60006200089460328362000b44565b9150620008a18262000d5b565b604082019050919050565b6000620008bb60238362000b44565b9150620008c88262000daa565b604082019050919050565b6000620008e2601e8362000b44565b9150620008ef8262000df9565b602082019050919050565b600062000909602b8362000b44565b9150620009168262000e22565b604082019050919050565b600062000930601a8362000b44565b91506200093d8262000e71565b602082019050919050565b600062000957601d8362000b44565b9150620009648262000e9a565b602082019050919050565b6200097a8162000be6565b82525050565b600060408201905062000997600083018562000826565b620009a660208301846200096f565b9392505050565b60006020820190508181036000830152620009c88162000837565b9050919050565b60006020820190508181036000830152620009ea816200085e565b9050919050565b6000602082019050818103600083015262000a0c8162000885565b9050919050565b6000602082019050818103600083015262000a2e81620008ac565b9050919050565b6000602082019050818103600083015262000a5081620008d3565b9050919050565b6000602082019050818103600083015262000a7281620008fa565b9050919050565b6000602082019050818103600083015262000a948162000921565b9050919050565b6000602082019050818103600083015262000ab68162000948565b9050919050565b600062000ac962000adc565b905062000ad7828262000bf0565b919050565b6000604051905090565b600067ffffffffffffffff82111562000b045762000b0362000ca3565b5b602082029050602081019050919050565b600067ffffffffffffffff82111562000b335762000b3262000ca3565b5b602082029050602081019050919050565b600082825260208201905092915050565b600062000b628262000be6565b915062000b6f8362000be6565b9250827fffffffffffffffffffffffffffffffffffffffffffffffffffffffffffffffff0382111562000ba75762000ba662000c74565b5b828201905092915050565b600062000bbf8262000bc6565b9050919050565b600073ffffffffffffffffffffffffffffffffffffffff82169050919050565b6000819050919050565b62000bfb8262000cd2565b810181811067ffffffffffffffff8211171562000c1d5762000c1c62000ca3565b5b80604052505050565b600062000c338262000be6565b91507fffffffffffffffffffffffffffffffffffffffffffffffffffffffffffffffff82141562000c695762000c6862000c74565b5b600182019050919050565b7f4e487b7100000000000000000000000000000000000000000000000000000000600052601160045260246000fd5b7f4e487b7100000000000000000000000000000000000000000000000000000000600052604160045260246000fd5b6000601f19601f8301169050919050565b7f5061796d656e7453706c69747465723a206163636f756e74206973207468652060008201527f7a65726f20616464726573730000000000000000000000000000000000000000602082015250565b7f4d6178696d756d2025206f6620726f79616c7469657320657865656464656400600082015250565b7f5061796d656e7453706c69747465723a2070617965657320616e64207368617260008201527f6573206c656e677468206d69736d617463680000000000000000000000000000602082015250565b7f50617965657320616e6420736861726573206c656e677468206d757374206d6160008201527f7463680000000000000000000000000000000000000000000000000000000000602082015250565b7f4174206c65617374206f6e652070617965652069732072657175697265640000600082015250565b7f5061796d656e7453706c69747465723a206163636f756e7420616c726561647960008201527f2068617320736861726573000000000000000000000000000000000000000000602082015250565b7f5061796d656e7453706c69747465723a206e6f20706179656573000000000000600082015250565b7f5061796d656e7453706c69747465723a20736861726573206172652030000000600082015250565b62000ece8162000bb2565b811462000eda57600080fd5b50565b62000ee88162000be6565b811462000ef457600080fd5b50565b615f128062000f076000396000f3fe6080604052600436106101bb5760003560e01c8063a17a7094116100ec578063ce7c2ac21161008a578063f193a6cf11610064578063f193a6cf146106c2578063f2fde38b146106ff578063f4b4835714610728578063fad03b801461076557610202565b8063ce7c2ac21461061d578063d79779b21461065a578063e33b7de31461069757610202565b8063ad9f20a6116100c6578063ad9f20a614610559578063c18b8db414610584578063c45ac050146105c4578063c4f85af71461060157610202565b8063a17a7094146104d7578063a3f8eace14610500578063a82ba76f1461053d57610202565b80634f99b104116101595780637e5c0924116101335780637e5c0924146103f55780638b83209b146104325780638da5cb5b1461046f5780639852595c1461049a57610202565b80634f99b104146103645780635471b47a146103a1578063715018a6146103de57610202565b80633a98ef39116101955780633a98ef3914610296578063406072a9146102c157806348b75044146102fe5780634d2f65031461032757610202565b806302998cf31461020757806314cadc7014610230578063191655871461026d57610202565b36610202577f6ef95f06320e7a25a04a175ca677b7052bdd97131872c2192525a629f51be7706101e96107a2565b346040516101f8929190614dad565b60405180910390a1005b600080fd5b34801561021357600080fd5b5061022e600480360381019061022991906145d1565b6107aa565b005b34801561023c57600080fd5b50610257600480360381019061025291906144b3565b610e9c565b6040516102649190614dd6565b60405180910390f35b34801561027957600080fd5b50610294600480360381019061028f919061431a565b611385565b005b3480156102a257600080fd5b506102ab611505565b6040516102b891906151e8565b60405180910390f35b3480156102cd57600080fd5b506102e860048036038101906102e39190614477565b61150f565b6040516102f591906151e8565b60405180910390f35b34801561030a57600080fd5b5061032560048036038101906103209190614477565b611596565b005b34801561033357600080fd5b5061034e60048036038101906103499190614505565b6117aa565b60405161035b91906151cd565b60405180910390f35b34801561037057600080fd5b5061038b60048036038101906103869190614343565b61194d565b6040516103989190614dd6565b60405180910390f35b3480156103ad57600080fd5b506103c860048036038101906103c39190614343565b611e21565b6040516103d59190614e1a565b60405180910390f35b3480156103ea57600080fd5b506103f3611ea0565b005b34801561040157600080fd5b5061041c60048036038101906104179190614620565b611eb4565b6040516104299190614df8565b60405180910390f35b34801561043e57600080fd5b50610459600480360381019061045491906144b3565b6122c2565b6040516104669190614d32565b60405180910390f35b34801561047b57600080fd5b50610484612330565b6040516104919190614d32565b60405180910390f35b3480156104a657600080fd5b506104c160048036038101906104bc91906142c8565b612359565b6040516104ce91906151e8565b60405180910390f35b3480156104e357600080fd5b506104fe60048036038101906104f99190614343565b6123a2565b005b34801561050c57600080fd5b50610527600480360381019061052291906142c8565b61270b565b60405161053491906151e8565b60405180910390f35b61055760048036038101906105529190614343565b61273e565b005b34801561056557600080fd5b5061056e612fe3565b60405161057b91906151e8565b60405180910390f35b34801561059057600080fd5b506105ab60048036038101906105a69190614425565b612fee565b6040516105bb94939291906152a1565b60405180910390f35b3480156105d057600080fd5b506105eb60048036038101906105e69190614477565b61305e565b6040516105f891906151e8565b60405180910390f35b61061b6004803603810190610616919061457d565b61311c565b005b34801561062957600080fd5b50610644600480360381019061063f91906142c8565b613394565b60405161065191906151e8565b60405180910390f35b34801561066657600080fd5b50610681600480360381019061067c919061444e565b6133dd565b60405161068e91906151e8565b60405180910390f35b3480156106a357600080fd5b506106ac613426565b6040516106b991906151e8565b60405180910390f35b3480156106ce57600080fd5b506106e960048036038101906106e491906144b3565b613430565b6040516106f69190614e35565b60405180910390f35b34801561070b57600080fd5b50610726600480360381019061072191906142c8565b613454565b005b34801561073457600080fd5b5061074f600480360381019061074a9190614343565b6134d8565b60405161075c9190614e35565b60405180910390f35b34801561077157600080fd5b5061078c60048036038101906107879190614343565b61350b565b6040516107999190614dd6565b60405180910390f35b600033905090565b6107b2613a35565b600081905060008290508073ffffffffffffffffffffffffffffffffffffffff166301ffc9a77f80ac58cd000000000000000000000000000000000000000000000000000000006040518263ffffffff1660e01b81526004016108159190614e50565b60206040518083038186803b15801561082d57600080fd5b505afa158015610841573d6000803e3d6000fd5b505050506040513d601f19601f8201168201806040525081019061086591906143fc565b6108a4576040517f08c379a000000000000000000000000000000000000000000000000000000000815260040161089b90614ead565b60405180910390fd5b6108ae8386611e21565b156108ee576040517f08c379a00000000000000000000000000000000000000000000000000000000081526004016108e59061512d565b60405180910390fd5b66038d7ea4c68000841015610938576040517f08c379a000000000000000000000000000000000000000000000000000000000815260040161092f9061506d565b60405180910390fd5b3373ffffffffffffffffffffffffffffffffffffffff168273ffffffffffffffffffffffffffffffffffffffff16636352211e876040518263ffffffff1660e01b815260040161098891906151e8565b60206040518083038186803b1580156109a057600080fd5b505afa1580156109b4573d6000803e3d6000fd5b505050506040513d601f19601f820116820180604052508101906109d891906142f1565b73ffffffffffffffffffffffffffffffffffffffff161480610aa05750600a60009054906101000a900473ffffffffffffffffffffffffffffffffffffffff1673ffffffffffffffffffffffffffffffffffffffff163373ffffffffffffffffffffffffffffffffffffffff16148015610a9f5750600a60009054906101000a900473ffffffffffffffffffffffffffffffffffffffff1673ffffffffffffffffffffffffffffffffffffffff168373ffffffffffffffffffffffffffffffffffffffff16145b5b610adf576040517f08c379a0000000000000000000000000000000000000000000000000000000008152600401610ad69061502d565b60405180910390fd5b8073ffffffffffffffffffffffffffffffffffffffff166301ffc9a77f2a55205a000000000000000000000000000000000000000000000000000000006040518263ffffffff1660e01b8152600401610b389190614e50565b60206040518083038186803b158015610b5057600080fd5b505afa158015610b64573d6000803e3d6000fd5b505050506040513d601f19601f82011682018060405250810190610b8891906143fc565b610bc7576040517f08c379a0000000000000000000000000000000000000000000000000000000008152600401610bbe906151ad565b60405180910390fd5b6000610bd384876134d8565b905060405180608001604052808781526020018681526020018473ffffffffffffffffffffffffffffffffffffffff16636352211e896040518263ffffffff1660e01b8152600401610c2591906151e8565b60206040518083038186803b158015610c3d57600080fd5b505afa158015610c51573d6000803e3d6000fd5b505050506040513d601f19601f82011682018060405250810190610c7591906142f1565b73ffffffffffffffffffffffffffffffffffffffff1681526020018573ffffffffffffffffffffffffffffffffffffffff16815250600d6000838152602001908152602001600020600082015181600001556020820151816001015560408201518160020160006101000a81548173ffffffffffffffffffffffffffffffffffffffff021916908373ffffffffffffffffffffffffffffffffffffffff16021790555060608201518160030160006101000a81548173ffffffffffffffffffffffffffffffffffffffff021916908373ffffffffffffffffffffffffffffffffffffffff1602179055509050508273ffffffffffffffffffffffffffffffffffffffff166323b872dd8473ffffffffffffffffffffffffffffffffffffffff16636352211e896040518263ffffffff1660e01b8152600401610db791906151e8565b60206040518083038186803b158015610dcf57600080fd5b505afa158015610de3573d6000803e3d6000fd5b505050506040513d601f19601f82011682018060405250810190610e0791906142f1565b30896040518463ffffffff1660e01b8152600401610e2793929190614d76565b600060405180830381600087803b158015610e4157600080fd5b505af1158015610e55573d6000803e3d6000fd5b50505050610e63600c613a85565b600e819080600181540180825580915050600190039060005260206000200160009091909190915055505050610e97613a9b565b505050565b606060008211610ee1576040517f08c379a0000000000000000000000000000000000000000000000000000000008152600401610ed89061504d565b60405180910390fd5b6000610eed600c613aa4565b905060006064600185610f009190615524565b610f0a91906154ca565b9050600082606483610f1c9190615443565b11610f3357606482610f2e9190615443565b610f35565b825b9050818111610fc357600067ffffffffffffffff811115610f7f577f4e487b7100000000000000000000000000000000000000000000000000000000600052604160045260246000fd5b604051908082528060200260200182016040528015610fb857816020015b610fa56140ce565b815260200190600190039081610f9d5790505b509350505050611380565b60008282610fd19190615524565b67ffffffffffffffff811115611010577f4e487b7100000000000000000000000000000000000000000000000000000000600052604160045260246000fd5b60405190808252806020026020018201604052801561104957816020015b6110366140ce565b81526020019060019003908161102e5790505b5090506000808490505b83811015611253576000600e8281548110611097577f4e487b7100000000000000000000000000000000000000000000000000000000600052603260045260246000fd5b90600052602060002001549050600073ffffffffffffffffffffffffffffffffffffffff16600d600083815260200190815260200160002060020160009054906101000a900473ffffffffffffffffffffffffffffffffffffffff1673ffffffffffffffffffffffffffffffffffffffff161461123f57600d600082815260200190815260200160002060405180608001604052908160008201548152602001600182015481526020016002820160009054906101000a900473ffffffffffffffffffffffffffffffffffffffff1673ffffffffffffffffffffffffffffffffffffffff1673ffffffffffffffffffffffffffffffffffffffff1681526020016003820160009054906101000a900473ffffffffffffffffffffffffffffffffffffffff1673ffffffffffffffffffffffffffffffffffffffff1673ffffffffffffffffffffffffffffffffffffffff1681525050848481518110611225577f4e487b7100000000000000000000000000000000000000000000000000000000600052603260045260246000fd5b6020026020010181905250828061123b906156a3565b9350505b50808061124b906156a3565b915050611053565b5060008167ffffffffffffffff811115611296577f4e487b7100000000000000000000000000000000000000000000000000000000600052604160045260246000fd5b6040519080825280602002602001820160405280156112cf57816020015b6112bc6140ce565b8152602001906001900390816112b45790505b50905060005b8281101561137557838181518110611316577f4e487b7100000000000000000000000000000000000000000000000000000000600052603260045260246000fd5b6020026020010151828281518110611357577f4e487b7100000000000000000000000000000000000000000000000000000000600052603260045260246000fd5b6020026020010181905250808061136d906156a3565b9150506112d5565b508096505050505050505b919050565b6000600460008373ffffffffffffffffffffffffffffffffffffffff1673ffffffffffffffffffffffffffffffffffffffff1681526020019081526020016000205411611407576040517f08c379a00000000000000000000000000000000000000000000000000000000081526004016113fe90614f6d565b60405180910390fd5b60006114128261270b565b90506000811415611458576040517f08c379a000000000000000000000000000000000000000000000000000000000815260040161144f90614fed565b60405180910390fd5b806003600082825461146a9190615443565b9250508190555080600560008473ffffffffffffffffffffffffffffffffffffffff1673ffffffffffffffffffffffffffffffffffffffff168152602001908152602001600020600082825401925050819055506114c88282613ab2565b7fdf20fd1e76bc69d672e4814fafb2c449bba3a5369d8359adf9e05e6fde87b05682826040516114f9929190614d4d565b60405180910390a15050565b6000600254905090565b6000600860008473ffffffffffffffffffffffffffffffffffffffff1673ffffffffffffffffffffffffffffffffffffffff16815260200190815260200160002060008373ffffffffffffffffffffffffffffffffffffffff1673ffffffffffffffffffffffffffffffffffffffff16815260200190815260200160002054905092915050565b6000600460008373ffffffffffffffffffffffffffffffffffffffff1673ffffffffffffffffffffffffffffffffffffffff1681526020019081526020016000205411611618576040517f08c379a000000000000000000000000000000000000000000000000000000000815260040161160f90614f6d565b60405180910390fd5b6000611624838361305e565b9050600081141561166a576040517f08c379a000000000000000000000000000000000000000000000000000000000815260040161166190614fed565b60405180910390fd5b80600760008573ffffffffffffffffffffffffffffffffffffffff1673ffffffffffffffffffffffffffffffffffffffff16815260200190815260200160002060008282546116b99190615443565b9250508190555080600860008573ffffffffffffffffffffffffffffffffffffffff1673ffffffffffffffffffffffffffffffffffffffff16815260200190815260200160002060008473ffffffffffffffffffffffffffffffffffffffff1673ffffffffffffffffffffffffffffffffffffffff16815260200190815260200160002060008282540192505081905550611755838383613ba6565b8273ffffffffffffffffffffffffffffffffffffffff167f3be5b7a71e84ed12875d241991c70855ac5817d847039e17a9d895c1ceb0f18a838360405161179d929190614dad565b60405180910390a2505050565b6117b26140ce565b60006117be83856134d8565b9050600073ffffffffffffffffffffffffffffffffffffffff16600d600083815260200190815260200160002060020160009054906101000a900473ffffffffffffffffffffffffffffffffffffffff1673ffffffffffffffffffffffffffffffffffffffff161415611866576040517f08c379a000000000000000000000000000000000000000000000000000000000815260040161185d90614f2d565b60405180910390fd5b600d600082815260200190815260200160002060405180608001604052908160008201548152602001600182015481526020016002820160009054906101000a900473ffffffffffffffffffffffffffffffffffffffff1673ffffffffffffffffffffffffffffffffffffffff1673ffffffffffffffffffffffffffffffffffffffff1681526020016003820160009054906101000a900473ffffffffffffffffffffffffffffffffffffffff1673ffffffffffffffffffffffffffffffffffffffff1673ffffffffffffffffffffffffffffffffffffffff168152505091505092915050565b606060008211611992576040517f08c379a00000000000000000000000000000000000000000000000000000000081526004016119899061504d565b60405180910390fd5b6000600e805490509050600060646001856119ad9190615524565b6119b791906154ca565b90506000826064836119c99190615443565b116119e0576064826119db9190615443565b6119e2565b825b9050818111611a7057600067ffffffffffffffff811115611a2c577f4e487b7100000000000000000000000000000000000000000000000000000000600052604160045260246000fd5b604051908082528060200260200182016040528015611a6557816020015b611a526140ce565b815260200190600190039081611a4a5790505b509350505050611e1b565b60008282611a7e9190615524565b67ffffffffffffffff811115611abd577f4e487b7100000000000000000000000000000000000000000000000000000000600052604160045260246000fd5b604051908082528060200260200182016040528015611af657816020015b611ae36140ce565b815260200190600190039081611adb5790505b5090506000808490505b83811015611cee576000600d6000600e8481548110611b48577f4e487b7100000000000000000000000000000000000000000000000000000000600052603260045260246000fd5b9060005260206000200154815260200190815260200160002090508973ffffffffffffffffffffffffffffffffffffffff168160020160009054906101000a900473ffffffffffffffffffffffffffffffffffffffff1673ffffffffffffffffffffffffffffffffffffffff161415611cda578060405180608001604052908160008201548152602001600182015481526020016002820160009054906101000a900473ffffffffffffffffffffffffffffffffffffffff1673ffffffffffffffffffffffffffffffffffffffff1673ffffffffffffffffffffffffffffffffffffffff1681526020016003820160009054906101000a900473ffffffffffffffffffffffffffffffffffffffff1673ffffffffffffffffffffffffffffffffffffffff1673ffffffffffffffffffffffffffffffffffffffff1681525050848481518110611cc0577f4e487b7100000000000000000000000000000000000000000000000000000000600052603260045260246000fd5b60200260200101819052508280611cd6906156a3565b9350505b508080611ce6906156a3565b915050611b00565b5060008167ffffffffffffffff811115611d31577f4e487b7100000000000000000000000000000000000000000000000000000000600052604160045260246000fd5b604051908082528060200260200182016040528015611d6a57816020015b611d576140ce565b815260200190600190039081611d4f5790505b50905060005b82811015611e1057838181518110611db1577f4e487b7100000000000000000000000000000000000000000000000000000000600052603260045260246000fd5b6020026020010151828281518110611df2577f4e487b7100000000000000000000000000000000000000000000000000000000600052603260045260246000fd5b60200260200101819052508080611e08906156a3565b915050611d70565b508096505050505050505b92915050565b600080611e2e84846134d8565b9050600073ffffffffffffffffffffffffffffffffffffffff16600d600083815260200190815260200160002060020160009054906101000a900473ffffffffffffffffffffffffffffffffffffffff1673ffffffffffffffffffffffffffffffffffffffff16141591505092915050565b611ea8613c2c565b611eb26000613caa565b565b606060008367ffffffffffffffff811115611ef8577f4e487b7100000000000000000000000000000000000000000000000000000000600052604160045260246000fd5b604051908082528060200260200182016040528015611f265781602001602082028036833780820191505090505b509050600080600b60009054906101000a900473ffffffffffffffffffffffffffffffffffffffff1673ffffffffffffffffffffffffffffffffffffffff1663d08b28ea8989896040518463ffffffff1660e01b8152600401611f8b939291906152e6565b60006040518083038186803b158015611fa357600080fd5b505afa158015611fb7573d6000803e3d6000fd5b505050506040513d6000823e3d601f19601f82011682018060405250810190611fe091906143bb565b905060008151141561206657600067ffffffffffffffff81111561202d577f4e487b7100000000000000000000000000000000000000000000000000000000600052604160045260246000fd5b60405190808252806020026020018201604052801561205b5781602001602082028036833780820191505090505b5093505050506122ba565b60005b81518110156121995760008282815181106120ad577f4e487b7100000000000000000000000000000000000000000000000000000000600052603260045260246000fd5b6020026020010151905060006120c388836134d8565b9050600073ffffffffffffffffffffffffffffffffffffffff16600d600083815260200190815260200160002060020160009054906101000a900473ffffffffffffffffffffffffffffffffffffffff1673ffffffffffffffffffffffffffffffffffffffff16146121845781868681518110612169577f4e487b7100000000000000000000000000000000000000000000000000000000600052603260045260246000fd5b6020026020010181815250508480612180906156a3565b9550505b50508080612191906156a3565b915050612069565b5060008267ffffffffffffffff8111156121dc577f4e487b7100000000000000000000000000000000000000000000000000000000600052604160045260246000fd5b60405190808252806020026020018201604052801561220a5781602001602082028036833780820191505090505b50905060005b838110156122b157848181518110612251577f4e487b7100000000000000000000000000000000000000000000000000000000600052603260045260246000fd5b6020026020010151828281518110612292577f4e487b7100000000000000000000000000000000000000000000000000000000600052603260045260246000fd5b60200260200101818152505080806122a9906156a3565b915050612210565b50809450505050505b949350505050565b6000600682815481106122fe577f4e487b7100000000000000000000000000000000000000000000000000000000600052603260045260246000fd5b9060005260206000200160009054906101000a900473ffffffffffffffffffffffffffffffffffffffff169050919050565b60008060009054906101000a900473ffffffffffffffffffffffffffffffffffffffff16905090565b6000600560008373ffffffffffffffffffffffffffffffffffffffff1673ffffffffffffffffffffffffffffffffffffffff168152602001908152602001600020549050919050565b6123aa613a35565b60006123b683836134d8565b90506000600d600083815260200190815260200160002090503373ffffffffffffffffffffffffffffffffffffffff168160020160009054906101000a900473ffffffffffffffffffffffffffffffffffffffff1673ffffffffffffffffffffffffffffffffffffffff1614612461576040517f08c379a00000000000000000000000000000000000000000000000000000000081526004016124589061502d565b60405180910390fd5b60008160030160009054906101000a900473ffffffffffffffffffffffffffffffffffffffff1690508073ffffffffffffffffffffffffffffffffffffffff166323b872dd308460020160009054906101000a900473ffffffffffffffffffffffffffffffffffffffff16876040518463ffffffff1660e01b81526004016124eb93929190614d76565b600060405180830381600087803b15801561250557600080fd5b505af1158015612519573d6000803e3d6000fd5b50505050600d600084815260200190815260200160002060008082016000905560018201600090556002820160006101000a81549073ffffffffffffffffffffffffffffffffffffffff02191690556003820160006101000a81549073ffffffffffffffffffffffffffffffffffffffff0219169055505061259b600c613d6e565b60005b600e805490508110156126fb5783600e82815481106125e6577f4e487b7100000000000000000000000000000000000000000000000000000000600052603260045260246000fd5b906000526020600020015414156126e857600e6001600e8054905061260b9190615524565b81548110612642577f4e487b7100000000000000000000000000000000000000000000000000000000600052603260045260246000fd5b9060005260206000200154600e8281548110612687577f4e487b7100000000000000000000000000000000000000000000000000000000600052603260045260246000fd5b9060005260206000200181905550600e8054806126cd577f4e487b7100000000000000000000000000000000000000000000000000000000600052603160045260246000fd5b600190038181906000526020600020016000905590556126fb565b80806126f3906156a3565b91505061259e565b50505050612707613a9b565b5050565b600080612716613426565b476127219190615443565b9050612736838261273186612359565b613dca565b915050919050565b612746613a35565b600061275283836134d8565b90506000600d60008381526020019081526020016000209050806001015434146127b1576040517f08c379a00000000000000000000000000000000000000000000000000000000081526004016127a8906150cd565b60405180910390fd5b3373ffffffffffffffffffffffffffffffffffffffff168160020160009054906101000a900473ffffffffffffffffffffffffffffffffffffffff1673ffffffffffffffffffffffffffffffffffffffff161415612844576040517f08c379a000000000000000000000000000000000000000000000000000000000815260040161283b9061508d565b60405180910390fd5b60008490508073ffffffffffffffffffffffffffffffffffffffff166301ffc9a77f80ac58cd000000000000000000000000000000000000000000000000000000006040518263ffffffff1660e01b81526004016128a29190614e50565b60206040518083038186803b1580156128ba57600080fd5b505afa1580156128ce573d6000803e3d6000fd5b505050506040513d601f19601f820116820180604052508101906128f291906143fc565b612931576040517f08c379a000000000000000000000000000000000000000000000000000000000815260040161292890614ead565b60405180910390fd5b8073ffffffffffffffffffffffffffffffffffffffff166301ffc9a77f2a55205a000000000000000000000000000000000000000000000000000000006040518263ffffffff1660e01b815260040161298a9190614e50565b60206040518083038186803b1580156129a257600080fd5b505afa1580156129b6573d6000803e3d6000fd5b505050506040513d601f19601f820116820180604052508101906129da91906143fc565b612a19576040517f08c379a0000000000000000000000000000000000000000000000000000000008152600401612a109061500d565b60405180910390fd5b600085905060008690506000808373ffffffffffffffffffffffffffffffffffffffff16632a55205a876000015488600101546040518363ffffffff1660e01b8152600401612a69929190615278565b604080518083038186803b158015612a8057600080fd5b505afa158015612a94573d6000803e3d6000fd5b505050506040513d601f19601f82011682018060405250810190612ab8919061437f565b91509150600060646009548860010154612ad291906154ca565b612adc9190615499565b905060008282612aec9190615443565b90508088600101541015612b35576040517f08c379a0000000000000000000000000000000000000000000000000000000008152600401612b2c90614e8d565b60405180910390fd5b6000818960010154612b479190615524565b905060008960020160009054906101000a900473ffffffffffffffffffffffffffffffffffffffff1673ffffffffffffffffffffffffffffffffffffffff1682604051612b9390614d1d565b60006040518083038185875af1925050503d8060008114612bd0576040519150601f19603f3d011682016040523d82523d6000602084013e612bd5565b606091505b5050905080612c19576040517f08c379a0000000000000000000000000000000000000000000000000000000008152600401612c1090614f4d565b60405180910390fd5b60008673ffffffffffffffffffffffffffffffffffffffff1686604051612c3f90614d1d565b60006040518083038185875af1925050503d8060008114612c7c576040519150601f19603f3d011682016040523d82523d6000602084013e612c81565b606091505b5050905080612cc5576040517f08c379a0000000000000000000000000000000000000000000000000000000008152600401612cbc90614ecd565b60405180910390fd5b8773ffffffffffffffffffffffffffffffffffffffff166323b872dd30338e600001546040518463ffffffff1660e01b8152600401612d0693929190614d76565b600060405180830381600087803b158015612d2057600080fd5b505af1158015612d34573d6000803e3d6000fd5b50505050600d60008d815260200190815260200160002060008082016000905560018201600090556002820160006101000a81549073ffffffffffffffffffffffffffffffffffffffff02191690556003820160006101000a81549073ffffffffffffffffffffffffffffffffffffffff02191690555050612db6600c613d6e565b60005b600e80549050811015612f16578c600e8281548110612e01577f4e487b7100000000000000000000000000000000000000000000000000000000600052603260045260246000fd5b90600052602060002001541415612f0357600e6001600e80549050612e269190615524565b81548110612e5d577f4e487b7100000000000000000000000000000000000000000000000000000000600052603260045260246000fd5b9060005260206000200154600e8281548110612ea2577f4e487b7100000000000000000000000000000000000000000000000000000000600052603260045260246000fd5b9060005260206000200181905550600e805480612ee8577f4e487b7100000000000000000000000000000000000000000000000000000000600052603160045260246000fd5b60019003818190600052602060002001600090559055612f16565b8080612f0e906156a3565b915050612db9565b503373ffffffffffffffffffffffffffffffffffffffff168b60020160009054906101000a900473ffffffffffffffffffffffffffffffffffffffff1673ffffffffffffffffffffffffffffffffffffffff168e7f4d26e6707cfb0dd9d0e2aaaf04de4b0b4a388a1c760ed3b2976827015153a39e8e600101548f60030160009054906101000a900473ffffffffffffffffffffffffffffffffffffffff16604051612fc3929190615203565b60405180910390a4505050505050505050505050612fdf613a9b565b5050565b66038d7ea4c6800081565b600d6020528060005260406000206000915090508060000154908060010154908060020160009054906101000a900473ffffffffffffffffffffffffffffffffffffffff16908060030160009054906101000a900473ffffffffffffffffffffffffffffffffffffffff16905084565b60008061306a846133dd565b8473ffffffffffffffffffffffffffffffffffffffff166370a08231306040518263ffffffff1660e01b81526004016130a39190614d32565b60206040518083038186803b1580156130bb57600080fd5b505afa1580156130cf573d6000803e3d6000fd5b505050506040513d601f19601f820116820180604052508101906130f391906144dc565b6130fd9190615443565b9050613113838261310e878761150f565b613dca565b91505092915050565b613124613a35565b600060646009543461313691906154ca565b6131409190615499565b9050803411613184576040517f08c379a000000000000000000000000000000000000000000000000000000000815260040161317b906150ad565b60405180910390fd5b600080600b60009054906101000a900473ffffffffffffffffffffffffffffffffffffffff1673ffffffffffffffffffffffffffffffffffffffff16636313a3e8863387346040518563ffffffff1660e01b81526004016131e8949392919061522c565b6040805180830381600087803b15801561320157600080fd5b505af1158015613215573d6000803e3d6000fd5b505050506040513d601f19601f820116820180604052508101906132399190614541565b915091506000833461324b9190615524565b905060008273ffffffffffffffffffffffffffffffffffffffff168260405161327390614d1d565b60006040518083038185875af1925050503d80600081146132b0576040519150601f19603f3d011682016040523d82523d6000602084013e6132b5565b606091505b50509050806132f9576040517f08c379a00000000000000000000000000000000000000000000000000000000081526004016132f09061510d565b60405180910390fd5b3373ffffffffffffffffffffffffffffffffffffffff168373ffffffffffffffffffffffffffffffffffffffff16857f4d26e6707cfb0dd9d0e2aaaf04de4b0b4a388a1c760ed3b2976827015153a39e34600a60009054906101000a900473ffffffffffffffffffffffffffffffffffffffff1660405161337b929190615203565b60405180910390a45050505050613390613a9b565b5050565b6000600460008373ffffffffffffffffffffffffffffffffffffffff1673ffffffffffffffffffffffffffffffffffffffff168152602001908152602001600020549050919050565b6000600760008373ffffffffffffffffffffffffffffffffffffffff1673ffffffffffffffffffffffffffffffffffffffff168152602001908152602001600020549050919050565b6000600354905090565b600e818154811061344057600080fd5b906000526020600020016000915090505481565b61345c613c2c565b600073ffffffffffffffffffffffffffffffffffffffff168173ffffffffffffffffffffffffffffffffffffffff1614156134cc576040517f08c379a00000000000000000000000000000000000000000000000000000000081526004016134c390614f0d565b60405180910390fd5b6134d581613caa565b50565b600082826040516020016134ed929190614cda565b60405160208183030381529060405280519060200120905092915050565b606060008211613550576040517f08c379a00000000000000000000000000000000000000000000000000000000081526004016135479061504d565b60405180910390fd5b6000600e8054905090506000606460018561356b9190615524565b61357591906154ca565b90506000826064836135879190615443565b1161359e576064826135999190615443565b6135a0565b825b905081811161362e57600067ffffffffffffffff8111156135ea577f4e487b7100000000000000000000000000000000000000000000000000000000600052604160045260246000fd5b60405190808252806020026020018201604052801561362357816020015b6136106140ce565b8152602001906001900390816136085790505b509350505050613a2f565b6000828261363c9190615524565b67ffffffffffffffff81111561367b577f4e487b7100000000000000000000000000000000000000000000000000000000600052604160045260246000fd5b6040519080825280602002602001820160405280156136b457816020015b6136a16140ce565b8152602001906001900390816136995790505b5090506000808490505b83811015613902576000600d6000600e8481548110613706577f4e487b7100000000000000000000000000000000000000000000000000000000600052603260045260246000fd5b9060005260206000200154815260200190815260200160002090508973ffffffffffffffffffffffffffffffffffffffff168160030160009054906101000a900473ffffffffffffffffffffffffffffffffffffffff1673ffffffffffffffffffffffffffffffffffffffff1614156138ee57600d6000600e84815481106137b7577f4e487b7100000000000000000000000000000000000000000000000000000000600052603260045260246000fd5b9060005260206000200154815260200190815260200160002060405180608001604052908160008201548152602001600182015481526020016002820160009054906101000a900473ffffffffffffffffffffffffffffffffffffffff1673ffffffffffffffffffffffffffffffffffffffff1673ffffffffffffffffffffffffffffffffffffffff1681526020016003820160009054906101000a900473ffffffffffffffffffffffffffffffffffffffff1673ffffffffffffffffffffffffffffffffffffffff1673ffffffffffffffffffffffffffffffffffffffff16815250508484815181106138d4577f4e487b7100000000000000000000000000000000000000000000000000000000600052603260045260246000fd5b602002602001018190525082806138ea906156a3565b9350505b5080806138fa906156a3565b9150506136be565b5060008167ffffffffffffffff811115613945577f4e487b7100000000000000000000000000000000000000000000000000000000600052604160045260246000fd5b60405190808252806020026020018201604052801561397e57816020015b61396b6140ce565b8152602001906001900390816139635790505b50905060005b82811015613a24578381815181106139c5577f4e487b7100000000000000000000000000000000000000000000000000000000600052603260045260246000fd5b6020026020010151828281518110613a06577f4e487b7100000000000000000000000000000000000000000000000000000000600052603260045260246000fd5b60200260200101819052508080613a1c906156a3565b915050613984565b508096505050505050505b92915050565b60026001541415613a7b576040517f08c379a0000000000000000000000000000000000000000000000000000000008152600401613a729061518d565b60405180910390fd5b6002600181905550565b6001816000016000828254019250508190555050565b60018081905550565b600081600001549050919050565b80471015613af5576040517f08c379a0000000000000000000000000000000000000000000000000000000008152600401613aec90614fad565b60405180910390fd5b60008273ffffffffffffffffffffffffffffffffffffffff1682604051613b1b90614d1d565b60006040518083038185875af1925050503d8060008114613b58576040519150601f19603f3d011682016040523d82523d6000602084013e613b5d565b606091505b5050905080613ba1576040517f08c379a0000000000000000000000000000000000000000000000000000000008152600401613b9890614f8d565b60405180910390fd5b505050565b613c278363a9059cbb60e01b8484604051602401613bc5929190614dad565b604051602081830303815290604052907bffffffffffffffffffffffffffffffffffffffffffffffffffffffff19166020820180517bffffffffffffffffffffffffffffffffffffffffffffffffffffffff8381831617835250505050613e38565b505050565b613c346107a2565b73ffffffffffffffffffffffffffffffffffffffff16613c52612330565b73ffffffffffffffffffffffffffffffffffffffff1614613ca8576040517f08c379a0000000000000000000000000000000000000000000000000000000008152600401613c9f906150ed565b60405180910390fd5b565b60008060009054906101000a900473ffffffffffffffffffffffffffffffffffffffff169050816000806101000a81548173ffffffffffffffffffffffffffffffffffffffff021916908373ffffffffffffffffffffffffffffffffffffffff1602179055508173ffffffffffffffffffffffffffffffffffffffff168173ffffffffffffffffffffffffffffffffffffffff167f8be0079c531659141344cd1fd0a4f28419497f9722a3daafe3b4186f6b6457e060405160405180910390a35050565b60008160000154905060008111613dba576040517f08c379a0000000000000000000000000000000000000000000000000000000008152600401613db190614eed565b60405180910390fd5b6001810382600001819055505050565b600081600254600460008773ffffffffffffffffffffffffffffffffffffffff1673ffffffffffffffffffffffffffffffffffffffff1681526020019081526020016000205485613e1b91906154ca565b613e259190615499565b613e2f9190615524565b90509392505050565b6000613e9a826040518060400160405280602081526020017f5361666545524332303a206c6f772d6c6576656c2063616c6c206661696c65648152508573ffffffffffffffffffffffffffffffffffffffff16613f009092919063ffffffff16565b9050600081511480613ebc575080806020019051810190613ebb91906143fc565b5b613efb576040517f08c379a0000000000000000000000000000000000000000000000000000000008152600401613ef29061516d565b60405180910390fd5b505050565b6060613f0f8484600085613f18565b90509392505050565b606082471015613f5d576040517f08c379a0000000000000000000000000000000000000000000000000000000008152600401613f5490614fcd565b60405180910390fd5b6000808673ffffffffffffffffffffffffffffffffffffffff168587604051613f869190614d06565b60006040518083038185875af1925050503d8060008114613fc3576040519150601f19603f3d011682016040523d82523d6000602084013e613fc8565b606091505b5091509150613fd987838387613fe5565b92505050949350505050565b6060831561404857600083511415614040576140008561405b565b61403f576040517f08c379a00000000000000000000000000000000000000000000000000000000081526004016140369061514d565b60405180910390fd5b5b829050614053565b614052838361407e565b5b949350505050565b6000808273ffffffffffffffffffffffffffffffffffffffff163b119050919050565b6000825111156140915781518083602001fd5b806040517f08c379a00000000000000000000000000000000000000000000000000000000081526004016140c59190614e6b565b60405180910390fd5b60405180608001604052806000815260200160008152602001600073ffffffffffffffffffffffffffffffffffffffff168152602001600073ffffffffffffffffffffffffffffffffffffffff1681525090565b600061413561413084615342565b61531d565b9050808382526020820190508285602086028201111561415457600080fd5b60005b85811015614184578161416a88826142b3565b845260208401935060208301925050600181019050614157565b5050509392505050565b60006141a161419c8461536e565b61531d565b9050828152602081018484840111156141b957600080fd5b6141c4848285615630565b509392505050565b6000813590506141db81615e52565b92915050565b6000815190506141f081615e52565b92915050565b60008135905061420581615e69565b92915050565b600082601f83011261421c57600080fd5b815161422c848260208601614122565b91505092915050565b60008151905061424481615e80565b92915050565b60008135905061425981615e97565b92915050565b60008135905061426e81615eae565b92915050565b600082601f83011261428557600080fd5b813561429584826020860161418e565b91505092915050565b6000813590506142ad81615ec5565b92915050565b6000815190506142c281615ec5565b92915050565b6000602082840312156142da57600080fd5b60006142e8848285016141cc565b91505092915050565b60006020828403121561430357600080fd5b6000614311848285016141e1565b91505092915050565b60006020828403121561432c57600080fd5b600061433a848285016141f6565b91505092915050565b6000806040838503121561435657600080fd5b6000614364858286016141cc565b92505060206143758582860161429e565b9150509250929050565b6000806040838503121561439257600080fd5b60006143a0858286016141e1565b92505060206143b1858286016142b3565b9150509250929050565b6000602082840312156143cd57600080fd5b600082015167ffffffffffffffff8111156143e757600080fd5b6143f38482850161420b565b91505092915050565b60006020828403121561440e57600080fd5b600061441c84828501614235565b91505092915050565b60006020828403121561443757600080fd5b60006144458482850161424a565b91505092915050565b60006020828403121561446057600080fd5b600061446e8482850161425f565b91505092915050565b6000806040838503121561448a57600080fd5b60006144988582860161425f565b92505060206144a9858286016141cc565b9150509250929050565b6000602082840312156144c557600080fd5b60006144d38482850161429e565b91505092915050565b6000602082840312156144ee57600080fd5b60006144fc848285016142b3565b91505092915050565b6000806040838503121561451857600080fd5b60006145268582860161429e565b9250506020614537858286016141cc565b9150509250929050565b6000806040838503121561455457600080fd5b6000614562858286016142b3565b9250506020614573858286016141e1565b9150509250929050565b6000806040838503121561459057600080fd5b600061459e8582860161429e565b925050602083013567ffffffffffffffff8111156145bb57600080fd5b6145c785828601614274565b9150509250929050565b6000806000606084860312156145e657600080fd5b60006145f48682870161429e565b93505060206146058682870161429e565b9250506040614616868287016141cc565b9150509250925092565b6000806000806080858703121561463657600080fd5b60006146448782880161429e565b94505060206146558782880161429e565b93505060406146668782880161429e565b9250506060614677878288016141cc565b91505092959194509250565b600061468f8383614bfb565b60808301905092915050565b60006146a78383614ca5565b60208301905092915050565b6146bc816155fa565b82525050565b6146cb81615558565b82525050565b6146da81615558565b82525050565b6146f16146ec82615558565b6156ec565b82525050565b6000614702826153bf565b61470c8185615405565b93506147178361539f565b8060005b8381101561474857815161472f8882614683565b975061473a836153eb565b92505060018101905061471b565b5085935050505092915050565b6000614760826153ca565b61476a8185615416565b9350614775836153af565b8060005b838110156147a657815161478d888261469b565b9750614798836153f8565b925050600181019050614779565b5085935050505092915050565b6147bc8161557c565b82525050565b6147cb81615588565b82525050565b6147da81615592565b82525050565b60006147eb826153d5565b6147f58185615427565b935061480581856020860161563f565b80840191505092915050565b600061481c826153e0565b6148268185615432565b935061483681856020860161563f565b61483f816157a7565b840191505092915050565b6000614857602283615432565b9150614862826157c5565b604082019050919050565b600061487a603683615432565b915061488582615814565b604082019050919050565b600061489d602b83615432565b91506148a882615863565b604082019050919050565b60006148c0601b83615432565b91506148cb826158b2565b602082019050919050565b60006148e3602683615432565b91506148ee826158db565b604082019050919050565b6000614906603083615432565b91506149118261592a565b604082019050919050565b6000614929601e83615432565b915061493482615979565b602082019050919050565b600061494c602683615432565b9150614957826159a2565b604082019050919050565b600061496f603a83615432565b915061497a826159f1565b604082019050919050565b6000614992601d83615432565b915061499d82615a40565b602082019050919050565b60006149b5602683615432565b91506149c082615a69565b604082019050919050565b60006149d8602b83615432565b91506149e382615ab8565b604082019050919050565b60006149fb603783615432565b9150614a0682615b07565b604082019050919050565b6000614a1e601683615432565b9150614a2982615b56565b602082019050919050565b6000614a41602483615432565b9150614a4c82615b7f565b604082019050919050565b6000614a64602483615432565b9150614a6f82615bce565b604082019050919050565b6000614a87601e83615432565b9150614a9282615c1d565b602082019050919050565b6000614aaa602b83615432565b9150614ab582615c46565b604082019050919050565b6000614acd602783615432565b9150614ad882615c95565b604082019050919050565b6000614af0602083615432565b9150614afb82615ce4565b602082019050919050565b6000614b13601d83615432565b9150614b1e82615d0d565b602082019050919050565b6000614b36601783615432565b9150614b4182615d36565b602082019050919050565b6000614b59600083615427565b9150614b6482615d5f565b600082019050919050565b6000614b7c601d83615432565b9150614b8782615d62565b602082019050919050565b6000614b9f602a83615432565b9150614baa82615d8b565b604082019050919050565b6000614bc2601f83615432565b9150614bcd82615dda565b602082019050919050565b6000614be5603883615432565b9150614bf082615e03565b604082019050919050565b608082016000820151614c116000850182614ca5565b506020820151614c246020850182614ca5565b506040820151614c3760408501826146c2565b506060820151614c4a60608501826146c2565b50505050565b608082016000820151614c666000850182614ca5565b506020820151614c796020850182614ca5565b506040820151614c8c60408501826146c2565b506060820151614c9f60608501826146c2565b50505050565b614cae816155f0565b82525050565b614cbd816155f0565b82525050565b614cd4614ccf826155f0565b615710565b82525050565b6000614ce682856146e0565b601482019150614cf68284614cc3565b6020820191508190509392505050565b6000614d1282846147e0565b915081905092915050565b6000614d2882614b4c565b9150819050919050565b6000602082019050614d4760008301846146d1565b92915050565b6000604082019050614d6260008301856146b3565b614d6f6020830184614cb4565b9392505050565b6000606082019050614d8b60008301866146d1565b614d9860208301856146d1565b614da56040830184614cb4565b949350505050565b6000604082019050614dc260008301856146d1565b614dcf6020830184614cb4565b9392505050565b60006020820190508181036000830152614df081846146f7565b905092915050565b60006020820190508181036000830152614e128184614755565b905092915050565b6000602082019050614e2f60008301846147b3565b92915050565b6000602082019050614e4a60008301846147c2565b92915050565b6000602082019050614e6560008301846147d1565b92915050565b60006020820190508181036000830152614e858184614811565b905092915050565b60006020820190508181036000830152614ea68161484a565b9050919050565b60006020820190508181036000830152614ec68161486d565b9050919050565b60006020820190508181036000830152614ee681614890565b9050919050565b60006020820190508181036000830152614f06816148b3565b9050919050565b60006020820190508181036000830152614f26816148d6565b9050919050565b60006020820190508181036000830152614f46816148f9565b9050919050565b60006020820190508181036000830152614f668161491c565b9050919050565b60006020820190508181036000830152614f868161493f565b9050919050565b60006020820190508181036000830152614fa681614962565b9050919050565b60006020820190508181036000830152614fc681614985565b9050919050565b60006020820190508181036000830152614fe6816149a8565b9050919050565b60006020820190508181036000830152615006816149cb565b9050919050565b60006020820190508181036000830152615026816149ee565b9050919050565b6000602082019050818103600083015261504681614a11565b9050919050565b6000602082019050818103600083015261506681614a34565b9050919050565b6000602082019050818103600083015261508681614a57565b9050919050565b600060208201905081810360008301526150a681614a7a565b9050919050565b600060208201905081810360008301526150c681614a9d565b9050919050565b600060208201905081810360008301526150e681614ac0565b9050919050565b6000602082019050818103600083015261510681614ae3565b9050919050565b6000602082019050818103600083015261512681614b06565b9050919050565b6000602082019050818103600083015261514681614b29565b9050919050565b6000602082019050818103600083015261516681614b6f565b9050919050565b6000602082019050818103600083015261518681614b92565b9050919050565b600060208201905081810360008301526151a681614bb5565b9050919050565b600060208201905081810360008301526151c681614bd8565b9050919050565b60006080820190506151e26000830184614c50565b92915050565b60006020820190506151fd6000830184614cb4565b92915050565b60006040820190506152186000830185614cb4565b61522560208301846146d1565b9392505050565b60006080820190506152416000830187614cb4565b61524e60208301866146d1565b81810360408301526152608185614811565b905061526f6060830184614cb4565b95945050505050565b600060408201905061528d6000830185614cb4565b61529a6020830184614cb4565b9392505050565b60006080820190506152b66000830187614cb4565b6152c36020830186614cb4565b6152d060408301856146d1565b6152dd60608301846146d1565b95945050505050565b60006060820190506152fb6000830186614cb4565b6153086020830185614cb4565b6153156040830184614cb4565b949350505050565b6000615327615338565b90506153338282615672565b919050565b6000604051905090565b600067ffffffffffffffff82111561535d5761535c615778565b5b602082029050602081019050919050565b600067ffffffffffffffff82111561538957615388615778565b5b615392826157a7565b9050602081019050919050565b6000819050602082019050919050565b6000819050602082019050919050565b600081519050919050565b600081519050919050565b600081519050919050565b600081519050919050565b6000602082019050919050565b6000602082019050919050565b600082825260208201905092915050565b600082825260208201905092915050565b600081905092915050565b600082825260208201905092915050565b600061544e826155f0565b9150615459836155f0565b9250827fffffffffffffffffffffffffffffffffffffffffffffffffffffffffffffffff0382111561548e5761548d61571a565b5b828201905092915050565b60006154a4826155f0565b91506154af836155f0565b9250826154bf576154be615749565b5b828204905092915050565b60006154d5826155f0565b91506154e0836155f0565b9250817fffffffffffffffffffffffffffffffffffffffffffffffffffffffffffffffff04831182151516156155195761551861571a565b5b828202905092915050565b600061552f826155f0565b915061553a836155f0565b92508282101561554d5761554c61571a565b5b828203905092915050565b6000615563826155d0565b9050919050565b6000615575826155d0565b9050919050565b60008115159050919050565b6000819050919050565b60007fffffffff0000000000000000000000000000000000000000000000000000000082169050919050565b60006155c982615558565b9050919050565b600073ffffffffffffffffffffffffffffffffffffffff82169050919050565b6000819050919050565b60006156058261560c565b9050919050565b60006156178261561e565b9050919050565b6000615629826155d0565b9050919050565b82818337600083830152505050565b60005b8381101561565d578082015181840152602081019050615642565b8381111561566c576000848401525b50505050565b61567b826157a7565b810181811067ffffffffffffffff8211171561569a57615699615778565b5b80604052505050565b60006156ae826155f0565b91507fffffffffffffffffffffffffffffffffffffffffffffffffffffffffffffffff8214156156e1576156e061571a565b5b600182019050919050565b60006156f7826156fe565b9050919050565b6000615709826157b8565b9050919050565b6000819050919050565b7f4e487b7100000000000000000000000000000000000000000000000000000000600052601160045260246000fd5b7f4e487b7100000000000000000000000000000000000000000000000000000000600052601260045260246000fd5b7f4e487b7100000000000000000000000000000000000000000000000000000000600052604160045260246000fd5b6000601f19601f8301169050919050565b60008160601b9050919050565b7f50726963652073686f756c6420636f76657220746f74616c20726f79616c746960008201527f6573000000000000000000000000000000000000000000000000000000000000602082015250565b7f546865204e465420636f6e747261637420646f6573206e6f7420737570706f7260008201527f74207468652045524337323120696e7465726661636500000000000000000000602082015250565b7f5472616e73666572206f6620726f79616c747920746f2074686520726563656960008201527f766572206661696c65642e000000000000000000000000000000000000000000602082015250565b7f436f756e7465723a2064656372656d656e74206f766572666c6f770000000000600082015250565b7f4f776e61626c653a206e6577206f776e657220697320746865207a65726f206160008201527f6464726573730000000000000000000000000000000000000000000000000000602082015250565b7f4e6f206c697374696e6720666f756e6420666f72207468697320746f6b656e4960008201527f6420616e6420636f6c6c656374696f6e00000000000000000000000000000000602082015250565b7f5472616e7366657220746f204e46542073656c6c6572206661696c65642e0000600082015250565b7f5061796d656e7453706c69747465723a206163636f756e7420686173206e6f2060008201527f7368617265730000000000000000000000000000000000000000000000000000602082015250565b7f416464726573733a20756e61626c6520746f2073656e642076616c75652c207260008201527f6563697069656e74206d61792068617665207265766572746564000000000000602082015250565b7f416464726573733a20696e73756666696369656e742062616c616e6365000000600082015250565b7f416464726573733a20696e73756666696369656e742062616c616e636520666f60008201527f722063616c6c0000000000000000000000000000000000000000000000000000602082015250565b7f5061796d656e7453706c69747465723a206163636f756e74206973206e6f742060008201527f647565207061796d656e74000000000000000000000000000000000000000000602082015250565b7f546865204e465420636f6e747261637420646f6573206e6f7420737570706f7260008201527f7420746865204552433239383120696e74657266616365000000000000000000602082015250565b7f596f7520646f6e2774206f776e2074686973204e465400000000000000000000600082015250565b7f50616765206e756d6265722073686f756c64206265206772656174657220746860008201527f616e203000000000000000000000000000000000000000000000000000000000602082015250565b7f5072696365206d7573742062652067726561746572207468616e204d494e5f5060008201527f5249434500000000000000000000000000000000000000000000000000000000602082015250565b7f4f776e65722063616e6e6f7420627579207468656972206f776e204e46540000600082015250565b7f50726963652073686f756c6420626520686967686572207468616e20746f746160008201527f6c20726f79616c74696573000000000000000000000000000000000000000000602082015250565b7f53656e742076616c756520646f6573206e6f74206d6174636820746865204e4660008201527f5420707269636500000000000000000000000000000000000000000000000000602082015250565b7f4f776e61626c653a2063616c6c6572206973206e6f7420746865206f776e6572600082015250565b7f5472616e7366657220746f204e4654206f776e6572206661696c65642e000000600082015250565b7f546f6b656e20697320616c7265616479206c6973746564000000000000000000600082015250565b50565b7f416464726573733a2063616c6c20746f206e6f6e2d636f6e7472616374000000600082015250565b7f5361666545524332303a204552433230206f7065726174696f6e20646964206e60008201527f6f74207375636365656400000000000000000000000000000000000000000000602082015250565b7f5265656e7472616e637947756172643a207265656e7472616e742063616c6c00600082015250565b7f546865204e465420636f6e747261637420646f6573206e6f7420737570706f7260008201527f742074686520494552433239383120696e746572666163650000000000000000602082015250565b615e5b81615558565b8114615e6657600080fd5b50565b615e728161556a565b8114615e7d57600080fd5b50565b615e898161557c565b8114615e9457600080fd5b50565b615ea081615588565b8114615eab57600080fd5b50565b615eb7816155be565b8114615ec257600080fd5b50565b615ece816155f0565b8114615ed957600080fd5b5056fea26469706673582212202cfd371e65abf3a85842532887c69c1c187d94936dd4b636fc52481e969c4ed864736f6c63430008010033",
  "linkReferences": {},
  "deployedLinkReferences": {}
}