{
  "_format": "hh-sol-artifact-1",
  "contractName": "NFTMarketplace",
  "sourceName": "contracts/NFTMarketplace.sol",
  "abi": [
    {
      "inputs": [
        {
          "internalType": "address",
          "name": "nftContractAddress",
          "type": "address"
        },
        {
          "internalType": "address[]",
          "name": "payees",
          "type": "address[]"
        },
        {
          "internalType": "uint256[]",
          "name": "shares",
          "type": "uint256[]"
        },
        {
          "internalType": "uint256",
          "name": "royalties",
          "type": "uint256"
        }
      ],
      "stateMutability": "nonpayable",
      "type": "constructor"
    },
    {
      "anonymous": false,
      "inputs": [
        {
          "indexed": true,
          "internalType": "contract IERC20",
          "name": "token",
          "type": "address"
        },
        {
          "indexed": false,
          "internalType": "address",
          "name": "to",
          "type": "address"
        },
        {
          "indexed": false,
          "internalType": "uint256",
          "name": "amount",
          "type": "uint256"
        }
      ],
      "name": "ERC20PaymentReleased",
      "type": "event"
    },
    {
      "anonymous": false,
      "inputs": [
        {
          "indexed": true,
          "internalType": "uint256",
          "name": "tokenId",
          "type": "uint256"
        },
        {
          "indexed": true,
          "internalType": "address",
          "name": "collection",
          "type": "address"
        }
      ],
      "name": "NFTDelisted",
      "type": "event"
    },
    {
      "anonymous": false,
      "inputs": [
        {
          "indexed": true,
          "internalType": "uint256",
          "name": "tokenId",
          "type": "uint256"
        },
        {
          "indexed": false,
          "internalType": "uint256",
          "name": "price",
          "type": "uint256"
        },
        {
          "indexed": true,
          "internalType": "address",
          "name": "seller",
          "type": "address"
        },
        {
          "indexed": true,
          "internalType": "address",
          "name": "collection",
          "type": "address"
        }
      ],
      "name": "NFTListed",
      "type": "event"
    },
    {
      "anonymous": false,
      "inputs": [
        {
          "indexed": true,
          "internalType": "uint256",
          "name": "tokenId",
          "type": "uint256"
        },
        {
          "indexed": false,
          "internalType": "uint256",
          "name": "price",
          "type": "uint256"
        },
        {
          "indexed": true,
          "internalType": "address",
          "name": "seller",
          "type": "address"
        },
        {
          "indexed": true,
          "internalType": "address",
          "name": "buyer",
          "type": "address"
        },
        {
          "indexed": false,
          "internalType": "address",
          "name": "collection",
          "type": "address"
        }
      ],
      "name": "NFTSold",
      "type": "event"
    },
    {
      "anonymous": false,
      "inputs": [
        {
          "indexed": true,
          "internalType": "address",
          "name": "previousOwner",
          "type": "address"
        },
        {
          "indexed": true,
          "internalType": "address",
          "name": "newOwner",
          "type": "address"
        }
      ],
      "name": "OwnershipTransferred",
      "type": "event"
    },
    {
      "anonymous": false,
      "inputs": [
        {
          "indexed": false,
          "internalType": "address",
          "name": "account",
          "type": "address"
        },
        {
          "indexed": false,
          "internalType": "uint256",
          "name": "shares",
          "type": "uint256"
        }
      ],
      "name": "PayeeAdded",
      "type": "event"
    },
    {
      "anonymous": false,
      "inputs": [
        {
          "indexed": false,
          "internalType": "address",
          "name": "from",
          "type": "address"
        },
        {
          "indexed": false,
          "internalType": "uint256",
          "name": "amount",
          "type": "uint256"
        }
      ],
      "name": "PaymentReceived",
      "type": "event"
    },
    {
      "anonymous": false,
      "inputs": [
        {
          "indexed": false,
          "internalType": "address",
          "name": "to",
          "type": "address"
        },
        {
          "indexed": false,
          "internalType": "uint256",
          "name": "amount",
          "type": "uint256"
        }
      ],
      "name": "PaymentReleased",
      "type": "event"
    },
    {
      "inputs": [],
      "name": "MIN_PRICE",
      "outputs": [
        {
          "internalType": "uint256",
          "name": "",
          "type": "uint256"
        }
      ],
      "stateMutability": "view",
      "type": "function"
    },
    {
      "inputs": [
        {
          "internalType": "uint256",
          "name": "collectionId",
          "type": "uint256"
        },
        {
          "internalType": "string",
          "name": "tokenURI",
          "type": "string"
        }
      ],
      "name": "buyFromCollection",
      "outputs": [],
      "stateMutability": "payable",
      "type": "function"
    },
    {
      "inputs": [
        {
          "internalType": "address",
          "name": "collection",
          "type": "address"
        },
        {
          "internalType": "uint256",
          "name": "tokenId",
          "type": "uint256"
        }
      ],
      "name": "buyNFT",
      "outputs": [],
      "stateMutability": "payable",
      "type": "function"
    },
    {
      "inputs": [
        {
          "internalType": "address",
          "name": "collection",
          "type": "address"
        },
        {
          "internalType": "uint256",
          "name": "tokenId",
          "type": "uint256"
        }
      ],
      "name": "delistNFT",
      "outputs": [],
      "stateMutability": "nonpayable",
      "type": "function"
    },
    {
      "inputs": [
        {
          "internalType": "uint256",
          "name": "page",
          "type": "uint256"
        }
      ],
      "name": "getAllListings",
      "outputs": [
        {
          "components": [
            {
              "internalType": "uint256",
              "name": "tokenId",
              "type": "uint256"
            },
            {
              "internalType": "uint256",
              "name": "price",
              "type": "uint256"
            },
            {
              "internalType": "address",
              "name": "seller",
              "type": "address"
            },
            {
              "internalType": "address",
              "name": "collection",
              "type": "address"
            }
          ],
          "internalType": "struct NFTMarketplace.Listing[]",
          "name": "",
          "type": "tuple[]"
        }
      ],
      "stateMutability": "view",
      "type": "function"
    },
    {
      "inputs": [
        {
          "internalType": "address",
          "name": "collection",
          "type": "address"
        },
        {
          "internalType": "uint256",
          "name": "tokenId",
          "type": "uint256"
        }
      ],
      "name": "getKeyForToken",
      "outputs": [
        {
          "internalType": "bytes32",
          "name": "",
          "type": "bytes32"
        }
      ],
      "stateMutability": "pure",
      "type": "function"
    },
    {
      "inputs": [
        {
          "internalType": "uint256",
          "name": "collectionId",
          "type": "uint256"
        },
        {
          "internalType": "uint256",
          "name": "startIndex",
          "type": "uint256"
        },
        {
          "internalType": "uint256",
          "name": "pageSize",
          "type": "uint256"
        },
        {
          "internalType": "address",
          "name": "collection",
          "type": "address"
        }
      ],
      "name": "getListedTokensInCollection",
      "outputs": [
        {
          "internalType": "uint256[]",
          "name": "",
          "type": "uint256[]"
        }
      ],
      "stateMutability": "view",
      "type": "function"
    },
    {
      "inputs": [
        {
          "internalType": "uint256",
          "name": "tokenId",
          "type": "uint256"
        },
        {
          "internalType": "address",
          "name": "collection",
          "type": "address"
        }
      ],
      "name": "getListingByTokenIdAndAddress",
      "outputs": [
        {
          "components": [
            {
              "internalType": "uint256",
              "name": "tokenId",
              "type": "uint256"
            },
            {
              "internalType": "uint256",
              "name": "price",
              "type": "uint256"
            },
            {
              "internalType": "address",
              "name": "seller",
              "type": "address"
            },
            {
              "internalType": "address",
              "name": "collection",
              "type": "address"
            }
          ],
          "internalType": "struct NFTMarketplace.Listing",
          "name": "",
          "type": "tuple"
        }
      ],
      "stateMutability": "view",
      "type": "function"
    },
    {
      "inputs": [
        {
          "internalType": "address",
          "name": "collection",
          "type": "address"
        },
        {
          "internalType": "uint256",
          "name": "page",
          "type": "uint256"
        }
      ],
      "name": "getListingsByNFTContract",
      "outputs": [
        {
          "components": [
            {
              "internalType": "uint256",
              "name": "tokenId",
              "type": "uint256"
            },
            {
              "internalType": "uint256",
              "name": "price",
              "type": "uint256"
            },
            {
              "internalType": "address",
              "name": "seller",
              "type": "address"
            },
            {
              "internalType": "address",
              "name": "collection",
              "type": "address"
            }
          ],
          "internalType": "struct NFTMarketplace.Listing[]",
          "name": "",
          "type": "tuple[]"
        }
      ],
      "stateMutability": "view",
      "type": "function"
    },
    {
      "inputs": [
        {
          "internalType": "address",
          "name": "seller",
          "type": "address"
        },
        {
          "internalType": "uint256",
          "name": "page",
          "type": "uint256"
        }
      ],
      "name": "getListingsBySeller",
      "outputs": [
        {
          "components": [
            {
              "internalType": "uint256",
              "name": "tokenId",
              "type": "uint256"
            },
            {
              "internalType": "uint256",
              "name": "price",
              "type": "uint256"
            },
            {
              "internalType": "address",
              "name": "seller",
              "type": "address"
            },
            {
              "internalType": "address",
              "name": "collection",
              "type": "address"
            }
          ],
          "internalType": "struct NFTMarketplace.Listing[]",
          "name": "",
          "type": "tuple[]"
        }
      ],
      "stateMutability": "view",
      "type": "function"
    },
    {
      "inputs": [
        {
          "internalType": "address",
          "name": "collection",
          "type": "address"
        },
        {
          "internalType": "uint256",
          "name": "tokenId",
          "type": "uint256"
        }
      ],
      "name": "isTokenListed",
      "outputs": [
        {
          "internalType": "bool",
          "name": "",
          "type": "bool"
        }
      ],
      "stateMutability": "view",
      "type": "function"
    },
    {
      "inputs": [
        {
          "internalType": "uint256",
          "name": "tokenId",
          "type": "uint256"
        },
        {
          "internalType": "uint256",
          "name": "price",
          "type": "uint256"
        },
        {
          "internalType": "address",
          "name": "collection",
          "type": "address"
        }
      ],
      "name": "listNFT",
      "outputs": [],
      "stateMutability": "nonpayable",
      "type": "function"
    },
    {
      "inputs": [
        {
          "internalType": "bytes32",
          "name": "",
          "type": "bytes32"
        }
      ],
      "name": "listings",
      "outputs": [
        {
          "internalType": "uint256",
          "name": "tokenId",
          "type": "uint256"
        },
        {
          "internalType": "uint256",
          "name": "price",
          "type": "uint256"
        },
        {
          "internalType": "address",
          "name": "seller",
          "type": "address"
        },
        {
          "internalType": "address",
          "name": "collection",
          "type": "address"
        }
      ],
      "stateMutability": "view",
      "type": "function"
    },
    {
      "inputs": [
        {
          "internalType": "uint256",
          "name": "",
          "type": "uint256"
        }
      ],
      "name": "listingsKeys",
      "outputs": [
        {
          "internalType": "bytes32",
          "name": "",
          "type": "bytes32"
        }
      ],
      "stateMutability": "view",
      "type": "function"
    },
    {
      "inputs": [],
      "name": "owner",
      "outputs": [
        {
          "internalType": "address",
          "name": "",
          "type": "address"
        }
      ],
      "stateMutability": "view",
      "type": "function"
    },
    {
      "inputs": [
        {
          "internalType": "uint256",
          "name": "index",
          "type": "uint256"
        }
      ],
      "name": "payee",
      "outputs": [
        {
          "internalType": "address",
          "name": "",
          "type": "address"
        }
      ],
      "stateMutability": "view",
      "type": "function"
    },
    {
      "inputs": [
        {
          "internalType": "address",
          "name": "account",
          "type": "address"
        }
      ],
      "name": "releasable",
      "outputs": [
        {
          "internalType": "uint256",
          "name": "",
          "type": "uint256"
        }
      ],
      "stateMutability": "view",
      "type": "function"
    },
    {
      "inputs": [
        {
          "internalType": "contract IERC20",
          "name": "token",
          "type": "address"
        },
        {
          "internalType": "address",
          "name": "account",
          "type": "address"
        }
      ],
      "name": "releasable",
      "outputs": [
        {
          "internalType": "uint256",
          "name": "",
          "type": "uint256"
        }
      ],
      "stateMutability": "view",
      "type": "function"
    },
    {
      "inputs": [
        {
          "internalType": "address payable",
          "name": "account",
          "type": "address"
        }
      ],
      "name": "release",
      "outputs": [],
      "stateMutability": "nonpayable",
      "type": "function"
    },
    {
      "inputs": [
        {
          "internalType": "contract IERC20",
          "name": "token",
          "type": "address"
        },
        {
          "internalType": "address",
          "name": "account",
          "type": "address"
        }
      ],
      "name": "release",
      "outputs": [],
      "stateMutability": "nonpayable",
      "type": "function"
    },
    {
      "inputs": [
        {
          "internalType": "contract IERC20",
          "name": "token",
          "type": "address"
        },
        {
          "internalType": "address",
          "name": "account",
          "type": "address"
        }
      ],
      "name": "released",
      "outputs": [
        {
          "internalType": "uint256",
          "name": "",
          "type": "uint256"
        }
      ],
      "stateMutability": "view",
      "type": "function"
    },
    {
      "inputs": [
        {
          "internalType": "address",
          "name": "account",
          "type": "address"
        }
      ],
      "name": "released",
      "outputs": [
        {
          "internalType": "uint256",
          "name": "",
          "type": "uint256"
        }
      ],
      "stateMutability": "view",
      "type": "function"
    },
    {
      "inputs": [],
      "name": "renounceOwnership",
      "outputs": [],
      "stateMutability": "nonpayable",
      "type": "function"
    },
    {
      "inputs": [
        {
          "internalType": "address",
          "name": "account",
          "type": "address"
        }
      ],
      "name": "shares",
      "outputs": [
        {
          "internalType": "uint256",
          "name": "",
          "type": "uint256"
        }
      ],
      "stateMutability": "view",
      "type": "function"
    },
    {
      "inputs": [
        {
          "internalType": "contract IERC20",
          "name": "token",
          "type": "address"
        }
      ],
      "name": "totalReleased",
      "outputs": [
        {
          "internalType": "uint256",
          "name": "",
          "type": "uint256"
        }
      ],
      "stateMutability": "view",
      "type": "function"
    },
    {
      "inputs": [],
      "name": "totalReleased",
      "outputs": [
        {
          "internalType": "uint256",
          "name": "",
          "type": "uint256"
        }
      ],
      "stateMutability": "view",
      "type": "function"
    },
    {
      "inputs": [],
      "name": "totalShares",
      "outputs": [
        {
          "internalType": "uint256",
          "name": "",
          "type": "uint256"
        }
      ],
      "stateMutability": "view",
      "type": "function"
    },
    {
      "inputs": [
        {
          "internalType": "address",
          "name": "newOwner",
          "type": "address"
        }
      ],
      "name": "transferOwnership",
      "outputs": [],
      "stateMutability": "nonpayable",
      "type": "function"
    },
    {
      "stateMutability": "payable",
      "type": "receive"
    }
  ],
  "bytecode": "0x60806040523480156200001157600080fd5b5060405162006d9038038062006d90833981810160405281019062000037919062000741565b8282620000596200004d620002c960201b60201c565b620002d160201b60201c565b600180819055508051825114620000a7576040517f08c379a00000000000000000000000000000000000000000000000000000000081526004016200009e9062000961565b60405180910390fd5b6000825111620000ee576040517f08c379a0000000000000000000000000000000000000000000000000000000008152600401620000e590620009e9565b60405180910390fd5b60005b8251811015620001a5576200018f83828151811062000139577f4e487b7100000000000000000000000000000000000000000000000000000000600052603260045260246000fd5b60200260200101518383815181106200017b577f4e487b7100000000000000000000000000000000000000000000000000000000600052603260045260246000fd5b60200260200101516200039560201b60201c565b80806200019c9062000b96565b915050620000f1565b5050506000835111620001ef576040517f08c379a0000000000000000000000000000000000000000000000000000000008152600401620001e690620009a5565b60405180910390fd5b815183511462000236576040517f08c379a00000000000000000000000000000000000000000000000000000000081526004016200022d9062000983565b60405180910390fd5b83600b60006101000a81548173ffffffffffffffffffffffffffffffffffffffff021916908373ffffffffffffffffffffffffffffffffffffffff16021790555083600a60006101000a81548173ffffffffffffffffffffffffffffffffffffffff021916908373ffffffffffffffffffffffffffffffffffffffff160217905550806009819055505050505062000e3e565b600033905090565b60008060009054906101000a900473ffffffffffffffffffffffffffffffffffffffff169050816000806101000a81548173ffffffffffffffffffffffffffffffffffffffff021916908373ffffffffffffffffffffffffffffffffffffffff1602179055508173ffffffffffffffffffffffffffffffffffffffff168173ffffffffffffffffffffffffffffffffffffffff167f8be0079c531659141344cd1fd0a4f28419497f9722a3daafe3b4186f6b6457e060405160405180910390a35050565b600073ffffffffffffffffffffffffffffffffffffffff168273ffffffffffffffffffffffffffffffffffffffff16141562000408576040517f08c379a0000000000000000000000000000000000000000000000000000000008152600401620003ff906200093f565b60405180910390fd5b600081116200044e576040517f08c379a0000000000000000000000000000000000000000000000000000000008152600401620004459062000a0b565b60405180910390fd5b6000600460008473ffffffffffffffffffffffffffffffffffffffff1673ffffffffffffffffffffffffffffffffffffffff1681526020019081526020016000205414620004d3576040517f08c379a0000000000000000000000000000000000000000000000000000000008152600401620004ca90620009c7565b60405180910390fd5b6006829080600181540180825580915050600190039060005260206000200160009091909190916101000a81548173ffffffffffffffffffffffffffffffffffffffff021916908373ffffffffffffffffffffffffffffffffffffffff16021790555080600460008473ffffffffffffffffffffffffffffffffffffffff1673ffffffffffffffffffffffffffffffffffffffff16815260200190815260200160002081905550806002546200058a919062000ac5565b6002819055507f40c340f65e17194d14ddddb073d3c9f888e3cb52b5aae0c6c7706b4fbc905fac8282604051620005c392919062000912565b60405180910390a15050565b6000620005e6620005e08462000a56565b62000a2d565b905080838252602082019050828560208602820111156200060657600080fd5b60005b858110156200063a57816200061f8882620006b9565b84526020840193506020830192505060018101905062000609565b5050509392505050565b60006200065b620006558462000a85565b62000a2d565b905080838252602082019050828560208602820111156200067b57600080fd5b60005b85811015620006af57816200069488826200072a565b8452602084019350602083019250506001810190506200067e565b5050509392505050565b600081519050620006ca8162000e0a565b92915050565b600082601f830112620006e257600080fd5b8151620006f4848260208601620005cf565b91505092915050565b600082601f8301126200070f57600080fd5b81516200072184826020860162000644565b91505092915050565b6000815190506200073b8162000e24565b92915050565b600080600080608085870312156200075857600080fd5b60006200076887828801620006b9565b945050602085015167ffffffffffffffff8111156200078657600080fd5b6200079487828801620006d0565b935050604085015167ffffffffffffffff811115620007b257600080fd5b620007c087828801620006fd565b9250506060620007d3878288016200072a565b91505092959194509250565b620007ea8162000b22565b82525050565b6000620007ff602c8362000ab4565b91506200080c8262000c53565b604082019050919050565b60006200082660328362000ab4565b9150620008338262000ca2565b604082019050919050565b60006200084d60238362000ab4565b91506200085a8262000cf1565b604082019050919050565b600062000874601e8362000ab4565b9150620008818262000d40565b602082019050919050565b60006200089b602b8362000ab4565b9150620008a88262000d69565b604082019050919050565b6000620008c2601a8362000ab4565b9150620008cf8262000db8565b602082019050919050565b6000620008e9601d8362000ab4565b9150620008f68262000de1565b602082019050919050565b6200090c8162000b56565b82525050565b6000604082019050620009296000830185620007df565b62000938602083018462000901565b9392505050565b600060208201905081810360008301526200095a81620007f0565b9050919050565b600060208201905081810360008301526200097c8162000817565b9050919050565b600060208201905081810360008301526200099e816200083e565b9050919050565b60006020820190508181036000830152620009c08162000865565b9050919050565b60006020820190508181036000830152620009e2816200088c565b9050919050565b6000602082019050818103600083015262000a0481620008b3565b9050919050565b6000602082019050818103600083015262000a2681620008da565b9050919050565b600062000a3962000a4c565b905062000a47828262000b60565b919050565b6000604051905090565b600067ffffffffffffffff82111562000a745762000a7362000c13565b5b602082029050602081019050919050565b600067ffffffffffffffff82111562000aa35762000aa262000c13565b5b602082029050602081019050919050565b600082825260208201905092915050565b600062000ad28262000b56565b915062000adf8362000b56565b9250827fffffffffffffffffffffffffffffffffffffffffffffffffffffffffffffffff0382111562000b175762000b1662000be4565b5b828201905092915050565b600062000b2f8262000b36565b9050919050565b600073ffffffffffffffffffffffffffffffffffffffff82169050919050565b6000819050919050565b62000b6b8262000c42565b810181811067ffffffffffffffff8211171562000b8d5762000b8c62000c13565b5b80604052505050565b600062000ba38262000b56565b91507fffffffffffffffffffffffffffffffffffffffffffffffffffffffffffffffff82141562000bd95762000bd862000be4565b5b600182019050919050565b7f4e487b7100000000000000000000000000000000000000000000000000000000600052601160045260246000fd5b7f4e487b7100000000000000000000000000000000000000000000000000000000600052604160045260246000fd5b6000601f19601f8301169050919050565b7f5061796d656e7453706c69747465723a206163636f756e74206973207468652060008201527f7a65726f20616464726573730000000000000000000000000000000000000000602082015250565b7f5061796d656e7453706c69747465723a2070617965657320616e64207368617260008201527f6573206c656e677468206d69736d617463680000000000000000000000000000602082015250565b7f50617965657320616e6420736861726573206c656e677468206d757374206d6160008201527f7463680000000000000000000000000000000000000000000000000000000000602082015250565b7f4174206c65617374206f6e652070617965652069732072657175697265640000600082015250565b7f5061796d656e7453706c69747465723a206163636f756e7420616c726561647960008201527f2068617320736861726573000000000000000000000000000000000000000000602082015250565b7f5061796d656e7453706c69747465723a206e6f20706179656573000000000000600082015250565b7f5061796d656e7453706c69747465723a20736861726573206172652030000000600082015250565b62000e158162000b22565b811462000e2157600080fd5b50565b62000e2f8162000b56565b811462000e3b57600080fd5b50565b615f428062000e4e6000396000f3fe6080604052600436106101bb5760003560e01c8063a17a7094116100ec578063ce7c2ac21161008a578063f193a6cf11610064578063f193a6cf146106c2578063f2fde38b146106ff578063f4b4835714610728578063fad03b801461076557610202565b8063ce7c2ac21461061d578063d79779b21461065a578063e33b7de31461069757610202565b8063ad9f20a6116100c6578063ad9f20a614610559578063c18b8db414610584578063c45ac050146105c4578063c4f85af71461060157610202565b8063a17a7094146104d7578063a3f8eace14610500578063a82ba76f1461053d57610202565b80634f99b104116101595780637e5c0924116101335780637e5c0924146103f55780638b83209b146104325780638da5cb5b1461046f5780639852595c1461049a57610202565b80634f99b104146103645780635471b47a146103a1578063715018a6146103de57610202565b80633a98ef39116101955780633a98ef3914610296578063406072a9146102c157806348b75044146102fe5780634d2f65031461032757610202565b806302998cf31461020757806314cadc7014610230578063191655871461026d57610202565b36610202577f6ef95f06320e7a25a04a175ca677b7052bdd97131872c2192525a629f51be7706101e96107a2565b346040516101f8929190614e26565b60405180910390a1005b600080fd5b34801561021357600080fd5b5061022e6004803603810190610229919061466d565b6107aa565b005b34801561023c57600080fd5b506102576004803603810190610252919061454f565b610e1a565b6040516102649190614e4f565b60405180910390f35b34801561027957600080fd5b50610294600480360381019061028f91906143b6565b611303565b005b3480156102a257600080fd5b506102ab611483565b6040516102b89190615241565b60405180910390f35b3480156102cd57600080fd5b506102e860048036038101906102e39190614513565b61148d565b6040516102f59190615241565b60405180910390f35b34801561030a57600080fd5b5061032560048036038101906103209190614513565b611514565b005b34801561033357600080fd5b5061034e600480360381019061034991906145a1565b611728565b60405161035b9190615226565b60405180910390f35b34801561037057600080fd5b5061038b600480360381019061038691906143df565b6118cb565b6040516103989190614e4f565b60405180910390f35b3480156103ad57600080fd5b506103c860048036038101906103c391906143df565b611e2b565b6040516103d59190614e93565b60405180910390f35b3480156103ea57600080fd5b506103f3611eaa565b005b34801561040157600080fd5b5061041c600480360381019061041791906146bc565b611ebe565b6040516104299190614e71565b60405180910390f35b34801561043e57600080fd5b506104596004803603810190610454919061454f565b6122cc565b6040516104669190614dab565b60405180910390f35b34801561047b57600080fd5b5061048461233a565b6040516104919190614dab565b60405180910390f35b3480156104a657600080fd5b506104c160048036038101906104bc9190614364565b612363565b6040516104ce9190615241565b60405180910390f35b3480156104e357600080fd5b506104fe60048036038101906104f991906143df565b6123ac565b005b34801561050c57600080fd5b5061052760048036038101906105229190614364565b612759565b6040516105349190615241565b60405180910390f35b610557600480360381019061055291906143df565b61278c565b005b34801561056557600080fd5b5061056e61307f565b60405161057b9190615241565b60405180910390f35b34801561059057600080fd5b506105ab60048036038101906105a691906144c1565b61308a565b6040516105bb94939291906152fa565b60405180910390f35b3480156105d057600080fd5b506105eb60048036038101906105e69190614513565b6130fa565b6040516105f89190615241565b60405180910390f35b61061b60048036038101906106169190614619565b6131b8565b005b34801561062957600080fd5b50610644600480360381019061063f9190614364565b613430565b6040516106519190615241565b60405180910390f35b34801561066657600080fd5b50610681600480360381019061067c91906144ea565b613479565b60405161068e9190615241565b60405180910390f35b3480156106a357600080fd5b506106ac6134c2565b6040516106b99190615241565b60405180910390f35b3480156106ce57600080fd5b506106e960048036038101906106e4919061454f565b6134cc565b6040516106f69190614eae565b60405180910390f35b34801561070b57600080fd5b5061072660048036038101906107219190614364565b6134f0565b005b34801561073457600080fd5b5061074f600480360381019061074a91906143df565b613574565b60405161075c9190614eae565b60405180910390f35b34801561077157600080fd5b5061078c600480360381019061078791906143df565b6135a7565b6040516107999190614e4f565b60405180910390f35b600033905090565b6107b2613ad1565b600081905060008290508073ffffffffffffffffffffffffffffffffffffffff166301ffc9a77f80ac58cd000000000000000000000000000000000000000000000000000000006040518263ffffffff1660e01b81526004016108159190614ec9565b60206040518083038186803b15801561082d57600080fd5b505afa158015610841573d6000803e3d6000fd5b505050506040513d601f19601f820116820180604052508101906108659190614498565b6108a4576040517f08c379a000000000000000000000000000000000000000000000000000000000815260040161089b90614f06565b60405180910390fd5b6108ae8386611e2b565b156108ee576040517f08c379a00000000000000000000000000000000000000000000000000000000081526004016108e590615186565b60405180910390fd5b66038d7ea4c68000841015610938576040517f08c379a000000000000000000000000000000000000000000000000000000000815260040161092f906150a6565b60405180910390fd5b3373ffffffffffffffffffffffffffffffffffffffff168273ffffffffffffffffffffffffffffffffffffffff16636352211e876040518263ffffffff1660e01b81526004016109889190615241565b60206040518083038186803b1580156109a057600080fd5b505afa1580156109b4573d6000803e3d6000fd5b505050506040513d601f19601f820116820180604052508101906109d8919061438d565b73ffffffffffffffffffffffffffffffffffffffff161480610aa05750600a60009054906101000a900473ffffffffffffffffffffffffffffffffffffffff1673ffffffffffffffffffffffffffffffffffffffff163373ffffffffffffffffffffffffffffffffffffffff16148015610a9f5750600a60009054906101000a900473ffffffffffffffffffffffffffffffffffffffff1673ffffffffffffffffffffffffffffffffffffffff168373ffffffffffffffffffffffffffffffffffffffff16145b5b610adf576040517f08c379a0000000000000000000000000000000000000000000000000000000008152600401610ad690615066565b60405180910390fd5b6000610aeb8487613574565b905060405180608001604052808781526020018681526020018473ffffffffffffffffffffffffffffffffffffffff16636352211e896040518263ffffffff1660e01b8152600401610b3d9190615241565b60206040518083038186803b158015610b5557600080fd5b505afa158015610b69573d6000803e3d6000fd5b505050506040513d601f19601f82011682018060405250810190610b8d919061438d565b73ffffffffffffffffffffffffffffffffffffffff1681526020018573ffffffffffffffffffffffffffffffffffffffff16815250600d6000838152602001908152602001600020600082015181600001556020820151816001015560408201518160020160006101000a81548173ffffffffffffffffffffffffffffffffffffffff021916908373ffffffffffffffffffffffffffffffffffffffff16021790555060608201518160030160006101000a81548173ffffffffffffffffffffffffffffffffffffffff021916908373ffffffffffffffffffffffffffffffffffffffff1602179055509050508273ffffffffffffffffffffffffffffffffffffffff166323b872dd8473ffffffffffffffffffffffffffffffffffffffff16636352211e896040518263ffffffff1660e01b8152600401610ccf9190615241565b60206040518083038186803b158015610ce757600080fd5b505afa158015610cfb573d6000803e3d6000fd5b505050506040513d601f19601f82011682018060405250810190610d1f919061438d565b30896040518463ffffffff1660e01b8152600401610d3f93929190614def565b600060405180830381600087803b158015610d5957600080fd5b505af1158015610d6d573d6000803e3d6000fd5b50505050610d7b600c613b21565b600e8190806001815401808255809150506001900390600052602060002001600090919091909150558373ffffffffffffffffffffffffffffffffffffffff163373ffffffffffffffffffffffffffffffffffffffff16877fc65ba3c5b271b28dd9e42873d11ec274c241e89fe348618c03ac562170f754f788604051610e029190615241565b60405180910390a4505050610e15613b37565b505050565b606060008211610e5f576040517f08c379a0000000000000000000000000000000000000000000000000000000008152600401610e5690615086565b60405180910390fd5b6000610e6b600c613b40565b905060006064600185610e7e919061557d565b610e889190615523565b9050600082606483610e9a919061549c565b11610eb157606482610eac919061549c565b610eb3565b825b9050818111610f4157600067ffffffffffffffff811115610efd577f4e487b7100000000000000000000000000000000000000000000000000000000600052604160045260246000fd5b604051908082528060200260200182016040528015610f3657816020015b610f2361416a565b815260200190600190039081610f1b5790505b5093505050506112fe565b60008282610f4f919061557d565b67ffffffffffffffff811115610f8e577f4e487b7100000000000000000000000000000000000000000000000000000000600052604160045260246000fd5b604051908082528060200260200182016040528015610fc757816020015b610fb461416a565b815260200190600190039081610fac5790505b5090506000808490505b838110156111d1576000600e8281548110611015577f4e487b7100000000000000000000000000000000000000000000000000000000600052603260045260246000fd5b90600052602060002001549050600073ffffffffffffffffffffffffffffffffffffffff16600d600083815260200190815260200160002060020160009054906101000a900473ffffffffffffffffffffffffffffffffffffffff1673ffffffffffffffffffffffffffffffffffffffff16146111bd57600d600082815260200190815260200160002060405180608001604052908160008201548152602001600182015481526020016002820160009054906101000a900473ffffffffffffffffffffffffffffffffffffffff1673ffffffffffffffffffffffffffffffffffffffff1673ffffffffffffffffffffffffffffffffffffffff1681526020016003820160009054906101000a900473ffffffffffffffffffffffffffffffffffffffff1673ffffffffffffffffffffffffffffffffffffffff1673ffffffffffffffffffffffffffffffffffffffff16815250508484815181106111a3577f4e487b7100000000000000000000000000000000000000000000000000000000600052603260045260246000fd5b602002602001018190525082806111b9906156fc565b9350505b5080806111c9906156fc565b915050610fd1565b5060008167ffffffffffffffff811115611214577f4e487b7100000000000000000000000000000000000000000000000000000000600052604160045260246000fd5b60405190808252806020026020018201604052801561124d57816020015b61123a61416a565b8152602001906001900390816112325790505b50905060005b828110156112f357838181518110611294577f4e487b7100000000000000000000000000000000000000000000000000000000600052603260045260246000fd5b60200260200101518282815181106112d5577f4e487b7100000000000000000000000000000000000000000000000000000000600052603260045260246000fd5b602002602001018190525080806112eb906156fc565b915050611253565b508096505050505050505b919050565b6000600460008373ffffffffffffffffffffffffffffffffffffffff1673ffffffffffffffffffffffffffffffffffffffff1681526020019081526020016000205411611385576040517f08c379a000000000000000000000000000000000000000000000000000000000815260040161137c90614fa6565b60405180910390fd5b600061139082612759565b905060008114156113d6576040517f08c379a00000000000000000000000000000000000000000000000000000000081526004016113cd90615026565b60405180910390fd5b80600360008282546113e8919061549c565b9250508190555080600560008473ffffffffffffffffffffffffffffffffffffffff1673ffffffffffffffffffffffffffffffffffffffff168152602001908152602001600020600082825401925050819055506114468282613b4e565b7fdf20fd1e76bc69d672e4814fafb2c449bba3a5369d8359adf9e05e6fde87b0568282604051611477929190614dc6565b60405180910390a15050565b6000600254905090565b6000600860008473ffffffffffffffffffffffffffffffffffffffff1673ffffffffffffffffffffffffffffffffffffffff16815260200190815260200160002060008373ffffffffffffffffffffffffffffffffffffffff1673ffffffffffffffffffffffffffffffffffffffff16815260200190815260200160002054905092915050565b6000600460008373ffffffffffffffffffffffffffffffffffffffff1673ffffffffffffffffffffffffffffffffffffffff1681526020019081526020016000205411611596576040517f08c379a000000000000000000000000000000000000000000000000000000000815260040161158d90614fa6565b60405180910390fd5b60006115a283836130fa565b905060008114156115e8576040517f08c379a00000000000000000000000000000000000000000000000000000000081526004016115df90615026565b60405180910390fd5b80600760008573ffffffffffffffffffffffffffffffffffffffff1673ffffffffffffffffffffffffffffffffffffffff1681526020019081526020016000206000828254611637919061549c565b9250508190555080600860008573ffffffffffffffffffffffffffffffffffffffff1673ffffffffffffffffffffffffffffffffffffffff16815260200190815260200160002060008473ffffffffffffffffffffffffffffffffffffffff1673ffffffffffffffffffffffffffffffffffffffff168152602001908152602001600020600082825401925050819055506116d3838383613c42565b8273ffffffffffffffffffffffffffffffffffffffff167f3be5b7a71e84ed12875d241991c70855ac5817d847039e17a9d895c1ceb0f18a838360405161171b929190614e26565b60405180910390a2505050565b61173061416a565b600061173c8385613574565b9050600073ffffffffffffffffffffffffffffffffffffffff16600d600083815260200190815260200160002060020160009054906101000a900473ffffffffffffffffffffffffffffffffffffffff1673ffffffffffffffffffffffffffffffffffffffff1614156117e4576040517f08c379a00000000000000000000000000000000000000000000000000000000081526004016117db90614f86565b60405180910390fd5b600d600082815260200190815260200160002060405180608001604052908160008201548152602001600182015481526020016002820160009054906101000a900473ffffffffffffffffffffffffffffffffffffffff1673ffffffffffffffffffffffffffffffffffffffff1673ffffffffffffffffffffffffffffffffffffffff1681526020016003820160009054906101000a900473ffffffffffffffffffffffffffffffffffffffff1673ffffffffffffffffffffffffffffffffffffffff1673ffffffffffffffffffffffffffffffffffffffff168152505091505092915050565b606060008211611910576040517f08c379a000000000000000000000000000000000000000000000000000000000815260040161190790615086565b60405180910390fd5b6000600e8054905090506000606460018561192b919061557d565b6119359190615523565b9050600082606483611947919061549c565b1161195e57606482611959919061549c565b611960565b825b90508181116119ee57600067ffffffffffffffff8111156119aa577f4e487b7100000000000000000000000000000000000000000000000000000000600052604160045260246000fd5b6040519080825280602002602001820160405280156119e357816020015b6119d061416a565b8152602001906001900390816119c85790505b509350505050611e25565b818111611a7a57600067ffffffffffffffff811115611a36577f4e487b7100000000000000000000000000000000000000000000000000000000600052604160045260246000fd5b604051908082528060200260200182016040528015611a6f57816020015b611a5c61416a565b815260200190600190039081611a545790505b509350505050611e25565b60008282611a88919061557d565b67ffffffffffffffff811115611ac7577f4e487b7100000000000000000000000000000000000000000000000000000000600052604160045260246000fd5b604051908082528060200260200182016040528015611b0057816020015b611aed61416a565b815260200190600190039081611ae55790505b5090506000808490505b83811015611cf8576000600d6000600e8481548110611b52577f4e487b7100000000000000000000000000000000000000000000000000000000600052603260045260246000fd5b9060005260206000200154815260200190815260200160002090508973ffffffffffffffffffffffffffffffffffffffff168160020160009054906101000a900473ffffffffffffffffffffffffffffffffffffffff1673ffffffffffffffffffffffffffffffffffffffff161415611ce4578060405180608001604052908160008201548152602001600182015481526020016002820160009054906101000a900473ffffffffffffffffffffffffffffffffffffffff1673ffffffffffffffffffffffffffffffffffffffff1673ffffffffffffffffffffffffffffffffffffffff1681526020016003820160009054906101000a900473ffffffffffffffffffffffffffffffffffffffff1673ffffffffffffffffffffffffffffffffffffffff1673ffffffffffffffffffffffffffffffffffffffff1681525050848481518110611cca577f4e487b7100000000000000000000000000000000000000000000000000000000600052603260045260246000fd5b60200260200101819052508280611ce0906156fc565b9350505b508080611cf0906156fc565b915050611b0a565b5060008167ffffffffffffffff811115611d3b577f4e487b7100000000000000000000000000000000000000000000000000000000600052604160045260246000fd5b604051908082528060200260200182016040528015611d7457816020015b611d6161416a565b815260200190600190039081611d595790505b50905060005b82811015611e1a57838181518110611dbb577f4e487b7100000000000000000000000000000000000000000000000000000000600052603260045260246000fd5b6020026020010151828281518110611dfc577f4e487b7100000000000000000000000000000000000000000000000000000000600052603260045260246000fd5b60200260200101819052508080611e12906156fc565b915050611d7a565b508096505050505050505b92915050565b600080611e388484613574565b9050600073ffffffffffffffffffffffffffffffffffffffff16600d600083815260200190815260200160002060020160009054906101000a900473ffffffffffffffffffffffffffffffffffffffff1673ffffffffffffffffffffffffffffffffffffffff16141591505092915050565b611eb2613cc8565b611ebc6000613d46565b565b606060008367ffffffffffffffff811115611f02577f4e487b7100000000000000000000000000000000000000000000000000000000600052604160045260246000fd5b604051908082528060200260200182016040528015611f305781602001602082028036833780820191505090505b509050600080600b60009054906101000a900473ffffffffffffffffffffffffffffffffffffffff1673ffffffffffffffffffffffffffffffffffffffff1663d08b28ea8989896040518463ffffffff1660e01b8152600401611f959392919061533f565b60006040518083038186803b158015611fad57600080fd5b505afa158015611fc1573d6000803e3d6000fd5b505050506040513d6000823e3d601f19601f82011682018060405250810190611fea9190614457565b905060008151141561207057600067ffffffffffffffff811115612037577f4e487b7100000000000000000000000000000000000000000000000000000000600052604160045260246000fd5b6040519080825280602002602001820160405280156120655781602001602082028036833780820191505090505b5093505050506122c4565b60005b81518110156121a35760008282815181106120b7577f4e487b7100000000000000000000000000000000000000000000000000000000600052603260045260246000fd5b6020026020010151905060006120cd8883613574565b9050600073ffffffffffffffffffffffffffffffffffffffff16600d600083815260200190815260200160002060020160009054906101000a900473ffffffffffffffffffffffffffffffffffffffff1673ffffffffffffffffffffffffffffffffffffffff161461218e5781868681518110612173577f4e487b7100000000000000000000000000000000000000000000000000000000600052603260045260246000fd5b602002602001018181525050848061218a906156fc565b9550505b5050808061219b906156fc565b915050612073565b5060008267ffffffffffffffff8111156121e6577f4e487b7100000000000000000000000000000000000000000000000000000000600052604160045260246000fd5b6040519080825280602002602001820160405280156122145781602001602082028036833780820191505090505b50905060005b838110156122bb5784818151811061225b577f4e487b7100000000000000000000000000000000000000000000000000000000600052603260045260246000fd5b602002602001015182828151811061229c577f4e487b7100000000000000000000000000000000000000000000000000000000600052603260045260246000fd5b60200260200101818152505080806122b3906156fc565b91505061221a565b50809450505050505b949350505050565b600060068281548110612308577f4e487b7100000000000000000000000000000000000000000000000000000000600052603260045260246000fd5b9060005260206000200160009054906101000a900473ffffffffffffffffffffffffffffffffffffffff169050919050565b60008060009054906101000a900473ffffffffffffffffffffffffffffffffffffffff16905090565b6000600560008373ffffffffffffffffffffffffffffffffffffffff1673ffffffffffffffffffffffffffffffffffffffff168152602001908152602001600020549050919050565b6123b4613ad1565b60006123c08383613574565b90506000600d600083815260200190815260200160002090503373ffffffffffffffffffffffffffffffffffffffff168160020160009054906101000a900473ffffffffffffffffffffffffffffffffffffffff1673ffffffffffffffffffffffffffffffffffffffff161461246b576040517f08c379a000000000000000000000000000000000000000000000000000000000815260040161246290615066565b60405180910390fd5b60008160030160009054906101000a900473ffffffffffffffffffffffffffffffffffffffff1690508073ffffffffffffffffffffffffffffffffffffffff166323b872dd308460020160009054906101000a900473ffffffffffffffffffffffffffffffffffffffff16876040518463ffffffff1660e01b81526004016124f593929190614def565b600060405180830381600087803b15801561250f57600080fd5b505af1158015612523573d6000803e3d6000fd5b50505050600d600084815260200190815260200160002060008082016000905560018201600090556002820160006101000a81549073ffffffffffffffffffffffffffffffffffffffff02191690556003820160006101000a81549073ffffffffffffffffffffffffffffffffffffffff021916905550506125a5600c613e0a565b60005b600e805490508110156127055783600e82815481106125f0577f4e487b7100000000000000000000000000000000000000000000000000000000600052603260045260246000fd5b906000526020600020015414156126f257600e6001600e80549050612615919061557d565b8154811061264c577f4e487b7100000000000000000000000000000000000000000000000000000000600052603260045260246000fd5b9060005260206000200154600e8281548110612691577f4e487b7100000000000000000000000000000000000000000000000000000000600052603260045260246000fd5b9060005260206000200181905550600e8054806126d7577f4e487b7100000000000000000000000000000000000000000000000000000000600052603160045260246000fd5b60019003818190600052602060002001600090559055612705565b80806126fd906156fc565b9150506125a8565b508473ffffffffffffffffffffffffffffffffffffffff16847fef1499b350e05776e60cd2ffcac001569a28e9d574e1f3adc1b3ab264f8ccffd60405160405180910390a3505050612755613b37565b5050565b6000806127646134c2565b4761276f919061549c565b9050612784838261277f86612363565b613e66565b915050919050565b612794613ad1565b60006127a08383613574565b90506000600d60008381526020019081526020016000209050806001015434146127ff576040517f08c379a00000000000000000000000000000000000000000000000000000000081526004016127f690615106565b60405180910390fd5b66038d7ea4c680008160010154101561284d576040517f08c379a0000000000000000000000000000000000000000000000000000000008152600401612844906151c6565b60405180910390fd5b3373ffffffffffffffffffffffffffffffffffffffff168160020160009054906101000a900473ffffffffffffffffffffffffffffffffffffffff1673ffffffffffffffffffffffffffffffffffffffff1614156128e0576040517f08c379a00000000000000000000000000000000000000000000000000000000081526004016128d7906150c6565b60405180910390fd5b60008490508073ffffffffffffffffffffffffffffffffffffffff166301ffc9a77f80ac58cd000000000000000000000000000000000000000000000000000000006040518263ffffffff1660e01b815260040161293e9190614ec9565b60206040518083038186803b15801561295657600080fd5b505afa15801561296a573d6000803e3d6000fd5b505050506040513d601f19601f8201168201806040525081019061298e9190614498565b6129cd576040517f08c379a00000000000000000000000000000000000000000000000000000000081526004016129c490614f06565b60405180910390fd5b8073ffffffffffffffffffffffffffffffffffffffff166301ffc9a77f2a55205a000000000000000000000000000000000000000000000000000000006040518263ffffffff1660e01b8152600401612a269190614ec9565b60206040518083038186803b158015612a3e57600080fd5b505afa158015612a52573d6000803e3d6000fd5b505050506040513d601f19601f82011682018060405250810190612a769190614498565b612ab5576040517f08c379a0000000000000000000000000000000000000000000000000000000008152600401612aac90615046565b60405180910390fd5b600085905060008690506000808373ffffffffffffffffffffffffffffffffffffffff16632a55205a876000015488600101546040518363ffffffff1660e01b8152600401612b059291906152d1565b604080518083038186803b158015612b1c57600080fd5b505afa158015612b30573d6000803e3d6000fd5b505050506040513d601f19601f82011682018060405250810190612b54919061441b565b91509150600060646009548860010154612b6e9190615523565b612b7891906154f2565b90508181612b86919061549c565b876001015411612bcb576040517f08c379a0000000000000000000000000000000000000000000000000000000008152600401612bc2906150e6565b60405180910390fd5b60008183612bd9919061549c565b8860010154612be8919061557d565b905060008860020160009054906101000a900473ffffffffffffffffffffffffffffffffffffffff1673ffffffffffffffffffffffffffffffffffffffff1682604051612c3490614d96565b60006040518083038185875af1925050503d8060008114612c71576040519150601f19603f3d011682016040523d82523d6000602084013e612c76565b606091505b5050905080612cba576040517f08c379a0000000000000000000000000000000000000000000000000000000008152600401612cb190615166565b60405180910390fd5b60008573ffffffffffffffffffffffffffffffffffffffff1685604051612ce090614d96565b60006040518083038185875af1925050503d8060008114612d1d576040519150601f19603f3d011682016040523d82523d6000602084013e612d22565b606091505b5050905080612d66576040517f08c379a0000000000000000000000000000000000000000000000000000000008152600401612d5d90614f26565b60405180910390fd5b600d60008c815260200190815260200160002060008082016000905560018201600090556002820160006101000a81549073ffffffffffffffffffffffffffffffffffffffff02191690556003820160006101000a81549073ffffffffffffffffffffffffffffffffffffffff021916905550508673ffffffffffffffffffffffffffffffffffffffff166323b872dd30338f6040518463ffffffff1660e01b8152600401612e1793929190614def565b600060405180830381600087803b158015612e3157600080fd5b505af1158015612e45573d6000803e3d6000fd5b50505050612e53600c613e0a565b60005b600e80549050811015612fb3578b600e8281548110612e9e577f4e487b7100000000000000000000000000000000000000000000000000000000600052603260045260246000fd5b90600052602060002001541415612fa057600e6001600e80549050612ec3919061557d565b81548110612efa577f4e487b7100000000000000000000000000000000000000000000000000000000600052603260045260246000fd5b9060005260206000200154600e8281548110612f3f577f4e487b7100000000000000000000000000000000000000000000000000000000600052603260045260246000fd5b9060005260206000200181905550600e805480612f85577f4e487b7100000000000000000000000000000000000000000000000000000000600052603160045260246000fd5b60019003818190600052602060002001600090559055612fb3565b8080612fab906156fc565b915050612e56565b503373ffffffffffffffffffffffffffffffffffffffff168a60020160009054906101000a900473ffffffffffffffffffffffffffffffffffffffff1673ffffffffffffffffffffffffffffffffffffffff168d7f4d26e6707cfb0dd9d0e2aaaf04de4b0b4a388a1c760ed3b2976827015153a39e8d600101548e60030160009054906101000a900473ffffffffffffffffffffffffffffffffffffffff1660405161306092919061525c565b60405180910390a4505050505050505050505061307b613b37565b5050565b66038d7ea4c6800081565b600d6020528060005260406000206000915090508060000154908060010154908060020160009054906101000a900473ffffffffffffffffffffffffffffffffffffffff16908060030160009054906101000a900473ffffffffffffffffffffffffffffffffffffffff16905084565b60008061310684613479565b8473ffffffffffffffffffffffffffffffffffffffff166370a08231306040518263ffffffff1660e01b815260040161313f9190614dab565b60206040518083038186803b15801561315757600080fd5b505afa15801561316b573d6000803e3d6000fd5b505050506040513d601f19601f8201168201806040525081019061318f9190614578565b613199919061549c565b90506131af83826131aa878761148d565b613e66565b91505092915050565b6131c0613ad1565b60006064600954346131d29190615523565b6131dc91906154f2565b9050803411613220576040517f08c379a0000000000000000000000000000000000000000000000000000000008152600401613217906150e6565b60405180910390fd5b600080600b60009054906101000a900473ffffffffffffffffffffffffffffffffffffffff1673ffffffffffffffffffffffffffffffffffffffff16636313a3e8863387346040518563ffffffff1660e01b81526004016132849493929190615285565b6040805180830381600087803b15801561329d57600080fd5b505af11580156132b1573d6000803e3d6000fd5b505050506040513d601f19601f820116820180604052508101906132d591906145dd565b91509150600083346132e7919061557d565b905060008273ffffffffffffffffffffffffffffffffffffffff168260405161330f90614d96565b60006040518083038185875af1925050503d806000811461334c576040519150601f19603f3d011682016040523d82523d6000602084013e613351565b606091505b5050905080613395576040517f08c379a000000000000000000000000000000000000000000000000000000000815260040161338c90615126565b60405180910390fd5b3373ffffffffffffffffffffffffffffffffffffffff168373ffffffffffffffffffffffffffffffffffffffff16857f4d26e6707cfb0dd9d0e2aaaf04de4b0b4a388a1c760ed3b2976827015153a39e34600a60009054906101000a900473ffffffffffffffffffffffffffffffffffffffff1660405161341792919061525c565b60405180910390a4505050505061342c613b37565b5050565b6000600460008373ffffffffffffffffffffffffffffffffffffffff1673ffffffffffffffffffffffffffffffffffffffff168152602001908152602001600020549050919050565b6000600760008373ffffffffffffffffffffffffffffffffffffffff1673ffffffffffffffffffffffffffffffffffffffff168152602001908152602001600020549050919050565b6000600354905090565b600e81815481106134dc57600080fd5b906000526020600020016000915090505481565b6134f8613cc8565b600073ffffffffffffffffffffffffffffffffffffffff168173ffffffffffffffffffffffffffffffffffffffff161415613568576040517f08c379a000000000000000000000000000000000000000000000000000000000815260040161355f90614f66565b60405180910390fd5b61357181613d46565b50565b60008282604051602001613589929190614d53565b60405160208183030381529060405280519060200120905092915050565b6060600082116135ec576040517f08c379a00000000000000000000000000000000000000000000000000000000081526004016135e390615086565b60405180910390fd5b6000600e80549050905060006064600185613607919061557d565b6136119190615523565b9050600082606483613623919061549c565b1161363a57606482613635919061549c565b61363c565b825b90508181116136ca57600067ffffffffffffffff811115613686577f4e487b7100000000000000000000000000000000000000000000000000000000600052604160045260246000fd5b6040519080825280602002602001820160405280156136bf57816020015b6136ac61416a565b8152602001906001900390816136a45790505b509350505050613acb565b600082826136d8919061557d565b67ffffffffffffffff811115613717577f4e487b7100000000000000000000000000000000000000000000000000000000600052604160045260246000fd5b60405190808252806020026020018201604052801561375057816020015b61373d61416a565b8152602001906001900390816137355790505b5090506000808490505b8381101561399e576000600d6000600e84815481106137a2577f4e487b7100000000000000000000000000000000000000000000000000000000600052603260045260246000fd5b9060005260206000200154815260200190815260200160002090508973ffffffffffffffffffffffffffffffffffffffff168160030160009054906101000a900473ffffffffffffffffffffffffffffffffffffffff1673ffffffffffffffffffffffffffffffffffffffff16141561398a57600d6000600e8481548110613853577f4e487b7100000000000000000000000000000000000000000000000000000000600052603260045260246000fd5b9060005260206000200154815260200190815260200160002060405180608001604052908160008201548152602001600182015481526020016002820160009054906101000a900473ffffffffffffffffffffffffffffffffffffffff1673ffffffffffffffffffffffffffffffffffffffff1673ffffffffffffffffffffffffffffffffffffffff1681526020016003820160009054906101000a900473ffffffffffffffffffffffffffffffffffffffff1673ffffffffffffffffffffffffffffffffffffffff1673ffffffffffffffffffffffffffffffffffffffff1681525050848481518110613970577f4e487b7100000000000000000000000000000000000000000000000000000000600052603260045260246000fd5b60200260200101819052508280613986906156fc565b9350505b508080613996906156fc565b91505061375a565b5060008167ffffffffffffffff8111156139e1577f4e487b7100000000000000000000000000000000000000000000000000000000600052604160045260246000fd5b604051908082528060200260200182016040528015613a1a57816020015b613a0761416a565b8152602001906001900390816139ff5790505b50905060005b82811015613ac057838181518110613a61577f4e487b7100000000000000000000000000000000000000000000000000000000600052603260045260246000fd5b6020026020010151828281518110613aa2577f4e487b7100000000000000000000000000000000000000000000000000000000600052603260045260246000fd5b60200260200101819052508080613ab8906156fc565b915050613a20565b508096505050505050505b92915050565b60026001541415613b17576040517f08c379a0000000000000000000000000000000000000000000000000000000008152600401613b0e90615206565b60405180910390fd5b6002600181905550565b6001816000016000828254019250508190555050565b60018081905550565b600081600001549050919050565b80471015613b91576040517f08c379a0000000000000000000000000000000000000000000000000000000008152600401613b8890614fe6565b60405180910390fd5b60008273ffffffffffffffffffffffffffffffffffffffff1682604051613bb790614d96565b60006040518083038185875af1925050503d8060008114613bf4576040519150601f19603f3d011682016040523d82523d6000602084013e613bf9565b606091505b5050905080613c3d576040517f08c379a0000000000000000000000000000000000000000000000000000000008152600401613c3490614fc6565b60405180910390fd5b505050565b613cc38363a9059cbb60e01b8484604051602401613c61929190614e26565b604051602081830303815290604052907bffffffffffffffffffffffffffffffffffffffffffffffffffffffff19166020820180517bffffffffffffffffffffffffffffffffffffffffffffffffffffffff8381831617835250505050613ed4565b505050565b613cd06107a2565b73ffffffffffffffffffffffffffffffffffffffff16613cee61233a565b73ffffffffffffffffffffffffffffffffffffffff1614613d44576040517f08c379a0000000000000000000000000000000000000000000000000000000008152600401613d3b90615146565b60405180910390fd5b565b60008060009054906101000a900473ffffffffffffffffffffffffffffffffffffffff169050816000806101000a81548173ffffffffffffffffffffffffffffffffffffffff021916908373ffffffffffffffffffffffffffffffffffffffff1602179055508173ffffffffffffffffffffffffffffffffffffffff168173ffffffffffffffffffffffffffffffffffffffff167f8be0079c531659141344cd1fd0a4f28419497f9722a3daafe3b4186f6b6457e060405160405180910390a35050565b60008160000154905060008111613e56576040517f08c379a0000000000000000000000000000000000000000000000000000000008152600401613e4d90614f46565b60405180910390fd5b6001810382600001819055505050565b600081600254600460008773ffffffffffffffffffffffffffffffffffffffff1673ffffffffffffffffffffffffffffffffffffffff1681526020019081526020016000205485613eb79190615523565b613ec191906154f2565b613ecb919061557d565b90509392505050565b6000613f36826040518060400160405280602081526020017f5361666545524332303a206c6f772d6c6576656c2063616c6c206661696c65648152508573ffffffffffffffffffffffffffffffffffffffff16613f9c9092919063ffffffff16565b9050600081511480613f58575080806020019051810190613f579190614498565b5b613f97576040517f08c379a0000000000000000000000000000000000000000000000000000000008152600401613f8e906151e6565b60405180910390fd5b505050565b6060613fab8484600085613fb4565b90509392505050565b606082471015613ff9576040517f08c379a0000000000000000000000000000000000000000000000000000000008152600401613ff090615006565b60405180910390fd5b6000808673ffffffffffffffffffffffffffffffffffffffff1685876040516140229190614d7f565b60006040518083038185875af1925050503d806000811461405f576040519150601f19603f3d011682016040523d82523d6000602084013e614064565b606091505b509150915061407587838387614081565b92505050949350505050565b606083156140e4576000835114156140dc5761409c856140f7565b6140db576040517f08c379a00000000000000000000000000000000000000000000000000000000081526004016140d2906151a6565b60405180910390fd5b5b8290506140ef565b6140ee838361411a565b5b949350505050565b6000808273ffffffffffffffffffffffffffffffffffffffff163b119050919050565b60008251111561412d5781518083602001fd5b806040517f08c379a00000000000000000000000000000000000000000000000000000000081526004016141619190614ee4565b60405180910390fd5b60405180608001604052806000815260200160008152602001600073ffffffffffffffffffffffffffffffffffffffff168152602001600073ffffffffffffffffffffffffffffffffffffffff1681525090565b60006141d16141cc8461539b565b615376565b905080838252602082019050828560208602820111156141f057600080fd5b60005b858110156142205781614206888261434f565b8452602084019350602083019250506001810190506141f3565b5050509392505050565b600061423d614238846153c7565b615376565b90508281526020810184848401111561425557600080fd5b614260848285615689565b509392505050565b60008135905061427781615e82565b92915050565b60008151905061428c81615e82565b92915050565b6000813590506142a181615e99565b92915050565b600082601f8301126142b857600080fd5b81516142c88482602086016141be565b91505092915050565b6000815190506142e081615eb0565b92915050565b6000813590506142f581615ec7565b92915050565b60008135905061430a81615ede565b92915050565b600082601f83011261432157600080fd5b813561433184826020860161422a565b91505092915050565b60008135905061434981615ef5565b92915050565b60008151905061435e81615ef5565b92915050565b60006020828403121561437657600080fd5b600061438484828501614268565b91505092915050565b60006020828403121561439f57600080fd5b60006143ad8482850161427d565b91505092915050565b6000602082840312156143c857600080fd5b60006143d684828501614292565b91505092915050565b600080604083850312156143f257600080fd5b600061440085828601614268565b92505060206144118582860161433a565b9150509250929050565b6000806040838503121561442e57600080fd5b600061443c8582860161427d565b925050602061444d8582860161434f565b9150509250929050565b60006020828403121561446957600080fd5b600082015167ffffffffffffffff81111561448357600080fd5b61448f848285016142a7565b91505092915050565b6000602082840312156144aa57600080fd5b60006144b8848285016142d1565b91505092915050565b6000602082840312156144d357600080fd5b60006144e1848285016142e6565b91505092915050565b6000602082840312156144fc57600080fd5b600061450a848285016142fb565b91505092915050565b6000806040838503121561452657600080fd5b6000614534858286016142fb565b925050602061454585828601614268565b9150509250929050565b60006020828403121561456157600080fd5b600061456f8482850161433a565b91505092915050565b60006020828403121561458a57600080fd5b60006145988482850161434f565b91505092915050565b600080604083850312156145b457600080fd5b60006145c28582860161433a565b92505060206145d385828601614268565b9150509250929050565b600080604083850312156145f057600080fd5b60006145fe8582860161434f565b925050602061460f8582860161427d565b9150509250929050565b6000806040838503121561462c57600080fd5b600061463a8582860161433a565b925050602083013567ffffffffffffffff81111561465757600080fd5b61466385828601614310565b9150509250929050565b60008060006060848603121561468257600080fd5b60006146908682870161433a565b93505060206146a18682870161433a565b92505060406146b286828701614268565b9150509250925092565b600080600080608085870312156146d257600080fd5b60006146e08782880161433a565b94505060206146f18782880161433a565b93505060406147028782880161433a565b925050606061471387828801614268565b91505092959194509250565b600061472b8383614c74565b60808301905092915050565b60006147438383614d1e565b60208301905092915050565b61475881615653565b82525050565b614767816155b1565b82525050565b614776816155b1565b82525050565b61478d614788826155b1565b615745565b82525050565b600061479e82615418565b6147a8818561545e565b93506147b3836153f8565b8060005b838110156147e45781516147cb888261471f565b97506147d683615444565b9250506001810190506147b7565b5085935050505092915050565b60006147fc82615423565b614806818561546f565b935061481183615408565b8060005b838110156148425781516148298882614737565b975061483483615451565b925050600181019050614815565b5085935050505092915050565b614858816155d5565b82525050565b614867816155e1565b82525050565b614876816155eb565b82525050565b60006148878261542e565b6148918185615480565b93506148a1818560208601615698565b80840191505092915050565b60006148b882615439565b6148c2818561548b565b93506148d2818560208601615698565b6148db81615800565b840191505092915050565b60006148f360368361548b565b91506148fe8261581e565b604082019050919050565b6000614916602b8361548b565b91506149218261586d565b604082019050919050565b6000614939601b8361548b565b9150614944826158bc565b602082019050919050565b600061495c60268361548b565b9150614967826158e5565b604082019050919050565b600061497f60308361548b565b915061498a82615934565b604082019050919050565b60006149a260268361548b565b91506149ad82615983565b604082019050919050565b60006149c5603a8361548b565b91506149d0826159d2565b604082019050919050565b60006149e8601d8361548b565b91506149f382615a21565b602082019050919050565b6000614a0b60268361548b565b9150614a1682615a4a565b604082019050919050565b6000614a2e602b8361548b565b9150614a3982615a99565b604082019050919050565b6000614a5160378361548b565b9150614a5c82615ae8565b604082019050919050565b6000614a7460168361548b565b9150614a7f82615b37565b602082019050919050565b6000614a9760248361548b565b9150614aa282615b60565b604082019050919050565b6000614aba60248361548b565b9150614ac582615baf565b604082019050919050565b6000614add601e8361548b565b9150614ae882615bfe565b602082019050919050565b6000614b00602b8361548b565b9150614b0b82615c27565b604082019050919050565b6000614b2360278361548b565b9150614b2e82615c76565b604082019050919050565b6000614b4660248361548b565b9150614b5182615cc5565b604082019050919050565b6000614b6960208361548b565b9150614b7482615d14565b602082019050919050565b6000614b8c601d8361548b565b9150614b9782615d3d565b602082019050919050565b6000614baf60178361548b565b9150614bba82615d66565b602082019050919050565b6000614bd2600083615480565b9150614bdd82615d8f565b600082019050919050565b6000614bf5601d8361548b565b9150614c0082615d92565b602082019050919050565b6000614c18602c8361548b565b9150614c2382615dbb565b604082019050919050565b6000614c3b602a8361548b565b9150614c4682615e0a565b604082019050919050565b6000614c5e601f8361548b565b9150614c6982615e59565b602082019050919050565b608082016000820151614c8a6000850182614d1e565b506020820151614c9d6020850182614d1e565b506040820151614cb0604085018261475e565b506060820151614cc3606085018261475e565b50505050565b608082016000820151614cdf6000850182614d1e565b506020820151614cf26020850182614d1e565b506040820151614d05604085018261475e565b506060820151614d18606085018261475e565b50505050565b614d2781615649565b82525050565b614d3681615649565b82525050565b614d4d614d4882615649565b615769565b82525050565b6000614d5f828561477c565b601482019150614d6f8284614d3c565b6020820191508190509392505050565b6000614d8b828461487c565b915081905092915050565b6000614da182614bc5565b9150819050919050565b6000602082019050614dc0600083018461476d565b92915050565b6000604082019050614ddb600083018561474f565b614de86020830184614d2d565b9392505050565b6000606082019050614e04600083018661476d565b614e11602083018561476d565b614e1e6040830184614d2d565b949350505050565b6000604082019050614e3b600083018561476d565b614e486020830184614d2d565b9392505050565b60006020820190508181036000830152614e698184614793565b905092915050565b60006020820190508181036000830152614e8b81846147f1565b905092915050565b6000602082019050614ea8600083018461484f565b92915050565b6000602082019050614ec3600083018461485e565b92915050565b6000602082019050614ede600083018461486d565b92915050565b60006020820190508181036000830152614efe81846148ad565b905092915050565b60006020820190508181036000830152614f1f816148e6565b9050919050565b60006020820190508181036000830152614f3f81614909565b9050919050565b60006020820190508181036000830152614f5f8161492c565b9050919050565b60006020820190508181036000830152614f7f8161494f565b9050919050565b60006020820190508181036000830152614f9f81614972565b9050919050565b60006020820190508181036000830152614fbf81614995565b9050919050565b60006020820190508181036000830152614fdf816149b8565b9050919050565b60006020820190508181036000830152614fff816149db565b9050919050565b6000602082019050818103600083015261501f816149fe565b9050919050565b6000602082019050818103600083015261503f81614a21565b9050919050565b6000602082019050818103600083015261505f81614a44565b9050919050565b6000602082019050818103600083015261507f81614a67565b9050919050565b6000602082019050818103600083015261509f81614a8a565b9050919050565b600060208201905081810360008301526150bf81614aad565b9050919050565b600060208201905081810360008301526150df81614ad0565b9050919050565b600060208201905081810360008301526150ff81614af3565b9050919050565b6000602082019050818103600083015261511f81614b16565b9050919050565b6000602082019050818103600083015261513f81614b39565b9050919050565b6000602082019050818103600083015261515f81614b5c565b9050919050565b6000602082019050818103600083015261517f81614b7f565b9050919050565b6000602082019050818103600083015261519f81614ba2565b9050919050565b600060208201905081810360008301526151bf81614be8565b9050919050565b600060208201905081810360008301526151df81614c0b565b9050919050565b600060208201905081810360008301526151ff81614c2e565b9050919050565b6000602082019050818103600083015261521f81614c51565b9050919050565b600060808201905061523b6000830184614cc9565b92915050565b60006020820190506152566000830184614d2d565b92915050565b60006040820190506152716000830185614d2d565b61527e602083018461476d565b9392505050565b600060808201905061529a6000830187614d2d565b6152a7602083018661476d565b81810360408301526152b981856148ad565b90506152c86060830184614d2d565b95945050505050565b60006040820190506152e66000830185614d2d565b6152f36020830184614d2d565b9392505050565b600060808201905061530f6000830187614d2d565b61531c6020830186614d2d565b615329604083018561476d565b615336606083018461476d565b95945050505050565b60006060820190506153546000830186614d2d565b6153616020830185614d2d565b61536e6040830184614d2d565b949350505050565b6000615380615391565b905061538c82826156cb565b919050565b6000604051905090565b600067ffffffffffffffff8211156153b6576153b56157d1565b5b602082029050602081019050919050565b600067ffffffffffffffff8211156153e2576153e16157d1565b5b6153eb82615800565b9050602081019050919050565b6000819050602082019050919050565b6000819050602082019050919050565b600081519050919050565b600081519050919050565b600081519050919050565b600081519050919050565b6000602082019050919050565b6000602082019050919050565b600082825260208201905092915050565b600082825260208201905092915050565b600081905092915050565b600082825260208201905092915050565b60006154a782615649565b91506154b283615649565b9250827fffffffffffffffffffffffffffffffffffffffffffffffffffffffffffffffff038211156154e7576154e6615773565b5b828201905092915050565b60006154fd82615649565b915061550883615649565b925082615518576155176157a2565b5b828204905092915050565b600061552e82615649565b915061553983615649565b9250817fffffffffffffffffffffffffffffffffffffffffffffffffffffffffffffffff048311821515161561557257615571615773565b5b828202905092915050565b600061558882615649565b915061559383615649565b9250828210156155a6576155a5615773565b5b828203905092915050565b60006155bc82615629565b9050919050565b60006155ce82615629565b9050919050565b60008115159050919050565b6000819050919050565b60007fffffffff0000000000000000000000000000000000000000000000000000000082169050919050565b6000615622826155b1565b9050919050565b600073ffffffffffffffffffffffffffffffffffffffff82169050919050565b6000819050919050565b600061565e82615665565b9050919050565b600061567082615677565b9050919050565b600061568282615629565b9050919050565b82818337600083830152505050565b60005b838110156156b657808201518184015260208101905061569b565b838111156156c5576000848401525b50505050565b6156d482615800565b810181811067ffffffffffffffff821117156156f3576156f26157d1565b5b80604052505050565b600061570782615649565b91507fffffffffffffffffffffffffffffffffffffffffffffffffffffffffffffffff82141561573a57615739615773565b5b600182019050919050565b600061575082615757565b9050919050565b600061576282615811565b9050919050565b6000819050919050565b7f4e487b7100000000000000000000000000000000000000000000000000000000600052601160045260246000fd5b7f4e487b7100000000000000000000000000000000000000000000000000000000600052601260045260246000fd5b7f4e487b7100000000000000000000000000000000000000000000000000000000600052604160045260246000fd5b6000601f19601f8301169050919050565b60008160601b9050919050565b7f546865204e465420636f6e747261637420646f6573206e6f7420737570706f7260008201527f74207468652045524337323120696e7465726661636500000000000000000000602082015250565b7f5472616e73666572206f6620726f79616c747920746f2074686520726563656960008201527f766572206661696c65642e000000000000000000000000000000000000000000602082015250565b7f436f756e7465723a2064656372656d656e74206f766572666c6f770000000000600082015250565b7f4f776e61626c653a206e6577206f776e657220697320746865207a65726f206160008201527f6464726573730000000000000000000000000000000000000000000000000000602082015250565b7f4e6f206c697374696e6720666f756e6420666f72207468697320746f6b656e4960008201527f6420616e6420636f6c6c656374696f6e00000000000000000000000000000000602082015250565b7f5061796d656e7453706c69747465723a206163636f756e7420686173206e6f2060008201527f7368617265730000000000000000000000000000000000000000000000000000602082015250565b7f416464726573733a20756e61626c6520746f2073656e642076616c75652c207260008201527f6563697069656e74206d61792068617665207265766572746564000000000000602082015250565b7f416464726573733a20696e73756666696369656e742062616c616e6365000000600082015250565b7f416464726573733a20696e73756666696369656e742062616c616e636520666f60008201527f722063616c6c0000000000000000000000000000000000000000000000000000602082015250565b7f5061796d656e7453706c69747465723a206163636f756e74206973206e6f742060008201527f647565207061796d656e74000000000000000000000000000000000000000000602082015250565b7f546865204e465420636f6e747261637420646f6573206e6f7420737570706f7260008201527f7420746865204552433239383120696e74657266616365000000000000000000602082015250565b7f596f7520646f6e2774206f776e2074686973204e465400000000000000000000600082015250565b7f50616765206e756d6265722073686f756c64206265206772656174657220746860008201527f616e203000000000000000000000000000000000000000000000000000000000602082015250565b7f5072696365206d7573742062652067726561746572207468616e204d494e5f5060008201527f5249434500000000000000000000000000000000000000000000000000000000602082015250565b7f4f776e65722063616e6e6f7420627579207468656972206f776e204e46540000600082015250565b7f50726963652073686f756c6420626520686967686572207468616e20746f746160008201527f6c20726f79616c74696573000000000000000000000000000000000000000000602082015250565b7f53656e742076616c756520646f6573206e6f74206d6174636820746865204e4660008201527f5420707269636500000000000000000000000000000000000000000000000000602082015250565b7f5472616e7366657220746f20436f6c6c656374696f6e206f776e65722066616960008201527f6c65642e00000000000000000000000000000000000000000000000000000000602082015250565b7f4f776e61626c653a2063616c6c6572206973206e6f7420746865206f776e6572600082015250565b7f5472616e7366657220746f204e4654206f776e6572206661696c65642e000000600082015250565b7f546f6b656e20697320616c7265616479206c6973746564000000000000000000600082015250565b50565b7f416464726573733a2063616c6c20746f206e6f6e2d636f6e7472616374000000600082015250565b7f4c697374696e67207072696365206d757374206265206772656174657220746860008201527f616e204d494e5f50524943450000000000000000000000000000000000000000602082015250565b7f5361666545524332303a204552433230206f7065726174696f6e20646964206e60008201527f6f74207375636365656400000000000000000000000000000000000000000000602082015250565b7f5265656e7472616e637947756172643a207265656e7472616e742063616c6c00600082015250565b615e8b816155b1565b8114615e9657600080fd5b50565b615ea2816155c3565b8114615ead57600080fd5b50565b615eb9816155d5565b8114615ec457600080fd5b50565b615ed0816155e1565b8114615edb57600080fd5b50565b615ee781615617565b8114615ef257600080fd5b50565b615efe81615649565b8114615f0957600080fd5b5056fea2646970667358221220dc95234504726a05b78f4f4c94dc098d2ec8c216ce5dc646e7620eb1826ab0fe64736f6c63430008010033",
  "linkReferences": {},
  "deployedLinkReferences": {}
}