{
  "_format": "hh-sol-artifact-1",
  "contractName": "NFTMarketplace",
  "sourceName": "contracts/NFTMarketplace.sol",
  "abi": [
    {
      "inputs": [
        {
          "internalType": "address",
          "name": "nftContractAddress",
          "type": "address"
        },
        {
          "internalType": "address[]",
          "name": "payees",
          "type": "address[]"
        },
        {
          "internalType": "uint256[]",
          "name": "shares",
          "type": "uint256[]"
        },
        {
          "internalType": "uint256",
          "name": "royalties",
          "type": "uint256"
        }
      ],
      "stateMutability": "nonpayable",
      "type": "constructor"
    },
    {
      "anonymous": false,
      "inputs": [
        {
          "indexed": true,
          "internalType": "contract IERC20",
          "name": "token",
          "type": "address"
        },
        {
          "indexed": false,
          "internalType": "address",
          "name": "to",
          "type": "address"
        },
        {
          "indexed": false,
          "internalType": "uint256",
          "name": "amount",
          "type": "uint256"
        }
      ],
      "name": "ERC20PaymentReleased",
      "type": "event"
    },
    {
      "anonymous": false,
      "inputs": [
        {
          "indexed": true,
          "internalType": "uint256",
          "name": "tokenId",
          "type": "uint256"
        },
        {
          "indexed": false,
          "internalType": "uint256",
          "name": "price",
          "type": "uint256"
        },
        {
          "indexed": true,
          "internalType": "address",
          "name": "seller",
          "type": "address"
        },
        {
          "indexed": true,
          "internalType": "address",
          "name": "buyer",
          "type": "address"
        },
        {
          "indexed": false,
          "internalType": "address",
          "name": "collection",
          "type": "address"
        }
      ],
      "name": "NFTSold",
      "type": "event"
    },
    {
      "anonymous": false,
      "inputs": [
        {
          "indexed": true,
          "internalType": "address",
          "name": "previousOwner",
          "type": "address"
        },
        {
          "indexed": true,
          "internalType": "address",
          "name": "newOwner",
          "type": "address"
        }
      ],
      "name": "OwnershipTransferred",
      "type": "event"
    },
    {
      "anonymous": false,
      "inputs": [
        {
          "indexed": false,
          "internalType": "address",
          "name": "account",
          "type": "address"
        }
      ],
      "name": "Paused",
      "type": "event"
    },
    {
      "anonymous": false,
      "inputs": [
        {
          "indexed": false,
          "internalType": "address",
          "name": "account",
          "type": "address"
        },
        {
          "indexed": false,
          "internalType": "uint256",
          "name": "shares",
          "type": "uint256"
        }
      ],
      "name": "PayeeAdded",
      "type": "event"
    },
    {
      "anonymous": false,
      "inputs": [
        {
          "indexed": false,
          "internalType": "address",
          "name": "from",
          "type": "address"
        },
        {
          "indexed": false,
          "internalType": "uint256",
          "name": "amount",
          "type": "uint256"
        }
      ],
      "name": "PaymentReceived",
      "type": "event"
    },
    {
      "anonymous": false,
      "inputs": [
        {
          "indexed": false,
          "internalType": "address",
          "name": "to",
          "type": "address"
        },
        {
          "indexed": false,
          "internalType": "uint256",
          "name": "amount",
          "type": "uint256"
        }
      ],
      "name": "PaymentReleased",
      "type": "event"
    },
    {
      "anonymous": false,
      "inputs": [
        {
          "indexed": false,
          "internalType": "address",
          "name": "account",
          "type": "address"
        }
      ],
      "name": "Unpaused",
      "type": "event"
    },
    {
      "inputs": [],
      "name": "MIN_PRICE",
      "outputs": [
        {
          "internalType": "uint256",
          "name": "",
          "type": "uint256"
        }
      ],
      "stateMutability": "view",
      "type": "function"
    },
    {
      "inputs": [
        {
          "internalType": "uint256",
          "name": "collectionId",
          "type": "uint256"
        },
        {
          "internalType": "string",
          "name": "tokenURI",
          "type": "string"
        }
      ],
      "name": "buyFromCollection",
      "outputs": [],
      "stateMutability": "payable",
      "type": "function"
    },
    {
      "inputs": [
        {
          "internalType": "address",
          "name": "collection",
          "type": "address"
        },
        {
          "internalType": "uint256",
          "name": "tokenId",
          "type": "uint256"
        }
      ],
      "name": "buyNFT",
      "outputs": [],
      "stateMutability": "payable",
      "type": "function"
    },
    {
      "inputs": [
        {
          "internalType": "address",
          "name": "collection",
          "type": "address"
        },
        {
          "internalType": "uint256",
          "name": "tokenId",
          "type": "uint256"
        }
      ],
      "name": "delistNFT",
      "outputs": [],
      "stateMutability": "nonpayable",
      "type": "function"
    },
    {
      "inputs": [
        {
          "internalType": "uint256",
          "name": "page",
          "type": "uint256"
        }
      ],
      "name": "getAllListings",
      "outputs": [
        {
          "components": [
            {
              "internalType": "uint256",
              "name": "tokenId",
              "type": "uint256"
            },
            {
              "internalType": "uint256",
              "name": "price",
              "type": "uint256"
            },
            {
              "internalType": "address",
              "name": "seller",
              "type": "address"
            },
            {
              "internalType": "address",
              "name": "collection",
              "type": "address"
            }
          ],
          "internalType": "struct NFTMarketplace.Listing[]",
          "name": "",
          "type": "tuple[]"
        }
      ],
      "stateMutability": "view",
      "type": "function"
    },
    {
      "inputs": [
        {
          "internalType": "address",
          "name": "collection",
          "type": "address"
        },
        {
          "internalType": "uint256",
          "name": "tokenId",
          "type": "uint256"
        }
      ],
      "name": "getKeyForToken",
      "outputs": [
        {
          "internalType": "bytes32",
          "name": "",
          "type": "bytes32"
        }
      ],
      "stateMutability": "pure",
      "type": "function"
    },
    {
      "inputs": [
        {
          "internalType": "uint256",
          "name": "collectionId",
          "type": "uint256"
        },
        {
          "internalType": "uint256",
          "name": "startIndex",
          "type": "uint256"
        },
        {
          "internalType": "uint256",
          "name": "pageSize",
          "type": "uint256"
        },
        {
          "internalType": "address",
          "name": "collection",
          "type": "address"
        }
      ],
      "name": "getListedTokensInCollection",
      "outputs": [
        {
          "internalType": "uint256[]",
          "name": "",
          "type": "uint256[]"
        }
      ],
      "stateMutability": "view",
      "type": "function"
    },
    {
      "inputs": [
        {
          "internalType": "uint256",
          "name": "tokenId",
          "type": "uint256"
        },
        {
          "internalType": "address",
          "name": "collection",
          "type": "address"
        }
      ],
      "name": "getListingByTokenIdAndAddress",
      "outputs": [
        {
          "components": [
            {
              "internalType": "uint256",
              "name": "tokenId",
              "type": "uint256"
            },
            {
              "internalType": "uint256",
              "name": "price",
              "type": "uint256"
            },
            {
              "internalType": "address",
              "name": "seller",
              "type": "address"
            },
            {
              "internalType": "address",
              "name": "collection",
              "type": "address"
            }
          ],
          "internalType": "struct NFTMarketplace.Listing",
          "name": "",
          "type": "tuple"
        }
      ],
      "stateMutability": "view",
      "type": "function"
    },
    {
      "inputs": [
        {
          "internalType": "address",
          "name": "collection",
          "type": "address"
        },
        {
          "internalType": "uint256",
          "name": "page",
          "type": "uint256"
        }
      ],
      "name": "getListingsByNFTContract",
      "outputs": [
        {
          "components": [
            {
              "internalType": "uint256",
              "name": "tokenId",
              "type": "uint256"
            },
            {
              "internalType": "uint256",
              "name": "price",
              "type": "uint256"
            },
            {
              "internalType": "address",
              "name": "seller",
              "type": "address"
            },
            {
              "internalType": "address",
              "name": "collection",
              "type": "address"
            }
          ],
          "internalType": "struct NFTMarketplace.Listing[]",
          "name": "",
          "type": "tuple[]"
        }
      ],
      "stateMutability": "view",
      "type": "function"
    },
    {
      "inputs": [
        {
          "internalType": "address",
          "name": "seller",
          "type": "address"
        },
        {
          "internalType": "uint256",
          "name": "page",
          "type": "uint256"
        }
      ],
      "name": "getListingsBySeller",
      "outputs": [
        {
          "components": [
            {
              "internalType": "uint256",
              "name": "tokenId",
              "type": "uint256"
            },
            {
              "internalType": "uint256",
              "name": "price",
              "type": "uint256"
            },
            {
              "internalType": "address",
              "name": "seller",
              "type": "address"
            },
            {
              "internalType": "address",
              "name": "collection",
              "type": "address"
            }
          ],
          "internalType": "struct NFTMarketplace.Listing[]",
          "name": "",
          "type": "tuple[]"
        }
      ],
      "stateMutability": "view",
      "type": "function"
    },
    {
      "inputs": [
        {
          "internalType": "address",
          "name": "collection",
          "type": "address"
        },
        {
          "internalType": "uint256",
          "name": "tokenId",
          "type": "uint256"
        }
      ],
      "name": "isTokenListed",
      "outputs": [
        {
          "internalType": "bool",
          "name": "",
          "type": "bool"
        }
      ],
      "stateMutability": "view",
      "type": "function"
    },
    {
      "inputs": [
        {
          "internalType": "uint256",
          "name": "tokenId",
          "type": "uint256"
        },
        {
          "internalType": "uint256",
          "name": "price",
          "type": "uint256"
        },
        {
          "internalType": "address",
          "name": "collection",
          "type": "address"
        }
      ],
      "name": "listNFT",
      "outputs": [],
      "stateMutability": "nonpayable",
      "type": "function"
    },
    {
      "inputs": [
        {
          "internalType": "bytes32",
          "name": "",
          "type": "bytes32"
        }
      ],
      "name": "listings",
      "outputs": [
        {
          "internalType": "uint256",
          "name": "tokenId",
          "type": "uint256"
        },
        {
          "internalType": "uint256",
          "name": "price",
          "type": "uint256"
        },
        {
          "internalType": "address",
          "name": "seller",
          "type": "address"
        },
        {
          "internalType": "address",
          "name": "collection",
          "type": "address"
        }
      ],
      "stateMutability": "view",
      "type": "function"
    },
    {
      "inputs": [
        {
          "internalType": "uint256",
          "name": "",
          "type": "uint256"
        }
      ],
      "name": "listingsKeys",
      "outputs": [
        {
          "internalType": "bytes32",
          "name": "",
          "type": "bytes32"
        }
      ],
      "stateMutability": "view",
      "type": "function"
    },
    {
      "inputs": [],
      "name": "owner",
      "outputs": [
        {
          "internalType": "address",
          "name": "",
          "type": "address"
        }
      ],
      "stateMutability": "view",
      "type": "function"
    },
    {
      "inputs": [],
      "name": "paused",
      "outputs": [
        {
          "internalType": "bool",
          "name": "",
          "type": "bool"
        }
      ],
      "stateMutability": "view",
      "type": "function"
    },
    {
      "inputs": [
        {
          "internalType": "uint256",
          "name": "index",
          "type": "uint256"
        }
      ],
      "name": "payee",
      "outputs": [
        {
          "internalType": "address",
          "name": "",
          "type": "address"
        }
      ],
      "stateMutability": "view",
      "type": "function"
    },
    {
      "inputs": [
        {
          "internalType": "address",
          "name": "account",
          "type": "address"
        }
      ],
      "name": "releasable",
      "outputs": [
        {
          "internalType": "uint256",
          "name": "",
          "type": "uint256"
        }
      ],
      "stateMutability": "view",
      "type": "function"
    },
    {
      "inputs": [
        {
          "internalType": "contract IERC20",
          "name": "token",
          "type": "address"
        },
        {
          "internalType": "address",
          "name": "account",
          "type": "address"
        }
      ],
      "name": "releasable",
      "outputs": [
        {
          "internalType": "uint256",
          "name": "",
          "type": "uint256"
        }
      ],
      "stateMutability": "view",
      "type": "function"
    },
    {
      "inputs": [
        {
          "internalType": "address payable",
          "name": "account",
          "type": "address"
        }
      ],
      "name": "release",
      "outputs": [],
      "stateMutability": "nonpayable",
      "type": "function"
    },
    {
      "inputs": [
        {
          "internalType": "contract IERC20",
          "name": "token",
          "type": "address"
        },
        {
          "internalType": "address",
          "name": "account",
          "type": "address"
        }
      ],
      "name": "release",
      "outputs": [],
      "stateMutability": "nonpayable",
      "type": "function"
    },
    {
      "inputs": [
        {
          "internalType": "contract IERC20",
          "name": "token",
          "type": "address"
        },
        {
          "internalType": "address",
          "name": "account",
          "type": "address"
        }
      ],
      "name": "released",
      "outputs": [
        {
          "internalType": "uint256",
          "name": "",
          "type": "uint256"
        }
      ],
      "stateMutability": "view",
      "type": "function"
    },
    {
      "inputs": [
        {
          "internalType": "address",
          "name": "account",
          "type": "address"
        }
      ],
      "name": "released",
      "outputs": [
        {
          "internalType": "uint256",
          "name": "",
          "type": "uint256"
        }
      ],
      "stateMutability": "view",
      "type": "function"
    },
    {
      "inputs": [],
      "name": "renounceOwnership",
      "outputs": [],
      "stateMutability": "nonpayable",
      "type": "function"
    },
    {
      "inputs": [
        {
          "internalType": "address",
          "name": "account",
          "type": "address"
        }
      ],
      "name": "shares",
      "outputs": [
        {
          "internalType": "uint256",
          "name": "",
          "type": "uint256"
        }
      ],
      "stateMutability": "view",
      "type": "function"
    },
    {
      "inputs": [
        {
          "internalType": "contract IERC20",
          "name": "token",
          "type": "address"
        }
      ],
      "name": "totalReleased",
      "outputs": [
        {
          "internalType": "uint256",
          "name": "",
          "type": "uint256"
        }
      ],
      "stateMutability": "view",
      "type": "function"
    },
    {
      "inputs": [],
      "name": "totalReleased",
      "outputs": [
        {
          "internalType": "uint256",
          "name": "",
          "type": "uint256"
        }
      ],
      "stateMutability": "view",
      "type": "function"
    },
    {
      "inputs": [],
      "name": "totalShares",
      "outputs": [
        {
          "internalType": "uint256",
          "name": "",
          "type": "uint256"
        }
      ],
      "stateMutability": "view",
      "type": "function"
    },
    {
      "inputs": [
        {
          "internalType": "address",
          "name": "newOwner",
          "type": "address"
        }
      ],
      "name": "transferOwnership",
      "outputs": [],
      "stateMutability": "nonpayable",
      "type": "function"
    },
    {
      "stateMutability": "payable",
      "type": "receive"
    }
  ],
  "bytecode": "0x60806040523480156200001157600080fd5b5060405162006d7b38038062006d7b8339818101604052810190620000379190620007a3565b8282620000596200004d6200032b60201b60201c565b6200033360201b60201c565b600180819055508051825114620000a7576040517f08c379a00000000000000000000000000000000000000000000000000000000081526004016200009e9062000a0c565b60405180910390fd5b6000825111620000ee576040517f08c379a0000000000000000000000000000000000000000000000000000000008152600401620000e59062000a94565b60405180910390fd5b60005b8251811015620001a5576200018f83828151811062000139577f4e487b7100000000000000000000000000000000000000000000000000000000600052603260045260246000fd5b60200260200101518383815181106200017b577f4e487b7100000000000000000000000000000000000000000000000000000000600052603260045260246000fd5b6020026020010151620003f760201b60201c565b80806200019c9062000c41565b915050620000f1565b5050506000600960006101000a81548160ff02191690831515021790555060008351116200020a576040517f08c379a0000000000000000000000000000000000000000000000000000000008152600401620002019062000a50565b60405180910390fd5b815183511462000251576040517f08c379a0000000000000000000000000000000000000000000000000000000008152600401620002489062000a2e565b60405180910390fd5b600a81111562000298576040517f08c379a00000000000000000000000000000000000000000000000000000000081526004016200028f90620009ea565b60405180910390fd5b83600c60006101000a81548173ffffffffffffffffffffffffffffffffffffffff021916908373ffffffffffffffffffffffffffffffffffffffff16021790555083600b60006101000a81548173ffffffffffffffffffffffffffffffffffffffff021916908373ffffffffffffffffffffffffffffffffffffffff16021790555080600a819055505050505062000f12565b600033905090565b60008060009054906101000a900473ffffffffffffffffffffffffffffffffffffffff169050816000806101000a81548173ffffffffffffffffffffffffffffffffffffffff021916908373ffffffffffffffffffffffffffffffffffffffff1602179055508173ffffffffffffffffffffffffffffffffffffffff168173ffffffffffffffffffffffffffffffffffffffff167f8be0079c531659141344cd1fd0a4f28419497f9722a3daafe3b4186f6b6457e060405160405180910390a35050565b600073ffffffffffffffffffffffffffffffffffffffff168273ffffffffffffffffffffffffffffffffffffffff1614156200046a576040517f08c379a00000000000000000000000000000000000000000000000000000000081526004016200046190620009c8565b60405180910390fd5b60008111620004b0576040517f08c379a0000000000000000000000000000000000000000000000000000000008152600401620004a79062000ab6565b60405180910390fd5b6000600460008473ffffffffffffffffffffffffffffffffffffffff1673ffffffffffffffffffffffffffffffffffffffff168152602001908152602001600020541462000535576040517f08c379a00000000000000000000000000000000000000000000000000000000081526004016200052c9062000a72565b60405180910390fd5b6006829080600181540180825580915050600190039060005260206000200160009091909190916101000a81548173ffffffffffffffffffffffffffffffffffffffff021916908373ffffffffffffffffffffffffffffffffffffffff16021790555080600460008473ffffffffffffffffffffffffffffffffffffffff1673ffffffffffffffffffffffffffffffffffffffff1681526020019081526020016000208190555080600254620005ec919062000b70565b6002819055507f40c340f65e17194d14ddddb073d3c9f888e3cb52b5aae0c6c7706b4fbc905fac8282604051620006259291906200099b565b60405180910390a15050565b600062000648620006428462000b01565b62000ad8565b905080838252602082019050828560208602820111156200066857600080fd5b60005b858110156200069c57816200068188826200071b565b8452602084019350602083019250506001810190506200066b565b5050509392505050565b6000620006bd620006b78462000b30565b62000ad8565b90508083825260208201905082856020860282011115620006dd57600080fd5b60005b85811015620007115781620006f688826200078c565b845260208401935060208301925050600181019050620006e0565b5050509392505050565b6000815190506200072c8162000ede565b92915050565b600082601f8301126200074457600080fd5b81516200075684826020860162000631565b91505092915050565b600082601f8301126200077157600080fd5b815162000783848260208601620006a6565b91505092915050565b6000815190506200079d8162000ef8565b92915050565b60008060008060808587031215620007ba57600080fd5b6000620007ca878288016200071b565b945050602085015167ffffffffffffffff811115620007e857600080fd5b620007f68782880162000732565b935050604085015167ffffffffffffffff8111156200081457600080fd5b62000822878288016200075f565b925050606062000835878288016200078c565b91505092959194509250565b6200084c8162000bcd565b82525050565b600062000861602c8362000b5f565b91506200086e8262000cfe565b604082019050919050565b600062000888601f8362000b5f565b9150620008958262000d4d565b602082019050919050565b6000620008af60328362000b5f565b9150620008bc8262000d76565b604082019050919050565b6000620008d660238362000b5f565b9150620008e38262000dc5565b604082019050919050565b6000620008fd601e8362000b5f565b91506200090a8262000e14565b602082019050919050565b600062000924602b8362000b5f565b9150620009318262000e3d565b604082019050919050565b60006200094b601a8362000b5f565b9150620009588262000e8c565b602082019050919050565b600062000972601d8362000b5f565b91506200097f8262000eb5565b602082019050919050565b620009958162000c01565b82525050565b6000604082019050620009b2600083018562000841565b620009c160208301846200098a565b9392505050565b60006020820190508181036000830152620009e38162000852565b9050919050565b6000602082019050818103600083015262000a058162000879565b9050919050565b6000602082019050818103600083015262000a2781620008a0565b9050919050565b6000602082019050818103600083015262000a4981620008c7565b9050919050565b6000602082019050818103600083015262000a6b81620008ee565b9050919050565b6000602082019050818103600083015262000a8d8162000915565b9050919050565b6000602082019050818103600083015262000aaf816200093c565b9050919050565b6000602082019050818103600083015262000ad18162000963565b9050919050565b600062000ae462000af7565b905062000af2828262000c0b565b919050565b6000604051905090565b600067ffffffffffffffff82111562000b1f5762000b1e62000cbe565b5b602082029050602081019050919050565b600067ffffffffffffffff82111562000b4e5762000b4d62000cbe565b5b602082029050602081019050919050565b600082825260208201905092915050565b600062000b7d8262000c01565b915062000b8a8362000c01565b9250827fffffffffffffffffffffffffffffffffffffffffffffffffffffffffffffffff0382111562000bc25762000bc162000c8f565b5b828201905092915050565b600062000bda8262000be1565b9050919050565b600073ffffffffffffffffffffffffffffffffffffffff82169050919050565b6000819050919050565b62000c168262000ced565b810181811067ffffffffffffffff8211171562000c385762000c3762000cbe565b5b80604052505050565b600062000c4e8262000c01565b91507fffffffffffffffffffffffffffffffffffffffffffffffffffffffffffffffff82141562000c845762000c8362000c8f565b5b600182019050919050565b7f4e487b7100000000000000000000000000000000000000000000000000000000600052601160045260246000fd5b7f4e487b7100000000000000000000000000000000000000000000000000000000600052604160045260246000fd5b6000601f19601f8301169050919050565b7f5061796d656e7453706c69747465723a206163636f756e74206973207468652060008201527f7a65726f20616464726573730000000000000000000000000000000000000000602082015250565b7f4d6178696d756d2025206f6620726f79616c7469657320657865656464656400600082015250565b7f5061796d656e7453706c69747465723a2070617965657320616e64207368617260008201527f6573206c656e677468206d69736d617463680000000000000000000000000000602082015250565b7f50617965657320616e6420736861726573206c656e677468206d757374206d6160008201527f7463680000000000000000000000000000000000000000000000000000000000602082015250565b7f4174206c65617374206f6e652070617965652069732072657175697265640000600082015250565b7f5061796d656e7453706c69747465723a206163636f756e7420616c726561647960008201527f2068617320736861726573000000000000000000000000000000000000000000602082015250565b7f5061796d656e7453706c69747465723a206e6f20706179656573000000000000600082015250565b7f5061796d656e7453706c69747465723a20736861726573206172652030000000600082015250565b62000ee98162000bcd565b811462000ef557600080fd5b50565b62000f038162000c01565b811462000f0f57600080fd5b50565b615e598062000f226000396000f3fe6080604052600436106101c65760003560e01c80639852595c116100f7578063c4f85af711610095578063f193a6cf11610064578063f193a6cf146106f8578063f2fde38b14610735578063f4b483571461075e578063fad03b801461079b5761020d565b8063c4f85af714610637578063ce7c2ac214610653578063d79779b214610690578063e33b7de3146106cd5761020d565b8063a82ba76f116100d1578063a82ba76f14610573578063ad9f20a61461058f578063c18b8db4146105ba578063c45ac050146105fa5761020d565b80639852595c146104d0578063a17a70941461050d578063a3f8eace146105365761020d565b80634f99b10411610164578063715018a61161013e578063715018a6146104145780637e5c09241461042b5780638b83209b146104685780638da5cb5b146104a55761020d565b80634f99b1041461036f5780635471b47a146103ac5780635c975abb146103e95761020d565b80633a98ef39116101a05780633a98ef39146102a1578063406072a9146102cc57806348b75044146103095780634d2f6503146103325761020d565b806302998cf31461021257806314cadc701461023b57806319165587146102785761020d565b3661020d577f6ef95f06320e7a25a04a175ca677b7052bdd97131872c2192525a629f51be7706101f46107d8565b34604051610203929190614c62565b60405180910390a1005b600080fd5b34801561021e57600080fd5b5061023960048036038101906102349190614440565b6107e0565b005b34801561024757600080fd5b50610262600480360381019061025d9190614322565b610eda565b60405161026f9190614c8b565b60405180910390f35b34801561028457600080fd5b5061029f600480360381019061029a9190614189565b6112b6565b005b3480156102ad57600080fd5b506102b6611436565b6040516102c391906150dd565b60405180910390f35b3480156102d857600080fd5b506102f360048036038101906102ee91906142e6565b611440565b60405161030091906150dd565b60405180910390f35b34801561031557600080fd5b50610330600480360381019061032b91906142e6565b6114c7565b005b34801561033e57600080fd5b5061035960048036038101906103549190614374565b6116db565b60405161036691906150c2565b60405180910390f35b34801561037b57600080fd5b50610396600480360381019061039191906141b2565b61187e565b6040516103a39190614c8b565b60405180910390f35b3480156103b857600080fd5b506103d360048036038101906103ce91906141b2565b611c45565b6040516103e09190614ccf565b60405180910390f35b3480156103f557600080fd5b506103fe611cc4565b60405161040b9190614ccf565b60405180910390f35b34801561042057600080fd5b50610429611cdb565b005b34801561043757600080fd5b50610452600480360381019061044d919061448f565b611cef565b60405161045f9190614cad565b60405180910390f35b34801561047457600080fd5b5061048f600480360381019061048a9190614322565b6120fd565b60405161049c9190614be7565b60405180910390f35b3480156104b157600080fd5b506104ba61216b565b6040516104c79190614be7565b60405180910390f35b3480156104dc57600080fd5b506104f760048036038101906104f29190614137565b612194565b60405161050491906150dd565b60405180910390f35b34801561051957600080fd5b50610534600480360381019061052f91906141b2565b6121dd565b005b34801561054257600080fd5b5061055d60048036038101906105589190614137565b61254e565b60405161056a91906150dd565b60405180910390f35b61058d600480360381019061058891906141b2565b612581565b005b34801561059b57600080fd5b506105a4612e2e565b6040516105b191906150dd565b60405180910390f35b3480156105c657600080fd5b506105e160048036038101906105dc9190614294565b612e39565b6040516105f19493929190615196565b60405180910390f35b34801561060657600080fd5b50610621600480360381019061061c91906142e6565b612ea9565b60405161062e91906150dd565b60405180910390f35b610651600480360381019061064c91906143ec565b612f67565b005b34801561065f57600080fd5b5061067a60048036038101906106759190614137565b6131e7565b60405161068791906150dd565b60405180910390f35b34801561069c57600080fd5b506106b760048036038101906106b291906142bd565b613230565b6040516106c491906150dd565b60405180910390f35b3480156106d957600080fd5b506106e2613279565b6040516106ef91906150dd565b60405180910390f35b34801561070457600080fd5b5061071f600480360381019061071a9190614322565b613283565b60405161072c9190614cea565b60405180910390f35b34801561074157600080fd5b5061075c60048036038101906107579190614137565b6132a7565b005b34801561076a57600080fd5b50610785600480360381019061078091906141b2565b61332b565b6040516107929190614cea565b60405180910390f35b3480156107a757600080fd5b506107c260048036038101906107bd91906141b2565b61335e565b6040516107cf9190614c8b565b60405180910390f35b600033905090565b6107e861377b565b6107f06137cb565b600081905060008290508073ffffffffffffffffffffffffffffffffffffffff166301ffc9a77f80ac58cd000000000000000000000000000000000000000000000000000000006040518263ffffffff1660e01b81526004016108539190614d05565b60206040518083038186803b15801561086b57600080fd5b505afa15801561087f573d6000803e3d6000fd5b505050506040513d601f19601f820116820180604052508101906108a3919061426b565b6108e2576040517f08c379a00000000000000000000000000000000000000000000000000000000081526004016108d990614d62565b60405180910390fd5b6108ec8386611c45565b1561092c576040517f08c379a000000000000000000000000000000000000000000000000000000000815260040161092390615022565b60405180910390fd5b66038d7ea4c68000841015610976576040517f08c379a000000000000000000000000000000000000000000000000000000000815260040161096d90614f42565b60405180910390fd5b3373ffffffffffffffffffffffffffffffffffffffff168273ffffffffffffffffffffffffffffffffffffffff16636352211e876040518263ffffffff1660e01b81526004016109c691906150dd565b60206040518083038186803b1580156109de57600080fd5b505afa1580156109f2573d6000803e3d6000fd5b505050506040513d601f19601f82011682018060405250810190610a169190614160565b73ffffffffffffffffffffffffffffffffffffffff161480610ade5750600b60009054906101000a900473ffffffffffffffffffffffffffffffffffffffff1673ffffffffffffffffffffffffffffffffffffffff163373ffffffffffffffffffffffffffffffffffffffff16148015610add5750600b60009054906101000a900473ffffffffffffffffffffffffffffffffffffffff1673ffffffffffffffffffffffffffffffffffffffff168373ffffffffffffffffffffffffffffffffffffffff16145b5b610b1d576040517f08c379a0000000000000000000000000000000000000000000000000000000008152600401610b1490614ee2565b60405180910390fd5b8073ffffffffffffffffffffffffffffffffffffffff166301ffc9a77f2a55205a000000000000000000000000000000000000000000000000000000006040518263ffffffff1660e01b8152600401610b769190614d05565b60206040518083038186803b158015610b8e57600080fd5b505afa158015610ba2573d6000803e3d6000fd5b505050506040513d601f19601f82011682018060405250810190610bc6919061426b565b610c05576040517f08c379a0000000000000000000000000000000000000000000000000000000008152600401610bfc906150a2565b60405180910390fd5b6000610c11848761332b565b905060405180608001604052808781526020018681526020018473ffffffffffffffffffffffffffffffffffffffff16636352211e896040518263ffffffff1660e01b8152600401610c6391906150dd565b60206040518083038186803b158015610c7b57600080fd5b505afa158015610c8f573d6000803e3d6000fd5b505050506040513d601f19601f82011682018060405250810190610cb39190614160565b73ffffffffffffffffffffffffffffffffffffffff1681526020018573ffffffffffffffffffffffffffffffffffffffff16815250600e6000838152602001908152602001600020600082015181600001556020820151816001015560408201518160020160006101000a81548173ffffffffffffffffffffffffffffffffffffffff021916908373ffffffffffffffffffffffffffffffffffffffff16021790555060608201518160030160006101000a81548173ffffffffffffffffffffffffffffffffffffffff021916908373ffffffffffffffffffffffffffffffffffffffff1602179055509050508273ffffffffffffffffffffffffffffffffffffffff166323b872dd8473ffffffffffffffffffffffffffffffffffffffff16636352211e896040518263ffffffff1660e01b8152600401610df591906150dd565b60206040518083038186803b158015610e0d57600080fd5b505afa158015610e21573d6000803e3d6000fd5b505050506040513d601f19601f82011682018060405250810190610e459190614160565b30896040518463ffffffff1660e01b8152600401610e6593929190614c2b565b600060405180830381600087803b158015610e7f57600080fd5b505af1158015610e93573d6000803e3d6000fd5b50505050610ea1600d613815565b600f819080600181540180825580915050600190039060005260206000200160009091909190915055505050610ed561382b565b505050565b6060600080610ef2610eec600d613834565b85613842565b9150915060008282610f049190615419565b67ffffffffffffffff811115610f43577f4e487b7100000000000000000000000000000000000000000000000000000000600052604160045260246000fd5b604051908082528060200260200182016040528015610f7c57816020015b610f69613f3d565b815260200190600190039081610f615790505b5090506000808490505b83811015611186576000600f8281548110610fca577f4e487b7100000000000000000000000000000000000000000000000000000000600052603260045260246000fd5b90600052602060002001549050600073ffffffffffffffffffffffffffffffffffffffff16600e600083815260200190815260200160002060020160009054906101000a900473ffffffffffffffffffffffffffffffffffffffff1673ffffffffffffffffffffffffffffffffffffffff161461117257600e600082815260200190815260200160002060405180608001604052908160008201548152602001600182015481526020016002820160009054906101000a900473ffffffffffffffffffffffffffffffffffffffff1673ffffffffffffffffffffffffffffffffffffffff1673ffffffffffffffffffffffffffffffffffffffff1681526020016003820160009054906101000a900473ffffffffffffffffffffffffffffffffffffffff1673ffffffffffffffffffffffffffffffffffffffff1673ffffffffffffffffffffffffffffffffffffffff1681525050848481518110611158577f4e487b7100000000000000000000000000000000000000000000000000000000600052603260045260246000fd5b6020026020010181905250828061116e90615598565b9350505b50808061117e90615598565b915050610f86565b5060008167ffffffffffffffff8111156111c9577f4e487b7100000000000000000000000000000000000000000000000000000000600052604160045260246000fd5b60405190808252806020026020018201604052801561120257816020015b6111ef613f3d565b8152602001906001900390816111e75790505b50905060005b828110156112a857838181518110611249577f4e487b7100000000000000000000000000000000000000000000000000000000600052603260045260246000fd5b602002602001015182828151811061128a577f4e487b7100000000000000000000000000000000000000000000000000000000600052603260045260246000fd5b602002602001018190525080806112a090615598565b915050611208565b508095505050505050919050565b6000600460008373ffffffffffffffffffffffffffffffffffffffff1673ffffffffffffffffffffffffffffffffffffffff1681526020019081526020016000205411611338576040517f08c379a000000000000000000000000000000000000000000000000000000000815260040161132f90614e22565b60405180910390fd5b60006113438261254e565b90506000811415611389576040517f08c379a000000000000000000000000000000000000000000000000000000000815260040161138090614ea2565b60405180910390fd5b806003600082825461139b9190615338565b9250508190555080600560008473ffffffffffffffffffffffffffffffffffffffff1673ffffffffffffffffffffffffffffffffffffffff168152602001908152602001600020600082825401925050819055506113f98282613921565b7fdf20fd1e76bc69d672e4814fafb2c449bba3a5369d8359adf9e05e6fde87b056828260405161142a929190614c02565b60405180910390a15050565b6000600254905090565b6000600860008473ffffffffffffffffffffffffffffffffffffffff1673ffffffffffffffffffffffffffffffffffffffff16815260200190815260200160002060008373ffffffffffffffffffffffffffffffffffffffff1673ffffffffffffffffffffffffffffffffffffffff16815260200190815260200160002054905092915050565b6000600460008373ffffffffffffffffffffffffffffffffffffffff1673ffffffffffffffffffffffffffffffffffffffff1681526020019081526020016000205411611549576040517f08c379a000000000000000000000000000000000000000000000000000000000815260040161154090614e22565b60405180910390fd5b60006115558383612ea9565b9050600081141561159b576040517f08c379a000000000000000000000000000000000000000000000000000000000815260040161159290614ea2565b60405180910390fd5b80600760008573ffffffffffffffffffffffffffffffffffffffff1673ffffffffffffffffffffffffffffffffffffffff16815260200190815260200160002060008282546115ea9190615338565b9250508190555080600860008573ffffffffffffffffffffffffffffffffffffffff1673ffffffffffffffffffffffffffffffffffffffff16815260200190815260200160002060008473ffffffffffffffffffffffffffffffffffffffff1673ffffffffffffffffffffffffffffffffffffffff16815260200190815260200160002060008282540192505081905550611686838383613a15565b8273ffffffffffffffffffffffffffffffffffffffff167f3be5b7a71e84ed12875d241991c70855ac5817d847039e17a9d895c1ceb0f18a83836040516116ce929190614c62565b60405180910390a2505050565b6116e3613f3d565b60006116ef838561332b565b9050600073ffffffffffffffffffffffffffffffffffffffff16600e600083815260200190815260200160002060020160009054906101000a900473ffffffffffffffffffffffffffffffffffffffff1673ffffffffffffffffffffffffffffffffffffffff161415611797576040517f08c379a000000000000000000000000000000000000000000000000000000000815260040161178e90614de2565b60405180910390fd5b600e600082815260200190815260200160002060405180608001604052908160008201548152602001600182015481526020016002820160009054906101000a900473ffffffffffffffffffffffffffffffffffffffff1673ffffffffffffffffffffffffffffffffffffffff1673ffffffffffffffffffffffffffffffffffffffff1681526020016003820160009054906101000a900473ffffffffffffffffffffffffffffffffffffffff1673ffffffffffffffffffffffffffffffffffffffff1673ffffffffffffffffffffffffffffffffffffffff168152505091505092915050565b6060600080611892600f8054905085613842565b91509150600082826118a49190615419565b67ffffffffffffffff8111156118e3577f4e487b7100000000000000000000000000000000000000000000000000000000600052604160045260246000fd5b60405190808252806020026020018201604052801561191c57816020015b611909613f3d565b8152602001906001900390816119015790505b5090506000808490505b83811015611b14576000600e6000600f848154811061196e577f4e487b7100000000000000000000000000000000000000000000000000000000600052603260045260246000fd5b9060005260206000200154815260200190815260200160002090508873ffffffffffffffffffffffffffffffffffffffff168160020160009054906101000a900473ffffffffffffffffffffffffffffffffffffffff1673ffffffffffffffffffffffffffffffffffffffff161415611b00578060405180608001604052908160008201548152602001600182015481526020016002820160009054906101000a900473ffffffffffffffffffffffffffffffffffffffff1673ffffffffffffffffffffffffffffffffffffffff1673ffffffffffffffffffffffffffffffffffffffff1681526020016003820160009054906101000a900473ffffffffffffffffffffffffffffffffffffffff1673ffffffffffffffffffffffffffffffffffffffff1673ffffffffffffffffffffffffffffffffffffffff1681525050848481518110611ae6577f4e487b7100000000000000000000000000000000000000000000000000000000600052603260045260246000fd5b60200260200101819052508280611afc90615598565b9350505b508080611b0c90615598565b915050611926565b5060008167ffffffffffffffff811115611b57577f4e487b7100000000000000000000000000000000000000000000000000000000600052604160045260246000fd5b604051908082528060200260200182016040528015611b9057816020015b611b7d613f3d565b815260200190600190039081611b755790505b50905060005b82811015611c3657838181518110611bd7577f4e487b7100000000000000000000000000000000000000000000000000000000600052603260045260246000fd5b6020026020010151828281518110611c18577f4e487b7100000000000000000000000000000000000000000000000000000000600052603260045260246000fd5b60200260200101819052508080611c2e90615598565b915050611b96565b50809550505050505092915050565b600080611c52848461332b565b9050600073ffffffffffffffffffffffffffffffffffffffff16600e600083815260200190815260200160002060020160009054906101000a900473ffffffffffffffffffffffffffffffffffffffff1673ffffffffffffffffffffffffffffffffffffffff16141591505092915050565b6000600960009054906101000a900460ff16905090565b611ce3613a9b565b611ced6000613b19565b565b606060008367ffffffffffffffff811115611d33577f4e487b7100000000000000000000000000000000000000000000000000000000600052604160045260246000fd5b604051908082528060200260200182016040528015611d615781602001602082028036833780820191505090505b509050600080600c60009054906101000a900473ffffffffffffffffffffffffffffffffffffffff1673ffffffffffffffffffffffffffffffffffffffff1663d08b28ea8989896040518463ffffffff1660e01b8152600401611dc6939291906151db565b60006040518083038186803b158015611dde57600080fd5b505afa158015611df2573d6000803e3d6000fd5b505050506040513d6000823e3d601f19601f82011682018060405250810190611e1b919061422a565b9050600081511415611ea157600067ffffffffffffffff811115611e68577f4e487b7100000000000000000000000000000000000000000000000000000000600052604160045260246000fd5b604051908082528060200260200182016040528015611e965781602001602082028036833780820191505090505b5093505050506120f5565b60005b8151811015611fd4576000828281518110611ee8577f4e487b7100000000000000000000000000000000000000000000000000000000600052603260045260246000fd5b602002602001015190506000611efe888361332b565b9050600073ffffffffffffffffffffffffffffffffffffffff16600e600083815260200190815260200160002060020160009054906101000a900473ffffffffffffffffffffffffffffffffffffffff1673ffffffffffffffffffffffffffffffffffffffff1614611fbf5781868681518110611fa4577f4e487b7100000000000000000000000000000000000000000000000000000000600052603260045260246000fd5b6020026020010181815250508480611fbb90615598565b9550505b50508080611fcc90615598565b915050611ea4565b5060008267ffffffffffffffff811115612017577f4e487b7100000000000000000000000000000000000000000000000000000000600052604160045260246000fd5b6040519080825280602002602001820160405280156120455781602001602082028036833780820191505090505b50905060005b838110156120ec5784818151811061208c577f4e487b7100000000000000000000000000000000000000000000000000000000600052603260045260246000fd5b60200260200101518282815181106120cd577f4e487b7100000000000000000000000000000000000000000000000000000000600052603260045260246000fd5b60200260200101818152505080806120e490615598565b91505061204b565b50809450505050505b949350505050565b600060068281548110612139577f4e487b7100000000000000000000000000000000000000000000000000000000600052603260045260246000fd5b9060005260206000200160009054906101000a900473ffffffffffffffffffffffffffffffffffffffff169050919050565b60008060009054906101000a900473ffffffffffffffffffffffffffffffffffffffff16905090565b6000600560008373ffffffffffffffffffffffffffffffffffffffff1673ffffffffffffffffffffffffffffffffffffffff168152602001908152602001600020549050919050565b6121e561377b565b6121ed6137cb565b60006121f9838361332b565b90506000600e600083815260200190815260200160002090503373ffffffffffffffffffffffffffffffffffffffff168160020160009054906101000a900473ffffffffffffffffffffffffffffffffffffffff1673ffffffffffffffffffffffffffffffffffffffff16146122a4576040517f08c379a000000000000000000000000000000000000000000000000000000000815260040161229b90614ee2565b60405180910390fd5b60008160030160009054906101000a900473ffffffffffffffffffffffffffffffffffffffff1690508073ffffffffffffffffffffffffffffffffffffffff166323b872dd308460020160009054906101000a900473ffffffffffffffffffffffffffffffffffffffff16876040518463ffffffff1660e01b815260040161232e93929190614c2b565b600060405180830381600087803b15801561234857600080fd5b505af115801561235c573d6000803e3d6000fd5b50505050600e600084815260200190815260200160002060008082016000905560018201600090556002820160006101000a81549073ffffffffffffffffffffffffffffffffffffffff02191690556003820160006101000a81549073ffffffffffffffffffffffffffffffffffffffff021916905550506123de600d613bdd565b60005b600f8054905081101561253e5783600f8281548110612429577f4e487b7100000000000000000000000000000000000000000000000000000000600052603260045260246000fd5b9060005260206000200154141561252b57600f6001600f8054905061244e9190615419565b81548110612485577f4e487b7100000000000000000000000000000000000000000000000000000000600052603260045260246000fd5b9060005260206000200154600f82815481106124ca577f4e487b7100000000000000000000000000000000000000000000000000000000600052603260045260246000fd5b9060005260206000200181905550600f805480612510577f4e487b7100000000000000000000000000000000000000000000000000000000600052603160045260246000fd5b6001900381819060005260206000200160009055905561253e565b808061253690615598565b9150506123e1565b5050505061254a61382b565b5050565b600080612559613279565b476125649190615338565b9050612579838261257486612194565b613c39565b915050919050565b61258961377b565b6125916137cb565b600061259d838361332b565b90506000600e60008381526020019081526020016000209050806001015434146125fc576040517f08c379a00000000000000000000000000000000000000000000000000000000081526004016125f390614fc2565b60405180910390fd5b3373ffffffffffffffffffffffffffffffffffffffff168160020160009054906101000a900473ffffffffffffffffffffffffffffffffffffffff1673ffffffffffffffffffffffffffffffffffffffff16141561268f576040517f08c379a000000000000000000000000000000000000000000000000000000000815260040161268690614f82565b60405180910390fd5b60008490508073ffffffffffffffffffffffffffffffffffffffff166301ffc9a77f80ac58cd000000000000000000000000000000000000000000000000000000006040518263ffffffff1660e01b81526004016126ed9190614d05565b60206040518083038186803b15801561270557600080fd5b505afa158015612719573d6000803e3d6000fd5b505050506040513d601f19601f8201168201806040525081019061273d919061426b565b61277c576040517f08c379a000000000000000000000000000000000000000000000000000000000815260040161277390614d62565b60405180910390fd5b8073ffffffffffffffffffffffffffffffffffffffff166301ffc9a77f2a55205a000000000000000000000000000000000000000000000000000000006040518263ffffffff1660e01b81526004016127d59190614d05565b60206040518083038186803b1580156127ed57600080fd5b505afa158015612801573d6000803e3d6000fd5b505050506040513d601f19601f82011682018060405250810190612825919061426b565b612864576040517f08c379a000000000000000000000000000000000000000000000000000000000815260040161285b90614ec2565b60405180910390fd5b600085905060008690506000808373ffffffffffffffffffffffffffffffffffffffff16632a55205a876000015488600101546040518363ffffffff1660e01b81526004016128b492919061516d565b604080518083038186803b1580156128cb57600080fd5b505afa1580156128df573d6000803e3d6000fd5b505050506040513d601f19601f8201168201806040525081019061290391906141ee565b9150915060006064600a54886001015461291d91906153bf565b612927919061538e565b9050600082826129379190615338565b90508088600101541015612980576040517f08c379a000000000000000000000000000000000000000000000000000000000815260040161297790614d42565b60405180910390fd5b60008189600101546129929190615419565b905060008960020160009054906101000a900473ffffffffffffffffffffffffffffffffffffffff1673ffffffffffffffffffffffffffffffffffffffff16826040516129de90614bd2565b60006040518083038185875af1925050503d8060008114612a1b576040519150601f19603f3d011682016040523d82523d6000602084013e612a20565b606091505b5050905080612a64576040517f08c379a0000000000000000000000000000000000000000000000000000000008152600401612a5b90614e02565b60405180910390fd5b60008673ffffffffffffffffffffffffffffffffffffffff1686604051612a8a90614bd2565b60006040518083038185875af1925050503d8060008114612ac7576040519150601f19603f3d011682016040523d82523d6000602084013e612acc565b606091505b5050905080612b10576040517f08c379a0000000000000000000000000000000000000000000000000000000008152600401612b0790614d82565b60405180910390fd5b8773ffffffffffffffffffffffffffffffffffffffff166323b872dd30338e600001546040518463ffffffff1660e01b8152600401612b5193929190614c2b565b600060405180830381600087803b158015612b6b57600080fd5b505af1158015612b7f573d6000803e3d6000fd5b50505050600e60008d815260200190815260200160002060008082016000905560018201600090556002820160006101000a81549073ffffffffffffffffffffffffffffffffffffffff02191690556003820160006101000a81549073ffffffffffffffffffffffffffffffffffffffff02191690555050612c01600d613bdd565b60005b600f80549050811015612d61578c600f8281548110612c4c577f4e487b7100000000000000000000000000000000000000000000000000000000600052603260045260246000fd5b90600052602060002001541415612d4e57600f6001600f80549050612c719190615419565b81548110612ca8577f4e487b7100000000000000000000000000000000000000000000000000000000600052603260045260246000fd5b9060005260206000200154600f8281548110612ced577f4e487b7100000000000000000000000000000000000000000000000000000000600052603260045260246000fd5b9060005260206000200181905550600f805480612d33577f4e487b7100000000000000000000000000000000000000000000000000000000600052603160045260246000fd5b60019003818190600052602060002001600090559055612d61565b8080612d5990615598565b915050612c04565b503373ffffffffffffffffffffffffffffffffffffffff168b60020160009054906101000a900473ffffffffffffffffffffffffffffffffffffffff1673ffffffffffffffffffffffffffffffffffffffff168e7f4d26e6707cfb0dd9d0e2aaaf04de4b0b4a388a1c760ed3b2976827015153a39e8e600101548f60030160009054906101000a900473ffffffffffffffffffffffffffffffffffffffff16604051612e0e9291906150f8565b60405180910390a4505050505050505050505050612e2a61382b565b5050565b66038d7ea4c6800081565b600e6020528060005260406000206000915090508060000154908060010154908060020160009054906101000a900473ffffffffffffffffffffffffffffffffffffffff16908060030160009054906101000a900473ffffffffffffffffffffffffffffffffffffffff16905084565b600080612eb584613230565b8473ffffffffffffffffffffffffffffffffffffffff166370a08231306040518263ffffffff1660e01b8152600401612eee9190614be7565b60206040518083038186803b158015612f0657600080fd5b505afa158015612f1a573d6000803e3d6000fd5b505050506040513d601f19601f82011682018060405250810190612f3e919061434b565b612f489190615338565b9050612f5e8382612f598787611440565b613c39565b91505092915050565b612f6f61377b565b612f776137cb565b60006064600a5434612f8991906153bf565b612f93919061538e565b9050803411612fd7576040517f08c379a0000000000000000000000000000000000000000000000000000000008152600401612fce90614fa2565b60405180910390fd5b600080600c60009054906101000a900473ffffffffffffffffffffffffffffffffffffffff1673ffffffffffffffffffffffffffffffffffffffff16636313a3e8863387346040518563ffffffff1660e01b815260040161303b9493929190615121565b6040805180830381600087803b15801561305457600080fd5b505af1158015613068573d6000803e3d6000fd5b505050506040513d601f19601f8201168201806040525081019061308c91906143b0565b915091506000833461309e9190615419565b905060008273ffffffffffffffffffffffffffffffffffffffff16826040516130c690614bd2565b60006040518083038185875af1925050503d8060008114613103576040519150601f19603f3d011682016040523d82523d6000602084013e613108565b606091505b505090508061314c576040517f08c379a000000000000000000000000000000000000000000000000000000000815260040161314390615002565b60405180910390fd5b3373ffffffffffffffffffffffffffffffffffffffff168373ffffffffffffffffffffffffffffffffffffffff16857f4d26e6707cfb0dd9d0e2aaaf04de4b0b4a388a1c760ed3b2976827015153a39e34600b60009054906101000a900473ffffffffffffffffffffffffffffffffffffffff166040516131ce9291906150f8565b60405180910390a450505050506131e361382b565b5050565b6000600460008373ffffffffffffffffffffffffffffffffffffffff1673ffffffffffffffffffffffffffffffffffffffff168152602001908152602001600020549050919050565b6000600760008373ffffffffffffffffffffffffffffffffffffffff1673ffffffffffffffffffffffffffffffffffffffff168152602001908152602001600020549050919050565b6000600354905090565b600f818154811061329357600080fd5b906000526020600020016000915090505481565b6132af613a9b565b600073ffffffffffffffffffffffffffffffffffffffff168173ffffffffffffffffffffffffffffffffffffffff16141561331f576040517f08c379a000000000000000000000000000000000000000000000000000000000815260040161331690614dc2565b60405180910390fd5b61332881613b19565b50565b60008282604051602001613340929190614b8f565b60405160208183030381529060405280519060200120905092915050565b6060600080613372600f8054905085613842565b91509150600082826133849190615419565b67ffffffffffffffff8111156133c3577f4e487b7100000000000000000000000000000000000000000000000000000000600052604160045260246000fd5b6040519080825280602002602001820160405280156133fc57816020015b6133e9613f3d565b8152602001906001900390816133e15790505b5090506000808490505b8381101561364a576000600e6000600f848154811061344e577f4e487b7100000000000000000000000000000000000000000000000000000000600052603260045260246000fd5b9060005260206000200154815260200190815260200160002090508873ffffffffffffffffffffffffffffffffffffffff168160030160009054906101000a900473ffffffffffffffffffffffffffffffffffffffff1673ffffffffffffffffffffffffffffffffffffffff16141561363657600e6000600f84815481106134ff577f4e487b7100000000000000000000000000000000000000000000000000000000600052603260045260246000fd5b9060005260206000200154815260200190815260200160002060405180608001604052908160008201548152602001600182015481526020016002820160009054906101000a900473ffffffffffffffffffffffffffffffffffffffff1673ffffffffffffffffffffffffffffffffffffffff1673ffffffffffffffffffffffffffffffffffffffff1681526020016003820160009054906101000a900473ffffffffffffffffffffffffffffffffffffffff1673ffffffffffffffffffffffffffffffffffffffff1673ffffffffffffffffffffffffffffffffffffffff168152505084848151811061361c577f4e487b7100000000000000000000000000000000000000000000000000000000600052603260045260246000fd5b6020026020010181905250828061363290615598565b9350505b50808061364290615598565b915050613406565b5060008167ffffffffffffffff81111561368d577f4e487b7100000000000000000000000000000000000000000000000000000000600052604160045260246000fd5b6040519080825280602002602001820160405280156136c657816020015b6136b3613f3d565b8152602001906001900390816136ab5790505b50905060005b8281101561376c5783818151811061370d577f4e487b7100000000000000000000000000000000000000000000000000000000600052603260045260246000fd5b602002602001015182828151811061374e577f4e487b7100000000000000000000000000000000000000000000000000000000600052603260045260246000fd5b6020026020010181905250808061376490615598565b9150506136cc565b50809550505050505092915050565b600260015414156137c1576040517f08c379a00000000000000000000000000000000000000000000000000000000081526004016137b890615082565b60405180910390fd5b6002600181905550565b6137d3611cc4565b15613813576040517f08c379a000000000000000000000000000000000000000000000000000000000815260040161380a90614f02565b60405180910390fd5b565b6001816000016000828254019250508190555050565b60018081905550565b600081600001549050919050565b60008060008311613888576040517f08c379a000000000000000000000000000000000000000000000000000000000815260040161387f90614f22565b60405180910390fd5b600060646001856138999190615419565b6138a391906153bf565b90506000856064836138b59190615338565b116138cc576064826138c79190615338565b6138ce565b855b9050818111613912576040517f08c379a000000000000000000000000000000000000000000000000000000000815260040161390990614f62565b60405180910390fd5b81819350935050509250929050565b80471015613964576040517f08c379a000000000000000000000000000000000000000000000000000000000815260040161395b90614e62565b60405180910390fd5b60008273ffffffffffffffffffffffffffffffffffffffff168260405161398a90614bd2565b60006040518083038185875af1925050503d80600081146139c7576040519150601f19603f3d011682016040523d82523d6000602084013e6139cc565b606091505b5050905080613a10576040517f08c379a0000000000000000000000000000000000000000000000000000000008152600401613a0790614e42565b60405180910390fd5b505050565b613a968363a9059cbb60e01b8484604051602401613a34929190614c62565b604051602081830303815290604052907bffffffffffffffffffffffffffffffffffffffffffffffffffffffff19166020820180517bffffffffffffffffffffffffffffffffffffffffffffffffffffffff8381831617835250505050613ca7565b505050565b613aa36107d8565b73ffffffffffffffffffffffffffffffffffffffff16613ac161216b565b73ffffffffffffffffffffffffffffffffffffffff1614613b17576040517f08c379a0000000000000000000000000000000000000000000000000000000008152600401613b0e90614fe2565b60405180910390fd5b565b60008060009054906101000a900473ffffffffffffffffffffffffffffffffffffffff169050816000806101000a81548173ffffffffffffffffffffffffffffffffffffffff021916908373ffffffffffffffffffffffffffffffffffffffff1602179055508173ffffffffffffffffffffffffffffffffffffffff168173ffffffffffffffffffffffffffffffffffffffff167f8be0079c531659141344cd1fd0a4f28419497f9722a3daafe3b4186f6b6457e060405160405180910390a35050565b60008160000154905060008111613c29576040517f08c379a0000000000000000000000000000000000000000000000000000000008152600401613c2090614da2565b60405180910390fd5b6001810382600001819055505050565b600081600254600460008773ffffffffffffffffffffffffffffffffffffffff1673ffffffffffffffffffffffffffffffffffffffff1681526020019081526020016000205485613c8a91906153bf565b613c94919061538e565b613c9e9190615419565b90509392505050565b6000613d09826040518060400160405280602081526020017f5361666545524332303a206c6f772d6c6576656c2063616c6c206661696c65648152508573ffffffffffffffffffffffffffffffffffffffff16613d6f9092919063ffffffff16565b9050600081511480613d2b575080806020019051810190613d2a919061426b565b5b613d6a576040517f08c379a0000000000000000000000000000000000000000000000000000000008152600401613d6190615062565b60405180910390fd5b505050565b6060613d7e8484600085613d87565b90509392505050565b606082471015613dcc576040517f08c379a0000000000000000000000000000000000000000000000000000000008152600401613dc390614e82565b60405180910390fd5b6000808673ffffffffffffffffffffffffffffffffffffffff168587604051613df59190614bbb565b60006040518083038185875af1925050503d8060008114613e32576040519150601f19603f3d011682016040523d82523d6000602084013e613e37565b606091505b5091509150613e4887838387613e54565b92505050949350505050565b60608315613eb757600083511415613eaf57613e6f85613eca565b613eae576040517f08c379a0000000000000000000000000000000000000000000000000000000008152600401613ea590615042565b60405180910390fd5b5b829050613ec2565b613ec18383613eed565b5b949350505050565b6000808273ffffffffffffffffffffffffffffffffffffffff163b119050919050565b600082511115613f005781518083602001fd5b806040517f08c379a0000000000000000000000000000000000000000000000000000000008152600401613f349190614d20565b60405180910390fd5b60405180608001604052806000815260200160008152602001600073ffffffffffffffffffffffffffffffffffffffff168152602001600073ffffffffffffffffffffffffffffffffffffffff1681525090565b6000613fa4613f9f84615237565b615212565b90508083825260208201905082856020860282011115613fc357600080fd5b60005b85811015613ff35781613fd98882614122565b845260208401935060208301925050600181019050613fc6565b5050509392505050565b600061401061400b84615263565b615212565b90508281526020810184848401111561402857600080fd5b614033848285615525565b509392505050565b60008135905061404a81615d99565b92915050565b60008151905061405f81615d99565b92915050565b60008135905061407481615db0565b92915050565b600082601f83011261408b57600080fd5b815161409b848260208601613f91565b91505092915050565b6000815190506140b381615dc7565b92915050565b6000813590506140c881615dde565b92915050565b6000813590506140dd81615df5565b92915050565b600082601f8301126140f457600080fd5b8135614104848260208601613ffd565b91505092915050565b60008135905061411c81615e0c565b92915050565b60008151905061413181615e0c565b92915050565b60006020828403121561414957600080fd5b60006141578482850161403b565b91505092915050565b60006020828403121561417257600080fd5b600061418084828501614050565b91505092915050565b60006020828403121561419b57600080fd5b60006141a984828501614065565b91505092915050565b600080604083850312156141c557600080fd5b60006141d38582860161403b565b92505060206141e48582860161410d565b9150509250929050565b6000806040838503121561420157600080fd5b600061420f85828601614050565b925050602061422085828601614122565b9150509250929050565b60006020828403121561423c57600080fd5b600082015167ffffffffffffffff81111561425657600080fd5b6142628482850161407a565b91505092915050565b60006020828403121561427d57600080fd5b600061428b848285016140a4565b91505092915050565b6000602082840312156142a657600080fd5b60006142b4848285016140b9565b91505092915050565b6000602082840312156142cf57600080fd5b60006142dd848285016140ce565b91505092915050565b600080604083850312156142f957600080fd5b6000614307858286016140ce565b92505060206143188582860161403b565b9150509250929050565b60006020828403121561433457600080fd5b60006143428482850161410d565b91505092915050565b60006020828403121561435d57600080fd5b600061436b84828501614122565b91505092915050565b6000806040838503121561438757600080fd5b60006143958582860161410d565b92505060206143a68582860161403b565b9150509250929050565b600080604083850312156143c357600080fd5b60006143d185828601614122565b92505060206143e285828601614050565b9150509250929050565b600080604083850312156143ff57600080fd5b600061440d8582860161410d565b925050602083013567ffffffffffffffff81111561442a57600080fd5b614436858286016140e3565b9150509250929050565b60008060006060848603121561445557600080fd5b60006144638682870161410d565b93505060206144748682870161410d565b92505060406144858682870161403b565b9150509250925092565b600080600080608085870312156144a557600080fd5b60006144b38782880161410d565b94505060206144c48782880161410d565b93505060406144d58782880161410d565b92505060606144e68782880161403b565b91505092959194509250565b60006144fe8383614ab0565b60808301905092915050565b60006145168383614b5a565b60208301905092915050565b61452b816154ef565b82525050565b61453a8161544d565b82525050565b6145498161544d565b82525050565b61456061455b8261544d565b6155e1565b82525050565b6000614571826152b4565b61457b81856152fa565b935061458683615294565b8060005b838110156145b757815161459e88826144f2565b97506145a9836152e0565b92505060018101905061458a565b5085935050505092915050565b60006145cf826152bf565b6145d9818561530b565b93506145e4836152a4565b8060005b838110156146155781516145fc888261450a565b9750614607836152ed565b9250506001810190506145e8565b5085935050505092915050565b61462b81615471565b82525050565b61463a8161547d565b82525050565b61464981615487565b82525050565b600061465a826152ca565b614664818561531c565b9350614674818560208601615534565b80840191505092915050565b600061468b826152d5565b6146958185615327565b93506146a5818560208601615534565b6146ae8161569c565b840191505092915050565b60006146c6602283615327565b91506146d1826156ba565b604082019050919050565b60006146e9603683615327565b91506146f482615709565b604082019050919050565b600061470c602b83615327565b915061471782615758565b604082019050919050565b600061472f601b83615327565b915061473a826157a7565b602082019050919050565b6000614752602683615327565b915061475d826157d0565b604082019050919050565b6000614775603083615327565b91506147808261581f565b604082019050919050565b6000614798601e83615327565b91506147a38261586e565b602082019050919050565b60006147bb602683615327565b91506147c682615897565b604082019050919050565b60006147de603a83615327565b91506147e9826158e6565b604082019050919050565b6000614801601d83615327565b915061480c82615935565b602082019050919050565b6000614824602683615327565b915061482f8261595e565b604082019050919050565b6000614847602b83615327565b9150614852826159ad565b604082019050919050565b600061486a603783615327565b9150614875826159fc565b604082019050919050565b600061488d601683615327565b915061489882615a4b565b602082019050919050565b60006148b0601083615327565b91506148bb82615a74565b602082019050919050565b60006148d3602483615327565b91506148de82615a9d565b604082019050919050565b60006148f6602483615327565b915061490182615aec565b604082019050919050565b6000614919601883615327565b915061492482615b3b565b602082019050919050565b600061493c601e83615327565b915061494782615b64565b602082019050919050565b600061495f602b83615327565b915061496a82615b8d565b604082019050919050565b6000614982602783615327565b915061498d82615bdc565b604082019050919050565b60006149a5602083615327565b91506149b082615c2b565b602082019050919050565b60006149c8601d83615327565b91506149d382615c54565b602082019050919050565b60006149eb601783615327565b91506149f682615c7d565b602082019050919050565b6000614a0e60008361531c565b9150614a1982615ca6565b600082019050919050565b6000614a31601d83615327565b9150614a3c82615ca9565b602082019050919050565b6000614a54602a83615327565b9150614a5f82615cd2565b604082019050919050565b6000614a77601f83615327565b9150614a8282615d21565b602082019050919050565b6000614a9a603883615327565b9150614aa582615d4a565b604082019050919050565b608082016000820151614ac66000850182614b5a565b506020820151614ad96020850182614b5a565b506040820151614aec6040850182614531565b506060820151614aff6060850182614531565b50505050565b608082016000820151614b1b6000850182614b5a565b506020820151614b2e6020850182614b5a565b506040820151614b416040850182614531565b506060820151614b546060850182614531565b50505050565b614b63816154e5565b82525050565b614b72816154e5565b82525050565b614b89614b84826154e5565b615605565b82525050565b6000614b9b828561454f565b601482019150614bab8284614b78565b6020820191508190509392505050565b6000614bc7828461464f565b915081905092915050565b6000614bdd82614a01565b9150819050919050565b6000602082019050614bfc6000830184614540565b92915050565b6000604082019050614c176000830185614522565b614c246020830184614b69565b9392505050565b6000606082019050614c406000830186614540565b614c4d6020830185614540565b614c5a6040830184614b69565b949350505050565b6000604082019050614c776000830185614540565b614c846020830184614b69565b9392505050565b60006020820190508181036000830152614ca58184614566565b905092915050565b60006020820190508181036000830152614cc781846145c4565b905092915050565b6000602082019050614ce46000830184614622565b92915050565b6000602082019050614cff6000830184614631565b92915050565b6000602082019050614d1a6000830184614640565b92915050565b60006020820190508181036000830152614d3a8184614680565b905092915050565b60006020820190508181036000830152614d5b816146b9565b9050919050565b60006020820190508181036000830152614d7b816146dc565b9050919050565b60006020820190508181036000830152614d9b816146ff565b9050919050565b60006020820190508181036000830152614dbb81614722565b9050919050565b60006020820190508181036000830152614ddb81614745565b9050919050565b60006020820190508181036000830152614dfb81614768565b9050919050565b60006020820190508181036000830152614e1b8161478b565b9050919050565b60006020820190508181036000830152614e3b816147ae565b9050919050565b60006020820190508181036000830152614e5b816147d1565b9050919050565b60006020820190508181036000830152614e7b816147f4565b9050919050565b60006020820190508181036000830152614e9b81614817565b9050919050565b60006020820190508181036000830152614ebb8161483a565b9050919050565b60006020820190508181036000830152614edb8161485d565b9050919050565b60006020820190508181036000830152614efb81614880565b9050919050565b60006020820190508181036000830152614f1b816148a3565b9050919050565b60006020820190508181036000830152614f3b816148c6565b9050919050565b60006020820190508181036000830152614f5b816148e9565b9050919050565b60006020820190508181036000830152614f7b8161490c565b9050919050565b60006020820190508181036000830152614f9b8161492f565b9050919050565b60006020820190508181036000830152614fbb81614952565b9050919050565b60006020820190508181036000830152614fdb81614975565b9050919050565b60006020820190508181036000830152614ffb81614998565b9050919050565b6000602082019050818103600083015261501b816149bb565b9050919050565b6000602082019050818103600083015261503b816149de565b9050919050565b6000602082019050818103600083015261505b81614a24565b9050919050565b6000602082019050818103600083015261507b81614a47565b9050919050565b6000602082019050818103600083015261509b81614a6a565b9050919050565b600060208201905081810360008301526150bb81614a8d565b9050919050565b60006080820190506150d76000830184614b05565b92915050565b60006020820190506150f26000830184614b69565b92915050565b600060408201905061510d6000830185614b69565b61511a6020830184614540565b9392505050565b60006080820190506151366000830187614b69565b6151436020830186614540565b81810360408301526151558185614680565b90506151646060830184614b69565b95945050505050565b60006040820190506151826000830185614b69565b61518f6020830184614b69565b9392505050565b60006080820190506151ab6000830187614b69565b6151b86020830186614b69565b6151c56040830185614540565b6151d26060830184614540565b95945050505050565b60006060820190506151f06000830186614b69565b6151fd6020830185614b69565b61520a6040830184614b69565b949350505050565b600061521c61522d565b90506152288282615567565b919050565b6000604051905090565b600067ffffffffffffffff8211156152525761525161566d565b5b602082029050602081019050919050565b600067ffffffffffffffff82111561527e5761527d61566d565b5b6152878261569c565b9050602081019050919050565b6000819050602082019050919050565b6000819050602082019050919050565b600081519050919050565b600081519050919050565b600081519050919050565b600081519050919050565b6000602082019050919050565b6000602082019050919050565b600082825260208201905092915050565b600082825260208201905092915050565b600081905092915050565b600082825260208201905092915050565b6000615343826154e5565b915061534e836154e5565b9250827fffffffffffffffffffffffffffffffffffffffffffffffffffffffffffffffff038211156153835761538261560f565b5b828201905092915050565b6000615399826154e5565b91506153a4836154e5565b9250826153b4576153b361563e565b5b828204905092915050565b60006153ca826154e5565b91506153d5836154e5565b9250817fffffffffffffffffffffffffffffffffffffffffffffffffffffffffffffffff048311821515161561540e5761540d61560f565b5b828202905092915050565b6000615424826154e5565b915061542f836154e5565b9250828210156154425761544161560f565b5b828203905092915050565b6000615458826154c5565b9050919050565b600061546a826154c5565b9050919050565b60008115159050919050565b6000819050919050565b60007fffffffff0000000000000000000000000000000000000000000000000000000082169050919050565b60006154be8261544d565b9050919050565b600073ffffffffffffffffffffffffffffffffffffffff82169050919050565b6000819050919050565b60006154fa82615501565b9050919050565b600061550c82615513565b9050919050565b600061551e826154c5565b9050919050565b82818337600083830152505050565b60005b83811015615552578082015181840152602081019050615537565b83811115615561576000848401525b50505050565b6155708261569c565b810181811067ffffffffffffffff8211171561558f5761558e61566d565b5b80604052505050565b60006155a3826154e5565b91507fffffffffffffffffffffffffffffffffffffffffffffffffffffffffffffffff8214156155d6576155d561560f565b5b600182019050919050565b60006155ec826155f3565b9050919050565b60006155fe826156ad565b9050919050565b6000819050919050565b7f4e487b7100000000000000000000000000000000000000000000000000000000600052601160045260246000fd5b7f4e487b7100000000000000000000000000000000000000000000000000000000600052601260045260246000fd5b7f4e487b7100000000000000000000000000000000000000000000000000000000600052604160045260246000fd5b6000601f19601f8301169050919050565b60008160601b9050919050565b7f50726963652073686f756c6420636f76657220746f74616c20726f79616c746960008201527f6573000000000000000000000000000000000000000000000000000000000000602082015250565b7f546865204e465420636f6e747261637420646f6573206e6f7420737570706f7260008201527f74207468652045524337323120696e7465726661636500000000000000000000602082015250565b7f5472616e73666572206f6620726f79616c747920746f2074686520726563656960008201527f766572206661696c65642e000000000000000000000000000000000000000000602082015250565b7f436f756e7465723a2064656372656d656e74206f766572666c6f770000000000600082015250565b7f4f776e61626c653a206e6577206f776e657220697320746865207a65726f206160008201527f6464726573730000000000000000000000000000000000000000000000000000602082015250565b7f4e6f206c697374696e6720666f756e6420666f72207468697320746f6b656e4960008201527f6420616e6420636f6c6c656374696f6e00000000000000000000000000000000602082015250565b7f5472616e7366657220746f204e46542073656c6c6572206661696c65642e0000600082015250565b7f5061796d656e7453706c69747465723a206163636f756e7420686173206e6f2060008201527f7368617265730000000000000000000000000000000000000000000000000000602082015250565b7f416464726573733a20756e61626c6520746f2073656e642076616c75652c207260008201527f6563697069656e74206d61792068617665207265766572746564000000000000602082015250565b7f416464726573733a20696e73756666696369656e742062616c616e6365000000600082015250565b7f416464726573733a20696e73756666696369656e742062616c616e636520666f60008201527f722063616c6c0000000000000000000000000000000000000000000000000000602082015250565b7f5061796d656e7453706c69747465723a206163636f756e74206973206e6f742060008201527f647565207061796d656e74000000000000000000000000000000000000000000602082015250565b7f546865204e465420636f6e747261637420646f6573206e6f7420737570706f7260008201527f7420746865204552433239383120696e74657266616365000000000000000000602082015250565b7f596f7520646f6e2774206f776e2074686973204e465400000000000000000000600082015250565b7f5061757361626c653a2070617573656400000000000000000000000000000000600082015250565b7f50616765206e756d6265722073686f756c64206265206772656174657220746860008201527f616e203000000000000000000000000000000000000000000000000000000000602082015250565b7f5072696365206d7573742062652067726561746572207468616e204d494e5f5060008201527f5249434500000000000000000000000000000000000000000000000000000000602082015250565b7f496e76616c696420706167696e6174696f6e2072616e67650000000000000000600082015250565b7f4f776e65722063616e6e6f7420627579207468656972206f776e204e46540000600082015250565b7f50726963652073686f756c6420626520686967686572207468616e20746f746160008201527f6c20726f79616c74696573000000000000000000000000000000000000000000602082015250565b7f53656e742076616c756520646f6573206e6f74206d6174636820746865204e4660008201527f5420707269636500000000000000000000000000000000000000000000000000602082015250565b7f4f776e61626c653a2063616c6c6572206973206e6f7420746865206f776e6572600082015250565b7f5472616e7366657220746f204e4654206f776e6572206661696c65642e000000600082015250565b7f546f6b656e20697320616c7265616479206c6973746564000000000000000000600082015250565b50565b7f416464726573733a2063616c6c20746f206e6f6e2d636f6e7472616374000000600082015250565b7f5361666545524332303a204552433230206f7065726174696f6e20646964206e60008201527f6f74207375636365656400000000000000000000000000000000000000000000602082015250565b7f5265656e7472616e637947756172643a207265656e7472616e742063616c6c00600082015250565b7f546865204e465420636f6e747261637420646f6573206e6f7420737570706f7260008201527f742074686520494552433239383120696e746572666163650000000000000000602082015250565b615da28161544d565b8114615dad57600080fd5b50565b615db98161545f565b8114615dc457600080fd5b50565b615dd081615471565b8114615ddb57600080fd5b50565b615de78161547d565b8114615df257600080fd5b50565b615dfe816154b3565b8114615e0957600080fd5b50565b615e15816154e5565b8114615e2057600080fd5b5056fea2646970667358221220aaf3a687ff9f3e3ed232a5173449ba108ae41527976e276b908e61512737e9a264736f6c63430008010033",
  "linkReferences": {},
  "deployedLinkReferences": {}
}