{
  "_format": "hh-sol-artifact-1",
  "contractName": "NFTMarketplace",
  "sourceName": "contracts/NFTMarketplace.sol",
  "abi": [
    {
      "inputs": [
        {
          "internalType": "address",
          "name": "nftContractAddress",
          "type": "address"
        },
        {
          "internalType": "address[]",
          "name": "payees",
          "type": "address[]"
        },
        {
          "internalType": "uint256[]",
          "name": "shares",
          "type": "uint256[]"
        },
        {
          "internalType": "uint256",
          "name": "royalties",
          "type": "uint256"
        }
      ],
      "stateMutability": "nonpayable",
      "type": "constructor"
    },
    {
      "anonymous": false,
      "inputs": [
        {
          "indexed": true,
          "internalType": "contract IERC20",
          "name": "token",
          "type": "address"
        },
        {
          "indexed": false,
          "internalType": "address",
          "name": "to",
          "type": "address"
        },
        {
          "indexed": false,
          "internalType": "uint256",
          "name": "amount",
          "type": "uint256"
        }
      ],
      "name": "ERC20PaymentReleased",
      "type": "event"
    },
    {
      "anonymous": false,
      "inputs": [
        {
          "indexed": true,
          "internalType": "uint256",
          "name": "tokenId",
          "type": "uint256"
        },
        {
          "indexed": true,
          "internalType": "address",
          "name": "collection",
          "type": "address"
        }
      ],
      "name": "NFTDelisted",
      "type": "event"
    },
    {
      "anonymous": false,
      "inputs": [
        {
          "indexed": true,
          "internalType": "uint256",
          "name": "tokenId",
          "type": "uint256"
        },
        {
          "indexed": false,
          "internalType": "uint256",
          "name": "price",
          "type": "uint256"
        },
        {
          "indexed": true,
          "internalType": "address",
          "name": "seller",
          "type": "address"
        },
        {
          "indexed": true,
          "internalType": "address",
          "name": "collection",
          "type": "address"
        }
      ],
      "name": "NFTListed",
      "type": "event"
    },
    {
      "anonymous": false,
      "inputs": [
        {
          "indexed": true,
          "internalType": "uint256",
          "name": "tokenId",
          "type": "uint256"
        },
        {
          "indexed": false,
          "internalType": "uint256",
          "name": "price",
          "type": "uint256"
        },
        {
          "indexed": true,
          "internalType": "address",
          "name": "seller",
          "type": "address"
        },
        {
          "indexed": true,
          "internalType": "address",
          "name": "buyer",
          "type": "address"
        },
        {
          "indexed": false,
          "internalType": "address",
          "name": "collection",
          "type": "address"
        }
      ],
      "name": "NFTSold",
      "type": "event"
    },
    {
      "anonymous": false,
      "inputs": [
        {
          "indexed": true,
          "internalType": "address",
          "name": "previousOwner",
          "type": "address"
        },
        {
          "indexed": true,
          "internalType": "address",
          "name": "newOwner",
          "type": "address"
        }
      ],
      "name": "OwnershipTransferred",
      "type": "event"
    },
    {
      "anonymous": false,
      "inputs": [
        {
          "indexed": false,
          "internalType": "address",
          "name": "account",
          "type": "address"
        },
        {
          "indexed": false,
          "internalType": "uint256",
          "name": "shares",
          "type": "uint256"
        }
      ],
      "name": "PayeeAdded",
      "type": "event"
    },
    {
      "anonymous": false,
      "inputs": [
        {
          "indexed": false,
          "internalType": "address",
          "name": "from",
          "type": "address"
        },
        {
          "indexed": false,
          "internalType": "uint256",
          "name": "amount",
          "type": "uint256"
        }
      ],
      "name": "PaymentReceived",
      "type": "event"
    },
    {
      "anonymous": false,
      "inputs": [
        {
          "indexed": false,
          "internalType": "address",
          "name": "to",
          "type": "address"
        },
        {
          "indexed": false,
          "internalType": "uint256",
          "name": "amount",
          "type": "uint256"
        }
      ],
      "name": "PaymentReleased",
      "type": "event"
    },
    {
      "inputs": [],
      "name": "MIN_PRICE",
      "outputs": [
        {
          "internalType": "uint256",
          "name": "",
          "type": "uint256"
        }
      ],
      "stateMutability": "view",
      "type": "function"
    },
    {
      "inputs": [
        {
          "internalType": "uint256",
          "name": "collectionId",
          "type": "uint256"
        },
        {
          "internalType": "string",
          "name": "tokenURI",
          "type": "string"
        }
      ],
      "name": "buyFromCollection",
      "outputs": [],
      "stateMutability": "payable",
      "type": "function"
    },
    {
      "inputs": [
        {
          "internalType": "address",
          "name": "collection",
          "type": "address"
        },
        {
          "internalType": "uint256",
          "name": "tokenId",
          "type": "uint256"
        }
      ],
      "name": "buyNFT",
      "outputs": [],
      "stateMutability": "payable",
      "type": "function"
    },
    {
      "inputs": [
        {
          "internalType": "address",
          "name": "collection",
          "type": "address"
        },
        {
          "internalType": "uint256",
          "name": "tokenId",
          "type": "uint256"
        }
      ],
      "name": "delistNFT",
      "outputs": [],
      "stateMutability": "nonpayable",
      "type": "function"
    },
    {
      "inputs": [
        {
          "internalType": "uint256",
          "name": "page",
          "type": "uint256"
        }
      ],
      "name": "getAllListings",
      "outputs": [
        {
          "components": [
            {
              "internalType": "uint256",
              "name": "tokenId",
              "type": "uint256"
            },
            {
              "internalType": "uint256",
              "name": "price",
              "type": "uint256"
            },
            {
              "internalType": "address",
              "name": "seller",
              "type": "address"
            },
            {
              "internalType": "address",
              "name": "collection",
              "type": "address"
            }
          ],
          "internalType": "struct NFTMarketplace.Listing[]",
          "name": "",
          "type": "tuple[]"
        }
      ],
      "stateMutability": "view",
      "type": "function"
    },
    {
      "inputs": [
        {
          "internalType": "address",
          "name": "collection",
          "type": "address"
        },
        {
          "internalType": "uint256",
          "name": "tokenId",
          "type": "uint256"
        }
      ],
      "name": "getKeyForToken",
      "outputs": [
        {
          "internalType": "bytes32",
          "name": "",
          "type": "bytes32"
        }
      ],
      "stateMutability": "pure",
      "type": "function"
    },
    {
      "inputs": [
        {
          "internalType": "uint256",
          "name": "collectionId",
          "type": "uint256"
        },
        {
          "internalType": "uint256",
          "name": "startIndex",
          "type": "uint256"
        },
        {
          "internalType": "uint256",
          "name": "pageSize",
          "type": "uint256"
        },
        {
          "internalType": "address",
          "name": "collection",
          "type": "address"
        }
      ],
      "name": "getListedTokensInCollection",
      "outputs": [
        {
          "internalType": "uint256[]",
          "name": "",
          "type": "uint256[]"
        }
      ],
      "stateMutability": "view",
      "type": "function"
    },
    {
      "inputs": [
        {
          "internalType": "uint256",
          "name": "tokenId",
          "type": "uint256"
        },
        {
          "internalType": "address",
          "name": "collection",
          "type": "address"
        }
      ],
      "name": "getListingByTokenIdAndAddress",
      "outputs": [
        {
          "components": [
            {
              "internalType": "uint256",
              "name": "tokenId",
              "type": "uint256"
            },
            {
              "internalType": "uint256",
              "name": "price",
              "type": "uint256"
            },
            {
              "internalType": "address",
              "name": "seller",
              "type": "address"
            },
            {
              "internalType": "address",
              "name": "collection",
              "type": "address"
            }
          ],
          "internalType": "struct NFTMarketplace.Listing",
          "name": "",
          "type": "tuple"
        }
      ],
      "stateMutability": "view",
      "type": "function"
    },
    {
      "inputs": [
        {
          "internalType": "address",
          "name": "collection",
          "type": "address"
        },
        {
          "internalType": "uint256",
          "name": "page",
          "type": "uint256"
        },
        {
          "internalType": "uint256",
          "name": "pageSize",
          "type": "uint256"
        }
      ],
      "name": "getListingsByNFTContract",
      "outputs": [
        {
          "components": [
            {
              "internalType": "uint256",
              "name": "tokenId",
              "type": "uint256"
            },
            {
              "internalType": "uint256",
              "name": "price",
              "type": "uint256"
            },
            {
              "internalType": "address",
              "name": "seller",
              "type": "address"
            },
            {
              "internalType": "address",
              "name": "collection",
              "type": "address"
            }
          ],
          "internalType": "struct NFTMarketplace.Listing[]",
          "name": "",
          "type": "tuple[]"
        }
      ],
      "stateMutability": "view",
      "type": "function"
    },
    {
      "inputs": [
        {
          "internalType": "address",
          "name": "seller",
          "type": "address"
        },
        {
          "internalType": "uint256",
          "name": "page",
          "type": "uint256"
        },
        {
          "internalType": "uint256",
          "name": "pageSize",
          "type": "uint256"
        }
      ],
      "name": "getListingsBySeller",
      "outputs": [
        {
          "components": [
            {
              "internalType": "uint256",
              "name": "tokenId",
              "type": "uint256"
            },
            {
              "internalType": "uint256",
              "name": "price",
              "type": "uint256"
            },
            {
              "internalType": "address",
              "name": "seller",
              "type": "address"
            },
            {
              "internalType": "address",
              "name": "collection",
              "type": "address"
            }
          ],
          "internalType": "struct NFTMarketplace.Listing[]",
          "name": "",
          "type": "tuple[]"
        }
      ],
      "stateMutability": "view",
      "type": "function"
    },
    {
      "inputs": [
        {
          "internalType": "address",
          "name": "collection",
          "type": "address"
        },
        {
          "internalType": "uint256",
          "name": "tokenId",
          "type": "uint256"
        }
      ],
      "name": "isTokenListed",
      "outputs": [
        {
          "internalType": "bool",
          "name": "",
          "type": "bool"
        }
      ],
      "stateMutability": "view",
      "type": "function"
    },
    {
      "inputs": [
        {
          "internalType": "uint256",
          "name": "tokenId",
          "type": "uint256"
        },
        {
          "internalType": "uint256",
          "name": "price",
          "type": "uint256"
        },
        {
          "internalType": "address",
          "name": "collection",
          "type": "address"
        }
      ],
      "name": "listNFT",
      "outputs": [],
      "stateMutability": "nonpayable",
      "type": "function"
    },
    {
      "inputs": [
        {
          "internalType": "bytes32",
          "name": "",
          "type": "bytes32"
        }
      ],
      "name": "listings",
      "outputs": [
        {
          "internalType": "uint256",
          "name": "tokenId",
          "type": "uint256"
        },
        {
          "internalType": "uint256",
          "name": "price",
          "type": "uint256"
        },
        {
          "internalType": "address",
          "name": "seller",
          "type": "address"
        },
        {
          "internalType": "address",
          "name": "collection",
          "type": "address"
        }
      ],
      "stateMutability": "view",
      "type": "function"
    },
    {
      "inputs": [
        {
          "internalType": "uint256",
          "name": "",
          "type": "uint256"
        }
      ],
      "name": "listingsKeys",
      "outputs": [
        {
          "internalType": "bytes32",
          "name": "",
          "type": "bytes32"
        }
      ],
      "stateMutability": "view",
      "type": "function"
    },
    {
      "inputs": [],
      "name": "owner",
      "outputs": [
        {
          "internalType": "address",
          "name": "",
          "type": "address"
        }
      ],
      "stateMutability": "view",
      "type": "function"
    },
    {
      "inputs": [
        {
          "internalType": "uint256",
          "name": "index",
          "type": "uint256"
        }
      ],
      "name": "payee",
      "outputs": [
        {
          "internalType": "address",
          "name": "",
          "type": "address"
        }
      ],
      "stateMutability": "view",
      "type": "function"
    },
    {
      "inputs": [
        {
          "internalType": "address",
          "name": "account",
          "type": "address"
        }
      ],
      "name": "releasable",
      "outputs": [
        {
          "internalType": "uint256",
          "name": "",
          "type": "uint256"
        }
      ],
      "stateMutability": "view",
      "type": "function"
    },
    {
      "inputs": [
        {
          "internalType": "contract IERC20",
          "name": "token",
          "type": "address"
        },
        {
          "internalType": "address",
          "name": "account",
          "type": "address"
        }
      ],
      "name": "releasable",
      "outputs": [
        {
          "internalType": "uint256",
          "name": "",
          "type": "uint256"
        }
      ],
      "stateMutability": "view",
      "type": "function"
    },
    {
      "inputs": [
        {
          "internalType": "address payable",
          "name": "account",
          "type": "address"
        }
      ],
      "name": "release",
      "outputs": [],
      "stateMutability": "nonpayable",
      "type": "function"
    },
    {
      "inputs": [
        {
          "internalType": "contract IERC20",
          "name": "token",
          "type": "address"
        },
        {
          "internalType": "address",
          "name": "account",
          "type": "address"
        }
      ],
      "name": "release",
      "outputs": [],
      "stateMutability": "nonpayable",
      "type": "function"
    },
    {
      "inputs": [
        {
          "internalType": "contract IERC20",
          "name": "token",
          "type": "address"
        },
        {
          "internalType": "address",
          "name": "account",
          "type": "address"
        }
      ],
      "name": "released",
      "outputs": [
        {
          "internalType": "uint256",
          "name": "",
          "type": "uint256"
        }
      ],
      "stateMutability": "view",
      "type": "function"
    },
    {
      "inputs": [
        {
          "internalType": "address",
          "name": "account",
          "type": "address"
        }
      ],
      "name": "released",
      "outputs": [
        {
          "internalType": "uint256",
          "name": "",
          "type": "uint256"
        }
      ],
      "stateMutability": "view",
      "type": "function"
    },
    {
      "inputs": [],
      "name": "renounceOwnership",
      "outputs": [],
      "stateMutability": "nonpayable",
      "type": "function"
    },
    {
      "inputs": [
        {
          "internalType": "address",
          "name": "account",
          "type": "address"
        }
      ],
      "name": "shares",
      "outputs": [
        {
          "internalType": "uint256",
          "name": "",
          "type": "uint256"
        }
      ],
      "stateMutability": "view",
      "type": "function"
    },
    {
      "inputs": [
        {
          "internalType": "contract IERC20",
          "name": "token",
          "type": "address"
        }
      ],
      "name": "totalReleased",
      "outputs": [
        {
          "internalType": "uint256",
          "name": "",
          "type": "uint256"
        }
      ],
      "stateMutability": "view",
      "type": "function"
    },
    {
      "inputs": [],
      "name": "totalReleased",
      "outputs": [
        {
          "internalType": "uint256",
          "name": "",
          "type": "uint256"
        }
      ],
      "stateMutability": "view",
      "type": "function"
    },
    {
      "inputs": [],
      "name": "totalShares",
      "outputs": [
        {
          "internalType": "uint256",
          "name": "",
          "type": "uint256"
        }
      ],
      "stateMutability": "view",
      "type": "function"
    },
    {
      "inputs": [
        {
          "internalType": "address",
          "name": "newOwner",
          "type": "address"
        }
      ],
      "name": "transferOwnership",
      "outputs": [],
      "stateMutability": "nonpayable",
      "type": "function"
    },
    {
      "stateMutability": "payable",
      "type": "receive"
    }
  ],
  "bytecode": "0x60806040523480156200001157600080fd5b50604051620068e6380380620068e6833981810160405281019062000037919062000700565b8282620000596200004d6200028860201b60201c565b6200029060201b60201c565b600180819055508051825114620000a7576040517f08c379a00000000000000000000000000000000000000000000000000000000081526004016200009e9062000920565b60405180910390fd5b6000825111620000ee576040517f08c379a0000000000000000000000000000000000000000000000000000000008152600401620000e590620009a8565b60405180910390fd5b60005b8251811015620001a5576200018f83828151811062000139577f4e487b7100000000000000000000000000000000000000000000000000000000600052603260045260246000fd5b60200260200101518383815181106200017b577f4e487b7100000000000000000000000000000000000000000000000000000000600052603260045260246000fd5b60200260200101516200035460201b60201c565b80806200019c9062000b55565b915050620000f1565b5050506000835111620001ef576040517f08c379a0000000000000000000000000000000000000000000000000000000008152600401620001e69062000964565b60405180910390fd5b815183511462000236576040517f08c379a00000000000000000000000000000000000000000000000000000000081526004016200022d9062000942565b60405180910390fd5b83600a60006101000a81548173ffffffffffffffffffffffffffffffffffffffff021916908373ffffffffffffffffffffffffffffffffffffffff160217905550806009819055505050505062000dfd565b600033905090565b60008060009054906101000a900473ffffffffffffffffffffffffffffffffffffffff169050816000806101000a81548173ffffffffffffffffffffffffffffffffffffffff021916908373ffffffffffffffffffffffffffffffffffffffff1602179055508173ffffffffffffffffffffffffffffffffffffffff168173ffffffffffffffffffffffffffffffffffffffff167f8be0079c531659141344cd1fd0a4f28419497f9722a3daafe3b4186f6b6457e060405160405180910390a35050565b600073ffffffffffffffffffffffffffffffffffffffff168273ffffffffffffffffffffffffffffffffffffffff161415620003c7576040517f08c379a0000000000000000000000000000000000000000000000000000000008152600401620003be90620008fe565b60405180910390fd5b600081116200040d576040517f08c379a00000000000000000000000000000000000000000000000000000000081526004016200040490620009ca565b60405180910390fd5b6000600460008473ffffffffffffffffffffffffffffffffffffffff1673ffffffffffffffffffffffffffffffffffffffff168152602001908152602001600020541462000492576040517f08c379a0000000000000000000000000000000000000000000000000000000008152600401620004899062000986565b60405180910390fd5b6006829080600181540180825580915050600190039060005260206000200160009091909190916101000a81548173ffffffffffffffffffffffffffffffffffffffff021916908373ffffffffffffffffffffffffffffffffffffffff16021790555080600460008473ffffffffffffffffffffffffffffffffffffffff1673ffffffffffffffffffffffffffffffffffffffff168152602001908152602001600020819055508060025462000549919062000a84565b6002819055507f40c340f65e17194d14ddddb073d3c9f888e3cb52b5aae0c6c7706b4fbc905fac828260405162000582929190620008d1565b60405180910390a15050565b6000620005a56200059f8462000a15565b620009ec565b90508083825260208201905082856020860282011115620005c557600080fd5b60005b85811015620005f95781620005de888262000678565b845260208401935060208301925050600181019050620005c8565b5050509392505050565b60006200061a620006148462000a44565b620009ec565b905080838252602082019050828560208602820111156200063a57600080fd5b60005b858110156200066e5781620006538882620006e9565b8452602084019350602083019250506001810190506200063d565b5050509392505050565b600081519050620006898162000dc9565b92915050565b600082601f830112620006a157600080fd5b8151620006b38482602086016200058e565b91505092915050565b600082601f830112620006ce57600080fd5b8151620006e084826020860162000603565b91505092915050565b600081519050620006fa8162000de3565b92915050565b600080600080608085870312156200071757600080fd5b6000620007278782880162000678565b945050602085015167ffffffffffffffff8111156200074557600080fd5b62000753878288016200068f565b935050604085015167ffffffffffffffff8111156200077157600080fd5b6200077f87828801620006bc565b92505060606200079287828801620006e9565b91505092959194509250565b620007a98162000ae1565b82525050565b6000620007be602c8362000a73565b9150620007cb8262000c12565b604082019050919050565b6000620007e560328362000a73565b9150620007f28262000c61565b604082019050919050565b60006200080c60238362000a73565b9150620008198262000cb0565b604082019050919050565b600062000833601e8362000a73565b9150620008408262000cff565b602082019050919050565b60006200085a602b8362000a73565b9150620008678262000d28565b604082019050919050565b600062000881601a8362000a73565b91506200088e8262000d77565b602082019050919050565b6000620008a8601d8362000a73565b9150620008b58262000da0565b602082019050919050565b620008cb8162000b15565b82525050565b6000604082019050620008e860008301856200079e565b620008f76020830184620008c0565b9392505050565b600060208201905081810360008301526200091981620007af565b9050919050565b600060208201905081810360008301526200093b81620007d6565b9050919050565b600060208201905081810360008301526200095d81620007fd565b9050919050565b600060208201905081810360008301526200097f8162000824565b9050919050565b60006020820190508181036000830152620009a1816200084b565b9050919050565b60006020820190508181036000830152620009c38162000872565b9050919050565b60006020820190508181036000830152620009e58162000899565b9050919050565b6000620009f862000a0b565b905062000a06828262000b1f565b919050565b6000604051905090565b600067ffffffffffffffff82111562000a335762000a3262000bd2565b5b602082029050602081019050919050565b600067ffffffffffffffff82111562000a625762000a6162000bd2565b5b602082029050602081019050919050565b600082825260208201905092915050565b600062000a918262000b15565b915062000a9e8362000b15565b9250827fffffffffffffffffffffffffffffffffffffffffffffffffffffffffffffffff0382111562000ad65762000ad562000ba3565b5b828201905092915050565b600062000aee8262000af5565b9050919050565b600073ffffffffffffffffffffffffffffffffffffffff82169050919050565b6000819050919050565b62000b2a8262000c01565b810181811067ffffffffffffffff8211171562000b4c5762000b4b62000bd2565b5b80604052505050565b600062000b628262000b15565b91507fffffffffffffffffffffffffffffffffffffffffffffffffffffffffffffffff82141562000b985762000b9762000ba3565b5b600182019050919050565b7f4e487b7100000000000000000000000000000000000000000000000000000000600052601160045260246000fd5b7f4e487b7100000000000000000000000000000000000000000000000000000000600052604160045260246000fd5b6000601f19601f8301169050919050565b7f5061796d656e7453706c69747465723a206163636f756e74206973207468652060008201527f7a65726f20616464726573730000000000000000000000000000000000000000602082015250565b7f5061796d656e7453706c69747465723a2070617965657320616e64207368617260008201527f6573206c656e677468206d69736d617463680000000000000000000000000000602082015250565b7f50617965657320616e6420736861726573206c656e677468206d757374206d6160008201527f7463680000000000000000000000000000000000000000000000000000000000602082015250565b7f4174206c65617374206f6e652070617965652069732072657175697265640000600082015250565b7f5061796d656e7453706c69747465723a206163636f756e7420616c726561647960008201527f2068617320736861726573000000000000000000000000000000000000000000602082015250565b7f5061796d656e7453706c69747465723a206e6f20706179656573000000000000600082015250565b7f5061796d656e7453706c69747465723a20736861726573206172652030000000600082015250565b62000dd48162000ae1565b811462000de057600080fd5b50565b62000dee8162000b15565b811462000dfa57600080fd5b50565b615ad98062000e0d6000396000f3fe6080604052600436106101bb5760003560e01c80639852595c116100ec578063c4f85af71161008a578063e33b7de311610064578063e33b7de3146106d4578063f193a6cf146106ff578063f2fde38b1461073c578063f4b483571461076557610202565b8063c4f85af71461063e578063ce7c2ac21461065a578063d79779b21461069757610202565b8063a82ba76f116100c6578063a82ba76f1461057a578063ad9f20a614610596578063c18b8db4146105c1578063c45ac0501461060157610202565b80639852595c146104d7578063a17a709414610514578063a3f8eace1461053d57610202565b80634d2f6503116101595780637e5c0924116101335780637e5c0924146103f55780638b83209b146104325780638da5cb5b1461046f57806393a895531461049a57610202565b80634d2f6503146103645780635471b47a146103a1578063715018a6146103de57610202565b8063191655871161019557806319165587146102aa5780633a98ef39146102d3578063406072a9146102fe57806348b750441461033b57610202565b806302998cf31461020757806314cadc7014610230578063150abc571461026d57610202565b36610202577f6ef95f06320e7a25a04a175ca677b7052bdd97131872c2192525a629f51be7706101e96107a2565b346040516101f89291906149bd565b60405180910390a1005b600080fd5b34801561021357600080fd5b5061022e60048036038101906102299190614204565b6107aa565b005b34801561023c57600080fd5b50610257600480360381019061025291906140e6565b610c73565b60405161026491906149e6565b60405180910390f35b34801561027957600080fd5b50610294600480360381019061028f9190613f9f565b61115c565b6040516102a191906149e6565b60405180910390f35b3480156102b657600080fd5b506102d160048036038101906102cc9190613efe565b6115ff565b005b3480156102df57600080fd5b506102e861177f565b6040516102f59190614dd8565b60405180910390f35b34801561030a57600080fd5b50610325600480360381019061032091906140aa565b611789565b6040516103329190614dd8565b60405180910390f35b34801561034757600080fd5b50610362600480360381019061035d91906140aa565b611810565b005b34801561037057600080fd5b5061038b60048036038101906103869190614138565b611a24565b6040516103989190614dbd565b60405180910390f35b3480156103ad57600080fd5b506103c860048036038101906103c39190613f27565b611bc7565b6040516103d59190614a2a565b60405180910390f35b3480156103ea57600080fd5b506103f3611c46565b005b34801561040157600080fd5b5061041c60048036038101906104179190614253565b611c5a565b6040516104299190614a08565b60405180910390f35b34801561043e57600080fd5b50610459600480360381019061045491906140e6565b612068565b6040516104669190614942565b60405180910390f35b34801561047b57600080fd5b506104846120d6565b6040516104919190614942565b60405180910390f35b3480156104a657600080fd5b506104c160048036038101906104bc9190613f9f565b6120ff565b6040516104ce91906149e6565b60405180910390f35b3480156104e357600080fd5b506104fe60048036038101906104f99190613eac565b61244f565b60405161050b9190614dd8565b60405180910390f35b34801561052057600080fd5b5061053b60048036038101906105369190613f27565b612498565b005b34801561054957600080fd5b50610564600480360381019061055f9190613eac565b6127b2565b6040516105719190614dd8565b60405180910390f35b610594600480360381019061058f9190613f27565b6127e5565b005b3480156105a257600080fd5b506105ab6130d8565b6040516105b89190614dd8565b60405180910390f35b3480156105cd57600080fd5b506105e860048036038101906105e39190614058565b6130e3565b6040516105f89493929190614e91565b60405180910390f35b34801561060d57600080fd5b50610628600480360381019061062391906140aa565b613153565b6040516106359190614dd8565b60405180910390f35b610658600480360381019061065391906141b0565b613211565b005b34801561066657600080fd5b50610681600480360381019061067c9190613eac565b613489565b60405161068e9190614dd8565b60405180910390f35b3480156106a357600080fd5b506106be60048036038101906106b99190614081565b6134d2565b6040516106cb9190614dd8565b60405180910390f35b3480156106e057600080fd5b506106e961351b565b6040516106f69190614dd8565b60405180910390f35b34801561070b57600080fd5b50610726600480360381019061072191906140e6565b613525565b6040516107339190614a45565b60405180910390f35b34801561074857600080fd5b50610763600480360381019061075e9190613eac565b613549565b005b34801561077157600080fd5b5061078c60048036038101906107879190613f27565b6135cd565b6040516107999190614a45565b60405180910390f35b600033905090565b6107b2613600565b600081905060008290506107c68386611bc7565b15610806576040517f08c379a00000000000000000000000000000000000000000000000000000000081526004016107fd90614d1d565b60405180910390fd5b66038d7ea4c68000841015610850576040517f08c379a000000000000000000000000000000000000000000000000000000000815260040161084790614c3d565b60405180910390fd5b8073ffffffffffffffffffffffffffffffffffffffff166301ffc9a77f80ac58cd000000000000000000000000000000000000000000000000000000006040518263ffffffff1660e01b81526004016108a99190614a60565b60206040518083038186803b1580156108c157600080fd5b505afa1580156108d5573d6000803e3d6000fd5b505050506040513d601f19601f820116820180604052508101906108f9919061402f565b610938576040517f08c379a000000000000000000000000000000000000000000000000000000000815260040161092f90614a9d565b60405180910390fd5b600061094484876135cd565b905060405180608001604052808781526020018681526020018473ffffffffffffffffffffffffffffffffffffffff16636352211e896040518263ffffffff1660e01b81526004016109969190614dd8565b60206040518083038186803b1580156109ae57600080fd5b505afa1580156109c2573d6000803e3d6000fd5b505050506040513d601f19601f820116820180604052508101906109e69190613ed5565b73ffffffffffffffffffffffffffffffffffffffff1681526020018573ffffffffffffffffffffffffffffffffffffffff16815250600c6000838152602001908152602001600020600082015181600001556020820151816001015560408201518160020160006101000a81548173ffffffffffffffffffffffffffffffffffffffff021916908373ffffffffffffffffffffffffffffffffffffffff16021790555060608201518160030160006101000a81548173ffffffffffffffffffffffffffffffffffffffff021916908373ffffffffffffffffffffffffffffffffffffffff1602179055509050508273ffffffffffffffffffffffffffffffffffffffff166323b872dd8473ffffffffffffffffffffffffffffffffffffffff16636352211e896040518263ffffffff1660e01b8152600401610b289190614dd8565b60206040518083038186803b158015610b4057600080fd5b505afa158015610b54573d6000803e3d6000fd5b505050506040513d601f19601f82011682018060405250810190610b789190613ed5565b30896040518463ffffffff1660e01b8152600401610b9893929190614986565b600060405180830381600087803b158015610bb257600080fd5b505af1158015610bc6573d6000803e3d6000fd5b50505050610bd4600b613650565b600d8190806001815401808255809150506001900390600052602060002001600090919091909150558373ffffffffffffffffffffffffffffffffffffffff163373ffffffffffffffffffffffffffffffffffffffff16877fc65ba3c5b271b28dd9e42873d11ec274c241e89fe348618c03ac562170f754f788604051610c5b9190614dd8565b60405180910390a4505050610c6e613666565b505050565b606060008211610cb8576040517f08c379a0000000000000000000000000000000000000000000000000000000008152600401610caf90614c1d565b60405180910390fd5b6000610cc4600b61366f565b905060006064600185610cd79190615114565b610ce191906150ba565b9050600082606483610cf39190615033565b11610d0a57606482610d059190615033565b610d0c565b825b9050818111610d9a57600067ffffffffffffffff811115610d56577f4e487b7100000000000000000000000000000000000000000000000000000000600052604160045260246000fd5b604051908082528060200260200182016040528015610d8f57816020015b610d7c613cb2565b815260200190600190039081610d745790505b509350505050611157565b60008282610da89190615114565b67ffffffffffffffff811115610de7577f4e487b7100000000000000000000000000000000000000000000000000000000600052604160045260246000fd5b604051908082528060200260200182016040528015610e2057816020015b610e0d613cb2565b815260200190600190039081610e055790505b5090506000808490505b8381101561102a576000600d8281548110610e6e577f4e487b7100000000000000000000000000000000000000000000000000000000600052603260045260246000fd5b90600052602060002001549050600073ffffffffffffffffffffffffffffffffffffffff16600c600083815260200190815260200160002060020160009054906101000a900473ffffffffffffffffffffffffffffffffffffffff1673ffffffffffffffffffffffffffffffffffffffff161461101657600c600082815260200190815260200160002060405180608001604052908160008201548152602001600182015481526020016002820160009054906101000a900473ffffffffffffffffffffffffffffffffffffffff1673ffffffffffffffffffffffffffffffffffffffff1673ffffffffffffffffffffffffffffffffffffffff1681526020016003820160009054906101000a900473ffffffffffffffffffffffffffffffffffffffff1673ffffffffffffffffffffffffffffffffffffffff1673ffffffffffffffffffffffffffffffffffffffff1681525050848481518110610ffc577f4e487b7100000000000000000000000000000000000000000000000000000000600052603260045260246000fd5b6020026020010181905250828061101290615293565b9350505b50808061102290615293565b915050610e2a565b5060008167ffffffffffffffff81111561106d577f4e487b7100000000000000000000000000000000000000000000000000000000600052604160045260246000fd5b6040519080825280602002602001820160405280156110a657816020015b611093613cb2565b81526020019060019003908161108b5790505b50905060005b8281101561114c578381815181106110ed577f4e487b7100000000000000000000000000000000000000000000000000000000600052603260045260246000fd5b602002602001015182828151811061112e577f4e487b7100000000000000000000000000000000000000000000000000000000600052603260045260246000fd5b6020026020010181905250808061114490615293565b9150506110ac565b508096505050505050505b919050565b60606000805b600d8054905081101561123f578573ffffffffffffffffffffffffffffffffffffffff16600c6000600d84815481106111c4577f4e487b7100000000000000000000000000000000000000000000000000000000600052603260045260246000fd5b9060005260206000200154815260200190815260200160002060030160009054906101000a900473ffffffffffffffffffffffffffffffffffffffff1673ffffffffffffffffffffffffffffffffffffffff16141561122c57818061122890615293565b9250505b808061123790615293565b915050611162565b506000838561124e91906150ba565b9050600061126785836112619190615033565b8461367d565b90508181116112f557600067ffffffffffffffff8111156112b1577f4e487b7100000000000000000000000000000000000000000000000000000000600052604160045260246000fd5b6040519080825280602002602001820160405280156112ea57816020015b6112d7613cb2565b8152602001906001900390816112cf5790505b5093505050506115f8565b600082826113039190615114565b67ffffffffffffffff811115611342577f4e487b7100000000000000000000000000000000000000000000000000000000600052604160045260246000fd5b60405190808252806020026020018201604052801561137b57816020015b611368613cb2565b8152602001906001900390816113605790505b5090506000805b600d80549050811080156113a05750848461139d9190615114565b82105b156115ee578973ffffffffffffffffffffffffffffffffffffffff16600c6000600d84815481106113fa577f4e487b7100000000000000000000000000000000000000000000000000000000600052603260045260246000fd5b9060005260206000200154815260200190815260200160002060030160009054906101000a900473ffffffffffffffffffffffffffffffffffffffff1673ffffffffffffffffffffffffffffffffffffffff1614156115db578482106115cc57600c6000600d8381548110611498577f4e487b7100000000000000000000000000000000000000000000000000000000600052603260045260246000fd5b9060005260206000200154815260200190815260200160002060405180608001604052908160008201548152602001600182015481526020016002820160009054906101000a900473ffffffffffffffffffffffffffffffffffffffff1673ffffffffffffffffffffffffffffffffffffffff1673ffffffffffffffffffffffffffffffffffffffff1681526020016003820160009054906101000a900473ffffffffffffffffffffffffffffffffffffffff1673ffffffffffffffffffffffffffffffffffffffff1673ffffffffffffffffffffffffffffffffffffffff16815250508386846115899190615114565b815181106115c0577f4e487b7100000000000000000000000000000000000000000000000000000000600052603260045260246000fd5b60200260200101819052505b81806115d790615293565b9250505b80806115e690615293565b915050611382565b5081955050505050505b9392505050565b6000600460008373ffffffffffffffffffffffffffffffffffffffff1673ffffffffffffffffffffffffffffffffffffffff1681526020019081526020016000205411611681576040517f08c379a000000000000000000000000000000000000000000000000000000000815260040161167890614b3d565b60405180910390fd5b600061168c826127b2565b905060008114156116d2576040517f08c379a00000000000000000000000000000000000000000000000000000000081526004016116c990614bbd565b60405180910390fd5b80600360008282546116e49190615033565b9250508190555080600560008473ffffffffffffffffffffffffffffffffffffffff1673ffffffffffffffffffffffffffffffffffffffff168152602001908152602001600020600082825401925050819055506117428282613696565b7fdf20fd1e76bc69d672e4814fafb2c449bba3a5369d8359adf9e05e6fde87b056828260405161177392919061495d565b60405180910390a15050565b6000600254905090565b6000600860008473ffffffffffffffffffffffffffffffffffffffff1673ffffffffffffffffffffffffffffffffffffffff16815260200190815260200160002060008373ffffffffffffffffffffffffffffffffffffffff1673ffffffffffffffffffffffffffffffffffffffff16815260200190815260200160002054905092915050565b6000600460008373ffffffffffffffffffffffffffffffffffffffff1673ffffffffffffffffffffffffffffffffffffffff1681526020019081526020016000205411611892576040517f08c379a000000000000000000000000000000000000000000000000000000000815260040161188990614b3d565b60405180910390fd5b600061189e8383613153565b905060008114156118e4576040517f08c379a00000000000000000000000000000000000000000000000000000000081526004016118db90614bbd565b60405180910390fd5b80600760008573ffffffffffffffffffffffffffffffffffffffff1673ffffffffffffffffffffffffffffffffffffffff16815260200190815260200160002060008282546119339190615033565b9250508190555080600860008573ffffffffffffffffffffffffffffffffffffffff1673ffffffffffffffffffffffffffffffffffffffff16815260200190815260200160002060008473ffffffffffffffffffffffffffffffffffffffff1673ffffffffffffffffffffffffffffffffffffffff168152602001908152602001600020600082825401925050819055506119cf83838361378a565b8273ffffffffffffffffffffffffffffffffffffffff167f3be5b7a71e84ed12875d241991c70855ac5817d847039e17a9d895c1ceb0f18a8383604051611a179291906149bd565b60405180910390a2505050565b611a2c613cb2565b6000611a3883856135cd565b9050600073ffffffffffffffffffffffffffffffffffffffff16600c600083815260200190815260200160002060020160009054906101000a900473ffffffffffffffffffffffffffffffffffffffff1673ffffffffffffffffffffffffffffffffffffffff161415611ae0576040517f08c379a0000000000000000000000000000000000000000000000000000000008152600401611ad790614b1d565b60405180910390fd5b600c600082815260200190815260200160002060405180608001604052908160008201548152602001600182015481526020016002820160009054906101000a900473ffffffffffffffffffffffffffffffffffffffff1673ffffffffffffffffffffffffffffffffffffffff1673ffffffffffffffffffffffffffffffffffffffff1681526020016003820160009054906101000a900473ffffffffffffffffffffffffffffffffffffffff1673ffffffffffffffffffffffffffffffffffffffff1673ffffffffffffffffffffffffffffffffffffffff168152505091505092915050565b600080611bd484846135cd565b9050600073ffffffffffffffffffffffffffffffffffffffff16600c600083815260200190815260200160002060020160009054906101000a900473ffffffffffffffffffffffffffffffffffffffff1673ffffffffffffffffffffffffffffffffffffffff16141591505092915050565b611c4e613810565b611c58600061388e565b565b606060008367ffffffffffffffff811115611c9e577f4e487b7100000000000000000000000000000000000000000000000000000000600052604160045260246000fd5b604051908082528060200260200182016040528015611ccc5781602001602082028036833780820191505090505b509050600080600a60009054906101000a900473ffffffffffffffffffffffffffffffffffffffff1673ffffffffffffffffffffffffffffffffffffffff1663d08b28ea8989896040518463ffffffff1660e01b8152600401611d3193929190614ed6565b60006040518083038186803b158015611d4957600080fd5b505afa158015611d5d573d6000803e3d6000fd5b505050506040513d6000823e3d601f19601f82011682018060405250810190611d869190613fee565b9050600081511415611e0c57600067ffffffffffffffff811115611dd3577f4e487b7100000000000000000000000000000000000000000000000000000000600052604160045260246000fd5b604051908082528060200260200182016040528015611e015781602001602082028036833780820191505090505b509350505050612060565b60005b8151811015611f3f576000828281518110611e53577f4e487b7100000000000000000000000000000000000000000000000000000000600052603260045260246000fd5b602002602001015190506000611e6988836135cd565b9050600073ffffffffffffffffffffffffffffffffffffffff16600c600083815260200190815260200160002060020160009054906101000a900473ffffffffffffffffffffffffffffffffffffffff1673ffffffffffffffffffffffffffffffffffffffff1614611f2a5781868681518110611f0f577f4e487b7100000000000000000000000000000000000000000000000000000000600052603260045260246000fd5b6020026020010181815250508480611f2690615293565b9550505b50508080611f3790615293565b915050611e0f565b5060008267ffffffffffffffff811115611f82577f4e487b7100000000000000000000000000000000000000000000000000000000600052604160045260246000fd5b604051908082528060200260200182016040528015611fb05781602001602082028036833780820191505090505b50905060005b8381101561205757848181518110611ff7577f4e487b7100000000000000000000000000000000000000000000000000000000600052603260045260246000fd5b6020026020010151828281518110612038577f4e487b7100000000000000000000000000000000000000000000000000000000600052603260045260246000fd5b602002602001018181525050808061204f90615293565b915050611fb6565b50809450505050505b949350505050565b6000600682815481106120a4577f4e487b7100000000000000000000000000000000000000000000000000000000600052603260045260246000fd5b9060005260206000200160009054906101000a900473ffffffffffffffffffffffffffffffffffffffff169050919050565b60008060009054906101000a900473ffffffffffffffffffffffffffffffffffffffff16905090565b60606000600d8054905090506000838561211991906150ba565b90506000612132858361212c9190615033565b8461367d565b90508181116121c057600067ffffffffffffffff81111561217c577f4e487b7100000000000000000000000000000000000000000000000000000000600052604160045260246000fd5b6040519080825280602002602001820160405280156121b557816020015b6121a2613cb2565b81526020019060019003908161219a5790505b509350505050612448565b600082826121ce9190615114565b67ffffffffffffffff81111561220d577f4e487b7100000000000000000000000000000000000000000000000000000000600052604160045260246000fd5b60405190808252806020026020018201604052801561224657816020015b612233613cb2565b81526020019060019003908161222b5790505b5090506000808490505b8381101561243e576000600c6000600d8481548110612298577f4e487b7100000000000000000000000000000000000000000000000000000000600052603260045260246000fd5b9060005260206000200154815260200190815260200160002090508a73ffffffffffffffffffffffffffffffffffffffff168160020160009054906101000a900473ffffffffffffffffffffffffffffffffffffffff1673ffffffffffffffffffffffffffffffffffffffff16141561242a578060405180608001604052908160008201548152602001600182015481526020016002820160009054906101000a900473ffffffffffffffffffffffffffffffffffffffff1673ffffffffffffffffffffffffffffffffffffffff1673ffffffffffffffffffffffffffffffffffffffff1681526020016003820160009054906101000a900473ffffffffffffffffffffffffffffffffffffffff1673ffffffffffffffffffffffffffffffffffffffff1673ffffffffffffffffffffffffffffffffffffffff1681525050848481518110612410577f4e487b7100000000000000000000000000000000000000000000000000000000600052603260045260246000fd5b6020026020010181905250828061242690615293565b9350505b50808061243690615293565b915050612250565b5081955050505050505b9392505050565b6000600560008373ffffffffffffffffffffffffffffffffffffffff1673ffffffffffffffffffffffffffffffffffffffff168152602001908152602001600020549050919050565b6124a0613600565b60006124ac83836135cd565b90506000600c600083815260200190815260200160002090503373ffffffffffffffffffffffffffffffffffffffff168160020160009054906101000a900473ffffffffffffffffffffffffffffffffffffffff1673ffffffffffffffffffffffffffffffffffffffff1614612557576040517f08c379a000000000000000000000000000000000000000000000000000000000815260040161254e90614bfd565b60405180910390fd5b60008160030160009054906101000a900473ffffffffffffffffffffffffffffffffffffffff169050600c600084815260200190815260200160002060008082016000905560018201600090556002820160006101000a81549073ffffffffffffffffffffffffffffffffffffffff02191690556003820160006101000a81549073ffffffffffffffffffffffffffffffffffffffff021916905550506125fe600b613952565b60005b600d8054905081101561275e5783600d8281548110612649577f4e487b7100000000000000000000000000000000000000000000000000000000600052603260045260246000fd5b9060005260206000200154141561274b57600d6001600d8054905061266e9190615114565b815481106126a5577f4e487b7100000000000000000000000000000000000000000000000000000000600052603260045260246000fd5b9060005260206000200154600d82815481106126ea577f4e487b7100000000000000000000000000000000000000000000000000000000600052603260045260246000fd5b9060005260206000200181905550600d805480612730577f4e487b7100000000000000000000000000000000000000000000000000000000600052603160045260246000fd5b6001900381819060005260206000200160009055905561275e565b808061275690615293565b915050612601565b508473ffffffffffffffffffffffffffffffffffffffff16847fef1499b350e05776e60cd2ffcac001569a28e9d574e1f3adc1b3ab264f8ccffd60405160405180910390a35050506127ae613666565b5050565b6000806127bd61351b565b476127c89190615033565b90506127dd83826127d88661244f565b6139ae565b915050919050565b6127ed613600565b60006127f983836135cd565b90506000600c6000838152602001908152602001600020905080600101543414612858576040517f08c379a000000000000000000000000000000000000000000000000000000000815260040161284f90614c9d565b60405180910390fd5b66038d7ea4c68000816001015410156128a6576040517f08c379a000000000000000000000000000000000000000000000000000000000815260040161289d90614d5d565b60405180910390fd5b3373ffffffffffffffffffffffffffffffffffffffff168160020160009054906101000a900473ffffffffffffffffffffffffffffffffffffffff1673ffffffffffffffffffffffffffffffffffffffff161415612939576040517f08c379a000000000000000000000000000000000000000000000000000000000815260040161293090614c5d565b60405180910390fd5b60008490508073ffffffffffffffffffffffffffffffffffffffff166301ffc9a77f80ac58cd000000000000000000000000000000000000000000000000000000006040518263ffffffff1660e01b81526004016129979190614a60565b60206040518083038186803b1580156129af57600080fd5b505afa1580156129c3573d6000803e3d6000fd5b505050506040513d601f19601f820116820180604052508101906129e7919061402f565b612a26576040517f08c379a0000000000000000000000000000000000000000000000000000000008152600401612a1d90614a9d565b60405180910390fd5b8073ffffffffffffffffffffffffffffffffffffffff166301ffc9a77f2a55205a000000000000000000000000000000000000000000000000000000006040518263ffffffff1660e01b8152600401612a7f9190614a60565b60206040518083038186803b158015612a9757600080fd5b505afa158015612aab573d6000803e3d6000fd5b505050506040513d601f19601f82011682018060405250810190612acf919061402f565b612b0e576040517f08c379a0000000000000000000000000000000000000000000000000000000008152600401612b0590614bdd565b60405180910390fd5b600085905060008690506000808373ffffffffffffffffffffffffffffffffffffffff16632a55205a876000015488600101546040518363ffffffff1660e01b8152600401612b5e929190614e68565b604080518083038186803b158015612b7557600080fd5b505afa158015612b89573d6000803e3d6000fd5b505050506040513d601f19601f82011682018060405250810190612bad9190613f63565b91509150600060646009548860010154612bc791906150ba565b612bd19190615089565b90508181612bdf9190615033565b876001015411612c24576040517f08c379a0000000000000000000000000000000000000000000000000000000008152600401612c1b90614c7d565b60405180910390fd5b60008183612c329190615033565b8860010154612c419190615114565b905060008860020160009054906101000a900473ffffffffffffffffffffffffffffffffffffffff1673ffffffffffffffffffffffffffffffffffffffff1682604051612c8d9061492d565b60006040518083038185875af1925050503d8060008114612cca576040519150601f19603f3d011682016040523d82523d6000602084013e612ccf565b606091505b5050905080612d13576040517f08c379a0000000000000000000000000000000000000000000000000000000008152600401612d0a90614cfd565b60405180910390fd5b60008573ffffffffffffffffffffffffffffffffffffffff1685604051612d399061492d565b60006040518083038185875af1925050503d8060008114612d76576040519150601f19603f3d011682016040523d82523d6000602084013e612d7b565b606091505b5050905080612dbf576040517f08c379a0000000000000000000000000000000000000000000000000000000008152600401612db690614abd565b60405180910390fd5b600c60008c815260200190815260200160002060008082016000905560018201600090556002820160006101000a81549073ffffffffffffffffffffffffffffffffffffffff02191690556003820160006101000a81549073ffffffffffffffffffffffffffffffffffffffff021916905550508673ffffffffffffffffffffffffffffffffffffffff166323b872dd30338f6040518463ffffffff1660e01b8152600401612e7093929190614986565b600060405180830381600087803b158015612e8a57600080fd5b505af1158015612e9e573d6000803e3d6000fd5b50505050612eac600b613952565b60005b600d8054905081101561300c578b600d8281548110612ef7577f4e487b7100000000000000000000000000000000000000000000000000000000600052603260045260246000fd5b90600052602060002001541415612ff957600d6001600d80549050612f1c9190615114565b81548110612f53577f4e487b7100000000000000000000000000000000000000000000000000000000600052603260045260246000fd5b9060005260206000200154600d8281548110612f98577f4e487b7100000000000000000000000000000000000000000000000000000000600052603260045260246000fd5b9060005260206000200181905550600d805480612fde577f4e487b7100000000000000000000000000000000000000000000000000000000600052603160045260246000fd5b6001900381819060005260206000200160009055905561300c565b808061300490615293565b915050612eaf565b503373ffffffffffffffffffffffffffffffffffffffff168a60020160009054906101000a900473ffffffffffffffffffffffffffffffffffffffff1673ffffffffffffffffffffffffffffffffffffffff168d7f4d26e6707cfb0dd9d0e2aaaf04de4b0b4a388a1c760ed3b2976827015153a39e8d600101548e60030160009054906101000a900473ffffffffffffffffffffffffffffffffffffffff166040516130b9929190614df3565b60405180910390a450505050505050505050506130d4613666565b5050565b66038d7ea4c6800081565b600c6020528060005260406000206000915090508060000154908060010154908060020160009054906101000a900473ffffffffffffffffffffffffffffffffffffffff16908060030160009054906101000a900473ffffffffffffffffffffffffffffffffffffffff16905084565b60008061315f846134d2565b8473ffffffffffffffffffffffffffffffffffffffff166370a08231306040518263ffffffff1660e01b81526004016131989190614942565b60206040518083038186803b1580156131b057600080fd5b505afa1580156131c4573d6000803e3d6000fd5b505050506040513d601f19601f820116820180604052508101906131e8919061410f565b6131f29190615033565b905061320883826132038787611789565b6139ae565b91505092915050565b613219613600565b600060646009543461322b91906150ba565b6132359190615089565b9050803411613279576040517f08c379a000000000000000000000000000000000000000000000000000000000815260040161327090614c7d565b60405180910390fd5b600080600a60009054906101000a900473ffffffffffffffffffffffffffffffffffffffff1673ffffffffffffffffffffffffffffffffffffffff16636313a3e8863387346040518563ffffffff1660e01b81526004016132dd9493929190614e1c565b6040805180830381600087803b1580156132f657600080fd5b505af115801561330a573d6000803e3d6000fd5b505050506040513d601f19601f8201168201806040525081019061332e9190614174565b91509150600083346133409190615114565b905060008273ffffffffffffffffffffffffffffffffffffffff16826040516133689061492d565b60006040518083038185875af1925050503d80600081146133a5576040519150601f19603f3d011682016040523d82523d6000602084013e6133aa565b606091505b50509050806133ee576040517f08c379a00000000000000000000000000000000000000000000000000000000081526004016133e590614cbd565b60405180910390fd5b3373ffffffffffffffffffffffffffffffffffffffff168373ffffffffffffffffffffffffffffffffffffffff16857f4d26e6707cfb0dd9d0e2aaaf04de4b0b4a388a1c760ed3b2976827015153a39e34600a60009054906101000a900473ffffffffffffffffffffffffffffffffffffffff16604051613470929190614df3565b60405180910390a45050505050613485613666565b5050565b6000600460008373ffffffffffffffffffffffffffffffffffffffff1673ffffffffffffffffffffffffffffffffffffffff168152602001908152602001600020549050919050565b6000600760008373ffffffffffffffffffffffffffffffffffffffff1673ffffffffffffffffffffffffffffffffffffffff168152602001908152602001600020549050919050565b6000600354905090565b600d818154811061353557600080fd5b906000526020600020016000915090505481565b613551613810565b600073ffffffffffffffffffffffffffffffffffffffff168173ffffffffffffffffffffffffffffffffffffffff1614156135c1576040517f08c379a00000000000000000000000000000000000000000000000000000000081526004016135b890614afd565b60405180910390fd5b6135ca8161388e565b50565b600082826040516020016135e29291906148ea565b60405160208183030381529060405280519060200120905092915050565b60026001541415613646576040517f08c379a000000000000000000000000000000000000000000000000000000000815260040161363d90614d9d565b60405180910390fd5b6002600181905550565b6001816000016000828254019250508190555050565b60018081905550565b600081600001549050919050565b600081831061368c578161368e565b825b905092915050565b804710156136d9576040517f08c379a00000000000000000000000000000000000000000000000000000000081526004016136d090614b7d565b60405180910390fd5b60008273ffffffffffffffffffffffffffffffffffffffff16826040516136ff9061492d565b60006040518083038185875af1925050503d806000811461373c576040519150601f19603f3d011682016040523d82523d6000602084013e613741565b606091505b5050905080613785576040517f08c379a000000000000000000000000000000000000000000000000000000000815260040161377c90614b5d565b60405180910390fd5b505050565b61380b8363a9059cbb60e01b84846040516024016137a99291906149bd565b604051602081830303815290604052907bffffffffffffffffffffffffffffffffffffffffffffffffffffffff19166020820180517bffffffffffffffffffffffffffffffffffffffffffffffffffffffff8381831617835250505050613a1c565b505050565b6138186107a2565b73ffffffffffffffffffffffffffffffffffffffff166138366120d6565b73ffffffffffffffffffffffffffffffffffffffff161461388c576040517f08c379a000000000000000000000000000000000000000000000000000000000815260040161388390614cdd565b60405180910390fd5b565b60008060009054906101000a900473ffffffffffffffffffffffffffffffffffffffff169050816000806101000a81548173ffffffffffffffffffffffffffffffffffffffff021916908373ffffffffffffffffffffffffffffffffffffffff1602179055508173ffffffffffffffffffffffffffffffffffffffff168173ffffffffffffffffffffffffffffffffffffffff167f8be0079c531659141344cd1fd0a4f28419497f9722a3daafe3b4186f6b6457e060405160405180910390a35050565b6000816000015490506000811161399e576040517f08c379a000000000000000000000000000000000000000000000000000000000815260040161399590614add565b60405180910390fd5b6001810382600001819055505050565b600081600254600460008773ffffffffffffffffffffffffffffffffffffffff1673ffffffffffffffffffffffffffffffffffffffff16815260200190815260200160002054856139ff91906150ba565b613a099190615089565b613a139190615114565b90509392505050565b6000613a7e826040518060400160405280602081526020017f5361666545524332303a206c6f772d6c6576656c2063616c6c206661696c65648152508573ffffffffffffffffffffffffffffffffffffffff16613ae49092919063ffffffff16565b9050600081511480613aa0575080806020019051810190613a9f919061402f565b5b613adf576040517f08c379a0000000000000000000000000000000000000000000000000000000008152600401613ad690614d7d565b60405180910390fd5b505050565b6060613af38484600085613afc565b90509392505050565b606082471015613b41576040517f08c379a0000000000000000000000000000000000000000000000000000000008152600401613b3890614b9d565b60405180910390fd5b6000808673ffffffffffffffffffffffffffffffffffffffff168587604051613b6a9190614916565b60006040518083038185875af1925050503d8060008114613ba7576040519150601f19603f3d011682016040523d82523d6000602084013e613bac565b606091505b5091509150613bbd87838387613bc9565b92505050949350505050565b60608315613c2c57600083511415613c2457613be485613c3f565b613c23576040517f08c379a0000000000000000000000000000000000000000000000000000000008152600401613c1a90614d3d565b60405180910390fd5b5b829050613c37565b613c368383613c62565b5b949350505050565b6000808273ffffffffffffffffffffffffffffffffffffffff163b119050919050565b600082511115613c755781518083602001fd5b806040517f08c379a0000000000000000000000000000000000000000000000000000000008152600401613ca99190614a7b565b60405180910390fd5b60405180608001604052806000815260200160008152602001600073ffffffffffffffffffffffffffffffffffffffff168152602001600073ffffffffffffffffffffffffffffffffffffffff1681525090565b6000613d19613d1484614f32565b614f0d565b90508083825260208201905082856020860282011115613d3857600080fd5b60005b85811015613d685781613d4e8882613e97565b845260208401935060208301925050600181019050613d3b565b5050509392505050565b6000613d85613d8084614f5e565b614f0d565b905082815260208101848484011115613d9d57600080fd5b613da8848285615220565b509392505050565b600081359050613dbf81615a19565b92915050565b600081519050613dd481615a19565b92915050565b600081359050613de981615a30565b92915050565b600082601f830112613e0057600080fd5b8151613e10848260208601613d06565b91505092915050565b600081519050613e2881615a47565b92915050565b600081359050613e3d81615a5e565b92915050565b600081359050613e5281615a75565b92915050565b600082601f830112613e6957600080fd5b8135613e79848260208601613d72565b91505092915050565b600081359050613e9181615a8c565b92915050565b600081519050613ea681615a8c565b92915050565b600060208284031215613ebe57600080fd5b6000613ecc84828501613db0565b91505092915050565b600060208284031215613ee757600080fd5b6000613ef584828501613dc5565b91505092915050565b600060208284031215613f1057600080fd5b6000613f1e84828501613dda565b91505092915050565b60008060408385031215613f3a57600080fd5b6000613f4885828601613db0565b9250506020613f5985828601613e82565b9150509250929050565b60008060408385031215613f7657600080fd5b6000613f8485828601613dc5565b9250506020613f9585828601613e97565b9150509250929050565b600080600060608486031215613fb457600080fd5b6000613fc286828701613db0565b9350506020613fd386828701613e82565b9250506040613fe486828701613e82565b9150509250925092565b60006020828403121561400057600080fd5b600082015167ffffffffffffffff81111561401a57600080fd5b61402684828501613def565b91505092915050565b60006020828403121561404157600080fd5b600061404f84828501613e19565b91505092915050565b60006020828403121561406a57600080fd5b600061407884828501613e2e565b91505092915050565b60006020828403121561409357600080fd5b60006140a184828501613e43565b91505092915050565b600080604083850312156140bd57600080fd5b60006140cb85828601613e43565b92505060206140dc85828601613db0565b9150509250929050565b6000602082840312156140f857600080fd5b600061410684828501613e82565b91505092915050565b60006020828403121561412157600080fd5b600061412f84828501613e97565b91505092915050565b6000806040838503121561414b57600080fd5b600061415985828601613e82565b925050602061416a85828601613db0565b9150509250929050565b6000806040838503121561418757600080fd5b600061419585828601613e97565b92505060206141a685828601613dc5565b9150509250929050565b600080604083850312156141c357600080fd5b60006141d185828601613e82565b925050602083013567ffffffffffffffff8111156141ee57600080fd5b6141fa85828601613e58565b9150509250929050565b60008060006060848603121561421957600080fd5b600061422786828701613e82565b935050602061423886828701613e82565b925050604061424986828701613db0565b9150509250925092565b6000806000806080858703121561426957600080fd5b600061427787828801613e82565b945050602061428887828801613e82565b935050604061429987828801613e82565b92505060606142aa87828801613db0565b91505092959194509250565b60006142c2838361480b565b60808301905092915050565b60006142da83836148b5565b60208301905092915050565b6142ef816151ea565b82525050565b6142fe81615148565b82525050565b61430d81615148565b82525050565b61432461431f82615148565b6152dc565b82525050565b600061433582614faf565b61433f8185614ff5565b935061434a83614f8f565b8060005b8381101561437b57815161436288826142b6565b975061436d83614fdb565b92505060018101905061434e565b5085935050505092915050565b600061439382614fba565b61439d8185615006565b93506143a883614f9f565b8060005b838110156143d95781516143c088826142ce565b97506143cb83614fe8565b9250506001810190506143ac565b5085935050505092915050565b6143ef8161516c565b82525050565b6143fe81615178565b82525050565b61440d81615182565b82525050565b600061441e82614fc5565b6144288185615017565b935061443881856020860161522f565b80840191505092915050565b600061444f82614fd0565b6144598185615022565b935061446981856020860161522f565b61447281615397565b840191505092915050565b600061448a603683615022565b9150614495826153b5565b604082019050919050565b60006144ad602b83615022565b91506144b882615404565b604082019050919050565b60006144d0601b83615022565b91506144db82615453565b602082019050919050565b60006144f3602683615022565b91506144fe8261547c565b604082019050919050565b6000614516603083615022565b9150614521826154cb565b604082019050919050565b6000614539602683615022565b91506145448261551a565b604082019050919050565b600061455c603a83615022565b915061456782615569565b604082019050919050565b600061457f601d83615022565b915061458a826155b8565b602082019050919050565b60006145a2602683615022565b91506145ad826155e1565b604082019050919050565b60006145c5602b83615022565b91506145d082615630565b604082019050919050565b60006145e8603783615022565b91506145f38261567f565b604082019050919050565b600061460b601683615022565b9150614616826156ce565b602082019050919050565b600061462e602483615022565b9150614639826156f7565b604082019050919050565b6000614651602483615022565b915061465c82615746565b604082019050919050565b6000614674601e83615022565b915061467f82615795565b602082019050919050565b6000614697602b83615022565b91506146a2826157be565b604082019050919050565b60006146ba602783615022565b91506146c58261580d565b604082019050919050565b60006146dd602483615022565b91506146e88261585c565b604082019050919050565b6000614700602083615022565b915061470b826158ab565b602082019050919050565b6000614723601d83615022565b915061472e826158d4565b602082019050919050565b6000614746601783615022565b9150614751826158fd565b602082019050919050565b6000614769600083615017565b915061477482615926565b600082019050919050565b600061478c601d83615022565b915061479782615929565b602082019050919050565b60006147af602c83615022565b91506147ba82615952565b604082019050919050565b60006147d2602a83615022565b91506147dd826159a1565b604082019050919050565b60006147f5601f83615022565b9150614800826159f0565b602082019050919050565b60808201600082015161482160008501826148b5565b50602082015161483460208501826148b5565b50604082015161484760408501826142f5565b50606082015161485a60608501826142f5565b50505050565b60808201600082015161487660008501826148b5565b50602082015161488960208501826148b5565b50604082015161489c60408501826142f5565b5060608201516148af60608501826142f5565b50505050565b6148be816151e0565b82525050565b6148cd816151e0565b82525050565b6148e46148df826151e0565b615300565b82525050565b60006148f68285614313565b60148201915061490682846148d3565b6020820191508190509392505050565b60006149228284614413565b915081905092915050565b60006149388261475c565b9150819050919050565b60006020820190506149576000830184614304565b92915050565b600060408201905061497260008301856142e6565b61497f60208301846148c4565b9392505050565b600060608201905061499b6000830186614304565b6149a86020830185614304565b6149b560408301846148c4565b949350505050565b60006040820190506149d26000830185614304565b6149df60208301846148c4565b9392505050565b60006020820190508181036000830152614a00818461432a565b905092915050565b60006020820190508181036000830152614a228184614388565b905092915050565b6000602082019050614a3f60008301846143e6565b92915050565b6000602082019050614a5a60008301846143f5565b92915050565b6000602082019050614a756000830184614404565b92915050565b60006020820190508181036000830152614a958184614444565b905092915050565b60006020820190508181036000830152614ab68161447d565b9050919050565b60006020820190508181036000830152614ad6816144a0565b9050919050565b60006020820190508181036000830152614af6816144c3565b9050919050565b60006020820190508181036000830152614b16816144e6565b9050919050565b60006020820190508181036000830152614b3681614509565b9050919050565b60006020820190508181036000830152614b568161452c565b9050919050565b60006020820190508181036000830152614b768161454f565b9050919050565b60006020820190508181036000830152614b9681614572565b9050919050565b60006020820190508181036000830152614bb681614595565b9050919050565b60006020820190508181036000830152614bd6816145b8565b9050919050565b60006020820190508181036000830152614bf6816145db565b9050919050565b60006020820190508181036000830152614c16816145fe565b9050919050565b60006020820190508181036000830152614c3681614621565b9050919050565b60006020820190508181036000830152614c5681614644565b9050919050565b60006020820190508181036000830152614c7681614667565b9050919050565b60006020820190508181036000830152614c968161468a565b9050919050565b60006020820190508181036000830152614cb6816146ad565b9050919050565b60006020820190508181036000830152614cd6816146d0565b9050919050565b60006020820190508181036000830152614cf6816146f3565b9050919050565b60006020820190508181036000830152614d1681614716565b9050919050565b60006020820190508181036000830152614d3681614739565b9050919050565b60006020820190508181036000830152614d568161477f565b9050919050565b60006020820190508181036000830152614d76816147a2565b9050919050565b60006020820190508181036000830152614d96816147c5565b9050919050565b60006020820190508181036000830152614db6816147e8565b9050919050565b6000608082019050614dd26000830184614860565b92915050565b6000602082019050614ded60008301846148c4565b92915050565b6000604082019050614e0860008301856148c4565b614e156020830184614304565b9392505050565b6000608082019050614e3160008301876148c4565b614e3e6020830186614304565b8181036040830152614e508185614444565b9050614e5f60608301846148c4565b95945050505050565b6000604082019050614e7d60008301856148c4565b614e8a60208301846148c4565b9392505050565b6000608082019050614ea660008301876148c4565b614eb360208301866148c4565b614ec06040830185614304565b614ecd6060830184614304565b95945050505050565b6000606082019050614eeb60008301866148c4565b614ef860208301856148c4565b614f0560408301846148c4565b949350505050565b6000614f17614f28565b9050614f238282615262565b919050565b6000604051905090565b600067ffffffffffffffff821115614f4d57614f4c615368565b5b602082029050602081019050919050565b600067ffffffffffffffff821115614f7957614f78615368565b5b614f8282615397565b9050602081019050919050565b6000819050602082019050919050565b6000819050602082019050919050565b600081519050919050565b600081519050919050565b600081519050919050565b600081519050919050565b6000602082019050919050565b6000602082019050919050565b600082825260208201905092915050565b600082825260208201905092915050565b600081905092915050565b600082825260208201905092915050565b600061503e826151e0565b9150615049836151e0565b9250827fffffffffffffffffffffffffffffffffffffffffffffffffffffffffffffffff0382111561507e5761507d61530a565b5b828201905092915050565b6000615094826151e0565b915061509f836151e0565b9250826150af576150ae615339565b5b828204905092915050565b60006150c5826151e0565b91506150d0836151e0565b9250817fffffffffffffffffffffffffffffffffffffffffffffffffffffffffffffffff04831182151516156151095761510861530a565b5b828202905092915050565b600061511f826151e0565b915061512a836151e0565b92508282101561513d5761513c61530a565b5b828203905092915050565b6000615153826151c0565b9050919050565b6000615165826151c0565b9050919050565b60008115159050919050565b6000819050919050565b60007fffffffff0000000000000000000000000000000000000000000000000000000082169050919050565b60006151b982615148565b9050919050565b600073ffffffffffffffffffffffffffffffffffffffff82169050919050565b6000819050919050565b60006151f5826151fc565b9050919050565b60006152078261520e565b9050919050565b6000615219826151c0565b9050919050565b82818337600083830152505050565b60005b8381101561524d578082015181840152602081019050615232565b8381111561525c576000848401525b50505050565b61526b82615397565b810181811067ffffffffffffffff8211171561528a57615289615368565b5b80604052505050565b600061529e826151e0565b91507fffffffffffffffffffffffffffffffffffffffffffffffffffffffffffffffff8214156152d1576152d061530a565b5b600182019050919050565b60006152e7826152ee565b9050919050565b60006152f9826153a8565b9050919050565b6000819050919050565b7f4e487b7100000000000000000000000000000000000000000000000000000000600052601160045260246000fd5b7f4e487b7100000000000000000000000000000000000000000000000000000000600052601260045260246000fd5b7f4e487b7100000000000000000000000000000000000000000000000000000000600052604160045260246000fd5b6000601f19601f8301169050919050565b60008160601b9050919050565b7f546865204e465420636f6e747261637420646f6573206e6f7420737570706f7260008201527f74207468652045524337323120696e7465726661636500000000000000000000602082015250565b7f5472616e73666572206f6620726f79616c747920746f2074686520726563656960008201527f766572206661696c65642e000000000000000000000000000000000000000000602082015250565b7f436f756e7465723a2064656372656d656e74206f766572666c6f770000000000600082015250565b7f4f776e61626c653a206e6577206f776e657220697320746865207a65726f206160008201527f6464726573730000000000000000000000000000000000000000000000000000602082015250565b7f4e6f206c697374696e6720666f756e6420666f72207468697320746f6b656e4960008201527f6420616e6420636f6c6c656374696f6e00000000000000000000000000000000602082015250565b7f5061796d656e7453706c69747465723a206163636f756e7420686173206e6f2060008201527f7368617265730000000000000000000000000000000000000000000000000000602082015250565b7f416464726573733a20756e61626c6520746f2073656e642076616c75652c207260008201527f6563697069656e74206d61792068617665207265766572746564000000000000602082015250565b7f416464726573733a20696e73756666696369656e742062616c616e6365000000600082015250565b7f416464726573733a20696e73756666696369656e742062616c616e636520666f60008201527f722063616c6c0000000000000000000000000000000000000000000000000000602082015250565b7f5061796d656e7453706c69747465723a206163636f756e74206973206e6f742060008201527f647565207061796d656e74000000000000000000000000000000000000000000602082015250565b7f546865204e465420636f6e747261637420646f6573206e6f7420737570706f7260008201527f7420746865204552433239383120696e74657266616365000000000000000000602082015250565b7f596f7520646f6e2774206f776e2074686973204e465400000000000000000000600082015250565b7f50616765206e756d6265722073686f756c64206265206772656174657220746860008201527f616e203000000000000000000000000000000000000000000000000000000000602082015250565b7f5072696365206d7573742062652067726561746572207468616e204d494e5f5060008201527f5249434500000000000000000000000000000000000000000000000000000000602082015250565b7f4f776e65722063616e6e6f7420627579207468656972206f776e204e46540000600082015250565b7f50726963652073686f756c6420626520686967686572207468616e20746f746160008201527f6c20726f79616c74696573000000000000000000000000000000000000000000602082015250565b7f53656e742076616c756520646f6573206e6f74206d6174636820746865204e4660008201527f5420707269636500000000000000000000000000000000000000000000000000602082015250565b7f5472616e7366657220746f20436f6c6c656374696f6e206f776e65722066616960008201527f6c65642e00000000000000000000000000000000000000000000000000000000602082015250565b7f4f776e61626c653a2063616c6c6572206973206e6f7420746865206f776e6572600082015250565b7f5472616e7366657220746f204e4654206f776e6572206661696c65642e000000600082015250565b7f546f6b656e20697320616c7265616479206c6973746564000000000000000000600082015250565b50565b7f416464726573733a2063616c6c20746f206e6f6e2d636f6e7472616374000000600082015250565b7f4c697374696e67207072696365206d757374206265206772656174657220746860008201527f616e204d494e5f50524943450000000000000000000000000000000000000000602082015250565b7f5361666545524332303a204552433230206f7065726174696f6e20646964206e60008201527f6f74207375636365656400000000000000000000000000000000000000000000602082015250565b7f5265656e7472616e637947756172643a207265656e7472616e742063616c6c00600082015250565b615a2281615148565b8114615a2d57600080fd5b50565b615a398161515a565b8114615a4457600080fd5b50565b615a508161516c565b8114615a5b57600080fd5b50565b615a6781615178565b8114615a7257600080fd5b50565b615a7e816151ae565b8114615a8957600080fd5b50565b615a95816151e0565b8114615aa057600080fd5b5056fea26469706673582212204f03be7241e79a96319176d35e41d34cff8b459a191451bef7a1383f3751e6ab64736f6c63430008010033",
  "linkReferences": {},
  "deployedLinkReferences": {}
}